:020000040800F2
:10000000001000209D020008797900087979000825
:1000100079790008797900087979000879790008F8
:1000200079790008797900087979000879790008E8
:1000300079790008797900087979000879790008D8
:1000400079790008797900087979000879790008C8
:1000500079790008797900087979000879790008B8
:1000600079790008797900087979000879790008A8
:100070007979000879790008797900087979000898
:100080007979000879790008797900087979000888
:100090007979000879790008797900087979000878
:1000A0007979000879790008797900087979000868
:1000B0007979000879790008797900087979000858
:1000C0007979000879790008797900087979000848
:1000D0007979000879790008797900087979000838
:1000E0007979000879790008797900087979000828
:1000F0007979000879790008797900087979000818
:100100007979000879790008797900087979000807
:1001100079790008797900087979000879790008F7
:1001200079790008797900087979000879790008E7
:1001300079790008797900087979000879790008D7
:1001400079790008797900087979000879790008C7
:1001500079790008797900087979000879790008B7
:1001600079790008797900087979000879790008A7
:100170000348044B834202D0034B03B11847704736
:10018000A8240020A824002000000000064B0749F6
:10019000C91A891048BF0131491003D0044B0BB173
:1001A00001481847704700BFA8240020A824002059
:1001B0000000000010B5064C237843B9FFF7D8FFC4
:1001C000044B13B10448AFF300800123237010BD2A
:1001D000582E0020000000008CE5000808B5054BF3
:1001E0001BB105490548AFF30080BDE80840FFF7A3
:1001F000CDBF00BF00000000082500208CE50008EE
:10020000A3F5803A704700BF174B002B08BF134B74
:100210009D46FFF7F5FF00218B460F461348144A11
:10022000121A0CF0F8FC0E4B002B00D098470D4B27
:10023000002B00D098470020002104000D000D483D
:10024000002802D00C48AFF3008005F039FD2000F3
:1002500029000CF02FFC05F027FC00BF000008006F
:10026000000000000000000000100020A824002072
:100270005C56002000000000000000000346054A14
:100280000549106803448B428CBF4FF0FF30136068
:10029000704700BF041000200000022008B500F0E5
:1002A0002DF8124B12498B4212D30020114B1249E8
:1002B0008B4218D3FFF7A8FF186850F822405868FF
:1002C00040F82240013298688242F5D30C33EAE7C5
:1002D0000022F8E71C6844F8220001325C68A24260
:1002E000F8D30833E4E70022F8E700BF94E50008FC
:1002F000A0E50008A0E50008A0E500084FF4804153
:100300004FF0FF30114B124A10B59A60D3F8882095
:1003100042F47002C3F888200E4A91660E4901F536
:10032000005210660D4850660220C3F8D000BFF39B
:100330004F8FBFF36F8F01244FF440330848C0F84C
:100340008041D36004600B6110BD00BF00ED00E090
:10035000000000080090005000800044F7FF3700C4
:1003600000E100E070B59400224605460E460DF00F
:100370000FFA431C0AD058B92246314628460CF0E1
:1003800020FC0028034808BF002070BD0248FCE79D
:100390000248FAE710E000F021E000F024E000F06D
:1003A00013B5044601A800F06DF89DF8063001224F
:1003B00023804FF4807300206380054B9B680A33D1
:1003C00003F01F0302FA03F3636002B010BD00BF25
:1003D0000080E00F10B504460DF0D6F9431C15D08F
:1003E000B0B90C4B20469A6801230A3202F01F0272
:1003F000934023F003032344984201D1002010BD11
:1004000050F8042B0132F7D00348F8E70348F6E729
:100410000348F4E70080E00F0EE000F021E000F078
:1004200024E000F008B507F0C8FA014B186008BDD9
:10043000D0250020014B186807F0C3BAD025002052
:100440004FF48032054B9A6641F6713203F51C3346
:10045000DA63012203F50053DA6070470090005020
:1004600041F671320121064BDA6303F50052D16087
:100470000022DA634FF48032A3F518339A6670478E
:10048000000003504FF48032064B5A6603F5E62312
:100490009B69C3F38512827003F03F021B0B42700D
:1004A000037070470090005008B5B0B14FF48062FF
:1004B0000B4B9A6607F0A5FA4FF098435A6CD2029C
:1004C000FCD54FF48062586D064B10F470209A668C
:1004D00004D0BDE8084007F0B3BA212008BD00BF32
:1004E0000090005000A000502DE9FF474FF0000899
:1004F0000E4617460446CDF80080002859D022B990
:100500000025284604B0BDE8F087002951D032F01C
:10051000030902F0030A1FD04FF0E063C0E900387E
:1005200001230191C0F808800293C0F81C8049F0B3
:10053000005301A9039307F051FA4946204607F0FA
:1005400057FA2046FFF7B0FF054628B14A46414614
:1005500030460CF060FBD4E7BAF1000FD0D04FF07A
:1005600000084FF0E063C4E900380123CDF804D05F
:100570000293114B204601A9C4F80880C4F81C80DE
:10058000039307F02BFA0421204607F031FA2046A6
:10059000FFF78AFF054608B13A46D8E7009A4E446D
:1005A000EB00013522FA03F3AA4506F8013BF7D127
:1005B000A6E72125A5E700BF040000202DE9F041B2
:1005C000904602780C46022A8AB032D0032A35D0EF
:1005D000012A38D114271D4A00F10C05226000229F
:1005E0009E01C4E90122E2613146204607F000FA8B
:1005F0000123204647F0005704A946F00056CDF8E5
:100600000480029303960495059306970795089333
:10061000099707F0D9F9204601A907F0D5F9204636
:1006200007A907F0DBF92046FFF73EFF0AB0BDE857
:10063000F0812027064A00F10C05CFE72027054A64
:1006400000F10C05CAE72120F0E700BF000201031A
:10065000000301030004010310B591B188B1002328
:10066000C0E90133084B00F10C0203F1200153F8FB
:10067000044B8B4242F8044BF9D102230370002053
:1006800010BD2120FCE700BFB9D7000810B591B11B
:1006900088B10023C0E90133084B00F10C0203F1DB
:1006A000200153F8044B8B4242F8044BF9D1032349
:1006B0000370002010BD2120FCE700BFDAD700083E
:1006C0002DE9F04F0D46914604468BB000285ED0D0
:1006D00000295CD0002A5AD00278022A0CD0032AC2
:1006E0004DD0012A53D114262B4900F10C0B00F1F7
:1006F00004082C34374607E020261C27274900F140
:100700000C0B00F104082C349F4240D8D8F8042088
:10071000002A3ED1D8F80030284603F03F0AC5E948
:100720000012AA60EA61514607F062F92846D8F83B
:10073000001007F05DF901224AF00053284601A994
:1007400046F0005647F00057CDF804B002920396E9
:10075000049405920693CDF81C900892099707F02F
:1007600033F9284604A907F02FF9284607A907F00E
:1007700035F92846FFF798FE0BB0BDE8F08F20262C
:10078000074900F10C0B00F104082C34B2E72120DA
:10079000F2E70F20F0E700BF0002030300030303AA
:1007A000000403032DE9F04387B00D4691461E4631
:1007B0000446DDF83880002836D0B8F1000F33D079
:1007C00002B98BBB6B1EDBB2022B2DD8174AD75C4C
:1007D0000F9B9F4228D80023280200F1407000F5AB
:1007E00080703146C4E901332060E361204607F0A0
:1007F000FFF801236946204646F0005647F00057AF
:10080000CDF8009001930296CDF80C8004930597E3
:1008100007F0DAF8204603A907F0E0F82046FFF7D2
:1008200043FE07B0BDE8F0832120FAE7FBD70008BC
:10083000F0B50F4616461D46044693B010B9212068
:1008400013B0F0BD0029FAD0002AF8D0002BF6D062
:10085000002331461A46384607F0D8F90028EFD170
:10086000304602A907F07FF90028E9D138683449F9
:10087000029A88426B695ED19342E0D32B68002BC9
:10088000DDD14FF060623846C4E90023A360E36124
:1008900001A907F016FA0028D2D10199204621F4C7
:1008A000F061019107F0A4F86946284607F009FABB
:1008B0000028C5D12046009907F09AF8384609A9C2
:1008C00007F0ADFA0028BBD1204609A907F07CF853
:1008D00038460CA907F0AEFA0028B1D120460CA981
:1008E00007F072F8EB684BB1284606A907F097FAB3
:1008F0000028A5D1204606A907F066F8304603A9CE
:1009000007F098FA00289BD1204603A907F05CF86D
:1009100028460FA907F08EFA002891D120460FA98A
:1009200007F05CF803252046FFF7BEFD012887D1BC
:10093000013DF8D184E7B3EB420F9FD27FE700BFC0
:10094000200000B070B50E46154604468AB0002857
:100950005CD000295AD0002A58D0012329461A46D3
:10096000304607F053F900284ED1B36813F4C04F56
:100970004CD0AB6803F4C043B3F5005F46D1254BC0
:10098000A060C4E90030E06107A9304607F099F99A
:10099000002839D12046079907F02AF8012302934D
:1009A0004FF00053204601A9039307F00DF830469D
:1009B00004A907F03FFA38BB204604A907F004F861
:1009C000EB681BBBAB6803F4C043B3F5005F1DD1FC
:1009D0006946284607F0EAF8B0B9009B6A699A426E
:1009E00016D32A6943F0005307920122204607A933
:1009F00008920325099306F0F1FF2046FFF754FD06
:100A0000012801D1013DF8D10AB070BD2120FBE7DA
:100A10001D20F9E7000001022DE9F04391B00D46D9
:100A2000DDE918760446DDF8688000286DD00029DD
:100A30006BD0002F69D0B8F1000F66D0096801F0C3
:100A40007041B1F1404F5BD0002B5BD1531E022BA4
:100A50005BD8120202F1C06202F5807200232846C0
:100A6000C4E901332260E3610DA907F02AF90028E7
:100A700043D120460D9906F0BBFF3146204606F0D3
:100A8000B7FF284601A907F0CAF9002835D120464A
:100A900001A906F099FF284604A907F0CBF960BB2D
:100AA0004FF00109204604A906F08EFF46F00056DB
:100AB000204607A90797CDF82090099606F084FFF5
:100AC0002B680A9703F07043B3F1404FCDF82C9098
:100AD0000C9603D120460AA906F076FF0123CDF833
:100AE00034800E931B9B204643F000530DA90F93B7
:100AF00006F074FF2046FFF7D7FC11B0BDE8F08385
:100B0000034AABE74FF0C062A8E72120F5E700BF3A
:100B1000000002062DE9F0418CB00D46DDE9128699
:100B20000446149F002867D0002965D0B8F1000F53
:100B300062D0002F60D0896889045DD5296801F0F2
:100B40007041B1F1404F4DD0002B4DD1531E022BBF
:100B500052D82A4B03EB022200232846C4E9013372
:100B60002260E36109A907F0ACF8002837D12046DC
:100B7000099906F03DFF3146204606F039FF6946E7
:100B8000284607F04CF950BB6946204606F01CFF8A
:100B9000284603A907F04EF908BB204603A906F032
:100BA00013FF012346F00056CDF8188007930896EE
:100BB00009970A93159B43F000530B932B6803F09E
:100BC0007043B3F1404F11D109A9204606F0FCFE55
:100BD00006A9204606F0F8FE2046FFF765FC0CB09B
:100BE000BDE8F081064AB7E7064AB5E706A9204600
:100BF00006F0EAFE09A9ECE72120F0E70001010672
:100C0000000003060000010608B5064A064B00294D
:100C10000CBF1146194600F0E1FBBDE8084007F0A3
:100C20005CB900BF09000002080000020123A0F522
:100C30000320064AA0F58070410900F01F008340A0
:100C400052F82100034342F821307047D425002098
:100C50002DE9F04780460F461E46154688B00AB17A
:100C6000002313600EB1002333604FF0100ADFF849
:100C7000B090CDF800A000233A464146D9F80000D4
:100C800006F052FC0446F8B93B68214A93422ED143
:100C90004FF0180A0146524602A80BF0BCFFCDF8EF
:100CA00000A023464146D9F8000002AA06F03CFC09
:100CB000044648B9069B7B60DDE90423C7E90223AB
:100CC000144B3B6025B9144C204608B0BDE8F087B2
:100CD000114CC5F800A0002EF6D033464146D9F895
:100CE000000002AA06F074FC60B10446ECE7094A71
:100CF0001DB99342E8D0094CE6E79342C5F800A03D
:100D0000E9D0F8E733682A689B1A3360DCE700BF54
:100D1000D175E105105D175EFEDF00F0FFDF00F02A
:100D2000401900202DE9F04F93B00746884604F0A3
:100D3000EFFC0446002847D1374E3378F3B901461B
:100D4000402202A80BF067FF344D354A2B46354848
:100D50001035954294BF009500920068102202A9B8
:100D60000CF07EFB4FF0000982460DF1080BCA45DE
:100D700012D12D4B9D42E8D1012333702B4E337B92
:100D80008BB1D6E90023984508BF97420BD1B568CF
:100D9000284613B0BDE8F08F5BF8040BFFF746FF61
:100DA00009F10109E3E7DFF89090DFF890A0DFF8A0
:100DB00090B0630959F8233004F01F02D340DB07D9
:100DC00004D40134812CF4D1194DE1E7002304F55A
:100DD000032505F580751A46284602A9FFF738FF56
:100DE00008B150450BD1DDE90423984508BF97426F
:100DF000E7D10123C6E900783373B560C8E70D4B2E
:100E0000984201D05845DCD1064B2946186806F0B7
:100E100025FC0028D5D0D7E7592E00200031080046
:100E2000813108004019002090310800A8240020DA
:100E300082310800FFDF00F0D4250020FEDF00F043
:100E400011E000F02DE9F84F994640F26C739A4298
:100E500083460E461746DDF828A06DD812B1B9F1C9
:100E6000000F6CD0BAF1010F6CD831465846FFF72D
:100E700059FF07F1100805464146012007F057FDCC
:100E80000446002861D0424600210BF0C4FE304BDE
:100E90009D4234D92F480368D90713D42E4D2F4BC8
:100EA000C4E902B62360002614E05A0950F8222053
:100EB00003F01F01CA40D20705D405F5032505F24A
:100EC0000115ECE700231D460133812BEDD16FF0B6
:100ED0008D06234DC4F804A02FB13A46494604F1CB
:100EE00010000BF0A2FE1F48434622462946006828
:100EF00006F082FA68B92846FFF798FE0BE0002357
:100F000021461A462846FFF7A3FE78B1164B9842B1
:100F10000CD06FF091064246002120460BF07BFE7C
:100F2000204607F014FD3046BDE8F88F6368012BBA
:100F3000B9D16FF08406EEE76FF09106F3E76FF03A
:100F40008606F0E76FF08506EDE76FF08C06EAE7BE
:100F500081310800D425002000310800105D175EA3
:100F60008231080040190020FEDF00F02DE9F04139
:100F700088B01546DDE90E781C4693B1B8F1000F34
:100F800004D16FF0860008B0BDE8F081002FF8D0E2
:100F9000B7F1005FF5D3C3F1005303F500339F426F
:100FA000EFD8FFF7BFFE1E4B0646984202D96FF0FE
:100FB0008B00E8E7102200210DEB02000BF02BFE66
:100FC00000233046CDE9023303AA02AB04A9FFF7A0
:100FD0003FFE144B9842EAD028B1013B984202D020
:100FE0006FF09100CFE7029B94B1AB4213D853EA64
:100FF0000504C6D1039B0C48C8F8004000943A464B
:10100000314600682B4406F08FFA0028BBD0E7E792
:10101000AB42EFD2B5E75B1B9C4228BF1C46E9E719
:1010200081310800FFDF00F04019002030B5144680
:1010300087B022B3FFF776FE144B0546984203D9DA
:101040006FF08B0007B030BD1022002102A80BF01A
:10105000E2FD00232846CDE9003301AA6B4602A930
:10106000FFF7F6FD0A4B9842EAD010B1013B9842D7
:1010700008D1039B00206360009B2360E2E76FF0D0
:101080008600DFE76FF09100DCE700BF81310800E8
:10109000FFDF00F070B586B006460D46FFF742FE52
:1010A000234B0446984203D96FF08B0006B070BD05
:1010B0001022002102A80BF0AEFD00232046CDE94E
:1010C000003301AA6B4602A9FFF7C2FD194B9842F3
:1010D000EAD028B1013B984202D06FF09100E5E7D9
:1010E000039B012B21D0144B2146186806F0B6FA59
:1010F0000028F2D1114B1A7B32B1D3E90012AA4277
:1011000008BFB14208BF18730123A4F503240C4A99
:10111000A4F58074610952F8210004F01F04A34073
:10112000434042F821300020C0E76FF08400BDE763
:1011300081310800FFDF00F040190020A8240020C2
:10114000D4250020F8B5134642880C460732072AFA
:101150004FEAD20101D0A1424DD146680588C76847
:101160002022184600210BF056FD360A0346002EB9
:1011700044D1002C3FD041F20102954205D0B5F593
:10118000885F02D0B5F5905F02D15C60002011E06D
:10119000B5F5105F07D1182C03D0202C01D0102CEE
:1011A00029D11C60F1E705F44F42B2F5824F02D01D
:1011B0006FF08500F8BDEAB2122AF9D1202CF7D1E0
:1011C000104A25F0FF05B5F5E24F02600CD0B5F5E9
:1011D000824F10D14FF4005217F4705F09D017F40A
:1011E000864F04D09A60E3E74FF48042F4E742F47C
:1011F00080629A60CAE76FF08600DBE76FF08B00D1
:10120000D8E700BF200000802DE9F0410D461446CC
:101210001F46B0B010B96FF0860038E00029FAD050
:10122000002AF8D0002BF6D0038803F44F42B2F521
:10123000824F02D06FF0850029E0DAB2122AF9D18C
:1012400023F0FF03B3F5E24F29D143883B600BBB8A
:10125000E3003B60B3F5807FECD10023184644499E
:101260002E19214411F8014D16F8012D1043121BBF
:101270000CBF4FF0FF340024B54203EA040343EAF5
:101280000203EFD10028C6D0002BC4DA002030B012
:10129000BDE8F081DA1DB4EBD20FDBD0BBE7B3F5CC
:1012A000824F62D10B78042BB5D1202200216846F1
:1012B0000BF0B1FC684606F0F1FB002852D1002685
:1012C0003C22314621A820960BF0A5FC20220123C8
:1012D0004FF0400831460DEB0200013C8DF88030A4
:1012E00001350BF098FC202231460D9410A8E40043
:1012F0000C9564080BF08FFC20AD2022314618A815
:101300001495CDF854800BF086FCB4F5C07FCDE980
:101310001C583C608ED0B4F5047F8BD0B4F5807F30
:101320007FF479AF134B08AA089310934FF400533E
:101330000A934FF48043684612930DEB080118ABF3
:10134000CDF86480FFF774FA3B680733DB085A0076
:101350002BB1531E013B2E7005F10105FAD2002876
:1013600094D058E76FF0920091E76FF096008EE707
:10137000FED7000820000080134A20F4FF7323F0FA
:10138000010393420ED0114B20F0FF029A4209D084
:101390000F4920F47F7323F003038B4202D00D4BDF
:1013A0009A420DD110F0FF000DD00B4B40F00070B1
:1013B000984207D0013398420CBF032000207047A9
:1013C000002070470220704700020006001300064C
:1013D00000040006000900060800000230B50D46B2
:1013E000044689B000B3031D6C22002118460BF09F
:1013F00012FC0F4A954206D0013295420ED06FF092
:10140000850009B030BD022269462270FFF724F939
:10141000002814BF6FF092000020F2E70322694613
:101420002270FFF733F9F3E76FF08600E9E700BFBA
:10143000080000022DE9F0478AB01746DDE9129452
:1014400098460E4609B9002A3BD1B8F1000F0CD1DD
:10145000B9F1000F35D1A4B31B4B984212D0013320
:1014600098420FD06FF0850010E054B3164B9842AD
:101470000FD001339842F5D120234FF0030A99454C
:1014800023600AD200236FF0890023600AB0BDE810
:10149000F0871C234FF0020AF1E702A806F0FEFADB
:1014A000054610B16FF09200F0E73B4632465146D8
:1014B000CDE9008902A8FFF775F90028E6D025607C
:1014C000F0E76FF08600E1E70800000210B504467F
:1014D00006F073FA024B1C6006F073FA002010BD90
:1014E000E825002010B506F068FA034B1C6806F0EA
:1014F00068FA204610BD00BFE825002013B5002380
:1015000001241A4619461846009403F02DFC0023C6
:1015100000941A461946184603F056FC0248FFF795
:10152000D5FF002002B010BD0C10002070B586B0B1
:10153000CDE9043205460E461046002110221C4615
:101540000BF069FB04AB0393064BFF2202930023CD
:101550003146CDE900332846E3B207F0EBFA06B096
:1015600070BD00BF6989000870B50C46064611467B
:1015700020461A4608F09BFA054698B9736E33B9AF
:1015800021462046321DBDE8704008F0CFBC2368DC
:10159000002B09DB204607F01FFFB36DB0EB430FB4
:1015A00009D9184D284670BD0146204608F08FF82D
:1015B0000028EFD0F5E72046736E984705460028CF
:1015C000F0D104362368002B04DA0021204608F00D
:1015D0007EF868B93146204608F038F80028E1DB8B
:1015E00032462146204608F0DFF80028F2D006E017
:1015F00032462146204608F046F90028E2D005464A
:10160000D0E700BF80B0FFFFF0B514461F46054687
:1016100087B003A80E4607F008FE23460221009774
:101620002A1D03A808F031FD044648BB06F1180244
:101630001146284603ABFFF797FF044600BB06F1AF
:101640000C073A463946284603ABFFF78DFF0446A0
:10165000B0B903AB1A4619462846FFF785FF044682
:1016600070B932463146284603ABFFF77DFF04468A
:1016700030B93A463946284603ABFFF775FF0446B2
:1016800003A807F0D8FD034814F10E0F18BF204639
:1016900007B0F0BD00B3FFFF0246044803780BB962
:1016A000184670479342FCD00C30F7E728D8000862
:1016B0002DE9F14F9A461B6A04460E4691460A9D53
:1016C0001BB9724801B0BDE8F08F02F11807002184
:1016D000384607F0FCFF30B95146304601B0BDE84E
:1016E000F04F09F018BA0AF118080021404607F037
:1016F000EEFF08B94946F0E70121404607F0E7FF51
:101700000028DED13B463A4629462046FFF72CFF0B
:101710000028D7D105F10C083B462A464146204611
:10172000FFF722FF0028CDD153462A4629462046FE
:10173000FFF71AFF0028C5D14246414620460AF16C
:101740000C03FFF711FF0028BCD14B462A4629465F
:10175000204608F0D3FF0028B4D109F10C0B5B46FA
:1017600042464146204608F0C9FF0028AAD1002180
:10177000284607F0ACFF014690B9404607F0A7FFA6
:1017800040B92B464A463146204601B0BDE8F04FED
:1017900009F030B8304601B0BDE8F04F09F0D4B9D7
:1017A0002B463A46204606F11801FFF7DDFE0028D9
:1017B00088D105F118072B462A4639462046FFF7FF
:1017C000D3FE00287FF47EAF05F1240A2B463A466B
:1017D00051462046FFF7C8FE00287FF473AF4B4602
:1017E0003A4639462046FFF7BFFE00287FF46AAF2D
:1017F0003946284607F073FD00287FF463AF294679
:10180000204608F0E8FF00287FF45CAF43464246DC
:1018100031462046FFF7A8FE00287FF453AF2B4641
:1018200032463146204608F069FF00287FF44AAF6F
:10183000534632463146204608F060FF00287FF4C8
:1018400041AF33463A463946204608F057FF002854
:101850007FF438AF43463A4639462046FFF784FEC8
:1018600000287FF42FAF5B46524651462046FFF7D3
:101870007BFE00287FF426AF53463A46204606F109
:101880000C0101B0BDE8F04F08F038BF80B0FFFF99
:101890002DE9F0478246DDE9084904301F460E462F
:1018A000904607F0B7FD0546504609F0A9F8012813
:1018B000824602D01F48BDE8F087002106F11800DB
:1018C00007F005FF40B9B9F1000F01D11A48F2E75E
:1018D0002070C7F800A0EEE7B8F1000F17D16B0039
:1018E00001334B453B60F1D8214604232A4630465C
:1018F00001F8013B07F0B5FD0028DCD12A46691C40
:10190000214406F10C00BDE8F04707F0AABDB8F18C
:10191000010FCFD16B1C4B453B60D7D8002106F19E
:101920000C0007F02CFD2146023001F8010B2A467D
:101930003046E8E780B1FFFF00B1FFFF2DE9F0413D
:1019400080460C4616461F4613B91A48BDE8F0817A
:10195000043007F05FFD0546404609F051F80128C4
:10196000804625D1337833B9012FEED12046BDE82A
:10197000F04109F0E9B8042B1AD16B000133BB42E6
:10198000E3D12A462046711C07F04AFD0028DDD12C
:10199000691C2A46314404F10C0007F041FD00287F
:1019A000D4D1414604F11800BDE8F04107F0CBBCAA
:1019B0000148CBE780B0FFFF80B1FFFF2DE9F04188
:1019C0000E460546012186B006F1180007F07FFE9D
:1019D000044650B9284609F013F8012879D1214668
:1019E000304607F074FE002801DA3B4C6DE006F14A
:1019F0000C082146404607F06AFE0028F5DB2F1D43
:101A00003946304607F022FE0028EEDA39464046D5
:101A100007F01CFE0028E8DA684607F006FC03A879
:101A200007F003FC4346424669462846FFF79CFD03
:101A30000446002843D133463246284603A9FFF71F
:101A400093FD044600283AD1AB6973BB03A9032276
:101A5000084607F05DFF044688BB039B002B04DAB1
:101A6000002103A807F033FEC8B903AA3346114684
:101A70002846FFF779FD044608BB03AA114628460D
:101A800005F11C0308F02AFE0446C0B9684603A904
:101A900007F0DCFD104B041E18BF1C460FE003A925
:101AA0003A46084607F0EFFED5E703AA1146284656
:101AB00005F1100308F012FE04460028D5D0684650
:101AC00007F0B9FB03A807F0B6FB204606B0BDE857
:101AD000F081024CF9E700BF80B3FFFF80B0FFFF49
:101AE00038B5054608F08CFF01280C4601460DD19B
:101AF000204607F0ECFD002806DB204605F14C01EE
:101B000007F0A4FD002803DB024838BD0248FCE7CB
:101B10000020FAE780B3FFFF80B0FFFF2DE9F04F10
:101B2000BBB002911146064692469946FFF7D8FF90
:101B30000446002840F09D8149463046FFF73EFFAD
:101B40000446002840F09581304608F059FF0128EE
:101B500040F09A81F36D2421013302204FEA5308AB
:101B600006F0E5FE0546002800F08C8105F124070B
:101B700008F04FFF384608F04CFF0DF1640B0BEBFB
:101B800004000C3407F051FB302CF8D149462846AC
:101B900008F0C1FF0446A0BB8146C8451ED13946A6
:101BA000304608F01FFD044658BB3B462A463946DE
:101BB0003046CDF800B0FFF77BFD044608BB394640
:101BC000304608F00FFD0446D8B905F1180007F0BB
:101BD00032FB05F13C0007F02EFB12E0B9FBF8F3F5
:101BE000012202FA03F1242208FB1393C9B202FB7B
:101BF0000152FBB11146304619AB08F0FBFD04461B
:101C000030B34FF000090BEB090009F10C0907F0A4
:101C100012FBB9F1300FF6D1ECB1736F9D422CD0AD
:101C2000284608F033FF384608F030FF284606F013
:101C30008EFE22E0490801EBC101104605EB81014F
:101C4000039208F068FF039A04460028D2D0D8E730
:101C500009F10109A1E704A807F0E7FA06F14C0B26
:101C60000DA807F0E2FA2146584607F088FB012844
:101C700011D0736F9D4204D1844C029808F006FF86
:101C8000F7E0284608F002FF384608F0FFFE284635
:101C900006F05DFEF0E72146504607F070FB514626
:101CA000814604A807F01BFB044630B10DA807F0DD
:101CB000C2FA04A807F0BFFAAFE7524659460DA88A
:101CC00007F003FE04460028F0D1B9FA89F94FEA7B
:101CD00059194A460DA904A808F0EFFB044600284C
:101CE000E4D1014608F1010219A80DF1640B0AF0D4
:101CF00092FFA2465B46D04503935CD0514604A8B0
:101D000007F03DFB039B08EB0A011C780AF1010A6E
:101D1000044304A807F033FBE4B2039B44EA400405
:101D200003F8014BE7E79BF801009BF8003080EADD
:101D3000020C6FEA0C0101F0010113FB01F31040EA
:101D400003EA0C0283EA0C030BF8013F1BF8013C89
:101D5000024343EAC1130BF8013C0134A245E2D22D
:101D60000DA807F068FA04A807F065FA04A808F0BF
:101D700050FE00240DAB18190C3407F056FA302C25
:101D8000F8D10AF1E8036B442A46304613F8843C44
:101D9000029908F0DFFC044600282FD1449B002B59
:101DA0006BD0DDE9442330460299FFF72DFC002873
:101DB00063D0044622E000220124CFE7029A434682
:101DC000114630460AF1FF3A08F014FD0028F0D120
:101DD0002A4630461BF80A3004A908F0BBFC00284C
:101DE000E7D1029A30461146CDF8008004ABFFF7E8
:101DF0005FFC0028DDD1BAF1000FDFD104A808F0A4
:101E00009BFC4FF000080DAB03EB080008F10C0839
:101E100007F011FAB8F1300FF5D1002C7FF4FDAEC8
:101E20004A463046029908F021FC044600287FF417
:101E3000F4AE449B4BB1DDE9442330460299FFF7F1
:101E4000E3FB044600287FF4E8AE3046029908F030
:101E5000C9FB736F04469D4208D0284608F016FE61
:101E6000384608F013FE284606F071FD002C7FF47A
:101E700004AF20463BB0BDE8F08F0DF134080DF102
:101E8000640BB8E7024CF8E6004CF2E780B0FFFFC5
:101E900080B2FFFF30B4DDE9024524B1CDE902454F
:101EA00030BCFFF73BBE014830BC704780B0FFFF3D
:101EB00073B505461E4608F0A3FD01280C460146F1
:101EC0000ED113462046009605F14C0208F0DDF8CD
:101ED000044B10F10E0F18BF0346184602B070BD38
:101EE000014BFAE700B3FFFF80B0FFFF2DE9F0419F
:101EF0000D46014628461746984600F08DF80446E0
:101F0000B0B9284608F07CFD012805F17C0612D105
:101F100042463946304607F083FA044628B931462E
:101F20002846FFF7DDFD044610B1304607F083F97F
:101F30002046BDE8F081014CF7E700BF80B1FFFF0C
:101F400010B5044608F05CFD012805D104F17C00C1
:101F5000BDE8104007F085BA004810BD80B1FFFF12
:101F60002DE9F0479A46037805460C461646AAB076
:101F700023B9284C20462AB0BDE8F0870A789A4257
:101F8000F7D101F188094946883007F05FFB002846
:101F9000EFD104F19408414605F1940007F056FB97
:101FA0000028E6D104F1A007394605F1A00007F0AA
:101FB0004DFB0028DDD102A808F02BFD0BA808F08E
:101FC00036FD21460BA808F0BCFD04F1280304F1FE
:101FD0007C02CDE9006A02A90BA808F0D2FD0446F4
:101FE00080B9494602A807F031FB50B9414605A81F
:101FF00007F02CFB28B9394608A807F027FB044650
:1020000000B1044C02A808F097FB0BA808F042FDB1
:10201000B0E700BF80B0FFFF38B504460D4608F0BA
:1020200039FD204608F003FD032D257027D1012539
:102030000823154AC4E90153E260144AC4E907536E
:10204000C4E91353C4E90A536262A363104A114BF3
:102050006265C4E90F35104A104BC4E90C25A3642E
:102060006564201D07F0B8F9A06504F14C0007F085
:10207000B3F9C4E917050020C4E91D0038BD0023E9
:1020800007482370FAE700BFC0D80008A0D80008AE
:1020900040D8000860D8000880D800081810002038
:1020A00080B1FFFF032804D00428034818BF002094
:1020B00070470248704700BFE0D80008E8D8000821
:1020C00038B50546084C206810B90446204638BD8E
:1020D0006B6862689A4204D1A9680AF072FD002810
:1020E000F4D01434EFE700BF18E0000870B50E46D6
:1020F000054610B1094C206810B96FF02D0070BD75
:102100006B6862689A4203D1A9680AF05AFD08B167
:102110001434F0E723693360F1E700BF54E00008AE
:1021200070B5094C256815B96FF02D0009E0667C83
:10213000864207D1267C8E4204D100201560626859
:102140001A6070BD1434EDE718E0000870B50E4653
:10215000054610B1094C206810B96FF02D0070BD14
:102160006B6862689A4203D1A9680AF02AFD08B137
:102170001434F0E7237C3370F1E700BFC8DF0008B8
:1021800030B5084B1C6814B96FF02D0006E01D7CBB
:10219000854204D100205B680C60136030BD1433AD
:1021A000F0E700BFC8DF000870B50E46054610B165
:1021B000094C206810B96FF02D0070BD6B68626823
:1021C0009A4203D1A9680AF0FCFC08B11434F0E784
:1021D000237C3370F1E700BFA0DF000830B5084B67
:1021E0001C6814B96FF02D0006E01D7C854204D1F7
:1021F00000205B680C60136030BD1433F0E700BF53
:10220000A0DF00082DE9F04F0F460021054687B0FA
:102210000846009390469B46134605AA109E06F07A
:1022200039FF28460AF00EFD044638460AF00AFD3A
:1022300005994B1C03EB911323441844119B9842BE
:1022400007D96FF02908129B1860404607B0BDE817
:10225000F08F39B1012006F06AFB044618B9DFF8A7
:10226000A080F2E70C46434620460599CDF800B021
:1022700005AA06F00FFF804618B1204606F067FB5E
:10228000E3E728460AF0DEFC2946024630460AF01B
:10229000CCFC28460AF0D6FCA1464FF00A0A3518B5
:1022A000DDF814B0BBF1000F18D138460AF0CAFCB3
:1022B0003946024628460AF0B8FC38460AF0C2FC05
:1022C00002462B18581C129B05F802B0821B1A609C
:1022D000119B59469A1A0AF09EFCCEE75A46402AAC
:1022E00028BF40224946284603920AF09EFC039AE2
:1022F000ABEB020015440590914405F801ABCFE724
:1023000080EEFFFF0238C0B202289ABF024B53F89A
:1023100020000020704700BFE0E0000870B50546CF
:102320000E4641B1046834B94B6A9847686020B1E1
:1023300020462E6070BD0248FCE70248FAE700BF65
:1023400080C1FFFF80C0FFFFF0B505468BB00E4691
:102350002422002101A80AF05EFC1DB9144C20467D
:102360000BB0F0BD2B68002BF8D1304601A909F065
:1023700067F804460028F1D1BDF8047001A809F0FF
:1023800070FA27F0FF03B3F5E24F0BD047F20103D9
:102390009F4209D1074F7B6A9847686030B12F6030
:1023A0000660DCE7044FF6E7044CD8E7044CD6E7B8
:1023B00080C1FFFF0CE100083CE1000880C6FFFF80
:1023C00080C0FFFF2DE9F14F1646DDE90A78DDE90F
:1023D0000C9A026804460D46DDF838B01AB9114867
:1023E00001B0BDE8F08F3BB90846FFF75BFE00285F
:1023F000F5D008F00BFC03462268D2F814E0BEF1D9
:10240000000F0CD032462946F446CDE90DABCDE99C
:102410000B890A97606801B0BDE8F04F6047024839
:10242000DEE700BF80C1FFFF00C1FFFF02230B708A
:10243000024B88304B608860704700BFECE00008BA
:1024400010F1850F13DA10F1990F25DB993013285D
:1024500022D8DFE800F01C1C1E212121191C1921A3
:1024600021211521210A172413110E487047003825
:1024700018BF0120404270470B4870470B48704717
:102480000B4870470B4870476FF06F0070470A4861
:1024900070476FF06D0070474FF0FF30704707488E
:1024A000704700BF80C7FFFF80C6FFFF80C5FFFFEA
:1024B00080C0FFFF80C1FFFF00C2FFFF00C3FFFF1E
:1024C00000F19503102B12D8DFE803F00F0D111166
:1024D000111111111111110B1113091109000648E5
:1024E0007047064870470648704706487047FFF730
:1024F000A7BF0548704700BF80B0FFFF00B1FFFFD6
:1025000000B3FFFF00B2FFFF80B1FFFF2DE9F04FE6
:10251000B7B00C46DDE9408A059206462422002128
:102520000DA81F46DDF808910AF075FB0023032C67
:1025300007930ED0042C474C18BF1C46307809A9CD
:1025400008F0B4FB054630B9434E304637B0BDE81D
:10255000F08F424CF2E7424B7D2216A90BA8CDE941
:102560000B3600F03BFB0028EED016ABC0F17D002F
:102570001844089030230AAA0DF1D50108A806F0E6
:1025800055FA064638B116A87D2100F0DDFB079804
:1025900008F031FFD9E702230AAA0DF1D50108A8F6
:1025A00006F044FA06460028EDD1089B0A9A0DF180
:1025B000D501134408930AAA042308A806F036FAA2
:1025C00006460028DFD1149A45F4E241DDF828B030
:1025D00089B21ABBADF834104FF48051E4B20DA8A3
:1025E00008F05AFB44F006245A46089907AB1194A8
:1025F00008F0BEFFC0B1FFF723FF7D21044616A8F7
:1026000000F0A2FB079808F0F6FE064604BB00287F
:102610009BD037B0BDE8F04FFFF712BF034602462C
:102620000DA809F02AF9D7E73B462146CDE901A9D3
:10263000059A0798CDF8008009F021F810B1FFF74E
:102640003FFFDAE752464946404608F0F8FBD4E738
:1026500026467AE70900000280C1FFFF0800000259
:10266000CCE100082DE9F04F82464FF00009B9B0E7
:10267000534F0021DDE9425403920BA8242214AEEB
:1026800098460AF0C8FA0FCF0FC60FCF0FC697E8CB
:102690000F0086E80F009AF8000007A9CDF8149003
:1026A00008F004FBDAF85CB0074620B9454C204638
:1026B00039B0BDE8F08F14AACDE9092A20AE0DF19A
:1026C000DE020692314609AA06A800F087F9B0F1A9
:1026D000000AEBDD129B47F4824189B21BBBADF8C7
:1026E0002C104FF006294FF400510BA808F0D4FA33
:1026F000CAF15E01524605AB3144CDF83C9008F07A
:1027000037FFB0B1FFF79CFE0546059808F073FE51
:102710000446002D52D1002CC9D0204639B0BDE866
:10272000F04FFFF78DBE4B464A460BA809F0A5F8BF
:10273000D7E70BF1070B4FEADB0BBBF12F0F4FEA8B
:102740004B0A37D8069525443023294608AA06A8FF
:1027500006F06CF9044618B1059808F04CFEA6E79F
:102760005B463246294606A808F09EFB0446002830
:10277000F2D15B462946F21806A808F095FB0446FC
:102780000028E9D143464946CDE9006A039A0598F5
:1027900008F084FF10B1FFF793FEB5E7DDE905030C
:1027A0009D4203D108F027FE0446B4E708F023FE5B
:1027B000054C7CE7059808F01EFE77E72C4676E787
:1027C000CCE1000880C1FFFF00C7FFFF2DE9F04FFB
:1027D00004468FB08A46DDE918790021154605A820
:1027E00024221E46DDF868800AF015FA206805A943
:1027F00008F026FE20B10FB0BDE8F04FFFF720BE75
:10280000BDF814B005A82BF0FF0B09F02AF8BBF5B2
:10281000E24F22D1BAF1030F15D0BAF1040F1049DB
:1028200018BF0021CDE90198C9B2009733462A4666
:10283000206841F0062108F022FF30B10FB0BDE85A
:10284000F04FFFF73DBE0749ECE74A4641463846A0
:1028500008F0F5FA0FB0BDE8F08F0348FAE700BFC3
:10286000090000020800000280C6FFFF036813B5DC
:10287000062B0C4602D00A4802B010BD0DF107012C
:10288000FFF792FC48B923789DF807100BB18B42F3
:10289000F1D12046FFF7C0FBEEE70248ECE700BFAE
:1028A00000C3FFFF00C6FFFF30B51546002285B00C
:1028B000C3E900229A6001AA1C4606F097F918B1F4
:1028C000A0F56A5005B030BD294601A8FFF73EFCCF
:1028D00060B92B78012BF5D12368052B00D03BB9CB
:1028E0006268044B002A18BF1846EBE70248E9E784
:1028F0000048E7E780C5FFFF80C3FFFF00232DE905
:10290000F04387B016468DF8073002AA30230546FB
:1029100006F08CF828B1A0F57454204607B0BDE845
:10292000F083029B2F6828461F44394603AB0DF104
:102930000702FFF7B9FF04460028EED139462846C2
:1029400002AA06F03FF910B1A0F56C54E5E72B6838
:10295000029A13449F4238D19DF80700FFF7D2FC3A
:102960000146A0B33046FFF7D9FC04460028D4D175
:102970009DF80730023B012B25D896E8030008F0AC
:102980001EFB014603A8FFF771FF044670B996E8E5
:10299000030008F014FB2A6800F188094946BB1AB5
:1029A0008046FEF7CBFF044620B12F60304608F08A
:1029B00044F9B2E749464046FFF700F82F60044665
:1029C0000028AAD0F2E7034CF0E7034CA5E7014C3E
:1029D000A3E700BF80C3FFFF9AC4FFFFF0B5002745
:1029E00085B0064610460C461546019708F04FF98B
:1029F000022817D195E8030002AB83E803001846CC
:102A000008F045F9023802288CBF3A46039A21465D
:102A1000304608F0E3FA00280EDB019B03440193E3
:102A2000019809E0284608F032F9072816D13268E3
:102A30006868A24202D20A4805B0F0BD214600688B
:102A400001AB121B08F055FD0028F4D13068019A43
:102A50002146801A30600AF0C4F8E1E70148EBE74C
:102A600080C1FFFF80C6FFFF2DE9F04F82460E4672
:102A70008FB02AB96FF06B0420460FB0BDE8F08F1D
:102A80000A440292024602A8FFF7A8FF041EF3DBE5
:102A9000029B9A1B002AEDDD00275A1E651C02923C
:102AA00031462A4603F8017C02A806F007F9B0F186
:102AB0000009C0F286800322314602A806F072F9AE
:102AC000B0F100087FDB504608F0E1F802288346A9
:102AD00038D19AE8030005AB83E80300184608F0F4
:102AE000D6F80238022872D8069B31461A7802A816
:102AF00008F097FA041EBFDB2746584603AA04A92C
:102B0000FFF73EFB04460028B6D1DDE9033231462B
:102B1000009702A806F0D2F9041EADDB4D444544EF
:102B200025442A46314602A806F0C8F8041EA3DB55
:102B30003022314602A806F035F9002845DB25444D
:102B4000441999E70728D8D13946242205A80AF064
:102B500062F8DAF8043005A9186808F071FC58BB6F
:102B6000BDF8144005A8BDF8167008F07AFE24F0F0
:102B7000FF03B3F5E24F15D1E4B2122C1FD1B7F524
:102B8000807F1CD10823134A31460DEB03000492C9
:102B9000039306F078F9041EFFF66EAF27464FF058
:102BA000020BAAE744F2010324F440549C4206D1EC
:102BB0004FF0010B0027A0E76FF06F045CE7064CB5
:102BC0005AE74C4658E7444656E7044654E73B78F4
:102BD000FFDE00BF92D9000880C6FFFF2DE9F04F4D
:102BE00005460C468FB02AB96FF06B0738460FB018
:102BF000BDE8F08F0A44059208F049F8022840F039
:102C0000958095E8030006AE86E80300304608F09C
:102C10003EF8023802288CBF4FF0000BDDF81CB0E4
:102C200021465A4605A808F0D9F9071EDEDB059AA9
:102C3000111B0029D8DD511E059100217D1C02F8D1
:102C4000011C05A82A46214606F038F8071ECDDBF0
:102C50000322214605A806F0A5F8002870DB3D44B4
:102C600043191A46214605A8029306F027F8B0F149
:102C7000000A5DDBA122214605A806F093F8B0F119
:102C8000000957DB21469BF8002005A808F0C9F988
:102C9000071EABDB3A46214605A8019706F00EF861
:102CA000B0F1000848DBA022214605A806F07AF81A
:102CB000031E039342DBDBF8585031460735ED081D
:102CC0002A465846FFF73CF9074630B92B463246AC
:102CD000214605A806F063F907462946304600F06C
:102CE00033F8002F82DB0122214605A806F034F9D3
:102CF000002825DB029D019B55444D441D44039B48
:102D000045441D443D4405442A46214605A805F096
:102D1000D5FF071EFFF66AAF3022214605A806F050
:102D200041F800280CDB3D4447195FE7054F5DE79C
:102D300057465BE74F4659E7474657E7039F55E736
:102D4000074653E780C6FFFF0A4619B1024B002130
:102D50001B681847704700BF1C1000200E4B034033
:102D6000B3F1607F06D1B1F5885F14BF6FF08600C4
:102D700000207047B3F1707F0BD101F4E043B3F54D
:102D8000005F06D111F4E06F0CBF6FF086000020E9
:102D900070476FF0860070470000C07F8A42F8B528
:102DA00006460C4600F0DB806F4922F4FF7323F0E7
:102DB00001038B420ED06D4B22F0FF01994209D0E6
:102DC0006B4822F47F7323F00303834202D0694BE4
:102DD000994228D1684B24F0FF0199420FD114F099
:102DE000FF000BD0654B40F00070984240F0B98076
:102DF00082EA0400FF288CBF00200120F8BD5B4B55
:102E00009942ECD0A3F588539942E8D024F4FF739B
:102E100023F00103B3F1062FE1D056488142DED002
:102E200053498B42DBD004F0FE43B3F1A06F14D1C1
:102E300002F0FE43B3F1A06F40F0938082EA0403F6
:102E400033F47E1340F08D8014F40040D6D0C4F3E8
:102E50000540C2F305429042CDE7B3F1407F6AD10D
:102E600002F0FE43B3F1407F7BD182EA040535F4E2
:102E70007E1576D131462046FFF770FF002870D1CD
:102E80003F4B12F47C1703EA02031BD0B3F1607FBF
:102E9000C2F305473FD13B49D3B243F000738B42A5
:102EA0003DD003F17E43043B0F2B01D83649CD5C66
:102EB00014F47C1FC4F3054333D1BD4214BF00207A
:102EC00001209BE7B3F1607F0DD12E49D3B243F0CF
:102ED00000738B421DD003F17E43043B0F2BDAD8E5
:102EE0002A49CF5CD7E7B3F1707FE1D106F4E04324
:102EF000B3F5005F03D10127C6F302239F4006F418
:102F0000E043B3F5005FD3D10125C6F302218D4024
:102F1000CEE71027BFE7B3F1707FC9D1EFE71025E7
:102F2000C6E712F47C1F01D1AB4218D022047FF512
:102F300065AFBB425FE7B3F1106F12D124F01F60A1
:102F400020F4702068B902F0FE43B3F1106F7FF4F3
:102F500055AF0F48104040F01060A042AEE701208E
:102F60004CE700204AE700BF0002000600130006FD
:102F7000000400060009000600030006FF0000022E
:102F80000000C07F03000002FCE10008FCE1000833
:102F90000000FFF621F4FF7210B521F0FF031A4C78
:102FA00022F00102F8B121F4BF6020F00700A04236
:102FB00012D0164883420FD0A0F5206083420BD078
:102FC000134B9A4208D003F58063994208BF002052
:102FD00018BF6FF0860005E0C9B2002914BF0020B9
:102FE0006FF0860010BDA242FCD0084A9342F9D08F
:102FF00021F47F7121F00301A2F570629142F1D0BA
:1030000002F5A0629342E3E7000200060013000607
:10301000000400062DE9F843884617461C4600F0D8
:10302000BFFC054688BBD8F80060B6F8009009F4EC
:10303000E043B3F5804FF36808BF27F0010737EA94
:1030400003031AD10CB3254B24F0FF029A421FD17F
:1030500014F0FF0304D0224A43F00073934232D0AD
:10306000224648463169FFF799FE074668B922466D
:1030700048467169FFF792FE70BB6FF0840500232C
:103080003046C8F8003008F0E4FE2846BDE8F88372
:10309000144B9A42DCD0A3F588539A42D8D024F43A
:1030A000FF7323F00103B3F1062FD1D00E498A42FA
:1030B000CED00E4A9342CBD004F0FE43B3F1407F12
:1030C00004D12304CCD56FF08605D8E7B3F1A06F07
:1030D000F7D0034B9C42C2E73D46D6E7000300060B
:1030E000FF000002001300060009000600040006AD
:1030F000434213F07F0207D0402AC2F1000040F0A3
:10310000E5806FF09300704710F56E5F00F052811C
:1031100000F3F58010F5884F00F0108100F39480E3
:1031200010F5A44F00F040815BDC10F5C44F00F0B7
:10313000388148DC10F5C74F00F0968070DB10F541
:10314000C64F00F03A8110F5C54F69D16FF0860087
:10315000704700F11403142B62D801A252F823F037
:103160004D31000821320008BB330008213200082D
:10317000AF330008BB3300084D3100084D31000863
:103180004D310008213200084D310008213200087D
:103190003D330008213200084D310008213200087B
:1031A0004D31000821320008A933000821320008FF
:1031B000253200087230062832D8DFE800F00F31DF
:1031C0005F315531BF0010F5C34F00F0F08027DBB1
:1031D00010F5C24FBAD010F5C14F21D16FF0850064
:1031E000704710F59B4F00F0E2801CDC10F59E4FFD
:1031F00000F0A4800DDC10F5A34F00F0D8800FDBA9
:1032000010F5A14FEAD010F59F4F9FD010F5A24FB7
:103210009BE710F59D4FE1D010F59C4F00F0CD805D
:103220006FF08300704710F5984F00F0C68006DC01
:1032300010F59A4F3FF465AF10F5994F85E710F5FB
:10324000894F3FF45EAFEBE710F5824F00F0A980A5
:1032500017DC10F5854F07D009DC10F5874F00F01B
:10326000AC8010F5864FDBD16FF09600704710F5FB
:10327000844F3FF46BAF10F5834FD1D16FF09200C4
:10328000704710F5765F3FF461AF14DC10F5785F9E
:1032900000F08A80C4DC10F57E5F00F0888002DCDC
:1032A00010F5814F51E720F0800010F57C5F08BFDA
:1032B0006FF0860071E010F5705F7BD0B0DC10F528
:1032C000745F3FF443AF10F5725F86E75B061FD56E
:1032D00010F16B0F35DA10F1720FBFF66BAF10F50E
:1032E000645F6AD026DC10F5685F3FF477AF1EDCC0
:1032F00010F56C5F3FF42AAF10F56A5F6DE710F1CF
:10330000400F3FF4FEAE10F13F0FE1DB002887DCF9
:1033100010F1140FBFF61DAF10F13B0F2FDA10F1B3
:103320003E0FCCBF6FF093006FF08300704710F535
:10333000665F52E710F5625F7FF472AF6FF089004D
:10334000704710F1540F3BD010F1530F14DA6A306C
:1033500014283FF665AF012340F2545283401342D4
:103360007FF4F4AE142828D013F0010F14BF6FF0CF
:103370008C006FF08300704710F1510F97E73230E7
:103380001C283FF64DAF01230F4A834013427FF4C0
:1033900025AF1C2808BF6FF0890018BF6FF08300AD
:1033A00070476FF0950070476FF0910070476FF0B5
:1033B0008C0070476FF0840070476FF09400704786
:1033C0006FF08800704700BF015005002DE9F04103
:1033D00017461C461F4A23F4FF7323F00103934250
:1033E00005460E4690B00ED01B4B24F0FF029A42C9
:1033F00009D01A4924F47F7323F003038B4202D0CF
:10340000174B9A4222D1DDE9161207AB0193202314
:1034100014F0FF000DF1200818BF40F00070009379
:10342000434608F0BEFB70B91A9B3A460493199BB9
:1034300031460393189B28460293079BCDE90083EE
:10344000234608F091FA10B0BDE8F0816FF08500D6
:10345000F9E700BF000200060013000600040006A2
:10346000000900062DE9F04117461C461E4A23F4C8
:10347000FF7323F00103934205460E468EB00ED033
:103480001A4B24F0FF029A4209D0194924F47F73A1
:1034900023F003038B4202D0164B9A4220D1DDE980
:1034A000141205AB0193202314F0FF000DF118084E
:1034B00018BF40F000700093434608F072FB60B9FB
:1034C000179B3A460393169B31460293059B284669
:1034D000CDE90083234608F075FA0EB0BDE8F0810F
:1034E0006FF08500F9E700BF000200060013000638
:1034F000000400060009000647F2010102888A4222
:1035000010D1104923F4FF7222F001028A4215D033
:103510000D4A23F0FF03934214BF6FF086006FF053
:103520008500704702F44F42B2F5824F06D123F472
:10353000FF7323F00103B3F1062FEDE76FF0850071
:10354000704700BF000200060013000644F20101AC
:10355000028822F44050884210D1104923F4FF72AF
:1035600022F001028A4215D00D4A23F0FF03934254
:1035700014BF6FF086006FF08500704702F44F4271
:10358000B2F5824F06D123F4FF7323F00103B3F1A8
:10359000062FEDE76FF08500704700BF00020006C0
:1035A0000013000637B50C4D0C462B78DB070FD502
:1035B00000230A460193014601AB281D04F0C9FC13
:1035C00020B9019BA34218BF6FF0930003B030BD38
:1035D0006FF08800FAE700BFEC25002008B500F086
:1035E00087F9084B0C211A78064812F0060F1CBF09
:1035F0000022C3E90122FFF7A7FBBDE8084008F05D
:103600005EB900BFEC25002038B50E4D2B7813F0C5
:10361000010211D1C5E90122022262F342032B709B
:1036200000F05AF9044650B908F047F9044630B999
:103630002B7843F001032B700024204638BDFFF7A0
:10364000CDFFFAE7EC2500202DE9F74300F4E04038
:10365000B0F5804F0D4616461F46DDF828802CD168
:1036600001F18809484607F083FA88B943460022E9
:1036700049462846CDE90067FEF70AF9FFF738FD0D
:10368000044678B33A460021304609F0C4FA10E007
:1036900000230193164B4946009305F17C0205F186
:1036A0002803284607F06DFAFFF722FD044600289C
:1036B000DCD0204603B0BDE8F083CB6D0733B7EB19
:1036C000D30F4FEAD3020FD331462846FEF738FC1A
:1036D000FFF70EFD04460028D4D1EB6D0733DB085D
:1036E000C8F800300024E4E76FF08904E1E700BF88
:1036F000B7B600082DE9F041044600881F4600F4E3
:103700004F43B3F5824F18BF0020ACB08846154632
:1037100061880022C0B207F0B4FD0646FDF7BCFF89
:10372000246A34BB2EB320B301A807F0A1F92346C5
:103730003046114A01A907F055FA044650B101A8D4
:1037400007F0D9F92046FFF7D3FC044620462CB0F9
:10375000BDE8F0812A46414601A8FEF7F1FBFFF7DC
:10376000C7FC044601A807F0C6F9002CEED13D6065
:10377000ECE76FF08504E9E7B7B60008F8B507682D
:1037800006460C464FBB164B99420CD0013399426A
:1037900019D001F0FE44B4F1007F14BF6FF0860031
:1037A0006FF08500F8BD051D284604F0B2FB01212D
:1037B0002846FDF729FA054658B934602846BDE881
:1037C000F840FFF795BC051D284604F0A2FB3946DA
:1037D000EEE7304608F0D6FAF0E76FF08800E1E750
:1037E000080000022DE9F04105781E461D4B45F00A
:1037F00000759D4207468846144605D1326062BB7B
:103800006FF08900BDE8F08105F17E45043D0F2D84
:1038100017D9326082B900253B6803F17E43083B2B
:10382000012B1CD84146381D04F07EFBFFF760FCDD
:103830000028E7D13560E5E72121404609F0EBF9A2
:10384000E9E7094B32605D5D22B122462121404605
:1038500009F0E1F9AC42DFD2D2E71025F5E76FF0CD
:103860008800CFE7030000020CE2000800F10042EC
:103870000532042A38B504460D4609D82821154BCF
:1038800001FB02339A68824215D06FF08B0038BD7D
:10389000012108F0CDFAB0B10E480022034681683C
:1038A000A14205D00132052A00F12800F7D1ECE74A
:1038B000282101FB0233DA69511C07D00132DA6199
:1038C00000202B60E3E76FF08700E0E76FF09600E1
:1038D000DDE700BFF8250020044A002092F8C83038
:1038E00043F0010382F8C830704700BFF82500207C
:1038F000F8B5094C0525264601272046E76107F063
:1039000069FD013D04F12804F7D196F8C83065F34C
:10391000000386F8C830F8BDF8250020F8B51E4C25
:10392000064694F8C8300F46D8072BD50025234605
:10393000294618881A46A8B12DB91A791AB1DA6938
:10394000002A08BF1D460131052903F12803F0D1E3
:1039500015B96FF08C0017E001232846EB6107F0E2
:1039600039FD2A46D369591C12D000200133D36196
:10397000141B0A4BE4105C4304F10044053C346022
:103980003A60F8BD6FF0880000233B603360F8E7D1
:103990006FF09600F8E700BFF8250020CDCCCCCC26
:1039A0000023F0B50B60264B074693F8C8300D4650
:1039B000DC0785B041D5FFF759FF10F18C0F0446A5
:1039C0001ED1294601A8FFF7A9FF0446C0B901236B
:1039D0002E68CDE90200B7603046736003AA02A9E1
:1039E00008F002FB044670B1DDE9020108F0F2FACA
:1039F000286807F0EFFC14F18C0F08BF6FF0870404
:103A0000204605B0F0BDDDE90212304607F07BFC30
:103A10000446DDE9020108F0DDFA002CE8D12B684C
:103A2000DA68D00444BF42F48062DA60DA68910454
:103A3000E6D542F40062DA60E2E76FF08804DFE77F
:103A4000F825002030B4224D2C681C606C685C6046
:103A500000241C725C729C72DC725468250A1C7310
:103A60005D73250C240E9D73DC7314881C74240A6A
:103A70005C7454889C74240ADC74D468250A1C7510
:103A80005D75250C240E9D75DC751469250A1C7660
:103A90005D76250C240E9D76DC765269140A1A7721
:103AA0005C77140C120EDA770A0A83F821200A0CCC
:103AB00083F822200A0E9C7783F8201083F82320B5
:103AC00030BC0A46014603F1240009F0AEB800BF3D
:103AD0001CE200082DE9F843232904460F469146CD
:103AE0009846089E04D86FF098052846BDE8F883EC
:103AF0000822194909F065F805460028F3D1A368A2
:103B0000002BF0D1216A243FB942C8F80010EAD84E
:103B1000B1F5005FE7D271B9C9F80000E3687360DE
:103B2000238A3380638A73806369F360A369336196
:103B3000E3697361D9E7012004F0F9FEC9F80000D8
:103B400030B1D8F8002004F1240109F06EF8E5E75F
:103B50006FF08C05C9E700BF1CE20008002370B5B8
:103B60000A26136003681C78303C092C0DD81468B1
:103B70005D1C7443146005601B780139A3F13003A8
:103B800023441360EED1084670BD0148FCE700BF36
:103B900000DCFFFF38B503681546CA1A002A044640
:103BA00016DD1A7802F07F02022A13D15A1C026035
:103BB0002A461B7842F8043B04F0F0FE10B1A0F551
:103BC0000A5038BD23686A68AB6013442360F8E785
:103BD0000148F6E70148F4E720DDFFFF1EDDFFFFA7
:103BE0002DE9F74304460F469146DFF8FC80312368
:103BF0006A463946204604F019FF20B1A0F50E5060
:103C000003B0BDE8F0834D462668009B1E44302378
:103C10003146204601AA04F009FF88B1A0F50E50F4
:103C20000028EDD12368B34248D001202021287715
:103C300004F07DFEA86108B92748E1E70546E6E7FC
:103C4000019A2368002A03EB020901DC2348D7E725
:103C50002A461B78494642F8043B2046062304F0D6
:103C6000E5FE0028DAD121686868A9600B18A9EB85
:103C70000302002A2360E9DD0A5C1E2A05D01C2A03
:103C80001AD828FA02F2D20716D5013323600B5C4A
:103C900005F1100249462046EB6004F07FFE002843
:103CA000BCD123682A696B6113449945236001D113
:103CB000A861B7E70A48A3E70A48A1E7BE4208D0CF
:103CC0002021012004F033FE8146A86100288ED116
:103CD000B2E7002094E700BF80D7FFFF20DCFFFFA2
:103CE0001ADCFFFF1EDCFFFF081058100368F7B551
:103CF0001446CA1A002A054640F3A0801A78172AEB
:103D00000ED0182A40F09C800427013328462B60EF
:103D100001AA04F043FE28B1A0F5105003B0F0BD95
:103D20000227F2E7019E07F108039E427ED3224656
:103D300039462846FFF712FF0028EFD1022F08D19D
:103D40002368312BDCBF64332360236803F26C7378
:103D5000236002212846221DFFF700FF0028DDD145
:103D60000221284604F10802FFF7F8FE0028D5D109
:103D70000221284604F10C02FFF7F0FE0028CDD105
:103D80000221284604F11002FFF7E8FE0028C5D101
:103D9000F61BA6F10803012B48D90221284604F19D
:103DA0001402FFF7DBFE0028B8D10B2EA6F10A03A0
:103DB0003AD12B681A785A2A38D101332B6042F253
:103DC0000F722368934231D8E268172A2ED82269ED
:103DD0003B2A2BD862693B2A28D861680C2925D850
:103DE000012241F2AA558A402A4221D112F4256FBC
:103DF00020D102291AD19A0705D1642193FBF1F24F
:103E000001FB1232C2B94FF4C87293FBF2F102FB0C
:103E10001133002B14BF1C231D23A268002A05DDCB
:103E20009A427FF77BAF01E0002BC8D0054875E7C9
:103E30001F23F2E71E23F0E71D23EEE702486DE79C
:103E400002486BE700DCFFFFA0DBFFFF9EDBFFFF0C
:103E500073B51546026804468B1A002B10DD1678E0
:103E600001AA04F0AFFE18B1A0F5125002B070BD67
:103E70002368019AAB6013442E606A602360F5E703
:103E80000048F3E720DBFFFF10B50C4611461A4649
:103E9000029B1B687BB906F0BCFE10B1A0F5185060
:103EA00010BD2368052B00D03BB96268044B002A83
:103EB00018BF1846F4E70348F2E70148F0E700BFEF
:103EC00000DDFFFF00D8FFFF73B543F0A0061446E6
:103ED00033460432054604F0A9FD18B1A0F514508C
:103EE00002B070BD29682660A160646830230C446C
:103EF0002146284601AA04F099FD0028EED1019A36
:103F00002B681344024A9C4218BF1046E8E700BFE2
:103F10009ADAFFFF2DE9F04F8146C3B008460E46FE
:103F200008F090FE002706EB000802AD484604F0BA
:103F3000B7FE34460122BB46AA46444501D90020BB
:103F400009E02378E2B13D2B4ED12A4FA51B3868FA
:103F500020B9A0F5045043B0BDE8F08F7B689D42C6
:103F600004D12A46314608F01AFE08B11037EEE7B0
:103F70005546D7F808B0661C44451CD023460BE0D4
:103F80005C2B16D1444516D0631C984501D11A48C4
:103F9000E1E762782C2AFAD15A1C964207D01A78A7
:103FA00005F8012BA5EB0A02B2F5807FEFD00022C5
:103FB0001BE02C2BE0D1584608F044FEA5EB0A0389
:103FC0000246009359465346484605F003F870B13F
:103FD000FB68C360234601344345264602D05A7825
:103FE000202AF7D0012200E023465C1CA5E7034805
:103FF000B1E700BF3CE2000880DCFFFF80D7FFFF95
:1040000070B50368064603F0DF03802B0C468CB0C6
:1040100003D0822B6FD03F4834E085684368029517
:104020001D442946062301AA02A804F0FFFCB8B1EA
:10403000A0F5145030BB28222046002108F0EBFDEB
:10404000043403AA0BAD134603CBAB42206061607E
:104050001A4604F10804F6D118682060002011E027
:10406000DDE90126082AD6D131462B4808F0A9FD02
:104070000028D0D10836B54206D803A82421FEF77F
:1040800063FE26480CB070BDA023294601AA02A8F1
:10409000029604F0CBFC0028CAD13023294601AA9D
:1040A00002A804F0C3FC0028C2D10623294601AAB5
:1040B00002A804F0BBFC0028BAD10623019A06939B
:1040C000029B0792089313449D42D6D9029304237E
:1040D00029460DEB030202A804F0A8FC0028A7D192
:1040E0000423019A0993029B0A920B9313449D4265
:1040F0000293A0D0C1E70D1D24220021284608F01C
:104100008AFD02232360336863607368A360B36829
:10411000E360A3E780DFFFFF0CE400089ADAFFFF0B
:104120002DE9F04FA7B00C4617461E460390002815
:1041300000F0EF83002900F0EC8305464FF0000902
:10414000EB69A3B1D5F850314BB94FF4AA710120F6
:1041500004F0EDFBC5F8500120B9AA4C63E0A94674
:104160001D46EDE708F0B1F8A946D5F850510023F7
:10417000CDE91033CDE91233CDE91433CDE916334F
:1041800018934DB9B9F1000F01D0C9F850519E4CA8
:10419000284604F0DCFB46E0302309AAE1190AA80E
:1041A000CDE9097404F042FC68B1284608F092F8A1
:1041B000964CB9F1000F02D00023C9F85031039B8F
:1041C000AB42E5D12FE0DDE9093202EB030BABEBAB
:1041D0000401A9605EB3012004F0A9FB0A90E86025
:1041E000002800F094832146AA6808F01EFD0123F0
:1041F000AA682B60099B0A99D31A0B440A9301EB16
:10420000020B0A9B5946AB6109AA30230AA804F0A5
:104210000DFC044670B12846A4F5065408F05AF87F
:10422000002CC6D10024204627B0BDE8F08FEC60FA
:104230002E60E6E7DDE909371F44AB693946FB1A12
:104240006B611CAAA0230AA804F0F0FB08B310F1CC
:10425000620F1AD1EC61394605F120020AA8FFF776
:1042600099FC044630BB05F12C063246394610ABAA
:104270000AA807F00EFF0446E0B9EB69022B1DD92E
:10428000284608F027F8624C93E7A0F506548CB94D
:10429000E1E70A9E1C9B05F11C021E4431460AA858
:1042A00004F024FC10B1A0F50854F0E70A9B9E42EC
:1042B000D1D0584C284608F00DF87AE70133EB616D
:1042C00005F5A6730093304605F2491305F5A4726F
:1042D00010A9FFF7D9FD04460028EBD10A9B394607
:1042E0002B6409AA30230AA804F0A0FB0446002886
:1042F00091D1DDE9093105F1500219440AA8FFF70F
:104300006FFC04460028D5D12A6C0A9B39469B1ABB
:10431000EB631CAA30230AA804F088FB002855D0C0
:10432000B0F51054C6D10A9B3946EB6409AA302374
:104330000AA804F07BFB044600287FF46CAFDDE99B
:10434000093143B105F1700219440AA8FFF748FC8E
:1043500004460028AED10A9AEB6CC5F8C820D31ADF
:104360003946AB6405F1CC020AA8FEF7C7FA044649
:1043700000289FD10A9BD5F8C8209A1AC5F8C420F6
:10438000EA69023A012A04D89F4247D10A9B9F4218
:1043900063D1EB690A9A032B40F08C80974200F0BE
:1043A0008182394605F1EC020AA8FFF78DFD04462B
:1043B00000287FF47FAFD5E93C32D31804930290F4
:1043C0000A9B049A9A4263D874D089E10A9E1C9B86
:1043D00005F190021E4431460AA8FFF787FC044607
:1043E00000287FF467AF314605F1A8020AA8FFF75D
:1043F0007DFC044600287FF45DAF0A9B9E4292D06C
:10440000054C57E780D7FFFF00D8FFFF80DEFFFF96
:1044100080DAFFFF9ADDFFFF9ADBFFFF1B7839464A
:10442000C5F8D43005F1D802A1230AA804F0FEFA99
:1044300058B110F1620F03D0B0F506547FF43AAFD3
:10444000EB69023B012BA1D9A3E70A9BD5F8D82041
:10445000C5F8DC3013440A93F2E71B783946C5F8F7
:10446000E03005F1E402A2230AA804F0DFFA38B133
:1044700010F1620F8DD0B0F506547FF41BAF88E7C2
:104480000A9BD5F8E420C5F8E83013440A9380E786
:10449000029B0499CDE91933CDE90C331B930BAA88
:1044A00030230AA804F0C2FA68B1A0F51454002C15
:1044B0007FF400AF0A9B9F4200F0F481284607F08A
:1044C00009FF9F4C75E6DDE90A2302EB030841462C
:1044D00006231AAA0AA804F0A9FA0028E5D106239F
:1044E0001A9A19930A9B41461B930AA813440CAAD3
:1044F0000A9304F0E3FA10B110F1620FD5D104234E
:1045000041460BAA0AA804F091FA0028CDD10A9BD3
:104510000B9E05931E44B04540F0E2800DA919A8FA
:10452000FDF7E4FDC8B1309A0C9B7AB1DDE930406B
:104530000A9A29460092019619AAA047044618B182
:104540000C9B002B7FF4B6AE0A9639E7CDF8288095
:10455000002B3FF435AF7B4CACE6D5F818110D9B22
:1045600011EA030240F0D7811943B3F5807FC5F803
:10457000181125D00BDC082B00F00781202B00F050
:104580009780042B60D00C9B002BDDD020E1B3F58D
:10459000006F7DD0B3F5803FF5D11C928DF874206B
:1045A0001E9241461CAA0AA804F0A4FA002855D17C
:1045B0001C9B012B7AD11E9B1B7885F83831FFE6B6
:1045C000C5E94722302341461CAA0AA804F02EFA66
:1045D00028B1A0F51454002C3FF4F2AE6AE60A9B11
:1045E0009E423FF4EDAE05F58E78424631460AA86C
:1045F00004F064FA78B110F1620FEAD14246314614
:104600000AA804F073FA0028E3D1D5F81C3113B1DD
:104610000123C5F81C310A9B9E423FF4D1AE3146BE
:1046200005F590720AA804F061FA0028D1D10A9B1E
:104630009E4255D16FF00042D5F82031934235D0DB
:104640000133C5F82031BBE61C928DF874201E9210
:1046500041461CAA0AA804F04DFA20B1B0F5145442
:104660003FF4AEAE26E61C9800B300231E9CC5F8AE
:104670002431E15CDA009140D5F8242101330A436A
:104680009842C5F824213FF49BAE042BF1D197E664
:104690000623414605F594720AA8FCF747FF002857
:1046A000DCD1D5F83031002B7FF48AAE264C01E600
:1046B000302341460EAA0AA804F0B8F9002888D190
:1046C0000A9B0E9A13449E420AD105F1F80A0A9CED
:1046D000A64207D84FF00003CAF80C303FF470AE82
:1046E0001A4CE7E5282200211CA808F094FA14F8D7
:1046F000018B31460FAA0AA80A9404F04FF900284A
:104700007FF467AF08F0C003802B7FF424AF5046DE
:104710001CA9FFF775FC0446D0B110F5025F17D055
:10472000D5F8046116B9C5F80461C3E53046102117
:10473000F768FEF709FB304604F009F93E46F1E759
:104740001ADEFFFF9EDAFFFF9CDAFFFF9ADAFFFF17
:10475000DAF8083073B1DAF80C30002B40F0DB8067
:104760001021012004F0E3F8CAF80C00002800F042
:10477000D48082460A9B0F9ACAF808301344CAF8BC
:104780000080CAF804200A93A1E7302331461CAA0E
:104790000AA804F04BF90446E0B1A0F51454002C2B
:1047A0003FF40EAE14F5025F7FF484AD309A0C9B9B
:1047B0005AB1DDE93040059A29460092019619AABE
:1047C000A04700283FF4FCAD0C9B002B3FF4F8AD54
:1047D000534C6FE51C9A0A9B1344984580D1002ADC
:1047E0003FF47EAF05F584780A9B9E4205D84FF0D2
:1047F0000003C8F80C30D2D072E7302331461CAA2F
:104800000AA804F013F910B1A0F51454C7E70A9AE6
:104810001C9B0AA802EB030A514606231CAA04F0BB
:1048200005F90028F0D11C9A0A9B042A069337D177
:1048300019463C48079208F0C4F9394B079A0028FA
:1048400018BF1C46D8F8083073B1D8F80C3007925E
:10485000002B60D11021012004F069F8C8F80C0089
:1048600000285AD08046079A0623C8F80030069BD5
:10487000C8E901230A9B1C9A13449A450A930BD951
:10488000302351461CAA0AA804F0D0F80028BBD156
:104890000A9B1C9A13440A930A9B9A45A4D01FE7CB
:1048A0001F4CCFE7594613AB16AA0AA807F0F1FB35
:1048B000044600287FF4FEAC2A6B179B9A4212D163
:1048C0001899686B08F07DF968B9109A139B9A42A1
:1048D00009D1119A149B9A4205D14AB1159912989F
:1048E00008F06FF920B1284607F0F4FC0E4C60E4A4
:1048F000594605F59E720AA8FFF7AAFA0446002851
:104900007FF4D8AC0A9B9B453FF48CACD6E5074CB2
:104910004FE4074C87E4074CCCE4074CCAE400BFE3
:1049200080DFFFFF1AE4000880D9FFFF80D7FFFF78
:1049300000D8FFFF00DBFFFF96DAFFFF2DE9F04F05
:104940000746A1B00D4601204FF4007114460993AB
:1049500003F0EDFF8046002800F0228100230B9336
:104960003B7A032B00F00781042B8E4B18BF0023EA
:10497000089329462B19FA680CA807930C9307F0A3
:104980003AFC041EC0F2F08000F0F780224629466F
:104990000CA804F093F9A146041EC0F2E580302271
:1049A00029460DEB020004F0FDF9061EC0F2EF806F
:1049B000A1444E44324629460CA804F07FF9041E57
:1049C000C0F2D280312229460CA804F0EBF9B0F1F4
:1049D0000009C0F2D88009232946734A0CA804F0C4
:1049E00052FA0028C0F2D18026444E4400EB06095A
:1049F0004A4629460CA804F061F9041EC0F2B480AE
:104A0000302229460DEB020004F0CCF9061EC0F25C
:104A1000BE80A1444E44324629460CA804F04EF90B
:104A2000B0F1000AC0F2AD80A02229460CA804F023
:104A3000B9F9B0F10009C0F2A6800C9A294638688D
:104A4000521BFEF711F8041EC0F28E800C9B294603
:104A50001B1B7A680CA80C9307F022FBA346041ECC
:104A6000C0F28280002229460CA804F075FA0028C2
:104A7000C0F28B8056444E445E44264400EB060947
:104A80004A4629460CA804F019F9041E6CDB3022B2
:104A900029460DEB020004F085F9061E77DB0FAB0B
:104AA00001934023A1444E44009332466B440C9939
:104AB000089806F0D1FD034600286AD12A9A04928C
:104AC000099A03920EAA02924FF40072CDE9008275
:104AD00010AA397A386806F0C8F80446002843D18D
:104AE0000121386806F0B8F8002848D10421386858
:104AF00006F0B2F800284FD00420397A0BAB0AAA8E
:104B0000FDF70EFB044678BB32460C99284608F0A8
:104B100068F8079BA9190D930E9B0DA8CDE900839A
:104B2000DDE90A2307F022FB041E1DDB0D98324647
:104B3000801B294626440D9008F053F8324629463A
:104B40000DA804F0BBF8041E0EDB302229460DA888
:104B500004F028F9071E21DB0D9A00212846521B7C
:104B600008F059F834443C44404603F0F0FE204637
:104B700021B0BDE8F08F0D4BFAE626464BE7012049
:104B8000BBE75446F0E74C46EEE70446ECE7344614
:104B9000EAE76FF06F04E7E7054CE5E73C46E3E73B
:104BA000044CE4E7090000021FE4000808000002CA
:104BB00000DDFFFF80D7FFFF70B5002686B00596A9
:104BC0000A9E0C4600961546FFF7B8FE00280ADB41
:104BD0002A1A05ABCDE90153044903460094044861
:104BE0002244FDF70FFB06B070BD00BF29E40008AA
:104BF0004CE4000808B5124BA8220021184608F022
:104C00000AF803220346026142610E480E4A986187
:104C10004FF48061DA61002219629A625A62DA62A4
:104C200018660A485866996609491A67DA665A6723
:104C300011F8010D98540132102AF9D108BD00BFB6
:104C40000024002071E4000800200020001C002047
:104C50008AE400082DE9F84FDFF87C80824698F856
:104C60000030894616460BB9FFF7C4FF182707FB2B
:104C70000A873D6FD7F86CB05D452BD9BC6E796E55
:104C8000641BB44228BF344648462944224607F0F4
:104C9000CCFFBB6E2544AB4208BF0025A144361BA8
:104CA000ABEB050B5E4528BF5E4656B1182303FBF0
:104CB0000A83596E32462944484607F0B6FF344409
:104CC000354424B1182303FB0A88C8F870502046E5
:104CD000BDE8F88F0024E3E700240020F8B518278A
:104CE00000FB0775124B0E461D4407FB0033DB6AC1
:104CF0001446012B0AD0022B14D023B9284607F002
:104D000079FB844208D900242046F8BD284607F0E4
:104D100071FB844228BF044622463146284607F0EC
:104D200072FBF1E72846BDE8F84007F087BB00BFFB
:104D300000240020F8B50B4B04461B780D461646A0
:104D40000BB9FFF757FFEFF311874FF0200181F305
:104D50001188324629462046FFF7C0FF87F31188A5
:104D6000F8BD00BF002400202DE9F041154C1E467F
:104D700023780546884617460BB9FFF73BFF022DFF
:104D80001DD8EFF3118C4FF0200181F3118865B12C
:104D9000182005FB000344F80380E2180023576045
:104DA00000FB0542166293625362182303FB05441D
:104DB000069BE3628CF311880020BDE8F0814FF080
:104DC000FF30FAE7002400202DE9F843144E1F4677
:104DD00033780546894690460BB9FFF70BFF022D45
:104DE0001BD8EFF311824FF0200181F3118855B1E8
:104DF0001824002304FB0564C4F86090C4F86480A0
:104E0000A7662367E366182303FB0566089B7367A1
:104E100082F311880020BDE8F8834FF0FF30FAE7F5
:104E2000002400200138C0B203289ABF024B53F877
:104E300020000248704700BF8CE4000838190020A9
:104E40007FB50646FFF7EEFF036805469B68984767
:104E5000044620B92B682846DB68984704460E4B69
:104E60004FF4006200930D4B3146019300236846D6
:104E7000CDE9022307F0ECFC2146684607F085FDEA
:104E800024B92B68694628461B69984703990198FD
:104E900000F054FC04B070BDA4E400085A2E0020B9
:104EA0001FB50C4B4FF4006200930B4B0C46019363
:104EB000002301466846CDE9022307F0C9FC2146DC
:104EC000684607F062FD0399019800F037FC04B0D2
:104ED00010BD00BFA4E400085A2E0020002310B526
:104EE000114C86B04FF40061204601AA8DF80330C2
:104EF000019300F02BFC88B9019B7BB10B4ACDE9F3
:104F000004300DF1030102A8CDE9022407F0BAFC38
:104F100001469DF8030019B1FFF7C2FF06B010BDAE
:104F200002A9FFF78DFFF9E75A2E0020A4E400083C
:104F300010B50E4C0E4922460E4807F0E7FD2246FA
:104F40000D490E4807F0E2FD22460D490D4807F0D5
:104F5000DDFD22460C490D4807F0D8FD2246BDE88C
:104F600010400B490B4807F0D1BD00BF00100020D6
:104F7000ADC4000838190020AFC400082C19002067
:104F8000B1C4000898140020B3C4000880100020A9
:104F9000B5C400082010002008B5D0E9013018443D
:104FA000034BA0F50050186007F08EFD002008BDEF
:104FB000C426002010B50C46054B2046196807F0A2
:104FC000B8FC2046BDE810404FF4005107F0B1BCDA
:104FD000C426002070B5002605460C46ADF5027DBE
:104FE00031464FF4FE7203A8029607F014FE2046E5
:104FF000291D019607F0D0FC002840F0EB8069687D
:10500000894800F079FA002840F0E4804FF40072FB
:10501000204601AB02A907F006FD002840F0DA8027
:10502000019A002A40F0CF80204605F1080107F0E0
:10503000B3FC002840F0CE80A9687C4800F05CFA00
:10504000002840F0C7804FF40072204601AB02A94F
:1050500007F0E9FC002840F0BD80019A002A40F0EA
:10506000BC804FF40072204601AB02A907F0DBFCC4
:10507000002840F0AF80019A002A40F0B6804FF43B
:105080000072204601AB02A907F0CDFC002840F0D9
:10509000A180019A002A40F0B0804FF400722046AF
:1050A00001AB02A907F0BFFC002840F09380019AF1
:1050B000002A40F0AA804FF40072204601AB02A9FA
:1050C00007F0B1FC002840F08580019B1BB902224B
:1050D000ADF808300192019A554802A900F026FA6D
:1050E000002877D14FF40072204601AB02A907F0E7
:1050F0009AFC00286ED1019B1BB901228DF8083063
:105100000192019A4B4802A900F010FA002861D1DF
:105110004FF40072204601AB02A907F084FC00287E
:1051200058D1019A002A78D11022204605F12C038B
:1051300005F11C0107F077FC00284BD1204605F152
:10514000140107F029FC002844D1204605F118017C
:1051500007F022FC00283DD1204605F10C0107F0A4
:10516000CCFB002836D14FF40072204601AB02A9D7
:1051700007F059FC70BB019A2F4802A900F0D6F93C
:1051800040BB4FF40072204601AB02A907F04BFC74
:1051900000BB019A294802A900F0C8F9D0B94FF420
:1051A0000072204601AB02A907F03DFC90B9019ABC
:1051B000234802A900F0BAF960B9204605F11001B0
:1051C00007F0EAFB06E01F4802A900F0AFF900284B
:1051D0003FF42AAF0DF5027D70BD1B4802A900F017
:1051E000A5F900283FF43DAFF4E7184802A900F004
:1051F0009DF900283FF443AFECE7154802A900F001
:1052000095F900283FF449AFE4E7124802A900F0FD
:105210008DF900283FF44FAFDCE70F4802A900F0FA
:1052200085F9002880D0D5E70C7208000B720800C1
:10523000087308000F7208000A720800087208005C
:10524000097208000D7208000E7208001072080042
:105250001172080012720800047208002DE9F84368
:105260000C461E46099FDFF8649008990546904653
:1052700009EB03003A4607F0D8FC2046314600F01F
:105280003BF90446D0B93946404600F035F90446AA
:10529000A0B92B7B73B1DFF838800B48D8F8001029
:1052A00000F02AF968B94FF400524946D8F80000D6
:1052B00007F015FCC5F81064C5F814742046BDE865
:1052C000F8830446FAE700BF227308005A3600202C
:1052D000C4260020002370B50C4615468CB00393FD
:1052E00003AB0646009329462023204604AA07F074
:1052F00087FA68B9039A074804A900F017F938B982
:105300000346CDE900453046034A0449FFF7A6FFAE
:105310000CB070BD007208002473080023730800ED
:1053200007B54FF40073CDE90012034A0349FFF7B4
:1053300095FF03B05DF804FB267308002573080091
:1053400007B54FF48063CDE90012034A0349FFF724
:1053500085FF03B05DF804FB28730800277308007D
:1053600030B513680D4614468BB013B100200BB056
:1053700030BD01932022084801AB02A900F068F873
:105380000028F4D123462A46019902A800F0E8F942
:105390000028EBD0EBE700BF0072080030B5C36A0D
:1053A000044685B0ABB900F13005294600F1500242
:1053B000FFF7D6FF002843D110232946E36204F10A
:1053C000400204F11C0351F8040B914243F8040B12
:1053D000F9D1E26A1B4804F11C0100F0A7F878BB80
:1053E000A38993B9204604F1500204F13001FFF77C
:1053F000B7FF28BB236D234493F82E2093F82F305A
:1054000043EA0223C3F30B03A381A1890E4800F0F2
:1054100059F8A8B9236920460393A38904F15401DC
:105420000293A369019363690093D4E9012307F010
:105430006BF90B22054805B0BDE8304000F076B8A6
:1054400005B030BD1F720800077208000572080021
:105450002DE9F7431E4600233360A0F50723A3F58B
:105460000073B3F5806F05460F4690461CD2DFF8F7
:10547000509001466A46D9F8000001AB02F0A8F846
:10548000044668B9019B93B157B1434512D83A46D7
:105490002946D9F8000001F0F9FF70B9019B33608B
:1054A000204603B0BDE8F0834FF0FF34F8E76FF01B
:1054B0000104F5E76FF00204F2E70446F0E700BFED
:1054C0004019002007B5A0F50723A3F50073B3F535
:1054D000806FADF806100AD2014606480223006824
:1054E0000DF1060201F088FF03B05DF804FB4FF0F8
:1054F000FF30F9E74019002007B5A0F50723A3F511
:105500000073B3F5806F01910AD204230146064867
:105510000DEB0302006801F06FFF03B05DF804FBC0
:105520004FF0FF30F9E700BF401900201346A0F507
:105530000722A2F50072B2F5806F07D201B943B914
:105540000A4601460448006801F056BF4FF0FF309C
:1055500070470846704700BF40190020002908BF67
:10556000022110B5044601600248FFF7C5FF20463E
:1055700010BD00BF2173080010B504468CB007F0C1
:105580001FF90021102208A807F045FB23680D4AE7
:1055900005930123CDE903230B4B02A807934FF496
:1055A0007053029307F0FFF8029B01A906930023B2
:1055B00003A8019306F0AEF808B9019B23600CB074
:1055C00010BD00BF127100010906000630B50024AD
:1055D0001546084B87B00591039002932246234657
:1055E000CDE90044294405A803F0A4FA204607B0F9
:1055F00030BD00BFE5C7000870B504468CB00D464D
:10560000164607F0DDF80021102208A807F003FB7A
:105610002368104A05930123CDE903230E4B02A80A
:1056200007934FF47053029307F0BDF8029B29468D
:10563000069300233246019303A801AB05F098FFBF
:10564000054603A806F00DF90DB1019B236000206B
:105650000CB070BD12710001090600062DE9F04F73
:1056600099B00746DDE922680C4691469A46249D8A
:10567000002E45D0002D46D0B8F5007F43D34FF023
:10568000000B04A8C5F800B006F09AFE3C2259466B
:1056900009A8CDF820B007F0BEFA234640211B4AE6
:1056A000CDE9009A08A800F0BBFA08A904A806F002
:1056B0009EFE044600BB042104A806F094FE02A846
:1056C00005F0B7FA396802A8FCF73EFE044698B91F
:1056D00002A904A806F089FE2346009442463146FA
:1056E00004A8FFF769FA044630B9304607F0AAFA71
:1056F000286004A806F068FE204619B0BDE8F08FC7
:105700004FF0FF34F8E76FF00104F5E738E50008E3
:10571000024B1968024B186801F098BD3C19002033
:10572000401900204FF42042034BA0F520401B6895
:1057300018605A60FFF7ECBF3C190020024B0A4684
:105740000146186803F0A1B80810002013460A4665
:1057500001460248006803F0A9B800BF0810002005
:1057600007B501932023009313460A4601460348D8
:1057700005F072FF03B05DF804FB00BF09000002F2
:1057800053B94AB9002908BF00281CBF4FF0FF31A8
:105790004FF0FF3000F07EB9ADF1080C6DE904CE9A
:1057A00000F006F8DDF804E0DDE9022304B07047FC
:1057B0002DE9F04F099D0C46002B4DD18A420F4632
:1057C00084469646B2FA82F360D94BB102FA03FEE0
:1057D000C3F120029F4000FA03FC20FA02F21743B3
:1057E0004FEA1E461FFA8EF44FEA1C42B7FBF6F151
:1057F00006FB117701FB04F042EA0742904208D908
:105800001EEB020201F1FF3702D2904200F22D811D
:105810003946121A1FFA8CFCB2FBF6F006FB102276
:1058200000FB04F44CEA024C644508D91EEB0C0C56
:1058300000F1FF3202D2644500F21A81104640EABC
:105840000140ACEB040C002125B12CFA03F300223B
:10585000C5E90032BDE8F08F8B4205D90DB1C5E92D
:10586000000100210846F5E7B3FA83F100294DD184
:10587000A342C0F0F280904280F0EF8006462346BB
:105880000846002DE6D0C5E90063E3E7002B40F0B1
:10589000A2808A1A4FEA1E471FFA8EF60121B2FB38
:1058A000F7F407FB14204FEA1C4242EA004206FBD1
:1058B00004F090420FD91EEB020204F1FF382CBF16
:1058C0004FF001094FF00009904203D9B9F1000FE0
:1058D00000F0C8804446121A1FFA8CFCB2FBF7F0A5
:1058E00007FB102200FB06F64CEA024C664508D97D
:1058F0001EEB0C0C00F1FF3202D2664500F2BB80B9
:105900001046ACEB060C40EA04409DE7C1F12006CE
:105910008B4004FA01FE22FA06F720FA06FCF44056
:105920008A401F434EEA0C0300FA01FE4FEA174873
:105930004FEA13491FFA87FCB4FBF8F008FB104448
:1059400049EA044400FB0CF9A1450ED93C1900F1C9
:10595000FF3A2CBF4FF0010B4FF0000BA14503D9CC
:10596000BBF1000F00F093805046A4EB09041FFA2E
:1059700083F9B4FBF8F308FB134403FB0CFC49EA7E
:105980000444A44506D93C1903F1FF3801D2A445CB
:105990007AD8434643EA0040A4EB0C04A0FB0298EB
:1059A0004445CC46434602D306D1CE4504D2013805
:1059B000B9EB020C68EB07035DB1BEEB0C0264EBC4
:1059C000030404FA06F622FA01F3CC401E43C5E9AB
:1059D000006400213EE702FA03FEC3F1200104FA4D
:1059E00003F200FA03FCCC404FEA1E4720FA01F113
:1059F0001FFA8EF6B4FBF7F00A4307FB1044110CB4
:105A000041EA044100FB06F48C420ED91EEB010171
:105A100000F1FF382CBF4FF001094FF000098C4214
:105A200002D9B9F1000F2CD04046091B92B2B1FB4C
:105A3000F7F407FB141142EA014204FB06F191421C
:105A400007D91EEB020204F1FF3801D2914215D8AA
:105A50004446521A44EA004121E7861A64EB0303E4
:105A600001200EE7023C724435E702397244D0E669
:105A7000F4440238E3E6F444023842E7023C72445C
:105A8000E7E702387144D0E7023B3C4482E7023842
:105A90003C446AE7704700BF024B0A46014618685B
:105AA00007F03BB86019002008B5064B044613B157
:105AB0000021AFF30080044B1B6803B198472046D8
:105AC00000F0A2FB00000000482E0020024B01461F
:105AD000186800F027B900BF6019002070B50F4E9C
