S01C00006275696C642F64656275672F67656E657261746F722E7333379C
S113000000100020D90200001985000019850000A5
S11300101985000019850000198500001985000064
S11300201985000019850000198500001985000054
S11300301985000019850000198500001985000044
S11300401985000019850000198500001985000034
S11300501985000019850000198500001985000024
S11300601985000019850000198500001985000014
S11300701985000019850000198500001985000004
S113008019850000198500001985000019850000F4
S113009019850000198500001985000019850000E4
S11300A019850000198500001985000019850000D4
S11300B019850000198500001985000019850000C4
S11300C019850000198500001985000019850000B4
S11300D019850000198500001985000019850000A4
S11300E01985000019850000198500001985000094
S11300F01985000019850000198500001985000084
S11301001985000019850000198500000000000011
S113011001F0FF01102A2BDB10F0070F08D010F8B4
S1130120013B013A8B422DD010F0070F42B3F6D1B8
S1130130F0B441EA012141EA014122F007047FF0D1
S113014000070023F0E80256083C85EA010586EA28
S1130150010685FA47F5A3FA87F586FA47F6A5FA64
S113016087F68EB9EED1F0BC01F0FF0102F0070270
S113017032B110F8013B013A83EA010313B1F8D11B
S11301800020704701387047002D06BF35460338FC
S1130190073815F0010F07D1013015F4807F02BF35
S11301A0013015F4C03F0130F0BC0138704700BF86
S11301B00348044B834202D0034B03B118477047F2
S11301C0A8240020A8240020000000000548064BB5
S11301D01B1AD90F01EBA301491002D0034B03B141
S11301E018477047A8240020A8240020000000001D
S11301F010B5064C237843B9FFF7DAFF044B13B16B
S11302000448AFF300800123237010BD582E002052
S113021000000000D4E2000008B5054B1BB10549FD
S11302200548AFF30080BDE80840FFF7CFBF00BF2B
S11302300000000008250020D4E20000A3F5803A65
S1130240704700BF174B002B08BF134B9D46FFF7A9
S1130250F5FF00218B460F461348144A121A0CF07E
S113026081FB0E4B002B00D098470D4B002B00D088
S113027098470020002104000D000D48002802D0FA
S11302800C48AFF3008006F0E7FA200029000CF0D8
S1130290B9FA06F0D5F900BF00000800000000001C
S11302A00000000000100020A82400205C3E002074
S11302B00000000000000000054A064903461068DB
S11302C003448B4294BF13604FF0FF30704700BF6C
S11302D0041000200000012008B500F05DF8124B66
S11302E012498B4212D3124B124900208B4218D36D
S11302F0FFF7A8FF186850F82240586840F82240D9
S1130300013298688242F5D30C33EAE70022F8E719
S11303101C6844F8220001325C68A242F8D3083316
S1130320E4E70022F8E700BFDCE20000E8E20000B6
S1130330E8E20000E8E20000104AD2F8943003F04A
S11303400703023B032B13D8DFE803F00C14020E5F
S11303500B4B1B68D2F80001C0F304200130B3FB3F
S1130360F0F07047074BF4E7074B1B685B08F1E7B5
S1130370054BEEE74FF40043ECE700BF00400E40AE
S11303800C1000201010002008100020014B1868E9
S1130390704700BF10100020044B054A9A60D3F840
S11303A0882042F47002C3F88820704700ED00E012
S11303B000000000014B1868704700BF0C100020BB
S11303C070B59400224605460E4608F023F9431CF6
S11303D00AD058B92246314628460CF099FA00282A
S11303E0034808BF002070BD0248FCE70248FAE752
S11303F010E000F021E000F024E000F013B5044622
S113040001A800F00BFB9DF80630238040F2011395
S11304106380074BD3F8E4301B0E0A33012203F048
S11304201F0302FA03F30020636002B010BD00BF93
S11304300081E00F10B5044600F0A2FA431C17D067
S1130440C0B90D4BD3F8E420120E0A3202F01F0299
S11304500123934023F0030320462344984201D10F
S1130460002010BD50F8042B0132F7D00348F8E700
S11304700348F6E70348F4E70081E00F0EE000F0DC
S113048021E000F024E000F008B508F071F8014B19
S1130490186008BDD0250020014B186808F06CB81E
S11304A0D0250020C0F30313013B092B2AD8DFE831
S11304B003F0050B0F1929291F23374B274BD3F8BA
S11304C00001C0F304207047244BD3F81401F8E76B
S11304D0224BD3F80031C3F3006301330120984069
S11304E0013870471D4BD3F80C01C0F30820704746
S11304F01A4BD3F80801F8E7194B984204D0194B6A
S1130500984207D000207047144BD3F8203103F0F1
S11305100F03E3E7114BD3F82031C3F30113DDE7F5
S1130520114B98420CD003F5B01303F58053984255
S1130530E8D10A4BD3F82831C3F301230433CDE7C0
S1130540064BD3F82831E8E7084B9842DAD1034B3D
S1130550D3F8300100F00300704700BF00400E40A4
S11305608006160080162E0090171A00A0091400A9
S113057000F00F000138072850D8DFE800F0041518
S1130580244F34384F402B4BD3F8943003F00703F7
S1130590023B052B06D8DFE803F049243F0305435B
S11305A00B20704705207047224BD3F8800000F0E1
S11305B0070002283DD0042836D0012808BF0320B4
S11305C018BF012070471B4BD3F8843003F0070396
S11305D0013B032B03D8DFE803F0041F2527012088
S11305E0704703207047134BD3F88800DFE7114BA3
S11305F01B6F13F0010F0CBF0720092070470D4B30
S1130600D3F85C3103F03003202B0FD0302B0FD004
S1130610102B08BF0720D3E7022070470020704743
S11306200C207047062070470A207047042070474A
S11306300820704700400E4008B50146FFF798FFB8
S11306401A4B994211D01A4B994212D0194B994224
S113065004D1194BD3F8800000F0070001380328B7
S113066021D8DFE800F00A0E1612134BD3F88400E9
S1130670F2E7114BD3F88800EEE7BDE8084007F035
S11306804CBFBDE80840FFF795BEBDE8084007F041
S113069047BFFFF751FE084BD3F80031C3F30063A3
S11306A00133D84008BD0020FCE700BF0300200050
S11306B00500240002001E0000400E4000F47813E0
S11306C0B3F5B01F10B5044674D025D8B3F5402F48
S11306D05ED010D8B3F5802F49D005D83BB1B3F51F
S11306E0003F4FD0002010BDB3F5202FFAD1BDE854
S11306F01040FFF721BEB3F5801F00F08480B3F5EE
S1130700A01F4DD0B3F5602FECD14A48FFF730FF5E
S1130710072878D00928E9E7B3F5381F53D013D850
S1130720B3F5001F58D00AD8B3F5D01F56D0B3F58F
S1130730F01FD7D14048BDE81040FFF77DBFB3F5A7
S1130740101FCFD13D48F6E7B3F5481F4DD0B3F5A0
S1130750781F65D0B3F5401FC4D13948FFF76CFF4B
S1130760384BD3F82831C3F30123043320E0FFF7D7
S1130770E3FD344BD3F80C31C3F308230133B0FB4E
S1130780F3F0B0E7FFF7D8FD2E4BD3F80831F3E7C9
S1130790FFF7D2FD2B4BD3F81431C3F30423EDE759
S11307A02648FFF749FF274BD3F8303103F0030302
S11307B0D84098E72048FFF73FFF224BD3F8203179
S11307C003F00F03F4E71C48FFF736FF1D4BD3F883
S11307D02031C3F30113EBE71948ACE71848FFF7DE
S11307E02BFF184BD3F82831F3E71748FFF7C0FE67
S11307F0072808D0082809D004287FF473AFBDE87F
S11308001040FFF7C3BD114B18686CE7FFF794FD68
S11308100C4BD3F80031C3F3042303FB000062E75D
S1130820FFF78AFD0146204607F09DFEB1FBF0F07C
S113083059E700BF06000E0002001E000500240058
S11308400300200000400E40B800320014100020C5
S1130850054B5A685B68054B41F671321A649A6815
S113086022F001029A60704700300E4000000E40F2
S1130870034B9A6822F001029A6000221A647047BE
S113088000000E40094A0A4BD969C90705D512B9B7
S11308906FF002007047013AF6E7002AF8D001220F
S11308A01861DA60D86940F3800070478096980038
S11308B000000E4070B509B9002070BD0E4A002337
S11308C0082550F8234094610C4CD5600133D66957
S11308D0F60705D514B96FF00200EEE7013CF6E720
S11308E0002CF8D0D469A40702D49942E9D1E3E7F3
S11308F06FF00100E1E700BF00000E408096980011
S11309002DE9F8431C4B0D4641F671311E6C1964F8
S11309101A49804648684968996841F00101B6B2AD
S1130920996097084FF00009B94501D3002005E00C
S113093008EB89042046FFF7A5FF48B10E4B9A68DF
S113094022F001029A600EB100221A64BDE8F88315
S1130950C4F30A01C1F500618908A7EB09039942B0
S113096028BF19462846FFF7A5FF0028E6D1894489
S113097005EB8105D8E700BF00000E4000300E40B3
S1130980234B41F671311A6C10B5196421494C6836
S11309904968996841F00101996001211861D960A1
S11309A0D9694C0792B209D5996821F0010199607F
S11309B00AB100221A644FF0FF3010BD0221D96041
S11309C01549D869C00700D569B9D86910F0020083
S11309D00BD0996821F0010199600AB100221A64D0
S11309E06FF00100E9E70139EBE741B9986820F0BD
S11309F00100986002B119646FF00200DDE79968A4
S1130A0021F0010199600AB90020D6E71864FBE7D8
S1130A1000000E4000300E40809698000D4AD2F837
S1130A20E430D2F8E0109B0003F03C03C1F38111E1
S1130A300B438370D2F8E03003F03F034370D2F8E5
S1130A40E830D2F8EC2003F0F003C2F303121343AE
S1130A500370704700FF0FE000230C4A0360032972
S1130A6010B50263044643630ED1052107F0BCFDB3
S1130A70636823F4407343F400736360636823F48E
S1130A80406343F40063636010BD00BF20001000A6
S1130A902DE9F04F1E460446894692461F460FCE66
S1130AA08BB001AD0FC596E80F0085E80F00002557
S1130AB0099507F05DFD5146064604F5827007F07E
S1130AC072FD494604F5847007F06DFD394604F55E
S1130AD0867007F068FD304607F04EFD5F4E604BB0
S1130AE0DFF8BC91DFF8BCA12365DFF8BCB107F0E7
S1130AF03FFDC4F850B0D4F8148007F03DFD18F061
S1130B00807F19D0574B236507F032FDC4F850B0ED
S1130B10656907F031FDEB0140F1888007F028FD9D
S1130B201499054604F5887007F045FD284607F03A
S1130B3023FD0BB0BDE8F08F18F4807F1CD14A4B25
S1130B402365013D9023A360636913F4807F474BC1
S1130B5023650ED007F00CFD3946834604F58070FA
S1130B6007F021FD584607F007FD414B2365414B33
S1130B7063658823A360B8E7002D13DA3E4BC4F8FD
S1130B8050A0636507F0F4FC01A9834604F5807066
S1130B9007F011FD63695846C3F30343099307F053
S1130BA0EBFC6D42354B23656369DFF800C113F438
S1130BB0407F4FF08803A3604FF00101626926650E
S1130BC061656369C4F850C00ABF01204FF0FF306B
S1130BD005F1FF358842C3F30723C2F300220BD18A
S1130BE032B1D90704D5264B2365264B6365A9E7A3
S1130BF0254B2365254BF9E79AB9DA0711D5244B20
S1130C002365244B6365A16501A904F5807007F091
S1130C10CAFC099B03F00F03C4F848318323A36083
S1130C2090E71D4BC4F850906365EDE707F0A0FC16
S1130C3004F5807639460546304607F0B4FC28466C
S1130C4007F09AFC154B236507F092FC14990446AF
S1130C50304607F0B0FC204669E700BFC93E8198E2
S1130C603084880198390100C93E8101D23E820155
S1130C70C024D0340982010099830100D9080100FD
S1130C80C8340981E20C8201C80881E20C820100A7
S1130C9083D9341181E21482E2148201E01001004C
S1130CA083D9108190A2848835393801DB3E010054
S1130CB02DE9F04F89B081460D46164600212022C9
S1130CC068461F460BF04EFE4FF00A0A99F80030B2
S1130CD0022B40D0032B07D0012B44D06FF0710BB3
S1130CE0584609B0BDE8F08F202269463846B0471F
S1130CF08346BBF1000FF3D100F0BCFA99F8001061
S1130D000446FFF7A9FE07F033FC6946804604F564
S1130D10827007F048FC404607F02EFC374B2365F1
S1130D20204607F079FC07F023FC04F5807883461D
S1130D306946404607F03FFC584607F01DFC009BFF
S1130D40012B18D8204600F09FFABAF1010ABDD150
S1130D50DFF8BCB0C4E71C2269463846B04700231C
S1130D6083460793C5E7182269463846B0470023EF
S1130D7083460693F5E707F0FBFB05F10C070646EF
S1130D80294604F5847007F04BFC05F1180939462F
S1130D9004F5867007F044FC494604F5887007F0B2
S1130DA03FFC304607F0E8FB154B2365204607F06F
S1130DB033FC4946404607F068FC8346C8B9114BEA
S1130DC02365114B6365204607F026FC29464046FF
S1130DD007F05BFC834660B90C4B23654FF48E73BC
S1130DE06365204607F018FC3946404607F04DFC81
S1130DF08346204600F048FA72E700BF30C80C0171
S1130E0081E11C018CE11C81D11C0100E11C81D910
S1130E1000B3FFFF2DE9F843064610460F469046FF
S1130E201D4609F0B6FD28B129463846BDE8F84309
S1130E3009F082BD2B6A002B40F0AD8000F01AFA55
S1130E4031780446FFF708FE07F092FB04F580763C
S1130E5008F118018146304607F0E2FB484607F0E6
S1130E608BFB574B236540F281136365204607F0E3
S1130E70D3FB07F07DFB29468146304607F0D0FBC3
S1130E80484607F079FB4F4B2365012320466365F1
S1130E9007F0C2FB4C4B236507F0BEFB07F068FB71
S1130EA005F10C018146304607F0BAFB484607F0CD
S1130EB063FB464B2365204607F0AEFB07F058FB67
S1130EC008F10C094946054604F5827007F0A8FBB1
S1130ED0284607F051FB3E4B2365204607F09CFB58
S1130EE007F046FB41460546304607F099FB284685
S1130EF007F042FB374B2365374B6365204607F009
S1130F008BFB07F11801304607F0BFFB05460028AC
S1130F103BD1324B2365204607F07EFB304B2365E3
S1130F2007F07AFB2F4B236507F076FB2E4B2365E6
S1130F304FF48A73636507F06FFB2C4B236507F04E
S1130F406BFB3946304607F0A0FB0546E8B9284B51
S1130F502365284B6365204607F05EFB07F008FB1A
S1130F6049460546304607F05BFB284607F004FB7C
S1130F70214B2365214B6365204607F04DFB07F1A8
S1130F800C01304607F081FB0546204600F07CF951
S1130F902846BDE8F883284609F0FBFC08B1414621
S1130FA043E72B6A002B3FF449AF012105F11800F8
S1130FB008F0DCFB00283FF441AF114DE8E700BF27
S1130FC08184E11C83D91C83E11C810182D11C0131
S1130FD0C81482019983D91481E11C018CE11C019C
S1130FE0811C8401D91C830191D11CE0D814140103
S1130FF081CB1481D11C820181E11C84E2140100A3
S113100080B0FFFF2DE9F04788B0904605460F46B3
S113101000F030F92978DFF854910446FFF71CFDFD
S113102007F0A6FA04F5807608F118010546304663
S113103007F0F6FA284607F09FFA40F28313C4F843
S113104050902046636507F0E7FA07F091FA08F13B
S11310500C010546304607F0E3FA284607F08CFAFF
S11310604FF0010A354B23652046C4F854A007F01D
S1131070D3FA07F11801304607F007FB05460028AC
S113108054D12F4B23654FF486736365204607F0D4
S1131090C3FA07F06DFA4146054604F5887007F077
S11310A0BFFA6946304607F086FA284607F064FA24
S11310B0244B2365244B6365244BA365204607F02A
S11310C0ABFA234B2365234B636507F0A5FA224B48
S11310D02365224B6365C4F858A007F09DFA39468E
S11310E0304607F0D2FA054600BB1D4B23651D4B65
S11310F06365204607F090FA07F03AFA6946054618
S1131100304607F050FA284607F036FA164BC4F872
S1131110509063654FF48A73A365204607F07CFA08
S113112007F10C01304607F0B0FA0546204600F0FE
S1131130ABF8284608B0BDE8F08700BF821CC00C9D
S113114091D11CC0C00C81E11C82DC0C811484018F
S1131150E11C81C80C0C8101D20C848BD91CE014D5
S113116084E21482D11C8301C00C82D38182D11CFD
S11311702DE9F047A2B00E46054600F07BF815F8BD
S1131180041B044606F11807FFF766FC1C22002125
S113119003A80BF0E7FB4FF0010839460AA80DF14C
S11311A06809CDF8088007F0BDFA294612A807F0AF
S11311B0B9FA12AB0AAA02A9CDF800902046FFF7AB
S11311C067FC07F0D5F94946054604F5867904F528
S11311D0827007F0E8F906F10C0A3146484607F038
S11311E01FFA514604F5887007F01AFA284607F0EA
S11311F0C3F9134B2365204607F00EFA114B236500
S113120007F00AFA104B236507F006FA0F4B236523
S113121007F002FA514604F5807007F036FA58B91F
S11312203146484607F031FA30B9204600F02CF830
S11312304146384608F0D5F822B0BDE8F08700BF33
S11312408AD11C0181D91C0183D11C0181E11C01BB
S113125008B5064A064B00290CBF1146194600F092
S113126021FBBDE8084007F083BA00BF0900000273
S113127008000002024B03480122C3F8002670470D
S11312800010C84300000F40094B98420ED003F5EC
S11312908063984209D10122064B03EBC2035A68CA
S11312A0054B13449B0000221A6070470022F3E7A9
S11312B000000F40D4D400008005F210A0F50320F4
S11312C0A0F580704109054A00F01F000123834006
S11312D052F82100034342F821307047D4250020FE
S11312E02DE9F047804688B00F461E4615460AB1E0
S11312F0002313600EB100233360DFF8B4904FF085
S1131300100ACDF800A0D9F8000000233A4641465F
S113131006F0D8FE0446F8B93B68214A93422ED120
S11313204FF0180A0146524602A80BF01BFBCDF8F9
S113133000A02346D9F8000002AA414606F0C2FEE6
S1131340044648B9069B7B60DDE90423C7E9022310
S1131350144B3B6025B9144C204608B0BDE8F08717
S1131360114CC5F800A0002EF6D0D9F80000334681
S113137002AA414606F0FAFE60B10446ECE7094AC7
S11313801DB99342E8D0094CE6E79342C5F800A0A2
S1131390E9D0F8E733682A689B1A3360DCE700BFBA
S11313A0D175E105105D175EFEDF00F0FFDF00F090
S11313B0501900202DE9F04F93B00746884604F0F9
S11313C04BFF0446002847D1374E3378F3B9014622
S11313D0402202A80BF0C6FA344D354A35482B4654
S11313E01035954294BF009500920068102202A91E
S11313F00BF0CBFE0DF1080B82464FF00009CA45F5
S113140012D12D4B9D42E8D1012333702B4E337BF7
S11314108BB1D6E90023984508BF97420BD1B56834
S1131420284613B0BDE8F08F5BF8040BFFF746FFC6
S113143009F10109E3E7DFF89090DFF890A0DFF805
S113144090B0630904F01F0259F82330D340DB073E
S113145004D40134812CF4D1194DE1E704F50325BA
S113146005F5807500231A4602A92846FFF738FFC0
S113147008B150450BD1DDE90423984508BF9742D4
S1131480E7D10123C6E900783373B560C8E70D4B93
S1131490984201D05845DCD1064B2946186806F01D
S11314A0ABFE0028D5D0D7E7592E00200031080024
S11314B0813108005019002090310800A824002030
S11314C082310800FFDF00F0D4250020FEDF00F0A9
S11314D011E000F02DE9F84F994640F26C739A42FE
S11314E0DDF828A083460E4617466DD812B1B9F12F
S11314F0000F6CD0BAF1010F6CD831465846FFF793
S113150059FF07F1100805464146012007F05DFA2E
S11315100446002861D0424600210BF023FA304BE8
S11315209D4234D92F480368D90713D42E4D2F4B2D
S11315302360C4E902B6002614E05A0903F01F012F
S113154050F82220CA40D20705D405F5032505F238
S11315500115ECE700231D460133812BEDD1244D09
S11315606FF08D06C4F804A02FB13A46494604F141
S113157010000BF001FA1F48434600682246294632
S113158006F008FD68B92846FFF798FE0BE0002333
S11315901A4621462846FFF7A3FE78B1164B984217
S11315A00CD06FF091064246002120460BF0DAF988
S11315B0204607F01AFA3046BDE8F88F6368012B1D
S11315C0B9D16FF08406EEE76FF09106F3E76FF0A0
S11315D08606F0E76FF08506EDE76FF08C06EAE724
S11315E081310800D425002000310800105D175E09
S11315F08231080050190020FEDF00F02DE9F0418F
S113160088B0DDE90E7815461C4693B1B8F1000F99
S113161004D16FF0860008B0BDE8F081002FF8D047
S1131620B7F1005FF5D3C3F1005303F580339F4254
S1131630EFD8FFF7BFFE1E4B9842064602D96FF063
S11316408B00E8E7102200210DEB02000BF08AF971
S11316500023CDE9023303AA02AB04A93046FFF705
S11316603FFE144B9842EAD028B1013B984202D085
S11316706FF09100CFE7029B94B1AB4213D853EAC9
S11316800504C6D1039B0C48C8F8004000940068C8
S11316902B443A46314606F015FD0028BBD0E7E757
S11316A0AB42EFD2B5E75B1B9C4228BF1C46E9E77F
S11316B081310800FFDF00F05019002030B51446D6
S11316C087B022B3FFF776FE144B9842054603D940
S11316D06FF08B0007B030BD1022002102A80BF080
S11316E041F90023CDE9003301AA6B4602A928463B
S11316F0FFF7F6FD0A4B9842EAD010B1013B98423D
S113170008D1039B6360009B23600020E2E76FF035
S11317108600DFE76FF09100DCE700BF813108004D
S1131720FFDF00F070B586B006460D46FFF742FEB7
S1131730234B9842044603D96FF08B0006B070BD6A
S11317401022002102A80BF00DF90023CDE900338B
S113175001AA6B4602A92046FFF7C2FD194B984225
S1131760EAD028B1013B984202D06FF09100E5E73E
S1131770039B012B21D0144B2146186806F03CFD35
S11317800028F2D1114B1A7B32B1D3E90012AA42DC
S113179008BFB14208BF1873A4F50324A4F58074EC
S11317A061090B4A04F01F0452F821000123A340ED
S11317B0434042F821300020C0E76FF08400BDE7C9
S11317C081310800FFDF00F050190020A824002018
S11317D0D42500202DE9F04788B0074688461546F1
S11317E01E46FFF747FD044607F17E4008380128EE
S11317F050D80423236000236360E364626822F406
S1131800406262606A46236391466363A8F10403FD
S113181008F11C0853F8041F09BA434542F8041B95
S1131820F8D106F0A5FE4946074604F5827006F095
S1131830BAFE384606F0A0FE184B2365109BDFF86D
S1131840609005EB831704F5D27A06F091FE2946E1
S11318508046504606F0B7FE4035404606F08CFE02
S1131860BD42C4F85090F0D106F082FE31460546E0
S113187004F5807006F09FFE284606F07DFE2046A3
S1131880FFF702FD331F1C3653F8042F12BAB3427C
S11318901A60F9D108B0BDE8F08700BF888AC80192
S11318A0070D810138B50D46044630B36C22002182
S11318B00BF058F8124B9D4205D001339D4210D0D5
S11318C06FF0850038BD0F4B04F10C0203F12001C9
S11318D053F8040B42F8040B8B42F9D12560002025
S11318E0F0E7094B04F10C0203F1200153F8040B57
S11318F042F8040B8B42F9D1F0E76FF08600E1E780
S113190008000002E4D4000005D500002DE9F341ED
S11319100E461F46054600285FD083B9002A5CD1D5
S11319202B68324A93425ED0013293420CBF6FF06F
S113193089046FF08804204602B0BDE8F0810029D4
S1131940ECD0036829498B4244D001318B4247D102
S11319504FF02008904546D86A68D3008DF80730C8
S113196053098DF80630530B8DF80530530D8DF85F
S11319700430AB68D90001EB52718DF8031002F00A
S11319803F025909372A8DF802104FEA53318DF876
S113199001104FEA535316498DF8003094BFC2F139
S11319A03802C2F17802284606F015FF04460028E2
S11319B0C1D108226946284606F00DFF04460028D6
S11319C0B9D1C7F80080424605F10C0130460AF04F
S11319D0D3FFB0E74FF01C08BCE76FF08604AAE71A
S11319E06FF08804A7E76FF08904A4E708000002F9
S11319F026D500002DE9F0419CB0DDE92278164699
S1131A001C460D4601B90AB91CB92FB16FF0860006
S1131A101DE0B8F1000FF8D0014601A8FFF742FF1E
S1131A20A8B9019B0F4A934214D00132934213D1B7
S1131A302023BB4213D83246294601A806F0CBFE28
S1131A4028B943463A46214601A8FFF75FFF1CB078
S1131A50BDE8F0811C23ECE76FF08800F7E76FF036
S1131A608900F4E70800000270B5114C114E0A25F4
S1131A70236843F4807223F4807322603046236029
S1131A80FEF71CFE0023800A62680AB983420AD169
S1131A90636853B9013DEBD1236823F0010323604C
S1131AA06FF0920070BD0133EEE70020FAE700BF4B
S1131AB000D00140700002002DE9F04F85B0634D65
S1131AC00092634AD2F8C03043F40033C2F8C03005
S1131AD02B68DC0781468A4616D500245B4D4E46AA
S1131AE0D04627464FF00A0BB8F1000F2BD144B172
S1131AF014F1940F05D04246002148460AF032FF03
S1131B000027009B1F601AE040F271632B60FFF70F
S1131B10ABFF044698B96B68032BFCD9D5F80031A8
S1131B202B61D5F800316B61D5F80031AB61D5F884
S1131B300031EB61FFF798FF04460028CDD0204622
S1131B4005B0BDE8F08F6C68A40005D02B6B13F4CE
S1131B505C7F12D1002437E03E48FEF7AFFDC00A97
S1131B60844205D16B68002BF0D16FF09304C8E771
S1131B706B68002BF6D10134F2E7D80514D523F4B1
S1131B8080732B636B6853B9BBF10107EDD04E46EC
S1131B90D0466FF093040022BB461746A4E7D5F85D
S1131BA000310393039BEDE70193FFF75DFF0446C8
S1131BB020B9019B13F41C7FCCD0E5E710F1930FFF
S1131BC099D010F1940FDFD06B686A689B0043458D
S1131BD028BF4346B107324634D123F003013144D0
S1131BE0914212D103F0030149B11848D0F8000121
S1131BF0114402F8010B8A424FEA1020F9D1FA1875
S1131C001E44A8EB03085F46C6E7D5F8000142F876
S1131C10040BE5E7DCF8001102F8041C4FEA112E6E
S1131C2002F803EC4FEA114E090E02F802EC02F836
S1131C30011C0438032802F10402EBD823F0030248
S1131C403244CFE7DFF804C01846F3E700D0014080
S1131C5000400E407000020010B5044606F088FCF7
S1131C60024B1C6006F088FC002010BDE825002013
S1131C7010B506F07DFC034B1C6806F07DFC204685
S1131C8010BD00BFE825002013B5002301241A4627
S1131C9019460094184603F00BFE00231A46194611
S1131CA01846009403F034FE0248FFF7D5FF0020E5
S1131CB002B010BD1C10002070B586B0CDE904320E
S1131CC005460E461046002110221C460AF04AFE24
S1131CD004AB0393064B02930023CDE90033FF22A8
S1131CE0E3B23146284606F073FF06B070BD00BF6C
S1131CF0058A00002DE9F0479AB0054611A89846D8
S1131D000C469246DDE9226908F094FD05A807F027
S1131D10DAFA08A807F0D7FA0BA807F0D4FA0EA845
S1131D2007F0D1FA6B6D002B00F08480012130465E
S1131D3007F01CFD002813DB05F14C07394630463B
S1131D4007F0D3FC00280BDA0121484607F00EFD0A
S1131D50002805DB3946484607F0C7FC002813DB9A
S1131D60354C11A808F0A3FD05A807F0B2FA08A89D
S1131D7007F0AFFA0BA807F0ACFA0EA807F0A9FA1F
S1131D8020461AB0BDE8F0872246534605A92846E6
S1131D9008F056FC04460028E3D13A46494608A810
S1131DA008F032FA04460028DBD108AA05A90BA8DA
S1131DB007F0CCFE04460028D3D10BA93A460846C6
S1131DC008F004F904460028CBD108AA31460EA82D
S1131DD007F0BCFE04460028C3D10DF138093A4689
S1131DE04946484608F0F2F804460028B9D1CDE93E
S1131DF00180CDF8009005F128030BAA11A928460B
S1131E0000F08AFC04460028ABD111A808F0C1FDFB
S1131E100028A5D111A93A46084608F0D7F8044687
S1131E2000289ED1314611A807F05FFC0446002823
S1131E3097D095E7014CA3E700B2FFFF80B0FFFF06
S1131E402DE9F04F9846436D99B005460F46144668
S1131E50002B00F0B5800121404607F087FC0028E4
S1131E6004DA5849084619B0BDE8F08F05F14C066C
S1131E703146404607F039FC0028F2DA0FA808F092
S1131E80D9FC06A807F01FFA09A807F01CFA0CA849
S1131E9007F019FA4FF00C0905F1280BB9F1010903
S1131EA000F08C804FF00C0ABAF1010A00F0868031
S1131EB006A9DDE92423284600F09CFC01460028FD
S1131EC06DD1279B0193269B029000930FA95B463B
S1131ED006AA284600F080FC014600285FD10FA91D
S1131EE03246384608F072F80146002857D1384681
S1131EF007F03CFC0028D7D009A9DDE922232846B5
S1131F0008F09EFB0146002849D10CA9DDE92623EF
S1131F10284600F06FFC0146002840D1394642466D
S1131F20204607F013FE0146002838D109A90846C7
S1131F30224607F0F7FC014688BB09A908460CAA0B
S1131F4007F004FE014650BB06A908460CAA07F098
S1131F50FDFD014618BB06A90846324608F036F8CE
S1131F600146E0B906A93246204608F04DF901467B
S1131F70A8B9214609AA204607F0E8FD014670B930
S1131F8021463246204608F021F8014638B905902A
S1131F90204607F0EBFB059900283FF47FAF0FA81C
S1131FA0059108F084FC06A807F093F909A807F046
S1131FB090F90CA807F08DF9059953E70249EEE76B
S1131FC002494FE780B3FFFF00B3FFFF80B0FFFF7C
S1131FD070B50C460646114620461A4607F0B6FD73
S1131FE0054698B9736E33B9321D21462046BDE8C3
S1131FF0704007F0EBBF2368002B09DB204607F095
S113200039FAB36DB0EB430F09D9184D284670BDAA
S11320100146204607F0AAFB0028EFD0F5E7736ECF
S11320202046984705460028F0D104362368002B43
S113203004DA0021204607F099FB68B931462046AE
S113204007F053FB0028E1DB32462146204607F027
S1132050FAFB0028F2D006E032462146204607F07B
S113206061FC0028E2D00546D0E700BF80B0FFFF46
S113207038B50D460446002105F1180007F076FB3B
S113208050B1204606F06CFB28B129462046BDE835
S11320903840FFF76DB8014838BD00BF80B1FFFF7D
S11320A00246044803780BB9184670479342FCD0A3
S11320B00C30F7E770D500002DE9F0478246043074
S11320C01F46DDE908490E46904607F0F2F9054639
S11320D0504608F0A6FB0128824602D01F48BDE8FE
S11320E0F087002106F1180007F040FB40B9B9F170
S11320F0000F01D11A48F2E72070C7F800A0EEE7FC
S1132100B8F1000F17D16B0001334B453B60F1D898
S11321102146042301F8013B2A46304607F0F0F932
S11321200028DCD1691C2A46214406F10C00BDE8D4
S1132130F04707F0E5B9B8F1010FCFD16B1C4B455F
S11321403B60D7D8002106F10C0007F066F9214660
S1132150023001F8010B2A463046E8E780B1FFFF60
S113216000B1FFFF2DE9F04180460C4616461F469C
S113217013B91A48BDE8F081043007F09AF905460E
S1132180404608F04EFB0128804625D1337833B908
S1132190012FEED12046BDE8F04108F0E6BB042B48
S11321A01AD16B000133BB42E3D12A46711C20468D
S11321B007F085F90028DDD1691C2A46314404F171
S11321C00C0007F07CF90028D4D1414604F1180032
S11321D0BDE8F04107F005B90148CBE780B0FFFF47
S11321E080B1FFFF2DE9F0410E4686B0054601217E
S11321F006F1180007F0BAFA044650B9284608F068
S113220010FB012879D12146304607F0AFFA0028A7
S113221001DA3B4C6DE006F10C082146404607F01C
S1132220A5FA0028F5DB2F1D3946304607F05DFA84
S11322300028EEDA3946404607F057FA0028E8DA73
S1132240684607F040F803A807F03DF843464246C5
S113225069462846FFF7BCFE0446002843D13346AE
S1132260324603A92846FFF7B3FE044600283AD1B4
S1132270AB6973BB03A90322084607F098FB044625
S113228088BB039B002B04DA002103A807F06EFA35
S1132290C8B903AA334611462846FFF799FE0446F7
S11322A008BB03AA05F11C031146284608F04EFAA0
S11322B00446C0B903A9684607F017FA104B041E78
S11322C018BF1C460FE003A93A46084607F02AFB4C
S11322D0D5E703AA05F110031146284608F036FA9B
S11322E004460028D5D0684606F0F3FF03A806F09C
S11322F0F0FF204606B0BDE8F081024CF9E700BFCC
S113230080B3FFFF80B0FFFF38B5054608F089FAB7
S113231001280C4601460DD1204607F027FA002873
S113232006DB05F14C01204607F0DFF9002803DB4A
S1132330024838BD0248FCE70020FAE780B3FFFFFB
S113234080B0FFFF2DE9F04FBBB0054601919246E6
S1132350994606F005FA0290A0B1284606F005FA5F
S1132360044658B951462846FFF7CEFF044628B91B
S113237049462846FFF736FF044698B1284606F03A
S1132380F6F980E151462846FFF7BEFF04460028CF
S113239040F0798149462846FFF724FF0446002887
S11323A040F07181284608F03CFA012840F0AC81E5
S11323B0EB6D2421013302204FEA530806F005FB9C
S11323C00646002800F09E8106F1240708F032FA40
S11323D0384608F02FFA002419AB18190C3406F00B
S11323E072FF302CF8D14946304608F0A5FA04466D
S11323F0002840D18346D84520D139462846FFF7E6
S113240037FE0446B8BB284606F0AAF930B33B466B
S1132410324639462846FEF7FDFC044658BB394689
S11324202846FFF725FE044628BB06F1180006F0EF
S113243050FF06F13C0006F04CFF1CE00123BBFBFF
S1132440F8F203FA02F1C9B2242308FB12B203FB27
S113245001692AB1284606F083F948BBAB4C0AE06F
S1132460490801EBC10106EB8101484608F064FA12
S113247004460028EED04FF0000919AB03EB090025
S113248009F10C0906F025FFB9F1300FF5D1D4B1EB
S11324906B6F9E4208D0304608F009FA384608F0BF
S11324A006FA304606F0A1FA019808F000FAE6E0D0
S11324B04A4649462846FEF7A5FD04460028DAD1D7
S11324C00BF1010B97E704A806F0FDFE05F14C0B98
S11324D00DA806F0F8FE2146584606F09EFF012896
S11324E040F0D8802146504606F097FF5146814679
S11324F004A806F042FF044630B10DA806F0E9FE38
S113250004A806F0E6FEC3E7524659460DA807F0B4
S11325102BFA04460028F0D1B9FA89F94FEA59197F
S11325204A460DA904A808F018F804460028E4D186
S1132530014608F1010219A80DF1640B0AF012FA20
S1132540A2465B46D045039300F0A180514604A8FF
S113255006F063FF039B1C7808EB0A01044304A8FC
S113256006F05BFFE4B2039B44EA400403F8014B2A
S11325700AF1010AE6E79BF801009BF8003080EAC3
S1132580020C6FEA0C0101F0010113FB01F310408E
S113259003EA0C0283EA0C030BF8013F1BF8013C2D
S11325A043EAC11302430BF8013C0134A245E2D2D1
S11325B00DA806F08EFE04A806F08BFE04A808F011
S11325C039F900240DAB18190C3406F07CFE302CBC
S11325D0F8D10AF1E8036B44019913F8843C3246BC
S11325E0284608F0DDF8044648B9449B002B00F067
S11325F08480284606F0B4F800284DD1434C04A842
S113260008F0C0F84FF000080DAB03EB080008F128
S11326100C0806F05EFEB8F1300FF5D1002C7FF403
S113262037AF01994A46284608F06BF8044600285B
S11326307FF42EAF449B73B1284606F091F800282E
S11326405ED0DDE9442301992846FEF731FB0446B8
S113265000287FF41DAF01992846FFF709FD6B6F31
S11326609E42044608D0304608F021F9384608F066
S11326701EF9304606F0B9F9002C7FF415AF029B21
S1132680002B7FF47BAE20463BB0BDE8F08F0022E8
S113269001248BE71E4CFBE6DDE94423019928461F
S11326A0FEF706FB48B30446A9E728460AF1FF3AB9
S11326B006F056F80028A1D0019A28461146FEF7E4
S11326C0A1FC0028EFD118F80A30324604A92846A4
S11326D008F066F80028E6D1284606F041F80028FC
S11326E08CD0019A04AB11462846FEF793FB0028D0
S11326F0D9D1BAF1000FD8D181E70DF16408F8E718
S1132700024CC5E6034CCFE6014CB8E780B1FFFFAD
S113271080B0FFFF80B2FFFF2DE9F04196B005467F
S1132720984608F07EF801280F46164650D101A8B5
S113273008F080F800240AAB18190C3406F0C3FD25
S1132740302CF8D14346324601A9284608F02AF92C
S1132750044600283AD1DDE91C233946284608F00E
S113276021F9044690BB284605F0FAFF0646B8B99D
S1132770284605F0F5FFD0B9164C00270AABD81946
S11327800C3706F0A6FD302FF8D116B1284605F017
S1132790EEFF01A807F0F6FF204616B0BDE8F08171
S11327A0284605F0E2FF04460028E1D0E5E73B4671
S11327B001AA39462846FEF72DFB04460028DCD141
S11327C039462846FFF754FC0446D6E70026D4E7EA
S11327D0004CE1E780B1FFFF30B4DDE9024524B1EC
S11327E0CDE9024530BCFFF7ADBD014830BC7047B0
S11327F080B0FFFF73B505461E4608F012F80128A5
S11328000C4601460ED11346009605F14C022046B3
S113281007F08BFC044B10F10E0F18BF034618464B
S113282002B070BD014BFAE700B3FFFF80B0FFFFB9
S11328302DE9F0410D46014628461746984600F01A
S11328408DF80446B0B9284607F0EBFF012805F1DE
S11328507C0612D142463946304606F030FE044624
S113286028B931462846FFF74FFD044610B13046DB
S113287006F02FFD2046BDE8F081014CF7E700BFCC
S113288080B1FFFF10B5044607F0CBFF012805D146
S113289004F17C00BDE8104006F032BE004810BDD3
S11328A080B1FFFF2DE9F0479A460378AAB00546A8
S11328B00C46164623B9284C20462AB0BDE8F087BA
S11328C00A789A42F7D101F188094946883006F01E
S11328D00CFF0028EFD104F19408414605F194005F
S11328E006F003FF0028E6D104F1A007394605F1FC
S11328F0A00006F0FAFE0028DDD102A807F09AFF36
S11329000BA807F0A5FF21460BA808F02BF804F14B
S1132910280304F17C02CDE9006A02A90BA808F09F
S113292090F8044680B9494602A806F0DEFE50B984
S1132930414605A806F0D9FE28B9394608A806F08C
S1132940D4FE044600B1044C02A807F01BFF0BA8F8
S113295007F0B1FFB0E700BF80B0FFFF38B5044611
S11329600D4607F0A8FF204607F072FF032D2570DF
S113297027D1164AE26001250823154A6262C4E998
S11329800153C4E90753C4E91353C4E90A53114A70
S1132990A363114B6265114A6564C4E90F35104B9A
S11329A0A364C4E90C25201D06F064FDA06504F1B0
S11329B04C0006F05FFDC4E917050020C4E91D00C2
S11329C038BD002307482370FAE700BF08D600008B
S11329D0E8D5000088D50000A8D50000C8D50000BF
S11329E02810002080B1FFFF032804D004280348E6
S11329F018BF002070470248704700BF28D6000067
S1132A0030D6000038B5094C0546206810B9044694
S1132A10204638BD6B6862689A4204D1A96809F0FF
S1132A2077FF0028F4D01434EFE700BF60DD000026
S1132A3070B50E46054610B1094C206810B96FF008
S1132A402D0070BD6B6862689A4203D1A96809F0D1
S1132A505FFF08B11434F0E723693360F1E700BF86
S1132A609CDD000070B5094C256815B96FF02D0088
S1132A7009E0667C864207D1267C8E4204D115602B
S1132A8062681A60002070BD1434EDE760DD000058
S1132A9070B50E46054610B1094C206810B96FF0A8
S1132AA02D0070BD6B6862689A4203D1A96809F071
S1132AB02FFF08B11434F0E7237C3370F1E700BF33
S1132AC010DD000030B5084B1C6814B96FF02D0000
S1132AD006E01D7C854204D15B680C600020136015
S1132AE030BD1433F0E700BF10DD000070B50E46B2
S1132AF0054610B1094C206810B96FF02D0070BD67
S1132B006B6862689A4203D1A96809F001FF08B1B1
S1132B101434F0E7237C3370F1E700BFE8DC0000F5
S1132B2030B5084B1C6814B96FF02D0006E01D7C0D
S1132B30854204D15B680C600020136030BD1433FF
S1132B40F0E700BFE8DC00002DE9F04F87B00F4646
S1132B50002105460093084690469B46134605AA65
S1132B60109E06F0E5FA284609F014FF044638469C
S1132B7009F010FF05994B1C03EB911323441844EF
S1132B80119B984207D9129B6FF0290818604046A0
S1132B9007B0BDE8F08F39B1012005F016FF0446F7
S1132BA018B9DFF8A080F2E70C4643460599CDF842
S1132BB000B005AA204606F0BBFA804618B12046AC
S1132BC005F013FFE3E7284609F0E4FE2946024630
S1132BD0304609F0D1FE284609F0DCFEA14635183E
S1132BE04FF00A0ADDF814B0BBF1000F18D13846D3
S1132BF009F0D0FE39460246284609F0BDFE3846A3
S1132C0009F0C8FE02462B18581C129B05F802B0A6
S1132C10821B1A60119B59469A1A09F0A3FECEE74B
S1132C205A46402A28BF402249462846039209F0C2
S1132C30A3FE039A1544ABEB020005F801AB059023
S1132C409144CFE780EEFFFF0238C0B202289ABF5A
S1132C50024B53F820000020704700BF28DE00001C
S1132C6070B505460E4641B1046834B94B6A9847BD
S1132C70686020B12E60204670BD0248FCE702481F
S1132C80FAE700BF80C1FFFF80C0FFFFF0B58BB043
S1132C9005460E462422002101A809F063FE1DB951
S1132CA0144C20460BB0F0BD2B68002BF8D101A9C1
S1132CB0304608F025FB04460028F1D1BDF8047025
S1132CC001A808F02EFD27F0FF03B3F5E24F0BD067
S1132CD047F201039F4209D1074F7B6A9847686016
S1132CE030B12F600660DCE7044FF6E7044CD8E708
S1132CF0044CD6E780C1FFFF54DE000084DE0000F0
S1132D0080C6FFFF80C0FFFF2DE9F14F1646026821
S1132D10DDF838B0DDE90A78DDE90C9A04460D46A1
S1132D201AB9114801B0BDE8F08F3BB90846FFF766
S1132D305BFE0028F5D007F0C9FE03462268D2F8EE
S1132D4014E0BEF1000F0CD0CDE90DABCDE90B8939
S1132D500A97606832462946F44601B0BDE8F04F50
S1132D6060470248DEE700BF80C1FFFF00C1FFFFEC
S1132D7002230B708830024B4B608860704700BFA1
S1132D8034DE000010F1850F13DA10F1990F25DB02
S1132D909930132822D8DFE800F01C1C1E212121C1
S1132DA0191C192121211521210A172413110E4858
S1132DB07047003818BF0120404270470B487047E5
S1132DC00B4870470B4870470B4870476FF06F0013
S1132DD070470A4870476FF06D0070474FF0FF303E
S1132DE070470748704700BF80C7FFFF80C6FFFFDA
S1132DF080C5FFFF80C0FFFF80C1FFFF00C2FFFF4F
S1132E0000C3FFFF00F19503102B12D8DFE803F095
S1132E100F0D1111111111111111110B11130911B0
S1132E200900064870470648704706487047064838
S1132E307047FFF7A7BF0548704700BF80B0FFFF8A
S1132E4000B1FFFF00B3FFFF00B2FFFF80B1FFFF3F
S1132E502DE9F04FB7B00C46059206462422002116
S1132E600DA81F46DDE9408ADDF8089109F07AFDD6
S1132E700023032C07930ED0042C474C18BF1C4688
S1132E80307809A907F072FE054630B9434E304642
S1132E9037B0BDE8F08F424CF2E7424B7D2216A9D1
S1132EA00BA8CDE90B3600F03BFB0028EED016ABA7
S1132EB0C0F17D001844089030230AAA0DF1D50111
S1132EC008A805F001FE064638B116A87D2100F0D9
S1132ED0DDFB079808F0EFF9D9E702230AAA0DF100
S1132EE0D50108A805F0F0FD06460028EDD1089BA1
S1132EF00A9A134408930AAA04230DF1D50108A8D9
S1132F0005F0E2FD06460028DFD1149ADDF828B06A
S1132F1045F4E24189B21ABBADF834104FF4805144
S1132F20E4B20DA807F018FE44F0062408991194A1
S1132F3007AB5A4608F07CFAC0B1FFF723FF7D21A6
S1132F40044616A800F0A2FB079808F0B4F9064658
S1132F5004BB00289BD037B0BDE8F04FFFF712BF89
S1132F60034602460DA808F0E8FBD7E7CDE901A91E
S1132F70059A0798CDF800803B46214608F0DFFA11
S1132F8010B1FFF73FFFDAE752464946404607F0E3
S1132F90B6FED4E726467AE70900000280C1FFFFA7
S1132FA00800000214DF00002DE9F04FB9B0554FBE
S1132FB003928246242200210BA89846DDE942545C
S1132FC009F0D0FC0FCF14AE0FC60FCF0FC697E891
S1132FD00F004FF0000986E80F009AF80000CDF8C2
S1132FE0149007A907F0C2FDDAF85CB0074620B9CF
S1132FF0454C204639B0BDE8F08F14AACDE9092A22
S113300020AE0DF1DE020692314609AA06A800F0B0
S113301087F9B0F1000AEBDD129B47F4824189B2D3
S11330201BBBADF82C104FF400510BA807F094FD16
S1133030CAF15E014FF0062905AB52463144CDF882
S11330403C9008F0F5F9B0B1FFF79CFE05460598F1
S113305008F031F90446002D52D1002CC9D0204685
S113306039B0BDE8F04FFFF78DBE4B464A460BA87A
S113307008F063FBD7E70BF1070B4FEADB0BBBF15F
S11330802F0F4FEA4B0A37D806952544302308AA58
S1133090294606A805F018FD044618B1059808F05D
S11330A00AF9A6E75B463246294606A807F05CFE05
S11330B004460028F2D15B46F218294606A807F018
S11330C053FE04460028E9D1CDE9006A039A059825
S11330D04346494608F042FA10B1FFF793FEB5E7BC
S11330E0DDE905039D4203D108F0E5F80446B4E7A1
S11330F008F0E1F8054C7CE7059808F0DCF877E780
S11331002C4676E714DF000080C1FFFF00C7FFFFF5
S11331102DE9F04F04468FB08A461546002124223B
S113312005A8DDE91879DDF868801E4609F01AFC67
S1133130206805A908F0E4F820B10FB0BDE8F04F0D
S1133140FFF720BEBDF814B005A82BF0FF0B08F064
S1133150E8FABBF5E24F22D1BAF1030F15D0BAF168
S1133160040F104918BF0021CDE90198C9B2009796
S1133170206833462A4641F0062108F0E0F930B1D0
S11331800FB0BDE8F04FFFF73DBE0749ECE74A46F4
S11331904146384607F0B3FD0FB0BDE8F08F034851
S11331A0FAE700BF090000020800000280C6FFFF22
S11331B00368062B13B50C4602D00A4802B010BDB2
S11331C00DF10701FFF792FC48B923789DF8071029
S11331D00BB18B42F1D12046FFF7C0FBEEE702486A
S11331E0ECE700BF00C3FFFF00C6FFFF30B5154684
S11331F085B00022C3E900229A6001AA1C4605F0AA
S113320043FD18B1A0F56A5005B030BD294601A8A8
S1133210FFF73EFC60B92B78012BF5D12368052B11
S113322000D03BB96268044B002A18BF1846EBE78C
S11332300248E9E70048E7E780C5FFFF80C3FFFFD6
S11332402DE9F04387B0002316468DF8073002AA13
S11332503023054605F038FC28B1A0F57454204607
S113326007B0BDE8F083029B2F681F440DF10702ED
S113327003AB39462846FFF7B9FF04460028EED1D0
S113328002AA3946284605F0EBFC10B1A0F56C54AF
S1133290E5E72B68029A13449F4238D19DF8070052
S11332A0FFF7D2FC0146A0B33046FFF7D9FC044631
S11332B00028D4D19DF80730023B012B25D896E88D
S11332C0030007F0DCFD014603A8FFF771FF044685
S11332D070B996E8030007F0D2FD2A6800F1880966
S11332E0BB1A49468046FEF73DFF044620B12F60D5
S11332F0304607F002FCB2E749464046FEF772FF4B
S11333002F6004460028AAD0F2E7034CF0E7034CF0
S1133310A5E7014CA3E700BF80C3FFFF9AC4FFFFEA
S1133320F0B585B00646002710460C4615460197B1
S113333007F00DFC022817D195E8030002AB83E8DF
S11333400300184607F003FC0238022894BF039ACE
S11333503A462146304607F0A1FD00280EDB019BCA
S113336003440193019809E0284607F0F0FB07287D
S113337016D132686868A24202D20A4805B0F0BD8C
S1133380006801AB121B214608F013F80028F4D1A1
S11333903068019A801A3060214609F0C9FAE1E7E1
S11333A00148EBE780C1FFFF80C6FFFF2DE9F04F26
S11333B082468FB00E462AB96FF06B0420460FB0D8
S11333C0BDE8F08F0A440292024602A8FFF7A8FF64
S11333D0041EF3DB029B9A1B002AEDDD5A1E002714
S11333E0651C0292314603F8017C2A4602A805F0C6
S11333F0B3FCB0F10009C0F286800322314602A872
S113340005F01EFDB0F100087FDB504607F09FFB7E
S11334100228834638D19AE8030005AB83E8030009
S1133420184607F094FB0238022872D8069B3146EE
S11334301A7802A807F055FD041EBFDB274603AA2D
S113344004A95846FFF73EFB04460028B6D1DDE93F
S113345003320097314602A805F07EFD041EADDB61
S11334604D44454425442A46314602A805F074FCDF
S1133470041EA3DB3022314602A805F0E1FC00283B
S113348045DB2544441999E70728D8D13946242235
S113349005A809F067FADAF8043005A9186807F0F6
S11334A02FFF58BBBDF81440BDF8167005A808F0EE
S11334B038F924F0FF03B3F5E24F15D1E4B2122C2E
S11334C01FD1B7F5807F1CD10823134A04923146DB
S11334D00DEB0300039305F024FD041EFFF66EAF0D
S11334E027464FF0020BAAE724F4405444F20103A8
S11334F09C4206D14FF0010B0027A0E76FF06F0448
S11335005CE7064C5AE74C4658E7444656E70446FF
S113351054E73B78FFDE00BFDAD6000080C6FFFF29
S11335202DE9F04F05468FB00C462AB96FF06B07B2
S113353038460FB0BDE8F08F0A44059207F007FB48
S1133540022840F0958095E8030006AE86E8030063
S1133550304607F0FCFA0238022894BFDDF81CB0AC
S11335604FF0000B5A46214605A807F097FC071EAA
S1133570DEDB059A111B0029D8DD511E05917D1C47
S1133580002102F8011C05A82A46214605F0E4FBA7
S1133590071ECDDB0322214605A805F051FC0028B7
S11335A070DB3D4443191A46214605A8029305F0F1
S11335B0D3FBB0F1000A5DDBA122214605A805F08A
S11335C03FFCB0F1000957DB9BF80020214605A819
S11335D007F087FC071EABDB3A46214605A8019796
S11335E005F0BAFBB0F1000848DBA022214605A88B
S11335F005F026FC031E039342DBDBF85850073525
S1133600ED082A4631465846FFF73CF9074630B9DB
S11336102B463246214605A805F00FFD07462946EC
S1133620304600F033F8002F82DB0122214605A842
S113363005F0E0FC002825DB029D019B55444D4428
S11336401D44039B45441D443D4405442A462146EC
S113365005A805F081FB071EFFF66AAF302221465C
S113366005A805F0EDFB00280CDB3D4447195FE796
S1133670054F5DE757465BE74F4659E7474657E72F
S1133680039F55E7074653E780C6FFFF0A4619B173
S1133690024B00211B681847704700BF2C10002004
S11336A00E4B0340B3F1607F06D1B1F5885F14BFC0
S11336B06FF0860000207047B3F1707F0BD101F4E6
S11336C0E043B3F5005F06D111F4E06F0CBF6FF077
S11336D08600002070476FF0860070470000C07FAE
S11336E08A42F8B506460C4600F0DB806F4922F4A6
S11336F0FF7323F001038B420ED06D4B22F0FF01C8
S1133700994209D06B4822F47F7323F00303834268
S113371002D0694B994228D1684B24F0FF019942A9
S11337200FD114F0FF000BD0654B40F000709842AD
S113373040F0B98082EA0400FF288CBF00200120F9
S1133740F8BD5B4B9942ECD0A3F588539942E8D07D
S113375024F4FF7323F00103B3F1062FE1D056489C
S11337608142DED053498B42DBD004F0FE43B3F1F7
S1133770A06F14D102F0FE43B3F1A06F40F0938028
S113378082EA040333F47E1340F08D8014F4004085
S1133790D6D0C4F30540C2F305429042CDE7B3F15D
S11337A0407F6AD102F0FE43B3F1407F7BD182EACD
S11337B0040535F47E1576D131462046FFF770FFB7
S11337C0002870D13F4B12F47C1703EA02031BD08C
S11337D0B3F1607FC2F305473FD13B49D3B243F015
S11337E000738B423DD003F17E43043B0F2B01D881
S11337F03649CD5C14F47C1FC4F3054333D1BD4278
S113380014BF002001209BE7B3F1607F0DD12E4946
S1133810D3B243F000738B421DD003F17E43043BCB
S11338200F2BDAD82A49CF5CD7E7B3F1707FE1D107
S113383006F4E043B3F5005F03D1C6F30223012786
S11338409F4006F4E043B3F5005FD3D1C6F30221F1
S113385001258D40CEE71027BFE7B3F1707FC9D1B2
S1133860EFE71025C6E712F47C1F01D1AB4218D054
S113387022047FF565AFBB425FE7B3F1106F12D14D
S113388024F01F6020F4702068B902F0FE43B3F105
S1133890106F7FF455AF0F48104040F01060A04205
S11338A0AEE701204CE700204AE700BF0002000613
S11338B000130006000400060009000600030006C9
S11338C0FF0000020000C07F0300000244DF00008C
S11338D044DF00000000FFF621F4FF7210B521F070
S11338E0FF031A4C22F00102F8B121F4BF6020F06A
S11338F00700A04212D0164883420FD0A0F52060E2
S113390083420BD0134B9A4208D003F5806399424B
S113391008BF002018BF6FF0860005E0C9B2002977
S113392014BF00206FF0860010BDA242FCD0084AEC
S11339309342F9D021F47F7121F00301A2F5706262
S11339409142F1D002F5A0629342E3E7000200063F
S113395000130006000400062DE9F84388461746C4
S11339601C4600F0C3FD054688BBD8F80060B6F8D5
S1133970009009F4E043B3F5804FF36808BF27F0E3
S1133980010737EA03031AD10CB3254B24F0FF02D5
S11339909A421FD114F0FF0304D0224A43F000736B
S11339A0934232D0316922464846FFF799FE0746D2
S11339B068B9716922464846FFF792FE70BB6FF002
S11339C084050023C8F80030304608F0E8F828469B
S11339D0BDE8F883144B9A42DCD0A3F588539A428D
S11339E0D8D024F4FF7323F00103B3F1062FD1D010
S11339F00E498A42CED00E4A9342CBD004F0FE4305
S1133A00B3F1407F04D12304CCD56FF08605D8E709
S1133A10B3F1A06FF7D0034B9C42C2E73D46D6E713
S1133A2000030006FF000002001300060009000660
S1133A3000040006434213F07F0207D0402AC2F17B
S1133A40000040F0E5806FF09300704710F56E5F62
S1133A5000F0528100F3F58010F5884F00F01081DA
S1133A6000F3948010F5A44F00F040815BDC10F566
S1133A70C44F00F0388148DC10F5C74F00F0968041
S1133A8070DB10F5C64F00F03A8110F5C54F69D1CF
S1133A906FF08600704700F11403142B62D801A262
S1133AA052F823F0913A0000653B0000FF3C00000F
S1133AB0653B0000F33C0000FF3C0000913A00002D
S1133AC0913A0000913A0000653B0000913A0000F1
S1133AD0653B0000813C0000653B0000913A00001A
S1133AE0653B0000913A0000653B0000ED3C00009E
S1133AF0653B0000693B00007230062832D8DFE8DD
S1133B0000F00F315F315531BF0010F5C34F00F0A5
S1133B10F08027DB10F5C24FBAD010F5C14F21D188
S1133B206FF08500704710F59B4F00F0E2801CDCBD
S1133B3010F59E4F00F0A4800DDC10F5A34F00F0AB
S1133B40D8800FDB10F5A14FEAD010F59F4F9FD01E
S1133B5010F5A24F9BE710F59D4FE1D010F59C4F57
S1133B6000F0CD806FF08300704710F5984F00F09F
S1133B70C68006DC10F59A4F3FF465AF10F5994FF7
S1133B8085E710F5894F3FF45EAFEBE710F5824F00
S1133B9000F0A98017DC10F5854F07D009DC10F57B
S1133BA0874F00F0AC8010F5864FDBD16FF09600A4
S1133BB0704710F5844F3FF46BAF10F5834FD1D1AC
S1133BC06FF09200704710F5765F3FF461AF14DC3C
S1133BD010F5785F00F08A80C4DC10F57E5F00F099
S1133BE0888002DC10F5814F51E720F0800010F549
S1133BF07C5F08BF6FF0860071E010F5705F7BD0CA
S1133C00B0DC10F5745F3FF443AF10F5725F86E7E4
S1133C105B061FD510F16B0F35DA10F1720FBFF68A
S1133C206BAF10F5645F6AD026DC10F5685F3FF473
S1133C3077AF1EDC10F56C5F3FF42AAF10F56A5FB6
S1133C406DE710F1400F3FF4FEAE10F13F0FE1DBE2
S1133C50002887DC10F1140FBFF61DAF10F13B0FE5
S1133C602FDA10F13E0FCCBF6FF093006FF083009A
S1133C70704710F5665F52E710F5625F7FF472AF2C
S1133C806FF08900704710F1540F3BD010F1530FBF
S1133C9014DA6A3014283FF665AF0123834040F2FA
S1133CA0545213427FF4F4AE142828D013F0010FB9
S1133CB014BF6FF08C006FF08300704710F1510F48
S1133CC097E732301C283FF64DAF104A012383405A
S1133CD013427FF425AF1C2808BF6FF0890018BF7A
S1133CE06FF0830070476FF0950070476FF091009C
S1133CF070476FF08C0070476FF0840070476FF06E
S1133D00940070476FF08800704700BF01500500B1
S1133D102DE9F04117461C461F4A23F4FF7323F094
S1133D200103934290B005460E460ED01B4B24F07F
S1133D30FF029A4209D01A4924F47F7323F0030343
S1133D408B4202D0174B9A4223D107AB14F0FF00E9
S1133D500DF1200801934FF0200318BF40F00070CC
S1133D600093DDE91612434607F0C0FD70B91A9BB3
S1133D700493199B0393189B0293079B3A46CDE93E
S1133D80008331462346284607F0FEFC10B0BDE808
S1133D90F0816FF08500F9E70002000600130006C9
S1133DA000040006000900062DE9F04117461C46F0
S1133DB01E4A23F4FF7323F0010393428EB0054699
S1133DC00E460ED01A4B24F0FF029A4209D019492C
S1133DD024F47F7323F003038B4202D0164B9A42E0
S1133DE021D105AB14F0FF000DF1180801934FF039
S1133DF0200318BF40F000700093DDE9141243461D
S1133E0007F074FD60B9179B0393169B0293059BFF
S1133E103A46CDE9008331462346284607F0CAFCDA
S1133E200EB0BDE8F0816FF08500F9E700020006EE
S1133E300013000600040006000900062DE9F04303
S1133E400588DDF82C8047F201094D45DDE9076757
S1133E50DDE909CE12D123F4FF7423F0FF02154BE0
S1133E6024F001049C421ED003F588539A4214BFE7
S1133E706FF086006FF08500BDE8F08305F44F45D0
S1133E80B5F5824F0FD123F4FF7424F00104B4F18B
S1133E90062F0BD1CDE90AE8CDE9087C0796BDE8E9
S1133EA0F04300F033B96FF08500E5E76FF086006A
S1133EB0E2E700BF000200062DE9F043058844F262
S1133EC0010825F44059C145DDE90767DDE909CE5C
S1133ED012D123F4FF7423F0FF02144B24F00104E5
S1133EE09C421DD003F588539A4214BF6FF086009C
S1133EF06FF08500BDE8F08305F44F45B5F5824FBA
S1133F000ED123F4FF7424F00104B4F1062F0AD176
S1133F10CDE909CECDE90767BDE8F04300F06CB9FF
S1133F206FF08500E6E76FF08600E3E70002000625
S1133F3037B50C4D2B78DB070C460FD500230193C6
S1133F400A4601AB0146281D04F0D0FC20B9019BB0
S1133F50A34218BF6FF0930003B030BD6FF0880028
S1133F60FAE700BFEC25002008B500F067FA094B1A
S1133F7008481A7812F0060F18BF00224FF00C01FF
S1133F8018BFC3E90122FFF781FBBDE8084007F031
S1133F90F6BB00BFEC25002038B50E4D2B7813F08E
S1133FA0010211D1C5E90122022262F342032B70FE
S1133FB000F038FA044650B907F0DFFB044630B984
S1133FC02B7843F001032B700024204638BDFFF703
S1133FD0CBFFFAE7EC2500202DE9F74300F4E0409D
S1133FE0B0F5804FDDF828800D4616461F462CD1CB
S1133FF001F18809484606F0CCFC88B94346002202
S11340004946CDE900672846FEF756F8FFF712FD4A
S1134010044678B33A460021304608F0A3FC10E089
S113402000230193164B009305F17C0205F128034C
S11340304946284606F005FDFFF7FCFC0446002827
S1134040DCD0204603B0BDE8F083CB6D0733B7EB7B
S1134050D30F4FEAD3020FD331462846FEF712FCA2
S1134060FFF7E8FC04460028D4D1EB6D0733DB08E6
S1134070C8F800300024E4E76FF08904E1E700BFEA
S113408077B500002DE9F041044600881F4600F48E
S11340904F43B3F5824F18BF0020ACB08846154695
S11340A061880022C0B207F04CF80646FDF7F8FF1D
S11340B0246A34BB2EB320B301A806F0EAFB2346DE
S11340C0114A01A9304606F0EDFC044650B101A89E
S11340D006F022FC2046FFF7ADFC044620462CB037
S11340E0BDE8F0812A46414601A8FEF7CBFBFFF765
S11340F0A1FC044601A806F00FFC002CEED13D60A3
S1134100ECE76FF08504E9E777B500002DE9F041AD
S11341108CB01C460023059305AB009313460A4656
S113412041880088149F07F0FEFBF8B9059E06A895
S1134130B56D05F0C8F809A805F0C5F80735159B55
S1134140ED08B3EB450F4FEA450812D206A805F077
S1134150C0F809A805F0BDF8244C304606F0DCFB95
S1134160304604F042FC2046FFF764FC0CB0BDE886
S1134170F08114F4807407D006A805F0AAF809A801
S113418005F0A7F81A4CE8E71A4B0293139B019326
S1134190129B0394009309AA06F17C0306A93046F6
S11341A006F07BFA044630B106A805F092F809A897
S11341B005F08FF8D1E72A46394606A805F0A0F99C
S11341C004460028F0D12A46791909A805F098F97F
S11341D0044606A805F07DF809A805F07AF8002C35
S11341E0BBD1169BC3F80080B7E700BF00B1FFFF47
S11341F080B1FFFF77B500002DE9F0438BB0134683
S11342000022039203AA00920A4641880088DDF83E
S1134210508007F088FB00283DD1039DAA6D04AFB0
S11342200732384607AE4FEAD20905F04CF830465B
S113423005F049F8159BB3EB490F3ED14A46414678
S1134240384605F03CF90446B0B94A4608EB090182
S1134250304605F034F9044670B905F18808404643
S113426006F097FBD0B9CDE90076DDE9121243469A
S1134270284606F022FA0446384605F02AF8304665
S113428005F027F8284606F047FB284604F0ADFB66
S11342902046FFF7CFFB0BB0BDE8F083084B019439
S11342A0009305F17C0205F128034146284606F0F7
S11342B0C8FB04460028D6D0DEE7024CDCE700BF8A
S11342C077B5000000B2FFFFF8B5076806460C4654
S11342D04FBB164B99420CD00133994219D001F0CF
S11342E0FE44B4F1007F14BF6FF086006FF08500C8
S11342F0F8BD051D284604F057FA01212846FCF7AD
S1134300A7FF054658B934602846BDE8F840FFF7D2
S113431091BB051D284604F047FA3946EEE73046BE
S113432007F0D6FBF0E76FF08800E1E70800000231
S11343302DE9F04105781E461D4B45F000759D4260
S113434007468846144605D1326062BB6FF0890087
S1134350BDE8F08105F17E45043D0F2D17D932608B
S113436082B900253B6803F17E43083B012B1CD82E
S11343704146381D04F023FAFFF75CFB0028E7D11F
S11343803560E5E72121404608F0ECFAE9E7094BFE
S113439032605D5D22B122462121404608F0E2FAF6
S11343A0AC42DFD2D2E71025F5E76FF08800CFE703
S11343B00300000254DF000000F100420532042A29
S11343C038B504460D4609D8154B282101FB0233A4
S11343D09A68824215D06FF08B0038BD012107F036
S11343E0CDFBB0B10E48002203468168A14205D03E
S11343F00132052A00F12800F7D1ECE7282101FB5E
S11344000233DA69511C07D00132DA6100202B60D3
S1134410E3E76FF08700E0E76FF09600DDE700BFA9
S1134420F8250020044A92F8C83043F0010382F8CA
S1134430C8300020704700BFF8250020F8B5094CAB
S1134440052526460127E761204606F023FF013DA6
S113445004F12804F7D196F8C83065F3000386F810
S1134460C830F8BDF8250020F8B51E4C94F8C830C3
S11344700646D8070F462BD500252346294618881B
S11344801A46A8B12DB91A791AB1DA69002A08BFF7
S11344901D460131052903F12803F0D115B96FF048
S11344A08C0017E00123EB61284606F0F3FE2A4650
S11344B0D369591C12D00133D361141B0A4BE41085
S11344C05C4304F10044053C346000203A60F8BDCC
S11344D06FF0880000233B603360F8E76FF09600CC
S11344E0F8E700BFF8250020CDCCCCCC0023F0B5F4
S11344F00B60264B93F8C830DC0785B007460D46A1
S113450041D5FFF759FF10F18C0F04461ED12946FF
S113451001A8FFF7A9FF0446C0B92E680123CDE91D
S11345200200B760736003AA02A9304607F003FCD7
S1134530044670B1DDE9020107F0F3FB286806F0D8
S1134540A9FE14F18C0F08BF6FF08704204605B054
S1134550F0BDDDE90212304606F035FE0446DDE921
S1134560020107F0DEFB002CE8D12B68DA68D004E6
S113457044BF42F48062DA60DA689104E6D542F41A
S11345800062DA60E2E76FF08804DFE7F8250020D4
S113459030B4224D2C681C606C685C6000241C7272
S11345A05C729C72DC7254681C73250A5D73250C62
S11345B0240E9D73DC7314881C74240A5C74548860
S11345C09C74240ADC74D4681C75250A5D75250C5A
S11345D0240E9D75DC7514691C76250A5D76250C00
S11345E0240E9D76DC7652691A77140A5C77140CD3
S11345F0120EDA770A0A83F821200A0C83F82220A3
S11346000A0E9C7783F8201083F8232030BC0A46D6
S1134610014603F1240008F0AFB900BF64DF0000D5
S11346202DE9F8432329089E04460F4691469846EF
S113463004D86FF098052846BDE8F8831949082284
S113464008F066F905460028F3D1A368002BF0D1E1
S1134650216AC8F80010243FB942EAD8B1F5005FD6
S1134660E7D271B9C9F80000E3687360238A338024
S1134670638A73806369F360A3693361E369736177
S1134680D9E7012004F0A1F9C9F8000030B1D8F845
S1134690002004F1240108F06FF9E5E76FF08C05C0
S11346A0C9E700BF64DF0000002370B513600A2669
S11346B003681C78303C092C0CD814685D1C7443C6
S11346C0146005601B78303B234401391360EFD13B
S11346D0084670BD0048FCE700DCFFFF38B50368FE
S11346E01546CA1A002A044616DD1A7802F07F021B
S11346F0022A13D15A1C02602A461B7842F8043B52
S113470004F09AF910B1A0F50A5038BD23686A681C
S1134710AB6013442360F8E70148F6E70148F4E787
S113472020DDFFFF1EDDFFFF2DE9F743DFF80081E9
S113473004460F46914631236A463946204604F022
S1134740C3F920B1A0F50E5003B0BDE8F08326688C
S1134750009B4D461E44302301AA3146204604F0F6
S1134760B3F988B1A0F50E500028EDD12368B34207
S113477048D001202877202104F027F9A86108B93E
S11347802748E1E70546E6E7019A2368002A03EB98
S1134790020901DC2348D7E72A461B7842F8043B88
S11347A049460623204604F08FF90028DAD121680F
S11347B06868A9600B18A9EB0302002A2360E9DDED
S11347C00A5C1E2A05D01C2A1AD828FA02F2D2073B
S11347D016D5013323600B5CEB6005F110024946EA
S11347E0204604F029F90028BCD123682A696B61AA
S11347F013449945236001D1A861B7E70A48A3E7A8
S11348000A48A1E7BE4208D02021012004F0DDF8C7
S11348108146A86100288ED1B2E7002094E700BF4A
S113482080D7FFFF20DCFFFF1ADCFFFF1EDCFFFF49
S1134830081058100368F7B51446CA1A002A05462A
S113484040F3A0801A78172A0ED0182A40F09C80D2
S1134850042701332B6001AA284604F0EDF828B19F
S1134860A0F5105003B0F0BD0227F2E7019E07F156
S113487008039E427ED3224639462846FFF714FF9A
S11348800028EFD1022F08D12368312BDCBF643319
S11348902360236803F26C732360221D02212846DF
S11348A0FFF702FF0028DDD104F1080202212846A7
S11348B0FFF7FAFE0028D5D104F10C0202212846A4
S11348C0FFF7F2FE0028CDD104F1100202212846A0
S11348D0FFF7EAFE0028C5D1F61BA6F10803012B59
S11348E048D904F1140202212846FFF7DDFE00280E
S11348F0B8D10B2EA6F10A033AD12B681A785A2A9A
S113490038D101332B60236842F20F72934231D8BD
S1134910E268172A2ED822693B2A2BD862693B2ADF
S113492028D861680C2925D801228A4041F2AA5569
S11349302A4221D112F4256F20D102291AD19A07D3
S113494005D1642193FBF1F201FB1232C2B94FF499
S1134950C87293FBF2F102FB1133002B14BF1C232A
S11349601D23A268002A05DD9A427FF77BAF01E090
S1134970002BC8D0054875E71F23F2E71E23F0E794
S11349801D23EEE702486DE702486BE700DCFFFFFA
S1134990A0DBFFFF9EDBFFFF73B5154602688B1A91
S11349A0002B044610DD167801AA04F059F918B159
S11349B0A0F5125002B070BD2368019AAB60134495
S11349C02E606A602360F5E70048F3E720DBFFFF11
S11349D010B50C4611461A46029B1B687BB906F0BB
S11349E078F810B1A0F5185010BD2368052B00D03D
S11349F03BB96268044B002A18BF1846F4E7034821
S1134A00F2E70148F0E700BF00DDFFFF00D8FFFF39
S1134A1073B543F0A006144633460432054604F049
S1134A2053F818B1A0F5145002B070BD2968A16004
S1134A30266064680C44302301AA2146284604F009
S1134A4043F80028EED1019A2B681344024A9C4291
S1134A5018BF1046E8E700BF9ADAFFFF2DE9F04FD0
S1134A608146C3B008460E4607F094FF02AD06EB3C
S1134A7000080027484604F061F934460122BB4689
S1134A80AA46444501D9002009E02378E2B13D2B30
S1134A904FD12A4FA51B386820B9A0F5045043B064
S1134AA0BDE8F08F7B689D4204D12A46314607F069
S1134AB01DFF08B11037EEE7D7F808B0661C55465D
S1134AC044451CD023460BE05C2B16D1444516D03C
S1134AD0631C984501D11A48E1E762782C2AFAD17F
S1134AE05A1C964207D01A7805F8012BA5EB0A0246
S1134AF0B2F5807FEFD000221CE02C2BE0D1584689
S1134B0007F048FFA5EB0A030246009359465346B3
S1134B10484604F0ADFA78B1FB68C36023464345C8
S1134B2004F10104264602D05A78202AF6D0012244
S1134B3000E023465C1CA4E70248B0E784DF0000E1
S1134B4080DCFFFF80D7FFFF70B5036803F0DF034D
S1134B50802B8CB006460C4603D0822B6FD03F4886
S1134B6034E08568436802951D4401AA062329465A
S1134B7002A803F0A9FFB8B1A0F5145030BB282255
S1134B802046002107F0EEFE043403AA0BAD1346C1
S1134B9003CBAB42206061601A4604F10804F6D1ED
S1134BA018682060002011E0DDE90126082AD6D12A
S1134BB02B48314607F0ACFE0028D0D10836B54268
S1134BC006D803A82421FEF761FD26480CB070BD69
S1134BD0A02301AA294602A8029603F075FF002823
S1134BE0CAD1302301AA294602A803F06DFF002888
S1134BF0C2D1062301AA294602A803F065FF0028B2
S1134C00BAD10623019A0693029B089313449D424A
S1134C100792D6D9029304230DEB0302294602A876
S1134C2003F052FF0028A7D10423019A0993029BA1
S1134C300B9313449D420A920293A0D0C1E70D1D29
S1134C4024220021284607F08DFE022323603368C6
S1134C5063607368A360B368E360A3E780DFFFFF6A
S1134C6054E100009ADAFFFF2DE9F04FA7B00C469B
S1134C7017461E460390002800F0EF83002900F039
S1134C80EC8305464FF00009EB69A3B1D5F8503128
S1134C904BB94FF4AA71012003F097FEC5F85001F7
S1134CA020B9AA4C63E0A9461D46EDE707F0B4F924
S1134CB0A946D5F850510023CDE91033CDE912337C
S1134CC0CDE91433CDE9163318934DB9B9F1000F7A
S1134CD001D0C9F850519E4C284603F086FE46E0A8
S1134CE0302309AAE1190AA8CDE9097403F0ECFEFE
S1134CF068B1284607F095F9964CB9F1000F02D037
S1134D000023C9F85031039BAB42E5D12FE0DDE924
S1134D10093202EB030BABEB0401A9605EB3012083
S1134D2003F053FE0A90E860002800F09483AA6818
S1134D30214607F021FE0123AA682B60099B0A99EA
S1134D40D31A0B440A9301EB020B0A9BAB6109AA29
S1134D50302359460AA803F0B7FE044670B128462A
S1134D60A4F5065407F05DF9002CC6D100242046B2
S1134D7027B0BDE8F08FEC602E60E6E7DDE9093787
S1134D801F44AB69FB1A6B611CAAA02339460AA80D
S1134D9003F09AFE08B310F1620F1AD1EC6105F129
S1134DA0200239460AA8FFF799FC044630BB05F1F6
S1134DB02C0610AB324639460AA807F011F804460F
S1134DC0E0B9EB69022B1DD9284607F02AF9624C99
S1134DD093E7A0F506548CB9E1E70A9E1C9B1E4498
S1134DE005F11C0231460AA803F0CEFE10B1A0F56D
S1134DF00854F0E70A9B9E42D1D0584C284607F04D
S1134E0010F97AE70133EB6105F5A673009305F514
S1134E10A47205F2491310A93046FFF7D9FD0446E0
S1134E200028EBD10A9B2B6409AA302339460AA82F
S1134E3003F04AFE0446002891D1DDE9093105F169
S1134E40500219440AA8FFF76FFC04460028D5D184
S1134E502A6C0A9B9B1AEB631CAA302339460AA8C6
S1134E6003F032FE002855D0B0F51054C6D10A9B89
S1134E70EB6409AA302339460AA803F025FE044648
S1134E8000287FF46CAFDDE9093143B105F170020C
S1134E9019440AA8FFF748FC04460028AED10A9A30
S1134EA0EB6CC5F8C820D31AAB6405F1CC023946C3
S1134EB00AA8FEF7C5F9044600289FD10A9BD5F835
S1134EC0C8209A1AC5F8C420EA69023A012A04D80B
S1134ED09F4247D10A9B9F4263D1EB690A9A032BF5
S1134EE040F08C80974200F0818205F1EC02394653
S1134EF00AA8FFF78DFD044600287FF47FAFD5E9AB
S1134F003C32D318049302900A9B049A9A4263D8C1
S1134F1074D089E10A9E1C9B1E4405F1900231461F
S1134F200AA8FFF787FC044600287FF467AF05F161
S1134F30A80231460AA8FFF77DFC044600287FF446
S1134F405DAF0A9B9E4292D0054C57E780D7FFFF86
S1134F5000D8FFFF80DEFFFF80DAFFFF9ADDFFFF4E
S1134F609ADBFFFF1B78C5F8D43005F1D802A123E2
S1134F7039460AA803F0A8FD58B110F1620F03D016
S1134F80B0F506547FF43AAFEB69023B012BA1D98B
S1134F90A3E70A9BD5F8D820C5F8DC3013440A935C
S1134FA0F2E71B78C5F8E03005F1E402A2233946A4
S1134FB00AA803F089FD38B110F1620F8DD0B0F565
S1134FC006547FF41BAF88E70A9BD5F8E420C5F8A4
S1134FD0E83013440A9380E7029B1B93CDE919330D
S1134FE0CDE90C33049930230BAA0AA803F06CFD15
S1134FF068B1A0F51454002C7FF400AF0A9B9F42C3
S113500000F0F481284607F00CF89F4C75E6DDE9C2
S11350100A2302EB0308414606231AAA0AA803F04E
S113502053FD0028E5D106231A9A19930A9B1B9372
S1135030414613440AA80CAA0A9303F08DFD10B14B
S113504010F1620FD5D104230BAA41460AA803F03C
S11350503BFD0028CDD10A9B0B9E05931E44B04511
S113506040F0E2800DA919A8FDF7E2FCC8B1309A1E
S11350700C9B7AB10A9A0092DDE93040019619AA94
S11350802946A047044618B10C9B002B7FF4B6AE0A
S11350900A9639E7CDF82880002B3FF435AF7B4CD6
S11350A0ACE6D5F818110D9B11EA030240F0D78144
S11350B01943B3F5807FC5F8181125D00BDC082BF4
S11350C000F00781202B00F09780042B60D00C9B0C
S11350D0002BDDD020E1B3F5006F7DD0B3F5803F28
S11350E0F5D11C928DF874201E9241461CAA0AA880
S11350F003F04EFD002855D11C9B012B7AD11E9B39
S11351001B7885F83831FFE6C5E9472230231CAA0D
S113511041460AA803F0D8FC28B1A0F51454002C89
S11351203FF4F2AE6AE60A9B9E423FF4EDAE05F50B
S11351308E78424631460AA803F00EFD78B110F18C
S1135140620FEAD1424631460AA803F01DFD002849
S1135150E3D1D5F81C3113B10123C5F81C310A9BE6
S11351609E423FF4D1AE05F5907231460AA803F091
S11351700BFD0028D1D10A9B9E4255D1D5F8203190
S11351806FF00042934235D00133C5F82031BBE6BD
S11351901C928DF874201E9241461CAA0AA803F0A2
S11351A0F7FC20B1B0F514543FF4AEAE26E61C98DB
S11351B000B300231E9CC5F82431E15CDA00914061
S11351C0D5F8242101330A439842C5F824213FF439
S11351D09BAE042BF1D197E6062305F59472414664
S11351E00AA8FCF769FD0028DCD1D5F83031002B82
S11351F07FF48AAE264C01E630230EAA41460AA863
S113520003F062FC002888D10A9B0E9A13449E4244
S11352100AD105F1F80A0A9CA64207D84FF0000308
S1135220CAF80C303FF470AE1A4CE7E5282200218E
S11352301CA807F097FB14F8018B0A940FAA3146B7
S11352400AA803F0F9FB00287FF467AF08F0C00355
S1135250802B7FF424AF1CA95046FFF775FC04464D
S1135260D0B110F5025F17D0D5F8046116B9C5F8AE
S11352700461C3E53046F7681021FEF707FA3046AB
S113528003F0B3FB3E46F1E71ADEFFFF9EDAFFFFB1
S11352909CDAFFFF9ADAFFFFDAF8083073B1DAF824
S11352A00C30002B40F0DB801021012003F08DFB3B
S11352B0CAF80C00002800F0D48082460A9B0F9A9A
S11352C0CAF808301344CAF80080CAF804200A93C4
S11352D0A1E730231CAA31460AA803F0F5FB0446D3
S11352E0E0B1A0F51454002C3FF40EAE14F5025FA7
S11352F07FF484AD309A0C9B5AB1059A0092DDE993
S11353003040019619AA2946A04700283FF4FCAD75
S11353100C9B002B3FF4F8AD534C6FE51C9A0A9B91
S11353201344984580D1002A3FF47EAF05F5847874
S11353300A9B9E4205D84FF00003C8F80C30D2D027
S113534072E730231CAA31460AA803F0BDFB10B152
S1135350A0F51454C7E70A9A1C9B02EB030A5146B2
S113536006231CAA0AA803F0AFFB0028F0D11C9A5C
S11353700A9B0693042A37D119463C48079207F042
S1135380C7FA394B079A002818BF1C46D8F80830CA
S113539073B1D8F80C300792002B60D11021012092
S11353A003F013FBC8F80C0000285AD0079A804673
S11353B00623C8F80030069BC8E901230A9B1C9AFF
S11353C013449A450A930BD930231CAA51460AA8C0
S11353D003F07AFB0028BBD10A9B1C9A13440A935E
S11353E00A9B9A45A4D01FE71F4CCFE713AB16AA1C
S11353F059460AA806F0F4FC044600287FF4FEACE3
S11354002A6B179B9A4212D11899686B07F080FA9D
S113541068B9109A139B9A4209D1119A149B9A4223
S113542005D14AB11599129807F072FA20B12846AD
S113543006F0F7FD0E4C60E405F59E7259460AA885
S1135440FFF7AAFA044600287FF4D8AC0A9B9B45D0
S11354503FF48CACD6E5074C4FE4074C87E4074C8B
S1135460CCE4074CCAE400BF80DFFFFF62E1000028
S113547080D9FFFF80D7FFFF00D8FFFF00DBFFFFCD
S113548096DAFFFF2DE9F04FA1B007460D46012043
S11354904FF400711446099303F097FA80460028EC
S11354A000F0228100230B933B7A032B00F0078149
S11354B0042B8E4B18BF00230893FA682B19294636
S11354C00CA807930C9306F03DFD041EC0F2F08077
S11354D000F0F780224629460CA803F03DFCA146C3
S11354E0041EC0F2E580302229460DEB020003F0D1
S11354F0A7FC061EC0F2EF80A1444E443246294662
S11355000CA803F029FC041EC0F2D28031222946E3
S11355100CA803F095FCB0F10009C0F2D880744ADD
S1135520092329460CA803F0FCFC0028C0F2D18012
S113553026444E4400EB06094A4629460CA803F0CB
S11355400BFC041EC0F2B480302229460DEB02008D
S113555003F076FC061EC0F2BE80A1444E443246DF
S113556029460CA803F0F8FBB0F1000AC0F2AD80A4
S1135570A02229460CA803F063FCB0F10009C0F294
S1135580A6800C9A3868521B2946FDF70FFF041EAB
S1135590C0F28E800C9B7A681B1B29460CA80C93C6
S11355A006F025FCA346041EC0F282800022294690
S11355B00CA803F01FFD0028C0F28B8056444E4413
S11355C05E44264400EB06094A4629460CA803F02B
S11355D0C3FB041E6CDB302229460DEB020003F0F2
S11355E02FFC061E77DB0FABA14401934E444023EE
S11355F000930C9908986B44324605F08DFF0346DE
S113560000286AD12A9A0492099A03920EAA029255
S11356104FF40072CDE9008210AA397A386805F097
S113562084FA0446002843D13868012105F074FA4D
S1135630002848D13868042105F06EFA00284FD0BC
S11356400420397A0BAB0AAAFDF70CFA044678BB9E
S11356500C993246284607F06BF9079B0D930E9B75
S1135660A919CDE900830DA8DDE90A2306F025FC7C
S1135670041E1DDB0D983246801B294626440D90DE
S113568007F056F9324629460DA803F065FB041EBF
S11356900EDB302229460DA803F0D2FB071E21DBC6
S11356A00D9A0021521B284607F05CF934443C440F
S11356B0404603F09AF9204621B0BDE8F08F0D4B27
S11356C0FAE626464BE70120BBE75446F0E74C4692
S11356D0EEE70446ECE73446EAE76FF06F04E7E7E9
S11356E0054CE5E73C46E3E7044CE4E70900000227
S11356F067E100000800000200DDFFFF80D7FFFF24
S113570070B586B0002605960A9E00960C4615468E
S1135710FFF7B8FE00280ADB2A1A05ABCDE90153CE
S113572004490094034622440348FDF70DFA06B0E9
S113573070BD00BF71E1000094E1000008B5124B98
S1135740A8220021184607F00DF90322034602613E
S113575042610E480E4A98614FF48061DA6100227A
S113576019629A625A62DA6218660A485866996639
S113577009491A67DA665A6711F8010D985401321B
S1135780102AF9D108BD00BF00240020B9E10000AF
S113579000200020001C0020D2E100002DE9F84F79
S11357A0DFF87C8098F800308246894616460BB9AB
S11357B0FFF7C4FF182707FB0A873D6FD7F86CB0C3
S11357C05D452BD9BC6E796E641BB44228BF344648
S11357D029444846224607F0CFF8BB6E2544A1442D
S11357E0361BAB4208BF0025ABEB050B5E4528BF5B
S11357F05E4656B1182303FB0A833246596E484667
S1135800294407F0B9F83444354424B1182303FB80
S11358100A88C8F870502046BDE8F88F0024E3E7F2
S113582000240020F8B5144B182700FB07751D440D
S113583007FB00330E46DB6A012B14460AD0022B09
S113584014D023B9284606F07CFC844208D90024ED
S11358502046F8BD284606F074FC844228BF04465E
S113586022463146284606F075FCF1E72846BDE895
S1135870F84006F08ABC00BF00240020F8B50B4BAA
S11358801B7804460D4616460BB9FFF757FFEFF396
S113589011874FF0200181F31188324629462046B2
S11358A0FFF7C0FF87F31188F8BD00BF0024002074
S11358B02DE9F041154C1E462378054688461746C7
S11358C00BB9FFF73BFF022D1DD8EFF3118C4FF0FE
S11358D0200181F3118865B1182005FB0003E2184B
S11358E044F80380576000FB05420023166293626C
S11358F05362182303FB0544069BE3628CF311886F
S11359000020BDE8F0814FF0FF30FAE700240020CA
S11359102DE9F843144E1F463378054689469046D0
S11359200BB9FFF70BFF022D1BD8EFF311824FF0D9
S1135930200181F3118855B1182404FB0564002368
S1135940C4F86090C4F86480A7662367E3661823EC
S113595003FB0566089B736782F311880020BDE88A
S1135960F8834FF0FF30FAE7002400200138C0B27A
S113597003289ABF024B53F820000248704700BF27
S1135980D4E10000481900207FB50646FFF7EEFF7A
S113599003689B6805469847044620B92B68284647
S11359A0DB68984704460E4B00930E4B01934FF46B
S11359B00062002331466846CDE9022306F0F0FD7B
S11359C02146684606F089FE24B92B6869461B699E
S11359D0284698470399019800F054FC04B070BD20
S11359E0ECE100005A2E00201FB50C4B00930C4B29
S11359F001934FF4006200230C4601466846CDE94A
S1135A00022306F0CDFD2146684606F066FE0399A2
S1135A10019800F037FC04B010BD00BFECE10000B9
S1135A205A2E002010B5124C86B0002301AA4FF460
S1135A30006120468DF80330019300F02BFC88B9F7
S1135A40019B7BB10B4ACDE904300DF1030102A89F
S1135A50CDE9022406F0BEFD01469DF8030019B10C
S1135A60FFF7C2FF06B010BD02A9FFF78DFFF9E7EB
S1135A705A2E0020ECE1000010B50E4C0E490F48E0
S1135A80224606F0EAFE22460D490E4806F0E5FEDF
S1135A9022460D490D4806F0E0FE22460C490D4809
S1135AA006F0DBFE22460C490C48BDE8104006F027
S1135AB0D4BE00BF00100020FDC100004819002022
S1135AC0FFC100003C19002001C20000A8140020FE
S1135AD003C200009010002005C200003010002016
S1135AE008B5D0E901301844034BA0F500601860F4
S1135AF006F092FE002008BDC426002010B5064B17
S1135B000C462046196806F0BCFD20464FF400619F
S1135B10BDE8104006F0B5BDC426002070B50026CF
S1135B20ADF5027D05460C464FF4FE72314603A8DE
S1135B30029606F017FF291D2046019606F0D4FDB3
S1135B40002840F0EB806968894800F079FA002861
S1135B5040F0E48001AB4FF4007202A9204606F045
S1135B600AFE002840F0DA80019A002A40F0CF8033
S1135B7005F10801204606F0B7FD002840F0CE806C
S1135B80A9687C4800F05CFA002840F0C78001ABAB
S1135B904FF4007202A9204606F0EDFD002840F003
S1135BA0BD80019A002A40F0BC8001AB4FF4007222
S1135BB002A9204606F0DFFD002840F0AF80019ADC
S1135BC0002A40F0B68001AB4FF4007202A92046CF
S1135BD006F0D1FD002840F0A180019A002A40F08F
S1135BE0B08001AB4FF4007202A9204606F0C3FD59
S1135BF0002840F09380019A002A40F0AA8001AB6B
S1135C004FF4007202A9204606F0B5FD002840F0CA
S1135C108580019B1BB902220192ADF80830019ADC
S1135C20554802A900F026FA002877D101AB4FF4B9
S1135C30007202A9204606F09EFD00286ED1019B49
S1135C401BB9012201928DF80830019A4B4802A930
S1135C5000F010FA002861D101AB4FF4007202A9E0
S1135C60204606F088FD002858D1019A002A78D1F0
S1135C7005F12C03102205F11C01204606F07BFDE2
S1135C8000284BD105F11401204606F02DFD002813
S1135C9044D105F11801204606F026FD00283DD127
S1135CA005F10C01204606F0D0FC002836D101ABEA
S1135CB04FF4007202A9204606F05DFD70BB019A04
S1135CC02F4802A900F0D6F940BB01AB4FF4007293
S1135CD002A9204606F04FFD00BB019A294802A9FB
