:020000041000EA
:1000000000000208070500100D000000690500103F
:1000100000000000000000000000000000000000E0
:100020000000000000000000000000006505001056
:1000300000000000000000006505001065050010CC
:1000400065050010650500106505001065050010C8
:1000500065050010650500106505001065050010B8
:1000600065050010650500106505001065050010A8
:100070006505001065050010650500106505001098
:1000800010B5064C2378002B07D1054B002B02D06E
:10009000044800E000BF0123237010BD740700086E
:1000A00000000000DCF60010044B10B5002B03D05C
:1000B0000349044800E000BF10BDC0460000000036
:1000C00078070008DCF6001010B500F07DF800F0AD
:1000D00007F800F069F800F01FF800F029F810BDEB
:1000E00010B50021012007F059F94D22002101200F
:1000F00007F092F80021012007F00EF900210020FE
:1001000007F04CF900220021002007F085F80021BB
:10011000002007F001F910BD10B5002200212F20AA
:1001200007F0C0F800220121052007F0BBF810BD40
:1001300010B5134C134A0021200004F0AFFD124A01
:100140000121200004F0AAFD104C114A00212000DA
:1001500004F0A4FD0F4A0121200004F09FFD0E4C85
:100160000E4A0421200004F099FD0D4A06212000CA
:1001700004F094FD0B4A0721200004F08FFD10BD10
:1001800000003140FCDF001030E000108002314000
:1001900094DF0010C8DF00100003314060DF001062
:1001A0002CDF0010F8DE0010034B332203495A50B5
:1001B00003495A507047C0460000304008200000F4
:1001C00010200000FEE7000030B583B0962100202B
:1001D00008F048F808F00CF800281BD1774AFF23F4
:1001E0001B02D4583F231C4007F0F2FF002806D022
:1001F000012007F0DBFF714B9B6C002B25DB6F4A66
:10020000FF231B02D45007F07BFA07F06DFA0120A0
:1002100007F08EFA012008F005FD08F0A1FC08F0B7
:1002200087FD08F06FFD0021002007F0FFF9002096
:1002300007F086F9012007F067F9002007F0E2F8DF
:100240005F4B1A683F23D45C06E00620FFF7BAFF35
:10025000200007F0BBFC013C002CF9D1002101205B
:1002600007F09EFA002007F0CFF9002800D189E0BE
:1002700007F054FB0021002007F092FA0021002033
:1002800007F0A4F94F4C002500950023002200211F
:10029000200004F055FC00950023002201212000DD
:1002A00004F04EFC484807F0FFF9002800D075E044
:1002B000012007F017F9002007F042F9012007F0AC
:1002C00023F9002007F09EF80021012007F068FACA
:1002D0000021002007F064FA0021022007F060FAF4
:1002E0000021032007F05CFA0021042007F058FAEF
:1002F0000021052007F054FA344807F02DFB0028B0
:100300004FD1334807F0F6FB00284DD101210020E2
:1003100007F05CF90021002007F088F92D49012041
:1003200007F07AFC002842D12B49012007F00AFD92
:1003300000283FD10021022007F048F901210220C6
:1003400007F074F9022007F00DF907F0BFF800205C
:1003500007F088F8002007F09DF807F0ABF80020C0
:1003600008F0F4FC012007F06BF807F0BDF901205C
:1003700007F0DEF99021002007F074FF00F01AF971
:1003800003B030BD07F03AFA1223FF33984200D091
:100390006EE70121002007F019F969E70520FFF752
:1003A00011FF0420FFF70EFF0420FFF70BFF0320CF
:1003B000FFF708FF0320FFF705FFC04600002740B6
:1003C000D45F01080000314040420F00C0E100103E
:1003D000400D0300D4E100101027000010B503F019
:1003E00059F9054C200004F055FB200004F052FBA5
:1003F000012002F04FFE10BD8002314010B584682C
:1004000003681B89E418094B1B68DB68382201214B
:1004100007480AF0B5F80A21064803F01DF9FFF76E
:10042000DDFF200000F082F910BDC046EC0100089D
:10043000DCE100100000654010B584B0FFF744FE19
:1004400062B6E120400203F0E9F8264C2368DB683D
:100450001022012124480AF093F82368DB68222245
:10046000012122480AF08CF8012002F0C1FD041E8F
:100470000DD11C4B1B68DB682E2201211C480AF0A1
:100480007FF8002C0BD0002008F032FAFBE7154B68
:100490001B68D8682200174909F0FEFFF1E701A8A0
:1004A00000F086FF00280FD10E4B1B68DB682F225F
:1004B000012111480AF064F8FA20000102F0BAFFA5
:1004C00001A8FFF79BFFDEE7064B1B68DB683222C3
:1004D00001210A480AF054F80A21094803F0BCF83F
:1004E000D1E7C046EC01000818E200102CE2001031
:1004F00050E2001080E20010C4E20010F4E20010AC
:10050000000065407047FFF7FDFF72B60F4C104DBD
:10051000AC4209DA21686268A368043B02DBC85870
:10052000D050FAE70C34F3E70A490B4A0020521A7C
:1005300002DD043A8850FCDC084809490860BFF332
:100540004F8F00F075F8FFF777FFFEE7E8F6001031
:1005500000F70010740700087C6001080000000824
:1005600008ED00E0FEE7FEE700B504207146084212
:1005700002D0EFF3098001E0EFF30880043007F0C8
:1005800059FEFEE7000000000230800803D0013071
:100590000238FCD1C046C0467047EFF3108072B6F7
:1005A000704780F31088704710B5002004F0C2FD3A
:1005B00010BD704710B5002007F0EAFC041E00D102
:1005C00010BD144B186006F0AFFF411C200008F06E
:1005D00035FC0400104B186006F026FF411C20007B
:1005E00008F02CFC04000D4B1860013C0C49200065
:1005F00008F024FC01300B4B1870FA218900200010
:1006000008F01CFC0130084B1860C003074B186051
:10061000D6E7C04684000008880000088000000873
:1006200040420F0094000008900000088C00000871
:1006300010B5234803F036F8224CB022D200A3585C
:100640005B005B08A350E02189006358302083439E
:10065000635080235B04A3501B4B1C4AE2500433BD
:10066000A0229201E2501A4BFF22E25008F098FBC0
:10067000C0225200A35801218B43A350FFF799FFDA
:10068000FFF798FF134B1B68BA20195ACA00521A79
:10069000196A8C4662440021D1601A6A185AC30054
:1006A0001B1AD31859600C4A8031032004F09AFDBC
:1006B0000A4804F0F3FB0A4804F048FC10BDC046A9
:1006C000F8ED001000002640840500000100020043
:1006D0008C050000D45F010820070008900700087F
:1006E00028E30010034A90235B01D35803201840ED
:1006F0007047C0460000204010B5FFF74EFF084C81
:10070000902149016358074A1A40074B134363502D
:10071000034B5B68DB06FBD5FFF743FF10BDC0460C
:1007200000002040FCFF00000100FA0570B5040045
:10073000830500D001BEFFF730FF0500FFF7D2FFB1
:10074000032813D00B4B802292009C509020400134
:100750001A5809491140094A0A431A50054B5B6867
:10076000DB06FBD52800FFF71CFF70BDFFF7C4FFB9
:10077000E8E7C04600002040FCFF00000300FA0547
:1007800000B583B0130001AA1370012301F055FADC
:1007900003B000BD10B509F00DFF10BD04280AD04C
:1007A000052804D101394B1E994108007047401AB1
:1007B00043425841FAE70120F8E710B582B00C0037
:1007C000C0B201A901F07EFF002803D0012420005F
:1007D00002B010BD2100019801F094FA04000198C4
:1007E00001F084FFF3E710B5040001F015FA0100F1
:1007F00001222000FFF7C4FF10BD10B5040001F076
:1008000007FA010001222000FFF7BAFF10BD000027
:1008100030B583B004000E2A10D80E2915D8120165
:100820000A436B46DD1DDA7101F0FBF9010001237B
:100830002A00200001F001FA03B030BD9C21064BD4
:10084000064A8900064809F009FE9C21054B034A27
:100850008900034809F002FE5CE30010CCE40010BC
:1008600070E30010B8E3001010B582B004000191ED
:1008700001F0DCF90100042301AA200001F0DDF9F8
:1008800002B010BD30B589B006A90120FFF795FF71
:10089000002800D08CE004A90230FFF78EFF04008E
:1008A000444B1B68D86806AB1B78012B28D0032B60
:1008B00024D0414B06AA51789578D27802920195BE
:1008C00000913E4A3E4909F0E7FD3A4B1B68D86863
:1008D00004AB1B78012B17D0032B13D0364B04AA83
:1008E00051789578D278029201950091354A344931
:1008F00009F0D2FD002C11D0FF2057E0324BD9E790
:10090000324BD7E7304BEAE7304BE8E72B79042B43
:1009100028D006AA9278934224D00134022C3CD8E5
:1009200063001B195B002A4AD51806A90978D05C18
:10093000FFF734FF0028F0D004AB19786878FFF790
:100940002DFF0028E9D0AB78042B03D006AAD2787B
:100950009342E2D1EB78042BD8D004AAD278934208
:10096000DBD1D3E7134B1B68D8686B79022B07D018
:10097000032B10D0042B01D0164A02E0164A00E0E7
:10098000164A174909F088FD6879831EDBB2022BED
:100990000CD9FF200AE0134AF3E7064B1B68DB681B
:1009A00017220121104809F0EBFD012009B030BDEC
:1009B000FF20FBE7EC010008CCE300100CE4001082
:1009C00030E4001074E40010D8E30010D0E300100D
:1009D000F4E40010F0E3001004E40010E0E3001081
:1009E0009CE40010E8E30010B4E4001070B50500CA
:1009F000002915D001235B422878584004090F22B2
:100A00001040094E80008359634018091A40920033
:100A100093594340013901350029EDD1D84370BDC8
:100A200001235B42FAE7C04608E50010F0B5CE4668
:100A3000474680B5A7B0140099462E9F2F9B984635
:100A4000684602F0B9FC0021684602F0BAFC319B0E
:100A5000002B02D0329B002B07DC2389E2689446EE
:100A600063446689F618002513E01A003199684638
:100A700002F0B5FCF1E723003A002900484601F0F6
:100A800037FE002811D122003900684602F0A7FC89
:100A90002D19B54204D2741B4445ECD94446EAE70B
:100AA0003099684602F0A7FC002027B0C0BCB946C8
:100AB000B046F0BDF0B59FB017001D002C4B1E686E
:100AC000279B0493269B039306AB0293259B0193DC
:100AD000249B00932B00FFF7A9FF041E3DD1289B08
:100AE000002B04D0202206A9180009F071FD002374
:100AF0000093204B2A00390016A801F00FFD041EB8
:100B00002BD11CAB72226A441DA916A801F07CFDF2
:100B1000002821DB1CDC1CA909881029F1D17223D3
:100B20006B441B88202B20D10EAA1D99280001F0B0
:100B3000DFFD071E17D120220EA906A8FFF72AFE07
:100B400006000D4B1B6801248342DAD03C0004E010
:100B500063425C41E4B200E00400002C00D13400A8
:100B600020001FB0F0BD0400F7E701246442F7E75E
:100B700098000008FFFF00001009000810B50B4B9B
:100B800002689A420FD1C2680389D843824202D8D0
:100B9000D418012000E00020002805D08B68A34273
:100BA00002D8002000E0002010BDC0463DB8F396FA
:100BB000F0B585B005000C000192002001F098FE10
:100BC000C0B203A901F07EFD002806D001270398DA
:100BD00001F08CFD380005B0F0BD2C236343EB1809
:100BE0001A89DE689619042302AA3100039801F0DD
:100BF0007FFD071E26D12C214C432D196C8902AB99
:100C00001A88134B9A420DD0002C1DD102AB1A88C2
:100C1000104B9A421AD1331902AA52889B18019A92
:100C20001360D4E702AB59888C4201D00327CEE78A
:100C30008919042302AA039801F05AFD0028E5D07F
:100C40000127C4E70127C2E70327C0E70327BEE760
:100C5000086900000769000010B582B004000800B0
:100C6000E02212010192012906D002290FD00729A2
:100C700010D1E26D603401E0626A283401A901F00C
:100C800085FE002801D1019B236002B010BD226DBA
:100C90005434F3E70120F8E710B5006A01F018FEBC
:100CA00010BD70B504000121FFF7D6FF002802D067
:100CB0000125280070BD02212000FFF7CDFF00288C
:100CC00001D00125F5E707212000FFF7C5FF051E2C
:100CD00001D00125EDE72000FFF7DEFFA066E8E781
:100CE000F0B583B004000F00002001F001FEC0B297
:100CF00001A901F0E7FC061E1AD1019801F008FED7
:100D00000500019801F0F2FC2C21794361180023C1
:100D1000032B05D8CA5C954208D10133DBB2F7E753
:100D20000123002B07D0300003B0F0BD0023F8E70B
:100D300001267642F7E701267642F4E700B587B050
:100D4000130000220492039202920132FF320192B8
:100D5000044A00920A0000210020FFF7ABFE07B012
:100D600000BDC046805D0108F0B585B005000C00EF
:100D70000192244B1F68002001F0BAFDC0B203A904
:100D800001F0A0FC002802D0380005B0F0BD2C30E6
:100D900060432E1821002800FFF7A2FF00282BD067
:100DA0003369D90601D5012727E0019B039A310059
:100DB0002800FFF7C3FF0700039D29003000FFF75D
:100DC000DDFE002803D0104B1B68BB4215D0002C61
:100DD0000AD10E4B1B68D868002C0BD10C4A0D4968
:100DE00009F05AFB012708E0AA680021280001F059
:100DF00015FDEEE7084AF2E70127039801F076FCBB
:100E0000C2E7C0469800000810090008EC0100087D
:100E100054E500105CE5001048E5001070B50500D1
:100E20000E000020FFF72EFD0400022805D0042844
:100E300003D0032801D0200070BD3200012128001A
:100E4000FFF792FF044B1B688342F4D0012801D0C6
:100E50000524F0E70400EEE710090008F8B50600E5
:100E60000D0017000024012C11DC2C226243B21863
:100E70003B002100300000F0D9FB002801D10134F3
:100E8000F1E7002C04DD002D02D1002000E000205D
:100E9000F8BD002383718360C36001334371036035
:100EA0000371C37170474379012B01D00020704753
:100EB0000368012B01D00020F9E70379012B01D051
:100EC0000020F4E70120F2E730B583B005000C0004
:100ED0000023009301930800FFF7E5FF002830D0BE
:100EE000204B2A689A4212D01E4BEA6A9A421BD0C3
:100EF000019B009A934200D90093009BA360009A43
:100F00002100280000F0D2FD002003B030BD6A4669
:100F100000212800FFF74CFE0028E5D0124B134AB1
:100F20001349144809F09AFA01AA01212800FFF791
:100F30003FFE0028DCD00C4B0C4A0F490D4809F04D
:100F40008DFA21000831002001F000F8002802D1BC
:100F5000A3680093D3E7044B044A0849054809F005
:100F60007DFAC0463DB8F39688E50010C8E600104B
:100F70003604000090E500104D0400006D040000F0
:100F800070B504000D00FFF79FFF002812D1EB7928
:100F90006422A354033BDBB2012B11D9EB79022B62
:100FA00017D0042B15D0032B13D06423E35CFF2B45
:100FB00018D070BD124B134A1349144809F04EFA69
:100FC000002000F011FA0028E8D06423FF22E25448
:100FD000E4E7002000F0F4F90028E6D06423FF22C3
:100FE000E254E2E70A4B1B68DB680E220121094844
:100FF00009F0C6FA084B034A0849044809F02EFADA
:1010000088E50010D8E600109605000090E5001075
:10101000EC010008D0E50010E0E50010AE0500008E
:1010200070B50400FFF750FF002814D16423E55C7D
:10103000EB1EDBB2012B14D9022D03D0042D01D0FD
:10104000032D07D1002000F0BBF9002802D0642353
:10105000FF22E25470BD084B084A0949094809F0CB
:10106000FDF9002000F0C0F90028E5D06423FF223C
:10107000E254FF25E2E7C04688E50010B4E6001020
:101080005305000090E5001070B504000D00FFF757
:1010900008FE00280FD1002200212000FFF7DEFE0D
:1010A000002814D1200000F0CDFB00281AD16423C1
:1010B0000122E2540AE0344B1B68D868E022120196
:1010C000324909F0E9F964230122E25470BD2E4B44
:1010D0001B68D86800222E4909F0DEF9642301223A
:1010E000E254F3E72800FFF7D4FE2900200001F0C6
:1010F00001F8002814D12800FFF7D5FE00281AD0E7
:10110000EB79012B34D02A0001212000FFF72CFEBF
:10111000204B1B68834232D064230522E254D5E77A
:10112000194B1B68D86800221B4909F0B5F96423E4
:101130000122E254CAE729002000FFF721FF00281E
:101140000AD12A0000212000FFF788FE002809D1DB
:1011500064230122E254B9E7104B114A11491248A5
:1011600009F07CF90D4B0E4A10490F4809F076F949
:1011700029002000FFF752FE6423E054A6E7EA7935
:101180006423E254A2E7C046EC010008E4E5001045
:101190002CE60010100900085CE6001088E500103D
:1011A000F4E600105306000090E500105906000018
:1011B00010B501F033FB10BDF8B5DE4657464E467C
:1011C0004546E0B58946924698460A9B9B460B9E4B
:1011D000002512E04346E9182300124A484601F070
:1011E00087FA002819D15B46E91823000D4A5046BA
:1011F00001F0BEFA002812D12D19B54206D2741B97
:101200008023DB009C42E5D91C00E3E70020F0BC12
:10121000BB46B246A946A046F8BD0120F7E701202B
:10122000F5E7C04680090008F0B5C64600B584B0B1
:1012300004000E004E4B1B6898466C22002109F0FA
:10124000D0F94C4B63624C4B23654C4BE365012753
:101250007F420025012D14D82900002001F048FB11
:101260002C21694320316118C0B201F02BFA071E0E
:1012700001D10135EEE7424B424A4349434809F068
:10128000EDF869462000FFF7FFFE6423E35C6A4641
:10129000D371042B18D8022B21D2012B2BD164231C
:1012A000E35CFF2B2BD0012B37D1394B22689A42BC
:1012B0003BD0384B1B68D86800232200364909F020
:1012C000EBF80327002549E0052B14D1002000F09E
:1012D0008BF8071EE3D06423FF22E254DFE7694660
:1012E0002000FFF79DFE071ED9D0254B254A2B492C
:1012F000264809F0B3F86423FF22E254CFE7254BD8
:101300001B68DB680E220121254809F039F9254BBD
:101310001C4A25491D4809F0A1F86A460021200011
:10132000FFF79CFD071EC0D0CCE7102200216846C5
:1013300009F057F9236A5B783371236A5B68B360FD
:1013400034601A4B1B689846BCE70122521B2C23C1
:101350005343E318186A01F0C9F90135012DF4D996
:10136000002F00D14746380004B080BCB846F0BD1D
:1013700098000008800D0008807D000880ED0008BE
:1013800088E5001014E70010D406000090E5001076
:101390003DB8F396EC0100088CE60010140700003D
:1013A000D0E50010E0E500102B0700001009000850
:1013B00010B501000148FFF737FF10BD1409000800
:1013C00010B582B001A9012001F07CF9002803D0FA
:1013D0000124200002B010BD0198FFF704FA0400B8
:1013E000019801F083F9F4E710B584B003A9012056
:1013F00001F068F9002803D00124200004B010BDDA
:1014000001A9039800F07EFC041E0CD101ABDB782F
:10141000032B03D0039801F069F9EEE70398FFF777
:10142000ECF90400F6E70124F4E70000F0B5CE463D
:1014300000B582B00C0016001D00526AC300D758D8
:101440001368FF1A0138C0001258D31A99462B6846
:10145000012B15D1EB68022B0CD00899300000F05D
:101460008BFD00282AD12A000899300000F0EAFDFF
:1014700000282AD10999300000F07EFD00282BD1E8
:10148000220039000898FFF793FE00282BD1019421
:1014900000974B46089A11003000FFF78DFE002898
:1014A00028D12900300000F0E9FB2B6801332B60C4
:1014B000002826D102B080BCB946F0BD5421144B9F
:1014C000144AFF31144808F0C9FFAB21104B114AF0
:1014D0004900114808F0C2FFAD210D4B0D4A4900EB
:1014E0000D4808F0BBFFAF21094B0A4A49000A48E2
:1014F00008F0B4FF6221064B064AFF31064808F0A7
:10150000ADFFB321024B034A4900034808F0A6FF90
:1015100088E50010CCE8001024E70010F0B5CE46B6
:10152000474680B583B00F0015001C00566AC30003
:10153000F2583368D21A90460138C0003658F61A6D
:101540002A6D11581368CB1A99462279012A07D0BF
:101550002379022B32D003B0C0BCB946B046F0BDEF
:101560003A0031000A98FFF723FE002818D10197AE
:1015700000964B460A9A0B992800FFF71DFE00289B
:1015800015D12100280000F079FB022323710028E7
:10159000DED08021224B234AFF31234808F05EFF32
:1015A0007A211F4B1F4AFF311F4808F057FFBE2109
:1015B0001B4B1C4A49001C4808F050FF3A004946A2
:1015C0000B98FFF7F5FD00281CD101974B460093BF
:1015D00043460B9A0A992800FFF7EEFD002818D120
:1015E0002100280000F04AFB236801332360012317
:1015F00023710028AFD08C21094B0A4AFF310A48D9
:1016000008F02CFFC221064B064A4900064808F0A4
:1016100025FF8821024B034AFF31034808F01EFFD3
:1016200088E50010B8E8001024E7001070B582B01B
:1016300016001C1E3AD0436A5D686379012B12D0F4
:10164000022B19D00025002001F052F9C0B201A9E7
:1016500001F038F8002830D00125019801F046F853
:10166000280002B070BD002922D11D4B1B682268E2
:101670009A42E8D80025E6E72368012B08D9184AE2
:101680001268934204D8002914D100250131DAE709
:10169000012B01D00025D6E7002900D00025012923
:1016A000D1D12379022BCED10021CCE70025CAE786
:1016B0000025C8E700250021C5E7202332002900C6
:1016C000019801F015F8051E08D1002CC5D032682C
:1016D000044B9A42C1D001256D42BEE70125BCE70B
:1016E0009C0000083DB8F396F0B5DE4657464E46DE
:1016F0004546E0B589B006000591049200230393A6
:101700000378032B00D182E000F095FAE0252D014B
:1017100000239A460133019300239B46013B9946DF
:101720000023029380464F460BE06B1E9B460292BD
:101730001AE0019BA34202D001239C46E244013DF2
:101740000194002D1DDD30784346E918013901234D
:1017500006AA073200F086FE041E5ADB06ABDA79D1
:10176000531EDBB2012BE0D9300001F0D1F806ABFB
:1017700007331B789842DCD07A1CE0D12F0003930A
:10178000DDE7B9465346012B24DC049908310020DB
:1017900000F0DCFB041E2BD1049B9E6805998F6E24
:1017A0003900300007F04AFB05003900300007F02F
:1017B000CBFB4B1E99416918484601302AD0894518
:1017C0001CDA0123049A537113004A461A60039AE3
:1017D0001A711FE0134B1B68DB6825220121124898
:1017E00008F0CEFE114B124AC221124808F036FE14
:1017F000114B0F4AC8210F4808F030FE0223049A0B
:10180000537113005A461A60029A1A7102E00724B3
:1018100000E00124200009B0F0BCBB46B246A94656
:10182000A046F0BDEC0100086CE70010E0E50010F8
:1018300010E9001024E7001088E500100068484314
:101840007047000070B5856A446DAC4202D0631CDD
:10185000AB4213D1E0231B019D4219D80023002184
:10186000A34229D2DA00416A89184968066DB44654
:10187000624452688A4215D10133F1E7194B1B6863
:10188000DB683A220121184808F07AFE002012E0B5
:10189000144B1B68DB6831220121144808F070FEEC
:1018A000002008E00F4B1B68DB682E220121104846
:1018B00008F066FE002070BDAC4211D2426ADB0027
:1018C000D3185B68994201D10120F4E7054B1B68EE
:1018D000DB682E220121064808F052FE0020EAE7CC
:1018E0000120E8E7EC01000894E70010D0E70010C1
:1018F00004E8001070B586B004A90120FEF75DFF72
:10190000041E25D11D4B1B68D86804AB1B78012B26
:1019100027D0032B23D01A4B04AD6A78A978EE7830
:10192000029601910092174A174908F0B5FD2B78ED
:10193000012B02D1AB78032B15D0104B1B68DB6851
:1019400019220121114808F01BFE200006B070BDCD
:1019500030210F4B0F4AFF310F4808F07FFD0F4B2E
:10196000DAE70F4BD8E7054B1B68DB682122012122
:101970000C4808F005FE0224E7E7C046EC01000829
:10198000CCE3001034E8001030E400107CE80010D4
:1019900088E50010FCE8001024E70010D8E30010F0
:1019A000D0E3001058E80010F0B589B005900C00A5
:1019B0001500334962681140324A914202D12268CF
:1019C000012A01D009B0F0BD06A91800FEF7F5FE06
:1019D000002834D12C4B1B68D86806AB1B78012B30
:1019E00036D0032B32D0294B06AF7A78B978FE78FF
:1019F000029601910092264A264908F04DFD3B7857
:101A0000032BDFD12900059800F0B6FA002821D178
:101A10002800FEF7F2FE002823D1A1682800FEF777
:101A200023FF002824D1280000F010F90028C9D095
:101A3000B821194B194AFF31194808F00FFDD4217C
:101A4000154B164A4900164808F008FD154BCBE720
:101A5000154BC9E7D721104B104A4900104808F030
:101A6000FDFCB2210C4B0D4AFF310D4808F0F6FC8D
:101A7000DA21094B094A4900094808F0EFFCC04641
:101A800000FF00FF00010004EC010008CCE300109F
:101A900098E8001030E4001088E50010ECE8001031
:101AA00024E70010D8E30010D0E30010F0B5C646DC
:101AB00000B584B080460E00354B00211960436AA2
:101AC0005F680023DB19324D29684C1C2C6093425F
:101AD000F8D303A9012000F0F5FD002812D102A9D6
:101AE000022000F0EFFD002813D10223029A3100FA
:101AF0004046FFF759FF7379012B11D00223737110
:101B0000012429E0D821234B234AFF31234808F040
:101B1000A5FCED211F4B204A4900204808F09EFCFF
:101B20001B4B1C6800E0013C002C11D0184B1B68BB
:101B300032689B1A0133A342F5D3029B0193039BA6
:101B400000933300424639002000FFF76FFCEAE7BC
:101B500001233360D2E701340D4B1B68A3420DD340
:101B60003368A342F7D8029B0193039B0093330091
:101B7000424639002000FFF7D1FCECE7039800F063
:101B8000B5FD029800F0B2FD04B080BCB846F0BDCF
:101B90009C00000888E50010E0E8001024E7001031
:101BA000012800D170470220FCE7000010B5102288
:101BB000044908F0FFFC002801D0022010BD0120DC
:101BC000FCE7C046E4E4001030B585B00D0001200C
:101BD00000F078FD041E02D0200005B030BD1023B7
:101BE0006A460949012000F03DFC041E07D110227D
:101BF0000649684608F0DEFC002800D10400286889
:101C000000F074FDE8E7C04684110000E4E4001031
:101C1000004870478311000010B5FFF7F9FF013845
:101C200010BD10B5FFF7F8FF013810BD10B5FFF774
:101C3000F8FF043810BD0020704710B5007800F0A0
:101C40009FFB002800D110BD0120FCE710B50078F3
:101C50001023044A044900F093FB002800D110BD72
:101C60000120FCE7E4E400108411000010B5C36D0E
:101C700059689020800107F0E1F810BD30B583B0BD
:101C80000C0001A9012000F01DFD002806D0012450
:101C9000019800F02BFD200003B030BD0198FFF744
:101CA000CAFF050001212000FFF7C8FD291863794C
:101CB000012B0ED023790133DBB26A460332137055
:101CC000019B1878012300F05BFB041EE0D0012487
:101CD000DEE72379F1E7F0B5C64600B580460F0090
:101CE0001600002400E00134B44207D23D5D4046B6
:101CF00000F00EFE8542F6D0002000E0012080BCFE
:101D0000B846F0BDF0B5DE4657464E464546E0B50E
:101D100089B004000E0002A9072000F0D3FC051EC4
:101D200008D00127380009B0F0BCBB46B246A9462E
:101D3000A046F0BD2078102304AA834900F092FB4E
:101D4000002800DAEEE0102204A90298FFF7C3FF92
:101D5000071E00DAE8E001286FD004A8FFF726FF8D
:101D600030700023994698462000FFF75AFF010083
:101D70002078012302AA073200F074FB002800DA61
:101D8000D4E0012202ABD91D0298FFF7A4FF00287E
:101D900000DACDE002AB07331B780F221A407270D5
:101DA0001B093371012801D0042A03D90123737060
:101DB000002333712000FFF72FFF01002078B71CAC
:101DC00001233A0000F04EFB002800DAB2E00122C5
:101DD00039000298FFF77FFF002800DAACE0012805
:101DE00063D0B078FFF7DCFEB0702000FFF710FF83
:101DF00082462078F31C9B4601235A46514600F048
:101E000031FB002800DA99E0012259460298FFF7D9
:101E100062FF071E00DA93E0012849D0F078FFF74F
:101E2000BFFEF0704B46002B00D18BE010224146E4
:101E3000200000F0F3FC070074E7032333702378DD
:101E4000022B05D0062B03D00023994698468BE73A
:101E5000A36810225242944663449846102304AA71
:101E60004146200000F06EFD8146031E00DA59E76E
:101E700001280DD004A8FFF799FEC0B230700128E8
:101E80000BD04B46002B00DA4CE7012399466BE759
:101E9000023333700023994666E72078102304AAA2
:101EA000294900F06DFA8146EBE70323B3709CE704
:101EB0000323F3702378052B25D021D8012B22D0C2
:101EC000022B00D02EE7A3681822524294466344A6
:101ED000984601235A464146200000F033FD031E78
:101EE000019000DA1EE7012811D0F078FFF758FEC4
:101EF000C0B2F07002280DD1019B002B96DA11E7D9
:101F0000062BE0D00EE7B378012B8BD1DBE7023351
:101F1000F37087E7207801235A46514600F030FAE3
:101F20000190E9E70127FDE60127FBE60127F9E635
:101F30000127F7E60127F5E60127F3E60127F1E699
:101F40000127EFE62F00EDE68411000030B583B0E5
:101F50000C0001A9FFF738FE002801D003B030BD06
:101F6000019D2800FFF762FE01002878042322006B
:101F700000F078FAF2E70000F0B5CE46474680B5AB
:101F800083B007008946294B1B68D8680A7828491E
:101F900008F082FA01A9072000F094FB002806D07F
:101FA0000124200003B0C0BCB946B046F0BD0021FA
:101FB00000F09EFC04000121002000F099FC4B463B
:101FC0001B78A34201D083422ED1180000F048F9BB
:101FD00080463800FFF74AFE441E0025FA6DE300F4
:101FE000D3185E6819681368C91A41443200019811
:101FF000FFF7DEF8002811D1013CAD1990239B01B9
:102000009D42EBD34B46996840394022484600F048
:1020100005FC0400019800F069FBC2E7054B064A85
:102020000649074808F01AFA0124BAE7EC0100084B
:1020300028E9001088E50010C0E90010190200002E
:102040004CE9001030B583B00C0015006946022041
:10205000FEF7B3FB002814D1E979012917D16B46AB
:10206000DB78012B1FD0A9682000FEF7FDFB0028BC
:1020700024D12000FFF7EAFD002825D1002003B07D
:1020800030BD144B144A1549154808F0E7F90022F1
:102090002000FEF7BDFB0028E1D00E4B0E4A11498F
:1020A0000F4808F0DBF92000FEF7A7FB0028DAD084
:1020B000084B094A0C490A4808F0D0F9054B064A72
:1020C0000A49074808F0CAF9024B034A084904487C
:1020D00008F0C4F988E50010ACE900103E020000E9
:1020E0004CE9001042020000470200004B020000D1
:1020F0005602000070B584B005000E00FFF7FAFB31
:10210000041EF06008D0022809D103A9012000F0C4
:10211000D9FA002809D00124200004B070BD1E4B5C
:102120001E4A1F491F4808F099F902A9072000F02C
:10213000C9FA002801D00124EEE7320029000398F3
:10214000FFF7D2FA041E19D10398FFF76AFD0100C8
:1021500001236A460732012000F084F901226B4610
:10216000D91D0298FFF7B7FD002813DB01280CD01A
:102170006B46DA790F231340F3710400039800F0E3
:10218000B5FA029800F0B2FAC6E76B460122DA719E
:102190002000EDE70124BFE7E0E5001098E900101A
:1021A0006F0200004CE9001010B5FA21490006F05A
:1021B00045FE10BD10B5FFF7F7FF400210BD10B58A
:1021C000FEF714FC10BD000070B5204CA5440400BF
:1021D0000E001D000132839201A9072000F072FA5F
:1021E000002805D00124200084239B009D4470BD5D
:1021F000FA225200290002A808F0EAF9839B809392
:10220000134B1B687F93FE21490002A8FFF7D7FFFD
:1022100082908190012E10D00136F1008919490277
:10222000091980239B0002AA019800F0A1FA041E5C
:1022300005D1019800F05AFAD5E70026EDE7054BE5
:10224000054AE921054808F009F9C046F0FDFFFFFD
:10225000C4EA001088E500107CEA0010DCE90010F8
:10226000012804D0022804D190208001704700206A
:10227000FCE701204042F9E7F0B5DE4657464E46FE
:102280004546E0B5394CA54481460191029205A925
:10229000072000F017FA061E63D100250023984698
:1022A00000279A4603930CE0859B9B46FE2149003C
:1022B00006A8FFF784FF584518D001239C46E24446
:1022C0000135012D19D8EC00641964024C448023B7
:1022D0009B0006AA2100059800F00AFA002842D1C6
:1022E000234B839A9A42DFD00137E9E7849B9845D4
:1022F000E6D82E0098460394E2E7022F11D0534609
:10230000022B1CD101267642059800F0EFF930002F
:1023100087239B009D44F0BCBB46B246A946A0461D
:10232000F0BD0023029A1360059800F0F1FA010055
:10233000FA225200019808F054F90126E4E7029BC2
:1023400042461A60FA235B00019A0399059800F04F
:10235000CFF90028D8D0074B074AAB21074808F02F
:102360007DF80126D3E70126D1E7C046E4FDFFFF53
:10237000AFBEADDE88E50010ACEA0010DCE900106D
:10238000F0B5CE46474680B5FFB007000C00914639
:102390001E00FA214900200006F0D6FD0D0032197A
:1023A0002A4B9A420DD83800FFF75AFF071E0FDB61
:1023B0002000FFF7FFFEC719002398460120404286
:1023C00026E00E21224B234AFF31234808F046F82D
:1023D0001221224B1F4AFF311F4808F03FF85A1BB9
:1023E000280068444946414408F0F2F86B467D9A5B
:1023F00021003800FFF7E8FE002818D1F53EFF3E27
:1024000080239B009C4667440C3B9C46E04400258F
:10241000002E15DD7DAA69463800FFF72DFF041E4A
:102420000CDBFA235B009E42D9DC3200D8E72E2178
:102430000B4B084AFF31084808F010F801204042D1
:102440007FB0C0BCB946B046F0BDC0469411000094
:1024500028EA001098EA0010DCE9001054EA0010A5
:1024600088E50010F0B5C64600B5FEB005000E00C8
:1024700090461C00FA214900300006F065FD0F006F
:10248000A219214B9A420AD82800FFF7E9FE051E3F
:102490000CDB3000FFF78EFE451900261DE0AA2157
:1024A0001A4B1B4A49001B4807F0D8FFAC211A4BB6
:1024B000174A4900174807F0D1FF22003900694444
:1024C0004346981908F084F8F53CFF3C80239B00B4
:1024D0009C466544F536FF360027002C0CDD7DAAAE
:1024E00069462800FFF7C8FE00280ADBFA235B00D4
:1024F0009C42E2DDDA1BE1E700207EB080BCB846FA
:10250000F0BD01204042F8E79411000028EA0010D5
:1025100064EA0010DCE9001054EA0010F0B5D64679
:102520004F464646C0B582B004000D0017009946DC
:102530000AAA13789A46002845D0002947D0002FD0
:1025400049D00E89CB689C466644042301AA310019
:10255000380000F0CDF88046002840D101AB1A8841
:10256000274B9A421FD06B89002B40D101AB1A88B0
:10257000244B9A423FD1256067604B4623815346E6
:10258000A3726B899B19E3606B899B1901AA52881E
:102590009B18636104362661404602B0E0BCBA462F
:1025A000B146A846F0BD6B8901AA51888B421AD169
:1025B00089190423380000F09BF80028D6D00123A5
:1025C0005B429846E8E701235B429846E4E7012333
:1025D0005B429846E0E701235B429846DCE7012333
:1025E0005B429846D8E701235B429846D4E7012333
:1025F0005B429846D0E701235B429846CCE7C04651
:102600000869000007690000F0B583B004000F00FE
:1026100016001D00002848D00368002B48D04368EE
:10262000002B20D1012040423BE0042301AA216974
:10263000606800F05DF800283DD1A37A002B03D03C
:102640002369E268934239D223891D4A934218D004
:1026500001AA1288934214D001AB5B882269944688
:102660006344043323612369626993421BD2226865
:102670005289002AD9D0E2689A42D6D10433236124
:10268000D3E7002D02D001AB1B882B8023690433D4
:102690003B6001AB5B88338022699446634404331A
:1026A000236103B0F0BD0120FBE701204042F8E7C1
:1026B00001204042F5E701204042F2E70120F0E727
:1026C000FFFF000010B5002200E001329300064C2D
:1026D0001B59002B05D01C788442F6D10B600020DA
:1026E00001E00120404210BDA0000008704700003A
:1026F00070B5150044688C4214D9CA18944218D990
:10270000611842787F2A1BD052B2002A1EDB0124B6
:102710006442114B1B68D8682200104907F0BCFEC8
:10272000200070BD20210E4B0E4AFF310E4807F0ED
:1027300095FE90210D4B0B4A49000B4807F08EFE89
:102740001A00280007F044FF0024E9E72A0000F0FF
:102750006FF9041EE4D0DCE7EC01000844EB001044
:10276000C8EA001098EC0010DCEA00102CEB001016
:10277000F8B5150044688C420CD9CA18944210D997
:10278000641842787F2A13D052B2002A34DB012029
:102790004042F8BDA3211B4B1B4A49001B4807F0D0
:1027A0005DFE48211A4B184AFF31184807F056FEC3
:1027B000DA0506D1E205D00D002A09D15F0A06002C
:1027C00017E0A921134B104A4900104807F046FEB4
:1027D0005421114B0C4AFF310C4807F03FFE2900F1
:1027E000200002F017F980239B009C466444654456
:1027F0000136BE42F3D3CCE72A00210000F040F9B5
:10280000C7E7C046C8EA001084EC0010DCEA0010FC
:102810002CEB00106CEB00108CEB001070B5836893
:10282000934211D38B4216D9541845685B199C42C8
:1028300018D26D18531941787F291AD049B200294E
:1028400034DB0120404270BDBC211B4B1B4A4900B8
:102850001B4807F003FE7A211A4B184AFF3118482B
:1028600007F0FCFDBD21184B144A4900144807F03D
:10287000F5FD6D0A6D025B0A5B029D4212D05B1B87
:102880005C0A0020002CDED0013C6002401902F0FE
:1028900087F80028F6D094210C4B084AFF310848ED
:1028A00007F0DCFD280002F07BF8CCE711002800DF
:1028B00000F00EF9C7E7C046B8EB001070EC00104E
:1028C000DCEA0010CCEB0010E0EB001008EC00108C
:1028D00010B543787F2B08D05BB2002B02DB0120C0
:1028E000404210BD00F0C6FBFBE780208000F8E707
:1028F000012908D0022908D0002902D00120404235
:1029000070470120FCE70220FAE70320F8E7000007
:1029100010B543787F2B0BD05BB2002B02DAFF207F
:10292000C0B210BD034B044A0449054807F096FDA8
:102930000020F5E724EC001058EC00101F02000006
:10294000DCEA0010F8B5CE46474680B50700904651
:102950001E00FFF7CDFE814600280FD10024B442AF
:1029600009D243461D5D3800FFF7D2FF854208D1EA
:102970000134E4B2F3E70123994602E001235B420C
:1029800099464846C0BCB946B046F8BDF8B50E00F9
:102990001500002200E00132930020495B58002B13
:1029A00004D019788142F6D11C0000E01C00002BF5
:1029B0002ED063787F2B11D05BB2002B2BDA00F086
:1029C00061FB0700A368D8190138390006F036FA10
:1029D000336883420BD36268002414E0072802D1D5
:1029E0008027BF00EEE700F04DFB0700EAE70C4B45
:1029F0000C4A0D490D4807F031FDE300EB185F600C
:102A00001A60D21901348442F7D330600020F8BD37
:102A100001204042FBE701204042F8E7A000000807
:102A20002CEC001040EC001072020000DCEA0010F8
:102A3000F0B5C64600B582B00E0017001C00437802
:102A40007F20184000F0AEFA0500E8231B069C46E4
:102A5000664400F0AFFA804600F0B0FA01900094AE
:102A60003B0032002900404604F0F6F9002804D16A
:102A7000002002B080BCB846F0BD01204042F8E71B
:102A8000F0B5C64600B582B00E0017001C004378B2
:102A90007F20184000F086FA0500E8231B069C46BC
:102AA000664400F087FA804600F088FA01900094AE
:102AB0003B0032002900404604F048FA002804D1C7
:102AC000002002B080BCB846F0BD01204042F8E7CB
:102AD000F0B583B00500002000F064FA0400E8239C
:102AE0001B06E818A3699D696D42054000F062FA73
:102AF0000600A3699F6900F061FA00903B002A007C
:102B00002100300004F0C0FA002802D1002003B0F8
:102B1000F0BD01204042FAE7F0B5C64600B58C682A
:102B20000A688423C3580F252B40073DED1A230064
:102B3000AC4226D92B0024E055782D021678354377
:102B4000D678360697783F043E4335439827C551DB
:102B500055792D0216793543A846D67936069579EA
:102B60002D042E4345463543C551D218E41A84231B
:102B7000C3580F252B40073DED1A2300AC4200D966
:102B80002B00002B00D183E0082BD5D0012B24D0C3
:102B9000022B26D0032B2BD0042B33D0052B3ED079
:102BA000062B4CD0072B5DD053781B0215782B4396
:102BB000D5782D069678360435432B4398268351D5
:102BC00053791B0215792B43D5792D0697793F044C
:102BD0003D432B4383510823C7E716789025465180
:102BE000C3E755782D021678354394268551BCE706
:102BF00055782D0216783543942685519678902580
:102C00004651B2E755782D0216783543D678360608
:102C100097783F043E43354398268551A5E755787C
:102C20002D0216783543D678360697783F043E4312
:102C300035439826855116799025465195E7557864
:102C40002D0216783543D678360697783F043E43F2
:102C500035439826855155792D02167935439426AA
:102C6000855182E755782D0216783543D678360699
:102C700097783F043E4335439826855155792D0278
:102C800016793543942685519679902546516CE7FF
:102C90000A608C60002C0CD1F924E4000359012255
:102CA000934303518A61CB69002B02D0CB69012089
:102CB000984780BCB846F0BDF8B50E004C69CA68AC
:102CC000C423C3580F21194023008C421CD90B0088
:102CD0001AE0D825415911700F0A57700F0C9770E0
:102CE000090ED17045591571290A5171290C91713C
:102CF0002D0ED571D218E41AC423C3580F251D40D8
:102D00002300AC4200D92B00002B6DD0082BE0D063
:102D1000012B1ED0022B20D0032B24D0042B2BD030
:102D2000052B33D0062B3ED0072B4BD0D821435850
:102D300013701D0A55701D0C95701B0ED3704358EF
:102D40001371190A5171190C91711B0ED37108235B
:102D5000D0E7D02141581170CCE7D42141581170EF
:102D6000090A5170C6E7D42141581170090A5170FF
:102D7000D02141589170BDE7D821415811700D0AFA
:102D800055700D0C9570090ED170B3E7D8214158DC
:102D900011700D0A55700D0C9570090ED170D0216F
:102DA00041581171A6E7D821415811700D0A55708C
:102DB0000D0C9570090ED170D42141581171090A7A
:102DC000517197E7D821415811700D0A55700D0CBB
:102DD0009570090ED170D42141581171090A5171B1
:102DE000D0214158917185E7F2607461002C0DD1BA
:102DF000F922D200835802218B4383500323B3610D
:102E0000336A002B02D0336A032098477461F8BDFF
:102E100010B5264A264BD358DA070DD49A0716D494
:102E20005A071FD5234B05229A61204AF823DB005D
:102E30000421D150D35809E01C4C1E492000FFF753
:102E40006BFEF823DB000122E250E35810BD174C63
:102E500018492000FFF730FFF823DB000222E25080
:102E6000E358F3E71A0709D5124B06229A610F4A75
:102E7000F823DB000821D150D358E7E7DA0609D55B
:102E80000C4B07229A61094AF823DB001021D1502C
:102E9000D358DBE79B06D9D5064B08229A61034A33
:102EA000F823DB002021D150D358CFE70000424067
:102EB000CC070000805E010810B52E4C2E4A03217D
:102EC000200001F0EBFE11220321200001F00CFE96
:102ED0002A4A0421200001F0E1FE112204212000F1
:102EE00001F002FE264A0521200001F0D7FE112242
:102EF0000521200001F0F8FD224A0621200001F002
:102F0000CDFE11220621200001F0EEFD1E4A072110
:102F1000200001F0C3FE11220721200001F0E4FD92
:102F20000021022004F052FB0221022004F07EFB6B
:102F3000022004F017FB1549154805F0BBF8FA22EA
:102F4000144B92001449154802F040FD041E0FD1A5
:102F50000F4B00229B5E002B06DB1F2213401E3A04
:102F60009A4013000E4A13600A490C4802F00CFF05
:102F7000200010BD8005314044ED001010ED001020
:102F8000DCEC0010A8EC001078ED0010112E001001
:102F9000E4010008805E0108ACED00100000424032
:102FA00000E100E0024B1B685B688000C05870477E
:102FB000385F0108004870470000424000487047F1
:102FC000805E010810B50400FFF776FF002800D0EE
:102FD00010BD044B1C60044A2100044803F02EFE7F
:102FE000F6E7C046385F0108805E010800004240F5
:102FF00070B51D4B5B68032831D00AD8012811D069
:10300000022803D11B6802221A700EE00120404200
:1030100024E0042803D11B6808221A7005E001206F
:1030200040421BE01B6801221A7001380F4A43001E
:10303000191889008C581918890051184D680E7A92
:103040000B4A16722900200001F028FE32002900E8
:10305000200001F049FD0448FFF7B4FF70BD1B6874
:1030600004221A70E1E7C046D40100088C01000870
:10307000E4000008024B5B681B689B69586A704754
:10308000D4010008024B5B681B689B699869704714
:10309000D401000870B504001D4D280003F040FB6A
:1030A0002B685B005B082B60022004F073FA194B5D
:1030B00000229B5E002B0BDB1F2213401E3A9A401E
:1030C0001300154980228B50BFF34F8FBFF36F8FD2
:1030D000104B59880020185E04F0BAFF013C6000D4
:1030E000001980000D4BC05801F0D4FC0C4C20009E
:1030F00001F0D0FC200001F0CDFC200001F0CAFC62
:10310000200001F0C7FC200001F0C4FC70BDC046E7
:1031100000004240E401000800E100E08C010008EA
:1031200080053140074BC200D05A9B1859889A88B5
:10313000DB88084310431843C0B2431E9841C0B215
:103140007047C046845F010870B515000024002C4C
:1031500002D0124C200070BDA3005B195B00104A26
:103160009A5A6B000F4E9B5B9A4201D30134EEE7F3
:1031700000230B704C700C4B03602000FFF7D2FF54
:10318000002807D00649A20055196D006B5A01337B
:103190006B52DFE7044800F0FDFBF3E7011000008D
:1031A000845F0108BCED00100000104070B50600FF
:1031B0000D004C78A3009B185B0010495B5A002B54
:1031C00004D0A400A4186400013B63526878FFF7A0
:1031D000A9FF002800D070BD094B1B68002B05D04B
:1031E0003368002B05DB01232B70F4E700F026FB8E
:1031F000F6E7300000F014FCF5E7C046845F0108F4
:10320000D85F010870B504000D0000280BD0211D07
:103210002A002000FFF798FF002800D1A571434243
:103220005841C0B270BD01BEF1E710B5002803D00F
:103230000379002B02D010BD01BEF9E782790100AD
:1032400001C9FFF7B3FFF6E730B583B005000C0006
:10325000002801D0002901D103B030BD0321684608
:10326000FFF7D0FF002803D16846FFF7DEFFF3E742
:103270000098A3B2074A11682D228A5C1F2A04D83D
:103280000022290000F07AFCEEE70022290000F07D
:1032900003FDE9E7D45F010810B5041E01D0002941
:1032A00000D110BDFFF7D0FF03212000FFF7AAFFD8
:1032B000F7E7000070B505000C1E22D0002B23D0CC
:1032C000006816490E682D21715C1F2911D8210054
:1032D00000F05EFD00281AD12868104B1A682D23D3
:1032E000D35C1F2B09D8210000F008FE002811D163
:1032F00070BD210000F0D6FEECE7210000F060FF79
:10330000F4E701204042F3E701204042F0E70120CA
:103310004042EDE701204042EAE7C046D45F0108A1
:1033200070B5002913D0002A14D0CC68002C14D01A
:1033300000680D4C25682D242C5D1F2C04D800F04E
:10334000F3FD00280CD170BD00F050FFF9E701201B
:103350004042F8E701204042F5E701204042F2E711
:1033600001204042EFE7C046D45F010810B50029B4
:1033700013D0002A14D0CB68002B14D000680D4B5A
:103380001C682D23E35C1F2B04D800F019FE0028D5
:103390000CD110BD01F0C6F8F9E701204042F8E772
:1033A00001204042F5E701204042F2E7012040427F
:1033B000EFE7C046D45F010810B59821FFF76CFF16
:1033C00010BD10B50B0001000831002B05D1022201
:1033D00003003833FFF76EFF10BD0122F8E710B588
:1033E0000C00131E01D1002010BD01000831220085
:1033F000FFF796FFF8E710B50A0001000831FFF764
:10340000B5FF10BD10B50549C02252008B580120F0
:1034100003438B5005F008FD10BDC0460000264058
:103420000349C02252008B58012083438B507047C0
:103430000000264070B50400421E304B9A4256D818
:103440002F4B1B78002B55D12D4B01221A702D4B81
:103450001B78002B0ED0FFF7E3FF2B4B1C800023C3
:103460000C2B1FD89900294A52185288A24212D90F
:103470000133F5E7264D8032FF32AB580126334346
:10348000AB5005F0D1FCE122D200AB58B343AB50B6
:103490001C4B1E70DFE70A001C49525AA24202D997
:1034A000140000E00C231B4A1370FF251D40280068
:1034B00005F0A0FC2004000C06F02CFE164A174B69
:1034C00005F06AFF05F07EFE82B211235B1B01202E
:1034D0009840101A80B20E4AC2235B00D358C0181D
:1034E00080B205F06FFCFFF78DFF002070BD01205A
:1034F0004042FBE701204042F8E7C0466F1700005A
:10350000905F0108915F01088E5F0108C4ED001013
:10351000000026408C5F010833DFC14F1C409F3FF5
:10352000064AD0239B00D05803E0044AD0239B00D6
:10353000D058431CF9D0C0B27047C0460000654067
:1035400010B50400002003E02100034801F0E8FE6C
:103550000028F9D010BDC0460000654070B50600D7
:103560000D00002102F0AAF80021012003F016FF4F
:10357000040004F01DFDE9004B08C01805F05EFCD6
:10358000421E002C08D0002C0CD0326880231B0671
:1035900013433360200070BD0021012003F03CFE86
:1035A0000400F0E70021012003F0B6FE0400ECE780
:1035B00070B50C001600002901D0002509E0002597
:1035C000280070BD2078094B1870FFF7B9FF01344F
:1035D0000135B542F4DA23780A2BF3D1034B1B787B
:1035E0000D2BEFD00D20FFF7ABFFEBE7D05F01080D
:1035F00070B50C001600002901D0002503E000255D
:10360000280070BD0134B542FADAFFF789FF207057
:1036100001350A28F4D00D28F4D1F1E710B50400E3
:103620000A4A0B490B4801F08FFE002808D00028F9
:1036300005D1084A116880231B060B43136010BD97
:1036400021000448FFF78AFFF1E7C046945F0108B4
:10365000B8DE00100000654070B505000C0007E002
:103660000B4B1B689800C0184000FCF78DFF013C15
:10367000002C0BD082229200AB58DB05DB0DA95841
:10368000C90B01220A409B18002BE9D170BDC0462E
:103690009000000810B5024801F0DEFF10BDC046E2
:1036A00000006540014B18607047C046D45F0108B8
:1036B000F0B51F001D4B1E68002E2DD0B36B1B18DC
:1036C0001B68346D2418E41A631E9C41E3B29C46C7
:1036D000B368C41825680F242C40062CF8D81306AC
:1036E000F26882183B43136063460B4313D00F4BC1
:1036F0001B689B68C3181B68DB03F8D50C4B1A6862
:103700002D23D35C1F2B09D8084B1B681B681B1883
:103710001B681B06F8D4F0BD3300D2E7034B1B68CF
:103720001B681B181B68002BF8D1F4E7D85F010851
:10373000D45F010810B50400E0239B05802200211E
:10374000FFF7B6FFD0239B05802200212000FFF762
:10375000AFFFC0239B05802200212000FFF7A8FFB8
:10376000B0239B05802200212000FFF7A1FFA023AA
:103770009B05802200212000FFF79AFF90239B05E4
:10378000802200212000FFF793FF80239B058022E9
:1037900000212000FFF78CFFE0235B058022002141
:1037A0002000FFF785FFC0235B0580220021200059
:1037B000FFF77EFFA0235B05802200212000FFF79A
:1037C00077FF80235B05802200212000FFF770FF38
:1037D000C0231B05802200212000FFF769FF802302
:1037E0001B05802200212000FFF762FF8023DB04FD
:1037F000802200212000FFF75BFF002380220021B0
:103800002000FFF755FF0B4B1B689B080A4A116805
:103810002D228A5C1F2A0AD80C229340F02292059E
:103820001343802200212000FFF742FF10BD0D222C
:10383000F3E7C046DC5F0108D45F0108054B1A6856
:103840002D23D35C1F2B03D8034A044B1A60704707
:10385000034AFAE7D45F0108B8EE0010D85F010808
:103860000CEF0010F0B583B01400444B1B68002B24
:1038700075D0002918D0002973D0002C73D0802275
:103880001202944200D972E080225201944239D04F
:1038900021D88022D200944236D00ED98022120143
:1038A000944216D1782225E0002AE4D11A6D11182D
:1038B000334A1268D46CA400DDE78022520094429F
:1038C00024D00132FF32944201D17E2212E02D4DEC
:1038D0004AE02C4D48E08022D201944218D0802248
:1038E0001202944201D1002204E08022920194420B
:1038F0003FD16022224D2E682D25765D1F2E09D9DD
:10390000671E08E07022F5E77C22F3E77F22F1E7EB
:103910004022EFE71C4F01910D003D4039422AD172
:103920001F2E02D91202194942509B6B1B18019A93
:103930001A60A308124A11682D228A5C1F2A0CD82B
:103940000C2293401A00F0239B0513438022002190
:10395000FFF7AEFE0E4B1C6006E00D22F1E7094DAD
:1039600002E0084D00E0074D280003B0F0BD054D12
:10397000FAE7044DF8E7034DF6E7C046D85F0108C3
:10398000D45F01080B003200FF3F000088140000E4
:10399000DC5F010810B50400FFF750FF1A4B1A68EE
:1039A0002D23D35C1F2B10D8184B2360184B1B689A
:1039B0005B6B1B1901221A60164B1B68002B16D07B
:1039C0002000FFF7B7FE002010BD2368124A134005
:1039D00023600F4B1B685B681B19104A1A60226832
:1039E00080231B06134323600323A360DEE7084BF9
:1039F0001B68196D6118044B1B68DA6C920020007B
:103A0000FFF730FFDCE7C046D45F01080300008009
:103A1000D85F0108DC5F0108FFFFFE7F01000200A4
:103A2000084B1A682D23D35C1F2B06D80023036094
:103A3000054B00221A60002070470023036083605A
:103A4000F6E7C046D45F0108DC5F010870B50D4C95
:103A50002568AC68241826680F243440042CF6D856
:103A6000EC680419084D2560064C2568ED68451979
:103A700029602168C96841180A602268D2688018E4
:103A8000036070BDD85F01081002004270B50F4C92
:103A90002568AC68241826680C242642F7D1EC6807
:103AA00004190B4D2560094C2568ED6845192960FE
:103AB0002168C96841180A602268D26882181360B8
:103AC0002368DB68C018049B036070BDD85F0108E1
:103AD0001032004370B51D0004AB1E78084A14680C
:103AE000A3681A1812681307F8D409060223B34012
:103AF00019430123AB40E26880181943016070BD8F
:103B0000D85F010830B51D000B4A1468A3681A1865
:103B100012681307F8D409060323049A9340194343
:103B20000223039A934019430123AB40E2688018B3
:103B30001943016030BDC046D85F010810B582B09E
:103B4000040008001100002B01D102B010BD0200DA
:103B50002000FFF77BFF08230093043B0022502145
:103B60002000FFF7B7FF044B1B681B681B191B687D
:103B7000DB06F8D4E9E7C046D85F010810B582B08B
:103B8000040010001A1E01D102B010BD0300200075
:103B9000FFF75CFF0C230093043B0022512120001F
:103BA000FFF798FF034B1B681B681B191B68DB069C
:103BB000F8D4E9E7D85F0108F0B5002B00D1F0BDDB
:103BC0001E00314C2568AC68241827680F243C403F
:103BD000042CF6D8862464010459002CFADBEC6826
:103BE00004192A4D2560284D2C68E46804192260C8
:103BF0002A68D26882181660234A1468A2681218CC
:103C000015680F222A40042AF6D8E2688218204C50
:103C100014601D4C2268D268821811602268D26834
:103C2000821816600EE0184A11688A681218146823
:103C30000F222240062AF6D8CA6882181549116058
:103C4000103B9BB20F2BEED8002B07D10E4B1B68FD
:103C50001B681B181B68002BF8D1B0E70A4A1168D3
:103C60008A68121814680F222240062AF6D81B040C
:103C7000C02212021343CA68821808210B43802114
:103C8000C9050B431360E1E7D85F01080800007124
:103C90000C00007008C01040F0B5002B00D1F0BD42
:103CA0001F00264C2568AC68241826680F24344071
:103CB000042CF6D8EC680419214D25601F4D2C68A2
:103CC000E468041921602968C96841180F600F2B46
:103CD00014D91A490C68A16809180D680F212940E8
:103CE0000629F6D8E168411886256D03154384241A
:103CF000E4052C430C60103B9BB2E8E7002B07D196
:103D00000E4B1B681B681B181B68002BF8D1C6E7FD
:103D10000A490C68A16809180D680F212940062975
:103D2000F6D81B04C02109020B43E16841181A436D
:103D30008423DB051A430A60E2E7C046D85F010826
:103D40000C00007010B582B004000B0011000722B7
:103D500058680240C020800022501A699B69009276
:103D60002000FFF793FE0C230193043B0093043BD8
:103D700000224C212000FFF7C5FE044B1B681B6886
:103D80001B191B685B07F8D402B010BDD85F01088F
:103D900010B5002B01D0002900D101BE062A00D9A0
:103DA00098E090004C4C205887468B6018004030BB
:103DB000086154338B610A6000234B60474BCB6230
:103DC0004023CB602C3B4B614B622D33FF33CB61E7
:103DD000002010BD8B6018004030086160338B619B
:103DE0000A6001234B603E4BCB624023CB60203BFB
:103DF0004B61043B4B62E433CB610020E9E78B600D
:103E000018004030086160338B610A6001234B6009
:103E1000344BCB624023CB60203B4B614B62E033A1
:103E2000CB610020D5E78B60180080300861C0337B
:103E30008B610A6002234B602B4BCB628023CB60EB
:103E4000403B4B61103B4B62A0239B00CB610020A9
:103E5000BFE78B60180080300861C0338B610A6057
:103E600002234B60214BCB628023CB60403B4B61F4
:103E70004B62A0239B00CB610020AAE78B60180057
:103E800080300861C0338B610A6002234B60184B9D
:103E9000CB628023CB60403B4B61243B4B62A02331
:103EA0009B00CB61002094E78B6018008030086194
:103EB000C0338B610A6002234B600E4BCB628023C0
:103EC000CB60403B4B61203B4B62A0239B00CB610E
:103ED00000207EE708487CE760EF00107CEF0010D0
:103EE00090EF0010B0EF0010D0EF001010F00010B5
:103EF00050F0001090F000100B00320010B50A1EB8
:103F00000ED000238B620B624B69002B01D1054858
:103F100010BD0969D26A9BB2FFF710FE0020F7E7D7
:103F20000048F5E70B003200F0B5D6464F4646464E
:103F3000C0B581460E001700002931D0002A31D0CB
:103F4000CA689046002A2FD0002B34D00A6AD218B3
:103F50000A628C6A1D0014E043461B1B9A46B36834
:103F6000191953469BB23A004846FFF7E7FDB2687D
:103F700031004846FFF7E6FE4346E41A2D19574440
:103F800000242B199845E7D9B362002D0DD0B168F4
:103F90000919ABB23A004846FFF7D0FD002504E00E
:103FA000064D02E0054D00E0044D2800E0BCBA4695
:103FB000B146A846F0BD1D00F7E7C0460B00320031
:103FC000F0B5DE4657464E464546E0B583B0009014
:103FD0000E00140000295FD0002A5FD00D698B68A5
:103FE0009846CF688B6A9A460B6ADB009946802F09
:103FF0002DD038230193802342465146535401313A
:104000004144BBB29B4652469B1A9BB2013B9BB2BA
:1040100000220098FFF7B2FD019B53451AD93B1FC0
:104020004A46120E4146CA544B461A0CFB1ECA544D
:104030004B461A0ABB1ECA54013F4A46CA5542465D
:1040400031000098FFF77EFE706A80081BE0702345
:104050000193D0E742463100009B9A461800FFF7D3
:1040600071FE5B46002241465046FFF787FDD6E7CA
:10407000EB782370AB7863706B78A3702B78E37068
:104080000434043501380028F2D103B0F0BCBB463B
:10409000B246A946A046F0BD0148F6E70048F4E75D
:1040A0000B00320010B5002B01D0002900D101BE59
:1040B000062A00D970E09000384C205887468B6063
:1040C00040330B610A6069234B60354BCB62402360
:1040D000CB602C3B4B614B62002010BD8B604033AA
:1040E0000B610A606A234B602E4BCB624023CB608E
:1040F000203B4B614B620020EFE78B6040330B614C
:104100000A606A234B60284BCB624023CB60203B84
:104110004B61043B4B620020DFE78B6080330B6117
:104120000A606B234B60214BCB628023CB60403B0A
:104130004B614B620020D0E78B6080330B610A60DB
:104140006B234B601A4BCB628023CB60403B4B61AF
:10415000103B4B620020C0E78B6080330B610A602C
:104160006B234B60134BCB628023CB60403B4B6196
:10417000203B4B620020B0E78B6080330B610A600C
:104180006B234B600C4BCB628023CB60403B4B617D
:10419000243B4B620020A0E708489EE7D0F00010C7
:1041A000ECF0001020F1001000F1001080F1001080
:1041B00040F1001000F20010C0F100100B003200BE
:1041C00010B50A1E0ED000238B620B624B69002BC8
:1041D00001D1054810BD0969D26A9BB2FFF7ECFC1A
:1041E0000020F7E70048F5E70B003200F0B5D646AF
:1041F0004F464646C0B504009146002900D180E1F3
:10420000002A00D17FE1CE68002E00D17DE1002B95
:1042100005D11800E0BCBA46B146A846F0BD0A6A0E
:10422000D01808628D6ABA480768BA68101902681F
:104230000F2010400628F6D8F8682018C827FF0578
:104240000760B34800680068001900680028F8D1CA
:104250000A6990464A699446AD480768BA681019D9
:1042600002680F2010400428F6D8F8682018A94FDB
:104270000760A74F3868C068201842460260386857
:10428000C0682018624602604A699446A0480768E0
:10429000BA68101902680F2010400628F6D8F8688E
:1042A0002018CC27FF05624617430760984800682E
:1042B0000068201802689246002AF7D194480268E4
:1042C0009068001907680F2038400628F6D8D06893
:1042D0002018CA22D2050260002D48D18C480268FD
:1042E0009068001907680F2038400428F6D8862007
:1042F000400120580028FADBD0682018864A026066
:10430000834A94461068C06820184A460260624694
:104310001268D268A21813605A19964257D8721BB5
:1043200090467B4A10688268121917680F223A403B
:10433000062AF6D82A02C068201847461743CC221E
:10434000D2053A4302604A689046714A1068826812
:10435000121917680F223A40062AF6D8C268A21826
:10436000404600061060AD1B5B195546D4E78A68CD
:104370009046674802689068001907680F20384027
:104380000428F6D8D0682018624A0260604A106893
:10439000C0682018474607601068C068201805608C
:1043A0005B4802689068001907680F2038400628AB
:1043B000F6D8D0682018CC22D2052A43026054488F
:1043C00000680068201800680028F8D186E78A6233
:1043D000002B4ED18D6A002D64D10E694D694C4B76
:1043E0001A6893681B1918680F230340042BF6D82A
:1043F000D368E318494A1A60454A1368DB68E31832
:104400001E601368DB68E3181D60414B1A689368EF
:104410001B1918680F230340062BF6D8D368E3183E
:10442000CA22D2051A604869394B1A6893681B1969
:1044300019680F230B40062BF6D8D368E318CE2259
:10444000D20502431A60324B1B681B68E3181868D8
:104450000028F8D12E4B1A6893681B1919680F238E
:104460000B40062BF6D8D368E418CA23DB0523607B
:10447000D0E6274A10688268121916680F22324067
:10448000062AF6D82D02C268A2182B43CC25ED05CA
:104490002B4313601E4B1B681B68E3181B68002B23
:1044A000F8D197E78E681A4B1A6893681B19186839
:1044B0000F230340042BF6D8D368E318174A1A6079
:1044C000134A1368DB68E3181E601368DB68E3189F
:1044D0001D608D6A0E4B1A6893681B1918680F23AC
:1044E0000340062BF6D8D368E318CE22D2052A4320
:1044F0001A60074B1B681B68E3181B68002BF8D178
:104500006BE7074886E6064884E6054882E6C0462B
:10451000D85F010808000070080000710C000070EE
:104520000B003200F0B5DE4657464E464546E0B534
:1045300083B003000192002900D198E1002A00D144
:1045400097E1CC688E6A0D6A6A0F9346ED00802C65
:1045500000D171E138229446C7480768BA68D0187C
:1045600002680F2010400628F6D8F8681818C827E7
:10457000FF050760C04800680068C0180068002890
:10458000F8D10A6991464A699046BB480768BA68FB
:10459000D01802680F2010400428F6D8F8681818C0
:1045A000B64A0260B44A92461068C06818184A4673
:1045B000026052461068C0681818424602604A6994
:1045C0009146AD480768BA68D01802680F201040BD
:1045D0000628F6D8F8681818CC22D2054F4617439B
:1045E0000760A54800680068181800680028F8D11E
:1045F000A1480768BA68D01802680F201040062842
:10460000F6D8F8681818CA27FF0507608A68904628
:1046100099480768BA68D01802680F20104004282B
:10462000F6D8F8681818954F0760934F3868C06837
:104630001818424602603868C068181806608E482C
:104640000768BA68D01802680F2010400628F6D80C
:10465000F8681818CC27FF053743076086480068BC
:104660000068181800680028F8D183480768BA68FD
:10467000D01802680F2010400628F6D83202914662
:10468000F8681818802290464A4647463A439146B1
:10469000D022D20590464A4647463A430260B44586
:1046A00000D8CCE0621F94465A46D2B29046724877
:1046B0000668B268D01807680F2038400628F6D878
:1046C00062461702F068181842461743D026F605CE
:1046D00037430760221F90462A0E944666480668B4
:1046E000B268D01807680F2038400628F6D842462E
:1046F0001002F6689E1962461043D027FF05384322
:104700003060E21E9046280CC2B294465A480668B1
:10471000B268D01807680F2038400628F6D84246FD
:104720001002F6689E1962461043D027FF053843F1
:104730003060A21E9046280AC2B294464E480668CF
:10474000B268D01807680F2038400628F6D84246CD
:104750001002F6689E1962461043D027FF053843C1
:104760003060013CEAB2944643480668B268D0180B
:1047700007680F2038400628F6D82502F068181878
:1047800062461543D024E405254305604E683A4847
:104790000468A268D01805680F2028400628F6D8BB
:1047A000E068181836060660334800680068181874
:1047B00000680028F8D14F6A2F4C2568AA68D418E1
:1047C00026680F243440042CF6D8EC681C192C4DB4
:1047D0002560294D2C68E4681C19019A22602A681A
:1047E000D2689A181760244A1468A268D21815680B
:1047F0000F222A40062AF6D8E2689A18CA24E4054D
:1048000014604D6A1C4A11688A68D21814680F2215
:104810002240062AF6D8CA689A18CE21C90529432B
:104820001160184A9A58002AFBDB03B0F0BCBB4663
:10483000B246A946A046F0BD702294468CE64A686E
:1048400090460D480668B268D01807680F203840B7
:104850000628F6D8F068181842461606066006487C
:1048600000680068181800680028F8D11AE70648A0
:10487000DBE70548D9E7C046D85F010808000070AB
:104880000C000070F01000000B003200C005434225
:104890005841C0B270470000A0231B0698422AD09E
:1048A00014D8802829D008D980235B0098422AD0C8
:1048B0001B4B984209D01B4807E010281FD0402806
:1048C00001D1194801E000281BD17047174B9842CD
:1048D0001BD007D9164B98421ED0164B98421DD1BB
:1048E0001548F2E7154B984211D0154B984211D15B
:1048F000A420C003E9E70020E7E71248E5E71248F3
:10490000E3E70848E1E70648DFE71048DDE7A020D5
:10491000C003DAE70348D8E70D48D6E70148D4E7F3
:1049200006005200FF00520002005000030000F099
:10493000040000F0050000F003005200090000A090
:10494000010000F00500520001005000010052007B
:104950000200520010B50F4B1A683323D35C002BB2
:1049600000D101BE0B4B1C68BC23E358226A94465D
:1049700063441B68002B0BDB074B1868FFF78CFFA9
:10498000636801229A6063689B68002BFBD110BDAD
:104990000248FCE7D45F0108E05F01080200500014
:1049A00010B50400FFF772FF002801D1134810BDB5
:1049B000FBF700FE124B134A1A605C6000229A60FB
:1049C000DA60114B1A685423D35C002B10D003F02B
:1049D000FCFAFA21890004F031FA01000B4804F0D6
:1049E0002DFA0B4BC1188020400009F05DFADEE77C
:1049F00080200021400009F057FAD8E70600520055
:104A0000E05F01080001001CD45F010860F5900020
:104A10009808000070B504000D00FFF737FF00286C
:104A200027D0002D27D0FBF7C5FD144B144A1A6080
:104A300000225A609C60DD60124B1A685223D35CDE
:104A4000002B10D003F0C1FAFA21890004F0F6F926
:104A500001000D4804F0F2F90C4BC1188020400011
:104A600009F022FA06E080200021400009F01CFA3B
:104A700000E0074870BD0648FCE7C046E05F01085B
:104A800000010005D45F0108C0EA210148260000AA
:104A90000600520030B5134A11688B69C31ADB094E
:104AA00049691B01C91800230360812415682C5D26
:104AB00004192360822415682C5D04192360832463
:104AC00015682C5D04192360802415682C5D041979
:104AD0002360836114688422A25C801803600B60E9
:104AE0004B6030BDD45F010810B5072900D901BE65
:104AF0001F2314009C4300D001BE104B1B689C690F
:104B0000001BC0095B690001181803290AD8046852
:104B1000C9001F238B409C431F231A408A40224315
:104B2000026010BD04394468C9001F238B409C43B8
:104B30001F231A408A4022434260F2E7D45F0108F3
:104B4000F8B506000C0015001F0006AB1A780729FF
:104B500000D901BE0F232900994303D1012D01D0B3
:104B6000092D00D101BE012F00D901BE1F23110064
:104B7000994300D001BE21003000FFF7B5FF336834
:104B800001210A00A24093433940A14019433160FA
:104B9000074B1A688123D05C86193268A400723BE7
:104BA0001900A1408A432B40A34013433360F8BD52
:104BB000D45F0108072900D901BE012A00D901BE2E
:104BC00001238B40002A01D1436070478360FCE7DA
:104BD00030B50400072900D901BE0F231000984307
:104BE00003D1012A01D0092A00D101BE8900074B57
:104BF00018688123C05C00190468723B1D008D4059
:104C0000AC4313408B402343036030BDD45F0108A5
:104C100030B50300072900D901BE012A00D901BE21
:104C2000074804688220205CC018046801231D0026
:104C30008D40AC4313408B402343036030BDC046DE
:104C4000D45F010830B5082900D901BE012A00D976
:104C500001BE846901231D008D40AC4313408B408D
:104C60002343836130BD000030B50300082900D91B
:104C700001BE032A00D901BE49000748046880200C
:104C8000205CC018046803231D008D40AC43134012
:104C90008B402343036030BDD45F0108F8B5CE4696
:104CA000474680B507000E001400002800D1B1E08F
:104CB000002A00D1B0E0072900D901BE2368012BEA
:104CC00000D901BE63680F221900914303D1012B63
:104CD00001D0092B00D101BE237A1F22934300D0BB
:104CE00001BEE368032B00D901BE2369012B00D963
:104CF00001BE6369012B00D901BE236A012B00D9D3
:104D000001BE636A012B00D901BEA36A012B00D941
:104D100001BEE36A032B00D901BE236B072B00D928
:104D200001BEE369032B00D901BEA369012B00D9A1
:104D300001BE01252B00B3407000103003229146C4
:104D4000110081400B439C46344B984683234146D7
:104D50000968C95CC9190B68624693439C46A369FC
:104D60002B40B340624613439C46E2694B461340D6
:104D70001A008240634613430B60626831003800BA
:104D8000FFF726FF227A31003800FFF7ADFEE26818
:104D900031003800FFF768FF226931003800FFF763
:104DA00051FF626931003800FFF732FF43461A684D
:104DB0008423D25CBA1810687B3398469843236AE0
:104DC0001D40636A5B009C46022361460B401D4305
:104DD000A36A9B009C46042361460B402B43E16A77
:104DE000C90018250D402B43216B4D014146294038
:104DF0000B43B100FE25AD0029408B4003431360F7
:104E0000226831003800FFF7D5FE0020C0BCB9464B
:104E1000B046F8BD0248F9E70148F7E7D45F01085A
:104E200001005A00084B1A68BC23D3581B181B6892
:104E3000002B07DA0B0C00D001BE0904090C4160FD
:104E4000002070470148FCE7D45F010801008A0098
:104E50000368002B08DAC2600B0C00D001BE090405
:104E6000090C8160002070470048FCE701008A00BF
:104E700000290BD0074B1A68BC23D3581B181B689A
:104E8000002B05DAC3680B600020704701BEF1E714
:104E90000148FAE7D45F010801008A00034B1B6850
:104EA000002B00D07047014B1860FBE7046001083D
:104EB00070B5040023480068002840D021480568E8
:104EC0002C2060432818FF2425001D4005601E0A81
:104ED000344044601B0C83601B4B1C683323E35C31
:104EE0009D4200D301BE184B1C68BA23E35A6B43A2
:104EF000256AAC466344036143683425645DA3427C
:104F000000D301BE104C2468246A80335B01E4188E
:104F1000446183681D0C00D001BE1D0C00D001BE91
:104F20001B041D0C2B43A360C2610162002383613B
:104F3000049B002B02D000229B5E838170BD01BECA
:104F4000BCE7C04604600108D45F0108F0B58FB02B
:104F5000041E44D06368032B00D901BEE36A002B12
:104F60003FD0236B002B3ED007AA1300210061C95C
:104F700061C321C921C302AE230014333100A1CB88
:104F8000A1C121CB21C10821535E0CAD2B80174B51
:104F90001B681B8F079989B25B186B80089B0D9368
:104FA0000B9B0A980095A26AE16AFFF781FF069BB6
:104FB0000598002200920021FFF77AFF216B28005C
:104FC00003F078F80022AB5E002B06DB1F221340B3
:104FD0001E3A9A401300064A13600FB0F0BD01BE9E
:104FE000B8E701BEBDE701BEBEE7C046D45F010819
:104FF00000E100E0F0B504000800002A2DD01C49B3
:10500000096800292BD01A4909682C256C430C1912
:105010004543491901263500486885402D046068DC
:1050200086402769002F1CD0886900281BD13F6863
:10503000002F1ADA17683F043F0C17603D431560D4
:105040002569EA6001228A614B622369320C00D033
:1050500001BE3604360C9E60F0BD01BECFE701BE36
:10506000D1E70448F8E70448F6E70348F4E7C04608
:105070000460010804028A0007028A0070B582B049
:1050800004000023019300282BD02369002B2AD091
:105090006369002B29D0236A002B28D06369DD685F
:1050A0002A0C0BD012041A601B682069204B1A6866
:1050B000BC23D3581B181B68002B1ADB2D042A0CA9
:1050C000002D0AD063691A601B68636A002B2AD01E
:1050D0009847002363620023A36163691B6802B0E1
:1050E00070BD01BED1E701BED2E701BED3E701BE6C
:1050F000D4E701A9FFF7BCFE00280ED10198026891
:10510000160CFF231340E2699A4207D99B00226ADA
:10511000D358002B02D0984700E0002631002069C8
:10512000FFF780FECAE7A36A002BD4D09847D2E7E6
:10513000D45F010810B50200064B1B68002B07D096
:10514000044B18682C235343C018FFF797FF10BD7A
:1051500001BEF5E70460010870B50C001D4B1A682C
:105160003323D35C834230D9002930D00B68DB066F
:1051700001D019482AE03323D35C984200D301BE02
:10518000144B1B681D6ABA229B5A58432D18134EA4
:1051900035602368DA080021606805F022FA0021F2
:1051A0002800FFF73FFE306822000021FFF750FE85
:1051B000002801D00A4809E0084B18680021FFF7D1
:1051C00031FE002802D0064800E0034870BD0248C6
:1051D000FCE7C046D45F010803018A0008600108AB
:1051E00001018A0010B50B00002A05D0002A1DD04D
:1051F000002B15D10E4810BD0029F7D10D4A1168BA
:1052000033228A5C904200D301BE0A4A11680A6ABE
:10521000BA24095B4843121807490A601800EAE7F4
:1052200006490B604A60FFF797FFE4E70048E2E7B2
:1052300003018A00D45F01080860010830070008F4
:10524000F0B5C64600B50C00194B1B68DE68336824
:1052500083422BD947091F23184001258540002987
:1052600018D000239846124B18680368002B17DAF1
:105270007368BF00DF193B681D420FD0AB433B6032
:1052800000250021FFF7CEFD002C0BD0280080BCAC
:10529000B846F0BDFBF781F98046E4E7054DF0E73D
:1052A000054DF1E74046FBF77CF9EFE7034DEDE7ED
:1052B00008600108020188000301880004018A00D7
:1052C0000A4B1B68DB681A6882420BD941091F220E
:1052D00010401E3A8240586889000B581A4203D089
:1052E000034800E0034870470348FCE708600108F2
:1052F0000101880004018A0000018800074B1B6837
:105300009B6CC340DB0700D401BE044B1B681B69C8
:1053100010308002C3580F2018407047D45F010836
:1053200003681B050CD5802282239B00C358DB0534
:10533000DB0D934206D090239B00C15001207047A3
:105340004022F1E70020FAE7F0B5002800D16CE137
:10535000002900D16BE10B78022B00D901BE4B7BF9
:10536000023BDBB2062B00D901BE8B7B002B04D0A5
:10537000022B02D0032B00D001BE2123CB5C012BDA
:1053800000D901BE2823CB5C012B00D901BE0B78CC
:10539000012B07D98B7F002B09D04B68013B062BD3
:1053A00005D903E04B68083B082B00D901BE8B6888
:1053B000053B042B00D901BE4B69FF2B00D901BE70
:1053C0008B69FF2B00D901BE8B7C002B06D00B789C
:1053D000002B02D18B68092B74D001BE964B4C6B0D
:1053E0001C4200D001BE954BCC6B1C4200D001BECC
:1053F0000B78022B6AD04B685D1E0B7F002B6AD0A6
:1054000080235B028C68082C67D880242401234306
:105410000F242C4023438024A404234303600C6BFB
:1054200003681B055BD580239C4200D301BE8C6BB7
:1054300003681B0555D580239C4200D301BE4C6AEE
:1054400003681B054FD580239C4200D301BE0B7817
:105450001B06C024A404234003644B7F002B44D0CC
:1054600040238C7C002C42D08024E40023430C7C1D
:10547000002C3ED08024640023434C7C002C3AD086
:105480008024A4002343CC6A013C2404F0252D038E
:105490002C4023434D7B013D07242C4023438D7B2F
:1054A0002D0130242C40234383640B7B002B24D01C
:1054B00080246400CB7B002B21D10B78022B46D0BB
:1054C00000231EE08B7B002B88D086E78B7F002B90
:1054D00091D1002591E7002394E7002497E740232A
:1054E000A2E74023A8E74023AEE70023B9E7002462
:1054F000BCE70024C0E70024C4E70024DAE78023E7
:105500009B001C438B685D1E0F231D402C43C0264F
:10551000B6008451FF244D692C408D692D04FF276E
:105520003F043D402C43C425AD004451CC6A85590D
:105530002B4003339C4201D3102C00D901BECB7FFA
:10554000002B07D00B78012B5FD0002503E08023D0
:105550009B00D6E700254C7B013C072323402B43CF
:105560008D7B2D0130242C40234343640B7B002B87
:105570004ED080256D008B685C1E0F2323402B438B
:105580000C78012C46D0002423438024A40003512E
:10559000FF230C6B2340C124A40003512023CB5CC8
:1055A000002B3AD080239B0421240C5D012C36D0A3
:1055B0000024234328240C5D012C33D000242343F2
:1055C000FF244D6A25402B4303658B6B1C408123D0
:1055D0009B00C4501A4B4C6B23401A4C03511A4B7E
:1055E000CC6B2340194C0351002A22D00023536076
:1055F00013609360D3601362D3625363897F303347
:10560000D154134B93630020F0BD80256D00A2E7B9
:105610000025B0E780246402B6E70023C4E78024B5
:105620006404C6E780246402C9E70A48ECE7094835
:10563000EAE70020E8E7C04692F4FFFF8CF8FFFF9E
:105640006D0B0000C80F000073070000880F0000FA
:10565000EFCDAB000160AA00114B03600F3B036468
:10566000002383640822FF32C021890042500431A4
:1056700043500C31435043641139FF394250FD32DD
:1056800083500365074A8350074A8350074A835073
:10569000074A8350074A8350074A83507047C046E1
:1056A0000F000003C80E0000880E0000C80F0000A5
:1056B000880F0000080F0000480F000003685B001F
:1056C0005B080360002904D000234B600B600B6271
:1056D000CB627047F0B5C64600B58C680A68842373
:1056E000C3580F252B40073DED1A2300AC4226D9A5
:1056F0002B0024E055782D0216783543D6783606EF
:1057000097783F043E4335439827C55155792D027C
:1057100016793543A846D679360695792D042E4359
:1057200045463543C551D218E41A8423C3580F2582
:105730002B40073DED1A2300AC4200D92B00002B73
:1057400000D183E0082BD5D0012B24D0022B26D00A
:10575000032B2BD0042B33D0052B3ED0062B4CD063
:10576000072B5DD053781B0215782B43D5782D0677
:105770009678360435432B439826835153791B0280
:1057800015792B43D5792D0697793F043D432B435B
:1057900083510823C7E7167890254651C3E755780B
:1057A0002D021678354394268551BCE755782D0295
:1057B0001678354394268551967890254651B2E760
:1057C00055782D0216783543D678360697783F04FB
:1057D0003E43354398268551A5E755782D02167826
:1057E0003543D678360697783F043E4335439826AE
:1057F000855116799025465195E755782D021678F2
:105800003543D678360697783F043E43354398268D
:10581000855155792D02167935439426855182E7B5
:1058200055782D0216783543D678360697783F049A
:105830003E4335439826855155792D0216793543D7
:10584000942685519679902546516CE70A608C60C4
:10585000002C0CD1F924E400035901229343035195
:105860008A61CB69002B02D0CB690120984780BCAC
:10587000B846F0BDF8B50E004C69CA68C423C358D9
:105880000F21194023008C421CD90B001AE0D825A7
:10589000415911700F0A57700F0C9770090ED17093
:1058A00045591571290A5171290C91712D0ED57127
:1058B000D218E41AC423C3580F251D402300AC425C
:1058C00000D92B00002B6DD0082BE0D0012B1ED06F
:1058D000022B20D0032B24D0042B2BD0052B33D02C
:1058E000062B3ED0072B4BD0D821435813701D0AEE
:1058F00055701D0C95701B0ED37043581371190A07
:105900005171190C91711B0ED3710823D0E7D0216E
:1059100041581170CCE7D42141581170090A5170D7
:10592000C6E7D42141581170090A5170D02141585D
:105930009170BDE7D821415811700D0A55700D0CBA
:105940009570090ED170B3E7D821415811700D0A36
:1059500055700D0C9570090ED170D0214158117100
:10596000A6E7D821415811700D0A55700D0C95709D
:10597000090ED170D42141581171090A517197E76C
:10598000D821415811700D0A55700D0C9570090EF3
:10599000D170D42141581171090A5171D021415857
:1059A000917185E7F2607461002C0DD1F922D2006B
:1059B000835802218B4383500323B361336A002B46
:1059C00002D0336A032098477461F8BD10B50028EF
:1059D00032D0002932D0002B32D05A62F922D200C4
:1059E00083580324A34383500B78012B00D901BEB5
:1059F0000B7A032B00D901BE4B68072B00D901BEDF
:105A00000B7B012B00D901BE01230A6813408A6871
:105A10001203C024A401224013434A681204E02464
:105A2000E40222401343CA681206802149040A4056
:105A300013430360002010BD0248FCE70148FAE769
:105A40000048F8E70400B2004B1EDBB2012B04D97A
:105A5000042902D0082900D001BE032A00D901BEC2
:105A6000042920D008D801290DD002291AD1882371
:105A70001B019C4660440AE0082913D198231B01AE
:105A80009C46604403E080231B019C466044002840
:105A900008D0036806490B401204C02189020A405D
:105AA0001A430260704790231B019C466044EEE756
:105AB000FFFFFCFFF8B5DE4657464E464546E0B5CB
:105AC000070008009A460AAB40CB1B789B460CABFC
:105AD0001B78111FC9B2FA2900D801BE59460439F2
