S01C00006275696C642F64656275672F67656E657261746F722E7333379C
S21400000000100020790300008BB700008BB70000BB
S2140000108BB700008BB700008BB700008BB70000D3
S2140000208BB700008BB700008BB7000011010000F3
S2140000308BB70000E01401004101000083BD000002
S2140000408BB700008BB700008BB700008BB70000A3
S2140000508BB700008BB700008BB700008BB7000093
S2140000608BB700008BB700008BB700008BB7000083
S2140000708BB700008BB700008BB700008BB7000073
S2140000808BB700008BB700008BB700008BB7000063
S2140000908BB700008BB700008BB700008BB7000053
S2140000A08BB700008BB700008BB700008BB7000043
S2140000B08BB700008BB70000912E00008BB70000B6
S2140000C08BB700008BB700008BB700008BB7000023
S2140000D08BB700008BB700008BB700008BB7000013
S2140000E08BB700008BB700008BB700008BB7000003
S2140000F08BB700008BB700008BB700008BB70000F3
S2140001008BB700008BB700008BB700000000000024
S214000110074B19680868B0E8F04F80F30988BFF30A
S2140001206F8F4FF0000080F311887047AFF30080A8
S214000130C42E0020000000000000000000000000A8
S214000140EFF30980BFF36F8F154B1A681EF0100F80
S21400015008BF20ED108A20E9F04F10602DE9090055
S2140001604FF0600080F31188BFF34F8FBFF36F8F9F
S21400017003F054FC4FF0000080F3118809BC1968A6
S2140001800868B0E8F04F1EF0100F08BFB0EC108AF9
S21400019080F30988BFF36F8F704700BFAFF300800E
S2140001A0C42E002000000000000000000000000038
S2140001B001F0FF01102A2BDB10F0070F08D010F813
S2140001C0013B013A8B422DD010F0070F42B3F6D117
S2140001D0F0B441EA012141EA014122F007047FF030
S2140001E000070023F0E80256083C85EA010586EA87
S2140001F0010685FA47F5A3FA87F586FA47F6A5FAC3
S21400020087F68EB9EED1F0BC01F0FF0102F00702CE
S21400021032B110F8013B013A83EA010313B1F8D179
S2140002200020704701387047002D06BF354603385A
S214000230073815F0010F07D1013015F4807F02BF93
S214000240013015F4C03F0130F0BC0138704700BFE4
S2140002500348044B834202D0034B03B11847704750
S214000260A8200020A8200020000000000548064B1B
S2140002701B1AD90F01EBA301491002D0034B03B19F
S21400028018477047A8200020A82000200000000083
S21400029010B5064C237843B9FFF7DAFF044B13B1C9
S2140002A00448AFF300800123237010BDA443002050
S2140002B0000000009827010008B5054B1BB1054952
S2140002C00548AFF30080BDE80840FFF7CFBF00BF8A
S2140002D000000000F820002098270100A3F5803ACF
S2140002E0704700BF174B002B08BF134B9D46FFF708
S2140002F0F5FF00218B460F461348144A121A10F0D9
S21400030016FB0E4B002B00D098470D4B002B00D051
S21400031098470020002104000D000D48002802D058
S2140003200C48AFF3008009F0B9FB2000290010F05C
S21400033057FA09F06DFA00BF000008000000000040
S2140003400000000000100020A8200020706C002094
S2140003500000000000000000054A06490346106839
S21400036003448B4294BF13604FF0FF30704700BFCA
S214000370041000200000012008B500F073F8124BAE
S21400038012498B4212D3124B124900208B4218D3CB
S214000390FFF7A8FF186850F82240586840F8224037
S2140003A0013298688242F5D30C33EAE70022F8E778
S2140003B01C6844F8220001325C68A242F8D3083375
S2140003C0E4E70022F8E700BFA0270100AC27010001
S2140003D0AC270100AC2701000048704700F0490236
S2140003E0104AD2F8943003F00703023B032B13D8CD
S2140003F0DFE803F00C14020E0B4B1B68D2F800016A
S214000400C0F304200130B3FBF0F07047074BF4E76D
S214000410074B1B685B08F1E7054BEEE74FF400431C
S214000420ECE700BF00400E40101000201410002023
S2140004300810002008B5FFF7D3FF054BD3F80831A6
S214000440C3F308230133B0FBF3F0024B186008BD7A
S21400045000400E400C100020014B1868704700BF8B
S21400046014100020044B054A9A60D3F8882042F402
S2140004707002C3F88820704700ED00E0000000001E
S214000480014B1868704700BF1010002070B594002C
S214000490224605460E460BF010FA431C0AD058B901
S2140004A022463146284610F018FA0028034808BFAE
S2140004B0002070BD0248FCE70248FAE710E000F0B2
S2140004C021E000F024E000F010B5044600F0A6FF9E
S2140004D0431C10D088B901F053F820F003002346DF
S2140004E02044984201D1002010BD53F8042B01325D
S2140004F0F7D00348F8E70348F6E70348F4E700BFF9
S2140005000EE000F021E000F024E000F00C4B9842F2
S21400051005D90C4B984210D80122012301E0002295
S214000520134609490B640949D1F8003123F080735A
S21400053043EA0263C1F8003170470222EDE700BFCC
S2140005400048E8010090D0030000C84300400E4079
S2140005500F4B5B680F4B30B500221C46C9B21D79A5
S2140005608D4202D11D6885420DD20132052A03F163
S2140005700803F4D10321064A536823F0407343EA84
S2140005800163536030BD04EBC2046179F3E700BF3A
S21400059000000E407015010070B5084C41F671362B
S2140005A0256C2664FFF718FF0021FFF7D1FFADB2D8
S2140005B0B5421CBF0023236470BD00BF00000E4080
S2140005C0044BDB6B5B0604D4034AD2F8C830002B1E
S2140005D0FBD1704700300E400000C64308B5FFF759
S2140005E0EFFF024B5868C0F3014008BD00300E40D4
S2140005F0044BD3F84421D20703D4D3F84021104249
S214000600FBD1704700400E4070B5064C41F671367F
S214000610256C2664FFF79CFFADB2B5421CBF0023D5
S214000620236470BD00000E4038B5C0F30323013BC1
S214000630092B11D8DFE803F0052710102B221D1018
S2140006401511154DC0F3043405F1424505F5801526
S21400065004EBC5008000016038BD104DC0F30434C3
S214000660F2E70F4DC0F304344FF48030FFF7C0FFBD
S214000670EAE7C0F304340B4D1020F7E7C0F3043468
S214000680094D0120F2E7094DC0F30434DCE7084DBC
S214000690C0F30434D8E700BF00400E4050410E407F
S2140006A0F0400E40E8400E40E0400E40C0400E4095
S2140006B0B0400E40C0F30313013B092B2AD8DFE8F5
S2140006C003F0050B0F1929291F23374B274BD3F8A7
S2140006D00001C0F304207047244BD3F81401F8E758
S2140006E0224BD3F80031C3F3006301330120984056
S2140006F0013870471D4BD3F80C01C0F30820704733
S2140007001A4BD3F80801F8E7194B984204D0194B56
S214000710984207D000207047144BD3F8203103F0DE
S2140007200F03E3E7114BD3F82031C3F30113DDE7E2
S214000730114B98420CD003F5B01303F58053984242
S214000740E8D10A4BD3F82831C3F301230433CDE7AD
S214000750064BD3F82831E8E7084B9842DAD1034B2A
S214000760D3F8300100F00300704700BF00400E4091
S2140007708006160080162E0090171A00A009140096
S21400078000F00F000138072850D8DFE800F0041505
S214000790244F34384F402B4BD3F8943003F00703E4
S2140007A0023B052B06D8DFE803F049243F03054348
S2140007B00B20704705207047224BD3F8800000F0CE
S2140007C0070002283DD0042836D0012808BF0320A1
S2140007D018BF012070471B4BD3F8843003F0070383
S2140007E0013B032B03D8DFE803F0041F2527012075
S2140007F0704703207047134BD3F88800DFE7114B90
S2140008001B6F13F0010F0CBF0720092070470D4B1C
S214000810D3F85C3103F03003202B0FD0302B0FD0F1
S214000820102B08BF0720D3E7022070470020704730
S2140008300C207047062070470A2070470420704737
S2140008400820704700400E4008B50146FFF798FFA5
S2140008501A4B994211D01A4B994212D0194B994211
S21400086004D1194BD3F8800000F0070001380328A4
S21400087021D8DFE800F00A0E1612134BD3F88400D6
S214000880F2E7114BD3F88800EEE7BDE808400AF01F
S2140008907DBFBDE80840FFF7F3BDBDE808400AF09D
S2140008A078BFFFF79DFD084BD3F80031C3F3006314
S2140008B00133D84008BD0020FCE700BF030020003D
S2140008C00500240002001E0000400E4000F47813CD
S2140008D0B3F5B01F10B5044674D025D8B3F5402F35
S2140008E05ED010D8B3F5802F49D005D83BB1B3F50C
S2140008F0003F4FD0002010BDB3F5202FFAD1BDE841
S2140009001040FFF76DBDB3F5801F00F08480B3F58F
S214000910A01F4DD0B3F5602FECD14A48FFF730FF4B
S214000920072878D00928E9E7B3F5381F53D013D83D
S214000930B3F5001F58D00AD8B3F5D01F56D0B3F57C
S214000940F01FD7D14048BDE81040FFF77DBFB3F594
S214000950101FCFD13D48F6E7B3F5481F4DD0B3F58D
S214000960781F65D0B3F5401FC4D13948FFF76CFF38
S214000970384BD3F82831C3F30123043320E0FFF7C4
S2140009802FFD344BD3F80C31C3F308230133B0FBEF
S214000990F3F0B0E7FFF724FD2E4BD3F80831F3E76A
S2140009A0FFF71EFD2B4BD3F81431C3F30423EDE7FA
S2140009B02648FFF749FF274BD3F8303103F00303EF
S2140009C0D84098E72048FFF73FFF224BD3F8203166
S2140009D003F00F03F4E71C48FFF736FF1D4BD3F870
S2140009E02031C3F30113EBE71948ACE71848FFF7CB
S2140009F02BFF184BD3F82831F3E71748FFF7C0FE54
S214000A00072808D0082809D004287FF473AFBDE86B
S214000A101040FFF721BD114B18686CE7FFF7E0FCAC
S214000A200C4BD3F80031C3F3042303FB000062E74A
S214000A30FFF7D6FC014620460AF0DFFEB1FBF0F0D9
S214000A4059E700BF06000E0002001E000500240045
S214000A500300200000400E40B800320018100020AE
S214000A6010B5042813D8DFE800F047032F13210041
S214000A70294AC1F30801D2F86838002BFBD1274A6F
S214000A80136A23F4FF7323F001030B43136210BDB4
S214000A90214A01F07F01D2F86038002BFBD11F4AB3
S214000AA0136923F07F030B431361F0E71A4A01F042
S214000AB07F01D2F86438002BFBD1184A936923F0E3
S214000AC07F030B439361E2E7144AD2F89030536AEF
S214000AD023F0300343F010035362146B104BC1F342
S214000AE0C31003300F2803EA040328BF0F200B436C
S214000AF043EA00731363CAE74F29074A28BF4F210A
S214000B00D2F87438002BFBD1044A936B23F07F0392
S214000B100B439363BBE700BF0020C84300400E4072
S214000B2000F8FF0F104A536A13F0300F18D0202930
S214000B3013D0302914D000290C4B08BF4FF44003C3
S214000B40D2F8901033EA0101FAD15B0246BFD2F820
S214000B50A000C0F38020012070474FF40003EFE7A9
S214000B604FF44003ECE700BF00400E40FF33E107C0
S214000B7002280AD129B1064B4FF48060C3F8A800BA
S214000B80596612B10220FFF7CDBF0120704700BFA3
S214000B9000400E400428F8B548D8304B13F800C083
S214000BA02F4B1D5C2F4B33F810702F4B33F8104033
S214000BB02E4B002940D0022839D15C6A14F0300F41
S214000BC035D12B4CE46B5C6AE40705D55E6A26F0EB
S214000BD0300646F010065E62264C244B25441F66FF
S214000BE0AD002B68002BFCD002B36444A40023683D
S214000BF0002BFCD0022819D1C1B11C4D696A11F036
S214000C00010116D001222021FFF7B2FFD5F89C6023
S214000C10012200210220FFF7BDFFC6F30A010220D1
S214000C20FFF71EFF2F662368002BFCD0F8BD0021BF
S214000C30D2E7FFF777FFE9E701211C66A940D3F862
S214000C4090000842FBD1002AF0D00123074903FA9E
S214000C500CF3D1F890201A42FBD1E7E76B150100A0
S214000C60661501005C1501005215010000400E409B
S214000C7000300E408004F2101C4B70B51C681C4BF4
S214000C809C4221D81B48FFF741FC01221146032055
S214000C90FFF780FFFFF780FC0024174B01265E67F6
S214000CA0FFF79EFBFFF732FCFFF7C4FB0546FFF796
S214000CB095FC01462846FFF7A7FCB4B93146204606
S214000CC0BDE8704000F0C4B80021204600F0C0F82F
S214000CD00848FFF71BFC012211460320FFF75AFFC6
S214000CE0FFF75AFCFFF76CFCD7E770BD0810002032
S214000CF0002D31010148E80100400E40034BD86B3F
S214000D0080F04000C0F38010704700BF00300E40F7
S214000D1042EA0322B2F5007F10B5194C29D00AD852
S214000D20B2F5807F22D040F201139A4215D062B904
S214000D30D4F81C320BE0B2F5407F1DD040F20133F0
S214000D409A4210D0D4F8283201E0D4F82432C3F303
S214000D500722DBB203600A6010BDD4F824321A0EF4
S214000D60C3F30743F6E7D4F82832F8E7D4F81C3282
S214000D70F5E7D4F82032EAE7D4F82032EFE700BFF0
S214000D800081E00F08B5FFF7B9FF20B1024AD2F89C
S214000D90C830002BFBD108BD0000C6430E4A0379BD
S214000DA0916921F03F010B43017843EA81034178C2
S214000DB043EA4103817843EAC103C178012908BFA9
S214000DC043F0010393611368417923F4403343EA07
S214000DD001431360704700BF00300E402DE9F0411C
S214000DE004460D46FFF78AFF60B3DFF86080FFF722
S214000DF0C9FFD8F80430C3F301439C4222D0124BFB
S214000E00D3F80031FFF7ECFA022C07464FF0100635
S214000E1009D12146FFF7F8FBC8F8106095B1BDE888
S214000E20F041FFF7AFBFC4F102039E40C8F8106060
S214000E300DB1FFF7A7FF2CB921463846BDE8F041B3
S214000E40FFF7E2BBBDE8F08100400E4000300E40E8
S214000E5038B505460C46FFF751FFB8B145B90C4BFF
S214000E60D3F80051FFF7BCFAC5F3042505FB0005CF
S214000E70084B1B7821463BB1074B9D4204D8022005
S214000E80BDE83840FFF7AABF0020F9E738BD00BF2D
S214000E9000400E40A5430020002D3101234B4AF6AA
S214000EA0E85210B5596B5A639A6FD207FCD41B6C84
S214000EB013F0030306D01E4A01249842C2F8B44A2F
S214000EC01AD110BDA0B1431E012B17D8174A4FF4F4
S214000ED00023D362936FDB07FCD4136C23F0030369
S214000EE043F001031364114A536A1C03FCD505E062
S214000EF00F4BC3F8B40AE4E7032BE4D00B4B9A6F0E
S214000F00D207FCD41A6C22F0030202431A649A6FCA
S214000F1012F00102FBD10038054C18BF0120012950
S214000F20C4F8B40A08BF5A63CBE700BF00300E40CF
S214000F300000C6432DE9F04F00238BB0CDE9043303
S214000F40CDE90633CDE90833A0F5E163B3F5966F36
S214000F5005460191934603D900200BB0BDE8F08FFB
S214000F60624BDFF88C81D3F81842B0F5E16F15BFFD
S214000F704FEA146AC4F3072AC4F30744E4B206949B
S214000F80CDF824A0D8F84C60C6F301768CBF0122B9
S214000F900022334607A904A815BF4FF4E1674FF4B3
S214000FA096674FF496694FF416790392FFF7B0FEF2
S214000FB0D8F8EC30039AC3F3012308A905A80293D6
S214000FC0FFF7A6FEA5EB070CAAEB04020CFB02F249
S214000FD0B2FBF9F214445445079F0498089A059901
S214000FE0BAD8A2EB010E0CFB0EFEBEFBF9FE11EB0F
S214000FF00E012CBF4FF0010E4FF0000E8A42ABD30D
S214001000BEF1000FA8D13A1A0CFB02F2B2FBF9F2BD
S21400101080182CBF0122002287429DD3002A9BD134
S214001020029BBBF1000F0FD0D8F85C20B5F5E16746
S21400103022F4FE4218BF012722F0020242EA4702CB
S21400104042EA0422C8F85C20019A0AB9012084E723
S214001050264A022ED2F830223ED0032E3FD0012E52
S21400106014BFD2B2C2F30722120312F4702F7FF419
S21400107073AF1F4EF46E24F470442243F2661B4A8C
S214001080022BD2F830222CD0032B2DD0012B14BFEC
S214001090D2B2C2F30722120312F4702F7FF45CAFB1
S2140010A0134CD4F8EC3023F470431343C4F8EC30FC
S2140010B0636E884238BF084623F4FF73E72823F0A0
S2140010C0010328BFE720B5F5E16F18BF43F0010321
S2140010D043EA40036366B9E7C2F30742C4E7120E69
S2140010E0C2E7C2F30742D6E7120ED4E70081E00F4C
S2140010F000300E402F4B1A6FD96C11F0010F02F022
S214001100060242D0002A40D013284FD9143813289C
S2140011108CBF102308232749013BCA6C180322F40E
S2140011207F4240EA03231343CB64234BCA6C1B88DD
S214001130C2F303222833013202EB820003EB53038F
S214001140B3FBF0F3C86C013B072B28BF072320F046
S214001150EE6040EA036343F48013CB64174BB3F9A5
S2140011600030002B10DB2833500800EB420203EB64
S2140011705303B3FBF2F30A6D072B28BF072322F0B5
S214001180700242EA03130B657047D96C01F0010147
S214001190114304D1092809D90A380928B8E7DB6CB5
S2140011A013F00103B7D01AB92728B1E70423B2E732
S2140011B00023B0E700300E40A04300209C430020F0
S2140011C0064A074BD3F88039136F23F0070303430F
S2140011D01367044B1888FFF78DBF00BF00300E4022
S2140011E00000C6439E430020394B02222DE9F04101
S2140011F09A639B6B03F00F039342044603D00025CB
S2140012002846BDE8F081C288B0F808808588B0F925
S2140012100C6047784A2A4ED9B2F5FA7F4DD340F68D
S214001220C3139A428CBF4FF040524FF000522849E9
S214001230CB6C23F0405323F00103002EA8BF43F0ED
S21400124001031343CB64D1F8EC3043F44073C1F888
S214001250EC30204B1D80CB6E43F08073CB661E4B6C
S214001260D3F8800900B10420FFF7AAFF1B4BA3F8B0
S21400127000801B4B28461E80FFF73CFFA37BFBB17C
S214001280012B21D0012260881146FFF753FE054648
S2140012900028B4D00E4AD36B43F48063D363384639
S2140012A0FFF7FCFDA37AA3F12002534253410A4AFA
S2140012B0C2F89437A4E70022B9E74FF08052B6E7A9
S2140012C0034B084A9A65DDE7014B074AFAE700BF79
S2140012D000300E409E4300200000C643A04300207E
S2140012E09C43002077402057372110B7054B5A689B
S2140012F05B68054B41F671321A649A6822F0010267
S2140013009A60704700300E4000000E40034B9A680B
S21400131022F001029A6000221A64704700000E4014
S214001320094A0A4BD969C90705D512B96FF00200F8
S2140013307047013AF6E7002AF8D001221861DA6011
S214001340D86940F3800070478096980000000E40F1
S21400135070B509B9002070BD0E4A0023082550F864
S214001360234094610C4CD5600133D669F60705D549
S21400137014B96FF00200EEE7013CF6E7002CF8D057
S214001380D469A40702D49942E9D1E3E76FF00100DB
S214001390E1E700BF00000E40809698002DE9F84374
S2140013A01C4B0D4641F671311E6C19641A49804675
S2140013B048684968996841F00101B6B29960970893
S2140013C04FF00009B94501D3002005E008EB890479
S2140013D02046FFF7A5FF48B10E4B9A6822F001029F
S2140013E09A600EB100221A64BDE8F883C4F30A01BD
S2140013F0C1F500618908A7EB0903994228BF194681
S2140014002846FFF7A5FF0028E6D1894405EB8105AD
S214001410D8E700BF00000E4000300E40234B41F6D8
S21400142071311A6C10B5196421494C68496899687D
S21400143041F00101996001211861D960D9694C0712
S21400144092B209D5996821F0010199600AB100228B
S2140014501A644FF0FF3010BD0221D9601549D869D3
S214001460C00700D569B9D86910F002000BD099689A
S21400147021F0010199600AB100221A646FF00100A0
S214001480E9E70139EBE741B9986820F00100986078
S21400149002B119646FF00200DDE7996821F00101DE
S2140014A099600AB90020D6E71864FBE700000E40F2
S2140014B000300E40809698008B784A789B0143EA6D
S2140014C082030A781343CA7843EA02130A7943EA86
S2140014D0C2234A7943EA02338A79043043EA424314
S2140014E00001014A1350704700200440014B186069
S2140014F0704700BF00008442437882789B0043EA2E
S214001500021302781343C27843EA4213027943EA8D
S2140015100223427943EA0233827943EAC233C2792C
S21400152043EA0243027A43EA4243014A13607047A1
S214001530002004400D4AD2F8E430D2F8E0109B00B8
S21400154003F03C03C1F381110B438370D2F8E03003
S21400155003F03F034370D2F8E830D2F8EC2003F0F3
S214001560F003C2F3031213430370704700FF0FE04B
S214001570024BD3F8FC00000E704700BF0081E00F5E
S214001580044BD3F8E4301B0E0A3303F01F0301208C
S214001590984070470081E00F00230C4A036003293F
S2140015A010B50263044643630ED105210AF06FF9B5
S2140015B0636823F4407343F400736360636823F442
S2140015C0406343F40063636010BD00BF200010005A
S2140015D02DE9F04F1E460446894692461F460FCE1A
S2140015E08BB001AD0FC596E80F0085E80F0000250B
S2140015F009950AF007F95146064604F582700AF086
S21400160025F9494604F584700AF020F9394604F5B0
S21400161086700AF01BF930460AF0F8F85F4E604B09
S214001620DFF8BC91DFF8BCA12365DFF8BCB10AF097
S214001630E9F8C4F850B0D4F814800AF0E7F818F0C7
S214001640807F19D0574B23650AF0DCF8C4F850B0F9
S21400165065690AF0DBF8EB0140F188800AF0D2F801
S2140016601499054604F588700AF0F8F828460AF03A
S214001670CDF80BB0BDE8F08F18F4807F1CD14A4B34
S2140016802365013D9023A360636913F4807F474B75
S21400169023650ED00AF0B6F83946834604F5807006
S2140016A00AF0D4F858460AF0B1F8414B2365414B8E
S2140016B063658823A360B8E7002D13DA3E4BC4F8B1
S2140016C050A063650AF09EF801A9834604F5807071
S2140016D00AF0C4F863695846C3F3034309930AF053
S2140016E095F86D42354B23656369DFF800C113F446
S2140016F0407F4FF08803A3604FF0010162692665C2
S21400170061656369C4F850C00ABF01204FF0FF301E
S21400171005F1FF358842C3F30723C2F300220BD13D
S21400172032B1D90704D5264B2365264B6365A9E756
S214001730254B2365254BF9E79AB9DA0711D5244BD3
S2140017402365244B6365A16501A904F580700AF042
S2140017507DF8099B03F00F03C4F848318323A36088
S21400176090E71D4BC4F850906365EDE70AF04AF821
S21400177004F580763946054630460AF067F828466E
S2140017800AF044F8154B23650AF03CF81499044611
S21400179030460AF063F8204669E700BFC93E8198E4
S2140017A03084880198390100C93E8101D23E820109
S2140017B0C024D0340982010099830100D9080100B1
S2140017C0C8340981E20C8201C80881E20C8201005B
S2140017D083D9341181E21482E2148201E010010000
S2140017E083D9108190A2848835393801DB3E010008
S2140017F02DE9F04F89B081460D461646002120227D
S21400180068461F460FF093F84FF00A0A99F8003022
S214001810022B40D0032B07D0012B44D06FF0710B66
S214001820584609B0BDE8F08F202269463846B047D2
S2140018308346BBF1000FF3D100F020FB99F80010AF
S2140018400446FFF7A9FE09F0DDFF6946804604F569
S214001850827009F0FBFF404609F0D8FF374B23653E
S21400186020460AF02CF809F0CDFF04F58078834670
S2140018706946404609F0F2FF584609F0C7FF009B4C
S214001880012B18D8204600F03BFBBAF1010ABDD167
S214001890DFF8BCB0C4E71C2269463846B0470023D0
S2140018A083460793C5E7182269463846B0470023A3
S2140018B083460693F5E709F0A5FF05F10C070646F3
S2140018C0294604F5847009F0FEFF05F1180939462B
S2140018D004F5867009F0F7FF494604F5887009F0AC
S2140018E0F2FF304609F092FF154B2365204609F0BB
S2140018F0E6FF494640460AF01BF88346C8B9114B36
S2140019002365114B6365204609F0D9FF29464046FA
S2140019100AF00EF8834660B90C4B23654FF48E73BD
S2140019206365204609F0CBFF394640460AF000F8CA
S2140019308346204600F0E4FA72E700BF30C80C0188
S21400194081E11C018CE11C81D11C0100E11C81D9C4
S21400195000B3FFFF2DE9F843064610460F469046B3
S2140019601D460CF043FE28B129463846BDE8F8432C
S2140019700CF00FBE2B6A002B40F0AD8000F07EFA14
S21400198031780446FFF708FE09F03CFF04F5807640
S21400199008F118018146304609F095FF484609F0DF
S2140019A035FF574B236540F281136365204609F0E7
S2140019B086FF09F027FF29468146304609F083FF57
S2140019C0484609F023FF4F4B2365012320466365F5
S2140019D009F075FF4C4B236509F071FF09F012FF03
S2140019E005F10C018146304609F06DFF484609F0C6
S2140019F00DFF464B2365204609F061FF09F002FF04
S214001A0008F10C094946054604F5827009F05BFFAB
S214001A10284609F0FBFE3E4B2365204609F04FFFA3
S214001A2009F0F0FE41460546304609F04CFF2846D0
S214001A3009F0ECFE374B2365374B6365204609F00B
S214001A403EFF07F11801304609F072FF05460028F0
S214001A503BD1324B2365204609F031FF304B2365DE
S214001A6009F02DFF2F4B236509F029FF2E4B236528
S214001A704FF48A73636509F022FF2C4B236509F047
S214001A801EFF3946304609F053FF0546E8B9284B95
S214001A902365284B6365204609F011FF09F0B2FE66
S214001AA049460546304609F00EFF284609F0AEFEC8
S214001AB0214B2365214B6365204609F000FF07F1A3
S214001AC00C01304609F034FF0546204600F018FAAF
S214001AD02846BDE8F88328460CF088FD08B1414644
S214001AE043E72B6A002B3FF449AF012105F11800AC
S214001AF00BF069FC00283FF441AF114DE8E700BF4A
S214001B008184E11C83D91C83E11C810182D11C01E4
S214001B10C81482019983D91481E11C018CE11C014F
S214001B20811C8401D91C830191D11CE0D8141401B6
S214001B3081CB1481D11C820181E11C84E214010056
S214001B4080B0FFFF2DE9F04788B0904605460F4667
S214001B5000F094F92978DFF854910446FFF71CFD4D
S214001B6009F050FE04F5807608F118010546304667
S214001B7009F0A9FE284609F049FE40F28313C4F88E
S214001B8050902046636509F09AFE09F03BFE08F186
S214001B900C010546304609F096FE284609F036FE4A
S214001BA04FF0010A354B23652046C4F854A009F0CF
S214001BB086FE07F11801304609F0BAFE05460028F1
S214001BC054D12F4B23654FF486736365204609F086
S214001BD076FE09F017FE4146054604F5887009F0C2
S214001BE072FE6946304609F039FE284609F00EFEB8
S214001BF0244B2365244B6365244BA365204609F0DC
S214001C005EFE234B2365234B636509F058FE224B8B
S214001C102365224B6365C4F858A009F050FE394688
S214001C20304609F085FE054600BB1D4B23651D4B5F
S214001C306365204609F043FE09F0E4FD6946054663
S214001C40304609F003FE284609F0E0FD164BC4F8BE
S214001C50509063654FF48A73A365204609F02FFE03
S214001C6007F10C01304609F063FE0546204600F0F9
S214001C7047F9284608B0BDE8F08700BF821CC00CB4
S214001C8091D11CC0C00C81E11C82DC0C8114840143
S214001C90E11C81C80C0C8101D20C848BD91CE01489
S214001CA084E21482D11C8301C00C82D38182D11CB1
S214001CB02DE9F047A2B00E46054600F0DFF815F80D
S214001CC0041B044606F11807FFF766FC1C220021D9
S214001CD003A80EF02CFE4FF0010839460AA80DF1B5
S214001CE06809CDF8088009F070FE294612A809F0A8
S214001CF06CFE12AB0AAA02A9CDF800902046FFF7A8
S214001D0067FC09F07FFD4946054604F5867904F52B
S214001D10827009F09BFD06F10C0A3146484609F030
S214001D20D2FD514604F5887009F0CDFD284609F02D
S214001D306DFD134B2365204609F0C1FD114B23654D
S214001D4009F0BDFD104B236509F0B9FD0F4B236567
S214001D5009F0B5FD514604F5807009F0E9FD58B963
S214001D603146484609F0E4FD30B9204600F0C8F890
S214001D70414638460BF062F922B0BDE8F08700BF56
S214001D808AD11C0181D91C0183D11C0181E11C016F
S214001D9008B5064A064B00290CBF1146194600F046
S214001DA0E1FBBDE8084009F036BE00BF09000002AE
S214001DB00800000238B5124D124B134A1349144856
S214001DC005F044F82B7803F0FF04BBB901F098F84F
S214001DD0012802D901F0C8F804462B782BB90D4B20
S214001DE00D481B68984701232B7001F089F80128DD
S214001DF004D92046BDE8384001F0D8B838BD00BF49
S214001E00A64300207DBA0000A3BA0000EBBA00008B
S214001E10CDBA00004810002040300020F8B5134E20
S214001E20337843B901F06CF80128054604D901F06F
S214001E309BF8041E11DAF8BD337803F0FF04002B7C
S214001E40F9D10B4F0B483B6898473B680A489847C0
S214001E5001239D42337003D8EDE73378002BF0D092
S214001E602046BDE8F84001F0A1B800BFA743002017
S214001E7048100020C421002028220020F8B5FFF7D3
S214001E80CDFF01F03DF80228184D194E12D1194F1A
S214001E900021386E01F002F9044660B101F030F816
S214001EA0022805D1D7F8C400002101F0F7F828B9B8
S214001EB0012400E0002455F8340058B934680D4A6F
S214001EC00D4B04F0010464201B6800FB04209847B7
S214001ED055F83400094B05EBC4056A6813449B00AB
S214001EE001221A60336813443360F8BD9815010068
S214001EF0C0210020C4210020401000208005F210E0
S214001F000D4B984214D003F58063984212D10122FB
S214001F100A4B03EBC20364205968094B0B449B0031
S214001F2000211960074B08491B6800FB0210184780
S214001F300022EDE7704700BF00000F409815010033
S214001F408005F2103C100020C421002000F01F0283
S214001F50A0F50620A0F550604009084901239340EB
S214001F6051F820201A4341F82020054951F8202036
S214001F7022EA030241F82020704700BFA02200207A
S214001F808C220020A0F50623A3F550630D4A5B09BA
S214001F9000F01F000121814052F82300014342F85F
S214001FA023100949D1E90030034488680344C8680F
S214001FB0096903445B1802BFC2E90033C2E9023371
S214001FC0136170478C220020A02200202DE9F04FDC
S214001FD0A9B0CDE90401339E03921D460446414054
S214001FE0082221FA02F34B40980702F1080218BFB4
S214001FF09B00202A1C44F4D18123B4FBF3F303EBAB
S214002000C313E41A734B1B7804F5062404F55064D6
S214002010002B3ED107F0F4F9074620B16FF091008F
S21400202029B0BDE8F08F0146402208A80EF07FFCDC
S2140020304022394618A80EF07AFCDFF8B481DFF8A3
S214002040B491C3460BF10F0ACDF800A0102208A9E0
S214002050D9F800005B460FF0A7F808F11008014613
S21400206008AF0022914246D1CDF800A05B46D9F8D1
S2140020700000102218A90FF0A0F818AF83464FF002
S214002080000AD34541D1544B9845DAD1514B012231
S2140020901A70DFF864B14FF0810A4FF00008A4F51B
S2140020A00627A7F550635B0904F01F015BF82320A1
S2140020B0CA40D2073DD4494A52F82330CB40DB070A
S2140020C02AD5B8F1000F08BFA046A7F6FF47812320
S2140020D0B7FBF3F303EBC313FF1A07F50624BAF1B5
S2140020E0010A04F55064DAD1039BBBB1B8F1000FC6
S2140020F014D0444619E057F8040BCDE90612FFF752
S21400210025FF079A06990132ACE757F8040BFFF74C
S21400211039FF0AF1010AB4E7039B13B96FF08B008D
S2140021207EE7B8F1000F18BF4446349B00201C60C1
S21400213076E7329B13B1329A002313600EB1002368
S21400214033601023DFF8AC900093D9F8000000232A
S2140021502A46214609F0E8F860BB32992A68204BE7
S214002160C9B99A4206D0D9F80000214609F076F996
S2140021700028D3D1D5E90223DDE90410834208BF45
S2140021808A42A2D1039B002BCFD06B68012BCCD107
S2140021906FF0840044E7329910209A420860E2D13A
S2140021A0002EE7D0D9F80000334618AA214609F0D9
S2140021B00FF948B10B4B9842D5D00B4B9842D2D072
S2140021C00A4B9842D6D029E7329A336812689B1A8F
S2140021D03360CFE7A8430020007108008C2200205F
S2140021E0105D175EFFDF00F011E000F0FEDF00F08C
S2140021F0006D080060100020A022002070B5104D71
S2140022002B7803F0FF04ABB900F07AFE012802D960
S21400221000F0AAFE04462B782BB90A4B0A481B6826
S214002220984701232B7000F06BFE012802D9204648
S21400223000F0BCFE054B04481B68BDE8704018471C
S214002240A943002048100020B4220020401000209F
S214002250034B1B781BB1034B03481B68184770479A
S214002260A94300203C100020B42200202DE9F04FA6
S21400227087B08246DDF840B08946984616462AB1B1
S214002280002B53D040F26C739A4252D8BBF1010F28
S21400229052D806F11007002439460120059409F0AB
S2140022A053FD054600284AD021463A460EF03FFB2D
S2140022B0FFF7A4FF05ABCDE9014300942B460122AE
S2140022C050464946FFF782FE044690B110F18C0F47
S2140022D008BF6FF08D043A46002128460EF027FB13
S2140022E0284609F041FDFFF7B3FF204607B0BDE8DA
S2140022F0F08F144B2B60C5E902A9C5F804B02EB1C7
S2140023003246414605F110000EF045FB059E0E488C
S2140023103B4600682A46314608F06EFF18B930463C
S214002320FFF714FED7E76FF09104D4E76FF086044A
S214002330DBE76FF09104D8E76FF08504D5E76FF020
S2140023408C04D2E7105D175E601000202DE9F04780
S2140023508CB0DDE9147881460C4616461D466BB1F6
S214002360B8F1000F49D0002F47D0B7F1005F44D333
S214002370C3F1005303F580339F423ED8102200215C
S2140023804FF0000A08A80EF0D2FACDE905AAFFF72A
S21400239035FF07AB029305AB019306AB00932146CE
S2140023A008AB52464846FFF711FE0446D0B9059BD7
S2140023B03DB1B3421CD853EA060504D06FF086043C
S2140023C010E0B342FAD3069B0D48C8F800500095BB
S2140023D00799006833443A4608F0A6FF002818BF5D
S2140023E06FF09104FFF734FF20460CB0BDE8F0878D
S2140023F09B1B9D4228BF1D46E5E76FF08604F3E76A
S2140024006010002070B58CB00C46102200210546E6
S214002410002608A80EF08BFACDE90566FFF7EEFE5B
S21400242007AB029305AB019306AB0093214608ABBE
S21400243032462846FFF7CAFD0446D8B9099B012B49
S2140024401DD0079D114B2946186809F007F8C8B932
S214002450A5F50623A3F550630D495B0905F01F009B
S2140024600122824051F823004240284641F82320AA
S214002470FFF788FDFFF7ECFE20460CB070BD6FF04E
S2140024808404F7E76FF09104F4E700BF60100020C3
S214002490A02200202DE9F04788B00746884615465A
S2140024A01E46FFF7EBFC044607F17E40083801287D
S2140024B050D80423236000236360E364626822F438
S2140024C0406262606A46236391466363A8F1040330
S2140024D008F11C0853F8041F09BA434542F8041BC8
S2140024E0F8D109F08FF94946074604F5827009F0DD
S2140024F0ADF9384609F08AF9184B2365109BDFF8CA
S214002500609005EB831704F5D27A09F07BF929462B
S2140025108046504609F0AAF94035404609F076F95B
S214002520BD42C4F85090F0D109F06CF9314605462A
S21400253004F5807009F092F9284609F067F92046FC
S214002540FFF7DEFC331F1C3653F8042F12BAB342D3
S2140025501A60F9D108B0BDE8F08700BF888AC801C4
S214002560070D810138B50D46044630B36C220021B4
S2140025700EF0DDF9124B9D4205D001339D4210D07E
S2140025806FF0850038BD0F4B04F10C0203F12001FB
S21400259053F8040B42F8040B8B42F9D12560002057
S2140025A0F0E7094B04F10C0203F1200153F8040B89
S2140025B042F8040B8B42F9D1F0E76FF08600E1E7B2
S2140025C008000002A8150100C91501002DE9F34115
S2140025D00E461F46054600285FD083B9002A5CD108
S2140025E02B68324A93425ED0013293420CBF6FF0A2
S2140025F089046FF08804204602B0BDE8F081002907
S214002600ECD0036829498B4244D001318B4247D134
S2140026104FF02008904546D86A68D3008DF80730FA
S21400262053098DF80630530B8DF80530530D8DF891
S2140026300430AB68D90001EB52718DF8031002F03C
S2140026403F025909372A8DF802104FEA53318DF8A8
S21400265001104FEA535316498DF8003094BFC2F16B
S2140026603802C2F17802284609F06FFA04460028BC
S214002670C1D108226946284609F067FA04460028B0
S214002680B9D1C7F80080424605F10C0130460EF07D
S21400269082F9B0E74FF01C08BCE76FF08604AAE7A3
S2140026A06FF08804A7E76FF08904A4E7080000022B
S2140026B0EA1501002DE9F0419CB0DDE922781646C6
S2140026C01C460D4601B90AB91CB92FB16FF0860039
S2140026D01DE0B8F1000FF8D0014601A8FFF742FF51
S2140026E0A8B9019B0F4A934214D00132934213D1EA
S2140026F02023BB4213D83246294601A809F025FA02
S21400270028B943463A46214601A8FFF75FFF1CB0AA
S214002710BDE8F0811C23ECE76FF08800F7E76FF068
S2140027208900F4E708000002034B1B781BB1034B3B
S21400273003481B6818477047AA4300203C10002037
S2140027401823002070B5114C114E0A25236843F457
S214002750807223F48073226030462360FEF7B6F85A
S2140027600023800A62680AB983420AD1636853B9B3
S214002770013DEBD1236823F0010323606FF0920044
S21400278070BD0133EEE70020FAE700BF00D001403D
S214002790700002002DE9F04F794D85B02B7800923D
S2140027A081468A4603F0FF04ABB900F0A9FB012876
S2140027B002D900F0D9FB04462B782BB9714B72482E
S2140027C01B68984701232B7000F09AFB012802D95A
S2140027D0204600F0EBFB6D4B6B481B6898470028C3
S2140027E040F0CB806A4A6B4DD2F8C03043F40033D9
S2140027F0C2F8C0302B68DC0718D50024654D4E465D
S214002800D04627464FF00A0BB8F1000F2FD1FFF73E
S2140028108BFF44B114F1940F05D042460021484680
S2140028200EF085F80027009B1F601CE040F27163E5
S2140028302B60FFF787FF044698B96B68032BFCD91B
S214002840D5F800312B61D5F800316B61D5F8003131
S214002850AB61D5F80031EB61FFF774FF0446002842
S214002860CBD0FFF761FF204605B0BDE8F08F6C685F
S214002870A40005D02B6B13F45C7F12D1002437E044
S2140028804548FEF723F8C00A844205D16B68002B42
S214002890F0D16FF09304BAE76B68002BF6D10134E1
S2140028A0F2E7D80514D523F480732B636B6853B90D
S2140028B0BBF101075FD04E46D0466FF0930400226E
S2140028C0BB461746A0E7D5F800310393039BEDE718
S2140028D00193FFF737FF044620B9019B13F41C7FD2
S2140028E0CCD0E5E710F1930F91D010F1940FDFD024
S2140028F06B686A689B00434528BF4346B10732466B
S21400290035D123F0030232443146914212D103F00E
S214002910030149B11F48D0F80001114402F8010B29
S2140029208A424FEA1020F9D1FA181E44A8EB030891
S2140029305F46C5E7D5F8000141F8040BE5E7DCF88B
S214002940001102F8041C4FEA112E02F803EC4FEABD
S214002950114E090E02F802EC02F8011C0438032896
S21400296002F10402EBD823F003023244CFE7DFF88B
S21400297024C01846F3E7D0468BE7012473E700BF70
S214002980AA430020481000201823002040100020F2
S21400299000400E4000D00140700002007FB5094B99
S2140029A06A4603F11006154618685968144603C4AB
S2140029B00833B3422246F7D12846FEF715FC00201E
S2140029C004B070BD2A16010010B50C480C4C6FF010
S2140029D00403A02113F0800F03F1010207D1234462
S2140029E0332A83F800131346F4D1002010BD03F0F9
S2140029F00F03043B034419761346EBE700ED00E0B3
S214002A0000E100E073B508F0FDFE0D4D0D4B2E788D
S214002A101C6808F0FBFE09F0C1F938B1FF2E05D09E
S214002A20297801AA002008F0A9FE019C2CB908F01C
S214002A30E9FE054B1C6808F0E9FE204602B070BDB2
S214002A40D01000207C2300208023002010B50446F0
S214002A5008F0D8FE024B1C6008F0D8FE002010BD1F
S214002A608023002013B5002301241A46194600943B
S214002A70184605F001FB00231A461946184600942E
S214002A8005F02AFB0248FFF7E1FF002002B010BD68
S214002A902010002030B50E4C416123688BB92060B1
S214002AA083600DE0891A9A6841611D466AB1134633
S214002AB05A698A42F6D935B1A860521A83605A61BB
S214002AC030BD0025F4E72060F7E798608260F7E7FE
S214002AD08C23002038B500F079F9094C094B1A68A8
S214002AE023680025C31A2AB123B15169994203D33A
S214002AF0C91A5161206038BD55615B1A9268F2E7C9
S214002B00882300208C23002038B5134D2B685B6982
S214002B1093B1124A146802201C4400F08BF9204638
S214002B2000F05AF90E492A6800230B70D0888007F7
S214002B3009D501230B7038BD022000F07BF9022076
S214002B4000F09EF9EEE79268002AF4D0506903443C
S214002B50012BEBD9EFE700BF8C2300208823002051
S214002B60AC4300200C490B6800227BB183420AD19B
S214002B7083687AB1936083681BB15A6941690A44D5
S214002B805A61002070471A469B68EEE70028EFD08F
S214002B90022070470B60EEE78C23002070B5154EC0
S214002BA008F037FE34780546FCB9134B1C60134B0F
S214002BB01C60134B1C8000F0C5F8012000F03AF9A9
S214002BC000F07EF90F4B0246186020B9284608F040
S214002BD026FE232070BD23460B4840F2E73106F060
S214002BE08FFC0A4B186001233370284608F017FE46
S214002BF00020EFE7AD4300208C2300208823002030
S214002C00A24300209023002018FCFFFF842300200E
S214002C10C2072DE9F04704460BD5474A138801330F
S214002C209BB21380FFF756FF444B1B680BB1FFF7B0
S214002C306BFFA3077ED508F0ECFD0546FFF74AFFBD
S214002C404FF000093D4F4E46C8463C680CB16369DC
S214002C508BB13B4B0022012E1A7003D119F0020FE4
S214002C6018BF1E70002C61D0FFF74EFF2846BDE847
S214002C70F04708F0D4BD23465A693AB91A79217943
S214002C80914288BF1C469B68002BF5D1284608F069
S214002C90C6FD2569DDB100F099F8A269A0EB02092E
S214002CA04FEAE9734D4578EB030311DA23691344C1
S214002CB0A361E368B4F80690013613B12168204694
S214002CC0984708F0A6FD0546FFF704FFBDE7A946AE
S214002CD008F09FFD82462046FFF744FF504608F066
S214002CE09EFD2369002BE4D0A38BB5EB090533B119
S214002CF0E28B13449BB2B3F57A7F0FD2E38308F0DE
S214002D0088FD294681462046FFF7C4FEA36922694E
S214002D101344A361484608F082FDCAE7A3F57A7318
S214002D20E383A369013B013DA361E8E7022000F0CD
S214002D308FF89BE7BDE8F087A24300208C23002095
S214002D40AB43002010B51D4B86B01868596803AA1F
S214002D5003C2197AD3F8090011700190B3F80D2058
S214002D601748DB7BADF8082001218DF80A300024D7
S214002D70FDF75AFC03A88DF80C408DF81040FEF7BE
S214002D80BBFB01A901208DF80440FEF795FB0D4A18
S214002D90536A23F4FF6323F00703536240F2FF7382
S214002DA0136201209460FEF7A1FB074B4FF08042B0
S214002DB0C3F880211A6006B010BD00BF3A160100A5
S214002DC0A00914000020044000E100E0014B9868D0
S214002DD0704700BF0020044010B5044608F012FDFE
S214002DE0124A9368516D9269520704D4CA1A032A8C
S214002DF001D899420DD1E21A022A98BFDC1C0B4B6F
S214002E00B4F1FF3F38BF013C5C655A6A42F00402E9
S214002E105A6208F0FBFC064A137833B103490B6D7F
S214002E2043F002030B650023137010BD002004401E
S214002E30D11000208207054A00F00103516A48BFFE
S214002E4043F004030B435362704700BF0020044066
S214002E50820700F0010309D5074A012111700749CE
S214002E600A6D22F0030243F004030A6503494A6A26
S214002E7022EA03034B627047D11000200020044072
S214002E80830742BF014B0422DA61704700200440EA
S214002E9010B508F0BEFC094A93690446590703F0CA
S214002EA0010003F0070348BF40F002001362FFF77B
S214002EB0AFFE2046BDE8104008F0B1BC002004403C
S214002EC00148FDF703BD00BFA0091400EFF305831A
S214002ED073B9EFF31082094B12B9EFF3118212B1F6
S214002EE01A68022A04D0186828B901221A607047A6
S214002EF06FF0050070474FF0FF30704754290020F0
S214002F0008B500F07BFE38B1022804D0034B1868E1
S214002F10431E5842584108BD0320FCE754290020B0
S214002F2010B5EFF30583ABB9EFF310820C4B12B973
S214002F30EFF3118212B11A68022A0BD01A68012A1E
S214002F400BD1084A0024D47702221A6000F00AFC4B
S214002F50204610BD6FF00500FBE74FF0FF30F8E7A6
S214002F605429002000ED00E008B5EFF3058393B97F
S214002F70EFF3108313B9EFF311831BB10A4B1B68F1
S214002F80022B08D000F03AFE40B1022808D100F02B
S214002F9025FC002008BD6FF00500FBE70120F9E7DF
S214002FA04FF0FF30F6E700BF5429002010B5044666
S214002FB0EFF3058303BBEFF3108313B9EFF311832D
S214002FC01BB1104B1B68022B16D000F017FE30F01A
S214002FD0020314D1012C03D100F000FC204610BDE2
S214002FE06CB900F095FC0128F8D000F007FE841EAE
S214002FF018BF4FF0FF34F1E76FF00504EEE74FF02F
S214003000FF34EBE75429002038B50546EFF3058377
S21400301013B10024204638BDEFF3108313B9EFF345
S21400302011831BB11C4B1B68022BF2D02DB36B68AF
S2140030301A07EED4D5E9021203F0010371B14F2A44
S214003040E7D993B1042009F097F804460028E0D0A9
S214003050296800F063FA44F00104DBE7002AD8D1BF
S214003060ABB1042009F0B2F8EFE7012009F084F8CC
S21400307004460028CDD0296806E0012009F0A6F80D
S21400308004460028C5D0294600F048FAC2E70120C9
S21400309009F09CF8ECE700BF54290020034610B561
S2140030A020F001000C4603F00102EFF30581E9B9B8
S2140030B0EFF3108111B9EFF3118119B10E490968C8
S2140030C0022913D0012B14D9214662B109F0D6F992
S2140030D0012801D1002010BD002C14BF6FF00100A4
S2140030E06FF00200F7E709F039F9F1E76FF0050035
S2140030F0F1E76FF00300EEE754290020024608B51A
S21400310020F0010002F00103EFF30581C9B9EFF3E7
S214003110108111B9EFF3118119B10D49096802291F
S2140031200FD0012A10D93BB109F03BF801280CBF9B
S21400313000206FF0020008BD1A46194608F090FFFE
S214003140F4E76FF00500F6E76FF00300F3E700BF63
S2140031505429002010B5034620F00104EFF3058241
S2140031609AB9EFF3108212B9EFF311821AB10A4A34
S2140031701268022A09D0012B0AD9204600F0E0F98D
S214003180204609F092F9002010BD6FF00500FBE71D
S2140031906FF00300F8E700BF54290020034B0360DC
S2140031A0034B0B60A0231360704700BFF428002079
S2140031B074260020034B0360034B0B60A0231360B0
S2140031C0704700BF1426002094230020084800689B
S2140031D0006880F308884FF0000080F3148862B619
S2140031E061B6BFF34F8FBFF36F8F00DF00BF0000E5
S2140031F008ED00E0DFF80C00016841F470010160A2
S2140032007047000088ED00E04FF0807340F8043C03
S214003210074B40F80C3C21F001016FF0020340F828
S214003220081C40F8202C40F8243C4438704700BF67
S21400323023BE00004FF0600383F31188BFF36F8F47
S214003240BFF34F8F054A13680133012B136004BF89
S2140032504FF0E023D3F8043D704700BF2C10002049
S214003260034A1368013B13600BB983F31188704758
S2140032702C1000204FF0E022002313619361054BD1
S2140032804FF47A711B68B3FBF1F3013B53610723DC
S214003290136170470C10002037B54FF0E023002173
S2140032A0D3F8002DD3F8003D264B1A78D2B20192FF
S2140032B0FF221A701B78244ADBB28DF803309DF883
S2140032C00330072313609DF80300000603F1FF3464
S2140032D02ED401B1136013681B0203F4E06313607D
S2140032E0019B184A4FF0E024DBB21370D4F8203D5F
S2140032F043F47F03C4F8203DD4F8203D43F07F43D9
S214003300C4F8203DFFF7B6FF104B00251D60FFF701
S21400331071FFD4F8343F43F04043C4F8343FFFF71E
S21400332055FF00F07BFB08F07CFD284603B030BD5F
S2140033309DF803305B00DBB28DF803300121234695
S214003340C1E700BF00E400E0582900202C10002050
S214003350EFF305830F2B84BF034A9B5C4FF0E023FB
S214003360D3F80C3D704700BFF0E300E030B5114BDA
S2140033701A461B688342FBD3546841681519A84255
S21400338006D1214450188342516010D1104602E005
S2140033904418A3420CD1084C2468A3421FBF5C68A3
S2140033A0641844601C680460824218BF106030BD18
S2140033B00360F9E774290020702900202DE9F04108
S2140033C0054600F00BFA3849384C0B680BBB384AF8
S2140033D0384E50071FBFD01D20F0070002F50052E0
S2140033E0131A0CBF4FF4005302461344083B23F055
S2140033F00703002070603260C3E90000981AC2E933
S21400340000300B602C4B18602C4B18604FF00043BC
S2140034102360276817EA050444D16B1E0A3308D8D0
S2140034206B0705F1080209D022F007030833934220
S21400343005D800F06DFA2046BDE8F0811346DFF8A7
S2140034407C80D8F800609E422CD31A4A15686868BB
S214003450984201D22C6814BB0968A94222D0296878
S21400346014681160C21A102A04F1080404D9E81876
S21400347042606B60FFF77AFF6A680F49B61A174317
S2140034800F4A0868C8F8006000232B6013686F6056
S214003490864203F1010338BF0E601360C9E72A466F
S2140034A02546D4E70024C4E7702900205C290020C4
S2140034B0AE43002074290020682900206C290020D3
S2140034C06429002010B5044600B3114A50F8043CA5
S2140034D0126813421AD050F8081CB9B923EA02033E
S2140034E040F8043C00F07AF90A4A54F8043C1168A3
S2140034F0A4F108000B441360FFF738FF064A136870
S214003500BDE810400133136000F002BA10BD00BFE2
S2140035105C2900206C2900206029002030B5074A6D
S214003520002352F8335002EBC3041DB942F833109F
S214003530606030BD01330A2BF3D1FAE77C29002006
S21400354010B5094A002352F8331081424FEAC304EB
S21400355006D1064A002142F833102244516010BDBD
S21400356001330A2BEFD1FAE7802900207C290020BE
S2140035702DE9F0410446FFF75DFE304B304E1A68E9
S214003580304F01321A603568002D4BD134601B680D
S214003590012B1FD1B8464046013508F002FC382DF5
S2140035A008F11408F7D1DFF8C480274D404608F02C
S2140035B0F8FB284608F0F5FB244808F0F2FB244800
S2140035C008F0EFFB234808F0ECFB234BC3F8008021
S2140035D0224B1D60224A136801331360214A23647C
S2140035E01168E36A14208B4200FB037004F10401A7
S2140035F088BF136008F0E3FBFFF732FE1A4B1B6828
S21400360073B13368DA6AE36A9A4209D24FF0E0236C
S2140036104FF08052C3F8042DBFF34F8FBFF36F8F68
S214003620BDE8F081104B1A68E36A002AD2D13268EE
S214003630D26A9A4298BF3460CCE700BFF0290020D7
S214003640C42E0020642A00203C2A0020202A0020C5
S2140036500C2A0020F4290020382A0020342A0020D2
S214003660D4290020E8290020E4290020502A002040
S214003670F8B5154B154D1C680646286804300F46ED
S21400368008F0BFFB731C07D137B129681048BDE8A6
S214003690F840043108F093BB2B68A4195C6007D38C
S2140036A00C4B18682968BDE8F840043108F092BB56
S2140036B0094B18682968043108F08CFB074B1A6818
S2140036C0A24288BF1C60F8BDEC290020C42E002052
S2140036D0F4290020342A0020382A0020D02900208F
S2140036E0064A13681968064B19B94FF0FF321A607C
S2140036F070471268D2681268F9E700BF382A0020BF
S214003700D029002080B5134C134F144D236873B98D
S214003710134B1B68012BF8D94FF0E0234FF0805273
S214003720C3F8042DBFF34F8FBFF36F8FEDE7FFF79E
S21400373081FDFB68DE68301D08F063FB2B68013BEB
S2140037402B602368013B2360FFF78AFD304608F0B4
S214003750DAFEDBE7082A00200C2A0020F0290020E9
S214003760642A002010B588B0002407AA06A905A878
S214003770CDE90544FFF712FD059B0293069B079AC9
S21400378010491148CDE90043234608F01CFFA8B1B4
S21400379000F046FB012811D14FF0600383F3118837
S2140037A0BFF36F8FBFF34F8F084B4FF0FF321A6097
S2140037B0074B1860074B1C60FFF76EFD064B1B6837
S2140037C008B010BD4A16010005370000D0290020B9
S2140037D0E4290020EC29002030100020024A13685B
S2140037E001331360704700BFCC290020014B1868D6
S2140037F0704700BFEC2900203A4B1B682DE9F74FB5
S214003800002B68D1384B1C6801341C606CB9374BF0
S2140038101A681268364A1968106818601160354AC6
S214003820136801331360FFF75BFF334D334E2B688D
S214003830334F9C424FF0000B12D23A68D26A1421E2
S2140038404A43B258022A2F4A126828BF4FF0010B8B
S214003850002A18BF4FF0010B584603B0BDE8F08FA2
S214003860DFF88890DFF8A4A0D9F8002012681AB90B
S2140038704FF0FF322A60E0E7D9F80020D268D2F88D
S2140038800C80D8F804108C4201D22960D5E708F1E4
S21400389004031846019308F0B4FAD8F8281019B1B2
S2140038A008F1180008F0ADFAD8F82C00DAF8001085
S2140038B01423884288BFCAF80000019903FB006001
S2140038C008F07DFA3868D8F82C10C26A914228BFF2
S2140038D04FF0010BC8E70C4A1368013313604FF032
S2140038E0000BB9E7CC290020EC290020382A00205C
S2140038F0342A0020D8290020D0290020642A00205D
S214003900C42E0020DC290020E0290020E829002021
S2140039102DE9F0412B4C2368FFF78CFC2368013B14
S214003920236024682CB10024FFF79AFC2046BDE8EB
S214003930F081254B1B68002BF5D0244D244EDFF874
S214003940A0801DE0EB68DC68271D04F1180008F075
S21400395058FA384608F055FAE36A3268142093425B
S21400396000FB0380394688BF336008F028FA194BFD
S214003970E26A1B68DB6A9A4202D3174B01221A607E
S2140039802B68002BDED10CB1FFF7AAFE134D2C6876
S21400399044B1114E0127FFF72FFF00B13760013CFD
S2140039A0F9D12C600C4B1B68002BBCD04FF0E023E9
S2140039B04FF08052C3F8042DBFF34F8FBFF36F8FC5
S2140039C00124B1E7CC290020F0290020202A00207D
S2140039D0E8290020C42E0020DC290020E029002051
S2140039E0642A002008B550B94FF0E0234FF080520B
S2140039F0C3F8042DBFF34F8FBFF36F8F08BD064B80
S214003A0000211B68FFF7EAFEFFF732FEFFF780FF94
S214003A100028E9D0F2E700BFCC290020F8B51E4BFD
S214003A201A681E4B12B101221A60F8BD1C4C1A60AF
S214003A3023681B6B1A68B2F1A53F0BD15A68B2F126
S214003A40A53F07D19A68B2F1A53F03D1DB68B3F171
S214003A50A53F04D020682168343108F0A1F9114E42
S214003A60114A3168142707FB01F3D018D55885B1E1
S214003A70456808336D68456013449D4204BF6B6813
S214003A804360142303FB01225368DB682360316024
S214003A90CBE70139E7E700BFCC290020DC2900206E
S214003AA0C42E0020E8290020642A002010B5064B0A
S214003AB00C461968183108F08DF920460121BDE83A
S214003AC01040FFF7D5BD00BFC42E002038B5084B08
S214003AD00D4619681446183108F071F9002C214675
S214003AE00CBF28464FF0FF30BDE83840FFF7C0BD9A
S214003AF0C42E002038B5C368DC6804F118052846D3
S214003B0008F07FF9104B1B68DBB9251D284608F026
S214003B1078F90E4AE36A11688B4288BF13600C4A34
S214003B201420294600FB032008F049F9094BE26AF5
S214003B301B68DB6A9A4283BF074B0120186000208F
S214003B4038BD06482946EFE7CC290020E8290020A2
S214003B50642A0020C42E0020DC290020202A002011
S214003B60034B1B680360034B1B684360704700BF32
S214003B70D8290020EC29002070B50D460446FFF732
S214003B8059FB0F4B19682B685A1C17D00D4826682E
S214003B9000686268864208D08A4206D800232B60F6
S214003BA00124FFF75DFB204670BD881A8342F5D9D5
S214003BB05B1A13442B602046FFF7D2FF0024F0E781
S214003BC0EC290020D8290020014B01221A607047FA
S214003BD0DC290020012906DC08B9044B18681431DA
S214003BE050F8210070470020704700BFC42E002008
S214003BF0014B1868704700BFC42E0020054B1B6899
S214003C0033B1054B1868B0FA80F0400940007047A1
S214003C1001207047E4290020CC290020F8B504468E
S214003C2038B31A4DC36A2A68D26A934226D282698A
S214003C30174E002AA1BF2A68D26AC2F138028261F2
S214003C40142202FB036342699A4213D1071D3846C9
S214003C5008F0D7F82B680F4ADB6A1168E362142075
S214003C608B4200FB0360394688BF136008F0A7F854
S214003C700120F8BD2B68DB6AC362F9E72B68806C0D
S214003C80DB6A98422CBF00200120F2E7C42E0020F9
S214003C90642A0020E829002038B5044608B9002028
S214003CA038BD114BC16A1B68826CC36C914203F12C
S214003CB0FF33C364F3D0002BF1D1051D284608F06E
S214003CC0A0F8A36CE362C3F13802A261074A116848
S214003CD08B4288BF1360064A142000FB0320294647
S214003CE008F06DF80120DBE7C42E0020E82900204C
S214003CF0642A002070B5044660B3836C994238BFCE
S214003D001946C36A8B4225D0C26C012A22D1124AB8
S214003D10124D12688269C162002A4FF0140202FB3B
S214003D2003534269A4BFC1F1380181619A4211D19F
S214003D30061D304608F065F8094AE36A1168142043
S214003D408B4200FB03503146BDE8704088BF1360CD
S214003D5008F035B870BD00BFC42E0020642A0020CD
S214003D60E8290020044B1A681AB11968CA6C013297
S214003D70CA641868704700BFC42E0020914208B578
S214003D80416000610AD8D21A83699A420DD2084B64
S214003D90011D186808F01EF8002008BD9A4201D2DE
S214003DA0994202D2034B011DF3E70120F5E700BF5D
S214003DB0242F0020282F0020F7B5114CFFF73AFAE1
S214003DC02568BDB90F4F104E384607F0EAFF30465B
S214003DD007F0E7FF0D4B0E4A1F600E4B10211E60CA
S214003DE00A200D4B009508F003F9206010B10B492E
S214003DF0FFF794FB03B0BDE8F040FFF731BA00BF11
S214003E00202F0020402F00202C2F0020282F0020BD
S214003E10AE630020242F0020C82E00204F1601007D
S214003E2010B588B0FFF7C8FF0E4B18680024B8B16D
S214003E3007AA06A905A8CDE90544FFF7BBF9059B27
S214003E400293069B019328230093079A0649074886
S214003E50234608F0B8FB064B1860001B18BF01206D
S214003E6008B010BD202F002054160100493F000066
S214003E701C2F00207FB50F4C0546206816461A46B4
S214003E8080B10529CDE9001602950DDCFFF7B6FED8
S214003E900023022808BF089A206818BF1A466946F9
S214003EA008F0DEF804B070BD0023694608F0A0F9FB
S214003EB0F8E700BF202F00202DE9F347DFF88480C5
S214003EC00646FFF793FCD8F800308342054609D92A
S214003ED01A4F3B681A686AB9194A11683960136044
S214003EE0012300E0002328463360C8F8005002B0E3
S214003EF0BDE8F087DB68DC68D3F8009004F1040ABC
S214003F00504607F07EFF236A2046984794F82830EC
S214003F105B07DED5A3694B44994506D238686360D3
S214003F202461514607F056FFD3E7002300934A4624
S214003F3019462046FFF79EFFCBE700BF282F00203C
S214003F40242F0020182F00202DE9F047624D88B05E
S214003F5000272B68D3F80080B8F1000F50D0DB683C
S214003F60D3F800800024FFF739FC04A8FFF7A4FF6D
S214003F70049B5A4E8246002B64D1002C47D1404504
S214003F804BD3FFF7C5FC2B68DB68D3F80C9009F120
S214003F90040007F036FF99F82830580732D5D9F8CC
S214003FA018104346524641444846FFF7E7FE30B1F4
S214003FB000942346424621464846FFF75BFFD9F861
S214003FC02030484698473068002204A908F049F98E
S214003FD00028BED0049B0698002B36DB069C63693F
S214003FE0002B39D103A8FFF767FF049B0246092B75
S214003FF0E9D8DFE803F0353535545B693535545B71
S2140040000124B0E723F0010389F82830D7E7344BC2
S2140040101B681C68B4FA84F4640930682246A8EB6E
S2140040200A0108F04DFAFFF773FC0028CBD14FF0D9
S214004030E0234FF08052C3F8042DBFF34F8FBFF339
S2140040406F8FC0E7FFF764FCBDE7059B07999847AD
S214004050049B002BB7DBC1E7201D07F0D2FEC1E7AB
S21400406094F82830A16943F0010384F82830059BB2
S21400407020461944FFF782FE0028A4D0236A204673
S214004080984794F8283059079DD5A2690599009756
S21400409000230A4420461946FFF7ECFE93E794F8FF
S2140040A0283023F0010384F828308CE794F8283071
S2140040B043F0010384F828300599A16103460144C2
S2140040C02046FFF75BFE7EE794F828309A07E8D490
S2140040D02046FFF7F7F976E7282F0020202F00204C
S2140040E0242F002070B586B0CDE9043205460E4672
S2140040F01046002110221C460CF019FC04AB03935A
S214004100064B02930023CDE90033FF22E3B231468B
S214004110284608F08AFB06B070BD00BF5FC60000E8
S2140041202DE9F0479AB0054611A898460C469246E7
S214004130DDE922690AF0ABF905A808F0F1FE08A847
S21400414008F0EEFE0BA808F0EBFE0EA808F0E8FE5E
S2140041506B6D002B00F084800121304609F033F9A6
S214004160002813DB05F14C073946304609F0EAF81B
S21400417000280BDA0121484609F025F9002805DB5E
S2140041803946484609F0DEF8002813DB354C11A8FE
S2140041900AF0BAF905A808F0C9FE08A808F0C6FE95
S2140041A00BA808F0C3FE0EA808F0C0FE20461AB002
S2140041B0BDE8F0872246534605A928460AF06DF862
S2140041C004460028E3D13A46494608A809F049FEC5
S2140041D004460028DBD108AA05A90BA809F0E3FAD3
S2140041E004460028D3D10BA93A46084609F01BFD21
S2140041F004460028CBD108AA31460EA809F0D3FA07
S21400420004460028C3D10DF138093A4649464846C7
S21400421009F009FD04460028B9D1CDE90180CDF8A2
S214004220009005F128030BAA11A9284600F08AFC85
S21400423004460028ABD111A80AF0D8F90028A5D169
S21400424011A93A46084609F0EEFC044600289ED11D
S214004250314611A809F076F80446002897D095E76D
S214004260014CA3E700B2FFFF80B0FFFF2DE9F04F3F
S2140042709846436D99B005460F461446002B00F04D
S214004280B5800121404609F09EF8002804DA584916
S214004290084619B0BDE8F08F05F14C063146404699
S2140042A009F050F80028F2DA0FA80AF0F0F806A88D
S2140042B008F036FE09A808F033FE0CA808F030FE19
S2140042C04FF00C0905F1280BB9F1010900F08C80BC
S2140042D04FF00C0ABAF1010A00F0868006A9DDE963
S2140042E02423284600F09CFC014600286DD1279B1D
S2140042F00193269B029000930FA95B4606AA2846C8
S21400430000F080FC014600285FD10FA932463846EF
S21400431009F089FC0146002857D1384609F053F8C1
S2140043200028D7D009A9DDE92223284609F0B5FFE1
S2140043300146002849D10CA9DDE92623284600F0CD
S2140043406FFC0146002840D139464246204609F017
S2140043502AFA0146002838D109A90846224609F05B
S2140043600EF9014688BB09A908460CAA09F01BFAF3
S214004370014650BB06A908460CAA09F014FA0146E5
S21400438018BB06A90846324609F04DFC0146E0B9BE
S21400439006A93246204609F064FD0146A8B9214622
S2140043A009AA204609F0FFF9014670B921463246AF
S2140043B0204609F038FC014638B90590204609F039
S2140043C002F8059900283FF47FAF0FA805910AF080
S2140043D09BF806A808F0AAFD09A808F0A7FD0CA8F7
S2140043E008F0A4FD059953E70249EEE702494FE7B6
S2140043F080B3FFFF00B3FFFF80B0FFFF70B50C4631
S2140044000646114620461A4609F0CDF9054698B9E3
S214004410736E33B9321D21462046BDE8704009F060
S21400442002BC2368002B09DB204608F050FEB36D63
S214004430B0EB430F09D9184D284670BD01462046FB
S21400444008F0C1FF0028EFD0F5E7736E20469847C6
S21400445005460028F0D104362368002B04DA002134
S214004460204608F0B0FF68B93146204608F06AFFDB
S2140044700028E1DB32462146204609F011F80028E4
S214004480F2D006E032462146204609F078F80028A9
S214004490E2D00546D0E700BF80B0FFFF38B50D4636
S2140044A00446002105F1180008F08DFF50B12046A3
S2140044B007F0A9FA28B129462046BDE83840FDF79E
S2140044C0F7BB014838BD00BF80B1FFFF0246044875
S2140044D003780BB9184670479342FCD00C30F7E7C8
S2140044E0681601002DE9F047824604301F46DDE9D4
S2140044F008490E46904608F009FE0546504609F063
S214004500BDFF0128824602D01F48BDE8F087002183
S21400451006F1180008F057FF40B9B9F1000F01D1B5
S2140045201A48F2E72070C7F800A0EEE7B8F1000FCF
S21400453017D16B0001334B453B60F1D8214604236D
S21400454001F8013B2A46304608F007FE0028DCD179
S214004550691C2A46214406F10C00BDE8F04708F025
S214004560FCBDB8F1010FCFD16B1C4B453B60D7D8D3
S214004570002106F10C0008F07DFD2146023001F80E
S214004580010B2A463046E8E780B1FFFF00B1FFFF87
S2140045902DE9F04180460C4616461F4613B91A48C8
S2140045A0BDE8F081043008F0B1FD0546404609F04C
S2140045B065FF0128804625D1337833B9012FEED127
S2140045C02046BDE8F04109F0FDBF042B1AD16B0070
S2140045D00133BB42E3D12A46711C204608F09CFDFD
S2140045E00028DDD1691C2A46314404F10C0008F08D
S2140045F093FD0028D4D1414604F11800BDE8F041EF
S21400460008F01CBD0148CBE780B0FFFF80B1FFFF7C
S2140046102DE9F0410E4686B00546012106F1180048
S21400462008F0D1FE044650B9284609F027FF0128B5
S21400463079D12146304608F0C6FE002801DA3B4C08
S2140046406DE006F10C082146404608F0BCFE002846
S214004650F5DB2F1D3946304608F074FE0028EEDAEA
S2140046603946404608F06EFE0028E8DA684608F04C
S21400467057FC03A808F054FC4346424669462846C1
S214004680FFF7BCFE0446002843D13346324603A952
S2140046902846FFF7B3FE044600283AD1AB6973BB41
S2140046A003A90322084608F0AFFF044688BB039B15
S2140046B0002B04DA002103A808F085FEC8B903AA77
S2140046C0334611462846FFF799FE044608BB03AA60
S2140046D005F11C031146284609F065FE0446C0B9DC
S2140046E003A9684608F02EFE104B041E18BF1C4691
S2140046F00FE003A93A46084608F041FFD5E703AAAB
S21400470005F110031146284609F04DFE0446002820
S214004710D5D0684608F00AFC03A808F007FC204637
S21400472006B0BDE8F081024CF9E700BF80B3FFFF9A
S21400473080B0FFFF38B5054609F0A0FE01280C46FC
S21400474001460DD1204608F03EFE002806DB05F1A6
S2140047504C01204608F0F6FD002803DB024838BD71
S2140047600248FCE70020FAE780B3FFFF80B0FFFFB7
S2140047702DE9F04FBBB0054601919246994607F0E9
S21400478042F90290A0B1284607F042F9044658B90B
S21400479051462846FFF7CEFF044628B94946284624
S2140047A0FFF736FF044698B1284607F033F980E154
S2140047B051462846FFF7BEFF0446002840F07981A0
S2140047C049462846FFF724FF0446002840F071813A
S2140047D0284609F053FE012840F0AC81EB6D2421F9
S2140047E0013302204FEA530807F0AEFA06460028C7
S2140047F000F09E8106F1240709F049FE384609F0CC
S21400480046FE002419AB18190C3408F089FB302C2E
S214004810F8D14946304609F0BCFE0446002840D18F
S2140048208346D84520D139462846FFF737FE04464A
S214004830B8BB284607F0E7F830B33B463246394661
S2140048402846FDF787F8044658BB39462846FFF742
S21400485025FE044628BB06F1180008F067FB06F1A3
S2140048603C0008F063FB1CE00123BBFBF8F203FAF4
S21400487002F1C9B2242308FB12B203FB01692AB174
S214004880284607F0C0F848BBAB4C0AE0490801EBE5
S214004890C10106EB8101484609F07BFE044600286C
S2140048A0EED04FF0000919AB03EB090009F10C0933
S2140048B008F03CFBB9F1300FF5D1D4B16B6F9E42D6
S2140048C008D0304609F020FE384609F01DFE304676
S2140048D007F04AFA019809F017FEE6E04A4649460C
S2140048E02846FDF72FF904460028DAD10BF1010B14
S2140048F097E704A808F014FB05F14C0B0DA808F088
S2140049000FFB2146584608F0B5FB012840F0D8803A
S2140049102146504608F0AEFB5146814604A808F0F2
S21400492059FB044630B10DA808F000FB04A808F0B7
S214004930FDFAC3E7524659460DA808F042FE044663
S2140049400028F0D1B9FA89F94FEA59194A460DA953
S21400495004A809F02FFC04460028E4D1014608F11B
S214004960010219A80DF1640B0BF0E1FFA2465B46AD
S214004970D045039300F0A180514604A808F07AFBC6
S214004980039B1C7808EB0A01044304A808F072FB9A
S214004990E4B2039B44EA400403F8014B0AF1010A1F
S2140049A0E6E79BF801009BF8003080EA020C6FEA0D
S2140049B00C0101F0010113FB01F3104003EA0C02A5
S2140049C083EA0C030BF8013F1BF8013C43EAC113D2
S2140049D002430BF8013C0134A245E2D20DA808F0D0
S2140049E0A5FA04A808F0A2FA04A809F050FD0024CD
S2140049F00DAB18190C3408F093FA302CF8D10AF1E4
S214004A00E8036B44019913F8843C3246284609F0C3
S214004A10F4FC044648B9449B002B00F084802846EA
S214004A2006F0F1FF00284DD1434C04A809F0D7FC4E
S214004A304FF000080DAB03EB080008F10C0808F077
S214004A4075FAB8F1300FF5D1002C7FF437AF019925
S214004A504A46284609F082FC044600287FF42EAF1A
S214004A60449B73B1284606F0CEFF00285ED0DDE9F1
S214004A70442301992846FCF7BBFE044600287FF431
S214004A801DAF01992846FFF709FD6B6F9E4204464D
S214004A9008D0304609F038FD384609F035FD304676
S214004AA007F062F9002C7FF415AF029B002B7FF411
S214004AB07BAE20463BB0BDE8F08F002201248BE79A
S214004AC01E4CFBE6DDE9442301992846FCF790FEE0
S214004AD048B30446A9E728460AF1FF3A06F093FFD2
S214004AE00028A1D0019A28461146FDF72BF8002889
S214004AF0EFD118F80A30324604A9284609F07DFCA2
S214004B000028E6D1284606F07EFF00288CD0019AC1
S214004B1004AB11462846FCF71DFF0028D9D1BAF190
S214004B20000FD8D181E70DF16408F8E7024CC5E61E
S214004B30034CCFE6014CB8E780B1FFFF80B0FFFF23
S214004B4080B2FFFF2DE9F04196B00546984609F081
S214004B5095FC01280F46164650D101A809F097FC8F
S214004B6000240AAB18190C3408F0DAF9302CF8D106
S214004B704346324601A9284609F041FD044600286E
S214004B803AD1DDE91C233946284609F038FD0446AB
S214004B9090BB284606F037FF0646B8B9284606F00A
S214004BA032FFD0B9164C00270AABD8190C3708F0DC
S214004BB0BDF9302FF8D116B1284606F02BFF01A814
S214004BC009F00DFC204616B0BDE8F081284606F038
S214004BD01FFF04460028E1D0E5E73B4601AA394618
S214004BE02846FCF7B7FE04460028DCD1394628469E
S214004BF0FFF754FC0446D6E70026D4E7004CE1E76E
S214004C0080B1FFFF30B4DDE9024524B1CDE90245AD
S214004C1030BCFFF7ADBD014830BC704780B0FFFF29
S214004C2073B505461E4609F029FC01280C460146C8
S214004C300ED11346009605F14C02204609F0A2F864
S214004C40044B10F10E0F18BF0346184602B070BD95
S214004C50014BFAE700B3FFFF80B0FFFF2DE9F041FC
S214004C600D46014628461746984600F08DF804463D
S214004C70B0B9284609F002FC012805F17C0612D1DD
S214004C8042463946304608F047FA044628B93146C7
S214004C902846FFF74FFD044610B1304608F046F9A7
S214004CA02046BDE8F081014CF7E700BF80B1FFFF6A
S214004CB010B5044609F0E2FB012805D104F17C009A
S214004CC0BDE8104008F049BA004810BD80B1FFFFAB
S214004CD02DE9F0479A460378AAB005460C461646D4
S214004CE023B9284C20462AB0BDE8F0870A789A42B5
S214004CF0F7D101F188094946883008F023FB0028DF
S214004D00EFD104F19408414605F1940008F01AFB2F
S214004D100028E6D104F1A007394605F1A00008F006
S214004D2011FB0028DDD102A809F0B1FB0BA809F0A1
S214004D30BCFB21460BA809F042FC04F1280304F151
S214004D407C02CDE9006A02A90BA809F0A7FC04467C
S214004D5080B9494602A808F0F5FA50B9414605A8B8
S214004D6008F0F0FA28B9394608A808F0EBFA044625
S214004D7000B1044C02A809F032FB0BA809F0C8FBEE
S214004D80B0E700BF80B0FFFF38B504460D4609F017
S214004D90BFFB204609F089FB032D257027D1164A54
S214004DA0E26001250823154A6262C4E90153C4E99A
S214004DB00753C4E91353C4E90A53114AA363114BBA
S214004DC06265114A6564C4E90F35104BA364C4E9F3
S214004DD00C25201D08F07BF9A06504F14C0008F0B6
S214004DE076F9C4E917050020C4E91D0038BD002384
S214004DF007482370FAE700BF00170100E01601001D
S214004E0080160100A0160100C01601003410002014
S214004E1080B1FFFF032804D00428034818BF0020F1
S214004E2070470248704700BF20170100281701008E
S214004E3038B5094C0546206810B90446204638BDEA
S214004E406B6862689A4204D1A9680BF046FD002898
S214004E50F4D01434EFE700BF581E010070B50E46BC
S214004E60054610B1094C206810B96FF02D0070BDD2
S214004E706B6862689A4203D1A9680BF02EFD08B1F0
S214004E801434F0E723693360F1E700BF941E010095
S214004E9070B5094C256815B96FF02D0009E0667CE1
S214004EA0864207D1267C8E4204D1156062681A605D
S214004EB0002070BD1434EDE7581E010070B50E4694
S214004EC0054610B1094C206810B96FF02D0070BD72
S214004ED06B6862689A4203D1A9680BF0FEFC08B1C1
S214004EE01434F0E7237C3370F1E700BF081E01009E
S214004EF030B5084B1C6814B96FF02D0006E01D7C19
S214004F00854204D15B680C600020136030BD14330A
S214004F10F0E700BF081E010070B50E46054610B14A
S214004F20094C206810B96FF02D0070BD6B68626880
S214004F309A4203D1A9680BF0D0FC08B11434F0E70C
S214004F40237C3370F1E700BFE01D010030B5084B4D
S214004F501C6814B96FF02D0006E01D7C854204D154
S214004F605B680C600020136030BD1433F0E700BFB0
S214004F70E01D01002DE9F04F87B00F4600210546E1
S214004F800093084690469B46134605AA109E07F0D7
S214004F90FCFE28460BF00DFD044638460BF009FDD6
S214004FA005994B1C03EB911323441844119B98421C
S214004FB007D9129B6FF029081860404607B0BDE875
S214004FC0F08F39B1012006F0BFFE044618B9DFF8AD
S214004FD0A080F2E70C4643460599CDF800B005AA36
S214004FE0204607F0D2FE804618B1204606F0BCFEEA
S214004FF0E3E728460BF0DDFC2946024630460BF078
S214005000CAFC28460BF0D5FCA14635184FF00A0A14
S214005010DDF814B0BBF1000F18D138460BF0C9FC10
S2140050203946024628460BF0B6FC38460BF0C1FC63
S21400503002462B18581C129B05F802B0821B1A60F9
S214005040119B59469A1A0BF072FCCEE75A46402A34
S21400505028BF40224946284603920BF09CFC039A40
S2140050601544ABEB020005F801AB05909144CFE781
S21400507080EEFFFF0238C0B202289ABF024B53F8F8
S21400508020000020704700BF201F010070B50546B5
S2140050900E4641B1046834B94B6A9847686020B13F
S2140050A02E60204670BD0248FCE70248FAE700BFC3
S2140050B080C1FFFF80C0FFFFF0B58BB005460E46EF
S2140050C02422002101A80BF032FC1DB9144C204606
S2140050D00BB0F0BD2B68002BF8D101A9304609F0C3
S2140050E0DCFE04460028F1D1BDF8047001A80AF0E1
S2140050F0F0F827F0FF03B3F5E24F0BD047F20103B9
S2140051009F4209D1074F7B6A9847686030B12F608D
S2140051100660DCE7044FF6E7044CD8E7044CD6E715
S21400512080C1FFFF4C1F01007C1F010080C6FFFFEF
S21400513080C0FFFF2DE9F14F16460268DDF838B053
S214005140DDE90A78DDE90C9A04460D461AB91148DD
S21400515001B0BDE8F08F3BB90846FFF75BFE0028BC
S214005160F5D009F0E0FA03462268D2F814E0BEF162
S214005170000F0CD0CDE90DABCDE90B890A9760681E
S21400518032462946F44601B0BDE8F04F6047024873
S214005190DEE700BF80C1FFFF00C1FFFF02230B70E8
S2140051A08830024B4B608860704700BF2C1F0100A0
S2140051B010F1850F13DA10F1990F25DB99301328BB
S2140051C022D8DFE800F01C1C1E212121191C192101
S2140051D021211521210A172413110E487047003883
S2140051E018BF0120404270470B4870470B48704775
S2140051F00B4870470B4870476FF06F0070470A48BF
S21400520070476FF06D0070474FF0FF3070470748EB
S214005210704700BF80C7FFFF80C6FFFF80C5FFFF47
S21400522080C0FFFF80C1FFFF00C2FFFF00C3FFFF7B
S21400523000F19503102B12D8DFE803F00F0D1111C3
S214005240111111111111110B111309110900064842
S2140052507047064870470648704706487047FFF78D
S214005260A7BF0548704700BF80B0FFFF00B1FFFF33
S21400527000B3FFFF00B2FFFF80B1FFFF2DE9F04F44
S214005280B7B00C4605920646242200210DA81F46FC
S214005290DDE9408ADDF808910BF049FB0023032C7A
S2140052A007930ED0042C474C18BF1C46307809A92B
S2140052B009F089FA054630B9434E304637B0BDE8A6
S2140052C0F08F424CF2E7424B7D2216A90BA8CDE99F
S2140052D00B3600F03BFB0028EED016ABC0F17D008D
S2140052E01844089030230AAA0DF1D50108A807F043
S2140052F018FA064638B116A87D2100F0DDFB07989F
S21400530000F0D8FFD9E702230AAA0DF1D50108A8B4
S21400531007F007FA06460028EDD1089B0A9A1344C0
S21400532008930AAA04230DF1D50108A807F0F9F995
S21400533006460028DFD1149ADDF828B045F4E2418D
S21400534089B21ABBADF834104FF48051E4B20DA800
S21400535009F02FFA44F006240899119407AB5A4630
S21400536009F033FEC0B1FFF723FF7D21044616A8DF
S21400537000F0A2FB079800F09DFF064604BB00283D
S2140053809BD037B0BDE8F04FFFF712BF034602468A
S2140053900DA809F0AAFFD7E7CDE901A9059A079855
S2140053A0CDF800803B46214609F0A3FE10B1FFF77A
S2140053B03FFFDAE752464946404609F0CDFAD4E7C1
S2140053C026467AE70900000280C1FFFF08000002B7
S2140053D00C2001002DE9F04FB9B0554F03928246DC
S2140053E0242200210BA89846DDE942540BF09FFAD0
S2140053F00FCF14AE0FC60FCF0FC697E80F004FF0B3
S214005400000986E80F009AF80000CDF8149007A966
S21400541009F0D9F9DAF85CB0074620B9454C2046C1
S21400542039B0BDE8F08F14AACDE9092A20AE0DF1F7
S214005430DE020692314609AA06A800F087F9B0F106
S214005440000AEBDD129B47F4824189B21BBBADF824
S2140054502C104FF400510BA809F0ABF9CAF15E010D
S2140054604FF0062905AB52463144CDF83C9009F082
S214005470ACFDB0B1FFF79CFE0546059800F01AFF9C
S2140054800446002D52D1002CC9D0204639B0BDE8C4
S214005490F04FFFF78DBE4B464A460BA809F025FF96
S2140054A0D7E70BF1070B4FEADB0BBBF12F0F4FEAE9
S2140054B04B0A37D806952544302308AA294606A85D
S2140054C007F02FF9044618B1059800F0F3FEA6E79A
S2140054D05B463246294606A809F073FA04460028B9
S2140054E0F2D15B46F218294606A809F06AFA044685
S2140054F00028E9D1CDE9006A039A05984346494653
S21400550009F006FE10B1FFF793FEB5E7DDE90503E7
S2140055109D4203D100F0CEFE0446B4E700F0CAFE7A
S214005520054C7CE7059800F0C5FE77E72C4676E745
S2140055300C20010080C1FFFF00C7FFFF2DE9F04FE0
S21400554004468FB08A4615460021242205A8DDE9C8
S2140055501879DDF868801E460BF0E9F9206805A981
S21400556009F09BFC20B10FB0BDE8F04FFFF720BE5E
S214005570BDF814B005A82BF0FF0B09F0AAFEBBF58A
S214005580E24F22D1BAF1030F15D0BAF1040F104939
S21400559018BF0021CDE90198C9B2009720683346AC
S2140055A02A4641F0062109F0A4FD30B10FB0BDE84F
S2140055B0F04FFFF73DBE0749ECE74A4641463846FE
S2140055C009F0CAF90FB0BDE8F08F0348FAE700BF4C
S2140055D0090000020800000280C6FFFF0368062BD1
S2140055E013B50C4602D00A4802B010BD0DF10701F3
S2140055F0FFF792FC48B923789DF807100BB18B4251
S214005600F1D12046FFF7C0FBEEE70248ECE700BF0B
S21400561000C3FFFF00C6FFFF30B5154685B0002269
S214005620C3E900229A6001AA1C4607F05AF918B18D
S214005630A0F56A5005B030BD294601A8FFF73EFC2C
S21400564060B92B78012BF5D12368052B00D03BB928
S2140056506268044B002A18BF1846EBE70248E9E7E1
S2140056600048E7E780C5FFFF80C3FFFF2DE9F04352
S21400567087B0002316468DF8073002AA3023054669
S21400568007F04FF828B1A0F57454204607B0BDE8DF
S214005690F083029B2F681F440DF1070203AB3946C7
S2140056A02846FFF7B9FF04460028EED102AA39467D
S2140056B0284607F002F910B1A0F56C54E5E72B6810
S2140056C0029A13449F4238D19DF80700FFF7D2FC98
S2140056D00146A0B33046FFF7D9FC04460028D4D1D3
S2140056E09DF80730023B012B25D896E8030009F009
S2140056F0F3F9014603A8FFF771FF044670B996E870
S214005700030009F0E9F92A6800F18809BB1A49463E
S2140057108046FEF73DFF044620B12F60304609F074
S21400572019F8B2E749464046FEF772FF2F60044676
S2140057300028AAD0F2E7034CF0E7034CA5E7014C9B
S214005740A3E700BF80C3FFFF9AC4FFFFF0B585B094
S2140057500646002710460C461546019709F024F821
S214005760022817D195E8030002AB83E80300184629
S21400577009F01AF80238022894BF039A3A462146DE
S214005780304609F0B8F900280EDB019B034401936C
S214005790019809E0284609F007F8072816D132686C
S2140057A06868A24202D20A4805B0F0BD006801ABA4
S2140057B0121B214609F0CAFB0028F4D13068019A72
S2140057C0801A306021460BF098F8E1E70148EBE7D5
S2140057D080C1FFFF80C6FFFF2DE9F04F82468FB0E5
S2140057E00E462AB96FF06B0420460FB0BDE8F08F66
S2140057F00A440292024602A8FFF7A8FF041EF3DB43
S214005800029B9A1B002AEDDD5A1E0027651C029299
S214005810314603F8017C2A4602A807F0CAF8B0F120
S2140058200009C0F286800322314602A807F035F947
S214005830B0F100087FDB504608F0B6FF022883462A
S21400584038D19AE8030005AB83E80300184608F051
S214005850ABFF0238022872D8069B31461A7802A897
S21400586009F06CF9041EBFDB274603AA04A95846B4
S214005870FFF73EFB04460028B6D1DDE90332009769
S214005880314602A807F095F9041EADDB4D444544A9
S21400589025442A46314602A807F08BF8041EA3DBEF
S2140058A03022314602A807F0F8F8002845DB2544E8
S2140058B0441999E70728D8D13946242205A80BF0C1
