S01C00006275696C642F64656275672F67656E657261746F722E7333379C
S21400000000100020ED230000C1E70000C1E700005B
S214000010C1E70000C1E70000C1E70000C1E700003B
S214000020C1E70000C1E70000C1E7000011010000C1
S214000030C1E70000E44D01004101000091EE000020
S214000040C1E70000C1E70000C1E70000C1E700000B
S214000050C1E70000C1E70000C1E70000C1E70000FB
S214000060C1E70000C1E70000C1E70000C1E70000EB
S214000070C1E70000C1E70000C1E70000C1E70000DB
S214000080C1E70000C1E70000C1E70000C1E70000CB
S214000090C1E70000C1E70000C1E70000C1E70000BB
S2140000A0C1E70000C1E70000C1E70000C1E70000AB
S2140000B0C1E70000C1E70000B5570000C1E7000037
S2140000C0C1E70000C1E70000C1E70000C1E700008B
S2140000D0C1E70000C1E70000C1E70000C1E700007B
S2140000E0C1E70000C1E70000C1E70000C1E700006B
S2140000F0C1E70000C1E70000C1E70000C1E700005B
S214000100C1E70000C1E70000C1E7000000000000F2
S214000110074B19680868B0E8F04F80F30988BFF30A
S2140001206F8F4FF0000080F311887047AFF30080A8
S21400013064540020000000000000000000000000E2
S214000140EFF30980BFF36F8F154B1A681EF0100F80
S21400015008BF20ED108A20E9F04F10602DE9090055
S2140001604FF0600080F31188BFF34F8FBFF36F8F9F
S21400017006F07EF94FF0000080F3118809BC19687C
S2140001800868B0E8F04F1EF0100F08BFB0EC108AF9
S21400019080F30988BFF36F8F704700BFAFF300800E
S2140001A06454002000000000000000000000000072
S2140001B001F0FF01102A2BDB10F0070F08D010F813
S2140001C0013B013A8B422DD010F0070F42B3F6D117
S2140001D0F0B441EA012141EA014122F007047FF030
S2140001E000070023F0E80256083C85EA010586EA87
S2140001F0010685FA47F5A3FA87F586FA47F6A5FAC3
S21400020087F68EB9EED1F0BC01F0FF0102F00702CE
S21400021032B110F8013B013A83EA010313B1F8D179
S2140002200020704701387047002D06BF354603385A
S214000230073815F0010F07D1013015F4807F02BF93
S214000240013015F4C03F0130F0BC0138704700BFE4
S2140002500348044B834202D0034B03B11847704750
S2140002608C1900208C190020000000000548064B61
S2140002701B1AD90F01EBA301491002D0034B03B19F
S214000280184770478C1900208C19002000000000C9
S21400029010B5064C237843B9FFF7DAFF044B13B1C9
S2140002A00448AFF300800123237010BD845E002055
S2140002B000000000445E010008B5054B1BB105496F
S2140002C00548AFF30080BDE80840FFF7CFBF00BF8A
S2140002D000000000F0190020445E0100A3F5803AFB
S2140002E0704700BF174B002B08BF134B9D46FFF708
S2140002F0F5FF00218B460F461348144A121A13F0D6
S21400030093FA0E4B002B00D098470D4B002B00D0D5
S21400031098470020002104000D000D48002802D058
S2140003200C48AFF300800AF011FC2000290013F0FF
S21400033081F90AF0B3F900BF0000080000000000D1
S21400034000000000001000208C190020945E0020A1
S214000350000000000000000010B58CB004460CF051
S21400036066FC2422002103A813F05EFA05940123FC
S214000370049347F2121103A80CF035FC4FF4807377
S214000380ADF80E300E4B07934FF47053019301A84F
S2140003900CF01AFC019B06930EF0FBFB000240F0EB
S2140003A00100049010F0FF0F01D1002305930023F5
S2140003B0029302A903A812F056FA0CB010BD00BFB3
S2140003C00906000670B58CB006460C4615460CF0BD
S2140003D02EFC2422002103A813F026FA05960123FA
S2140003E0049347F2121103A80CF0FDFB4FF4807340
S2140003F0ADF80E30114B07934FF47053019301A8DC
S2140004000CF0E2FB019B06930EF0C3FB000240F0EB
S2140004100100049010F0FF0F01D100230593002384
S214000420029302AB2A46214603A812F02FF8044690
S21400043003A812F0CCFA20460CB070BD09060006E0
S21400044000B587B0944605910390084B02930022AE
S214000450019200921346614405A80FF057FA18B1AE
S214000460AC2007B05DF804FB0020FAE755CC00008E
S2140004702DE9F041BEB01C46449D2B6853B107469B
S214000480884616466B68B3F5007F05D22F203EB02F
S214000490BDE8F0812F20FAE712A813F034F8002107
S2140004A002913C2203A813F0BFF963687BB1019662
S2140004B0CDF800802368214A402102A80AF0AAF954
S2140004C002A912A813F037F848B1AC20DFE700966F
S2140004D043461B4A402102A80AF09CF9F0E709218E
S2140004E012A813F024F83868FFF736FF16A811F0A4
S2140004F071FB396816A807F027FC08B1AC20C6E7E0
S21400050016A912A813F015F8002300936A68296844
S21400051012A809F037FD08B1AC20B8E7286813F038
S214000520C6F901306A68904205D8686012A812F0D1
S214000530F0FF0020ABE713F0B4F800BF80470100DF
S2140005409C47010070B598B005460C46164600213B
S21400055006913C2207A813F067F94023059305A9E6
S2140005600291019306AB00936368226809492868E4
S21400057012F0A5F810B1AC2018B070BD06AB1693FB
S214000580059B1793324618AB13E903000CF035FBB6
S214000590F2E700BF0906000608B5044800680EF03A
S2140005A019FC08B1AE2008BD0020FCE72010002092
S2140005B008B5034B18680EF0FAFB002008BD00BF14
S2140005C020100020114AC0F8B820114AC0F8B82000
S2140005D01049C0F8B010C0F8B0200F4A026002F10F
S2140005E09801416002F1E001816002F58672C26006
S2140005F00A4AC0F8A8200A4AC0F8A8200949C160DB
S214000600094981600949416002607047C448010099
S2140006109C480100B0480100744A0100B44B010038
S214000620CC470100784801004C480100044801000E
S21400063038B50446134D0560134B4360134B836077
S214000640134BC360134B036003F19802426003F13F
S214000650E002826003F58673C36000210182418256
S2140006608182C1828161C16101624162802228303B
S21400067013F0DAF8C4F8A850074BC4F8A8302046A0
S21400068038BD00BFCC470100044801004C480100BB
S21400069078480100744A0100B44B010010B50446C6
S2140006A0FFF7C6FF094BC4F8B030C4F8B440084A98
S2140006B0C4F8B020C4F8B830C4F8BC40054BC4F841
S2140006C0B830012384F8C030204610BD9C48010095
S2140006D0B0480100C4480100012800D070474FF61A
S2140006E0FF739942FAD110B5044C2046FFF7D6FFA7
S2140006F0034A0449204612F0CBFF10BD081A00201A
S21400070000100020C505000070B586B0064600241F
S214000710059403E0059B1C440023059306F1AC05F5
S21400072005ABC4F50072104921442846FFF734FF94
S2140007300028EFD01CB996F8C00006B070BD0A4B72
S21400074001930294094B03934FF40073049303AA96
S21400075001A930460CF0CCFE86F8C000049A039936
S2140007602846FFF725FFE6E7CC1C0020CC1A002021
S21400077000487047081A0020024A0260024A0260D7
S214000780704700BFB04801009C48010010B5044601
S214000790044B0360044B0360082112F07EFF2046E2
S2140007A010BD00BFB04801009C48010070B584B081
S2140007B006460C46154600238DF80F3002938DF83A
S2140007C0073000930DF10F0120460CF0E7FC08B14E
S2140007D004B070BD9DF80F30013BDBB2032B01D98E
S2140007E02F20F5E702A920460CF00AFD0028EFD1DD
S2140007F00DF1070120460CF0D1FC0028E8D16B462D
S2140008004FF40072274920460CF013FD0028DFD174
S2140008109DF80F30013B032B41D8DFE803F0021FA1
S2140008202A3570680368DC6A009B1E4A4FF4CB7159
S214000830A0470028CCD170680DF079FD0028C7D1FC
S214000840029928460CF088FC002128460CF084FC0F
S214000850009928460CF080FC0020B9E77068036811
S214000860DC6A009B0F4A40F29511A0470028E2D0B0
S214000870AEE770680368DC6A009B0A4A40F2931190
S214000880A0470028D7D0A3E770680368DC6A009BFF
S214000890044A4FF4C171A0470028CCD098E72F2017
S2140008A096E700BF40240020F0B585B006460C460B
S2140008B015460023ADF80E308DF80D30A26821687D
S2140008C08A4240F28880521AE368994280F0858016
S2140008D05B1A9A4200F083800DF10E0120460CF060
S2140008E076FC00287CD10DF10D0120460CF056FC5C
S2140008F0002875D1BDF80E1028460CF020FC002804
S2140009006ED19DF80D1028460CF00CFC002867D11F
S2140009109DF80D30013B032B5BD8DFE803F002188F
S2140009202E4100238DF8083070680368DB6802AA41
S214000930BDF80E109847D82801D0002850D19DF851
S214000940081028460CF0EEFB0028B7D048E000233D
S214000950ADF80830706803685B6902AABDF80E102F
S2140009609847D82801D000283AD1BDF80810284664
S2140009700CF0E5FB0028A1D032E00023029370685B
S2140009800368DB6902AABDF80E109847D82800D085
S21400099030BB029928460CF0DFFB00288ED01FE003
S2140009A0002302937068036802AA00929F6A4FF4BD
S2140009B000730C4ABDF80E10B847D82800D078B996
S2140009C0029A084928460CF0D4FB00283FF476AF7C
S2140009D006E0262004E0002276E7002379E70020E0
S2140009E005B0F0BD40240020014B0360704700BFF7
S2140009F0D8480100024A0260024A0260704700BFFF
S214000A0078490100D8480100024A0260024A0260A2
S214000A10704700BF50490100D8480100024A0260F2
S214000A20024A0260704700BF28490100D84801000A
S214000A30024A0260024A0260704700BF0049010095
S214000A40D8480100024A0260024A0260704700BFAE
S214000A50C44801009C48010010B50446044B0360DE
S214000A60044B0360142112F018FE204610BD00BF90
S214000A7000490100D848010010B50446034B036046
S214000A800C2112F00AFE204610BD00BFD848010017
S214000A9010B50446044B0360044B03600C2112F0AF
S214000AA0FCFD204610BD00BF28490100D8480100C3
S214000AB010B50446044B0360044B03600C2112F08F
S214000AC0ECFD204610BD00BF50490100D84801008B
S214000AD010B50446044B0360044B03600C2112F06F
S214000AE0DCFD204610BD00BF78490100D848010053
S214000AF010B50446044B0360044B0360082112F053
S214000B00CCFD204610BD00BFC44801009C48010033
S214000B1070B584B00C461546CB783BB18068A37898
S214000B20032B6DD8DFE803F04F051E378068A8302A
S214000B30F5E700238DF80C300368DB6803AA2188EC
S214000B4098470346D82800D040B9D82B08D003A928
S214000B502A4620880CF0FDFB00B9002004B070BDCA
S214000B600021F5E70023ADF80C3003685B6903AAA3
S214000B70218898470346D82801D00028EED1D82BE4
S214000B8007D003A92A4620880CF0F8FB0028E4D0FA
S214000B90E4E70021F6E7002303930368DB6903AA72
S214000BA0218898470346D82801D00028D6D1D82BCC
S214000BB007D003A92A4620880CF0F6FB0028CCD0E4
S214000BC0CCE70021F6E700230393036803AA00920C
S214000BD09E6A4FF400730B4A2188B0470346D82814
S214000BE001D00028BAD1D82B08D006492B46039A44
S214000BF020880CF0EFFB0028AFD0AFE70021F5E728
S214000C002620ABE74024002038B505460C46A268EF
S214000C1021688A4219D9521AE368994217D25B1A98
S214000C209A4216D00D4920460CF0EBFB0D2800D05A
S214000C3098B90028EBD12B689B6908492846984745
S214000C4058B906480CF0DFFFE1E70022E4E700238E
S214000C50E6E72B689B682846984738BD04200020A6
S214000C60012800D0704708B54FF6FF73994200D0B0
S214000C7008BD4FF40172084908480CF0DAFF4FF43B
S214000C800272074907480CF0D4FF074B0022C3F84E
S214000C900021C3F80421EBE73C22002004200020BA
S214000CA034200020D41F0020CC1E002008B54B8A1C
S214000CB0B3F5817F15D007D840F20112934213D1C5
S214000CC0CB6AC360002008BDA3F2031292B2012AC9
S214000CD00AD80A7D194605480CF0C7FF0028F1D04F
S214000CE0F1E7CB6A0361EDE7A620ECE7CC1E002017
S214000CF070B50C4691F8263053B1856894F82730C5
S214000D004BB9237D032B42D8DFE803F0340D1A27B6
S214000D108568A835F2E7227D618A1E480CF0A5FF9B
S214000D200028EED00BE02B689B68618A94F824209C
S214000D3012B904F12C0200E000222846984770BD44
S214000D402B681B69618A94F8242012B904F12C02DE
S214000D5000E0002228469847F1E72B689B69618AE5
S214000D6094F8242012B904F12C0200E00022284650
S214000D709847E4E72B68DE6A618A94F824300BB95A
S214000D80E26A00E00022A3692846B047D7E726209B
S214000D90D5E700BFCC1E002008B50A7D498A024868
S214000DA00CF063FF08BD00BFCC1E002030B587B036
S214000DB005460C464B680968994201D25B1A00E06A
S214000DC00023A268914201D2521A00E00022981A2B
S214000DD09A4243D03B4B9A681968914214D2521AF1
S214000DE0384BDB68994211D25B1AD11A9A4235D039
S214000DF00290039188420BD802AB1A68314920460C
S214000E000CF00DF850B35AE00022E9E70023ECE7B7
S214000E1003ABF2E7002052E00346A268914201D2FB
S214000E20521A00E002469B1A0493264A91681268FA
S214000E30914200D9881A2349C9688A4201D2A1EB97
S214000E40020CA0EB0C00059098422ED304AB1A6857
S214000E501C4920460BF0E3FF002830D16268216869
S214000E608A4224D9521AA368994222D25B1A9A421D
S214000E7021D0154BD3F80431EBB1124B1A68DA6067
S214000E809A6001A910480CF01FFFD828C2D02B6822
S214000E90DB690C4A01A928469847844678B96368F6
S214000EA021688B42B8D95B1AB7E705ABCFE70022BB
S214000EB0D9E70023DBE72B68DB682846984707B0AE
S214000EC030BD00BFD41F0020CC1E002038B504461D
S214000ED00A4B0360012303718160094B0360002500
S214000EE0C560056107480CF08EFE074B1A68DA608D
S214000EF09A60064BC3F80451204638BDD848010016
S214000F000049010004200020D41F0020CC1E002031
S214000F1010B50446074B0360012303718160064B3E
S214000F200360002240F2051104480CF09EFE2046A5
S214000F3010BD00BFD848010028490100CC1E002083
S214000F402DE9F0419AB0144600238DF867308DF8ED
S214000F5066308DF865304B68052B42D8192700257A
S214000F602368159303F1080216921793189300232B
S214000F700D930E930F931093119312931393149350
S214000F80022115A80BF095FE9DF8661041F0800131
S214000F9015A80BF08EFE9DF8651015A80BF089FEBF
S214000FA0394615A80BF0C0FE294615A80BF081FEA1
S214000FB005F10A036268934200F29E80636008357A
S214000FC00DAA2946206800F0D7FF2368BDF8342014
S214000FD05A539DF86600023818BF01201AB0BDE8C3
S214000FE0F08106460D460A68023B009213440193C0
S214000FF0029303920DF1670168460BF096FF0746D1
S21400100008B10025ACE70DF1660168460BF08DFFD0
S21400101007460028F5D10DF1650168460BF085FFFF
S214001020074680460028ECD16B68802B14D863688E
S2140010307F2B13D9236803F1080204927E330593AD
S214001040069207929DF86630013B042B52D8DFE8E3
S21400105003F007152D3F1E00C227D2E71927D0E759
S214001060716808A8FFF732FF04AA694608A80CF0C2
S21400107044FE0746214B0893214B0893069A049B8F
S2140010809A4201D9A2EB03085FFA88F568E771680F
S21400109008A8FFF73DFF04AA694608A80CF02DFE35
S2140010A00746184B0893164B0893E7E77368144DEA
S2140010B0089503228DF824200A93134E089604AA56
S2140010C0694608A80CF019FE074608960895D5E765
S2140010D073680B4D089504228DF824200A930B4E56
S2140010E0089604AA694608A80CF007FE0746089664
S2140010F00895C3E72A27C1E712F0D3FA0049010092
S214001100D8480100284901005049010078490100EB
S2140011100C4A026002F19801416002F1E001816030
S21400112002F58672C260084AC0F8A820074AC0F8CE
S214001130A8200749C16007498160074941600260ED
S214001140704700BF744A0100B44B0100CC47010051
S214001150784801004C48010004480100A0F1040052
S214001160D6E7A0F10800D3E7A0F10C00D0E700BF57
S21400117008B540F26313994208D040F2971399429B
S2140011801CD0B1F5B17F12D0A62014E02AB11168A8
S214001190B1F57A7F03D22F200DE02F200BE00B4B0A
S2140011A0994201D92F2006E000F0B6FD03E01AB1FF
S2140011B013680362002008BD0023FAE71AB113681B
S2140011C043620020F7E70023FAE700BFA08601008D
S2140011D0F0B587B00F4616461D46002403940494C7
S2140011E0CDF813400294019402AB0B2203A900F041
S2140011F043FD044618B9029B0A2B08D02F241CB1C5
S21400120040F201239C4229D1204607B0F0BD0A22B5
S21400121001A903A809F054FC3880019A04AB9A424D
S21400122001D02F24EBE70A2201A90DF1110009F0E5
S21400123047FC3070019A0DF113039A4201D02F2417
S214001240DDE70A2201A905A809F03AFC2870019AF0
S2140012500DF116039A42D2D02F24D0E701200DF0CC
S2140012604FFA0028D0D003AB024A01211F200DF010
S21400127039FAC9E79849010030B587B00C46002313
S214001280059305AB4A68096800F006FD40F20123A5
S214001290984208D028B9059B626893421BD86360C1
S2140012A0002007B030BD0D4B0DF1040C0FCB8CE8C1
S2140012B00F0063680F2B01D81920F2E725680DF19F
S2140012C0040CBCE80F0028606960AA60EB6010237D
S2140012D005930020DEE712F0E4F900BF9C4B010006
S2140012E070B596B004460E4600250A952A22294671
S2140012F00BA812F099FA099509AB2E220AA92046E6
S21400130000F02CFD40F20123984202D068B116B0DE
S21400131070BD182309930AAC144D0FCD0FC495E881
S214001320030084E803000020F0E700230193029303
S21400133003930493059306930793089301AA0999C8
S2140013400AA800F02FFE04467368984201D91920B7
S214001350DDE7024601A9306812F09BFA73689C42EA
S21400136002D874600020D2E712F09BF9B849010059
S2140013704B68602B01D819207047F0B5A5B005461C
S2140013800C461646002702978222394603A812F01A
S2140013904BFA019701AB862202A9284600F0EEFC24
S2140013A040F20123984202D048B125B0F0BD842215
S2140013B001920A4902A812F06CFA3846F4E722684D
S2140013C0019902A800F0EEFD30606368984202D8EA
S2140013D060600020E9E712F064F900BFD44901001C
S2140013E010B504460E4B036003F19802426003F109
S2140013F0E002826003F58673C3600A4BC0F8A8302B
S214001400094BC0F8A830094AC260094A8260094AF6
S21400141042600360AC2112F040F9204610BD00BFC8
S214001420744A0100B44B0100CC4701007848010023
S2140014304C48010004480100A0F10400D0E7A0F1E8
S2140014400800CDE7A0F10C00CAE700BF60B5A3B066
S214001450064610461D46A1F21111912900F2E281BE
S214001460DFE811F09200E001E001E001E001E001B8
S214001470E001E001E001E001E001E001E001E0015F
S214001480E001E001E001E001E001E001E001E0014F
S214001490E001E001E001E001E001E001E001E0013F
S2140014A0E001E001E001E001E001E001E001E0012F
S2140014B0E001E001E001E001E001E001E001E0011F
S2140014C0E001E0019800E001A600E001B400C200DF
S2140014D0D000DE00E001E001E001E001E001E00113
S2140014E0E001E001E001EC0009011701E001E00184
S2140014F0E001E001E001E001E001E001E001E001DF
S214001500E001E001E001E001E0014701510157017F
S214001510E001E001E001E001E001E001E001E001BE
S214001520E001E001E001E001E001E001E001E001AE
S214001530E001E001E001E001E001E001E001E0019E
S214001540E001E00176018A01E001E001E001E0014E
S214001550E001E001E001E001E001E001E001E0017E
S214001560E001E001E001E0019601E001A201AE0128
S214001570E001E001E001E001E001E001E001E0015E
S214001580E001E001BA01D8012A460146304600F0E3
S214001590BDFC48E102B12DB900229B49304600F05F
S2140015A069FA40E12A460146304600F063FA3AE11D
S2140015B002B12DB900229449304600F08BFA32E190
S2140015C02A460146304600F085FA2CE102B12DB9D4
S2140015D000228D49304600F0ADFA24E12A46014645
S2140015E0304600F0A7FA1EE102B12DB90022864966
S2140015F0304600F0B5FA16E12A460146304600F0BD
S214001600AFFA10E102B12DB900227F49304600F052
S214001610BDFA08E12A460146304600F0B7FA02E174
S21400162002B12DB900227849304600F0C5FAFAE03A
S2140016302A460146304600F0BFFAF4E002B1A5B9EA
S214001640002309930A930B930C930D930E930F9319
S2140016501093B38A6D4A202109A809F0DBF80246E8
S21400166009A9304600F0D6FADDE02A4601463046A3
S21400167000F0D0FAD7E002B12DB90A22644930460C
S21400168000F0F2FACFE02A460146304600F0ECFAC7
S214001690C9E002B1EDB9102105A80CF0ABFE02239B
S2140016A00093212309AA102105A80CF0D1FF0028D9
S2140016B040F0B98009A812F0FAF81290202313938C
S2140016C0984214D812AB1A6809A9304600F0DCFA22
S2140016D0A9E0102D01D92F20A5E002230093212395
S2140016E009AA29460CF0B4FF0028E3D09BE013AB10
S2140016F0E9E702B10DB92F2095E02A4601463046AB
S21400170000F024FB8FE02A460146304600F02EFB10
S21400171089E002B1B5B9002309930A93CDF82B30BE
S214001720F38A326A02920193F3690093B369728A6C
S214001730318A09A80CF061FD0B2209A9304600F099
S214001740F5FB70E02A460146304600F0EFFB6AE003
S21400175002B155B900238DF8243009AA14921593C6
S21400176014A930460CF025FE5DE01692179516A9D2
S21400177030460CF01EFE56E01892199522B118A9B4
S214001780304600F003FB4EE0002DF8D011F089FF44
S2140017901A921B9522B11AA9304600F017FB42E0B8
S2140017A0002DF8D011F07DFF1C921D9522B11CA9CA
S2140017B0304600F02BFB36E0002DF8D011F071FF1C
S2140017C01E921F9522B11EA9304600F03FFB2AE06C
S2140017D0002DF8D011F065FF1AB17F2D08D92F2003
S2140017E021E08022002106F1280012F01DF809E011
S2140017F02A46014606F1280012F04BF8354400232D
S21400180085F8283000200EE0745101005C4A010083
S214001810604A010032B12092219520A9304600F09E
S21400182095FB00E0A62023B060BD00BF012901D0D3
S214001830A620704722B11278024B1A70002070471B
S2140018400022F9E7855E0020012901D0A620704716
S214001850024B1B7813700020704700BF855E002087
S214001860024A0260024A0260704700BFB44B0100A1
S214001870CC47010010B584B00193022902D0A620FF
S21400188004B010BD144620220021094811F0CCFFF8
S21400189054B120230393019B202B07D801AB1A6871
S2140018A02146034811F0F5FF0020E9E703ABF6E711
S2140018B04026002000B585B001930AB110461BB93A
S2140018C02F2005B05DF804FB022901D0A620F8E71A
S2140018D020220392934208D801AB1A68069B1A602E
S2140018E0034911F0D6FF0020EBE703ABF5E700BF96
S2140018F04026002010B50446044B0360044B0360EA
S214001900042111F0CAFE204610BD00BFB44B0100F2
S214001910CC47010010B50A4B00201860094C22B9CC
S2140019202146094800F0FEFC10BD13460B44A3F503
S214001930006401F093FE204608F0B8FCF0E700BF14
S21400194060260020000008002172080008B5024842
S21400195000F020FC08BD00BF2172080070B584B0FE
S2140019600D4616461C460023039303A9FFF7EEFF19
S21400197008B104B070BD254B1B6823B903980CF062
S21400198092FC0028F5D162682168214811F081FF99
S2140019906368B3F5007F25D302200CF0B1FE48BB88
S2140019A01A4B18684FF400721949039B18440CF040
S2140019B07FFC0028DDD1154B1968284600F0B2FCE4
S2140019C00028D6D16168304600F0ACFC0028D0D1A3
S2140019D060680E4C2368402118440CF05CFC2060C4
S2140019E00020C6E7C3F50072FF210948184411F02D
S2140019F01BFFD1E763680193044B1B680093039BAE
S214001A00044A02211F200CF06DFEC9E76026002064
S214001A1040240020E44B0100F0B589B00E46154680
S214001A201F460024079407A9FFF790FF70B9079890
S214001A3028440590069758B102200CF061FE58B96C
S214001A400E9A05AB93E803000BF0D7F809B0F0BD8B
S214001A50002FF1D011F025FE02970195079B009309
S214001A603346034A02211F200CF03CFEE8E700BF85
S214001A700C4C010008B5024800F06CFC08BD00BF25
S214001A800072080000B583B00023019301AB034841
S214001A9000F0A8FB03B05DF804FB00BF007208006E
S214001AA008B5024800F024FC08BD00BF0C72080010
S214001AB010B50C46064800F041FB40F20123984260
S214001AC000D010BD4FF6F17323800020F9E700BF69
S214001AD00C72080008B5024800F03CFC08BD00BFC8
S214001AE00D72080000B583B00023019301AB0348D4
S214001AF000F078FB03B05DF804FB00BF0D72080031
S214001B0008B5024800F0F4FB08BD00BF0B720800E1
S214001B1010B50C46064800F011FB40F2012398422F
S214001B2000D010BD48F2010323800020F9E700BF73
S214001B300B72080008B5024800F00CFC08BD00BF98
S214001B400E72080000B583B00023019301AB034872
S214001B5000F048FB03B05DF804FB00BF0E720800FF
S214001B6008B5024800F0F6FB08BD00BF107208007A
S214001B7000B583B00023019301AB034800F032FBAD
S214001B8003B05DF804FB00BF1072080008B50248F9
S214001B9000F0E0FB08BD00BF1172080000B583B07E
S214001BA00023019301AB034800F01CFB03B05DF873
S214001BB004FB00BF1172080008B5024800F0CAFB1B
S214001BC008BD00BF1272080000B583B00023019361
S214001BD001AB034800F006FB03B05DF804FB00BF52
S214001BE01272080008B5024800F082FB08BD00BF6C
S214001BF00873080010B50C46054800F09FFA40F23E
S214001C000123984200D010BD00202080FBE700BFD3
S214001C100873080008B5024800F09CFB08BD00BF2A
S214001C200F72080030B583B00C46154600230193AA
S214001C3001AB0B4800F0D6FA40F20123984201D0DF
S214001C4003B030BD1CB10C2D03D81920F8E70B20CB
S214001C50F6E7044A294620460CF02FFB0020EFE763
S214001C600F7208002C4C010008B5024800F072FB09
S214001C7008BD00BF0472080008B5024800F0B2FABA
S214001C8008BD00BF0472080008B5024800F07EFBDD
S214001C9008BD00BF1F72080008B5024800F0F4FA3D
S214001CA008BD00BF1F72080008B5024800F020FB00
S214001CB008BD00BF0772080010B582B00C46134876
S214001CC000F03CFA40F20123984207D020B923885E
S214001CD0B3F5805F07D2002002B010BD4FF47063EA
S214001CE023800020F2E701200CF00AFD08B92F201F
S214001CF0F2E72F23019340F26D130093044B054A3D
S214001D00012100200CF0EEFCF1E700BF077208008E
S214001D103C4C01005C4C010008B5024800F002FB98
S214001D2008BD00BF0872080010B50C46064800F053
S214001D3031FA40F20123984200D010BD4FF47A7376
S214001D4023600020F9E700BF0872080008B50248C3
S214001D5000F000FB08BD00BF0972080008B5024885
S214001D6000F040FA08BD00BF0972080008B5024836
S214001D7000F0F0FA08BD00BF0A72080008B5024875
S214001D8000F030FA08BD00BF0A72080008B50B461E
S214001D90034A0449FFF7E2FD00B9002008BD00BF72
S214001DA0277208002672080000B583B00091044B25
S214001DB0044A05490CF090FA03B05DF804FB00BF36
S214001DC02772080026720800704C010008B50B4602
S214001DD0034A0449FFF7C2FD00B9002008BD00BF52
S214001DE0257208002472080000B583B00091044BE9
S214001DF0044A05490CF070FA03B05DF804FB00BF16
S214001E0025720800247208008C4C010008B50B46A9
S214001E10034A0449FFF7A2FD00B9002008BD00BF31
S214001E20237208002272080000B583B00091044BAC
S214001E30044A05490CF050FA03B05DF804FB00BFF5
S214001E402372080022720800B44C010000B583B06B
S214001E5000230193022301934A68096801A8FEF74C
S214001E60EFFA10B103B05DF804FB0199014800F0E9
S214001E7059FAF7E72072080000B585B000200390F5
S214001E80022003900698009003A8FEF7F1FA10B11E
S214001E9005B05DF804FB0399014800F043FAF7E744
S214001EA02072080070B586B00E461546D82400236A
S214001EB00593144800F02EF980B105A9114800F0EA
S214001EC069F980B9059B0022049203B902230493A2
S214001ED02A46314604A8FEF735FB044602200CF0DD
S214001EE00FFC10B9204606B070BD73686A6802948D
S214001EF001920093059B044A02211F200CF0F2FB7E
S214001F00F0E700BF20720800D04C010008B5024878
S214001F1000F020FA08BD00BF2972080008B5024884
S214001F2000F060F908BD00BF2972080008B5024835
S214001F3000F02CFA08BD00BF0572080008B502487C
S214001F4000F0A2F908BD00BF0572080000B583B016
S214001F5000230193032301934A68096801A800F04F
S214001F6059F810B103B05DF804FB0199014800F080
S214001F70D9F9F7E73072080000B585B0134600229D
S214001F80039203AA0192202200920A4601460448C0
S214001F9010F0E7FA00B1AC2005B05DF804FB00BF16
S214001FA00900000208B5024B0CF0B2FA08BD00BFEB
S214001FB015E40000282800D90020024B03EB80001F
S214001FC0704700BF1C4D0100F8B50C4616461D466E
S214001FD0FFF7F0FFBFF35B8F084B1B68BFF35B8F09
S214001FE02BB11F462B4632462146B847F8BD2B4636
S214001FF0324621460CF08DFBF8E700BF6426002031
S214002000BFF35B8F024B1878BFF35B8F704700BF40
S2140020100410002070B58CB004460D4616460068C5
S2140020200CF091FB2422002103A811F0FDFB23688D
S2140020300593012304934FF4105103A80CF079FB89
S2140020408023ADF80E300D4B07934FF400730193C9
S21400205001A80CF05FFB019B069302AB32462946B3
S21400206003A810F013FA10B900200CB070BD01469A
S214002070034808F02FFDAC20F7E700BF0010C004AF
S214002080C04D010000B583B00F4B1B684BB10E4B23
S2140020901868B0B14FF0FF310DF02EFA03B05DF8BE
S2140020A004FB03230093094B0022114601200DF088
S2140020B05CF8054B186000231A4619460DF082F8A6
S2140020C0E5E711F0EEFA00BFB826002068260020EB
S2140020D008B5054B186828B100231A4619460DF0B6
S2140020E071F808BD11F0DDFAB826002050B1084A94
S2140020F0904209D0C0B200F5300020F07F4040F09A
S214002100A06070470020704740F20120704700BF73
S2140021100BE000F000B583B001466B4601AA064806
S21400212000680AF081FBFFF7E1FFB0FA80F0400993
S21400213003B05DF804FB00BF5410002030B585B036
S21400214004460D460023ADF806300CF00FFB18B918
S21400215040F2012005B030BD02AB03AA21460C4870
S21400216000680AF061FBFFF7C1FF0028F2D1029B6E
S2140021700DF106022146064800680AF0B3FAFFF79A
S214002180B5FF0028E6D1BDF806302B80E2E700BF99
S2140021905410002030B585B004460D460023019348
S2140021A00CF0E4FA18B940F2012005B030BD02ABDD
S2140021B003AA21460A4800680AF036FBFFF796FF96
S2140021C00028F2D1029B01AA2146054800680AF0C1
S2140021D089FAFFF78BFF0028E7D1019B2B60E4E725
S2140021E054100020F0B585B005460E4617461C462E
S2140021F0002323600CF0BAFA18B940F2012005B0AB
S214002200F0BD02AB03AA29461E4800680AF00CFB84
S214002210FFF76CFF0028F2D1029B23B1DEB1BB4270
S21400222003D31920EBE71E20E9E732462946154876
S21400223000680AF057FAFFF759FF0028DFD1029B23
S214002240012B03D023600022F254D8E7317800290E
S214002250F8D10346F6E7012B01D92360CFE7012327
S2140022600DF107022946074800680AF03BFAFFF717
S2140022703DFF03460028C2D19DF8072002B1029B0D
S2140022802360BCE754100020F0B583B005460E4628
S21400229017461C46002323600CF068FA18B940F273
S2140022A0012003B0F0BD6B4601AA29460F4800681E
S2140022B00AF0BAFAFFF71AFF0028F2D1009B2BB1FA
S2140022C0002EEED0BB4203D91920EAE71E20E8E72D
S2140022D032462946054800680AF004FAFFF706FF6A
S2140022E00028DED1009B2360DBE700BF54100020EF
S2140022F010B582B00446ADF806100CF037FA18B9DF
S21400230040F2012002B010BD02230DF10602214664
S214002310034800680AF09CF9FFF7E8FEF2E700BF02
S2140023205410002010B582B0044601910CF01EFA3D
S21400233018B940F2012002B010BD04230DEB0302D1
S2140023402146034800680AF083F9FFF7CFFEF2E75C
S21400235054100020F8B507460D4614460CF006FA51
S21400236078B12F265DB1084B186804B901242346BE
S2140023702A4639460AF06CF9FFF7B8FE064630469C
S214002380F8BD40F20126FAE754100020F8B50746DB
S2140023900C4616460CF0EAF968B12F2574B13346A0
S2140023A022463946074800680AF052F9FFF79EFEB3
S2140023B005462846F8BD40F20125FAE7002EF8D17A
S2140023C0EDE700BF541000200346064A1068034499
S2140023D0054A934202D8034A136070474FF0FF3015
S2140023E0704700BF081000200000012008B500F06C
S2140023F075F8124A0AE01068516850F8230041F850
S2140024002300013391688B42F5D30C320C4B9A4271
S21400241001D20023F6E70B4A08E01168002041F8D5
S2140024202300013351688B42F7D30832064B9A4299
S21400243001D20023F6E7FDF755FF00BF4C5E010012
S214002440585E0100585E0100585E01000048704763
S21400245000F04902114BD3F8943003F00703023B17
S214002460032B0DD8DFE803F0050F02080C4B1868A5
S2140024700BE00C4B186808E00B4B1868400804E0AB
S214002480094B186801E04FF40040044BD3F80031C4
S214002490C3F304230133B0FBF3F0704700400E4053
S2140024A014100020181000200C10002008B5FFF7AC
S2140024B0D1FF054BD3F80831C3F308230133B0FB33
S2140024C0F3F0024B186008BD00400E4010100020CC
S2140024D0014B1868704700BF18100020044B054ACF
S2140024E09A60D3F8882042F47002C3F888207047B8
S2140024F000ED00E000000000014B1868704700BFC8
S21400250014100020B0F1FF3F01D010B97047024808
S21400251070470248704700BF21E000F024E000F05A
S214002520F8B505460E46940022460CF006FAFFF76C
S214002530E9FF074628B922463146284611F04AF9EF
S21400254008B93846F8BD014FFBE700BF10E000F0C1
S21400255038B5044601F03CF9FFF7D4FF054608B14C
S214002560284638BD01F010FA014620460CF02FF937
S2140025700028F5D1004DF3E70EE000F0074BDB6BCB
S21400258013F0400F04D1064BD3F8C830002BFAD115
S214002590024B5868C0F30140704700BF00300E4041
S2140025A00000C6430C4B984205D90C4B984210D8F5
S2140025B001210A4601E000210A46094B1A64094A2D
S2140025C0D2F8003123F0807343EA0163C2F8003189
S2140025D0704702210122F0E70048E8010090D0038E
S2140025E00000C84300400E40014B1868704700BF0B
S2140025F01C100020114B5B68002300E00133042B05
S2140026000CD80F4A02EBC30292F804C0CAB2944533
S214002610F4D10B4A52F833208242EFD3052B0BD06D
S214002620074A02EBC3035979044A536823F0407300
S21400263043EA0163536070470321F5E700000E404C
S214002640584E010008B5FFF705FF044BD3F80031DC
S214002650C3F3042303FB000008BD00BF00400E4088
S21400266010B5084B1C6CA4B241F671321A64FFF721
S214002670EDFE0021FFF7BEFF14B1024B00221A64E4
S21400268010BD00BF00000E4010B5064B1C6CA4B277
S21400269041F671321A64FFF7ADFF14B1014B002208
S2140026A01A6410BD00000E4010B4C0F30323013BB3
S2140026B0092B21D8DFE803F0050820203023262048
S2140026C0292D0024164A01E00024164AC0F30430DF
S2140026D054B1134BD3F8443113F0010F04D1104B0F
S2140026E0D3F840311C42FAD102F1424303F580137D
S2140026F000EBC300800001605DF8044B70470124C6
S214002700094AE3E71024094AE0E74FF48034084A10
S214002710DCE70024074AD9E70024074AD6E700BFCB
S21400272000400E40C0400E40E0400E40E8400E40E4
S214002730F0400E4050410E40B0400E40C0F3031330
S214002740013B092B6BD8DFE803F0050B111B6A6A07
S2140027502127415F334BD3F80001C0F304207047B4
S214002760304BD3F81401C0F3042070472D4BD3F838
S2140027700031C3F3006301330120984001387047ED
S214002780284BD3F80C01C0F308207047254BD3F82C
S2140027900801C0F308207047234B984204D0234B0F
S2140027A098420AD0002070471E4BD3F8203103F021
S2140027B00F0301209840013870471A4BD3F8203198
S2140027C0C3F301130120984001387047184B984214
S2140027D007D003F5B01303F5805398420AD00020C3
S2140027E07047104BD3F82831C3F3011301209840EB
S2140027F0013870470B4BD3F82831C3F30123043359
S21400280001209840013870470A4B984201D00020BA
S2140028107047044BD3F8300100F0030070470020E7
S214002820704700BF00400E408006160080162E003F
S21400283090171A00A009140000F00F0001380728AE
S21400284065D8DFE800F0041B2A643E4D64553B4B18
S214002850D3F8943003F00703023B052B0CD8DFE8CF
S21400286003F0055803070B09022070470420704741
S2140028700B2070470C207047052070472F4BD3F86D
S214002880803003F00703022B45D0042B45D0012BE4
S21400289001D00120704703207047284BD3F88430BE
S2140028A003F00703013B032B09D8DFE803F00238E7
S2140028B00604032070470A20704706207047012050
S2140028C070471E4BD3F8883003F00703022B28D03E
S2140028D0042B28D0012B01D001207047032070471D
S2140028E0164B1B6F13F001031FD003B3092070476C
S2140028F0124BD3F85C3103F03003202B19D0302B69
S21400290019D0102B01D001207047072070470020F7
S214002910704703207047022070470A207047022045
S2140029207047022070470A20704707207047012032
S2140029307047042070470820704700BF00400E40D4
S21400294010B50446FFF778FF1B4B9C4212D01B4B7A
S2140029509C4215D01A4B9C4206D00138032828D832
S214002960DFE800F014171D1A164BD3F8800000F0AD
S2140029700700F2E7134BD3F8840000F00700ECE7FB
S214002980104BD3F8880000F00700E6E70BF019FFBD
S21400299010BDFFF7B1FDFBE70BF016FFF8E7FFF7FA
S2140029A059FD084BD3F80031C3F300630133D84018
S2140029B0EEE70020ECE700BF03002000050024003F
S2140029C002001E0000400E4008B50748FFF734FF1F
S2140029D0072804D0092805D1FFF73CFD03E0FFF7E0
S2140029E003FE00E0002008BD06000E0008B100202F
S2140029F0704710B504460A48FFF71EFF072805D0A3
S214002A00082809D0042804D0204610BDFFF7ECFDA6
S214002A10FBE7FFF75DFDF8E7FFF714FEF5E700BFFD
S214002A20B800320038B500F47813B3F5B01F00F0E4
S214002A30938005463BD8B3F5402F00F0828010D92E
S214002A40B3F5801F00F0AA80B3F5A01F27D1574822
S214002A50FFF776FF564BD3F8303103F00303D84028
S214002A601CE0B3F5802F61D005D9B3F5202F14D123
S214002A70FFF7F0FC12E0002B55D0B3F5003F0AD16B
S214002A80FFF7E8FC4A4BD3F80831C3F308230133B9
S214002A90B0FBF3F002E0002000E0002038BDB3F504
S214002AA0602F02D1FFF790FFF8E70020F6E7B3F5B6
S214002AB0381F5BD00ED9B3F5481F72D0B3F5781F18
S214002AC021D1FFF7C7FC044628460BF0C9FEB4FB2D
S214002AD0F0F0E3E7B3F5001F52D006D9B3F5101FA8
S214002AE00FD13248FFF72CFFD8E7B3F5D01F4BD0F5
S214002AF0B3F5F01F03D12F48FFF722FFCEE70020E3
S214002B00CCE70020CAE7B3F5401F0AD12A48FFF7F2
S214002B1017FF274BD3F82831C3F301230433D840DB
S214002B20BCE70020BAE7FFF795FCB7E7FFF792FC93
S214002B301F4BD3F80C31C3F308230133B0FBF3F07B
S214002B40ACE7FFF787FC1A4BD3F81431C3F3042322
S214002B500133B0FBF3F0A1E71648FFF7F1FE144B84
S214002B60D3F8203103F00F03D84097E71148FFF75A
S214002B70E7FE0F4BD3F82031C3F30113D8408DE79F
S214002B800D48FFF7DDFE89E70B48FFF7D9FE084B37
S214002B90D3F82831C3F30113D8407FE7FFF724FDAD
S214002BA07CE70020FFF722FF78E700BF050024003F
S214002BB000400E4002001E0003002000014B186873
S214002BC0704700BF0C10002004281ED8DFE800F075
S214002BD0180312080D000E4B186AC0F30800704761
S214002BE00B4B186900F07F007047094B986900F09E
S214002BF07F007047064BD3F89C00C0F30A0070476E
S214002C00034B986B00F07F0070470020704700BFB2
S214002C1000400E4038B50C46042813D8DFE800F014
S214002C2043032F132100C1F30804274BD3F8683859
S214002C30002BFAD1254A136A23F4FF7323F001030D
S214002C402343136238BD01F07F041F4BD3F860386E
S214002C50002BFAD11D4A136923F07F032343136127
S214002C60F0E701F07F04184BD3F86438002BFAD154
S214002C70164A936923F07F0323439361E2E7134DDB
S214002C80D5F890306B6A23F0300343F010036B6284
S214002C90C1F3C3100BF0DEFD2A6B0D4B134023432C
S214002CA003432B63CEE74F2928BF4F24064BD3F8A8
S214002CB07438002BFAD1054A936B23F07F03E4B2F5
S214002CC01C439463BEE700BF0020C84300400E408C
S214002CD000F8FF0F134B5B6A13F0300F09D0202962
S214002CE014D0302915D009B10F4A04E04FF4400241
S214002CF001E04FF440020B4BD3F8903032EA030366
S214002D00F9D112F4800F07D1012070474FF400026A
S214002D10F1E74FF44002EEE7024BD3F8A000C0F311
S214002D208020704700400E40FF33E107022801D0A4
S214002D300120704710B529B1054B4FF48064C3F8E5
S214002D40A84059660AB9012010BDFFF7C3FFFBE78C
S214002D5000400E4070B5042800F28580DFE800F0E1
S214002D60484250033C00022301250024AC460029BB
S214002D7067D002284AD000213B4B1D663B4B2344BC
S214002D809B001B68002BF9D0002A6CD0374C64449B
S214002D90A4002368002BF9D0022864D1002962D051
S214002DA0314B5B6A13F0010F46D001222021FFF75A
S214002DB0BDFF0220FFF708FF064601220021022081
S214002DC0FFF7C8FF31460220FFF724FF264B1D669B
S214002DD02368002BFCD046E02023102504244FF067
S214002DE0050CC4E78023402506244FF0070CBEE7F9
S214002DF04FF400734FF4807508244FF0090CB6E7C3
S214002E000823042502244FF0030CB0E7164B5B6A38
S214002E1013F0300F0ED1164BDB6B134B5B6A13F0BF
S214002E20010FA9D0104E736A23F0300343F010034D
S214002E307362A1E700219FE700210220FFF74AFF07
S214002E40B7E709490B66084BD3F890100123A34057
S214002E501942F8D13AB1044BD3F89020012303FA73
S214002E600CF31A42F7D170BD00400E408004F210F9
S214002E7000300E4038B5FFF7A1FE1B4B984205D92F
S214002E80044620B1002100F0A5F900E00024174810
S214002E90FFF788FB012211460320FFF75BFFFFF7D1
S214002EA0DFFB4CB1124BDB6B13F0400F04D1114B20
S214002EB0D3F8C830002BFAD10F4B01225A67FFF720
S214002EC0C9FAFFF76FFBFFF7F1FA0546FFF756FB67
S214002ED001462846FFF7D8FB04B138BD0121002083
S214002EE000F078F9F9E700BF002D31010148E8014C
S214002EF000300E400000C64300400E40074BDB6B20
S214002F0013F0400F04D1064BD3F8C830002BFAD18B
S214002F10024B5868C0F30140704700BF00300E40B7
S214002F200000C6431A48C26CC2F30322194B1B8822
S214002F3003F1280103EB51032833013202EB82012F
S214002F40B3FBF1F3013B072B28BF0723C16C21F02D
S214002F50EE6141EA036343F48013C3640E4BB3F996
S214002F600030002B13DB9BB203F1280103EB510367
S214002F702833510801EB4202B3FBF2F3072B28BFBC
S214002F800723026D22F0700242EA031303657047BE
S214002F9000300E40805E00207C5E0020024B1880D1
S214002FA0024B1980704700BF805E00207C5E0020C8
S214002FB010B1012804D07047034B044A9A65704745
S214002FC0014B034A9A65704700300E407740205701
S214002FD0372110B71A4BD3F83032032929D8DFE847
S214002FE001F002121518DBB24AB91B0333F4704124
S214002FF021D11448C16E21F470411943C166012ADB
S21400300009D001207047C3F30723EDE7C3F3074356
S214003010EAE71B0EE8E71B0333F470420DD10949BB
S214003020D1F8EC2022F470421343C1F8EC300120B2
S214003030704700207047002070470020704700BF90
S2140030400081E00F00300E401B02A2B101221343A4
S214003050B3F5007F4DD022D8B3F5807F42D00CD98F
S21400306040F20112934215D1294BD3F824321A0E9E
S214003070C3F3074310E00022E9E763B3012B06D150
S214003080234BD3F82432C3F30722DBB204E000223A
S214003090134601E00022134603600A607047B3F54A
S2140030A0407F2DD040F20132934206D1184BD3F820
S2140030B028321A0EC3F30743EEE740F2012293428A
S2140030C006D1134BD3F82832C3F30722DBB2E3E76B
S2140030D000221346E0E70E4BD3F81C32C3F3072258
S2140030E0DBB2D9E70A4BD3F81C321A0EC3F30743F8
S2140030F0D2E7074BD3F82032C3F30722DBB2CBE785
S214003100034BD3F820321A0EC3F30743C4E700BFBD
S2140031100081E00F134B9A6922F03F020378D3B187
S21400312004234178C9B102210B438178B9B1082143
S2140031300B43C178012900D000210B4301790B43D2
S2140031401343084A9361136823F44033417943EAF2
S2140031500143136070470023E3E70021E4E7002102
S214003160E6E700BF00300E40174BDB6B13F0400F56
S21400317029D170B504460D46FFF7C0FEA04218D010
S214003180124BD3F80031FFF765F90646022C11D032
S214003190C4F10202102393400B4A136145B1D36B6E
S2140031A013F0400F04D10A4BD3F8C830002BFAD1E5
S2140031B024B170BD0221FFF767FAE9E70021304627
S2140031C0FFF762FAF5E7704700300E4000400E4009
S2140031D00000C64338B5114BDB6B13F0400F0BD124
S2140031E00C4650B10E4B1B7813B10E4B98420FD9BC
S2140031F021460020FFF7B8FF38BD0B4BD3F800512F
S214003200C5F304250135FFF725F905FB00F0E9E7CE
S21400321021460220FFF7A8FFEEE700BF00300E4071
S2140032206C270020002D310100400E4010B42C4BBE
S2140032305A6B4AF6E8515963294B9B6F13F0010FFE
S214003240FAD1274B1B6C13F0030303D02549012446
S214003250C1F8B44AD9B2814221D0032B00D01BB9A1
S214003260431EDBB2012B21D91D4B9B6F13F0010FC0
S214003270FAD11B490B6C23F0030303430B64184B72
S2140032809B6F13F0010FFAD1003818BF0120154BC1
S214003290C3F8B40A012A1FD05DF8044B7047002813
S2140032A0FAD1104B0022C3F8B42AF5E70C4B4FF4C2
S2140032B00021D9620A4B9B6F13F0010FFAD108491F
S2140032C00B6C23F0030343F001030B64044B5B6AAF
S2140032D013F4002FFAD0C7E7014B00225A63DBE74E
S2140032E000300E400000C6432DE9F04F8DB000912F
S2140032F00192002309930A930B930693079308936E
S214003300039304930593654A1288ADF808208DF858
S2140033100A30A0F5E163B3F5966F00F2AE8006467C
S214003320B0F5E16F8CBF4FF001094FF000096DD981
S2140033304FF4966A4FF4E164B6F5E16F6BD9584BDB
S214003340D3F8183208931A0E0592C3F3074308936E
S214003350544DEF6CC7F301778DF808703B464A462C
S21400336003A906A8FFF770FED5F8EC30C3F30128D2
S2140033708DF8098043464A4604A907A8FFF764FE6D
S214003380321B089B0599C91A02FB01F1B1FBFAF141
S2140033900B9119440B91DDF80CB0DDF818C0ABEBBF
S2140033A00C0502FB05F5B5FBFAF50995654409958C
S2140033B0DDF810E00798AEEB000404FB02F2B2FB67
S2140033C0FAF20A9284180A94059A8A4259D38B42D2
S2140033D059D8A64559D3A04259D8AB4559D3AC4580
S2140033E059D8019B73B12F4BDB6D23F4FE4323F0BA
S2140033F0020343EA0123B6F5E16F16D9022213430E
S214003400284AD365009B93B9012037E04FF4167A1B
S2140034104FF4966490E7224BD3F818320893C3F320
S21400342007220592DBB2089392E70022E7E7002224
S21400343039464846FFF7CEFD00B3012241464846CE
S214003440FFF7C8FDD0B1A54238BF25460995E72D40
S21400345028BFE7250995134B5B6E23F4FF7323F013
S214003460010343EA4503B6F5E16F04D9012213438D
S2140034700C4A536602E00022F9E700200DB0BDE8D2
S214003480F08F0020FAE70020F8E70020F6E700209B
S214003490F4E70020F2E70020F0E700BF804E0100CE
S2140034A00081E00F00300E4008B5214B1A6FDB6C30
S2140034B013F0010F09D012F0060F06D013281FD9FB
S2140034C0143813281ED8082323E0194BDB6C13F09E
S2140034D0010F09D112F0060F06D1092814D90A38AF
S2140034E0092813D8082314E0114BDB6C13F00103F2
S2140034F00FD012F0060F0BD1272817D8082308E0A4
S214003500042306E0102304E0042302E0102300E076
S2140035100023013B1A0342EA03220549CB6C23F43D
S2140035207F431343CB64FFF7FDFC08BD1023F0E791
S21400353000300E4008B5074BD3F88039064A136FA3
S21400354023F0070303431367044B1888FFF7ACFF09
S21400355008BD00BF0000C64300300E407E5E00205F
S21400356008B5084AD36E43F08073D366064BD3F88B
S21400357080391BB10420FFF7DDFF08BD0020FFF7F0
S214003580D9FFFAE700300E400000C64338B5304B8E
S21400359002229A639B6B03F00F03934254D10446B6
S2140035A0B0F90C10C3884A2B09D9B3F5FA7F41D37A
S2140035B040F6C312934240D84FF0005200E000227B
S2140035C0234BDB6C23F0405323F00103002937DB49
S2140035D001210A4313431E4AD364D2F8EC3043F465
S2140035E04073C2F8EC30A2881A4B1A80FFF7B8FF77
S2140035F0B4F90C102089FFF7D1FCA088FFF754FF20
S214003600A07BFFF7D5FC012211466088FFF76CFE11
S2140036100546D0B10E4AD36B43F48063D36360781B
S214003620FFF704FEA37A202B0CD000220A4BC3F827
S21400363094270AE04FF08052C2E74FF04052BFE7AF
S2140036400021C6E70122F1E70025284638BD00BF65
S21400365000300E407E5E00200000C643054B5A68D0
S2140036605B68054B41F671321A649A6822F00102D3
S2140036709A60704700300E4000000E40034B9A6878
S21400368022F001029A6000221A64704700000E4081
S2140036900C4B0D4AD26912F0010F02D00BB1013B60
S2140036A0F7E74BB1084B18610122DA60DB6913F0CB
S2140036B0040F04D1002070476FF0020070474FF0EF
S2140036C0FF3070478096980000000E408C46E9B99F
S2140036D000207047013B124AD26912F0010F04D055
S2140036E0002BF7D16FF0020070479BB10C4BDB69E3
S2140036F013F0020F11D161450AD250F8042B084B83
S2140037009A6101310822DA60064BE4E70021F2E70D
S214003710002070476FF0020070476FF0010070479E
S21400372000000E40809698002DE9F04780460E4631
S214003730254B196C1FFA81F941F67131196423493A
S21400374048684968996841F0010199609708002324
S2140037501D4614E01C498A6822F001028A60B9F10D
S214003760000F2DD00A460021116429E0514630464C
S214003770FFF7ACFF0346C0B9554406EB8A06BD42C8
S21400378013D208EB85042046FFF782FF0346002885
S214003790E0D1C4F30A04C4F50064A308A7EB050A45
S2140037A0BAEB940FE2D39A46E0E707498A6822F01C
S2140037B001028A60B9F1000F02D00A4600211164A6
S2140037C01846BDE8F08700BF00000E4000300E40EF
S2140037D010B42B4B196C89B241F671321A64294A1F
S2140037E0546852689A6842F001029A601861012291
S2140037F0DA60DB6913F0040F0BD1214B0222DA608A
S214003800214B1F4AD26912F0010F0ED06BB1013B5B
S214003810F7E71B4A936823F00103936011B1134640
S21400382000221A644FF0FF300DE0154AD26912F0FC
S214003830020F0BD1B3B1124A936823F001039360D1
S214003840E1B1002010645DF8044B70470C4A9368A1
S21400385023F00103936011B1134600221A646FF03F
S2140038600100F0E7064A936823F00103936011B164
S214003870134600221A646FF00200E4E70020E2E735
S21400388000000E4000300E40809698004A790B7873
S21400389091F801C043EA8C0391F802C043EA8C1306
S2140038A091F803C043EA0C1391F804C043EACC2312
S2140038B043EA02338A7943EA424304300001014A6C
S2140038C01350704700200440014B1860704700BF3B
S2140038D000008442037813B3012342780AB304221B
S2140038E013438278FAB110221343C278EAB1202239
S2140038F01343027943EA0223427943EA0233827988
S214003900AAB14FF400421343C27943EA0243027A53
S2140039107AB14FF400321343074A1360704700230E
S214003920DBE70022DCE70022DEE70022E0E70022F9
S214003930E9E70022EFE700BF002004400D4AD2F876
S214003940E4309B0003F03C03D2F8E010C1F3811191
S2140039500B438370D2F8E03003F03F034370D2F895
S214003960E83003F0F003D2F8EC20C2F3031213435E
S2140039700370704700FF0FE0024BD3F8FC00000E08
S214003980704700BF0081E00F044BD3F8E4301B0EF5
S2140039900A3303F01F030120984070470081E00FB0
S2140039A038B505460C460AF060FF054B2B656B697B
S2140039B023600AF05EFF2068C0F3006038BD00BFD9
S2140039C035393801002303600D4A026343630B78E0
S2140039D0032B12D110B5044605210AF097FF636841
S2140039E023F4407343F400736360636823F4406316
S2140039F043F400636360002010BD6FF071007047F1
S214003A00200010002DE9F0438BB00446884691460E
S214003A101E4601AD186859689A68DB680FC530699C
S214003A207169B269F3690FC5002509950AF01DFF93
S214003A300746494604F582700AF03DFF414604F504
S214003A4084700AF038FF314604F586700AF033FFBA
S214003A5038460AF00EFF5D4B236568E0002D24DB38
S214003A605B4B2365636913F4407F33D1013D01202E
S214003A708823A3606369C3F30723564A226501229D
S214003A8062656269C2F3072253492165012824D082
S214003A9013F0010F31D112F0010F2ED04F4B2365DA
S214003AA04F4B63650123A3652BE04E4B23654E4BBE
S214003AB063650AF0DAFE074601A904F580700AF08D
S214003AC005FF6369C3F30343099338460AF0D1FE42
S214003AD06D42C5E74FF0FF30CAE713F0010F07D07D
S214003AE012F0010F04D0414B2365414B636514E08F
S214003AF0404B2365404B63650FE0404B2365404BCE
S214003B00636501A904F580700AF0D5FE099B03F0F1
S214003B100F03C4F848318323A3609022A260626931
S214003B2012F4807F11D1374B23658822A260694644
S214003B302046FFF735FFD0B99DF8012012F0010F9F
S214003B408CD1314B2365013DE7E72E4B23650AF008
S214003B508CFE0746314604F580700AF0ACFE384607
S214003B600AF087FE294B2365294B6365DDE7294B61
S214003B70236569462046FFF713FF68B10AF075FE15
S214003B800546129904F588700AF0A0FE28460AF049
S214003B9070FE0BB0BDE8F0830AF067FE054604F53C
S214003BA08077314638460AF086FE28460AF061FEDF
S214003BB0194B23650AF059FE0446129938460AF056
S214003BC085FE20460AF055FEE3E700BF30848801F4
S214003BD0D9080100C93E8198DB3E010083D9341123
S214003BE081E2148290A2848899830100C8340981F6
S214003BF0E20C8201C80881E20C82010083D91081A0
S214003C00E2148201D23E8201C93E8101C024D03432
S214003C100982010098390100E01001002DE9F04FFB
S214003C2089B007468A469146984620220021684673
S214003C300FF0FAFD00262FE0202269464046C847CE
S214003C400446A4BB00F0B8FC05463946FFF7BAFEAA
S214003C500AF00BFE0446694605F582700AF02BFE54
S214003C6020460AF006FE404B2B652C6914F0030F25
S214003C70FBD10AF0FAFD044605F5807B69465846F6
S214003C800AF024FE20460AF0F4FD009B012B23D800
S214003C90284600F0CDFC01360A2E62D03B78022B77
S214003CA009D0032BC8D0012B0DD06FF0710420462D
S214003CB009B0BDE8F08F1C2269464046C847044656
S214003CC000230793BDE7182269464046C8470446C6
S214003CD0002306930793B4E70AF0C7FD044651464F
S214003CE005F584700AF02DFE0AF10806314605F542
S214003CF086700AF026FE0AF11007394605F5887028
S214003D000AF01FFE20460AF0B4FD184B2B652B69FF
S214003D1013F0030FFBD1394658460AF057FE044607
S214003D20D8B9134B2B65134B6B652B6913F0030F38
S214003D30FBD1514658460AF049FE044668B90E4B78
S214003D402B654FF48E736B652B6913F0030FFBD155
S214003D50314658460AF03AFE0446284600F068FC0B
S214003D60A5E7064CA3E700BF30C80C0181E11C01A3
S214003D708CE11C81D11C0100E11C81D900B3FFFF3E
S214003D802DE9F84305460E461746984610460DF0B0
S214003D9042FD002840F0D380D8F810302BB14046C2
S214003DA00DF039FD002840F0D080D8F810303BB137
S214003DB0012108F110000CF076F9002840F0CB80C5
S214003DC000F0FAFB04462946FFF7FCFD0AF04DFD1D
S214003DD0814604F5807507F1100128460AF0B1FD0A
S214003DE048460AF046FD5D4B236540F28113636545
S214003DF0226912F0030FFBD10AF037FD81464146D7
S214003E0028460AF09EFD48460AF033FD544B2365CB
S214003E1001236365206910F0030FFBD1514B236526
S214003E20206910F0030FFBD10AF01FFD814608F150
S214003E30080128460AF085FD48460AF01AFD4A4B56
S214003E402365236913F0030FFBD10AF00EFD8146AC
S214003E5007F10808414604F582700AF072FD4846EC
S214003E600AF007FD414B2365236913F0030FFBD1CE
S214003E700AF0FBFC8146394628460AF062FD4846B1
S214003E800AF0F7FC3A4B23653A4B6365236913F057
S214003E90030FFBD106F1100128460AF097FD0746EE
S214003EA0002846D1344B2365236913F0030FFBD15A
S214003EB0324B2365236913F0030FFBD1304B236588
S214003EC0236913F0030FFBD12E4B23654FF48A733F
S214003ED06365236913F0030FFBD12B4B236523691E
S214003EE013F0030FFBD1314628460AF06FFD074654
S214003EF0F8B9264B2365264B6365236913F0030F39
S214003F00FBD10AF0B2FC0746414628460AF019FDE6
S214003F1038460AF0AEFC1F4B23651F4B63652369CA
S214003F2013F0030FFBD106F1080128460AF04EFDF8
S214003F300746204600F07CFB3846BDE8F88341463D
S214003F4030460DF08BFB0746F6E7394630460DF057
S214003F5085FB0746F0E7114FEEE700BF8184E11CC2
S214003F6083D91C83E11C810182D11C01C814820103
S214003F709983D91481E11C018CE11C01811C840108
S214003F80D91C830191D11CE0D814140181CB148173
S214003F90D11C820181E11C84E214010080B0FFFF85
S214003FA02DE9F04188B005460E46174600F004FBA2
S214003FB004462946FFF706FD0AF057FC804604F53E
S214003FC0807507F1100128460AF0BBFC40460AF04F
S214003FD050FC444B236540F283136365236913F05A
S214003FE0030FFBD10AF041FC804607F10801284682
S214003FF00AF0A7FC40460AF03CFC3B4B2365012335
S2140040006365236913F0030FFBD106F11001284600
S2140040100AF0DCFC804600285CD1344B23654FF464
S21400402086736365236913F0030FFBD10AF01DFC4A
S2140040308046394604F588700AF083FC69462846AF
S2140040400AF044FC40460AF014FC294B2365294B31
S2140040506365294BA365236913F0030FFBD1274B38
S2140040602365274B6365236913F0030FFBD1254BAC
S2140040702365254B63650123A365236913F0030FAE
S214004080FBD1314628460AF0A1FC804610BB1F4BE8
S21400409023651F4B6365236913F0030FFBD10AF0FA
S2140040A0E4FB0746694628460AF005FC38460AF04F
S2140040B0E0FB0C4B2365174B63654FF48A73A365CF
S2140040C0236913F0030FFBD106F1080128460AF016
S2140040D07DFC8046204600F0ABFA404608B0BDE8BE
S2140040E0F08100BF8182D11C821CC00C91D11CC003
S2140040F0C00C81E11C82DC0C81148401E11C81C8A7
S2140041000C0C8101D20C848BD91CE01484E214823E
S214004110D11C8301C00C82D32DE9F043A3B0064620
S2140041200D4600F049FA04463146FFF74BFC2022C4
S21400413000211AA80FF078FB012206E01A9B23F054
S214004140FF0343F001031A93013A002AF6D105F162
S2140041501008414612A80AF08CFC311D0AA80AF085
S21400416088FC02AE00960AAB12AA1AA92046FFF7F0
S21400417049FC0AF07AFB8146314604F582700AF063
S2140041809AFB04F58677294638460AF0DAFB05F1ED
S2140041900806314604F588700AF0D3FB48460AF054
S2140041A068FB194B2365236913F0030FFBD1174BEC
S2140041B02365236913F0030FFBD1154B2365236991
S2140041C013F0030FFBD1134B2365236913F0030F82
S2140041D0FBD1314604F580700AF0F8FB034618B1AF
S2140041E0184623B0BDE8F083294638460AF0EEFBB1
S2140041F003460028F4D1204600F01AFA0121404672
S2140042000BF035FE0346EBE78AD11C0181D91C0171
S21400421083D11C0181E11C012DE9F04F9BB0814642
S2140042200E461546202200210AA80FF0FDFA012DA1
S21400423013D9202128460AF00FFE8246002800F0F7
S214004240F680316810310AF014FC00F0B5F9044627
S2140042504946FFF7B7FB01272EE031684846FFF7CF
S2140042605BFF8346DFE00AF000FB804656F8271027
S214004270103104F582700AF064FB07F10061013921
S2140042800AEB411104F584700AF015FB40460AF06B
S214004290F0FA684B2365236913F0030FFBD10AF08D
S2140042A0E4FA80460AEB471104F580700AF00EFB2C
S2140042B040460AF0DEFA0137AF42D4D3012206E0C8
S2140042C00A9B23F0FF0343F001030A93013A002AF6
S2140042D0F6D109F1040102A80AF0CBFB05F1006251
S2140042E0013A12AB009302AB0AEB42120AA920462F
S2140042F0FFF788FB013D81E00AF0B7FA074612A9EE
S21400430004F582700AF0D7FA05F1006101390AEB6C
S214004310411104F584700AF0CEFA56F825101031D3
S21400432004F586700AF00DFB38460AF0A2FA424BF6
S2140043302365236913F0030FFBD1404B23652369E4
S21400434013F0030FFBD10AF090FA074612A904F502
S21400435080700AF0BBFA38460AF08BFA0AF085FA43
S214004360834604F58678AF0056F8251040460AF0D6
S214004370E8FA56F82510083104F588700AF0E1FAD4
S21400438058460AF076FA2E4B2365236913F0030F7E
S214004390FBD12C4B2365236913F0030FFBD12A4B6B
S2140043A02365236913F0030FFBD1284B236523698C
S2140043B013F0030FFBD1F159083104F580700AF0B1
S2140043C005FB834648BBF15940460AF0FFFA834690
S2140043D018BBB9F80A10F0590BF0DAFC8346E0B9BE
S2140043E0F059B9F80A1008300BF0D2FC8346A0B991
S2140043F0F05910300BF07AFC7DB1013D002D7FF4B2
S2140044007BAF0AF032FA074612A904F584700AF068
S21400441052FA38460AF02DFAA0E7204600F008F9CE
S21400442050460AF029FD58461BB0BDE8F08FDFF86D
S21400443020B0F8E7D11C0100D11C8201D91C010074
S21400444091D11C0181D91C0183D11C0181E11C0181
S21400445080B2FFFF10F1860F14D00EDC10F1930F20
S21400446013D010F1870F05D10B4B994207D06FF090
S2140044706D0070474FF0FF30704748B970476FF0D7
S214004480730070476FF0710070476FF06F007047F1
S2140044904FF0FF30704700BF0900000201290ADC18
S2140044A008B531B1054900F0E1FD0549FFF7D2FF37
S2140044B008BD0349F7E76FF0730070470800000275
S2140044C00900000208B50AF0A5FB0249FFF7C2FF83
S2140044D008BD00BF0900000200B583B000230193A9
S2140044E001AB202200F0F6FD0249FFF7B3FF03B050
S2140044F05DF804FB0900000210B50D4B0D4A0E498D
S2140045000E4805F07BFA0E4B1B7803B110BD0AF07F
S2140045102BFB04460A4B1B7833B90A4B1B680A4828
S2140045209847074B01221A7020460AF027FBEDE752
S214004530E3EA00000BEB000037EB000045EB000061
S214004540865E00204C10002084560020F8B5174BDD
S2140045501B7803F0FF040BB12046F8BD01F06EF99E
S2140045600546012805D80027104B1B789BB9002666
S2140045700CE001F09FF9071EF6DAEDE70C4B1B681E
S21400458064200C4A00FB062098470136012EF5DD14
S214004590064B01221A70012D01D80124DCE73846AB
S2140045A001F0ACF90028D7DB0124D5E7875E0020B0
S2140045B04C1000207427002010B5FFF7C7FF00241A
S2140045C0012C0CD86420154B00FB04300AF0E3FAEB
S2140045D008B10134F4E7124B53F8340000E0002031
S2140045E068B10F4B03EBC4035A680E4B13449B0091
S2140045F001221A600C4A13680133136010BD0A4B7F
S2140046001C6804F00104094B1B686420034A00FB85
S21400461004209847024B53F83400E2E77427002042
S214004620844E01008005F210702700204410002000
S21400463008B50E4B984206D003F58063984200D02A
S21400464008BD012200E00022094B03EBC2035968B3
S214004650084B0B449B0000211960074B1B68642025
S214004660064900FB02109847EAE700BF00000F402B
S214004670844E01008005F2104010002074270020B0
S214004680A0F50320A0F580704FEA501C054951F8AC
S2140046902C3000F01F0001228240134341F82C30DA
S2140046A0704700BF3C280020A0F50320A0F58070CE
S2140046B04FEA501C054951F82C3000F01F0001222B
S2140046C08240534041F82C30704700BF3C28002001
S2140046D070B592B04022002102A80FF0A5F8144B46
S2140046E00CE0144A13E012AB03EB840353F8400CBF
S2140046F0FFF7C6FF0134AC42F5D333460E4A934269
S21400470010D803F110060B4A9642EAD83246013A10
S2140047100092102202A9094800680FF084FE0546A0
S2140047200024E8E7064B01221A7012B070BD00BFE5
S2140047300031080081310800803108005410002044
S214004740885E00202DE9F04188B006460C461D46DE
S21400475017460AB1002313600DB100232B60102307
S21400476000930023224631462448006808F008F8E3
S214004770804600283ED12268214B9A4217D00FB1BE
S21400478010233B6022681F4B9A4231D1002F31D054
S214004790002D2FD02B4602AA31461848006808F094
S2140047A043F818BB2B683A689B1A2B6022E000235C
S2140047B0029303930493059306930793182200929B
S2140047C002AA31460D48006807F0DAFF804688B92D
S2140047D0069B6360DDE90423C4E90223094B2360DA
S2140047E00FB118233B60DFF82080CBE7804601E05E
S2140047F0DFF81880404608B0BDE8F081541000206D
S214004800D175E105105D175EFEDF00F0FFDF00F0FA
S214004810F0B585B072B906460F46314B1B7B002BB0
S2140048205AD02F4B1A685B688B4208BF824216D05C
S21400483000251EE00023802B0FD803F5032404F583
S21400484080745A09274951F8222003F01F01CA40F4
S21400485012F0010F3DD00133EDE7234C39E0204B39
S2140048609C6836E0029A039BBB4208BFB2422AD03D
S2140048700135802D32D805F5032404F580746B09C4
S214004880184A52F8233005F01F02D34013F0010FE8
S214004890EED000231A4669462046FFF753FF00284D
S2140048A0E0D0124A9042DDD0114A904202D0123235
S2140048B09042DDD121460F4B186807F0F9FF00281B
S2140048C0D6D0094C05E0064B01221A739C601E6088
S2140048D05F60204605B0F0BD0025CAE7024CF8E749
S2140048E0901900203C28002082310800FEDF00F0EE
S2140048F0FFDF00F05410002038B505460C4605F0E2
S214004900C9FC58B9064B1B782BB100222846214615
S214004910FFF77EFF38BDFFF7DBFEF6E70148F9E755
S214004920885E00208231080010B50C4B1B7823B13E
S2140049300B4B1B680B48984710BD0AF041F904461C
S214004940064B1B7833B9084B1B6806489847034B41
S21400495001221A7020460AF03DF9E9E7895E002038
S21400496044100020502800204C10002008B5044BAE
S2140049701B781BB1034B1B680348984708BD00BF54
S214004980895E002040100020502800202DE9F84FB6
S2140049909A46DDF828B040F26C739A4274D8804686
S2140049A00F46144612B1BAF1000F70D0BBF1010FDA
S2140049B070D8FFF7B9FF40463946FFF79DFF05461A
S2140049C004F11009494601200AF046FA0646002876
S2140049D057D04A4600210EF027FF304B9D4214D98F
S2140049E0012200200021FFF713FF05462B4B9842BB
S2140049F033D8C6F80880F76003F1BC4303F572238A
S214004A0003F68F33336000270DE000231A46314645
S214004A102846FFF797FE10B1214A90422BD17368C3
S214004A20012B2BD00027C6F804B0CCB94B46324633
S214004A3029461C48006807F00BFEC0B16FF09107CE
S214004A404A46002130460EF0EFFE30460AF014FAD1
S214004A50FFF78CFF3846BDE8F88F6FF08D07E2E76A
S214004A602246514606F110000EF013FFDEE72846F8
S214004A70FFF706FEE4E76FF09107E1E76FF08407C3
S214004A80DEE76FF08C07E3E76FF09107E2E76FF081
S214004A908607DFE76FF08507DCE700BF8131080097
S214004AA0FEDF00F0541000202DE9F04288B00646E4
S214004AB00C4617460E9D99466BB10F9B002B62D095
S214004AC0002D63D0B5F1005F63D3C9F1005303F541
S214004AD080339D4260D80023049305930693079382
S214004AE003930293FFF720FF30462146FFF704FFAB
S214004AF004462B4B984207D96FF08B04FFF736FF1E
S214004B00204608B0BDE8F08203AB02AA04A9FFF76E
S214004B1019FE244B984228D010B1013B984227D169
S214004B20039BB9F1000F06D0BB4206D81BBB27B1CA
S214004B306FF08604E2E7BB4220D3DB1B4B4510D266
S214004B400F9A13600F9B1B680093029B3B442A46F8
S214004B5021461548006807F013FE90B16FF09104E7
S214004B60CCE70F9BC3F80090ECE76FF08B04C5E72B
S214004B706FF09104C2E76FF08604BFE76FF086041B
S214004B80BCE70024BAE76FF08604B9E76FF0860446
S214004B90B6E76FF08604B3E76FF08604B0E700BFB1
S214004BA081310800FFDF00F05410002070B586B099
S214004BB0002A31D005460C4616460023029303937E
S214004BC00493059301930093FFF7AEFE2846214613
S214004BD0FFF792FE124B984206D96FF08B04FFF750
S214004BE0C5FE204606B070BD01AB6A4602A9FFF7B7
S214004BF0A9FD0C4B984209D010B1013B984208D150
S214004C00039B7360019B33600024E8E76FF08B041E
S214004C10E5E76FF09104E2E76FF08604E1E700BF96
S214004C2081310800FFDF00F070B586B006460D46FD
S214004C300023029303930493059301930093FFF7D5
S214004C4073FE30462946FFF757FE1F4B98422CD876
S214004C50044601AB6A4602A9FFF774FD1B4B984257
S214004C6026D010B1013B984225D1039B012B25D0BD
S214004C702146174B186807F01BFE10BB154B1B7B15
S214004C8033B1144B1A685B68AB4208BFB24208D017
S214004C902046FFF709FD0024FFF768FE204606B011
S214004CA070BD0C4B00221A73F2E76FF08B04F3E72B
S214004CB06FF08B04F0E76FF09104EDE76FF084047B
S214004CC0EAE76FF09104E7E781310800FFDF00F0C4
S214004CD0541000209019002008B5044B1B781BB117
S214004CE0034B1B680348984708BD00BF8A5E002038
S214004CF040100020B4280020074B5B685BB182B0F0
S214004D00054BD3F800310193019B034B5B68002BE6
S214004D10F6D102B07047704700D00140144B5B6874
S214004D2010F0030F06D018E0114BD3F8003140F80E
S214004D30043B04390329F7D8C1B10D4BD3F8003131
S214004D4012E00B4BD3F8003103701A0A42701A0CAB
S214004D5082701B0EC370043904300329F1D8EBE7C8
S214004D6000F8013B1B0A01390029F9D1704700BF42
S214004D7000D0014010B5002403E0124B5B68FBB97D
S214004D800134092C14D80F4A136843F4807111605B
S214004D9023F4807313600C48FDF744FE800A00235A
S214004DA0084A5268002AE8D18342E6D20133F7E780
S214004DB0044A136823F0010313606FF0920010BDDD
S214004DC00020FCE700D001407000020008B50D4B43
S214004DD040F271621A60FFF7CDFF90B9094B5B682D
S214004DE0032BFBD9074BD3F800211A61D3F8002117
S214004DF05A61D3F800219A61D3F80021DA61FFF7EF
S214004E00B9FF08BD00D0014010B50E4B1C6B14F462
S214004E105C7F11D014F4807F06D1FFF7ABFF10B98A
S214004E2014F41C7F0AD110BD24F480741C63FFF7B1
S214004E3063FF6FF09300F6E70020F4E76FF093004F
S214004E40F1E700BF00D0014010B50E4B1B782BB128
S214004E500D4B1B680D48984788B910BD09F0C5FE74
S214004E600446084B1B7833B9094B1B68074898471C
S214004E70044B01221A70204609F0C1FEE8E7012023
S214004E80EBE700BF8A5E002044100020B428002014
S214004E904C1000202DE9F04F83B001900F4691464C
S214004EA0FFF7D2FF044600285AD1364AD2F8C0305F
S214004EB043F40033C2F8C030334B1B6813F0010FC5
S214004EC007D0DDF804A03E464FF0000B4FF00A086E
S214004ED02DE0FFF77BFF04460028F2D0FFF7FCFE2C
S214004EE03EE02A48FDF79EFDC00A844204D2264BC7
S214004EF05B680BB90134F8E7234B5B68E3B9D84627
S214004F0037466FF0930423E0DDF804A03E464FF0EA
S214004F10000B0CE01C4B5D68AD00B54228BF354663
S214004F2029465046FFF7FAFEAA44AB44761BDEB18C
S214004F30154B5C68A400D4D0FFF766FF044610F15A
S214004F40930F14D010F1940FE4D1B8F10108DBD11F
S214004F50FFF7C2FE14B114F1940F0BD1C9F800800C
S214004F60204603B0BDE8F08FD8463746F0E7D8466F
S214004F703746EDE73A46002101980EF055FC4FF013
S214004F800008EBE700400E4000D001407000020031
S214004F902DE9F04389B004460D4690461F46DDF8DD
S214004FA04090FFF709FB064604F17E4008380128CA
S214004FB055D80423336000247460F464736823F4C3
S214004FC04063736034637463A44609E055F82C307C
S214004FD01BBA08AA02EB8C0242F8203C0CF1010C2A
S214004FE0BCF1070FF2D909F040FC0446694606F505
S214004FF0827009F060FC204609F03BFC194B3365D3
S21400500000240EE009F031FC054608EB841106F595
S214005010D27009F066FC284609F02BFC124B33656B
S21400502001344C45EED309F020FC0446394606F51B
S214005030807009F04BFC204609F01BFC3046FFF759
S214005040F7FA002205E057F822301BBA47F822305C
S2140050500132072AF7D9002009B0BDE8F0836FF0C7
S2140050608800F9E7888AC801070D810148B370B542
S2140050700D4604466C2200210EF0D6FB124B9D42D4
S21400508005D001339D4210D06FF085000CE00F4E26
S2140050900FCEE06021616261A3610FCEE061216204
S2140050A06262A3622560002070BD094E0FCEE060EC
S2140050B021616261A3610FCEE06121626262A36238
S2140050C0F0E76FF08600704708000002944E01007B
S2140050D0B84E01002DE9F04182B0002860D00E469F
S2140050E01D46044673B196B1236833498B4213D0EC
S2140050F001318B4257D1202797425AD84FF0000CE7
S214005100E6462BE0002AEED06FF086084DE0002A37
S214005110EAD06FF0860848E01C27EDE7CCF10202E3
S214005120920004EB8C035B68D900C9B27144D01DB1
S214005130684400F8081C5809911D694401F8080CD9
S214005140580B511D694401F8080C590D04326A4485
S21400515002F8081C4FEA537E0CF1010CBCF1010F5B
S214005160DCD9626802F03F02372A16D8C2F138024C
S2140051701249204609F04EFD8046B0B9082269461D
S214005180204609F047FD804678B92F603A4604F17C
S2140051900C0130460EF07DFB07E0C2F17802E7E72F
S2140051A06FF0860801E06FF08808404602B0BDE860
S2140051B0F0816FF08908F8E708000002DC4E010075
S2140051C02DE9F0419CB015461C46229F239E88463A
S2140051D001B324B346B3014601A8FFF747FF0346D1
S2140051E058BB019B184A934223D00132934222D1E6
S2140051F02023BB4225D82A46414601A809F00AFDCD
S2140052000346D0B933463A46214601A8FFF762FF67
S214005210034612E0002ADCD06FF086030DE0002F74
S214005220D8D06FF0860308E0002FD4D06FF0860346
S21400523003E01C23DDE76FF0880318461CB0BDE8CA
S214005240F0816FF08903F8E70800000200B585B02A
S214005250054BEC460FCB8CE80F006046FEF796F940
S214005260002005B05DF804FB1C4F01006FF004033E
S21400527007E003F00F010A4A0A44A0211176013321
S2140052805BB2322B09DC002BF3DB03F1604202F544
S2140052906142A02182F80013F1E70020704700BFAA
S2140052A0FCEC00E030B583B009F0DFFA0E4B1D7859
S2140052B00E4B1C6809F0DDFA09F0F6FD08B1FF2D6B
S2140052C003D154B1204603B030BD01AA064B19786D
S2140052D0002009F06EFA019CF3E709F0C6FA044BC9
S2140052E01C6809F0C6FAEDE7D01000201829002047
S2140052F01C29002010B5044609F0B7FA024B1C60C2
S21400530009F0B7FA002010BD1C29002010B582B0A5
S2140053100124009400231A461946184604F026FF76
S214005320009400231A461946184604F059FF03480D
S214005330FFF7E0FF002002B010BD00BF24100020E1
S2140053404161114B1B68CBB110B4002403E0891AED
S21400535041611C469B6823B15A698A42F7D9002AE4
S214005360F5D044B1A060836013B15A69521A5A61ED
S2140053705DF8044B7047044A1060F4E7024B18606F
S21400538000238360704700BF282900200E4B1B684F
S214005390002201E01A469B680BB18342FAD1834291
S2140053A00ED14AB18368936083685BB15A694169DC
S2140053B00A445A61002070478268034B1A60F3E77C
S2140053C00220704700207047282900200A4B1B68DF
S2140053D000220A490A7005E0084B01221A7070473D
S2140053E059690A44012A06D8D98811F0020FF3D168
S2140053F09B68002BF4D17047282900208C5E002083
S21400540008B500F05DF90B4B1B680B4A1268821A50
S21400541003E0521A002159619B683BB132B15969C9
S2140054209142F6D3891A59610022F5E7024B1860BB
S21400543008BD00BF282900202429002010B50B4BEA
S2140054401B685B695BB10A4A14681C44022000F0C2
S21400545043F9204600F052F9FFF7B8FF10BD0220CE
S21400546000F03AF9022000F09BF9F5E72829002021
S2140054702429002010B509F0FFF90446144B1B78C8
S214005480DBB9144A1360144A1360144A138000F000
S214005490D3F8012000F020F900F0AAF90246104BDC
S2140054A0186078B100230F4840F2E73104F06EFF31
S2140054B00D4B1860064B01221A70204609F0E2F9DF
S2140054C0002010BD204609F0DDF92320F9E700BFD3
S2140054D08D5E00202829002024290020825E0020DE
S2140054E02C29002018FCFFFF202900202DE9F84376
S2140054F0044610F0010F04D114F0020F10D1BDE8DD
S214005500F8834A4A13889BB201339BB21380FFF795
S21400551077FF474B1B68002BEED0FFF78FFFEBE7BC
S21400552009F0AAF90546FFF76BFF00273E4643E061
S2140055309B683BB15A692AB921791A799142F7D901
S2140055401C46F5E7284609F09DF92569002D3AD155
S2140055500025A8462F46002D47D0236903B3FDB982
S214005560B8EB0707A38B6BB1E28B13449BB2E383C4
S214005570B3F57A7F06D3A3F57A73E383013FA36975
S214005580013BA36109F078F9054639462046FFF746
S214005590D7FEA36922691344A361284609F072F96D
S2140055A0E7880136E36813B121682046984709F07A
S2140055B063F90546FFF724FF1D4B1C68FCB16369C1
S2140055C0EBB92346B5E7A84600F07AF8A369C71AF0
S2140055D0F917BD424FF000028A4104DA22691344EB
S2140055E0A3610125B7E70025B5E709F045F981462F
S2140055F02046FFF7CBFE484609F044F9ADE70D4BD1
S21400560000221A70012E06D05CB1FFF717FF28465D
S21400561009F038F973E717F0020FF5D001221A7077
S214005620F2E7022000F09EF8F1E700BF825E00205D
S214005630282900208B5E002010B586B01C4B0DF18B
S2140056400C0C93E80700ACE803008CF800200C3341
S21400565093E803000190ADF80810090C8DF80A10C5
S21400566001211448FDF720F800248DF80C408DF831
S214005670104003A8FEF72EF98DF8044001A901207A
S214005680FEF704F90C4A536A23F4FF6323F007037A
S214005690536240F2FF73136294600120FEF714F920
S2140056A0064B4FF08042C3F880211A6006B010BD4A
S2140056B02C4F0100A00914000020044000E100E087
S2140056C0014B9868704700BF00200440014B586D9E
S2140056D0704700BF0020044010F0010F0AD10023DD
S2140056E010F0020F01D043F00403034A516A0B4343
S2140056F0536270470123F3E70020044070B5044668
S21400570009F0B3F80646FFF7DBFF0546FFF7DEFFB6
S214005710124B9B6913F0040F04D1431B032B01D8D3
S21400572085420CD1631B022B00D8EC1CB4F1FF3F62
S21400573038BF013C094B5C650220FFF7CDFF3046C1
S21400574009F097F8064B1B783BB1044A136D43F0FB
S21400575002031365024B00221A7070BD002004403D
S214005760D110002010F0010F13D1002110F0020F0D
S21400577009D041F00401084B01221A70074A136D44
S21400578023F003031365054A536A23EA01035362B1
S21400579070470121EAE700BFD11000200020044036
S2140057A010F0020F02D0024B0422DA61704700BFED
S2140057B00020044010B509F05FF804460B4B9B69C7
S2140057C013F0010F0FD1002013F0040F01D040F0AA
S2140057D0020003F00703054A1362FFF787FE204620
S2140057E009F050F810BD0120EEE700BF002004408D
S2140057F008B50248FDF716F908BD00BFA009140059
S214005800EFF305837BB9EFF3108313B9EFF311833E
S2140058101BB1094B1B68022B08D0074B186840B910
S21400582001221A6070476FF0050070476FF00500A0
S21400583070474FF0FF307047F02E002008B500F09C
S21400584027FF40B10346022806D0044B1B68012BF5
S21400585002D0002300E00323184608BDF02E0020E7
S214005860EFF30583C3B9EFF3108313B9EFF3118396
S2140058701BB10E4B1B68022B11D00C4B1B68012B67
S21400588010D110B500240A4BDC77084B02221A60B0
S21400589000F08EFC204610BD6FF0050070476FF0DC
S2140058A0050070474FF0FF30704700BFF02E002015
S2140058B000ED00E008B5EFF3058393B9EFF310832E
