S01C00006275696C642F64656275672F67656E657261746F722E7333379C
S113000000100020D9020000DD840000DD8400001F
S1130010DD840000DD840000DD840000DD84000058
S1130020DD840000DD840000DD840000DD84000048
S1130030DD840000DD840000DD840000DD84000038
S1130040DD840000DD840000DD840000DD84000028
S1130050DD840000DD840000DD840000DD84000018
S1130060DD840000DD840000DD840000DD84000008
S1130070DD840000DD840000DD840000DD840000F8
S1130080DD840000DD840000DD840000DD840000E8
S1130090DD840000DD840000DD840000DD840000D8
S11300A0DD840000DD840000DD840000DD840000C8
S11300B0DD840000DD840000DD840000DD840000B8
S11300C0DD840000DD840000DD840000DD840000A8
S11300D0DD840000DD840000DD840000DD84000098
S11300E0DD840000DD840000DD840000DD84000088
S11300F0DD840000DD840000DD840000DD84000078
S1130100DD840000DD840000DD84000000000000C8
S113011001F0FF01102A2BDB10F0070F08D010F8B4
S1130120013B013A8B422DD010F0070F42B3F6D1B8
S1130130F0B441EA012141EA014122F007047FF0D1
S113014000070023F0E80256083C85EA010586EA28
S1130150010685FA47F5A3FA87F586FA47F6A5FA64
S113016087F68EB9EED1F0BC01F0FF0102F0070270
S113017032B110F8013B013A83EA010313B1F8D11B
S11301800020704701387047002D06BF35460338FC
S1130190073815F0010F07D1013015F4807F02BF35
S11301A0013015F4C03F0130F0BC0138704700BF86
S11301B00348044B834202D0034B03B118477047F2
S11301C0A8240020A8240020000000000548064BB5
S11301D01B1AD90F01EBA301491002D0034B03B141
S11301E018477047A8240020A8240020000000001D
S11301F010B5064C237843B9FFF7DAFF044B13B16B
S11302000448AFF300800123237010BD702E00203A
S11302100000000024E4000008B5054B1BB10549AB
S11302200548AFF30080BDE80840FFF7CFBF00BF2B
S113023000000000F824002024E40000A3F5803A24
S1130240704700BF174B002B08BF134B9D46FFF7A9
S1130250F5FF00218B460F461348144A121A0CF07E
S11302601EFC0E4B002B00D098470D4B002B00D0EA
S113027098470020002104000D000D48002802D0FA
S11302800C48AFF3008006F0C9FA200029000CF0F6
S11302904FFB06F0B7F900BF0000080000000000A3
S11302A00000000000100020A8240020743E00205C
S11302B00000000000000000054A064903461068DB
S11302C003448B4294BF13604FF0FF30704700BF6C
S11302D0041000200000012008B500F05DF8124B66
S11302E012498B4212D3124B124900208B4218D36D
S11302F0FFF7A8FF186850F82240586840F82240D9
S1130300013298688242F5D30C33EAE70022F8E719
S11303101C6844F8220001325C68A242F8D3083316
S1130320E4E70022F8E700BF2CE4000038E4000012
S113033038E4000038E40000104AD2F8943003F0A6
S11303400703023B032B13D8DFE803F00C14020E5F
S11303500B4B1B68D2F80001C0F304200130B3FB3F
S1130360F0F07047074BF4E7074B1B685B08F1E7B5
S1130370054BEEE74FF40043ECE700BF00400E40AE
S11303800C1000201010002008100020014B1868E9
S1130390704700BF10100020044B054A9A60D3F840
S11303A0882042F47002C3F88820704700ED00E012
S11303B000000000014B1868704700BF0C100020BB
S11303C070B59400224605460E4608F016F9431C03
S11303D00AD058B92246314628460CF036FB00288C
S11303E0034808BF002070BD0248FCE70248FAE752
S11303F010E000F021E000F024E000F010B5044625
S113040000F09AFA431C10D088B900F009FB20F0E0
S1130410030023462044984201D1002010BD53F824
S1130420042B0132F7D00348F8E70348F6E7034802
S1130430F4E700BF0EE000F021E000F024E000F05B
S113044008B508F088F8014B186008BDC0250020E5
S1130450014B186808F083B8C0250020C0F30313CB
S1130460013B092B2AD8DFE803F0050B0F192929D2
S11304701F23374B274BD3F80001C0F304207047E8
S1130480244BD3F81401F8E7224BD3F80031C3F31B
S11304900063013301209840013870471D4BD3F8A5
S11304A00C01C0F3082070471A4BD3F80801F8E791
S11304B0194B984204D0194B984207D0002070473A
S11304C0144BD3F8203103F00F03E3E7114BD3F8B7
S11304D02031C3F30113DDE7114B98420CD003F52F
S11304E0B01303F580539842E8D10A4BD3F828316E
S11304F0C3F301230433CDE7064BD3F82831E8E7EF
S1130500084B9842DAD1034BD3F8300100F00300D2
S1130510704700BF00400E408006160080162E0073
S113052090171A00A009140000F00F0001380728E2
S113053050D8DFE800F00415244F34384F402B4BDB
S1130540D3F8943003F00703023B052B06D8DFE809
S113055003F049243F0305430B20704705207047EF
S1130560224BD3F8800000F0070002283DD0042875
S113057036D0012808BF032018BF012070471B4B49
S1130580D3F8843003F00703013B032B03D8DFE8DF
S113059003F0041F25270120704703207047134BE5
S11305A0D3F88800DFE7114B1B6F13F0010F0CBF6A
S11305B00720092070470D4BD3F85C3103F030035A
S11305C0202B0FD0302B0FD0102B08BF0720D3E7E0
S11305D002207047002070470C20704706207047A7
S11305E00A207047042070470820704700400E40DE
S11305F008B50146FFF798FF1A4B994211D01A4BE0
S1130600994212D0194B994204D1194BD3F8800066
S113061000F007000138032821D8DFE800F00A0EB3
S11306201612134BD3F88400F2E7114BD3F8880069
S1130630EEE7BDE8084007F052BFBDE80840FFF709
S1130640B9BEBDE8084007F04DBFFFF775FE084B83
S1130650D3F80031C3F300630133D84008BD002050
S1130660FCE700BF030020000500240002001E0078
S113067000400E4000F47813B3F5B01F10B50446E3
S113068074D025D8B3F5402F5ED010D8B3F5802FA1
S113069049D005D83BB1B3F5003F4FD0002010BD81
S11306A0B3F5202FFAD1BDE81040FFF745BEB3F5EE
S11306B0801F00F08480B3F5A01F4DD0B3F5602FE8
S11306C0ECD14A48FFF730FF072878D00928E9E73A
S11306D0B3F5381F53D013D8B3F5001F58D00AD838
S11306E0B3F5D01F56D0B3F5F01FD7D14048BDE8BD
S11306F01040FFF77DBFB3F5101FCFD13D48F6E79B
S1130700B3F5481F4DD0B3F5781F65D0B3F5401F3E
S1130710C4D13948FFF76CFF384BD3F82831C3F301
S11307200123043320E0FFF707FE344BD3F80C31E8
S1130730C3F308230133B0FBF3F0B0E7FFF7FCFD8C
S11307402E4BD3F80831F3E7FFF7F6FD2B4BD3F824
S11307501431C3F30423EDE72648FFF749FF274B81
S1130760D3F8303103F00303D84098E72048FFF76B
S11307703FFF224BD3F8203103F00F03F4E71C486A
S1130780FFF736FF1D4BD3F82031C3F30113EBE71A
S11307901948ACE71848FFF72BFF184BD3F828315A
S11307A0F3E71748FFF7C0FE072808D0082809D048
S11307B004287FF473AFBDE81040FFF7E7BD114B89
S11307C018686CE7FFF7B8FD0C4BD3F80031C3F39E
S11307D0042303FB000062E7FFF7AEFD0146204659
S11307E007F0B4FEB1FBF0F059E700BF06000E00BD
S11307F002001E00050024000300200000400E40FB
S1130800B800320014100020054B5A685B68054B91
S113081041F671321A649A6822F001029A607047B4
S113082000300E4000000E40034B9A6822F0010293
S11308309A6000221A64704700000E40094A0A4B6D
S1130840D969C90705D512B96FF002007047013A9A
S1130850F6E7002AF8D001221861DA60D86940F37B
S1130860800070478096980000000E4070B509B96A
S1130870002070BD0E4A0023082550F823409461DF
S11308800C4CD5600133D669F60705D514B96FF061
S11308900200EEE7013CF6E7002CF8D0D469A40787
S11308A002D49942E9D1E3E76FF00100E1E700BF28
S11308B000000E40809698002DE9F8431C4B0D462D
S11308C041F671311E6C19641A49804648684968BA
S11308D0996841F00101B6B2996097084FF0000998
S11308E0B94501D3002005E008EB89042046FFF751
S11308F0A5FF48B10E4B9A6822F001029A600EB12E
S113090000221A64BDE8F883C4F30A01C1F500614A
S11309108908A7EB0903994228BF19462846FFF71F
S1130920A5FF0028E6D1894405EB8105D8E700BF7F
S113093000000E4000300E40234B41F671311A6C1A
S113094010B5196421494C684968996841F001015E
S1130950996001211861D960D9694C0792B209D50F
S1130960996821F0010199600AB100221A644FF0DC
S1130970FF3010BD0221D9601549D869C00700D5E0
S113098069B9D86910F002000BD0996821F001010F
S113099099600AB100221A646FF00100E9E7013995
S11309A0EBE741B9986820F00100986002B119643E
S11309B06FF00200DDE7996821F0010199600AB93E
S11309C00020D6E71864FBE700000E4000300E401C
S11309D0809698000D4AD2F8E430D2F8E0109B00DB
S11309E003F03C03C1F381110B438370D2F8E03070
S11309F003F03F034370D2F8E830D2F8EC2003F060
S1130A00F003C2F3031213430370704700FF0FE0B7
S1130A10024BD3F8FC00000E704700BF0081E00FCA
S1130A20044BD3F8E4301B0E0A3303F01F030120F8
S1130A30984070470081E00F00230C4A03600329AB
S1130A4010B50263044643630ED1052107F0BFFDD0
S1130A50636823F4407343F400736360636823F4AE
S1130A60406343F40063636010BD00BF20001000C6
S1130A702DE9F04F1E460446894692461F460FCE86
S1130A808BB001AD0FC596E80F0085E80F00002577
S1130A90099507F060FD5146064604F5827007F09B
S1130AA075FD494604F5847007F070FD394604F578
S1130AB0867007F06BFD304607F051FD5F4E604BCA
S1130AC0DFF8BC91DFF8BCA12365DFF8BCB107F007
S1130AD042FDC4F850B0D4F8148007F040FD18F07B
S1130AE0807F19D0574B236507F035FDC4F850B00B
S1130AF0656907F034FDEB0140F1888007F02BFDB8
S1130B001499054604F5887007F048FD284607F057
S1130B1026FD0BB0BDE8F08F18F4807F1CD14A4B42
S1130B202365013D9023A360636913F4807F474BE1
S1130B3023650ED007F00FFD3946834604F5807017
S1130B4007F024FD584607F00AFD414B2365414B4D
S1130B5063658823A360B8E7002D13DA3E4BC4F81D
S1130B6050A0636507F0F7FC01A9834604F5807083
S1130B7007F014FD63695846C3F30343099307F070
S1130B80EEFC6D42354B23656369DFF800C113F455
S1130B90407F4FF08803A3604FF00101626926652E
S1130BA061656369C4F850C00ABF01204FF0FF308B
S1130BB005F1FF358842C3F30723C2F300220BD1AA
S1130BC032B1D90704D5264B2365264B6365A9E7C3
S1130BD0254B2365254BF9E79AB9DA0711D5244B40
S1130BE02365244B6365A16501A904F5807007F0B2
S1130BF0CDFC099B03F00F03C4F848318323A360A1
S1130C0090E71D4BC4F850906365EDE707F0A3FC33
S1130C1004F5807639460546304607F0B7FC284689
S1130C2007F09DFC154B236507F095FC14990446C9
S1130C30304607F0B3FC204669E700BFC93E8198FF
S1130C403084880198390100C93E8101D23E820175
S1130C50C024D0340982010099830100D90801001D
S1130C60C8340981E20C8201C80881E20C820100C7
S1130C7083D9341181E21482E2148201E01001006C
S1130C8083D9108190A2848835393801DB3E010074
S1130C902DE9F04F89B081460D46164600212022E9
S1130CA068461F460BF0FBFE4FF00A0A99F8003025
S1130CB0022B40D0032B07D0012B44D06FF0710BD3
S1130CC0584609B0BDE8F08F202269463846B0473F
S1130CD08346BBF1000FF3D100F0BCFA99F8001081
S1130CE00446FFF7A9FE07F036FC6946804604F582
S1130CF0827007F04BFC404607F031FC374B23650C
S1130D00204607F07CFC07F026FC04F58078834637
S1130D106946404607F042FC584607F020FC009B19
S1130D20012B18D8204600F09FFABAF1010ABDD170
S1130D30DFF8BCB0C4E71C2269463846B04700233C
S1130D4083460793C5E7182269463846B04700230F
S1130D5083460693F5E707F0FEFB05F10C0706460C
S1130D60294604F5847007F04EFC05F1180939464C
S1130D7004F5867007F047FC494604F5887007F0CF
S1130D8042FC304607F0EBFB154B2365204607F089
S1130D9036FC4946404607F06BFC8346C8B9114B04
S1130DA02365114B6365204607F029FC294640461C
S1130DB007F05EFC834660B90C4B23654FF48E73D9
S1130DC06365204607F01BFC3946404607F050FC9B
S1130DD08346204600F048FA72E700BF30C80C0191
S1130DE081E11C018CE11C81D11C0100E11C81D931
S1130DF000B3FFFF2DE9F843064610460F46904620
S1130E001D4609F0DDFD28B129463846BDE8F84302
S1130E1009F0A9BD2B6A002B40F0AD8000F01AFA4E
S1130E2031780446FFF708FE07F095FB04F5807659
S1130E3008F118018146304607F0E5FB484607F003
S1130E408EFB574B236540F281136365204607F000
S1130E50D6FB07F080FB29468146304607F0D3FBDA
S1130E60484607F07CFB4F4B23650123204663650E
S1130E7007F0C5FB4C4B236507F0C1FB07F06BFB88
S1130E8005F10C018146304607F0BDFB484607F0EA
S1130E9066FB464B2365204607F0B1FB07F05BFB7E
S1130EA008F10C094946054604F5827007F0ABFBCE
S1130EB0284607F054FB3E4B2365204607F09FFB72
S1130EC007F049FB41460546304607F09CFB28469F
S1130ED007F045FB374B2365374B6365204607F026
S1130EE08EFB07F11801304607F0C2FB05460028C7
S1130EF03BD1324B2365204607F081FB304B236501
S1130F0007F07DFB2F4B236507F079FB2E4B236500
S1130F104FF48A73636507F072FB2C4B236507F06B
S1130F206EFB3946304607F0A3FB0546E8B9284B6B
S1130F302365284B6365204607F061FB07F00BFB34
S1130F4049460546304607F05EFB284607F007FB96
S1130F50214B2365214B6365204607F050FB07F1C5
S1130F600C01304607F084FB0546204600F07CF96E
S1130F702846BDE8F883284609F022FD08B1414619
S1130F8043E72B6A002B3FF449AF012105F1180018
S1130F9008F003FC00283FF441AF114DE8E700BF1F
S1130FA08184E11C83D91C83E11C810182D11C0151
S1130FB0C81482019983D91481E11C018CE11C01BC
S1130FC0811C8401D91C830191D11CE0D814140123
S1130FD081CB1481D11C820181E11C84E2140100C3
S1130FE080B0FFFF2DE9F04788B0904605460F46D4
S1130FF000F030F92978DFF854910446FFF71CFD1E
S113100007F0A9FA04F5807608F118010546304680
S113101007F0F9FA284607F0A2FA40F28313C4F85D
S113102050902046636507F0EAFA07F094FA08F155
S11310300C010546304607F0E6FA284607F08FFA19
S11310404FF0010A354B23652046C4F854A007F03D
S1131050D6FA07F11801304607F00AFB05460028C6
S113106054D12F4B23654FF486736365204607F0F4
S1131070C6FA07F070FA4146054604F5887007F091
S1131080C2FA6946304607F089FA284607F067FA3B
S1131090244B2365244B6365244BA365204607F04A
S11310A0AEFA234B2365234B636507F0A8FA224B62
S11310B02365224B6365C4F858A007F0A0FA3946AB
S11310C0304607F0D5FA054600BB1D4B23651D4B82
S11310D06365204607F093FA07F03DFA6946054632
S11310E0304607F053FA284607F039FA164BC4F88D
S11310F0509063654FF48A73A365204607F07FFA26
S113110007F10C01304607F0B3FA0546204600F01B
S1131110ABF8284608B0BDE8F08700BF821CC00CBD
S113112091D11CC0C00C81E11C82DC0C81148401AF
S1131130E11C81C80C0C8101D20C848BD91CE014F5
S113114084E21482D11C8301C00C82D38182D11C1D
S11311502DE9F047A2B00E46054600F07BF815F8DD
S1131160041B044606F11807FFF766FC1C22002145
S113117003A80BF094FC4FF0010839460AA80DF1BE
S11311806809CDF8088007F0C0FA294612A807F0CC
S1131190BCFA12AB0AAA02A9CDF800902046FFF7C8
S11311A067FC07F0D8F94946054604F5867904F545
S11311B0827007F0EBF906F10C0A3146484607F055
S11311C022FA514604F5887007F01DFA284607F004
S11311D0C6F9134B2365204607F011FA114B23651A
S11311E007F00DFA104B236507F009FA0F4B23653E
S11311F007F005FA514604F5807007F039FA58B93A
S11312003146484607F034FA30B9204600F02CF84D
S11312104146384608F0FCF822B0BDE8F08700BF2C
S11312208AD11C0181D91C0183D11C0181E11C01DB
S113123008B5064A064B00290CBF1146194600F0B2
S1131240F1FABDE8084007F086BA00BF09000002C1
S113125008000002024B03480122C3F8002670472D
S11312600010C84300000F40094B98420ED003F50C
S11312708063984209D10122064B03EBC2035A68EA
S1131280054B13449B0000221A6070470022F3E7C9
S113129000000F4020D600008005F21000F01F026D
S11312A0A0F50620A0F550604009084901239340A9
S11312B051F820201A4341F82020054951F82020F4
S11312C022EA030241F82020704700BFD8250020FD
S11312D0C4250020A0F50623A3F550630D4A5B093D
S11312E000F01F000121814052F82300014342F81D
S11312F023100949D1E90030034488680344C868CD
S1131300096903445B1802BFC2E90033C2E902332E
S113131013617047C4250020D82500202DE9F04F23
S1131320A9B0CDE90401339E03921D460446414011
S1131330082221FA02F34B40980702F1080218BF71
S11313409B00202A1C44F4D18123B4FBF3F303EB68
S1131350C313E41A734B1B7804F5062404F5506494
S1131360002B3ED104F05AFF074620B16FF09100E4
S113137029B0BDE8F08F0146402208A80BF08FFB8E
S11313804022394618A80BF08AFBDFF8B481DFF855
S1131390B491C3460BF10F0ACDF800A0102208A99E
S11313A0D9F800005B460BF08DFF08F110080146E8
S11313B008AF0022914246D1CDF800A05B46D9F88F
S11313C00000102218A90BF086FF18AF83464FF0D7
S11313D0000AD34541D1544B9845DAD1514B0122EF
S11313E01A70DFF864B14FF0810A4FF00008A4F5D9
S11313F00627A7F550635B0904F01F015BF823205F
S1131400CA40D2073DD4494A52F82330CB40DB07C7
S11314102AD5B8F1000F08BFA046A7F6FF478123DD
S1131420B7FBF3F303EBC313FF1A07F50624BAF172
S1131430010A04F55064DAD1039BBBB1B8F1000F83
S113144014D0444619E057F8040BCDE90612FFF70F
S113145025FF079A06990132ACE757F8040BFFF70A
S113146039FF0AF1010AB4E7039B13B96FF08B004B
S11314707EE7B8F1000F18BF4446349B00201C607F
S113148076E7329B13B1329A002313600EB1002326
S113149033601023DFF8AC900093D9F800000023E8
S11314A02A46214606F0F0FD60BB32992A68204B9B
S11314B0C9B99A4206D0D9F80000214606F07EFE4A
S11314C00028D3D1D5E90223DDE90410834208BF03
S11314D08A42A2D1039B002BCFD06B68012BCCD1C5
S11314E06FF0840044E7329910209A420860E2D1F8
S11314F0002EE7D0D9F80000334618AA214606F09A
S113150017FE48B10B4B9842D5D00B4B9842D2D022
S11315100A4B9842D6D029E7329A336812689B1A4C
S11315203360CFE7712E002000710800C42500202D
S1131530105D175EFFDF00F011E000F0FEDF00F049
S1131540006D080050190020D82500202DE9F04F27
S113155087B08246DDF840B08946984616462AB1DF
S1131560002B4FD040F26C739A424ED8BBF1010F5E
S11315704ED806F11007002439460120059407F0DF
S11315803BFA0546002846D021463A460BF087FA36
S113159005ABCDE9014300942B4601225046494650
S11315A0FFF7BCFE044680B110F18C0F08BF6FF04A
S11315B08D043A46002128460BF071FA284607F0BC
S11315C02BFA204607B0BDE8F08F144B2B60C5E919
S11315D002A9C5F804B02EB13246414605F1100007
S11315E00BF067FA059E0E483B4600682A463146D2
S11315F006F0B2FC18B93046FFF750FED9E76FF099
S11316009104D6E76FF08604DBE76FF09104D8E726
S11316106FF08504D5E76FF08C04D2E7105D175E98
S1131620501900202DE9F0438DB0DDE9147881468E
S11316300E4615461C469BB1B8F1000F05D16FF05C
S1131640860630460DB0BDE8F083002FF7D0B7F121
S1131650005FF4D3C3F1005303F580339F42EED807
S11316601022002108A80BF01AFA07AB029305AB6D
S1131670019306AB00220093314608AB4846CDE9FE
S11316800522FFF74BFE06460028DAD1059BA4B1DC
S1131690AB4215D853EA0504D1D1069B0B48C8F8D0
S11316A000400094079900682B443A4606F0ECFC8D
S11316B0002818BF6FF09106C3E7AB42EDD2BEE736
S11316C05B1B9C4228BF1C46E7E700BF5019002063
S11316D030B58DB00C4605461022002108A80BF049
S11316E0DEF907AB029305AB019306AB002200932E
S11316F0214608AB2846CDE90522FFF70FFE044634
S1131700D8B9099B012B1BD0079D104B294618689B
S113171006F054FDB8B9A5F50623A3F550630C49AA
S11317205B0905F01F000122824051F8230042406A
S1131730284641F82320FFF7CDFD20460DB030BDEB
S11317406FF08404F9E76FF09104F6E75019002074
S1131750D82500202DE9F04788B00746884615466D
S11317601E46FFF777FD044607F17E40083801283E
S113177050D80423236000236360E364626822F486
S1131780406262606A46236391466363A8F104037E
S113179008F11C0853F8041F09BA434542F8041B16
S11317A0F8D106F0D8FE4946074604F5827006F0E3
S11317B0EDFE384606F0D3FE184B2365109BDFF888
S11317C0609005EB831704F5D27A06F0C4FE29462F
S11317D08046504606F0EAFE4035404606F0BFFE1D
S11317E0BD42C4F85090F0D106F0B5FE314605462E
S11317F004F5807006F0D2FE284606F0B0FE2046BE
S1131800FFF732FD331F1C3653F8042F12BAB342CC
S11318101A60F9D108B0BDE8F08700BF888AC80112
S1131820070D810138B50D46044630B36C22002102
S11318300BF035F9124B9D4205D001339D4210D077
S11318406FF0850038BD0F4B04F10C0203F1200149
S113185053F8040B42F8040B8B42F9D125600020A5
S1131860F0E7094B04F10C0203F1200153F8040BD7
S113187042F8040B8B42F9D1F0E76FF08600E1E700
S11318800800000230D6000051D600002DE9F341D3
S11318900E461F46054600285FD083B9002A5CD156
S11318A02B68324A93425ED0013293420CBF6FF0F0
S11318B089046FF08804204602B0BDE8F081002955
S11318C0ECD0036829498B4244D001318B4247D183
S11318D04FF02008904546D86A68D3008DF8073049
S11318E053098DF80630530B8DF80530530D8DF8E0
S11318F00430AB68D90001EB52718DF8031002F08B
S11319003F025909372A8DF802104FEA53318DF8F6
S113191001104FEA535316498DF8003094BFC2F1B9
S11319203802C2F17802284606F06CFF044600280B
S1131930C1D108226946284606F064FF04460028FF
S1131940B9D1C7F80080424605F10C0130460BF0CE
S1131950B0F8B0E74FF01C08BCE76FF08604AAE7C4
S11319606FF08804A7E76FF08904A4E70800000279
S113197072D600002DE9F0419CB0DDE922781646CC
S11319801C460D4601B90AB91CB92FB16FF0860087
S11319901DE0B8F1000FF8D0014601A8FFF742FF9F
S11319A0A8B9019B0F4A934214D00132934213D138
S11319B02023BB4213D83246294601A806F022FF51
S11319C028B943463A46214601A8FFF75FFF1CB0F9
S11319D0BDE8F0811C23ECE76FF08800F7E76FF0B7
S11319E08900F4E70800000270B5114C114E0A2575
S11319F0236843F4807223F48073226030462360AA
S1131A00FEF738FE0023800A62680AB983420AD1CD
S1131A10636853B9013DEBD1236823F001032360CC
S1131A206FF0920070BD0133EEE70020FAE700BFCB
S1131A3000D00140700002002DE9F04F85B0634DE5
S1131A400092634AD2F8C03043F40033C2F8C03085
S1131A502B68DC0781468A4616D500245B4D4E462A
S1131A60D04627464FF00A0BB8F1000F2BD144B1F2
S1131A7014F1940F05D04246002148460BF00FF8AC
S1131A800027009B1F601AE040F271632B60FFF790
S1131A90ABFF044698B96B68032BFCD9D5F8003129
S1131AA02B61D5F800316B61D5F80031AB61D5F805
S1131AB00031EB61FFF798FF04460028CDD02046A3
S1131AC005B0BDE8F08F6C68A40005D02B6B13F44F
S1131AD05C7F12D1002437E03E48FEF7CBFDC00AFC
S1131AE0844205D16B68002BF0D16FF09304C8E7F2
S1131AF06B68002BF6D10134F2E7D80514D523F432
S1131B0080732B636B6853B9BBF10107EDD04E466C
S1131B10D0466FF093040022BB461746A4E7D5F8DD
S1131B2000310393039BEDE70193FFF75DFF044648
S1131B3020B9019B13F41C7FCCD0E5E710F1930F7F
S1131B4099D010F1940FDFD06B686A689B0043450D
S1131B5028BF4346B107324634D123F00301314450
S1131B60914212D103F0030149B11848D0F80001A1
S1131B70114402F8010B8A424FEA1020F9D1FA18F5
S1131B801E44A8EB03085F46C6E7D5F8000142F8F7
S1131B90040BE5E7DCF8001102F8041C4FEA112EEF
S1131BA002F803EC4FEA114E090E02F802EC02F8B7
S1131BB0011C0438032802F10402EBD823F00302C9
S1131BC03244CFE7DFF804C01846F3E700D0014001
S1131BD000400E407000020010B5044606F0BBFC45
S1131BE0024B1C6006F0BBFC002010BDEC2500205D
S1131BF010B506F0B0FC034B1C6806F0B0FC2046A0
S1131C0010BD00BFEC25002013B5002301241A46A3
S1131C1019460094184603F02BFE00231A46194671
S1131C201846009403F054FE0248FFF7D5FF002045
S1131C3002B010BD1C10002070B586B0CDE904328E
S1131C4005460E461046002110221C460AF027FFC6
S1131C5004AB0393064B02930023CDE90033FF2228
S1131C60E3B23146284606F0CAFF06B070BD00BF95
S1131C70338A00002DE9F0479AB0054611A898462A
S1131C800C469246DDE9226908F0EBFD05A807F051
S1131C9031FB08A807F02EFB0BA807F02BFB0EA8BE
S1131CA007F028FB6B6D002B00F084800121304687
S1131CB007F073FD002813DB05F14C073946304665
S1131CC007F02AFD00280BDA0121484607F065FDDC
S1131CD0002805DB3946484607F01EFD002813DBC3
S1131CE0354C11A808F0FAFD05A807F009FB08A86F
S1131CF007F006FB0BA807F003FB0EA807F000FB98
S1131D0020461AB0BDE8F0872246534605A9284666
S1131D1008F0ADFC04460028E3D13A46494608A839
S1131D2008F089FA04460028DBD108AA05A90BA803
S1131D3007F023FF04460028D3D10BA93A460846EE
S1131D4008F05BF904460028CBD108AA31460EA856
S1131D5007F013FF04460028C3D10DF138093A46B1
S1131D604946484608F049F904460028B9D1CDE966
S1131D700180CDF8009005F128030BAA11A928468B
S1131D8000F08AFC04460028ABD111A808F018FE24
S1131D900028A5D111A93A46084608F02EF90446B0
S1131DA000289ED1314611A807F0B6FC044600284D
S1131DB097D095E7014CA3E700B2FFFF80B0FFFF87
S1131DC02DE9F04F9846436D99B005460F461446E9
S1131DD0002B00F0B5800121404607F0DEFC00280E
S1131DE004DA5849084619B0BDE8F08F05F14C06ED
S1131DF03146404607F090FC0028F2DA0FA808F0BC
S1131E0030FD06A807F076FA09A807F073FA0CA8C3
S1131E1007F070FA4FF00C0905F1280BB9F101092C
S1131E2000F08C804FF00C0ABAF1010A00F08680B1
S1131E3006A9DDE92423284600F09CFC014600287D
S1131E406DD1279B0193269B029000930FA95B46BB
S1131E5006AA284600F080FC014600285FD10FA99D
S1131E603246384608F0C9F80146002857D13846AA
S1131E7007F093FC0028D7D009A9DDE922232846DE
S1131E8008F0F5FB0146002849D10CA9DDE9262319
S1131E90284600F06FFC0146002840D139464246EE
S1131EA0204607F06AFE0146002838D109A90846F1
S1131EB0224607F04EFD014688BB09A908460CAA34
S1131EC007F05BFE014650BB06A908460CAA07F0C2
S1131ED054FE014618BB06A90846324608F08DF8A0
S1131EE00146E0B906A93246204608F0A4F90146A5
S1131EF0A8B9214609AA204607F03FFE014670B959
S1131F0021463246204608F078F8014638B9059053
S1131F10204607F042FC059900283FF47FAF0FA844
S1131F20059108F0DBFC06A807F0EAF909A807F018
S1131F30E7F90CA807F0E4F9059953E70249EEE73D
S1131F4002494FE780B3FFFF00B3FFFF80B0FFFFFC
S1131F5070B50C460646114620461A4607F00DFE9B
S1131F60054698B9736E33B9321D21462046BDE843
S1131F70704008F042B82368002B09DB204607F0C4
S1131F8090FAB36DB0EB430F09D9184D284670BDD4
S1131F900146204607F001FC0028EFD0F5E7736EF8
S1131FA02046984705460028F0D104362368002BC4
S1131FB004DA0021204607F0F0FB68B931462046D8
S1131FC007F0AAFB0028E1DB32462146204607F051
S1131FD051FC0028F2D006E032462146204607F0A4
S1131FE0B8FC0028E2D00546D0E700BF80B0FFFF70
S1131FF038B50D460446002105F1180007F0CDFB65
S113200050B1204606F09FFB28B129462046BDE882
S11320103840FFF79DB8014838BD00BF80B1FFFFCD
S11320200246044803780BB9184670479342FCD023
S11320300C30F7E7BCD600002DE9F04782460430A7
S11320401F46DDE908490E46904607F049FA054661
S1132050504608F0FDFB0128824602D01F48BDE827
S1132060F087002106F1180007F097FB40B9B9F199
S1132070000F01D11A48F2E72070C7F800A0EEE77C
S1132080B8F1000F17D16B0001334B453B60F1D819
S11320902146042301F8013B2A46304607F047FA5B
S11320A00028DCD1691C2A46214406F10C00BDE855
S11320B0F04707F03CBAB8F1010FCFD16B1C4B4588
S11320C03B60D7D8002106F10C0007F0BDF921468A
S11320D0023001F8010B2A463046E8E780B1FFFFE1
S11320E000B1FFFF2DE9F04180460C4616461F461D
S11320F013B91A48BDE8F081043007F0F1F9054638
S1132100404608F0A5FB0128804625D1337833B931
S1132110012FEED12046BDE8F04108F03DBC042B70
S11321201AD16B000133BB42E3D12A46711C20460D
S113213007F0DCF90028DDD1691C2A46314404F19A
S11321400C0007F0D3F90028D4D1414604F118005B
S1132150BDE8F04107F05CB90148CBE780B0FFFF70
S113216080B1FFFF2DE9F0410E4686B005460121FE
S113217006F1180007F011FB044650B9284608F090
S113218067FB012879D12146304607F006FB002879
S113219001DA3B4C6DE006F10C082146404607F09D
S11321A0FCFA0028F5DB2F1D3946304607F0B4FA57
S11321B00028EEDA3946404607F0AEFA0028E8DA9D
S11321C0684607F097F803A807F094F84346424698
S11321D069462846FFF7BCFE0446002843D133462F
S11321E0324603A92846FFF7B3FE044600283AD135
S11321F0AB6973BB03A90322084607F0EFFB04464F
S113220088BB039B002B04DA002103A807F0C5FA5E
S1132210C8B903AA334611462846FFF799FE044677
S113222008BB03AA05F11C031146284608F0A5FAC9
S11322300446C0B903A9684607F06EFA104B041EA1
S113224018BF1C460FE003A93A46084607F081FB75
S1132250D5E703AA05F110031146284608F08DFAC4
S113226004460028D5D0684607F04AF803A807F0CA
S113227047F8204606B0BDE8F081024CF9E700BFFC
S113228080B3FFFF80B0FFFF38B5054608F0E0FAE1
S113229001280C4601460DD1204607F07EFA00289D
S11322A006DB05F14C01204607F036FA002803DB73
S11322B0024838BD0248FCE70020FAE780B3FFFF7C
S11322C080B0FFFF2DE9F04FBBB005460191924667
S11322D0994606F038FA0290A0B1284606F038FA7A
S11322E0044658B951462846FFF7CEFF044628B99C
S11322F049462846FFF736FF044698B1284606F0BB
S113230029FA80E151462846FFF7BEFF044600281B
S113231040F0798149462846FFF724FF0446002807
S113232040F07181284608F093FA012840F0AC810E
S1132330EB6D2421013302204FEA530806F05CFBC5
S11323400646002800F09E8106F1240708F089FA69
S1132350384608F086FA002419AB18190C3406F034
S1132360C9FF302CF8D14946304608F0FCFA04463F
S1132370002840D18346D84520D139462846FFF766
S113238037FE0446B8BB284606F0DDF930B33B46B9
S1132390324639462846FEF72DFD044658BB3946D9
S11323A02846FFF725FE044628BB06F1180006F070
S11323B0A7FF06F13C0006F0A3FF1CE00123BBFBD2
S11323C0F8F203FA02F1C9B2242308FB12B203FBA8
S11323D001692AB1284606F0B6F948BBAB4C0AE0BD
S11323E0490801EBC10106EB8101484608F0BBFA3C
S11323F004460028EED04FF0000919AB03EB0900A6
S113240009F10C0906F07CFFB9F1300FF5D1D4B114
S11324106B6F9E4208D0304608F060FA384608F0E8
S11324205DFA304606F0F8FA019808F057FAE6E04B
S11324304A4649462846FEF7D5FD04460028DAD127
S11324400BF1010B97E704A806F054FF05F14C0BC0
S11324500DA806F04FFF2146584606F0F5FF012867
S113246040F0D8802146504606F0EEFF51468146A2
S113247004A806F099FF044630B10DA806F040FF09
S113248004A806F03DFFC3E7524659460DA807F0DD
S113249082FA04460028F0D1B9FA89F94FEA5919A9
S11324A04A460DA904A808F06FF804460028E4D1B0
S11324B0014608F1010219A80DF1640B0AF0EFFAC4
S11324C0A2465B46D045039300F0A180514604A880
S11324D006F0BAFF039B1C7808EB0A01044304A826
S11324E006F0B2FFE4B2039B44EA400403F8014B54
S11324F00AF1010AE6E79BF801009BF8003080EA44
S1132500020C6FEA0C0101F0010113FB01F310400E
S113251003EA0C0283EA0C030BF8013F1BF8013CAD
S113252043EAC11302430BF8013C0134A245E2D251
S11325300DA806F0E5FE04A806F0E2FE04A808F0E3
S113254090F900240DAB18190C3406F0D3FE302C8E
S1132550F8D10AF1E8036B44019913F8843C32463C
S1132560284608F034F9044648B9449B002B00F08F
S11325708480284606F0E7F800284DD1434C04A88F
S113258008F017F94FF000080DAB03EB080008F151
S11325900C0806F0B5FEB8F1300FF5D1002C7FF42D
S11325A037AF01994A46284608F0C2F80446002885
S11325B07FF42EAF449B73B1284606F0C4F800287C
S11325C05ED0DDE9442301992846FEF761FB044609
S11325D000287FF41DAF01992846FFF709FD6B6FB2
S11325E09E42044608D0304608F078F9384608F090
S11325F075F9304606F010FA002C7FF415AF029BF3
S1132600002B7FF47BAE20463BB0BDE8F08F002268
S113261001248BE71E4CFBE6DDE94423019928469F
S1132620FEF736FB48B30446A9E728460AF1FF3A09
S113263006F089F80028A1D0019A28461146FEF731
S1132640D1FC0028EFD118F80A30324604A92846F4
S113265008F0BDF80028E6D1284606F074F80028F2
S11326608CD0019A04AB11462846FEF7C3FB002820
S1132670D9D1BAF1000FD8D181E70DF16408F8E798
S1132680024CC5E6034CCFE6014CB8E780B1FFFF2E
S113269080B0FFFF80B2FFFF2DE9F04196B0054600
S11326A0984608F0D5F801280F46164650D101A8DF
S11326B008F0D7F800240AAB18190C3406F01AFEF7
S11326C0302CF8D14346324601A9284608F081F956
S11326D0044600283AD1DDE91C233946284608F08F
S11326E078F9044690BB284606F02DF80646B8B99A
S11326F0284606F028F8D0B9164C00270AABD8199A
S11327000C3706F0FDFD302FF8D116B1284606F03F
S113271021F801A808F04DF8204616B0BDE8F08174
S1132720284606F015F804460028E1D0E5E73B46C4
S113273001AA39462846FEF75DFB04460028DCD191
S113274039462846FFF754FC0446D6E70026D4E76A
S1132750004CE1E780B1FFFF30B4DDE9024524B16C
S1132760CDE9024530BCFFF7ADBD014830BC704730
S113277080B0FFFF73B505461E4608F069F80128CE
S11327800C4601460ED11346009605F14C02204634
S113279007F0E2FC044B10F10E0F18BF0346184675
S11327A002B070BD014BFAE700B3FFFF80B0FFFF3A
S11327B02DE9F0410D46014628461746984600F09B
S11327C08DF80446B0B9284608F042F8012805F10E
S11327D07C0612D142463946304606F087FE04464E
S11327E028B931462846FFF74FFD044610B130465C
S11327F006F086FD2046BDE8F081014CF7E700BFF6
S113280080B1FFFF10B5044608F022F8012805D175
S113281004F17C00BDE8104006F089BE004810BDFC
S113282080B1FFFF2DE9F0479A460378AAB0054628
S11328300C46164623B9284C20462AB0BDE8F0873A
S11328400A789A42F7D101F188094946883006F09E
S113285063FF0028EFD104F19408414605F1940088
S113286006F05AFF0028E6D104F1A007394605F125
S1132870A00006F051FF0028DDD102A807F0F1FF07
S11328800BA807F0FCFF21460BA808F082F804F11E
S1132890280304F17C02CDE9006A02A90BA808F020
S11328A0E7F8044680B9494602A806F035FF50B956
S11328B0414605A806F030FF28B9394608A806F0B5
S11328C02BFF044600B1044C02A807F072FF0BA8CA
S11328D008F008F8B0E700BF80B0FFFF38B5044641
S11328E00D4607F0FFFF204607F0C9FF032D2570B2
S11328F027D1164AE26001250823154A6262C4E919
S11329000153C4E90753C4E91353C4E90A53114AF0
S1132910A363114B6265114A6564C4E90F35104B1A
S1132920A364C4E90C25201D06F0BBFDA06504F1D9
S11329304C0006F0B6FDC4E917050020C4E91D00EB
S113294038BD002307482370FAE700BF54D70000BE
S113295034D70000D4D60000F4D6000014D7000009
S11329602810002080B1FFFF032804D00428034866
S113297018BF002070470248704700BF74D700009A
S11329807CD7000038B5094C0546206810B90446C8
S1132990204638BD6B6862689A4204D1A9680AF07F
S11329A054F80028F4D01434EFE700BFACDE000084
S11329B070B50E46054610B1094C206810B96FF089
S11329C02D0070BD6B6862689A4203D1A9680AF051
S11329D03CF808B11434F0E723693360F1E700BF31
S11329E0E8DE000070B5094C256815B96FF02D00BC
S11329F009E0667C864207D1267C8E4204D11560AC
S1132A0062681A60002070BD1434EDE7ACDE00008B
S1132A1070B50E46054610B1094C206810B96FF028
S1132A202D0070BD6B6862689A4203D1A9680AF0F0
S1132A300CF808B11434F0E7237C3370F1E700BFDD
S1132A405CDE000030B5084B1C6814B96FF02D0033
S1132A5006E01D7C854204D15B680C600020136095
S1132A6030BD1433F0E700BF5CDE000070B50E46E5
S1132A70054610B1094C206810B96FF02D0070BDE7
S1132A806B6862689A4203D1A96809F0DEFF08B155
S1132A901434F0E7237C3370F1E700BF34DE000028
S1132AA030B5084B1C6814B96FF02D0006E01D7C8E
S1132AB0854204D15B680C600020136030BD143380
S1132AC0F0E700BF34DE00002DE9F04F87B00F4679
S1132AD0002105460093084690469B46134605AAE6
S1132AE0109E06F03CFB284609F0F1FF04463846E8
S1132AF009F0EDFF05994B1C03EB91132344184493
S1132B00119B984207D9129B6FF029081860404620
S1132B1007B0BDE8F08F39B1012005F06DFF044620
S1132B2018B9DFF8A080F2E70C4643460599CDF8C2
S1132B3000B005AA204606F012FB804618B12046D4
S1132B4005F06AFFE3E7284609F0C1FF294602467B
S1132B50304609F0AEFF284609F0B9FFA146351802
S1132B604FF00A0ADDF814B0BBF1000F18D1384653
S1132B7009F0ADFF39460246284609F09AFF384667
S1132B8009F0A5FF02462B18581C129B05F802B049
S1132B90821B1A60119B59469A1A09F080FFCEE7EE
S1132BA05A46402A28BF402249462846039209F043
S1132BB080FF039A1544ABEB020005F801AB0590C6
S1132BC09144CFE780EEFFFF0238C0B202289ABFDB
S1132BD0024B53F820000020704700BF74DF000050
S1132BE070B505460E4641B1046834B94B6A98473E
S1132BF0686020B12E60204670BD0248FCE70248A0
S1132C00FAE700BF80C1FFFF80C0FFFFF0B58BB0C3
S1132C1005460E462422002101A809F040FF1DB9F3
S1132C20144C20460BB0F0BD2B68002BF8D101A941
S1132C30304608F0A5FB04460028F1D1BDF8047025
S1132C4001A808F0AAFD27F0FF03B3F5E24F0BD06B
S1132C5047F201039F4209D1074F7B6A9847686096
S1132C6030B12F600660DCE7044FF6E7044CD8E788
S1132C70044CD6E780C1FFFFA0DF0000D0DF0000D6
S1132C8080C6FFFF80C0FFFF2DE9F14F16460268A2
S1132C90DDF838B0DDE90A78DDE90C9A04460D4622
S1132CA01AB9114801B0BDE8F08F3BB90846FFF7E7
S1132CB05BFE0028F5D007F020FF03462268D2F817
S1132CC014E0BEF1000F0CD0CDE90DABCDE90B89BA
S1132CD00A97606832462946F44601B0BDE8F04FD1
S1132CE060470248DEE700BF80C1FFFF00C1FFFF6D
S1132CF002230B708830024B4B608860704700BF22
S1132D0080DF000010F1850F13DA10F1990F25DB35
S1132D109930132822D8DFE800F01C1C1E21212141
S1132D20191C192121211521210A172413110E48D8
S1132D307047003818BF0120404270470B48704765
S1132D400B4870470B4870470B4870476FF06F0093
S1132D5070470A4870476FF06D0070474FF0FF30BE
S1132D6070470748704700BF80C7FFFF80C6FFFF5A
S1132D7080C5FFFF80C0FFFF80C1FFFF00C2FFFFCF
S1132D8000C3FFFF00F19503102B12D8DFE803F016
S1132D900F0D1111111111111111110B1113091131
S1132DA009000648704706487047064870470648B9
S1132DB07047FFF7A7BF0548704700BF80B0FFFF0B
S1132DC000B1FFFF00B3FFFF00B2FFFF80B1FFFFC0
S1132DD02DE9F04FB7B00C46059206462422002197
S1132DE00DA81F46DDE9408ADDF8089109F057FE79
S1132DF00023032C07930ED0042C474C18BF1C4609
S1132E00307809A907F0C9FE054630B9434E30466B
S1132E1037B0BDE8F08F424CF2E7424B7D2216A951
S1132E200BA8CDE90B3600F03BFB0028EED016AB27
S1132E30C0F17D001844089030230AAA0DF1D50191
S1132E4008A805F058FE064638B116A87D2100F002
S1132E50DDFB079808F080FAD9E702230AAA0DF1EE
S1132E60D50108A805F047FE06460028EDD1089BC9
S1132E700A9A134408930AAA04230DF1D50108A859
S1132E8005F039FE06460028DFD1149ADDF828B093
S1132E9045F4E24189B21ABBADF834104FF48051C5
S1132EA0E4B20DA807F06FFE44F0062408991194CB
S1132EB007AB5A4608F0FCFAC0B1FFF723FF7D21A7
S1132EC0044616A800F0A2FB079808F045FA064647
S1132ED004BB00289BD037B0BDE8F04FFFF712BF0A
S1132EE0034602460DA808F064FCD7E7CDE901A922
S1132EF0059A0798CDF800803B46214608F05DFB13
S1132F0010B1FFF73FFFDAE752464946404607F063
S1132F100DFFD4E726467AE70900000280C1FFFFCF
S1132F200800000260E000002DE9F04FB9B0554FF1
S1132F3003928246242200210BA89846DDE94254DC
S1132F4009F0ADFD0FCF14AE0FC60FCF0FC697E833
S1132F500F004FF0000986E80F009AF80000CDF842
S1132F60149007A907F019FEDAF85CB0074620B9F7
S1132F70454C204639B0BDE8F08F14AACDE9092AA2
S1132F8020AE0DF1DE020692314609AA06A800F031
S1132F9087F9B0F1000AEBDD129B47F4824189B254
S1132FA01BBBADF82C104FF400510BA807F0EBFD40
S1132FB0CAF15E014FF0062905AB52463144CDF803
S1132FC03C9008F075FAB0B1FFF79CFE05460598F1
S1132FD008F0C2F90446002D52D1002CC9D0204675
S1132FE039B0BDE8F04FFFF78DBE4B464A460BA8FB
S1132FF008F0DFFBD7E70BF1070B4FEADB0BBBF164
S11330002F0F4FEA4B0A37D806952544302308AAD8
S1133010294606A805F06FFD044618B1059808F086
S11330209BF9A6E75B463246294606A807F0B3FE9D
S113303004460028F2D15B46F218294606A807F098
S1133040AAFE04460028E9D1CDE9006A039A05984E
S11330504346494608F0C0FA10B1FFF793FEB5E7BE
S1133060DDE905039D4203D108F076F90446B4E78F
S113307008F072F9054C7CE7059808F06DF977E7DC
S11330802C4676E760E0000080C1FFFF00C7FFFF29
S11330902DE9F04F04468FB08A46154600212422BC
S11330A005A8DDE91879DDF868801E4609F0F7FC0B
S11330B0206805A908F064F920B10FB0BDE8F04F0D
S11330C0FFF720BEBDF814B005A82BF0FF0B08F0E5
S11330D064FBBBF5E24F22D1BAF1030F15D0BAF16C
S11330E0040F104918BF0021CDE90198C9B2009717
S11330F0206833462A4641F0062108F05EFA30B1D2
S11331000FB0BDE8F04FFFF73DBE0749ECE74A4674
S11331104146384607F00AFE0FB0BDE8F08F034879
S1133120FAE700BF090000020800000280C6FFFFA2
S11331300368062B13B50C4602D00A4802B010BD32
S11331400DF10701FFF792FC48B923789DF80710A9
S11331500BB18B42F1D12046FFF7C0FBEEE70248EA
S1133160ECE700BF00C3FFFF00C6FFFF30B5154604
S113317085B00022C3E900229A6001AA1C4605F02A
S11331809AFD18B1A0F56A5005B030BD294601A8D2
S1133190FFF73EFC60B92B78012BF5D12368052B92
S11331A000D03BB96268044B002A18BF1846EBE70D
S11331B00248E9E70048E7E780C5FFFF80C3FFFF57
S11331C02DE9F04387B0002316468DF8073002AA94
S11331D03023054605F08FFC28B1A0F57454204631
S11331E007B0BDE8F083029B2F681F440DF107026E
S11331F003AB39462846FFF7B9FF04460028EED151
S113320002AA3946284605F042FD10B1A0F56C54D7
S1133210E5E72B68029A13449F4238D19DF80700D2
S1133220FFF7D2FC0146A0B33046FFF7D9FC0446B1
S11332300028D4D19DF80730023B012B25D896E80D
S1133240030007F033FE014603A8FFF771FF0446AD
S113325070B996E8030007F029FE2A6800F188098E
S1133260BB1A49468046FEF73DFF044620B12F6055
S1133270304607F059FCB2E749464046FEF772FF74
S11332802F6004460028AAD0F2E7034CF0E7034C71
S1133290A5E7014CA3E700BF80C3FFFF9AC4FFFF6B
S11332A0F0B585B00646002710460C461546019732
S11332B007F064FC022817D195E8030002AB83E809
S11332C00300184607F05AFC0238022894BF039AF8
S11332D03A462146304607F0F8FD00280EDB019BF4
S11332E003440193019809E0284607F047FC0728A6
S11332F016D132686868A24202D20A4805B0F0BD0D
S1133300006801AB121B214608F093F80028F4D1A1
S11333103068019A801A3060214609F0A6FBE1E783
S11333200148EBE780C1FFFF80C6FFFF2DE9F04FA6
S113333082468FB00E462AB96FF06B0420460FB058
S1133340BDE8F08F0A440292024602A8FFF7A8FFE4
S1133350041EF3DB029B9A1B002AEDDD5A1E002794
S1133360651C0292314603F8017C2A4602A805F046
S11333700AFDB0F10009C0F286800322314602A89A
S113338005F075FDB0F100087FDB504607F0F6FB51
S11333900228834638D19AE8030005AB83E803008A
S11333A0184607F0EBFB0238022872D8069B314618
S11333B01A7802A807F0ACFD041EBFDB274603AA57
S11333C004A95846FFF73EFB04460028B6D1DDE9C0
S11333D003320097314602A805F0D5FD041EADDB8B
S11333E04D44454425442A46314602A805F0CBFC09
S11333F0041EA3DB3022314602A805F038FD002864
S113340045DB2544441999E70728D8D139462422B5
S113341005A809F044FBDAF8043005A9186807F098
S1133420AFFF58BBBDF81440BDF8167005A808F0EE
S1133430B4F924F0FF03B3F5E24F15D1E4B2122C32
S11334401FD1B7F5807F1CD10823134A049231465B
S11334500DEB0300039305F07BFD041EFFF66EAF36
S113346027464FF0020BAAE724F4405444F2010328
S11334709C4206D14FF0010B0027A0E76FF06F04C8
S11334805CE7064C5AE74C4658E7444656E7044680
S113349054E73B78FFDE00BF26D8000080C6FFFF5C
S11334A02DE9F04F05468FB00C462AB96FF06B0733
S11334B038460FB0BDE8F08F0A44059207F05EFB72
S11334C0022840F0958095E8030006AE86E80300E4
S11334D0304607F053FB0238022894BFDDF81CB0D5
S11334E04FF0000B5A46214605A807F0EEFC071ED4
S11334F0DEDB059A111B0029D8DD511E05917D1CC8
S1133500002102F8011C05A82A46214605F03BFCCF
S1133510071ECDDB0322214605A805F0A8FC0028E0
S113352070DB3D4443191A46214605A8029305F071
S11335302AFCB0F1000A5DDBA122214605A805F0B2
S113354096FCB0F1000957DB9BF80020214605A842
S113355007F0DEFC071EABDB3A46214605A80197BF
S113356005F011FCB0F1000848DBA022214605A8B3
S113357005F07DFC031E039342DBDBF8585007354E
S1133580ED082A4631465846FFF73CF9074630B95C
S11335902B463246214605A805F066FD0746294616
S11335A0304600F033F8002F82DB0122214605A8C3
S11335B005F037FD002825DB029D019B55444D4451
S11335C01D44039B45441D443D4405442A4621466D
S11335D005A805F0D8FB071EFFF66AAF3022214686
S11335E005A805F044FC00280CDB3D4447195FE7BF
S11335F0054F5DE757465BE74F4659E7474657E7B0
S1133600039F55E7074653E780C6FFFF0A4619B1F3
S1133610024B00211B681847704700BF2C10002084
S11336200E4B0340B3F1607F06D1B1F5885F14BF40
S11336306FF0860000207047B3F1707F0BD101F466
S1133640E043B3F5005F06D111F4E06F0CBF6FF0F7
S11336508600002070476FF0860070470000C07F2E
S11336608A42F8B506460C4600F0DB806F4922F426
S1133670FF7323F001038B420ED06D4B22F0FF0148
S1133680994209D06B4822F47F7323F003038342E9
S113369002D0694B994228D1684B24F0FF0199422A
S11336A00FD114F0FF000BD0654B40F0007098422E
S11336B040F0B98082EA0400FF288CBF002001207A
S11336C0F8BD5B4B9942ECD0A3F588539942E8D0FE
S11336D024F4FF7323F00103B3F1062FE1D056481D
S11336E08142DED053498B42DBD004F0FE43B3F178
S11336F0A06F14D102F0FE43B3F1A06F40F09380A9
S113370082EA040333F47E1340F08D8014F4004005
S1133710D6D0C4F30540C2F305429042CDE7B3F1DD
S1133720407F6AD102F0FE43B3F1407F7BD182EA4D
S1133730040535F47E1576D131462046FFF770FF37
S1133740002870D13F4B12F47C1703EA02031BD00C
S1133750B3F1607FC2F305473FD13B49D3B243F095
S113376000738B423DD003F17E43043B0F2B01D801
S11337703649CD5C14F47C1FC4F3054333D1BD42F8
S113378014BF002001209BE7B3F1607F0DD12E49C7
S1133790D3B243F000738B421DD003F17E43043B4C
S11337A00F2BDAD82A49CF5CD7E7B3F1707FE1D188
S11337B006F4E043B3F5005F03D1C6F30223012707
S11337C09F4006F4E043B3F5005FD3D1C6F3022172
S11337D001258D40CEE71027BFE7B3F1707FC9D133
S11337E0EFE71025C6E712F47C1F01D1AB4218D0D5
S11337F022047FF565AFBB425FE7B3F1106F12D1CE
S113380024F01F6020F4702068B902F0FE43B3F185
S1133810106F7FF455AF0F48104040F01060A04285
S1133820AEE701204CE700204AE700BF0002000693
S11338300013000600040006000900060003000649
S1133840FF0000020000C07F0300000290E00000BF
S113385090E000000000FFF621F4FF7210B521F0A3
S1133860FF031A4C22F00102F8B121F4BF6020F0EA
S11338700700A04212D0164883420FD0A0F5206062
S113388083420BD0134B9A4208D003F580639942CC
S113389008BF002018BF6FF0860005E0C9B20029F8
S11338A014BF00206FF0860010BDA242FCD0084A6D
S11338B09342F9D021F47F7121F00301A2F57062E3
S11338C09142F1D002F5A0629342E3E700020006C0
S11338D000130006000400062DE9F84317460022F1
S11338E088461C4600F0BAFD054688BBD8F800603F
S11338F0B6F8009009F4E043B3F5804FF36808BFCD
S113390027F0010737EA03031AD10CB3254B24F03F
S1133910FF029A421FD114F0FF0304D0224A43F05D
S11339200073934232D0316922464846FFF798FE2D
S1133930074668B9716922464846FFF791FE70BB95
S11339406FF084050023C8F80030304608F0A0F971
S11339502846BDE8F883154B9A42DCD0A3F588537A
S11339609A42D8D024F4FF7323F00103B3F1062F55
S1133970D1D00F498A42CED00E4A9342CBD004F024
S1133980FE43B3F1407F04D12304CCD56FF0860508
S1133990D8E7B3F1A06FF7D0034B9C42C2E73D4692
S11339A0D6E700BF00030006FF0000020013000674
S11339B00009000600040006434213F07F0207D00A
S11339C0402AC2F1000040F0E5806FF09300704798
S11339D010F56E5F00F0528100F3F58010F5884F0A
S11339E000F0108100F3948010F5A44F00F04081A2
S11339F05BDC10F5C44F00F0388148DC10F5C74F8C
S1133A0000F0968070DB10F5C64F00F03A8110F597
S1133A10C54F69D16FF08600704700F11403142B71
S1133A2062D801A252F823F0153A0000E93A0000E6
S1133A30833C0000E93A0000773C0000833C00002E
S1133A40153A0000153A0000153A0000E93A000062
S1133A50153A0000E93A0000053C0000E93A00008C
S1133A60153A0000E93A0000153A0000E93A00006E
S1133A70713C0000E93A0000ED3A0000723006287B
S1133A8032D8DFE800F00F315F315531BF0010F557
S1133A90C34F00F0F08027DB10F5C24FBAD010F509
S1133AA0C14F21D16FF08500704710F59B4F00F096
S1133AB0E2801CDC10F59E4F00F0A4800DDC10F5B4
S1133AC0A34F00F0D8800FDB10F5A14FEAD010F51A
S1133AD09F4F9FD010F5A24F9BE710F59D4FE1D06B
S1133AE010F59C4F00F0CD806FF08300704710F507
S1133AF0984F00F0C68006DC10F59A4F3FF465AF8E
S1133B0010F5994F85E710F5894F3FF45EAFEBE769
S1133B1010F5824F00F0A98017DC10F5854F07D00F
S1133B2009DC10F5874F00F0AC8010F5864FDBD12F
S1133B306FF09600704710F5844F3FF46BAF10F5AB
S1133B40834FD1D16FF09200704710F5765F3FF448
S1133B5061AF14DC10F5785F00F08A80C4DC10F5E6
S1133B607E5F00F0888002DC10F5814F51E720F081
S1133B70800010F57C5F08BF6FF0860071E010F5DF
S1133B80705F7BD0B0DC10F5745F3FF443AF10F589
S1133B90725F86E75B061FD510F16B0F35DA10F103
S1133BA0720FBFF66BAF10F5645F6AD026DC10F5B8
S1133BB0685F3FF477AF1EDC10F56C5F3FF42AAF0B
S1133BC010F56A5F6DE710F1400F3FF4FEAE10F19F
S1133BD03F0FE1DB002887DC10F1140FBFF61DAFA7
S1133BE010F13B0F2FDA10F13E0FCCBF6FF09300B2
S1133BF06FF08300704710F5665F52E710F5625F5F
S1133C007FF472AF6FF08900704710F1540F3BD00E
S1133C1010F1530F14DA6A3014283FF665AF01230C
S1133C20834040F2545213427FF4F4AE142828D057
S1133C3013F0010F14BF6FF08C006FF08300704716
S1133C4010F1510F97E732301C283FF64DAF104A60
S1133C500123834013427FF425AF1C2808BF6FF073
S1133C60890018BF6FF0830070476FF095007047AC
S1133C706FF0910070476FF08C0070476FF0840014
S1133C8070476FF0940070476FF08800704700BF72
S1133C90015005002DE9F04117461C461F4A23F444
S1133CA0FF7323F00103934290B005460E460ED0F5
S1133CB01B4B24F0FF029A4209D01A4924F47F7363
S1133CC023F003038B4202D0174B9A4223D107AB54
S1133CD014F0FF000DF1200801934FF0200318BFEA
S1133CE040F000700093DDE91612434607F03AFEF7
S1133CF070B91A9B0493199B0393189B0293079B17
S1133D003A46CDE9008331462346284607F078FD3C
S1133D1010B0BDE8F0816FF08500F9E700020006FD
S1133D200013000600040006000900062DE9F04116
S1133D3017461C461E4A23F4FF7323F001039342E3
S1133D408EB005460E460ED01A4B24F0FF029A425E
S1133D5009D0194924F47F7323F003038B4202D062
S1133D60164B9A4221D105AB14F0FF000DF118084F
S1133D7001934FF0200318BF40F000700093DDE979
S1133D801412434607F0EEFD60B9179B0393169B8C
S1133D900293059B3A46CDE90083314623462846E3
S1133DA007F044FD0EB0BDE8F0816FF08500F9E73F
S1133DB000020006001300060004000600090006C5
S1133DC02DE9F0430588DDF82C8047F201094D45C3
S1133DD0DDE90767DDE909CE12D123F4FF7423F08E
S1133DE0FF02154B24F001049C421ED003F58853B6
S1133DF09A4214BF6FF086006FF08500BDE8F0832F
S1133E0005F44F45B5F5824F0FD123F4FF7424F028
S1133E100104B4F1062F0BD1CDE90AE8CDE9087C01
S1133E200796BDE8F04300F033B96FF08500E5E78D
S1133E306FF08600E2E700BF000200062DE9F043C0
S1133E40058844F2010825F44059C145DDE90767B6
S1133E50DDE909CE12D123F4FF7423F0FF02144BE1
S1133E6024F001049C421DD003F588539A4214BFE8
S1133E706FF086006FF08500BDE8F08305F44F45D0
S1133E80B5F5824F0ED123F4FF7424F00104B4F18C
S1133E90062F0AD1CDE909CECDE90767BDE8F04385
S1133EA000F06CB96FF08500E6E76FF08600E3E799
S1133EB00002000637B50C4D2B78DB070C460FD5F6
S1133EC0002301930A4601AB0146281D04F025FD99
S1133ED020B9019BA34218BF6FF0930003B030BD1B
S1133EE06FF08800FAE700BFF025002008B500F065
S1133EF05FFA094B08481A7812F0060F18BF00221F
S1133F004FF00C0118BFC3E90122FFF77FFBBDE8A6
S1133F10084007F070BC00BFF025002038B50E4DF6
S1133F202B7813F0010211D1C5E90122022262F3B8
S1133F3042032B7000F030FA044650B907F059FCE4
S1133F40044630B92B7843F001032B70002420463B
S1133F5038BDFFF7CBFFFAE7F02500202DE9F74342
S1133F6000F4E040B0F5804FDDF828800D46164699
S1133F701F462CD101F18809484606F021FD88B975
S1133F80434600224946CDE900672846FEF754F827
S1133F90FFF712FD044678B33A460021304608F094
S1133FA07EFD10E000230193164B009305F17C0283
S1133FB005F128034946284606F05AFDFFF7FCFCA4
S1133FC004460028DCD0204603B0BDE8F083CB6D66
S1133FD00733B7EBD30F4FEAD3020FD3314628464A
S1133FE0FEF710FCFFF7E8FC04460028D4D1EB6D83
S1133FF00733DB08C8F800300024E4E76FF08904D5
S1134000E1E700BFF3B500002DE9F0410446008864
S11340101F4600F44F43B3F5824F18BF0020ACB0E5
S11340208846154661880022C0B207F0A6F8064605
S1134030FDF7F6FF246A34BB2EB320B301A806F0C3
S11340403FFC2346114A01A9304606F042FD0446CE
S113405050B101A806F077FC2046FFF7ADFC0446FA
S113406020462CB0BDE8F0812A46414601A8FEF75F
S1134070C9FBFFF7A1FC044601A806F064FC002C70
S1134080EED13D60ECE76FF08504E9E7F3B500009D
S11340902DE9F0418CB01C460023059305AB009339
S11340A013460A4641880088149F07F078FCF8B943
S11340B0059E06A8B56D05F01DF909A805F01AF9C5
S11340C00735159BED08B3EB450F4FEA450812D2AF
S11340D006A805F015F909A805F012F9244C304694
S11340E006F031FC304604F097FC2046FFF764FCF0
S11340F00CB0BDE8F08114F4807407D006A805F074
S1134100FFF809A805F0FCF81A4CE8E71A4B0293EB
S1134110139B0193129B0394009309AA06F17C0359
S113412006A9304606F0D0FA044630B106A805F0D8
S1134130E7F809A805F0E4F8D1E72A46394606A8C5
S113414005F0F5F904460028F0D12A46791909A8A2
S113415005F0EDF9044606A805F0D2F809A805F023
S1134160CFF8002CBBD1169BC3F80080B7E700BF83
S113417000B1FFFF80B1FFFFF3B500002DE9F0436C
S11341808BB013460022039203AA00920A46418888
S11341900088DDF8508007F002FC00283DD1039D23
S11341A0AA6D04AF0732384607AE4FEAD20905F0CC
S11341B0A1F8304605F09EF8159BB3EB490F3ED1AC
S11341C04A464146384605F091F90446B0B94A4694
S11341D008EB0901304605F089F9044670B905F188
S11341E08808404606F0ECFBD0B9CDE90076DDE95D
S11341F012124346284606F077FA0446384605F07C
S11342007FF8304605F07CF8284606F09CFB2846EB
S113421004F002FC2046FFF7CFFB0BB0BDE8F083AF
S1134220084B0194009305F17C0205F128034146F3
S1134230284606F01DFC04460028D6D0DEE7024CD2
S1134240DCE700BFF3B5000000B2FFFFF8B5076874
S113425006460C464FBB164B99420CD0013399428B
S113426019D001F0FE44B4F1007F14BF6FF0860052
S11342706FF08500F8BD051D284604F088FA012179
S11342802846FCF7D5FF054658B934602846BDE8F2
S1134290F840FFF791BB051D284604F078FA39462B
S11342A0EEE7304607F050FCF0E76FF08800E1E7F6
S11342B0080000022DE9F04105781E461D4B45F02B
S11342C000759D4207468846144605D1326062BB9C
S11342D06FF08900BDE8F08105F17E45043D0F2DA6
S11342E017D9326082B900253B6803F17E43083B4D
S11342F0012B1CD84146381D04F054FAFFF75CFB2F
S11343000028E7D13560E5E72121404608F0C7FBE6
S1134310E9E7094B32605D5D22B122462121404626
S113432008F0BDFBAC42DFD2D2E71025F5E76FF011
S11343308800CFE703000002A0E0000000F1004283
S11343400532042A38B504460D4609D8114B2C21F0
S113435001FB02339A68824215D06FF08B0038BD9E
S1134360012107F047FC88B10A480022034681680E
S1134370A14205D00132052A00F12C00F7D1ECE767
S11343802C2101FB02332B600020E8E76FF087004B
S1134390E5E700BFFC250020044A92F8DC3043F036
S11343A0010382F8DC300020704700BFFC250020A8
S11343B070B50B4C002526460421204607F02BFC43
S11343C00135204606F082FF052D04F12C04F3D1BB
S11343D096F8DC306FF3000386F8DC3070BD00BF64
S11343E0FC250020F8B51B4C94F8DC30DB070646AE
S11343F00F4629D500252346294693F820001A465E
S1134400B8B125B91A7912B1022808BF1D46013185
S1134410052903F12C03F0D115B96FF08C0015E0D8
S11344200421284607F0F7FB68B9284606F04EFF3A
S11344302A46094B141BA4105C4304F10044053CB8
S1134440346000203A60F8BD6FF0880000233B60C0
S11344503360F8E7FC250020A38B2EBA2DE9FF4139
S113446000230B60394B93F8DC30DC0780460D46A3
S1134470164668D5FFF762FF0446A0B92EB928682E
S113448004B0BDE8F04107F0F0BB012E04D00024D5
S1134490204604B0BDE8F0812868052104B0BDE8D9
S11344A0F04107F0B8BB10F18C0FF1D1294601A8F7
S11344B0FFF798FF04460028EAD12F680123CDE9CD
S11344C00200C7F808807B6003AA02A9384607F0F7
S11344D0C8FC044688B1DDE9020107F0B8FC2D6888
S11344E00421284607F097FB284606F0EFFE14F156
S11344F08C0F08BF6FF08704CAE7DDE90212384663
S113450006F07DFE0446DDE9020107F0A0FC002C64
S1134510E5D10221384607F07EFB04460028DED1AF
S11345202868C368D90444BF43F48063C360C36884
S11345309A0444BF43F40063C360002EA0D0012E4C
S1134540A5D10521AAE76FF08804A1E7FC25002086
S113455030B4224D2C681C606C685C6000241C72B2
S11345605C729C72DC7254681C73250A5D73250CA2
S1134570240E9D73DC7314881C74240A5C745488A0
S11345809C74240ADC74D4681C75250A5D75250C9A
S1134590240E9D75DC7514691C76250A5D76250C40
S11345A0240E9D76DC7652691A77140A5C77140C13
S11345B0120EDA770A0A83F821200A0C83F82220E3
S11345C00A0E9C7783F8201083F8232030BC0A4617
S11345D0014603F1240008F06CBA00BFB0E000000B
S11345E02DE9F8432329089E04460F469146984630
S11345F004D86FF098052846BDE8F88319490822C5
S113460008F023FA05460028F3D1A368002BF0D163
S1134610216AC8F80010243FB942EAD8B1F5005F16
S1134620E7D271B9C9F80000E3687360238A338064
S1134630638A73806369F360A3693361E3697361B7
S1134640D9E7012004F0D8F9C9F8000030B1D8F84E
S1134650002004F1240108F02CFAE5E76FF08C0542
S1134660C9E700BFB0E00000002370B513600A265C
S113467003681C78303C092C0CD814685D1C744306
S1134680146005601B78303B234401391360EFD17B
S1134690084670BD0048FCE700DCFFFF38B503683E
S11346A01546CA1A002A044616DD1A7802F07F025B
S11346B0022A13D15A1C02602A461B7842F8043B92
S11346C004F0D1F910B1A0F50A5038BD23686A6826
S11346D0AB6013442360F8E70148F6E70148F4E7C8
S11346E020DDFFFF1EDDFFFF2DE9F743DFF800812A
S11346F004460F46914631236A463946204604F063
S1134700FAF920B1A0F50E5003B0BDE8F083266895
S1134710009B4D461E44302301AA3146204604F036
S1134720EAF988B1A0F50E500028EDD12368B34210
S113473048D001202877202104F05EF9A86108B947
S11347402748E1E70546E6E7019A2368002A03EBD8
S1134750020901DC2348D7E72A461B7842F8043BC8
S113476049460623204604F0C6F90028DAD1216818
S11347706868A9600B18A9EB0302002A2360E9DD2D
S11347800A5C1E2A05D01C2A1AD828FA02F2D2077B
S113479016D5013323600B5CEB6005F1100249462A
S11347A0204604F060F90028BCD123682A696B61B3
S11347B013449945236001D1A861B7E70A48A3E7E8
S11347C00A48A1E7BE4208D02021012004F014F9D0
S11347D08146A86100288ED1B2E7002094E700BF8B
S11347E080D7FFFF20DCFFFF1ADCFFFF1EDCFFFF8A
S11347F0081058100368F7B51446CA1A002A05466B
S113480040F3A0801A78172A0ED0182A40F09C8012
S1134810042701332B6001AA284604F024F928B1A7
S1134820A0F5105003B0F0BD0227F2E7019E07F196
S113483008039E427ED3224639462846FFF714FFDA
S11348400028EFD1022F08D12368312BDCBF643359
S11348502360236803F26C732360221D022128461F
S1134860FFF702FF0028DDD104F1080202212846E7
S1134870FFF7FAFE0028D5D104F10C0202212846E4
S1134880FFF7F2FE0028CDD104F1100202212846E0
S1134890FFF7EAFE0028C5D1F61BA6F10803012B99
S11348A048D904F1140202212846FFF7DDFE00284E
S11348B0B8D10B2EA6F10A033AD12B681A785A2ADA
S11348C038D101332B60236842F20F72934231D8FE
S11348D0E268172A2ED822693B2A2BD862693B2A20
S11348E028D861680C2925D801228A4041F2AA55AA
S11348F02A4221D112F4256F20D102291AD19A0714
S113490005D1642193FBF1F201FB1232C2B94FF4D9
S1134910C87293FBF2F102FB1133002B14BF1C236A
S11349201D23A268002A05DD9A427FF77BAF01E0D0
S1134930002BC8D0054875E71F23F2E71E23F0E7D4
S11349401D23EEE702486DE702486BE700DCFFFF3A
S1134950A0DBFFFF9EDBFFFF73B5154602688B1AD1
S1134960002B044610DD167801AA04F090F918B162
S1134970A0F5125002B070BD2368019AAB601344D5
S11349802E606A602360F5E70048F3E720DBFFFF51
S113499010B50C4611461A46029B1B687BB906F0FB
S11349A0AFF810B1A0F5185010BD2368052B00D046
S11349B03BB96268044B002A18BF1846F4E7034861
S11349C0F2E70148F0E700BF00DDFFFF00D8FFFF7A
S11349D073B543F0A006144633460432054604F08A
S11349E08AF818B1A0F5145002B070BD2968A1600E
S11349F0266064680C44302301AA2146284604F04A
S1134A007AF80028EED1019A2B681344024A9C429A
S1134A1018BF1046E8E700BF9ADAFFFF2DE9F04F10
S1134A208146C3B008460E4608F051F802AD06EBC5
S1134A3000080027484604F098F934460122BB4692
S1134A40AA46444501D9002009E02378E2B13D2B70
S1134A504FD12A4FA51B386820B9A0F5045043B0A4
S1134A60BDE8F08F7B689D4204D12A46314607F0A9
S1134A70DAFF08B11037EEE7D7F808B0661C5546E0
S1134A8044451CD023460BE05C2B16D1444516D07C
S1134A90631C984501D11A48E1E762782C2AFAD1BF
S1134AA05A1C964207D01A7805F8012BA5EB0A0286
S1134AB0B2F5807FEFD000221CE02C2BE0D15846C9
S1134AC008F005F8A5EB0A0302460093594653463D
S1134AD0484604F0E4FA78B1FB68C36023464345D2
S1134AE004F10104264602D05A78202AF6D0012285
S1134AF000E023465C1CA4E70248B0E7D0E00000D5
S1134B0080DCFFFF80D7FFFF70B5036803F0DF038D
S1134B10802B8CB006460C4603D0822B6FD03F48C6
S1134B2034E08568436802951D4401AA062329469A
S1134B3002A803F0E0FFB8B1A0F5145030BB28225E
S1134B402046002107F0ABFF043403AA0BAD134643
S1134B5003CBAB42206061601A4604F10804F6D12D
S1134B6018682060002011E0DDE90126082AD6D16A
S1134B702B48314607F069FF0028D0D10836B542EA
S1134B8006D803A82421FEF741FD26480CB070BDC9
S1134B90A02301AA294602A8029603F0ACFF00282C
S1134BA0CAD1302301AA294602A803F0A4FF002891
S1134BB0C2D1062301AA294602A803F09CFF0028BB
S1134BC0BAD10623019A0693029B089313449D428B
S1134BD00792D6D9029304230DEB0302294602A8B7
S1134BE003F089FF0028A7D10423019A0993029BAB
S1134BF00B9313449D420A920293A0D0C1E70D1D6A
S1134C0024220021284607F04AFF02232360336848
S1134C1063607368A360B368E360A3E780DFFFFFAA
S1134C20A0E200009ADAFFFF2DE9F04FA7B00C468E
S1134C3017461E460390002800F0EF83002900F079
S1134C40EC8305464FF00009EB69A3B1D5F8503168
S1134C504BB94FF4AA71012003F0CEFEC5F8500100
S1134C6020B9AA4C63E0A9461D46EDE707F06AFAAD
S1134C70A946D5F850510023CDE91033CDE91233BC
S1134C80CDE91433CDE9163318934DB9B9F1000FBA
S1134C9001D0C9F850519E4C284603F0BDFE46E0B1
S1134CA0302309AAE1190AA8CDE9097403F023FF06
S1134CB068B1284607F04BFA964CB9F1000F02D0C0
S1134CC00023C9F85031039BAB42E5D12FE0DDE965
S1134CD0093202EB030BABEB0401A9605EB30120C4
S1134CE003F08AFE0A90E860002800F09483AA6822
S1134CF0214607F0DEFE0123AA682B60099B0A996E
S1134D00D31A0B440A9301EB020B0A9BAB6109AA69
S1134D10302359460AA803F0EEFE044670B1284633
S1134D20A4F5065407F013FA002CC6D1002420463B
S1134D3027B0BDE8F08FEC602E60E6E7DDE90937C7
S1134D401F44AB69FB1A6B611CAAA02339460AA84D
S1134D5003F0D1FE08B310F1620F1AD1EC6105F132
S1134D60200239460AA8FFF799FC044630BB05F136
S1134D702C0610AB324639460AA807F0C7F8044699
S1134D80E0B9EB69022B1DD9284607F0E0F9624C23
S1134D9093E7A0F506548CB9E1E70A9E1C9B1E44D8
S1134DA005F11C0231460AA803F005FF10B1A0F575
S1134DB00854F0E70A9B9E42D1D0584C284607F08D
S1134DC0C6F97AE70133EB6105F5A673009305F59F
S1134DD0A47205F2491310A93046FFF7D9FD044621
S1134DE00028EBD10A9B2B6409AA302339460AA870
S1134DF003F081FE0446002891D1DDE9093105F173
S1134E00500219440AA8FFF76FFC04460028D5D1C4
S1134E102A6C0A9B9B1AEB631CAA302339460AA806
S1134E2003F069FE002855D0B0F51054C6D10A9B92
S1134E30EB6409AA302339460AA803F05CFE044651
S1134E4000287FF46CAFDDE9093143B105F170024C
S1134E5019440AA8FFF748FC04460028AED10A9A70
S1134E60EB6CC5F8C820D31AAB6405F1CC02394603
S1134E700AA8FEF7A5F9044600289FD10A9BD5F895
S1134E80C8209A1AC5F8C420EA69023A012A04D84B
S1134E909F4247D10A9B9F4263D1EB690A9A032B35
S1134EA040F08C80974200F0818205F1EC02394693
S1134EB00AA8FFF78DFD044600287FF47FAFD5E9EB
S1134EC03C32D318049302900A9B049A9A4263D802
S1134ED074D089E10A9E1C9B1E4405F19002314660
S1134EE00AA8FFF787FC044600287FF467AF05F1A2
S1134EF0A80231460AA8FFF77DFC044600287FF487
S1134F005DAF0A9B9E4292D0054C57E780D7FFFFC6
S1134F1000D8FFFF80DEFFFF80DAFFFF9ADDFFFF8E
S1134F209ADBFFFF1B78C5F8D43005F1D802A12322
S1134F3039460AA803F0DFFD58B110F1620F03D01F
S1134F40B0F506547FF43AAFEB69023B012BA1D9CB
S1134F50A3E70A9BD5F8D820C5F8DC3013440A939C
S1134F60F2E71B78C5F8E03005F1E402A2233946E4
S1134F700AA803F0C0FD38B110F1620F8DD0B0F56E
S1134F8006547FF41BAF88E70A9BD5F8E420C5F8E4
S1134F90E83013440A9380E7029B1B93CDE919334D
S1134FA0CDE90C33049930230BAA0AA803F0A3FD1E
S1134FB068B1A0F51454002C7FF400AF0A9B9F4203
S1134FC000F0F481284607F0C2F89F4C75E6DDE94D
S1134FD00A2302EB0308414606231AAA0AA803F08F
S1134FE08AFD0028E5D106231A9A19930A9B1B937C
S1134FF0414613440AA80CAA0A9303F0C4FD10B155
S113500010F1620FD5D104230BAA41460AA803F07C
S113501072FD0028CDD10A9B0B9E05931E44B0451A
S113502040F0E2800DA919A8FDF7C2FCC8B1309A7E
S11350300C9B7AB10A9A0092DDE93040019619AAD4
S11350402946A047044618B10C9B002B7FF4B6AE4A
S11350500A9639E7CDF82880002B3FF435AF7B4C16
S1135060ACE6D5F818110D9B11EA030240F0D78184
S11350701943B3F5807FC5F8181125D00BDC082B34
S113508000F00781202B00F09780042B60D00C9B4C
S1135090002BDDD020E1B3F5006F7DD0B3F5803F68
S11350A0F5D11C928DF874201E9241461CAA0AA8C0
S11350B003F085FD002855D11C9B012B7AD11E9B42
S11350C01B7885F83831FFE6C5E9472230231CAA4E
S11350D041460AA803F00FFD28B1A0F51454002C92
S11350E03FF4F2AE6AE60A9B9E423FF4EDAE05F54C
S11350F08E78424631460AA803F045FD78B110F196
S1135100620FEAD1424631460AA803F054FD002852
S1135110E3D1D5F81C3113B10123C5F81C310A9B26
S11351209E423FF4D1AE05F5907231460AA803F0D1
S113513042FD0028D1D10A9B9E4255D1D5F8203199
S11351406FF00042934235D00133C5F82031BBE6FD
S11351501C928DF874201E9241461CAA0AA803F0E2
S11351602EFD20B1B0F514543FF4AEAE26E61C98E3
S113517000B300231E9CC5F82431E15CDA009140A1
S1135180D5F8242101330A439842C5F824213FF479
S11351909BAE042BF1D197E6062305F594724146A4
S11351A00AA8FCF749FD0028DCD1D5F83031002BE2
S11351B07FF48AAE264C01E630230EAA41460AA8A3
S11351C003F099FC002888D10A9B0E9A13449E424E
S11351D00AD105F1F80A0A9CA64207D84FF0000349
S11351E0CAF80C303FF470AE1A4CE7E528220021CF
S11351F01CA807F054FC14F8018B0A940FAA31463A
S11352000AA803F030FC00287FF467AF08F0C0035D
S1135210802B7FF424AF1CA95046FFF775FC04468D
S1135220D0B110F5025F17D0D5F8046116B9C5F8EE
S11352300461C3E53046F7681021FEF7E7F930460C
S113524003F0EAFB3E46F1E71ADEFFFF9EDAFFFFBA
S11352509CDAFFFF9ADAFFFFDAF8083073B1DAF864
S11352600C30002B40F0DB801021012003F0C4FB44
S1135270CAF80C00002800F0D48082460A9B0F9ADA
S1135280CAF808301344CAF80080CAF804200A9304
S1135290A1E730231CAA31460AA803F02CFC0446DB
S11352A0E0B1A0F51454002C3FF40EAE14F5025FE7
S11352B07FF484AD309A0C9B5AB1059A0092DDE9D3
S11352C03040019619AA2946A04700283FF4FCADB6
S11352D00C9B002B3FF4F8AD534C6FE51C9A0A9BD2
S11352E01344984580D1002A3FF47EAF05F58478B5
S11352F00A9B9E4205D84FF00003C8F80C30D2D068
S113530072E730231CAA31460AA803F0F4FB10B15B
S1135310A0F51454C7E70A9A1C9B02EB030A5146F2
S113532006231CAA0AA803F0E6FB0028F0D11C9A65
S11353300A9B0693042A37D119463C48079207F082
S113534084FB394B079A002818BF1C46D8F808304C
S113535073B1D8F80C300792002B60D110210120D2
S113536003F04AFBC8F80C0000285AD0079A80467C
S11353700623C8F80030069BC8E901230A9B1C9A3F
S113538013449A450A930BD930231CAA51460AA800
S113539003F0B1FB0028BBD10A9B1C9A13440A9367
S11353A00A9B9A45A4D01FE71F4CCFE713AB16AA5C
S11353B059460AA806F0AAFD044600287FF4FEAC6C
S11353C02A6B179B9A4212D11899686B07F03DFB20
S11353D068B9109A139B9A4209D1119A149B9A4264
S11353E005D14AB11599129807F02FFB20B1284630
S11353F006F0ADFE0E4C60E405F59E7259460AA80F
S1135400FFF7AAFA044600287FF4D8AC0A9B9B4510
S11354103FF48CACD6E5074C4FE4074C87E4074CCB
S1135420CCE4074CCAE400BF80DFFFFFAEE200001B
S113543080D9FFFF80D7FFFF00D8FFFF00DBFFFF0D
S113544096DAFFFF2DE9F04FA1B007460D46012083
S11354504FF400711446099303F0CEFA80460028F5
S113546000F0228100230B933B7A032B00F0078189
S1135470042B8E4B18BF00230893FA682B19294676
S11354800CA807930C9306F0F3FD041EC0F2F08001
S113549000F0F780224629460CA803F074FCA146CC
S11354A0041EC0F2E580302229460DEB020003F011
S11354B0DEFC061EC0F2EF80A1444E44324629466B
S11354C00CA803F060FC041EC0F2D28031222946ED
S11354D00CA803F0CCFCB0F10009C0F2D880744AE7
S11354E0092329460CA803F033FD0028C0F2D1801B
S11354F026444E4400EB06094A4629460CA803F00C
S113550042FC041EC0F2B480302229460DEB020096
S113551003F0ADFC061EC0F2BE80A1444E443246E8
S113552029460CA803F02FFCB0F1000AC0F2AD80AC
S1135530A02229460CA803F09AFCB0F10009C0F29D
S1135540A6800C9A3868521B2946FDF7EFFE041E0C
S1135550C0F28E800C9B7A681B1B29460CA80C9306
S113556006F0DBFCA346041EC0F28280002229461A
S11355700CA803F056FD0028C0F28B8056444E441C
S11355805E44264400EB06094A4629460CA803F06B
S1135590FAFB041E6CDB302229460DEB020003F0FB
S11355A066FC061E77DB0FABA14401934E444023F7
S11355B000930C9908986B44324605F0EBFF0346C0
S11355C000286AD12A9A0492099A03920EAA029296
S11355D04FF40072CDE9008210AA397A386805F0D8
S11355E0BBFA0446002843D13868012105F0ABFA20
S11355F0002848D13868042105F0A5FA00284FD0C6
S11356000420397A0BAB0AAAFDF7ECF9044678BBFF
S11356100C993246284607F028FA079B0D930E9BF7
S1135620A919CDE900830DA8DDE90A2306F0DBFC06
S1135630041E1DDB0D983246801B294626440D901E
S113564007F013FA324629460DA803F09CFB041E0A
S11356500EDB302229460DA803F009FC071E21DBCE
S11356600D9A0021521B284607F019FA34443C4491
S1135670404603F0D1F9204621B0BDE8F08F0D4B30
S1135680FAE626464BE70120BBE75446F0E74C46D2
S1135690EEE70446ECE73446EAE76FF06F04E7E729
S11356A0054CE5E73C46E3E7044CE4E70900000267
S11356B0B3E200000800000200DDFFFF80D7FFFF17
S11356C070B586B0002605960A9E00960C461546CF
S11356D0FFF7B8FE00280ADB2A1A05ABCDE901530F
S11356E004490094034622440348FDF7EDF906B04B
S11356F070BD00BFBDE20000E0E2000008B5124B3F
S1135700A8220021184607F0CAF9032203460261C1
S113571042610E480E4A98614FF48061DA610022BA
S113572019629A625A62DA6218660A485866996679
S113573009491A67DA665A6711F8010D985401325B
S1135740102AF9D108BD00BF0024002005E30000A1
S113575000200020001C00201EE300002DE9F84F6B
S1135760DFF87C8098F800308246894616460BB9EB
S1135770FFF7C4FF182707FB0A873D6FD7F86CB003
S11357805D452BD9BC6E796E641BB44228BF344688
S113579029444846224607F08CF9BB6E2544A144AF
S11357A0361BAB4208BF0025ABEB050B5E4528BF9B
S11357B05E4656B1182303FB0A833246596E4846A7
S11357C0294407F076F93444354424B1182303FB03
S11357D00A88C8F870502046BDE8F88F0024E3E733
S11357E000240020F8B5144B182700FB07751D444E
S11357F007FB00330E46DB6A012B14460AD0022B4A
S113580014D023B9284606F032FD844208D9002476
S11358102046F8BD284606F02AFD844228BF0446E7
S113582022463146284606F02BFDF1E72846BDE81E
S1135830F84006F040BD00BF00240020F8B50B4B33
S11358401B7804460D4616460BB9FFF757FFEFF3D6
S113585011874FF0200181F31188324629462046F2
S1135860FFF7C0FF87F31188F8BD00BF00240020B4
S11358702DE9F041154C1E46237805468846174607
S11358800BB9FFF73BFF022D1DD8EFF3118C4FF03E
S1135890200181F3118865B1182005FB0003E2188B
S11358A044F80380576000FB0542002316629362AC
S11358B05362182303FB0544069BE3628CF31188AF
S11358C00020BDE8F0814FF0FF30FAE7002400200B
S11358D02DE9F843144E1F46337805468946904611
S11358E00BB9FFF70BFF022D1BD8EFF311824FF01A
S11358F0200181F3118855B1182404FB05640023A9
S1135900C4F86090C4F86480A7662367E36618232C
S113591003FB0566089B736782F311880020BDE8CA
S1135920F8834FF0FF30FAE7002400200138C0B2BA
S113593003289ABF024B53F820000248704700BF67
S113594020E30000481900207FB50646FFF7EEFF6C
S113595003689B6805469847044620B92B68284687
S1135960DB68984704460E4B00930E4B01934FF4AB
S11359700062002331466846CDE9022306F0A6FE04
S11359802146684606F03FFF24B92B6869461B6927
S1135990284698470399019800F056FC04B070BD5E
S11359A038E30000722E00201FB50C4B00930C4B03
S11359B001934FF4006200230C4601466846CDE98A
S11359C0022306F083FE2146684606F01CFF039975
S11359D0019800F039FC04B010BD00BF38E30000AA
S11359E0722E002010B5124C86B0002301AA4FF489
S11359F0006120468DF80330019300F02DFC88B936
S1135A00019B7BB10B4ACDE904300DF1030102A8DF
S1135A10CDE9022406F074FE01469DF8030019B195
S1135A20FFF7C2FF06B010BD02A9FFF78DFFF9E72B
S1135A30722E002038E3000010B50E4C0E490F48BA
S1135A40224606F0A7FF22460D490E4806F0A2FFA3
S1135A5022460D490D4806F09DFF22460C490D488B
S1135A6006F098FF22460C490C48BDE8104006F0A9
S1135A7091BF00BF0010002029C300004819002076
S1135A802BC300003C1900202DC30000A8140020E3
S1135A902FC300009010002031C3000030100020FC
S1135AA008B5D0E901301844034BA0F50060186034
S1135AB006F048FF002008BDDC26002010B5064B88
S1135AC00C462046196806F072FE20464FF4006129
S1135AD0BDE8104006F06BBEDC26002070B5002641
S1135AE0ADF5027D05460C464FF4FE72314603A81F
S1135AF0029606F0D4FF291D20460196ADF80260F7
S1135B0006F088FE002840F0E8806968884800F0C4
S1135B1079FA002840F0E18001AB4FF4007202A949
S1135B20204606F0BEFE002840F0D780019A002AE5
S1135B3040F0CC8005F10801204606F06BFE0028F9
S1135B4040F0CB80A9687B4800F05CFA002840F064
S1135B50C48001AB4FF4007202A9204606F0A1FEF6
S1135B60002840F0BA80019A002A40F0B98001ABC5
S1135B704FF4007202A9204606F093FE002840F07C
S1135B80AC80019A002A40F0B38001AB4FF400725C
S1135B9002A9204606F085FE002840F09E80019A66
S1135BA0002A40F0AD8001AB4FF4007202A92046F8
S1135BB006F077FE002840F09080019A002A40F019
S1135BC0A7800DF10201204606F0D5FD002840F023
S1135BD08480BDF80210584800F0FAF900287CD1FE
S1135BE001AB4FF4007202A9204606F05AFE0028C9
S1135BF073D1019B43B9BDF80230504A4FF4007190
S1135C0002A800F0BBFD0190019A4D4802A900F0E2
S1135C1013FA002861D101AB4FF4007202A92046A7
S1135C2006F03FFE002858D1019A002A78D105F1E8
S1135C302C03102205F11C01204606F032FE002838
S1135C404BD105F11401204606F0E4FD002844D1AF
S1135C5005F11801204606F0DDFD00283DD105F1CF
S1135C600C01204606F087FD002836D101AB4FF425
S1135C70007202A9204606F014FE70BB019A314856
S1135C8002A900F0D9F940BB01AB4FF4007202A99C
S1135C90204606F006FE00BB019A2B4802A900F03C
S1135CA0CBF9D0B901AB4FF4007202A9204606F03B
S1135CB0F8FD90B9019A254802A900F0BDF960B930
S1135CC005F11001204606F0A5FD06E0204802A9D2
S1135CD000F0B2F900283FF42DAF0DF5027D70BD40
