S01C00006275696C642F64656275672F67656E657261746F722E7333379C
S3150800000000100020C5030008D1C30008D1C30008AA
S31508000010D1C30008D1C30008D1C30008D1C3000862
S31508000020D1C30008D1C30008D1C300085102000893
S31508000030D1C3000860570108E1010008D3DE0008B3
S31508000040D1C30008D1C30008D1C30008D1C3000832
S31508000050D1C30008D1C30008D1C30008D1C3000822
S31508000060D1C30008D1C30008D1C30008D1C3000812
S31508000070D1C30008D1C30008D1C30008D1C3000802
S31508000080D1C30008D1C30008D1C30008D1C30008F2
S31508000090D1C30008D1C30008D1C30008D1C30008E2
S315080000A0D1C30008D1C30008D1C30008D1C30008D2
S315080000B0D1C30008D1C30008D1C30008D1C30008C2
S315080000C0D1C30008D1C30008D1C30008D1C30008B2
S315080000D0D1C30008D1C30008D1C30008D1C30008A2
S315080000E0D1C30008D1C30008D1C30008D1C3000892
S315080000F0D1C30008D1C30008D1C30008D1C3000882
S31508000100D1C30008D1C30008D1C30008D1C3000871
S31508000110D1C30008D1C30008D1C30008D1C3000861
S31508000120D1C30008D1C30008D1C30008D1C3000851
S31508000130D1C30008D1C30008D1C30008D1C3000841
S31508000140D1C3000829120008D1C3000835DE00080B
S31508000150D1C30008D1C30008D1C30008D1C3000821
S31508000160D1C30008D1C30008D1C30008D1C3000811
S315080001700B4A1168086806C881F30B88022181F3C7
S315080001801488203080F30988BFF36F8F4FF0000082
S3150800019080F31188104700BFAFF30080AFF30080EB
S315080001A038490020000000000000000000000000A0
S315080001B007480068006880F3088862B661B6BFF32E
S315080001C04F8FBFF36F8F02DF00BF00BFAFF3008012
S315080001D008ED00E00000000000000000000000003C
S315080001E0EFF309801EF0100F08BF20ED108AEFF319
S315080001F00B82734620E9FC0F114A116808604FF01C
S31508000200300080F31188BFF34F8FBFF36F8F03F071
S31508000210F9FD4FF0000080F31188094A1168086853
S31508000220B0E8FC0F13F0100F08BFB0EC108A82F389
S315080002300B8880F309881847AFF30080AFF3008076
S3150800024038490020000000000000000000000000FF
S315080002501EF0040F0CBFEFF30880EFF30980044982
S31508000260084700BFAFF30080AFF30080AFF300800C
S31508000270D5DF00080348044B834202D0034B03B181
S3150800028018477047801B0020801B002000000000D4
S31508000290064B0749C91A891048BF0131491003D0CE
S315080002A0044B0BB101481847704700BF801B00205C
S315080002B0801B00200000000010B5064C237843B9C7
S315080002C0FFF7D8FF044B13B10448AFF300800123AE
S315080002D0237010BD0660002000000000AC6D010808
S315080002E008B5054B1BB105490548AFF30080BDE8C5
S315080002F00840FFF7CDBF00BF00000000D01B00205C
S31508000300AC6D0108A3F5803A704700BF174B002B68
S3150800031008BF134B9D46FFF7F5FF00218B460F4696
S315080003201348144A121A14F043FA0E4B002B00D045
S3150800033098470D4B002B00D0984700200021040059
S315080003400D000D48002802D00C48AFF3008009F0D4
S31508000350E5FF2000290014F033F909F08FFD00BFEE
S315080003600000080000000000000000000010002047
S31508000370801B002014600020000000000000000020
S315080003800346064A10680344054A934202D8034ABC
S31508000390136070474FF0FF30704700BF041000200D
S315080003A00000022008B50448044A121A92100449AB
S315080003B00CF00FF808BD00BF407901084079010824
S315080003C01460002008B500F02FF8FFF7EBFF124A7B
S315080003D00AE01068516850F8230041F823000133F9
S315080003E091688B42F5D30C320C4B9A4201D200230A
S315080003F0F6E70B4A08E01168002041F823000133AC
S3150800040051688B42F7D30832064B9A4201D2002331
S31508000410F6E7FFF77BFF00BFB46D0108C06D010862
S31508000420C06D0108C06D010810B4144B144A9A60D7
S31508000430D3F8882042F47002C3F88820114A4FF492
S3150800044080419166104901F500524FF0FF30106661
S315080004500E4850660220C3F8D000BFF34F8FBFF393
S315080004606F8F0B480124C0F880414FF44033D360A6
S3150800047004600B615DF8044B704700BF00ED00E0B7
S31508000480000000080090005000800044F7FF370085
S3150800049000E100E0014B1868704700BF0C1000200F
S315080004A008B5094B1B6F03F00703022B04D0032B77
S315080004B005D0012B06D0FEE7FFF7ECFF03E0034B60
S315080004C0186800E0024808BD00800050141000209B
S315080004D0002D310108B5FFF7E3FF054B1B6FC3F38A
S315080004E003330133B0FBF3F0024B186008BD00BFBD
S315080004F000800050081000200048704700B4C4046B
S31508000500014B1868704700BF141000200048704758
S31508000510002D31014FF0B4439868C0F304400C280D
S3150800052008D8DFE800F009070707070722181A079F
S315080005301C1E2000002070474FF0B4439B6803F050
S315080005404073B3F1807F12D0B3F1007F11D003B1AD
S31508000550704709487047094870470948704709486D
S31508000560704709487047094870470948704709485D
S3150800057070470948ECE700BF00093D000024F40075
S31508000580C0EA210180BA8C010048E801005A6202DB
S31508000590405DC60080841E0040420F00014B18686B
S315080005A0704700BF10100020B0F1FF3F01D010B90E
S315080005B07047024870470248704700BF21E000F0C4
S315080005C024E000F0F8B505460E469400224615F0DC
S315080005D0A7F8FFF7E9FF074628B922463146284615
S315080005E014F0BCF808B93846F8BD014FFBE700BF60
S315080005F010E000F038B5044615F08EF8FFF7D4FF82
S31508000600054608B1284638BD00F0FAFC01462046E2
S315080006100BF0F1FE0028F5D1004DF3E70EE000F0EF
S31508000620024B4FF480321A67704700BF00900050A3
S3150800063038B505460C460F4BD3F8803003F0030354
S31508000640022B0ED0032B10D0012B06D00023184600
S3150800065005B1286004B1236038BDFFF721FF0E23DA
S31508000660F6E7FFF757FF0723F2E7FFF713FF06231F
S31508000670EEE700BF0080005038B505460C46174B1C
S31508000680D3F8200100F00700062823D8DFE800F099
S31508000690040A0E16121A1E00012305B1286004B1B9
S315080006A0236038BDFFF7F6FE0523F6E7FFF728FFB8
S315080006B00323F2E7FFF72EFF0723EEE7FFF726FFF0
S315080006C00223EAE7FFF7E6FE0623E6E7FFF718FF49
S315080006D00423E2E700231846DFE700BF0080005046
S315080006E038B505460C46164BD3F8283103F00703F0
S315080006F0013B052B20D8DFE803F003131B0F0B176C
S31508000700FFF7C8FE052305B1286004B1236038BD8C
S31508000710FFF7C0FE0623F6E7FFF7FCFE0723F2E71E
S31508000720FFF7EEFE0323EEE7FFF7EAFE0423EAE708
S31508000730FFF7ECFE0223E6E700231846E3E700BFCF
S315080007400080005070B582B006460D46002301931E
S31508000750104BD3F8804104F00304022C16D0032C66
S315080007600FD0012C07D000240EB1019B336005B1D0
S315080007702C6002B070BD002101A8FFF77DFF102490
S31508000780F2E7FFF7C7FE01900724EDE7FFF7BEFE85
S315080007900190E9E70080005030B583B005460C4665
S315080007A000230193154BD3F8203203F00703042BDB
S315080007B021D8DFE803F0030B11161B0001230DB146
S315080007C0019A2A6004B1236003B030BD002101A854
S315080007D0FFF786FF1223F2E7FFF79CFE0190072337
S315080007E0EDE70BF002FE01900A23E8E7FFF7D6FED5
S315080007F001900923E3E70023E1E700BF00800050EA
S3150800080038B505460C46104BD3F8400100F00300F6
S31508000810032815D8DFE800F002080C10012305B1FB
S31508000820286004B1236038BD0BF0DFFD0A23F6E724
S31508000830FFF7B4FE0923F2E70BF0DAFD0C23EEE727
S3150800084000231846EBE700BF0080005030B583B0A0
S3150800085005460C4600230193144BD3F8603203F087
S315080008600703013B032B1FD8DFE803F0020E191418
S31508000870002101A8FFF700FF10230DB1019A2A6095
S3150800088004B1236003B030BD002101A8FFF7B8FF0B
S315080008901123F2E7FFF73EFE01900723EDE7FFF786
S315080008A035FE01900223E8E70023E6E700800050C2
S315080008B030B583B005460C4600230193144BD3F894
S315080008C0943203F00703013B032B1FD8DFE803F03C
S315080008D0020E1914002101A8FFF7CEFE10230DB150
S315080008E0019A2A6004B1236003B030BD002101A833
S315080008F0FFF786FF1123F2E7FFF70CFE01900723A7
S31508000900EDE7FFF703FE01900223E8E70023E6E799
S315080009100080005030B583B005460C46002301938D
S315080009200C4BD3F8703203F00303012B09D0022BCA
S315080009300DD115230DB1019A2A6004B1236003B0C5
S3150800094030BD002101A8FFF75BFF1123F2E7002362
S31508000950F0E700BF0080005038B505460C46134B3B
S31508000960D3F8000200F0070004281BD8DFE800F0DF
S3150800097003090D111500012305B1286004B1236090
S3150800098038BD0BF032FD0A23F6E7FFF707FE092309
S31508000990F2E70BF02DFD0C23EEE7FFF79BFD800A2F
S315080009A00F23E9E700231846E6E700BF008000505A
S315080009B038B505460C46134BD3F8080200F0070075
S315080009C004281BD8DFE800F003090D1115000123E0
S315080009D005B1286004B1236038BD0BF006FD0A2373
S315080009E0F6E7FFF7DBFD0923F2E70BF001FD0C2321
S315080009F0EEE7FFF76FFD800A0F23E9E700231846A5
S31508000A00E6E700BF0080005038B505460C46104B97
S31508000A10D3F8400200F00300032815D8DFE800F0F9
S31508000A2002080C10012305B1286004B1236038BD03
S31508000A300BF0DBFC0A23F6E7FFF7B0FD0923F2E724
S31508000A400BF0D6FC0C23EEE700231846EBE700BFB5
S31508000A500080005038B505460C46104BD3F86001A7
S31508000A6000F00300032815D8DFE800F002080C1090
S31508000A70012305B1286004B1236038BD0BF0B5FC2D
S31508000A800A23F6E7FFF78AFD0923F2E70BF0B0FC25
S31508000A900C23EEE700231846EBE700BF0080005062
S31508000AA0B0F5207F20D00ED8B0F5007F16D020D81C
S31508000AB010B1B0F5C07F04D10F4B186FC0F30330E7
S31508000AC018E0002016E0B0F5607F05D10A4BD3F890
S31508000AD08000C0F301100DE000200BE0064BD3F8B0
S31508000AE09000C0F3046005E0034B186FC0F3802044
S31508000AF000E00020013070470080005038B50546F8
S31508000B000C46174B4FF480329A660020FFF7C8FF51
S31508000B1005FB00F0134BDA6902F4803241F67131B5
S31508000B20D9635B6823F440136CB90F49884207D828
S31508000B3000210B430B494B600AB10022CA6338BD3A
S31508000B404FF48011F5E7002C07DD0849884201D8E3
S31508000B500021EEE74FF48011EBE74FF44011E8E788
S31508000B600090005000000350005A6202002D310127
S31508000B70430905D0012B0DD0022B0DD0002200E031
S31508000B80002200F01F0049B102F58052012383407C
S31508000B9013607047034AF4E7034AF2E702F5005286
S31508000BA0F4E700BF648000506880005008B58020D4
S31508000BB00BF08AFC034B984203D8034B4FF4803260
S31508000BC01A6708BD005A620200A00050B0F5207FDF
S31508000BD05DD02DD8B0F5007F4ED061D810B1B0F5F4
S31508000BE0C07F24D110B54C1E0BF067FC0BF03CFE01
S31508000BF0FFF716FD2B4A136F23F4704343EA0433B9
S31508000C001367FFF767FC284BD3F8843013F0100FEF
S31508000C10F9D1254BD3F88410C1F38111C1F1020132
S31508000C200BF017FE00F044F8FFF7C0FF10BD704741
S31508000C30B0F5607F1FD11D4BD3F8FC2012F08072EF
S31508000C4006D01846D3F8FC3023F08073C0F8FC3081
S31508000C5001391448D0F8803023F0300343EA0113F1
S31508000C60C0F88030E2B1114AD2F8FC3043F0807304
S31508000C70C2F8FC307047704701390A4AD2F89030FA
S31508000C8023F0F85343EA0163C2F8903070470139FC
S31508000C90044A136F23F4806343EA8123136770477A
S31508000CA0704700BF008000500040005000ED00E093
S31508000CB008B54FF4C0700BF007FC054B984205D9F0
S31508000CC002214FF42070FFF781FF08BD0121F8E7E4
S31508000CD080F0FA0208B5FFF7FDFB0C4BD3F8843019
S31508000CE013F0100FF9D1094BD3F88410C1F3811111
S31508000CF0C1F102010BF0ADFD0121002000F058F80A
S31508000D00FFF7D6FFFFF752FF08BD00BF00400050AF
S31508000D10034AD36E23F0300301790B43D366704739
S31508000D2000400050F8B50446204BD3F8843013F041
S31508000D30100FF9D11D4BD3F88430C3F381139C42AD
S31508000D402DD0FFF7ADFB0646012C11D00BF09FFD09
S31508000D500546164F07F500534FF000725A662046AF
S31508000D600BF0A5FD621E4FF4806393403B6706E0D7
S31508000D7001210BF06EFDE9E70C4BD3F884300B4BE1
S31508000D805B6E13F0007F05D1084BD3F8843013F05F
S31508000D90200FF1D028460BF07EFD022C00D0F8BDBE
S31508000DA0002130460BF055FDF9E700BF0040005022
S31508000DB010B50C46034650B1094A127812B1094AD1
S31508000DC0934208D921460220FFF7ACFF10BDFFF772
S31508000DD067FB0346F0E721460120FFF7A3FFF5E787
S31508000DE0981C0020005A620238B52F4B4FF000427B
S31508000DF05A6603F50B235C6C04F001044AF6CD32FF
S31508000E001A64E8B9294B5B6B13F00103FAD1274A38
S31508000E10556815F0010539D002F5005201215160D7
S31508000E201A462249096B11F0010F04D120498A425A
S31508000E3001D80132F5E71E498A422FD81D4625E01A
S31508000E4000231A4A126B12F0080F04D0184A93426C
S31508000E5001D80133F5E7164A934221D8134B03F517
S31508000E6000522021916203F5805301225A60002323
S31508000E7000E001330D4A926A12F0200F02D10C4AA3
S31508000E809342F6D90A4A93420CD8002514B1074B67
S31508000E90084A1A640BF00CFD284638BD0725F5E705
S31508000EA00725F3E70725F1E70090005000400950B1
S31508000EB03F420F003254FFFF10B51A4B4FF0004265
S31508000EC05A6603F50B235C6C04F001044AF6CD322E
S31508000ED01A6443785B0043F00103134AD363134B48
S31508000EE05B6B13F00B0FFAD1104A536823F4F873AF
S31508000EF0817843EA01135360C178437943EA0123B1
S31508000F0093600179837943EA012313610078FFF737
S31508000F106BFF14B1054B064A1A640BF0C9FC012095
S31508000F2010BD00BF0090005000400050004009501E
S31508000F303254FFFF10B50F2800D90F20124B5C6EF4
S31508000F4003F580534FF000425A6603F50B235A6C9B
S31508000F5002F001024AF6CD3119640C4B5B6B13F0B3
S31508000F60800FFAD109490B6A23F00F0303430B627A
S31508000F700AB1074A0A64002C03DB064B4FF000420D
S31508000F805A660BF095FC10BD0080005000400950D1
S31508000F903254FFFF00A00050064B4FF480329A6689
S31508000FA003F51C3341F67132DA6303F50053012267
S31508000FB0DA60704700900050074B41F67132DA63E9
S31508000FC003F500520121D1600022DA63A3F5183334
S31508000FD04FF480329A66704700000350074B4FF46F
S31508000FE080325A6603F5E6239B69C3F3851282703D
S31508000FF003F03F0242701B0B0370704700900050CD
S31508001000034B9B680A3303F01F030120984070477F
S315080010100080E00F074B9B6813F0020FFAD1054BCF
S315080010205B6813F0020FF5D1024BDB69002BF1D197
S31508001030704700BF00800A50064B5B6813F0010F2B
S3150800104003D0044BDB69002BF6D1024B02221A614E
S31508001050704700BF00800A5008B5FFF7DBFF034B57
S3150800106003F5805101224A601A6108BD00800A50C2
S3150800107008B5054B5B68012B00D008BDFFF7DCFF00
S31508001080024B01225A60F8E700800A5000A00A5075
S3150800109010B50446FFF7BEFF084B5B68012B05D069
S315080010A0237843B10122054BDA6010BDFFF7E0FF54
S315080010B0FFF7B0FFF4E70022F5E700BF00800A500B
S315080010C0D8B90B78D3B101234A6812B1127843EA2A
S315080010D0C2034A78A2B1022213438A6812B112786F
S315080010E043EA82138A786AB104221343CA6812B1A2
S315080010F0127843EA4223044A936470470023E3E7DD
S315080011000022E9E70022F0E700800A5008B9014BFF
S315080011105964704700900A5008B9014B59647047E2
S3150800112000A00A5008B9014B1964704700A00A507C
S3150800113010B9024B186C70470020704700800A509F
S3150800114048B911B1012903D07047044BD86C7047D0
S31508001150024B186D70470020704700BF00800A5088
S3150800116040B911B1012903D07047034BDA647047BF
S31508001170014B1A65704700BF00800A5070B501F030
S315080011809BFF0446012808D80025154B1B7853B148
S315080011900026012C1DD8304670BD01F0C9FF051E7A
S315080011A0F3DA0126F7E70F480BF0C3FB06460028DB
S315080011B0EFD10D480BF0D4FB06460028E9D10B4BBE
S315080011C0302283F8412302229A60054B01221A70C5
S315080011D0DFE7284601F0D0FF0028DCDA0126DAE747
S315080011E007600020001D00209C1C002000E100E094
S315080011F008B504480BF0CDFB18B9034B4FF48062D1
S315080012009A6608BD001D00200090005008B5044BE2
S315080012104FF480629A6603480BF0CFFB08BD00BF07
S3150800122000A00050001D002008B54FF098435B6CE5
S3150800123013F4801F11D14FF098435B6C13F4801F91
S31508001240F9D04FF098435B6D03F47023054A136099
S31508001250054B0222C3F8882108BD04480BF0BFFBE2
S31508001260E9E700BF1810002000E100E09C1C002000
S31508001270002835D010B50446FFF7BAFF00B110BDF7
S3150800128020460BF034FB94F8203093B94FF098437E
S315080012905B6C13F4801FF9D04FF098435C6D04F42F
S315080012A07024FFF7B3FF002CE9D020460BF0BEFBF5
S315080012B0E5E74FF09844A36D43F00203A3654FF0AA
S315080012C0FF3108480BF09EFBA36D23F00203A365CC
S315080012D00028D4D1044B1C684FF4A0221A60E0E71A
S315080012E0212070479C1C0020181000202DE9F0438F
S315080012F085B00023039300285FD00D4614460746A1
S315080013000AB100295BD004F0030634F0030804D1BF
S315080013102EBB304605B0BDE8F0834FF0E0633B6076
S3150800132000237B60BB60FB6100950123019348F0B5
S3150800133000530293694638460BF0C5FA41463846CB
S315080013400BF0CBFA3846FFF793FF81460028DFD02B
S3150800135042460021284613F02BFA4E46D9E74FF0AD
S31508001360E0633B6000237B60BB60FB6103AB0093DB
S3150800137001230193134B0293694638460BF0A3FAEF
S31508001380042138460BF0A9FA3846FFF771FF0746DD
S3150800139008B903460DE022460021284613F008FA4C
S315080013A03E46B6E7D900039ACA4003EB08016A54D9
S315080013B00133B342F6D33E46ABE72126A9E72126F9
S315080013C0A7E700BF040000202DE9F0418AB00C46CB
S315080013D017460178022934D0032938D0012901D0CB
S315080013E021202BE000F10C064FF014081B4A22605E
S315080013F000226260A260E2619D01294620460BF048
S315080014006CFA07970122089245F00055099504964B
S31508001410059248F00053069301960292039304A995
S3150800142020460BF046FA07A920460BF042FA01A916
S3150800143020460BF048FA2046FFF71AFF0AB0BDE827
S31508001440F08100F10C064FF02008054ACFE700F1BD
S315080014500C064FF02008034AC9E700BF0002010343
S315080014600003010300040103A9B170B40446A0B146
S315080014700026466086600A4D0FCDE06021616261F4
S31508001480A3610FCDE06121626262A3620223237029
S31508001490304670BC7047212070472120F9E700BF0D
S315080014A0D4570108A9B170B40446A0B10026466015
S315080014B086600A4D0FCDE06021616261A3610FCDA0
S315080014C0E06121626262A36203232370304670BC26
S315080014D07047212070472120F9E700BFF857010817
S315080014E0002873D02DE9F04F8BB00C4616460146FE
S315080014F0002C6DD0002A6DD00078022815D003285C
S315080015001ED0012803D021200BB0BDE8F08F01F1D1
S315080015100C0901F1040801F12C054FF0140A2F4AB1
S3150800152057469F4217D92120EEE701F10C0901F130
S31508001530040801F12C054FF0200A294A1C27F0E778
S3150800154001F10C0901F1040801F12C054FF0200AFC
S31508001550244A5746E5E70123012B32D9D8F800304B
S3150800156003F03F0B226000236360A360E3615946E2
S3150800157020460BF0B2F9D8F8001020460BF0ADF96A
S31508001580CDF81C90012208924AF00053099304955D
S3150800159005924BF0005306930196029247F00057C6
S315080015A0039707A920460BF084F904A920460BF0F7
S315080015B080F901A920460BF086F92046FFF758FE68
S315080015C0A2E758F8231039B90133C5E72120704737
S315080015D0212099E7212097E70F2095E700020303CA
S315080015E000030303000403032DE9F04186B00C9CB5
S315080015F0002840D090461E460746002C3DD04AB1EA
S31508001600022931D0032933D0012907D0212006B079
S31508001610BDE8F081002BF3D02120F8E71425194AFC
S315080016200D9B9D422BD83A6000237B60BB60FB6113
S31508001630314638460BF051F9CDF80C800122049258
S3150800164046F0005605960094019245F0005502951D
S3150800165003A938460BF02DF9694638460BF033F9DD
S315080016603846FFF705FED2E71C254FF00322D7E7D9
S315080016702025054AD4E72120C9E72120C7E72120EC
S31508001680C5E700BF00020003000400032DE9F0418E
S3150800169092B0002800F09A800C4615461E468046F1
S315080016A0002900F09580002A00F09480002B00F0B5
S315080016B0938000231A46294620460BF0EDFA074682
S315080016C018B1384612B0BDE8F0810FA928460BF0CC
S315080016D078FA07460028F4D12268424B9A426FD01E
S315080016E073690F9AB3EB420F78D33368002B77D11F
S315080016F04FF06063C8F800300023C8F80430C8F813
S315080017000830C8F81C3010A920460BF025FB074600
S315080017100028D6D1109921F4F061109140460BF0BB
S31508001720DCF811A930460BF017FB07460028C8D18C
S31508001730119940460BF0D1F806A920460BF0D6FBC6
S3150800174007460028BDD106A940460BF0B2F803A902
S3150800175020460BF0D8FB07460028B2D103A940461D
S315080017600BF0A7F8F36853B109A930460BF0BEFB96
S3150800177007460028A5D109A940460BF09AF80CA9F6
S3150800178028460BF0C0FB074600289AD10CA940460C
S315080017900BF08FF8694630460BF0B5FB0746002874
S315080017A08FD1694640460BF08EF83C46022C88D805
S315080017B04046FFF75DFD0746012882D10134F5E76B
S315080017C072690F9B9A4290D221277AE7212778E7F8
S315080017D0212776E7212774E7212772E7212770E773
S315080017E021276EE7200000B0F0B58DB000286FD035
S315080017F00C461546074600296CD0002A6CD00123F2
S315080018001A46294620460BF047FA064650B9A368F9
S3150800181013F4C04F62D0AB6803F4C043B3F5005F5E
S3150800182003D0212630460DB0F0BD2F4B3B60002378
S315080018307B60BB60FB6101A920460BF08DFA06466A
S315080018400028EFD1019938460BF047F809A9204638
S315080018500BF04CFB06460028E4D109A938460BF0E4
S3150800186028F806A920460BF04EFB06460028D9D1D3
S3150800187006A938460BF01DF8EB688BBBAB6803F47A
S31508001880C043B3F5005F01D02126CBE705A928465A
S315080018900BF0C1F906460028C4D16A69059B9A422D
S315080018A020D32A6902920122039243F0005304933B
S315080018B002A938460BF007F8344600E00134022C3A
S315080018C0B0D83846FFF7D4FC06460128F6D0A9E773
S315080018D02126A7E72126A5E72126A3E72126A1E7B2
S315080018E021269FE71D269DE700000102002877D0E4
S315080018F0F0B591B00C460546002973D01699002913
S3150800190072D01899002971D0216801F07041B1F19F
S31508001910404F0AD05BB9022A17D0032A17D0012AEA
S3150800192001D021200FE0324B03E0324B01E04FF0AB
S31508001930C0632B6000236B60AB60EB616946204691
S315080019400BF00AFA28B111B0F0BD2B4BF1E72B4B7F
S31508001950EFE7009928460AF0C0FF179928460AF0CB
S31508001960BCFF0DA920460BF0C1FA0028EBD10DA942
S3150800197028460AF09EFF0AA920460BF0C4FA00285A
S31508001980E1D10AA928460AF094FF169B0793012776
S315080019900897179B43F00056099607A928460AF0A8
S315080019A088FF169B049305970696236803F07043F1
S315080019B0B3F1404F0FD0189B019301230293199B53
S315080019C043F00053039301A928460AF07CFF2846F2
S315080019D0FFF74EFCB7E704A928460AF06AFFEAE7CC
S315080019E0212070472120AEE72120ACE72120AAE775
S315080019F000020006000002060003000600040006B6
S31508001A00002879D030B58FB00C460546002975D028
S31508001A101299002974D01499002973D0A16811F479
S31508001A20005F71D0216801F07041B1F1404F0AD0D2
S31508001A305BB9022A16D0032A16D0012A01D0212022
S31508001A400EE0324B02E0324B00E0324B2B600023B3
S31508001A506B60AB60EB6101A920460BF07DF928B1FC
S31508001A600FB030BD2C4BF1E72C4BEFE70199284618
S31508001A700AF033FF139928460AF02FFF0BA92046D0
S31508001A800BF034FA0028EBD10BA928460AF011FF0F
S31508001A9008A920460BF037FA0028E1D108A92846FC
S31508001AA00AF007FF129B059301220692139B43F047
S31508001AB000530793149B02930392159B43F000531C
S31508001AC00493236803F07043B3F1404F0BD005A984
S31508001AD028460AF0EEFE02A928460AF0EAFE28463B
S31508001AE0FFF7C6FBBCE702A928460AF0E2FE05A9ED
S31508001AF028460AF0DEFEF2E7212070472120AFE7EC
S31508001B002120ADE72120ABE72120A9E70002010645
S31508001B100000030600000106000301060004010692
S31508001B2010F1860F14D00EDC10F1930F13D010F1BC
S31508001B30870F05D10B4B994207D06FF06D007047A0
S31508001B404FF0FF30704748B970476FF07300704721
S31508001B506FF0710070476FF06F0070474FF0FF30FD
S31508001B60704700BF0900000201290ADC08B531B137
S31508001B70054900F099FF0549FFF7D2FF08BD03495B
S31508001B80F7E76FF0730070470800000209000002CB
S31508001B9008B50CF087F80249FFF7C2FF08BD00BF79
S31508001BA00900000200B583B00023019301AB20228F
S31508001BB00CF09AF80249FFF7B3FF03B05DF804FB8F
S31508001BC00900000210B5FFF7D9FA0D4B0D4A0E4968
S31508001BD00E4805F0D1FA0E4B1B7803B110BD0BF079
S31508001BE045FA04460A4B1B7833B90A4B1B680A4860
S31508001BF09847074B01221A7020460BF041FAEDE789
S31508001C00E7CF00080FD000083BD0000849D00008ED
S31508001C10086000204C100020584B002000F01F02DE
S31508001C2001239340A0F50620A0F550604009074916
S31508001C3051F820201A4341F82020054951F8202060
S31508001C4022EA030241F82020704700BF781D0020D1
S31508001C50641D002000F01F0CA0F50620A0F55060BA
S31508001C6040090F4951F82030012202FA0CF21343B9
S31508001C7041F8203000231A4604E00A4951F8231097
S31508001C800A440133042BF8D902B17047042A05D84F
S31508001C90034B002143F822100132F7E7704700BFD3
S31508001CA0641D0020781D002000F01F0CA0F50620FA
S31508001CB0A0F550604009054951F82030012202FA82
S31508001CC00CF2534041F82030704700BF781D0020C1
S31508001CD000B583B03A238DF8073001230DF10702CA
S31508001CE00549064800680AF09DF810B903B05DF882
S31508001CF004FB6FF09100F9E7FF6C0800581000200C
S31508001D0010B582B0144602B969B90094049A01461E
S31508001D10064800680AF01EF910B9002002B010BD86
S31508001D206FF09100FAE76FF09800F7E75810002077
S31508001D302DE9F041A2B040242246002112A812F053
S31508001D4037FD2246002102A812F032FD214F23E07A
S31508001D50DFF88C8029E022AB03EB840353F8400CB0
S31508001D60FFF75CFF0134AC42F5D3CDF800803B4663
S31508001D70102202A91848006813F032FB0546002411
S31508001D8007E022AB03EB840353F8800CFFF762FFEE
S31508001D900134AC42F5D33746104B9F4213D807F1AE
S31508001DA010060F4B9E42D3D8B04608F1FF38CDF83F
S31508001DB000803B46102212A90748006813F007FB6B
S31508001DC005460024CFE7074B01221A7022B0BDE86A
S31508001DD0F08100BF006D080058100020FF70080051
S31508001DE000710800096000202DE9F04188B0064618
S31508001DF00C461D4617460AB1002313600DB1002391
S31508001E002B6010230093002322463146244800689D
S31508001E100AF0A0F8804600283ED12268214B9A4253
S31508001E2017D00FB110233B6022681F4B9A4231D15D
S31508001E30002F31D0002D2FD02B4602AA3146184844
S31508001E4000680AF0DBF818BB2B683A689B1A2B6007
S31508001E5022E00023029303930493059306930793C2
S31508001E601822009202AA31460D4800680AF072F854
S31508001E70804688B9069B6360DDE90423C4E902232A
S31508001E80094B23600FB118233B60DFF82080CBE7AE
S31508001E90804601E0DFF81880404608B0BDE8F081CA
S31508001EA058100020D175E105105D175EFEDF00F0C1
S31508001EB0FFDF00F010B59AB000238DF867300123D4
S31508001EC00DF167022F493048006809F0F5FF10B197
S31508001ED02E4A904253D19DF867303A2B19D04022AA
S31508001EE0002109A812F064FC294B2A4A934241D8DA
S31508001EF003F11004284A944211D82246013A009266
S31508001F00102209A92048006813F061FA48B9234647
S31508001F10EBE7224B3A221A6000201AB010BD1E4A7F
S31508001F20ECE7002304930593069307930293039320
S31508001F3002AB03AA04A90998FFF756FF184B984263
S31508001F4012D010B1013B984211D1049B154A934215
S31508001F5005D0154A934202D06FF09100DDE70F4B8A
S31508001F6074221A600020D8E76FF08B00D5E76FF06F
S31508001F709100D2E7094B3A221A600020CDE76FF0AC
S31508001F809100CAE7FF6C0800581000200BE000F02B
S31508001F9000310800FF340800003508001C10002036
S31508001FA0FFDF00F0D175E105105D175E10B50C4B2B
S31508001FB01B7823B10B4B1B680B48984710BD0BF0D9
S31508001FC07DF80446064B1B7833B9084B1B68064850
S31508001FD09847034B01221A7020460BF079F8E9E777
S31508001FE00A600020441000208C1D00204C100020A0
S31508001FF008B5044B1B781BB1034B1B68034898476D
S3150800200008BD00BF0A600020401000208C1D00207B
S315080020102DE9F04F87B006460D469846DDF840A0F4
S3150800202091462AB1002B56D040F26C739A4255D885
S31508002030BAF1010F55D80023059309F1100739465F
S3150800204001200BF02AFF044600284DD03A4600210D
S3150800205012F0AEFBFFF7AAFF05AB0293002301932C
S315080020600093234601223046294600F009F98346A3
S3150800207000BB1F4B2360A660E560C4F804A0B9F155
S31508002080000F1DD13B46224605991A48006809F0FB
S31508002090C9FEE0B16FF0910B3A460021204612F0D6
S315080020A087FB20460BF009FFFFF7A2FF584607B04B
S315080020B0BDE8F08F10F18C0FEED16FF08D0BEBE7CA
S315080020C04A46414604F1100012F0A7FBDAE70598E4
S315080020D0FFF7A4FDE0E76FF0860BE7E76FF0910BDB
S315080020E0E4E76FF0850BE1E76FF08C0BDEE700BFE6
S315080020F0105D175E581000202DE9F04399B0402274
S31508002100002108A812F054FB0023049305930693B4
S3150800211007930393534B544A934200F2848003F186
S315080021201007514A97420BD83A46013A00921022B4
S3150800213008A94E48006813F04AF90646002442E00A
S315080021404B4AF2E7DDF80C90049B4A4A934202D0C8
S31508002150494A93427FD109F1100101200BF09DFEF7
S31508002160054600287AD00090029B039A002118A8F9
S3150800217000EB840C5CF8400CFFF7C2FD8046002893
S3150800218054D1049B3C4A934237D03A4A93423ED0B4
S31508002190B8F1000F02D018F1850F49D118AB03EB3F
S315080021A0840353F8401C314B186809F06BFF00286C
S315080021B04BD1039A10320021284612F0F9FA284624
S315080021C00BF07BFE0134B4422BD200230393029317
S315080021D003AB02AA04A918A800EB840555F8400C1D
S315080021E0FFF702FE254B984232D00028AAD0013BC1
S315080021F09842A7D06FF0910823E0059B00932B46E1
S315080022004A46DDE9060100F015F98046C0E7059B58
S3150800221000932B464A46DDE90601FFF7F9FE80469C
S31508002220B6E73B4677E74FF000080AE06FF09108FB
S31508002230039A10320021284612F0BAFA28460BF003
S315080022403CFE404619B0BDE8F0836FF09108EFE711
S315080022506FF08B08F5E76FF09108F2E76FF08C08DE
S31508002260EFE700BF00310800FF34080058100020CF
S3150800227000350800105D175ED175E105FFDF00F037
S315080022802DE9F0478046894617461E460AF005FF9F
S31508002290604CA4FB0034E40804EBC414041B04F5E6
S315080022A0062404F550645C4B1B7813B10025AA4636
S315080022B068E007F0DFFB002840F09780574B1B6863
S315080022C0E82B02D0FFF734FDF0E7FFF7F3FD00280F
S315080022D040F08E80514B1B68742B02D0FFF728FD07
S315080022E0E4E7FFF709FF00286CD1FFF7F1FC0028A7
S315080022F0DCD067E0BAF1000F00D1A246A4F50624A7
S31508002300A4F6FF44434BA3FB0423DB0803EBC313E8
S31508002310E31A03F5062404F5506432E00A9B1C60B0
S3150800232000204FE0099B089A31462046FFF75CFDDE
S315080023303B4B984209D01233984206D060B1394BCC
S31508002340984209D06FF091003CE02146364B186858
S3150800235009F098FE002851D1B268F3684B4508BFCA
S31508002360424531D0A4F50624A4F6FF44294BA3FB25
S315080023700423DB0803EBC313E31A03F5062404F569
S3150800238050640135802D27D8A4F5062CACF5506C81
S315080023904FEA5C1C254B53F82C3004F01F02D3403F
S315080023A013F0010FBED1224B53F82C30D34013F053
S315080023B0010F9FD1FFB1BAF1000FAFD00A9BC3F846
S315080023C000A00020BDE8F08717B17368012B18D06C
S315080023D00A9B1C600020F5E7B7B1BAF1000F16D0CA
S315080023E00A9BC3F800A00020ECE76FF09100E9E72C
S315080023F06FF09100E6E76FF08B00E3E76FF08B0074
S31508002400E0E76FF08400DDE76FF08B00DAE76FF046
S315080024108B00D7E7813FE00F096000201C100020E1
S31508002420FFDF00F0FEDF00F058100020781D0020C6
S31508002430641D00202DE9F04F8BB006460D469846E0
S31508002440DDF850A091460AB1002B52D0BAF1010F1F
S3150800245052D80023099309F11807394601200BF0D1
S315080024601CFD044600284AD03A46002112F0A0F97D
S31508002470FFF79CFD09AB029300230193009304AB7D
S31508002480012230462946FFF7FBFE834600BB1D4B5B
S315080024902360A660E560C4F810A0B9F1000F1DD14D
S315080024A03B46224609991848006809F0BBFCE0B18A
S315080024B06FF0910B3A460021204612F079F9204632
S315080024C00BF0FBFCFFF794FD58460BB0BDE8F08F08
S315080024D010F18C0FEED16FF08D0BEBE74A464146B3
S315080024E004F1180012F099F9DAE70998FFF796FB54
S315080024F0E0E76FF0860BE7E76FF0850BE4E76FF030
S315080025008C0BE1E7D175E105581000202DE9F0475D
S315080025108CB007460E461546DDF85080DDF854A007
S31508002520994673B1BAF1000F51D0B8F1000F51D0E6
S31508002530B8F1005F51D3C3F1005303F50033984552
S315080025404ED80024089409940A940B940794069488
S31508002550FFF72CFD05AB029307AB019306AB00937F
S3150800256008AB224638463146FFF78AFE0446F8B9D4
S31508002570079BB9F1000F06D0AB4206D80BBB25B1B5
S315080025806FF0860414E0AB421ED35B1B4B4515D295
S31508002590CAF80030DAF800300093069B2B4442460E
S315080025A005991148006809F0D5FC08B16FF0910447
S315080025B0FFF71EFD20460CB0BDE8F087CAF800906C
S315080025C0E8E76FF08604F3E76FF08604F0E76FF04C
S315080025D08604EFE76FF08604ECE76FF08604E9E718
S315080025E06FF08604E6E700BF5810002070B58CB07F
S315080025F006460D460024089409940A940B940794F9
S315080026000694FFF7D3FC05AB029307AB019306AB21
S31508002610009308AB224630462946FFF731FE0446AA
S3150800262070B9099B012B10D005990B4B186809F056
S3150800263029FD68B90598FFF737FB0598FFF70AFBE8
S31508002640FFF7D6FC20460CB070BD6FF08404F7E7A0
S315080026506FF09104F4E700BF58100020002800F03E
S31508002660BC802DE9F043B3B00D4614461E4600293A
S3150800267000F0B680002A00F0B680002E00F0B68082
S31508002680028802F44F41B1F5824F40F0B280D1B2D0
S31508002690122940F0B18022F0FF02B2F5E24F0BD0CA
S315080026A0B2F5824F40F0AE802B78042B1BD06FF02A
S315080026B0860033B0BDE8F0834388336063B9E3002E
S315080026C033603368B3F5807F40F0998022464F49DE
S315080026D028460AF07CFDECE70733B4EBD30FF0D0BD
S315080026E06FF08600E5E72422002119A812F060F8A9
S315080026F019A80AF0D9F9002866D1002722973C22A2
S31508002700394623A812F054F801238DF888304FF083
S3150800271020084246394601A812F04AF801350595BF
S31508002720013C06944246394609A812F041F822AD02
S315080027300D954FF04009CDF838904246394611A814
S3150800274012F036F81595CDF85890E4006408346010
S31508002750B4F5C07F3BD024D8E02C02D0B4F5807FF6
S315080027601CD12B4B01930993039B43F4005303930A
S315080027700B9B43F480430B9333680733DB085B00FA
S31508002780129311AB01AA09A919A8FEF77FFF3368AE
S315080027900733DB085A008BB122AB0CE06FF08600DA
S315080027A087E7B4F5047F15D16FF0850081E700222D
S315080027B003F8012B0A46511E002AF8D100283FF4D7
S315080027C078AF6FF0860074E76FF0920071E76FF0EC
S315080027D085006EE76FF086006BE76FF0860070473E
S315080027E06FF0860065E76FF0860062E76FF0860097
S315080027F05FE76FF085005CE76FF0850059E76FF0DB
S31508002800850056E76FF0960053E700BF1C5801088D
S31508002810200000802DE9F0410C4615464388073311
S31508002820072B02D9DA088A4268D10688D0F80C80C4
S3150800283047683F0A20220021284611F0B9FF002FD9
S315080028405FD1002C60D041F201039E422BD0B6F531
S31508002850885F28D0B6F5905F25D0B6F5105F26D0EC
S3150800286006F44F43B3F5824F51D1F3B2122B51D12F
S31508002870202C52D12D4B2B6026F0FF06B6F5E24FE1
S3150800288029D0B6F5824F4BD14FF40053AB6008F40C
S31508002890864218F4705322D04ABBAB6843F480636F
S315080028A0AB60002001E06C600020BDE8F081182CC8
S315080028B00BD0202C0CD0102C02D06FF08600F4E739
S315080028C010232B606C600020EFE718232B60F9E7D4
S315080028D020232B60F6E74FF48043AB60D7E72AB195
S315080028E0AB6823F48063AB600020DEE703B1D2B99E
S315080028F0AB6823F48063AB600020D6E76FF08600F0
S31508002900D3E76FF08B00D0E76FF08600CDE76FF066
S315080029108500CAE76FF08500C7E76FF08500C4E752
S315080029206FF08600C1E76FF08500BEE720000080E3
S31508002930038803F44F42B2F5824F12D0002321F0E8
S31508002940FF01154A914217D002F58052914216D0DE
S31508002950A2F58852914215D0122B04D06FF085004B
S315080029607047DBB2EBE74388B3F5807F0DD1B1F151
S31508002970062F0DD1002070476FF0860070476FF064
S31508002980860070476FF0860070476FF085007047C5
S315080029906FF08500704700BF0003000620F0FF03B4
S315080029A0164A934216D002F58052934212D0A2F5E7
S315080029B0885293420ED020F4FF7222F00102B2F13F
S315080029C0062F07D00E498B4204D00E4B9A4201D0EF
S315080029D00020704710F0FF0009D040F000700A4B45
S315080029E0984206D00133984205D10320704700204B
S315080029F07047022070470020704700BF000300069A
S31508002A000009000600040006080000022DE9F0434C
S31508002A108DB017461C46149E159D884659B17CB143
S31508002A20002D39D01F4B98420FD00133984224D03D
S31508002A306FF085001EE0002AF1D06FF0860019E0DD
S31508002A40002EEDD06FF0860014E01C232B604FF0AB
S31508002A5002092B68B34215D803A80AF025F8F0B97D
S31508002A60019600943B464246494603A8FEF7BCFD3C
S31508002A7068B900200DB0BDE8F08320232B604FF025
S31508002A800309E6E700232B606FF08900F2E70023CD
S31508002A902B606FF09200EDE76FF08600EAE76FF0C3
S31508002AA09200E7E70800000218B330B58BB00D4670
S31508002AB004466C220021043011F07AFE104B9D4228
S31508002AC005D001339D420CD06FF0850007E0204603
S31508002AD0022300F8043B01A9FEF7C6FC60B90BB057
S31508002AE030BD2046032300F8043B01A9FEF7DAFCB3
S31508002AF0F4E76FF0860070476FF09200EFE700BFCB
S31508002B000800000200B583B0094B93E80300009063
S31508002B10ADF80410090C8DF806106846FEF7CCF9D6
S31508002B200C20FEF707FA002003B05DF804FB00BF8F
S31508002B303C58010810B582B0074A536F43F00103A9
S31508002B405367002400948DF804406846FEF7E0F8C1
S31508002B50204602B010BD00BF004000506FF00403CD
S31508002B6007E003F00F010A4A0A445021117601339F
S31508002B705BB24B2B09DC002BF3DB03F1604202F559
S31508002B806142502182F80013F1E70020704700BF28
S31508002B90FCEC00E030B583B009F079FE0E4B1D78E9
S31508002BA00E4B1C6809F077FE0BF09FF908B1FF2D54
S31508002BB003D154B1204603B030BD01AA064B19789B
S31508002BC0002009F0FEFB019CF3E709F060FE044BC8
S31508002BD01C6809F060FEEDE7D4100020F01D002007
S31508002BE0F41D002010B5044609F051FE024B1C6086
S31508002BF009F051FE002010BDF41D002010B582B06A
S31508002C000124009400231A461946184604F06CFE5F
S31508002C10009400231A461946184604F09FFE0348F6
S31508002C20FFF7E0FF002002B010BD00BF241000200F
S31508002C304161114B1B68CBB110B4002403E0891A1B
S31508002C4041611C469B6823B15A698A42F7D9002A12
S31508002C50F5D044B1A060836013B15A69521A5A611B
S31508002C605DF8044B7047044A1060F4E7024B18609D
S31508002C7000238360704700BF001E00200E4B1B68B0
S31508002C80002201E01A469B680BB18342FAD18342BF
S31508002C900ED14AB18368936083685BB15A6941690A
S31508002CA00A445A61002070478268034B1A60F3E7AA
S31508002CB00220704700207047001E00200A4B1B6840
S31508002CC000220A490A7005E0084B01221A7070476B
S31508002CD059690A44012A06D8D98811F0020FF3D196
S31508002CE09B68002BF4D17047001E00200C60002062
S31508002CF008B500F055F90B4B1B680B4A1268821A87
S31508002D0003E0521A002159619B683BB132B15969F7
S31508002D109142F6D3891A59610022F5E7024B1860E9
S31508002D2008BD00BF001E0020FC1D002010B50B4B7F
S31508002D301B685B695BB10A4A14681C4402200BF0E5
S31508002D4069F8204600F03AF9FFF7B8FF10BD0220EF
S31508002D500BF060F8022000F087F9F5E7001E002066
S31508002D60FC1D002010B509F099FD0446144B1B788C
S31508002D70DBB9144A1360144A1360144A138000F02E
S31508002D80D3F801200BF046F80BF072F80246104B08
S31508002D90186078B100230F4840F2E73106F0CEFEFE
S31508002DA00D4B1860064B01221A70204609F07CFD6F
S31508002DB0002010BD204609F077FD2320F9E700BF63
S31508002DC00D600020001E0020FC1D0020046000206D
S31508002DD0041E002018FCFFFFF81D00202DE9F8430B
S31508002DE0044610F0010F04D114F0020F10D1BDE80B
S31508002DF0F8834A4A13889BB201339BB21380FFF7C4
S31508002E0077FF474B1B68002BEED0FFF78FFFEBE7EA
S31508002E1009F044FD0546FFF76BFF00273E4643E0F1
S31508002E209B683BB15A692AB921791A799142F7D92F
S31508002E301C46F5E7284609F037FD2569002D3AD1E5
S31508002E400025A8462F46002D47D0236903B3FDB9B0
S31508002E50B8EB0707A38B6BB1E28B13449BB2E383F2
S31508002E60B3F57A7F06D3A3F57A73E383013FA369A3
S31508002E70013BA36109F012FD054639462046FFF7D6
S31508002E80D7FEA36922691344A361284609F00CFDFD
S31508002E90E7880136E36813B121682046984709F0A8
S31508002EA0FDFC0546FFF724FF1D4B1C68FCB1636952
S31508002EB0EBB92346B5E7A84600F072F8A369C71A26
S31508002EC0F917BD424FF000028A4104DA2269134419
S31508002ED0A3610125B7E70025B5E709F0DFFC8146C0
S31508002EE02046FFF7CBFE484609F0DEFCADE70D4B62
S31508002EF000221A70012E06D05CB1FFF717FF28468C
S31508002F0009F0D2FC73E717F0020FF5D001221A7008
S31508002F10F2E7022000F08CF8F1E700BF0460002019
S31508002F20001E00200B60002010B586B000248DF826
S31508002F30144001218DF804108DF805408DF80640DF
S31508002F400294039404943E20FDF712FE05A8FEF7AA
S31508002F509FF88DF8044001A92046FEF7B1F80F2125
S31508002F602046FEF7D9F80F212046FEF7DBF8FEF7D4
S31508002F7073F8094B5B6813F0010F03D0064BDB6946
S31508002F80002BF6D1044B00229A61044B0822C3F8A1
S31508002F9088219A6006B010BD00800A5000E100E062
S31508002FA0054B5B6813F0010F03D0034BDB69002B5D
S31508002FB0F6D1014B9869704700800A50F8B5044667
S31508002FC009F065FC0646FFF7EBFF05460AF01CFF0D
S31508002FD007460020FEF7ACF810F0020F04D17B1B61
S31508002FE0032B01D8BD420FD1631B022B00D8EC1C62
S31508002FF0B4F1FF3F2CBF2246621E00210846FEF7A9
S31508003000AFF802200AF006FF304609F044FC064BEA
S315080030101B783BB1054A936C43F001039364024B5A
S3150800302000221A70F8BD00BFD510002000800A5093
S3150800303008B510F0010F11D1002110F0020F09D0C8
S3150800304041F00201064B01221A70064A936C23F0DE
S31508003050010393640020FEF75FF808BD0121ECE741
S31508003060D510002000800A5010F0020F02D0024B43
S3150800307002221A64704700BF00900A50EFF30583D6
S315080030807BB9EFF3108313B9EFF311831BB1094B27
S315080030901B68022B08D0074B186840B901221A6032
S315080030A070476FF0050070476FF0050070474FF0E6
S315080030B0FF307047C823002008B500F0B3FF40B1C1
S315080030C00346022806D0044B1B68012B02D00023B6
S315080030D000E00323184608BDC8230020EFF3058344
S315080030E0C3B9EFF3108313B9EFF311831BB10E4B7A
S315080030F01B68022B11D00C4B1B68012B10D110B585
S3150800310000240A4BDC77084B02221A6000F032FDD5
S31508003110204610BD6FF0050070476FF00500704738
S315080031204FF0FF30704700BFC823002000ED00E0D5
S3150800313008B5EFF3058393B9EFF3108313B9EFF3EB
S3150800314011831BB10B4B1B68022B0BD000F06AFFD7
S3150800315058B102280BD100F049FD002009E06FF0B4
S31508003160050006E06FF0050003E0012001E04FF0DE
S31508003170FF3008BDC823002010B5EFF3058313BB45
S315080031800446EFF3108313B9EFF311831BB1144B05
S315080031901B68022B1AD000F045FF08B1022818D187
S315080031A0012C06D0C4B900F0B1FD012804D120468F
S315080031B010BD00F01BFDFAE700F034FF0228F6D038
S315080031C04FF0FF34F3E76FF00504F0E76FF00504FE
S315080031D0EDE74FF0FF34EAE74FF0FF34E7E700BFCB
S315080031E0C823002070B5EFF30583002B46D10446AB
S315080031F0EFF3108212B9EFF311821AB1244A12685A
S31508003200022A3ED004B1636813F0010600D00126F5
S3150800321013F0080F37D144B3A16811B1E3684F2BF7
S3150800322018D891B14FF0FF337BBB16B304200BF0CF
S31508003230A2F805461DB304B124682146284600F0C5
S3150800324069FBE6B145F0010519E0E3687BB14FF08B
S31508003250FF33E9E726B104200BF098F80546E9E7BD
S3150800326001200BF093F80546E4E70023DCE700238A
S31508003270DAE701200BF07FF80546DBE7002528464C
S3150800328070BD0025FBE70025F9E70025F7E700BF35
S31508003290C8230020EFF305822ABB10B503460C4667
S315080032A020F0010003F00101EFF3108212B9EFF3E9
S315080032B011821AB1154A1268022A17D0012B18D999
S315080032C041B121460BF001FA012815D0B4B16FF0CF
S315080032D0010012E021460BF063F9012811D094B1E0
S315080032E06FF0010009E06FF0050070476FF0050008
S315080032F003E06FF0030000E0002010BD6FF002004D
S31508003300FBE70020F9E76FF00200F6E7C823002084
S31508003310EFF305820ABB08B5034620F0010003F067
S315080033200101EFF3108212B9EFF311821AB1124AB2
S315080033301268022A14D0012B15D929B10BF035F8D9
S31508003340012813D1002008BD00231A4619460AF0A1
S315080033508CFF01280DD10020F5E76FF005007047B6
S315080033606FF00500EFE76FF00300ECE76FF002007F
S31508003370E9E76FF00200E6E7C8230020EFF30583CC
S31508003380B3B910B520F00104EFF3108313B9EFF3C6
S3150800339011831BB10B4B1B68022B0CD001280DD9CE
S315080033A0204600F0CBFA20460BF0DFF9002010BDCE
S315080033B06FF0050070476FF00500F8E76FF003003F
S315080033C0F5E700BFC823002070B582B0EFF3058388
S315080033D0002B52D10E461546EFF3108313B9EFF3BF
S315080033E011831BB12B4B1B68022B4AD000284AD0ED
S315080033F0B0424AD34DB1AC6814B1EB684F2B14D820
S31508003400002C44D1EB680BB138E0002301280ED01C
S315080034106BBB31460AF020FF04467CB305B12D6824
S315080034202946204600F076FA28E00123EEE7ABB9F4
S315080034300322002101200AF0E7FE0446F4B1002E1B
S31508003440EBD000231A46194620460AF00EFF01283B
S31508003450E3D020460BF089F900240FE0AB6803227D
S315080034600092002211460AF0BCFE0446E6E7AA6866
S3150800347031460AF0E3FE0446CFE70024204602B0B0
S3150800348070BD0024FAE70024F8E70024F6E70024D4
S31508003490F4E700BFC823002070B310B582B00C460D
S315080034A08446EFF305839BB9EFF3108313B9EFF363
S315080034B011831BB1174B1B68022B09D021466046A6
S315080034C00BF06EF8012820D00CB36FF0010011E064
S315080034D0ACB90021019101AA60460BF00CF901284C
S315080034E010D1019830B14FF0E0234FF08052C3F865
S315080034F0042D002002B010BD6FF0030070476FF076
S315080035000300F7E76FF00200F4E70020F2E76FF038
S315080035100200EFE7C823002070B300B583B08446E5
S31508003520EFF30583ABB9EFF3108313B9EFF3118308
S315080035301BB1164B1B68022B0BD000231A461946E3
S3150800354060460AF092FE01281CD1002003B05DF8FF
S3150800355004FB0023019301A960460AF078FF0128BD
S315080035600DD101980028F1D04FF0E0234FF080529A
S31508003570C3F8042D0020E9E76FF0030070476FF0E9
S315080035800200E3E76FF00200E0E700BFC82300206F
S31508003590034B0360034B0B60A0231360704700BF07
S315080035A068230020E8200020034B0360034B0B60D0
S315080035B0A0231360704700BF88200020081E002043
S315080035C000B583B000230193044B1B680AF00EFD77
S315080035D0019B002BFCD003B05DF804FB30100020E3
S315080035E04FF0E022002313619361054B1B680549E0
S315080035F0A1FB03139B09013B536107231361704722
S3150800360008100020D34D621008B50AF0EFFC044AF2
S31508003610136801331360BFF34F8FBFF36F8F08BD75
S315080036203010002008B5064B1A681A68013A1A6065
S315080036301B6803B108BD00200AF0E3FCFAE700BFE7
S315080036403010002010B44FF0807440F8044C40F855
S31508003650082C1F4A40F80C2C4FF0123240F8102C58
S315080036604FF0033240F8142C4FF0023240F8182C71
S315080036704FF0013240F81C2C40F8203C4FF0113333
S3150800368040F8243C4FF0103340F8283C4FF00933FB
S3150800369040F82C3C4FF0083340F8303C4FF00733E5
S315080036A040F8343C4FF0063340F8383C4FF00533C9
S315080036B040F83C3C4FF0043340F8403C6FF00203BE
S315080036C040F8443C40F8481C48385DF8044B7047BD
S315080036D0C135000810B54FF0E023D3F8202D42F489
S315080036E07F02C3F8202DD3F8202D42F07F42C3F87D
S315080036F0202DFFF775FF0024044B1C60FCF758FDCE
S3150800370000F080FBFFF75CFF204610BD301000205C
S31508003710124A12F0070F1ED0D11D21F00701C1F57C
S31508003720005313440A460E480260002141601344C0
S31508003730083B23F007030B48036059601960991A80
S3150800374051601360084B1960084B1960084B4FF01D
S3150800375000421A6070474FF40053E4E7EC23002058
S31508003760E4230020E0230020D8230020DC230020C7
S31508003770CC230020164B1A461B688342FBD351689C
S3150800378002EB010C844509D0416800EB010C634546
S3150800379009D00360904219D0106070474068014410
S315080037A051601046F0E710B40A4C2468A3420BD0C7
S315080037B05B681944416013681B680360904200D037
S315080037C010605DF8044B70470460F7E7704700BF68
S315080037D0E4230020E023002038B5044600F006FA6A
S315080037E0304B1B68DBB1304B1B681C424AD1631E49
S315080037F013F10A0F4BD804F1080214F0070F05D08D
S3150800380022F007030833934243D91A46002A42D0C6
S31508003810264B1B68934240D325490C6804E0FFF702
S3150800382077FFE0E721461C466368934202D2236885
S31508003830002BF7D11B4B1B68A34230D00D68083507
S3150800384023680B6063689B1A102B15D862681749A2
S315080038500B689B1A0B60174909688B4201D21549F8
S315080038600B60114B1B681343636000232360124AE5
S3150800387013680133136006E0A01843606260FFF71F
S3150800388079FFE3E7002500F041FA284638BD002510
S31508003890F9E70025F7E70025F5E70025F3E7002512
S315080038A0F1E700BFE0230020CC230020DC23002022
S315080038B0E4230020D8230020D423002018B338B5E9
S315080038C00446A0F1080550F8043C0F4A126850F85F
S315080038D0081C134200D001B138BD23EA020340F8A0
S315080038E0043C00F083F954F8041C084A13680B4496
S315080038F013602846FFF73EFF054A13680133136035
S3150800390000F004FAE8E77047CC230020DC23002007
S31508003910D02300200023092B0CD8074A52F833205D
S315080039200AB10133F7E7044A42F8331002EBC3023F
S3150800393050607047704700BFEC4300200023092BF6
S315080039400FD8084A02EBC3025268824201D00133FB
S31508003950F5E7044A002142F8331002EBC30251602E
S3150800396070477047EC430020074B1B681B6823B958
S31508003970064B4FF0FF321A607047034B1B68DB6833
S315080039801A68024B1A607047AC4400204444002071
S3150800399038B5002407E004EB840293000E48184467
S315080039A00AF0A8FA0134372CF5D90C4D28460AF046
S315080039B0A1FA0B4C20460AF09DFA0A480AF09AFA30
S315080039C009480AF097FA09480AF094FA084B1D6064
S315080039D0084B1C6038BD00BFD8440020C4440020F2
S315080039E0B04400209444002080440020684400200D
S315080039F0AC440020A844002010B50446FFF704FE96
S31508003A001E4A1368013313601D4B1B685BB11D4BBF
S31508003A101B686BB91A4B1B68DA6AE36A9A4207D8BD
S31508003A20174B1C6004E0164B1C601368012B1FD053
S31508003A30154A1368013313602364E06A134B1B6845
S31508003A40984201D9114B186000EB8000211D104BDC
S31508003A5003EB80000AF05CFAFFF7E4FD094B1B68EC
S31508003A602BB1074B1B68DA6AE36A9A4203D310BD87
S31508003A70FFF78EFFDCE70AF091FAF8E764440020C6
S31508003A803849002058440020484400205C4400205F
S31508003A90D84400200F4B1B68D3B110B5FFF7B4FD0F
S31508003AA00D4BDB68DC68201D0AF056FA0B4A1368D2
S31508003AB0013B1360074A1368013B1360FFF7B2FD29
S31508003AC020460AF0DCFE034B1B68002BE6D110BD2E
S31508003AD0704700BF7C4400208044002064440020D6
S31508003AE008B5FFF7D7FF034B1B68012BF9D90AF076
S31508003AF055FAF6E7D844002070B504460D46174B2C
S31508003B001E68174B186804300AF026FAB4F1FF3F0E
S31508003B100DD03444124B1B685C60A64210D9114B79
S31508003B2018680F4B196804310AF0FDF970BD002DAD
S31508003B30EFD00B4B196804310B480AF0E9F9F5E7A1
S31508003B400A4B1868064B196804310AF0ECF9084B59
S31508003B501B68A342EAD9064B1C60E7E760440020CD
S31508003B6038490020A844002068440020AC440020BE
S31508003B704444002010B588B000240594069407AA8A
S31508003B8006A905A8FFF704FD059B0293069B01936A
S31508003B9000942346079A0E490E480AF082FE0E4BF9
S31508003BA0186018B100F082FB012803D00B4B1B6884
S31508003BB008B010BD0AF01AFA094B4FF0FF321A6026
S31508003BC0084B01221A60084B1C60FFF783FDEDE7DE
S31508003BD044580108E13A0008404400203410002007
S31508003BE0444400205844002060440020024A1368D8
S31508003BF001331360704700BF3C440020014B18682E
S31508003C00704700BF60440020F8B5354B1B68002B91
S31508003C105FD1344B1E6801361E60AEB1324B1B684D
S31508003C20B3424CD90027314B1B68DB6A03EB83038D
S31508003C309A002F4B9B58012B00D901272D4B1B6847
S31508003C40002B4BD0012749E02B4B1A6812681968DC
S31508003C502A4A106818601160294A136801331360EC
S31508003C60FFF782FEDAE70127234B1B681B6843B37D
S31508003C70214B1B68DB68DC6863689E4226D3251DDA
S31508003C8028460AF069F9A36A1BB104F118000AF07C
S31508003C9063F9E36A1B4A1268934201D9194A136009
S31508003CA003EB83039A002946114810440AF030F9B9
S31508003CB0E26A0E4B1B68DB6A9A42D4D2D4E7002725
S31508003CC0D2E7094B4FF0FF321A60ACE7064A136099
S31508003CD0A9E70D4A13680133136000273846F8BD73
S31508003CE03C44002060440020444400203849002019
S31508003CF0D844002050440020AC440020A8440020AA
S31508003D004C4400205C4400205444002038B52B4C19
S31508003D102368FFF779FC2368013B23602368002B9F
S31508003D2047D1274B1B680BB9002443E00024254BD9
S31508003D301B681BB3234BDB68DC6804F118000AF028
S31508003D400BF9251D28460AF007F9E06A1E4B1B6881
S31508003D50984201D91C4B186000EB800029461B4B82
S31508003D6003EB80000AF0D4F8E26A194B1B68DB6A99
S31508003D709A42DCD3174B01221A60D8E70CB1FFF739
S31508003D80F3FD154B1C6844B9124B1C6894B10AF034
S31508003D9005F901240EE0013C07D0FFF735FF00289E
S31508003DA0F9D00C4B01221A60F5E70B4B00221A607A
S31508003DB0EAE70024FFF736FC204638BD3C440020DD
S31508003DC064440020944400205C440020D844002029
S31508003DD038490020504400205444002010B558B1FA
S31508003DE00446074B1B68FFF701FF00212046FFF733
S31508003DF083FEFFF78BFF08B90AF0D0F810BD00BFA5
S31508003E003C44002008B5294B1B681BB1284B0122EE
S31508003E101A6008BD264B00221A60264B1B681B6BCE
S31508003E201A68B2F1A53F03D15A68B2F1A53F08D086
S31508003E30204B1868196834310AF05BF81E4B1B686A
S31508003E4009E09A68B2F1A53FF2D1DB68B3F1A53F64
S31508003E50EED1F3E7013B03EB83018A0017498A5841
S31508003E60002AF7D0084603EB83018A00024451680A
S31508003E704968516003EB830C4FEA8C02083202440E
S31508003E8091420BD003EB830291000C4A0A44526814
S31508003E90D168084A1160084A1360BAE7486862465A
S31508003EA09100064A0A445060ECE700BF3C440020F3
S31508003EB050440020384900205C440020D8440020A3
S31508003EC010B50C46044B196818310AF02CF8012174
S31508003ED02046FFF711FE10BD3849002038B50D46BB
S31508003EE01446064B196818310AF012F80CB14FF04F
S31508003EF0FF3521462846FFF7FFFD38BD3849002023
S31508003F0038B5C368DC6804F1180528460AF024F8B1
S31508003F10134B1B68E3B9251D28460AF01DF8E06A0D
S31508003F20104B1B68984201D90E4B186000EB8000B5
S31508003F3029460D4B03EB800009F0EAFFE26A0B4BBA
S31508003F401B68DB6A9A4208D90120094B186038BDFC
S31508003F502946084809F0DCFFF0E70020F7E700BF2C
S31508003F603C4400205C440020D84400203849002006
S31508003F705044002094440020034B1B680360034B05
S31508003F801B684360704700BF4C4400206044002013
S31508003F90F8B504460D46FFF737FB134B19686368F7
S31508003FA0C81A2A68B2F1FF3F18D0104E366827683B
S31508003FB0B74205D08B4203D800232B6001240EE0BC
S31508003FC0824203D800232B60012408E05B1A1344BD
S31508003FD02B602046FFF7D0FF002400E00024FFF7FF
S31508003FE021FB2046F8BD00BF604400204C44002059
S31508003FF0014B01221A60704750440020012907DC52
S3150800400018B1143150F821007047024B1868F8E7C8
S315080040100020704738490020014B1868704700BFD8
S3150800402038490020054B1B6833B1054B1B680BB19B
S31508004030002070470220704701207047584400202E
S315080040403C44002000283ED038B50446C36A204ABE
S315080040501268D26A93422ED28269002A05DB1C4A6C
S315080040601268D26AC2F138028261616903EB83037E
S31508004070184A02EB8303994205D0154B1B68DB6A85
S31508004080E362012038BD251D284609F065FF104B5F
S315080040901B68D86AE062104B1B68984201D90E4B20
S315080040A0186000EB800029460A4B03EB800009F0F4
S315080040B02FFF0120E6E7826C054B1B68DB6A9A42F4
S315080040C003D30020DEE7002070470120DAE700BFAF
S315080040D038490020D84400205C44002030B338B565
S315080040E00446144B1B68C36C013BC364C16A826CEB
S315080040F091421DD00BB1002038BD051D284609F098
S315080041002BFFA06CE062C0F13803A3610A4B1B6861
S31508004110984201D9084B186000EB80002946074BE6
S3150800412003EB800009F0F4FE0120E5E70020704764
S315080041300020E1E7384900205C440020D8440020EC
S31508004140002831D038B50446836C8B4200D20B4622
S31508004150E26A9A4202D0E16C012900D038BD1349BF
S315080041600968E362A169002902DBC3F13803A36188
S31508004170616902EB82020E4B03EB82039942EDD191
S31508004180251D284609F0E8FEE06A0A4B1B68984296
S3150800419001D9084B186000EB80002946044B03EB55
S315080041A0800009F0B5FED9E7704700BF38490020FE
S315080041B0D84400205C440020054B1B6823B1044BFF
S315080041C01A68D36C0133D364014B1868704700BF73
S315080041D038490020064B1A6813682BB90123036077
S315080041E023B9D368186870470023F8E7002070479A
S315080041F03C4A002008B54160006191420CD8D21AA9
S3150800420083699A4201D3012008BD011D094B18682C
S3150800421009F089FE0020F7E79A4201D2994206D2B0
S31508004220011D054B186809F07EFE0020ECE7012009
S31508004230EAE700BF384A00203C4A002030B583B080
S31508004240FFF7E2F9114B1B681BB1FFF7EBF903B057
S3150800425030BD0F4D284609F04DFE0E4C204609F09C
S3150800426049FE0D4B1D600D4B1C60002300930C4B43
S315080042700C4A10210A2009F0B4FF044B18600028E4
S31508004280E3D00949FFF746FBDFE700BF344A0020C1
S31508004290544A0020404A00203C4A0020384A002060
S315080042A03C4900208C4900204C58010810B588B0BC
S315080042B0FFF7C4FF104B1B68D3B10024059406947E
S315080042C007AA06A905A8FFF76FF9059B0293069B9F
S315080042D00193282300932346079A084908480AF0B9
S315080042E0E0FA084B186008B1012002E0204600E019
S315080042F0002008B010BD00BF344A002054580108F9
S3150800430047E90008304A002010B584B09C46134B94
S315080043101C6804B3009101920290052913DCFFF78B
S3150800432081FE022807D000231A4669460B48006812
S3150800433009F09BFF0DE00023069A694607480068C6
S3150800434009F093FF05E000236246694620460AF015
S3150800435042F804B010BD0020FBE700BF344A002035
S3150800436070B582B0164B1B681A6812B3DB681E68F4
S31508004370DC68251D284609F0EFFD236A2046984784
S3150800438094F8283013F0040FECD0A36933449E4206
S3150800439007D2636024612946094B186809F0C3FDF2
S315080043A0E0E7002100910B4632462046FFF7ACFFB6
S315080043B0D8E7044A106802490860136002B070BD65
S315080043C03C4A0020384A002038B50546FFF716FC57
S315080043D00446074B1B68834205D800232B60044B11
S315080043E01C60204638BDFFF7BBFF01232B60F6E7AC
S315080043F02C4A002070B582B006460D461249096857
S31508004400C968CC68201D09F0A7FD94F828C01CF0DF
S31508004410040F08D12CF0010C84F828C0236A204622
S31508004420984702B070BDA16933462A4631442046F2
S31508004430FFF7E0FE0028F1D0002100910B46324636
S315080044402046FFF761FFE9E73C4A002070B582B0D5
S3150800445006460C46FFF7CAFB01A8FFF7B5FF019B06
S3150800446003BB05469CB9B0420AD22246711B0F4BC4
S3150800447018680AF086F9FFF749FC80B102B070BDEA
S31508004480FFF744FC29463046FFF7B4FFF6E7084A2B
S31508004490126812680AB90124E7E71C46E5E709F03D
S315080044A07DFDEBE7FFF732FCE8E700BF344A002062
S315080044B0384A002010B588B002E0049B002B0FDABA
S315080044C0002204A9334B186809F0F0FF00285FD0D2
S315080044D0049B002BF1DA07990698059B9847ECE7A9
S315080044E0069C636913B1201D09F036FD03A8FFF782
S315080044F06BFF049B092BE3D8DFE803F005050526C7
S315080045002D3C0505262D94F8283043F0010384F840
S315080045102830059BA169024619442046FFF76AFE22
S315080045200028CDD0236A2046984794F8283013F0FF
S31508004530040FC5D0A269002100910B4605980244D4
S315080045402046FFF7E1FEBBE794F8283023F0010385
S3150800455084F82830B4E794F8283043F0010384F847
S3150800456028300599A1610346024601442046FFF713
S3150800457041FEA5E794F8283013F0020F04D023F083
S31508004580010384F828309BE72046FFF797F997E759
S3150800459008B010BD344A002010B400F14101C9B278
S315080045A0304A1368434014686140DBB2C3F119030B
S315080045B0C3F30723DB43DBB2194000F1470C5FFA6C
S315080045C08CFC1368434014688CEA040CDBB2A3F134
S315080045D01A04C3F133031B0A43EA1423DBB2DB4391
S315080045E0DBB20CEA030C4CEA010C011FC9B21368D2
S315080045F0434014686140DBB2A3F13404C3F13D03C0
S315080046001B0A43EA1423DBB2DB43DBB219404CEA4C
S31508004610010113684340146884F02B0CDBB2A3F144
S315080046203E04C3F13E031B0A43EA1423DBB2DB4311
S31508004630DBB20CEA0303194313684340106880F0A1
S315080046402F00DBB2A3F13F02C3F13F031B0A43EA83
S315080046501223DBB2DB43DBB2184008435DF8044B98
S31508004660704700BF684A00202DE9F04F83B00090DC
S315080046700192DDF830B0BBF1000F1CD04248A0FB18
S315080046800B204FEA500A20F0010202EB5002BBEB66
S31508004690020218BF012202EB5002B2F1804F0DD27E
S315080046A0920001328A4210D8009971B10AEB4A0A7F
S315080046B0009E002735E00020106058E04FF0FF33D9
S315080046C0019A13606FF0290051E0019B1A606FF0A0
S315080046D029004CE01D785C7803F1030993F8028001
S315080046E0A808FFF759FF3070280100F0300000EBEA
S315080046F0141000F03F00FFF74FFF7070A00000F0A5
S315080047003C0000EB981000F03F00FFF745FFB07043
S31508004710341D08F03F00FFF73FFFF07003372646C9
S315080047204B465745D6D35F451BD21C7801375F45A4
S3150800473020D25D78A008FFF72FFF3070200100F027
S31508004740300000EB151000F03F00FFF725FF7070F2
S315080047505F4511D3F41C3D23B37026463D2306F866
S31508004760013B009BF31A019A13600020307003B0D6
S31508004770BDE8F08F0025DDE7A800F41C00F03C003A
S31508004780FFF70AFFB070E8E7ABAAAAAAF8B504468D
S315080047900F461546C9880AF039FB064608B1304661
S315080047A0F8BD144802686A405342520852421A43F6
S315080047B0D517B7F90430B4F90410006880EAE27036
S315080047C003EAE27321EA00021343A3802B46FA8820
S315080047D03968206800F080F8EB43FA8806E020681C
S315080047E050F82210194040F822100132E18891420F
S315080047F0F5D8D4E7684A002010B4124A136858401E
S315080048001368594081EA0004136883EAD473C3F134
S31508004810000C5B085B424CEA0303401A146884EAFE
S31508004820E37C01EAE37120EA0C000143136883EA9A
S31508004830D17358425B085B421843C0175DF8044BB6
S31508004840704700BF684A002038B50C461546014631
S315080048502068FFF7D1FFC0430A4B19684FF0010CD7
S315080048600CE054F82C30074A126853405A425B0849
S315080048705B42134341EAE3710CF1010CAC45F0D3FA
S31508004880084338BD684A00202DE9F84380460F469C
S315080048901646104BD3F800901A681D6815E006F105
S315080048A08044013C58F8241057F82400FFF7A4FF69
S315080048B0054357F8241058F82400FFF79DFF20EA0F
S315080048C0050349EA03090543013E002EE7D1484698
S315080048D0BDE8F883684A0020884219D04FF0000CDA
S315080048E0944514D230B50B4C246883EA040E51F86B
S315080048F02C401C4050F82C5025EA0E0E44EA0E04B3
S3150800490040F82C400CF1010C9445ECD330BD7047AF
S31508004910704700BF684A00202DE9F04F85B006466B
S31508004920039190461D46214B1A681B682946404646
S315080049300BF0FBF9814600F1070B4FEADB0ABBF1E6
S31508004940270F27D91E270F9B00930E9B52462946F1
S3150800495030460BF0F1FB029008BB2BF00702A2EBE6
S315080049600902294630460BF06BFA013F14D02A4655
S3150800497031460398FFF768FF04462A464146304603
S31508004980FFF782FF0440094B1B68A342DBD0DDF822
S3150800499008C006E0FA27D6E76FF00D0C01E0DDF84F
S315080049A008C0604605B0BDE8F08F00BF684A002021
S315080049B0F8B504460D468B6C0BB3B0F90430002BE2
S315080049C023DB20460AF015FBEB6BB0EB430F21D82F
S315080049D0AB6C20469847074668BBB4F90430002BF1
S315080049E01ADA002120460AF0DEFBA8B12A1D214664
S315080049F020460AF0C4FC07460028EED01BE00A1D34
S31508004A0001460AF047FF074615E000210AF0CBFBEE
S31508004A100028D6D0094F0EE02E1D314620460AF052
S31508004A206EFB002807DB3246214620460AF023FCA7
S31508004A3007460028F0D03846F8BD00BF80B0FFFF13
S31508004A402DE9F04F83B006468846012A2ED99146AD
S31508004A500821104609F021FA0746002800F0AE8022
S31508004A6068460AF0BDF9494638460BF0C1FBD8F846
S31508004A700010103138460AF03EFA0546002840F084
S31508004A808F8001244C4516D204F10052013A58F899
S31508004A902430103307EBC20207EBC40130460BF093
S31508004AA012FC054600287BD10134EBE709680BF0B8
S31508004AB05AFD05467EE009F10050013807EBC000B3
S31508004AC0321D01460AF0C7FF0546002868D109F1DC
S31508004AD0FF3449E0394668460AF00DFA05460028CB
S31508004AE05ED14FEA840A58F8241008316B460A4604
S31508004AF030460BF0E8FB0546002851D16B466A465E
S31508004B00694630460BF0DFFB0546002848D158F8C1
S31508004B100A106B460A4630460BF0D5FB05460028B8
S31508004B203ED158F80A1008316B460A4630460BF053
S31508004B30CAFB0546A0BB718958F80A000AF0A8F90D
S31508004B40054668BB58F80A00718908300AF0A0F9CA
S31508004B50054628BB58F80A00012110300AF007FA62
S31508004B600546E8B9E4B1013C002CB3D007EBC40A0A
S31508004B7004F10051013907EBC10B5B465246694601
S31508004B8030460BF0A0FB054650B958F824301033D0
S31508004B905246594630460BF096FB05460028A0D0EB
S31508004BA068460AF023F9494638460BF02DFB384685
S31508004BB009F083F9284603B0BDE8F08F004DF9E700
S31508004BC080B2FFFF2DE9F04385B004460E4617462E
S31508004BD098460D9D02A80AF003F968460AF000F9FE
S31508004BE03434002120460AF0E0F901282FD10021AB
S31508004BF030460AF0DAF9B0FA80F0400928703146F2
S31508004C0002A80AF078F9814648B168460AF0EEF833
S31508004C1002A80AF0EBF8484605B0BDE8F08332462C
S31508004C20214668460AF0B0FB81460028EDD12A786D
S31508004C30694602A8FFF7AAFD81460028E5D102AB1E
S31508004C409DF83020414638460BF03BFDDDE7DFF89E
S31508004C500490E0E780B0FFFFF0B585B004460F4644
S31508004C6015461E4602A80AF0BBF800962B46221DDA
S31508004C70022102A80AF0CBFE054640B102A80AF0B6
S31508004C80B5F815F10E0F31D0284605B0F0BD07F17D
S31508004C90100102AB0A4620460BF015FB0546002814
S31508004CA0ECD107F1080602AB3246314620460BF036
S31508004CB00AFB05460028E1D102AB1A4619462046EA
S31508004CC00BF001FB05460028D8D102AB3A46394617
S31508004CD020460BF0F8FA05460028CFD102AB32463B
S31508004CE0314620460BF0EFFA0546C7E7004DCBE7FD
S31508004CF000B3FFFF00B583B0844608460093134609
S31508004D00624601210AF083FE10F10E0F02D003B0AD
S31508004D105DF804FB0048FAE700B3FFFFF0B585B07D
S31508004D2007460C46002120460AF03DFA00282BDBF0
S31508004D3004F10805002128460AF035FA002823DB85
S31508004D403E1D314620460AF0DAF900281CDA3146BB
S31508004D5028460AF0D4F9002816DA02A80AF040F81C
S31508004D6068460AF03DF82B462A4602A938460BF053
S31508004D70AAFA054650B102A80AF038F868460AF0B9
S31508004D8035F8284605B0F0BD084DFAE722466946CB
S31508004D9038460BF0F2FC05460028ECD1694602A815
S31508004DA00AF0ADF90028E6D0004DE4E780B3FFFF2E
S31508004DB000487047685801082DE9F84F1D461B69D9
S31508004DC0002B00F0D78007460C46164601F1080A64
S31508004DD001F1100902F11008002140460AF0E3F932
S31508004DE0002850D005F1100B002158460AF0DBF9CF
S31508004DF000284ED0012158460AF0D5F9002840F07F
S31508004E00BB80434642460A9938460BF05CFA0028AE
S31508004E103DD10A9B03F1080B43460A9A5946384680
S31508004E200BF051FA98BB2B460A9A114638460BF0F6
S31508004E304AFA60BB05F108035A46594638460BF04C
S31508004E4042FA20BB33460A9A114638460BF01EFA38
S31508004E50E8B906F108052B465A46594638460BF076
S31508004E6015FAA0B900210A980AF09DF9D0B90021CF
S31508004E7058460AF098F988B90A9B324621463846B8
S31508004E800BF04AFA03E0294620460BF04CFDBDE834
S31508004E90F88F314620460BF046FDF8E720460BF022
S31508004EA05CFDF4E70A9B4246494638460BF00BFA86
S31508004EB00028ECD10A9B03F110081A4641463846E9
S31508004EC00BF001FA0028E2D10A9B03F118094246C1
S31508004ED0494638460BF0F7F90028D8D133464246FA
S31508004EE0414638460BF0EFF90028D0D141460A98DA
S31508004EF00AF001F80028CAD101220A9938460BF0AF
S31508004F00F1F90028C3D15B465A46214638460BF0CC
S31508004F10DAF90028BBD10A9B2246214638460BF00F
S31508004F20B5F90028B3D14B462246214638460BF040
S31508004F30ADF90028ABD123464246414638460BF028
S31508004F40A5F90028A3D15B464246414638460BF0F0
S31508004F50BAF900289BD12B464A46494638460BF0F3
S31508004F60B2F9002893D14B464246514638460BF0D3
S31508004F708DF98CE701488AE7004888E780B0FFFF8B
S31508004F802DE9F04F89B081468B4607929A46002153
S31508004F900BF017F98046431E01259D40EDB2D9F85E
S31508004FA040700744013FB7FBF0F71821284608F080
S31508004FB074FF064678B3002407E004EB440006EBCA
S31508004FC0C0000BF022FC0134E4B2AC42F5D3149BCA
S31508004FD00193009743465246314648460BF0D5FCA6
S31508004FE0044630B1D9F85830B34223D016B3002757
S31508004FF01BE0149B0593139B0493129B0393029740
S31508005000CDF8048000953346079A594648460BF072
S31508005010B8FD0446E6E70C4CE4E707EB470006EB69
S31508005020C0000BF02DFC0137FFB2AF42F5D3304676
S3150800503008F043FF1CB9204609B0BDE8F08F584672
S315080050400BF01EFCF7E700BF80B2FFFF2DE9F04129
S31508005050012A53D804460E4617461D46043009F061
S31508005060CEFF804620460BF0C6FB012848D100211A
S3150800507006F110000AF097F8044650B9079B002B72
S3150800508040D00023069A137001232B602046BDE802
S31508005090F081E7B94FEA480301332B60079A934238
S315080050A032D80699042301F8013B4246304609F0F6
S315080050B0C1FF04460028E9D108F101014246069BD2
S315080050C0194406F1080009F0B5FF0446DEE7012F8A
S315080050D01CD108F101032B60079A934218D80021C6
S315080050E006F1080009F061FF0230069901F8010B84
S315080050F04246304609F09EFF0446C7E7054CC5E719
S31508005100054CC3E7054CC1E7044CBFE7024CBDE7B5
S31508005110024CBBE780B0FFFF80B1FFFF00B1FFFF85
S31508005120B3B32DE9F0410446884615461F460430B8
S3150800513009F065FF064620460BF05DFB012829D1DC
S315080051402B7833B9012F27D140460BF006FCBDE872
S31508005150F081741CBC4221D83246691C404609F0CD
S3150800516054FF0028F3D1012108F1100009F0FFFED1
S315080051700028ECD12B78042B12D173000133BB42E3
S3150800518010D13246291908F1080009F03EFFDEE77A
S31508005190054870470548DAE70348D8E70248D6E7DE
S315080051A00148D4E70048D2E780B0FFFF80B1FFFF8F
S315080051B038B505460C46012104F1100009F0F3FF45
S315080051C048B928460BF017FB012806D12146284680
S315080051D0FFF7A4FD38BD0248FCE70248FAE700BF1E
S315080051E080B3FFFF80B0FFFF38B505460C460BF0CD
S315080051F002FB012810D10121204609F0D4FF00281E
S3150800520008DB05F13401204609F079FF002801DAA8
S31508005210002038BD0148FCE70148FAE780B3FFFFE4
S3150800522080B0FFFFF0B585B006460F4614461D460A
S315080052301146FFF7D9FF024610B1104605B0F0BD7A
S3150800524029463046FFF7B4FF02460028F5D1304616
S315080052500BF0D1FA01280DD10C9B02930B9B0193FD
S315080052600A9B00932B46224639463046FFF788FEAE
S315080052700246E2E7004AE0E780B0FFFF30B585B0B6
S31508005280089C44B10A9D0295099D01950094FFF773
S31508005290C9FF05B030BD0148FBE700BF80B0FFFF7E
S315080052A0F8B504460D4616461F460BF0A4FA012823
S315080052B007D13B463246294604F13400FFF71AFD6A
S315080052C0F8BD0148FCE700BF80B0FFFF70B5044693
S315080052D00D4616460BF08FFA012806D132462946A6
S315080052E004F1600009F0A6FE70BD0148FCE700BFA6
S315080052F080B1FFFF70B50446043001252581C2F34D
S315080053008F026281616033B11A462582049BC3F31A
S315080053108F036382E26001252583069BC3F38F030F
S315080053206383059B636104F1340625870C9BC3F3ED
S315080053308F0363870B9B63632584089BC3F38F03E3
S315080053406384079BE36125850A9BC3F38F03638503
S31508005350099B636225866586074BE36209F049FE69
S31508005360E063304609F045FE206465640D9BA3653D
S315080053700020E06570BD00BF3810002030B58BB046
S3150800538004460D460BF08BFA20460BF04BFA2570B7
S31508005390032D15D100230993202208920A49079163
S315080053A006920A490591049209490391029209490C
S315080053B00191009308492046FFF79CFF0BB030BDCA
S315080053C0002323700548F9E780580108A05801080A
S315080053D0C0580108E05801080059010880B1FFFFCC
S315080053E0082803D0092803D10248704702487047A5
S315080053F000207047205901082459010800B586463F
S31508005400002303606FF067000B6893421CD21B7879
S315080054102F2B19D9392B17D8DEF800300B488342C1
S3150800542010D803EB83035B00CEF80030086890F8C9
S3150800543000C06344303BCEF800300B6801330B6084
S315080054400020E1E76FF067005DF804FB9999991968
S3150800545030B40B4C00E01434256865B194F811C0DB
S315080054608445F8D194F810C08C45F4D1156062686B
S315080054701A60002001E06FF02D0030BC704700BFB5
S315080054804062010810B4094B00E014331C6844B1AB
S3150800549093F810C08445F8D10C605B68136000204F
S315080054A001E06FF02D005DF8044B7047F0610108CC
S315080054B010B4094B00E014331C6844B193F810C0CB
S315080054C08445F8D10C605B681360002001E06FF03A
S315080054D02D005DF8044B7047C86101082DE9F04FAF
S315080054E085B005460F4616469B46DDF83880DDF83A
S315080054F03CA00093134603AA00210846FFF7B4F818
