S01C00006275696C642F64656275672F67656E657261746F722E7333379C
S315080000000010002029240008B5DB0008B5DB00082D
S31508000010B5DB0008B5DB0008B5DB0008B5DB000872
S31508000020B5DB0008B5DB0008B5DB0008510200089F
S31508000030B5DB000824590108E10100080FF600089D
S31508000040B5DB0008B5DB0008B5DB0008B5DB000842
S31508000050B5DB0008B5DB0008B5DB0008B5DB000832
S31508000060B5DB0008B5DB0008B5DB0008B5DB000822
S31508000070B5DB0008B5DB0008B5DB0008B5DB000812
S31508000080B5DB0008B5DB0008B5DB0008B5DB000802
S31508000090B5DB0008B5DB0008B5DB0008B5DB0008F2
S315080000A0B5DB0008B5DB0008B5DB0008B5DB0008E2
S315080000B0B5DB0008B5DB0008B5DB0008B5DB0008D2
S315080000C0B5DB0008B5DB0008B5DB0008B5DB0008C2
S315080000D0B5DB0008B5DB0008B5DB0008B5DB0008B2
S315080000E0B5DB0008B5DB0008B5DB0008B5DB0008A2
S315080000F0B5DB0008B5DB0008B5DB0008B5DB000892
S31508000100B5DB0008B5DB0008B5DB0008B5DB000881
S31508000110B5DB0008B5DB0008B5DB0008B5DB000871
S31508000120B5DB0008B5DB0008B5DB0008B5DB000861
S31508000130B5DB0008B5DB0008B5DB0008B5DB000851
S31508000140B5DB00088D320008B5DB000871F500083C
S31508000150B5DB0008B5DB0008B5DB0008B5DB000831
S31508000160B5DB0008B5DB0008B5DB0008B5DB000821
S315080001700B4A1168086806C881F30B88022181F3C7
S315080001801488203080F30988BFF36F8F4FF0000082
S3150800019080F31188104700BFAFF30080AFF30080EB
S315080001A0E8550020000000000000000000000000E4
S315080001B007480068006880F3088862B661B6BFF32E
S315080001C04F8FBFF36F8F02DF00BF00BFAFF3008012
S315080001D008ED00E00000000000000000000000003C
S315080001E0EFF309801EF0100F08BF20ED108AEFF319
S315080001F00B82734620E9FC0F114A116808604FF01C
S31508000200300080F31188BFF34F8FBFF36F8F05F06F
S3150800021037FC4FF0000080F31188094A1168086816
S31508000220B0E8FC0F13F0100F08BFB0EC108A82F389
S315080002300B8880F309881847AFF30080AFF3008076
S31508000240E855002000000000000000000000000043
S315080002501EF0040F0CBFEFF30880EFF30980044982
S31508000260084700BFAFF30080AFF30080AFF300800C
S3150800027011F700080348044B834202D0034B03B12D
S31508000280184770477C1B00207C1B002000000000DC
S31508000290064B0749C91A891048BF0131491003D0CE
S315080002A0044B0BB101481847704700BF7C1B002060
S315080002B07C1B00200000000010B5064C237843B9CB
S315080002C0FFF7D8FF044B13B10448AFF300800123AE
S315080002D0237010BD02600020000000000C690108B0
S315080002E008B5054B1BB105490548AFF30080BDE8C5
S315080002F00840FFF7CDBF00BF00000000E01B00204C
S315080003000C690108A3F5803A704700BF174B002B0C
S3150800031008BF134B9D46FFF7F5FF00218B460F4696
S315080003201348144A121A13F0FFFF0E4B002B00D085
S3150800033098470D4B002B00D0984700200021040059
S315080003400D000D48002802D00C48AFF3008009F0D4
S31508000350F5FD2000290013F0EFFE09F097FB00BF1A
S315080003600000080000000000000000000010002047
S315080003707C1B002010600020000000000000000028
S3150800038010B58CB004460BF04CFE2422002103A8BD
S3150800039013F0CAFF05940123049347F2121103A828
S315080003A00BF01BFE4FF48073ADF80E300E4B07931F
S315080003B04FF47053019301A80BF000FE019B0693BE
S315080003C00EF05BFA000240F00100049010F0FF0FF7
S315080003D001D1002305930023029302A903A813F071
S315080003E00AF80CB010BD00BF0906000670B58CB03F
S315080003F006460C4615460BF014FE2422002103A8D7
S3150800040013F092FF05960123049347F2121103A8ED
S315080004100BF0E3FD4FF48073ADF80E30114B0793E4
S315080004204FF47053019301A80BF0C8FD019B069386
S315080004300EF023FA000240F00100049010F0FF0FBE
S3150800044001D1002305930023029302AB2A462146D5
S3150800045003A812F05CFD044603A813F080F82046B2
S315080004600CB070BD0906000600B587B09446059124
S315080004700390084B029300220192009213466144AE
S3150800048005A80FF061FE18B1AC2007B05DF804FBB3
S315080004900020FAE749C000082DE9F041BEB01C4625
S315080004A0449D2B6853B10746884616466B68B3F5D4
S315080004B0007F05D22F203EB0BDE8F0812F20FAE755
S315080004C012A813F0A2FD002102913C2203A813F002
S315080004D02BFF63687BB10196CDF800802368214A1B
S315080004E0402102A809F08EFB02A912A813F0A5FD67
S315080004F048B1AC20DFE7009643461B4A402102A8D4
S3150800050009F080FBF0E7092112A813F092FD38687C
S31508000510FFF736FF16A812F08BF8396816A806F00A
S31508000520A3FE08B1AC20C6E716A912A813F083FDEE
S31508000530002300936A68296812A808F01FFF08B10B
S31508000540AC20B8E7286813F031FF01306A6890429A
S3150800055005D8686012A813F05EFD0020ABE713F01B
S3150800056020FE00BFC0520108DC52010870B598B0E1
S3150800057005460C461646002106913C2207A813F0AC
S31508000580D3FE4023059305A90291019306AB009378
S31508000590636822680949286812F010FE10B1AC2079
S315080005A018B070BD06AB1693059B1793324618AB69
S315080005B013E903000BF01BFDF2E700BF090600066E
S315080005C008B5044800680EF08BFF08B1AE2008BDD8
S315080005D00020FCE72010002008B5034B18680EF031
S315080005E06CFF002008BD00BF20100020114AC0F88B
S315080005F0B820114AC0F8B8201049C0F8B010C0F8A1
S31508000600B0200F4A026002F19801416002F1E00150
S31508000610816002F58672C2600A4AC0F8A8200A4AB2
S31508000620C0F8A8200949C1600949816009494160A3
S315080006300260704704540108DC530108F0530108AE
S31508000640B4550108F45601080C530108B8530108BB
S315080006508C5301084453010838B50446134D056008
S31508000660134B4360134B8360134BC360134B0360F8
S3150800067003F19802426003F1E002826003F5867393
S31508000680C3600021018241828182C1828161C16188
S31508000690016241628022283013F046FEC4F8A85051
S315080006A0074BC4F8A830204638BD00BF0C530108D4
S315080006B0445301088C530108B8530108B45501087E
S315080006C0F456010810B50446FFF7C6FF094BC4F8EF
S315080006D0B030C4F8B440084AC4F8B020C4F8B830FA
S315080006E0C4F8BC40054BC4F8B830012384F8C030C0
S315080006F0204610BDDC530108F053010804540108D4
S31508000700012800D070474FF6FF739942FAD110B509
S31508000710044C2046FFF7D6FF034A0449204613F047
S3150800072037FD10BDF81B002000100020ED0500085D
S3150800073070B586B006460024059403E0059B1C4464
S315080007400023059306F1AC0505ABC4F50072104904
S3150800075021442846FFF734FF0028EFD01CB996F845
S31508000760C00006B070BD0A4B01930294094B03936F
S315080007704FF40073049303AA01A930460CF0B2F8AB
S3150800078086F8C000049A03992846FFF725FFE6E78E
S31508000790BC1E0020BC1C002000487047F81B002027
S315080007A0024A0260024A0260704700BFF05301081D
S315080007B0DC53010810B50446044B0360044B036080
S315080007C0082113F0EAFC204610BD00BFF0530108CB
S315080007D0DC53010870B584B006460C46154600235E
S315080007E08DF80F3002938DF8073000930DF10F0145
S315080007F020460BF0CDFE08B104B070BD9DF80F3051
S31508000800013BDBB2032B01D92F20F5E702A92046CD
S315080008100BF0F0FE0028EFD10DF1070120460BF092
S31508000820B7FE0028E8D16B464FF4007227492046E8
S315080008300BF0F9FE0028DFD19DF80F30013B032BA2
S3150800084041D8DFE803F0021F2A3570680368DC6ABE
S31508000850009B1E4A4FF4CB71A0470028CCD1706884
S315080008600CF05FFF0028C7D1029928460BF06EFEF0
S31508000870002128460BF06AFE009928460BF066FE12
S315080008800020B9E770680368DC6A009B0F4A40F2EB
S315080008909511A0470028E2D0AEE770680368DC6AC5
S315080008A0009B0A4A40F29311A0470028D7D0A3E735
S315080008B070680368DC6A009B044A4FF4C171A0475C
S315080008C00028CCD098E72F2096E700BF30260020D6
S315080008D0F0B585B006460C4615460023ADF80E3031
S315080008E08DF80D30A26821688A4240F28880521A33
S315080008F0E368994280F085805B1A9A4200F083800B
S315080009000DF10E0120460BF05CFE00287CD10DF19E
S315080009100D0120460BF03CFE002875D1BDF80E10DF
S3150800092028460BF006FE00286ED19DF80D102846C5
S315080009300BF0F2FD002867D19DF80D30013B032B23
S315080009405BD8DFE803F002182E4100238DF8083043
S3150800095070680368DB6802AABDF80E109847D828A5
S3150800096001D0002850D19DF8081028460BF0D4FD78
S315080009700028B7D048E00023ADF80830706803684F
S315080009805B6902AABDF80E109847D82801D000283E
S315080009903AD1BDF8081028460BF0CBFD0028A1D0A7
S315080009A032E00023029370680368DB6902AABDF887
S315080009B00E109847D82800D030BB029928460BF06D
S315080009C0C5FD00288ED01FE00023029370680368D7
S315080009D002AA00929F6A4FF400730C4ABDF80E10E3
S315080009E0B847D82800D078B9029A084928460BF0A3
S315080009F0BAFD00283FF476AF06E0262004E0002280
S31508000A0076E7002379E7002005B0F0BD3026002000
S31508000A10014B0360704700BF18540108024A026080
S31508000A20024A0260704700BFB8540108185401080A
S31508000A30024A0260024A0260704700BF90540108E9
S31508000A4018540108024A0260024A0260704700BF51
S31508000A506854010818540108024A0260024A0260F2
S31508000A60704700BF4054010818540108024A026042
S31508000A70024A0260704700BF04540108DC530108AB
S31508000A8010B50446044B0360044B0360142113F0AD
S31508000A9084FB204610BD00BF4054010818540108C5
S31508000AA010B50446034B03600C2113F076FB204671
S31508000AB010BD00BF1854010810B50446044B036066
S31508000AC0044B03600C2113F068FB204610BD00BFE1
S31508000AD0685401081854010810B50446044B03600D
S31508000AE0044B03600C2113F058FB204610BD00BFD1
S31508000AF0905401081854010810B50446044B0360C5
S31508000B00044B03600C2113F048FB204610BD00BFC0
S31508000B10B85401081854010810B50446044B03607C
S31508000B20044B0360082113F038FB204610BD00BFB4
S31508000B3004540108DC53010870B584B00C46154608
S31508000B40CB783BB18068A378032B6DD8DFE803F038
S31508000B504F051E378068A830F5E700238DF80C305E
S31508000B600368DB6803AA218898470346D82800D07B
S31508000B7040B9D82B08D003A92A4620880BF0E3FDF4
S31508000B8000B9002004B070BD0021F5E70023ADF8D8
S31508000B900C3003685B6903AA218898470346D8285E
S31508000BA001D00028EED1D82B07D003A92A462088E1
S31508000BB00BF0DEFD0028E4D0E4E70021F6E7002389
S31508000BC003930368DB6903AA218898470346D82854
S31508000BD001D00028D6D1D82B07D003A92A462088C9
S31508000BE00BF0DCFD0028CCD0CCE70021F6E700238B
S31508000BF00393036803AA00929E6A4FF400730B4A94
S31508000C002188B0470346D82801D00028BAD1D82B66
S31508000C1008D006492B46039A20880BF0D5FD0028F4
S31508000C20AFD0AFE70021F5E72620ABE73026002056
S31508000C3038B505460C46A26821688A4219D9521A5F
S31508000C40E368994217D25B1A9A4216D00D49204694
S31508000C500BF0D1FD0D2800D098B90028EBD12B68F0
S31508000C609B6908492846984758B906480CF0C5F9BB
S31508000C70E1E70022E4E70023E6E72B689B682846BD
S31508000C80984738BDF4210020012800D0704708B5E0
S31508000C904FF6FF73994200D008BD4FF40172084918
S31508000CA008480CF0C0F94FF40272074907480CF0DF
S31508000CB0BAF9074B0022C3F80021C3F80421EBE771
S31508000CC02C240020F421002024220020C421002006
S31508000CD0BC20002008B54B8AB3F5817F15D007D80C
S31508000CE040F20112934213D1CB6AC360002008BDBB
S31508000CF0A3F2031292B2012A0AD80A7D19460548B8
S31508000D000CF0ADF90028F1D0F1E7CB6A0361EDE705
S31508000D10A620ECE7BC20002070B50C4691F82630DA
S31508000D2053B1856894F827304BB9237D032B42D8F5
S31508000D30DFE803F0340D1A278568A835F2E7227D27
S31508000D40618A1E480CF08BF90028EED00BE02B6860
S31508000D509B68618A94F8242012B904F12C0200E0F9
S31508000D6000222846984770BD2B681B69618A94F84B
S31508000D70242012B904F12C0200E0002228469847E4
S31508000D80F1E72B689B69618A94F8242012B904F16B
S31508000D902C0200E0002228469847E4E72B68DE6A22
S31508000DA0618A94F824300BB9E26A00E00022A3694C
S31508000DB02846B047D7E72620D5E700BFBC20002045
S31508000DC008B50A7D498A02480CF049F908BD00BFF2
S31508000DD0BC20002030B587B005460C464B6809682C
S31508000DE0994201D25B1A00E00023A268914201D21F
S31508000DF0521A00E00022981A9A4243D03B4B9A684E
S31508000E001968914214D2521A384BDB68994211D2AA
S31508000E105B1AD11A9A4235D00290039188420BD8B0
S31508000E2002AB1A68314920460BF0F3F950B35AE081
S31508000E300022E9E70023ECE703ABF2E7002052E0E3
S31508000E400346A268914201D2521A00E002469B1A52
S31508000E500493264A91681268914200D9881A234950
S31508000E60C9688A4201D2A1EB020CA0EB0C000590DE
S31508000E7098422ED304AB1A681C4920460BF0C9F9D0
S31508000E80002830D1626821688A4224D9521AA36898
S31508000E90994222D25B1A9A4221D0154BD3F80431D3
S31508000EA0EBB1124B1A68DA609A6001A910480CF087
S31508000EB005F9D828C2D02B68DB690C4A01A928464F
S31508000EC09847844678B9636821688B42B8D95B1A13
S31508000ED0B7E705ABCFE70022D9E70023DBE72B68A6
S31508000EE0DB682846984707B030BD00BFC4210020FC
S31508000EF0BC20002038B504460A4B03600123037161
S31508000F008160094B03600025C560056107480CF040
S31508000F1074F8074B1A68DA609A60064BC3F80451EE
S31508000F20204638BD1854010840540108F421002011
S31508000F30C4210020BC20002010B50446074B0360DE
S31508000F40012303718160064B0360002240F20511FC
S31508000F5004480CF084F8204610BD00BF1854010858
S31508000F6068540108BC2000202DE9F0419AB01446C7
S31508000F7000238DF867308DF866308DF865304B683C
S31508000F80052B42D8192700252368159303F1080273
S31508000F9016921793189300230D930E930F9310939D
S31508000FA01193129313931493022115A80BF07BF84F
S31508000FB09DF8661041F0800115A80BF074F89DF8AD
S31508000FC0651015A80BF06FF8394615A80BF0A6F8AA
S31508000FD0294615A80BF067F805F10A0362689342DB
S31508000FE000F29E80636008350DAA2946206800F045
S31508000FF0D7FF2368BDF834205A539DF86600023897
S3150800100018BF01201AB0BDE8F08106460D460A68E9
S31508001010023B009213440193029303920DF1670178
S3150800102068460BF07CF9074608B10025ACE70DF1D8
S31508001030660168460BF073F907460028F5D10DF1ED
S31508001040650168460BF06BF9074680460028ECD127
S315080010506B68802B14D863687F2B13D9236803F138
S31508001060080204927E330593069207929DF866302D
S31508001070013B042B52D8DFE803F007152D3F1E006D
S31508001080C227D2E71927D0E7716808A8FFF732FF09
S3150800109004AA694608A80CF02AF80746214B0893C3
S315080010A0214B0893069A049B9A4201D9A2EB03089E
S315080010B05FFA88F568E7716808A8FFF73DFF04AA94
S315080010C0694608A80CF013F80746184B0893164B00
S315080010D00893E7E77368144D089503228DF82420D2
S315080010E00A93134E089604AA694608A80BF0FFFF50
S315080010F0074608960895D5E773680B4D08950422A8
S315080011008DF824200A930B4E089604AA694608A867
S315080011100BF0EDFF074608960895C3E72A27C1E7AF
S3150800112013F03FF8405401081854010868540108A0
S3150800113090540108B85401080C4A026002F198015B
S31508001140416002F1E001816002F58672C260084AD8
S31508001150C0F8A820074AC0F8A8200749C16007496F
S315080011608160074941600260704700BFB4550108B5
S31508001170F45601080C530108B85301088C530108AA
S3150800118044530108A0F10400D6E7A0F10800D3E70C
S31508001190A0F10C00D0E700BF08B540F263139942EE
S315080011A008D040F2971399421CD0B1F5B17F12D0FE
S315080011B0A62014E02AB11168B1F57A7F03D22F2050
S315080011C00DE02F200BE00B4B994201D92F2006E0AA
S315080011D000F0B6FD03E01AB113680362002008BDEB
S315080011E00023FAE71AB1136843620020F7E70023E1
S315080011F0FAE700BFA0860100F0B587B00F4616468D
S315080012001D46002403940494CDF8134002940194D7
S3150800121002AB0B2203A900F043FD044618B9029B52
S315080012200A2B08D02F241CB140F201239C4229D155
S31508001230204607B0F0BD0A2201A903A808F038FE27
S315080012403880019A04AB9A4201D02F24EBE70A2290
S3150800125001A90DF1110008F02BFE3070019A0DF16D
S3150800126013039A4201D02F24DDE70A2201A905A813
S3150800127008F01EFE2870019A0DF116039A42D2D084
S315080012802F24D0E701200CF035FC0028D0D003AB82
S31508001290024A01211F200CF01FFCC9E7D854010897
S315080012A030B587B00C460023059305AB4A68096834
S315080012B000F006FD40F20123984208D028B9059BA4
S315080012C0626893421BD86360002007B030BD0D4B9F
S315080012D00DF1040C0FCB8CE80F0063680F2B01D8B7
S315080012E01920F2E725680DF1040CBCE80F00286008
S315080012F06960AA60EB60102305930020DEE712F010
S3150800130050FF00BFDC56010870B596B004460E467D
S3150800131000250A952A2229460BA813F005F80995EF
S3150800132009AB2E220AA9204600F02CFD40F2012323
S31508001330984202D068B116B070BD182309930AAC5A
S31508001340144D0FCD0FC495E8030084E80300002070
S31508001350F0E70023019302930393049305930693FE
S315080013600793089301AA09990AA800F02FFE0446D4
S315080013707368984201D91920DDE7024601A9306849
S3150800138013F007F873689C4202D874600020D2E70D
S3150800139012F007FFF85401084B68602B01D8192092
S315080013A07047F0B5A5B005460C46164600270297C5
S315080013B08222394603A812F0B7FF019701AB8622AD
S315080013C002A9284600F0EEFC40F20123984202D01A
S315080013D048B125B0F0BD842201920A4902A812F04C
S315080013E0D8FF3846F4E72268019902A800F0EEFD16
S315080013F030606368984202D860600020E9E712F01E
S31508001400D0FE00BF1455010810B504460E4B036004
S3150800141003F19802426003F1E002826003F58673E5
S31508001420C3600A4BC0F8A830094BC0F8A830094A6F
S31508001430C260094A8260094A42600360AC2112F020
S31508001440ACFE204610BD00BFB4550108F45601088D
S315080014500C530108B85301088C530108445301087A
S31508001460A0F10400D0E7A0F10800CDE7A0F10C0038
S31508001470CAE700BF60B5A3B0064610461D46A1F2EE
S315080014801111912900F2E281DFE811F09200E001E2
S31508001490E001E001E001E001E001E001E001E00136
S315080014A0E001E001E001E001E001E001E001E00126
S315080014B0E001E001E001E001E001E001E001E00116
S315080014C0E001E001E001E001E001E001E001E00106
S315080014D0E001E001E001E001E001E001E001E001F6
S315080014E0E001E001E001E001E001E0019800E0012F
S315080014F0A600E001B400C200D000DE00E001E00171
S31508001500E001E001E001E001E001E001E001EC00BA
S3150800151009011701E001E001E001E001E001E00155
S31508001520E001E001E001E001E001E001E001E001A5
S31508001530E001470151015701E001E001E001E00146
S31508001540E001E001E001E001E001E001E001E00185
S31508001550E001E001E001E001E001E001E001E00175
S31508001560E001E001E001E001E001E00176018A0125
S31508001570E001E001E001E001E001E001E001E00155
S31508001580E001E001E001E001E001E001E001E00145
S315080015909601E001A201AE01E001E001E001E001EF
S315080015A0E001E001E001E001E001E001BA01D80153
S315080015B02A460146304600F0BDFC48E102B12DB985
S315080015C000229B49304600F069FA40E12A46014666
S315080015D0304600F063FA3AE102B12DB90022944987
S315080015E0304600F08BFA32E12A460146304600F0D2
S315080015F085FA2CE102B12DB900228D49304600F05A
S31508001600ADFA24E12A460146304600F0A7FA1EE163
S3150800161002B12DB900228649304600F0B5FA16E126
S315080016202A460146304600F0AFFA10E102B12DB95C
S3150800163000227F49304600F0BDFA08E12A460146F5
S31508001640304600F0B7FA02E102B12DB90022784916
S31508001650304600F0C5FAFAE02A460146304600F060
S31508001660BFFAF4E002B1A5B9002309930A930B93D4
S315080016700C930D930E930F931093B38A6D4A202102
S3150800168009A808F0BFFA024609A9304600F0D6FABA
S31508001690DDE02A460146304600F0D0FAD7E002B12E
S315080016A02DB90A226449304600F0F2FACFE02A46FC
S315080016B00146304600F0ECFAC9E002B1EDB9102156
S315080016C005A80CF091F802230093212309AA1021FA
S315080016D005A80CF0B7F9002840F0B98009A812F05F
S315080016E065FE129020231393984214D812AB1A68F9
S315080016F009A9304600F0DCFAA9E0102D01D92F20FF
S31508001700A5E002230093212309AA29460CF09AF999
S315080017100028E3D09BE013ABE9E702B10DB92F200F
S3150800172095E02A460146304600F024FB8FE02A461B
S315080017300146304600F02EFB89E002B1B5B9002318
S3150800174009930A93CDF82B30F38A326A02920193F1
S31508001750F3690093B369728A318A09A80BF047FFC7
S315080017600B2209A9304600F0F5FB70E02A4601462F
S31508001770304600F0EFFB6AE002B155B900238DF858
S31508001780243009AA1492159314A930460CF00BF8C4
S315080017905DE01692179516A930460CF004F856E047
S315080017A01892199522B118A9304600F003FB4EE0AD
S315080017B0002DF8D012F0F5FC1A921B9522B11AA941
S315080017C0304600F017FB42E0002DF8D012F0E9FC95
S315080017D01C921D9522B11CA9304600F02BFB36E061
S315080017E0002DF8D012F0DDFC1E921F9522B11EA91D
S315080017F0304600F03FFB2AE0002DF8D012F0D1FC6D
S315080018001AB17F2D08D92F2021E08022002106F168
S31508001810280012F089FD09E02A46014606F128004B
S3150800182012F0B7FD3544002385F8283000200EE075
S315080018303C5C01089C550108A055010832B120926C
S31508001840219520A9304600F095FB00E0A62023B09C
S3150800185060BD00BF012901D0A620704722B11278C9
S31508001860024B1A70002070470022F9E70360002037
S31508001870012901D0A6207047024B1B78137000205F
S31508001880704700BF03600020024A0260024A0260F5
S31508001890704700BFF45601080C53010810B584B010
S315080018A00193022902D0A62004B010BD14462022B6
S315080018B00021094812F038FD54B120230393019BF7
S315080018C0202B07D801AB1A682146034812F061FDA0
S315080018D00020E9E703ABF6E73028002000B585B01D
S315080018E001930AB110461BB92F2005B05DF804FB19
S315080018F0022901D0A620F8E720220392934208D8AD
S3150800190001AB1A68069B1A60034912F042FD0020D3
S31508001910EBE703ABF5E700BF3028002010B5044617
S31508001920044B0360044B0360042112F036FC204686
S3150800193010BD00BFF45601080C53010810B50A4B38
S3150800194000201860094C22B92146094800F0F8FC25
S3150800195010BD13460B44A3F5005401F04FFB204677
S3150800196007F0A0FEF0E700BF5028002000E00F08AF
S315080019702172080008B5024800F01AFC08BD00BF2D
S315080019802172080070B584B00D4616461C46002321
S31508001990039303A9FFF7EEFF08B104B070BD254B0A
S315080019A01B6823B903980BF070FE0028F5D162680E
S315080019B02168214812F0EDFC6368B3F5007F25D352
S315080019C002200CF097F848BB1A4B18684FF40072BF
S315080019D01949039B18440BF05DFE0028DDD1154B11
S315080019E01968284600F0ACFC0028D6D16168304654
S315080019F000F0A6FC0028D0D160680E4C2368402170
S31508001A0018440BF04CFE20600020C6E7C3F50072B0
S31508001A10FF210948184412F087FCD1E7636801934F
S31508001A20044B1B680093039B044A02211F200CF0F9
S31508001A3053F8C9E75028002030260020245701080B
S31508001A40F0B589B00E4615461F460024079407A927
S31508001A50FFF790FF70B9079828440590069758B184
S31508001A6002200CF047F858B90E9A05AB93E8030024
S31508001A700AF0BDFA09B0F0BD002FF1D012F091FBC3
S31508001A8002970195079B00933346034A02211F20BC
S31508001A900CF022F8E8E700BF4C57010808B50248E1
S31508001AA000F066FC08BD00BF0072080000B583B0F0
S31508001AB00023019301AB034800F0A2FB03B05DF8D5
S31508001AC004FB00BF0072080008B5024800F01EFCBF
S31508001AD008BD00BF0C72080010B50C46064800F099
S31508001AE03BFB40F20123984200D010BD4FF6F1733C
S31508001AF023800020F9E700BF0C72080008B50248E9
S31508001B0000F036FC08BD00BF0D72080000B583B0B2
S31508001B100023019301AB034800F072FB03B05DF8A4
S31508001B2004FB00BF0D72080008B5024800F0EEFB82
S31508001B3008BD00BF0B72080010B50C46064800F039
S31508001B400BFB40F20123984200D010BD48F2010376
S31508001B5023800020F9E700BF0B72080008B5024889
S31508001B6000F006FC08BD00BF0E72080000B583B081
S31508001B700023019301AB034800F042FB03B05DF874
S31508001B8004FB00BF0E72080008B5024800F0F0FB1F
S31508001B9008BD00BF1072080000B583B0002301938A
S31508001BA001AB034800F02CFB03B05DF804FB00BF53
S31508001BB01072080008B5024800F0DAFB08BD00BF3D
S31508001BC01172080000B583B00023019301AB0348E6
S31508001BD000F016FB03B05DF804FB00BF11720800A5
S31508001BE008B5024800F0C4FB08BD00BF1272080021
S31508001BF000B583B00023019301AB034800F000FB56
S31508001C0003B05DF804FB00BF1272080008B502486D
S31508001C1000F07CFB08BD00BF0873080010B50C4631
S31508001C20054800F099FA40F20123984200D010BD09
S31508001C3000202080FBE700BF0873080008B50248AB
S31508001C4000F096FB08BD00BF0F72080030B583B0E0
S31508001C500C4615460023019301AB0B4800F0D0FA59
S31508001C6040F20123984201D003B030BD1CB10C2DBF
S31508001C7003D81920F8E70B20F6E7044A2946204638
S31508001C800BF015FD0020EFE70F7208006C570108EE
S31508001C9008B5024800F06CFB08BD00BF04720800D6
S31508001CA008B5024800F0ACFA08BD00BF0472080087
S31508001CB008B5024800F078FB08BD00BF1F7208008F
S31508001CC008B5024800F0EEFA08BD00BF1F7208000A
S31508001CD008B5024800F01AFB08BD00BF07720800E5
S31508001CE010B582B00C46134800F036FA40F20123CC
S31508001CF0984207D020B92388B3F5805F07D2002021
S31508001D0002B010BD4FF4706323800020F2E7012073
S31508001D100BF0F0FE08B92F20F2E72F23019340F2CB
S31508001D206D130093044B054A012100200BF0D4FEE5
S31508001D30F1E700BF077208007C5701089C570108A5
S31508001D4008B5024800F0FCFA08BD00BF0872080092
S31508001D5010B50C46064800F02BFA40F201239842CB
S31508001D6000D010BD4FF47A7323600020F9E700BF56
S31508001D700872080008B5024800F0FAFA08BD00BF64
S31508001D800972080008B5024800F03AFA08BD00BF13
S31508001D900972080008B5024800F0EAFA08BD00BF53
S31508001DA00A72080008B5024800F02AFA08BD00BF02
S31508001DB00A72080008B50B46034A0449FFF7E2FD14
S31508001DC000B9002008BD00BF277208002672080067
S31508001DD000B583B00091044B044A05490BF076FC24
S31508001DE003B05DF804FB00BF2772080026720800DE
S31508001DF0B057010808B50B46034A0449FFF7C2FD68
S31508001E0000B9002008BD00BF25720800247208002A
S31508001E1000B583B00091044B044A05490BF056FC03
S31508001E2003B05DF804FB00BF2572080024720800A1
S31508001E30CC57010808B50B46034A0449FFF7A2FD2B
S31508001E4000B9002008BD00BF2372080022720800EE
S31508001E5000B583B00091044B044A05490BF036FCE3
S31508001E6003B05DF804FB00BF237208002272080065
S31508001E70F457010800B583B00023019302230193A8
S31508001E804A68096801A8FEF7EFFA10B103B05DF8D1
S31508001E9004FB0199014800F053FAF7E7207208009D
S31508001EA000B585B0002003900220039006980090A4
S31508001EB003A8FEF7F1FA10B105B05DF804FB039923
S31508001EC0014800F03DFAF7E72072080070B586B0C1
S31508001ED00E461546D82400230593144800F028F921
S31508001EE080B105A9114800F063F980B9059B002265
S31508001EF0049203B9022304932A46314604A8FEF73E
S31508001F0035FB044602200BF0F5FD10B9204606B055
S31508001F1070BD73686A68029401920093059B044A2F
S31508001F2002211F200BF0D8FDF0E700BF2072080041
S31508001F301058010808B5024800F01AFA08BD00BF93
S31508001F402972080008B5024800F05AF908BD00BF12
S31508001F502972080008B5024800F026FA08BD00BF35
S31508001F600572080008B5024800F09CF908BD00BFD4
S31508001F700572080000B583B000230193032301937B
S31508001F804A68096801A800F053F810B103B05DF873
S31508001F9004FB0199014800F0D3F9F7E7307208000D
S31508001FA000B585B013460022039203AA01922022A7
S31508001FB000920A460146044811F014F800B1AC2014
S31508001FC005B05DF804FB00BF0900000208B5024B26
S31508001FD00BF098FC08BD00BF09D80008282800D9CE
S31508001FE00020024B03EB8000704700BF5C580108D5
S31508001FF0F8B50C4616461D46FFF7F0FF074BD3E823
S31508002000AF3F2BB11F462B4632462146B847F8BD8F
S315080020102B46324621460BF076FDF8E75428002079
S31508002020024BD3E88F0FC0B2704700BF04100020E0
S3150800203070B58CB004460D46164600680BF07DFD5B
S315080020402422002103A812F06FF9236805930123BF
S3150800205004934FF4105103A80BF065FD8023ADF8E7
S315080020600E300D4B07934FF40073019301A80BF044
S315080020704BFD019B069302AB3246294603A810F096
S3150800208046FF10B900200CB070BD0146034807F0A2
S3150800209019FFAC20F7E700BF0010C004005901087B
S315080020A000B583B00F4B1B684BB10E4B1868B0B127
S315080020B04FF0FF310DF012FE03B05DF804FB032369
S315080020C00093094B0022114601200DF028FC054B10
S315080020D0186000231A4619460DF065FCE5E712F06C
S315080020E060F800BFA82800205828002008B5054B2E
S315080020F0186828B100231A4619460DF054FC08BD85
S3150800210012F04FF8A828002050B1084A904209D08A
S31508002110C0B200F5300020F07F4040F0A060704764
S315080021200020704740F20120704700BF0BE000F026
S3150800213000B583B001466B4601AA0648006809F057
S315080021406DFDFFF7E1FFB0FA80F0400903B05DF8D6
S3150800215004FB00BF5410002030B585B004460D4678
S315080021600023ADF806300BF0FBFC18B940F201204D
S3150800217005B030BD02AB03AA21460C48006809F039
S315080021804DFDFFF7C1FF0028F2D1029B0DF10602B3
S3150800219021460648006809F09FFCFFF7B5FF0028AE
S315080021A0E6D1BDF806302B80E2E700BF54100020C8
S315080021B030B585B004460D46002301930BF0D0FCDC
S315080021C018B940F2012005B030BD02AB03AA21467A
S315080021D00A48006809F022FDFFF796FF0028F2D1A9
S315080021E0029B01AA21460548006809F075FCFFF71D
S315080021F08BFF0028E7D1019B2B60E4E754100020F1
S31508002200F0B585B005460E4617461C4600232360E2
S315080022100BF0A6FC18B940F2012005B0F0BD02ABE0
S3150800222003AA29461E48006809F0F8FCFFF76CFF68
S315080022300028F2D1029B23B1DEB1BB4203D3192099
S31508002240EBE71E20E9E7324629461548006809F0FB
S3150800225043FCFFF759FF0028DFD1029B012B03D06F
S3150800226023600022F254D8E731780029F8D10346D2
S31508002270F6E7012B01D92360CFE701230DF1070209
S3150800228029460748006809F027FCFFF73DFF034683
S315080022900028C2D19DF8072002B1029B2360BCE743
S315080022A054100020F0B583B005460E4617461C4666
S315080022B0002323600BF054FC18B940F2012003B048
S315080022C0F0BD6B4601AA29460F48006809F0A6FC2E
S315080022D0FFF71AFF0028F2D1009B2BB1002EEED093
S315080022E0BB4203D91920EAE71E20E8E73246294609
S315080022F00548006809F0F0FBFFF706FF0028DED165
S31508002300009B2360DBE700BF5410002010B582B0A5
S315080023100446ADF806100BF023FC18B940F201206C
S3150800232002B010BD02230DF10602214603480068DB
S3150800233009F088FBFFF7E8FEF2E700BF541000201B
S3150800234010B582B0044601910BF00AFC18B940F2A8
S31508002350012002B010BD04230DEB030221460348F9
S31508002360006809F06FFBFFF7CFFEF2E75410002074
S31508002370F8B507460D4614460BF0F2FB78B12F2642
S315080023805DB1084B186804B9012423462A46394624
S3150800239009F058FBFFF7B8FE06463046F8BD40F28E
S315080023A00126FAE754100020F8B507460C461646EB
S315080023B00BF0D6FB68B12F2574B133462246394651
S315080023C00748006809F03EFBFFF79EFE05462846CB
S315080023D0F8BD40F20125FAE7002EF8D1EDE700BF77
S315080023E0541000200346064A10680344054A9342DF
S315080023F002D8034A136070474FF0FF30704700BF9A
S31508002400081000200000022008B50448044A121AE1
S31508002410921004490BF0CFFB08BD00BF9C7401085D
S315080024209C7401081060002008B500F02FF8FFF72B
S31508002430EBFF124A0AE01068516850F8230041F889
S315080024402300013391688B42F5D30C320C4B9A4228
S3150800245001D20023F6E70B4A08E01168002041F88C
S315080024602300013351688B42F7D30832064B9A4250
S3150800247001D20023F6E7FDF749FF00BF14690108FA
S3150800248020690108206901082069010810B4144B65
S31508002490144A9A60D3F8882042F47002C3F8882058
S315080024A0114A4FF480419166104901F500524FF0E8
S315080024B0FF3010660E4850660220C3F8D000BFF3FE
S315080024C04F8FBFF36F8F0B480124C0F880414FF43C
S315080024D04033D36004600B615DF8044B704700BF5E
S315080024E000ED00E000000008009000500080004465
S315080024F0F7FF370000E100E0014B1868704700BF9E
S315080025001010002008B5094B1B6F03F00703022BB8
S3150800251004D0032B05D0012B06D0FEE7FFF7ECFF0E
S3150800252003E0034B186800E0024808BD008000502D
S3150800253018100020002D310108B5FFF7E3FF054B01
S315080025401B6FC3F303330133B0FBF3F0024B186080
S3150800255008BD00BF008000500C10002000487047DE
S3150800256000B4C404014B1868704700BF1810002057
S3150800257000487047002D31014FF0B4439868C0F306
S3150800258004400C2808D8DFE800F009070707070702
S3150800259022181A071C1E2000002070474FF0B4436B
S315080025A09B6803F04073B3F1807F12D0B3F1007FCC
S315080025B011D003B170470948704709487047094860
S315080025C070470948704709487047094870470948DD
S315080025D07047094870470948ECE700BF00093D0005
S315080025E00024F400C0EA210180BA8C010048E80101
S315080025F0005A6202405DC60080841E0040420F00F9
S31508002600014B1868704700BF14100020B0F1FF3F57
S3150800261001D010B97047024870470248704700BF9A
S3150800262021E000F024E000F0F8B505460E469400D7
S31508002630224612F021FEFFF7E9FF074628B922468F
S315080026403146284611F046FE08B93846F8BD014F0E
S31508002650FBE700BF10E000F038B5044612F010FEA4
S31508002660FFF7D4FF054608B1284638BD00F0FAFC46
S31508002670014620460BF0B1FA0028F5D1004DF3E7E4
S315080026800EE000F0024B4FF480321A67704700BF25
S315080026900090005038B505460C460F4BD3F88030ED
S315080026A003F00303022B0ED0032B10D0012B06D008
S315080026B00023184605B1286004B1236038BDFFF72A
S315080026C021FF0E23F6E7FFF757FF0723F2E7FFF789
S315080026D013FF0623EEE700BF0080005038B5054615
S315080026E00C46174BD3F8200100F00700062823D81C
S315080026F0DFE800F0040A0E16121A1E00012305B1BF
S31508002700286004B1236038BDFFF7F6FE0523F6E717
S31508002710FFF728FF0323F2E7FFF72EFF0723EEE76D
S31508002720FFF726FF0223EAE7FFF7E6FE0623E6E7BA
S31508002730FFF718FF0423E2E700231846DFE700BF88
S315080027400080005038B505460C46164BD3F828319C
S3150800275003F00703013B052B20D8DFE803F003133A
S315080027601B0F0B17FFF7C8FE052305B1286004B138
S31508002770236038BDFFF7C0FE0623F6E7FFF7FCFE29
S315080027800723F2E7FFF7EEFE0323EEE7FFF7EAFE7D
S315080027900423EAE7FFF7ECFE0223E6E700231846E0
S315080027A0E3E700BF0080005070B582B006460D46CC
S315080027B000230193104BD3F8804104F00304022C44
S315080027C016D0032C0FD0012C07D000240EB1019B84
S315080027D0336005B12C6002B070BD002101A8FFF777
S315080027E07DFF1024F2E7FFF7C7FE01900724EDE707
S315080027F0FFF7BEFE0190E9E70080005030B583B0D0
S3150800280005460C4600230193154BD3F8203203F0F6
S315080028100703042B21D8DFE803F0030B11161B006E
S3150800282001230DB1019A2A6004B1236003B030BDBB
S31508002830002101A8FFF786FF1223F2E7FFF79CFEA7
S3150800284001900723EDE70BF0C2F901900A23E8E7A8
S31508002850FFF7D6FE01900923E3E70023E1E700BF6F
S315080028600080005038B505460C46104BD3F8400199
S3150800287000F00300032815D8DFE800F002080C1062
S31508002880012305B1286004B1236038BD0BF09FF918
S315080028900A23F6E7FFF7B4FE0923F2E70BF09AF9E5
S315080028A00C23EEE700231846EBE700BF0080005034
S315080028B030B583B005460C4600230193144BD3F874
S315080028C0603203F00703013B032B1FD8DFE803F050
S315080028D0020E1914002101A8FFF700FF10230DB1FD
S315080028E0019A2A6004B1236003B030BD002101A813
S315080028F0FFF7B8FF1123F2E7FFF73EFE0190072323
S31508002900EDE7FFF735FE01900223E8E70023E6E747
S315080029100080005030B583B005460C46002301936D
S31508002920144BD3F8943203F00703013B032B1FD84B
S31508002930DFE803F0020E1914002101A8FFF7CEFE06
S3150800294010230DB1019A2A6004B1236003B030BD8B
S31508002950002101A8FFF786FF1123F2E7FFF70CFE17
S3150800296001900723EDE7FFF703FE01900223E8E74E
S315080029700023E6E70080005030B583B005460C46D4
S31508002980002301930C4BD3F8703203F00303012B99
S3150800299009D0022B0DD115230DB1019A2A6004B175
S315080029A0236003B030BD002101A8FFF75BFF1123A8
S315080029B0F2E70023F0E700BF0080005038B505466F
S315080029C00C46134BD3F8000200F0070004281BD866
S315080029D0DFE800F003090D111500012305B1286091
S315080029E004B1236038BD0BF0F2F80A23F6E7FFF7C7
S315080029F007FE0923F2E70BF0EDF80C23EEE7FFF7E5
S31508002A009BFD800A0F23E9E700231846E6E700BF87
S31508002A100080005038B505460C46134BD3F808021B
S31508002A2000F0070004281BD8DFE800F003090D11A1
S31508002A301500012305B1286004B1236038BD0BF0E9
S31508002A40C6F80A23F6E7FFF7DBFD0923F2E70BF0E2
S31508002A50C1F80C23EEE7FFF76FFD800A0F23E9E7BD
S31508002A6000231846E6E700BF0080005038B5054643
S31508002A700C46104BD3F8400200F00300032815D883
S31508002A80DFE800F002080C10012305B1286004B144
S31508002A90236038BD0BF09BF80A23F6E7FFF7B0FD75
S31508002AA00923F2E70BF096F80C23EEE70023184605
S31508002AB0EBE700BF0080005038B505460C46104BC2
S31508002AC0D3F8600100F00300032815D8DFE800F00A
S31508002AD002080C10012305B1286004B1236038BD33
S31508002AE00BF075F80A23F6E7FFF78AFD0923F2E7E4
S31508002AF00BF070F80C23EEE700231846EBE700BF4F
S31508002B0000800050B0F5207F20D00ED8B0F5007FA9
S31508002B1016D020D810B1B0F5C07F04D10F4B186F6E
S31508002B20C0F3033018E0002016E0B0F5607F05D149
S31508002B300A4BD3F88000C0F301100DE000200BE02B
S31508002B40064BD3F89000C0F3046005E0034B186FFA
S31508002B50C0F3802000E0002001307047008000505C
S31508002B6038B505460C46174B4FF480329A66002056
S31508002B70FFF7C8FF05FB00F0134BDA6902F4803251
S31508002B8041F67131D9635B6823F440136CB90F4978
S31508002B90884207D800210B430B494B600AB1002233
S31508002BA0CA6338BD4FF48011F5E7002C07DD0849E4
S31508002BB0884201D80021EEE74FF48011EBE74FF485
S31508002BC04011E8E70090005000000350005A6202E6
S31508002BD0002D3101430905D0012B0DD0022B0DD054
S31508002BE0002200E0002200F01F0049B102F58052E1
S31508002BF00123834013607047034AF4E7034AF2E768
S31508002C0002F50052F4E700BF648000506880005067
S31508002C1008B580200BF04AF8034B984203D8034BBB
S31508002C204FF480321A6708BD005A620200A00050AD
S31508002C30B0F5207F5DD02DD8B0F5007F4ED061D895
S31508002C4010B1B0F5C07F24D110B54C1E0BF027F893
S31508002C500BF0FCF9FFF716FD2B4A136F23F47043AC
S31508002C6043EA04331367FFF767FC284BD3F884302D
S31508002C7013F0100FF9D1254BD3F88410C1F3811145
S31508002C80C1F102010BF0D7F900F044F8FFF7C0FFD5
S31508002C9010BD7047B0F5607F1FD11D4BD3F8FC20DF
S31508002CA012F0807206D01846D3F8FC3023F08073F1
S31508002CB0C0F8FC3001391448D0F8803023F03003CE
S31508002CC043EA0113C0F88030E2B1114AD2F8FC3069
S31508002CD043F08073C2F8FC307047704701390A4ADE
S31508002CE0D2F8903023F0F85343EA0163C2F89030E3
S31508002CF070470139044A136F23F4806343EA81233A
S31508002D0013677047704700BF0080005000400050AE
S31508002D1000ED00E008B54FF4C0700AF0C7FF054B98
S31508002D20984205D902214FF42070FFF781FF08BDAC
S31508002D300121F8E780F0FA0208B5FFF7FDFB0C4B16
S31508002D40D3F8843013F0100FF9D1094BD3F8841057
S31508002D50C1F38111C1F102010BF06DF901210020C7
S31508002D6000F058F8FFF7D6FFFFF752FF08BD00BF7F
S31508002D7000400050034AD36E23F0300301790B4319
S31508002D80D366704700400050F8B50446204BD3F888
S31508002D90843013F0100FF9D11D4BD3F88430C3F3E8
S31508002DA081139C422DD0FFF7ADFB0646012C11D0AE
S31508002DB00BF05FF90546164F07F500534FF0007202
S31508002DC05A6620460BF065F9621E4FF480639340FD
S31508002DD03B6706E001210BF02EF9E9E70C4BD3F827
S31508002DE084300B4B5B6E13F0007F05D1084BD3F88C
S31508002DF0843013F0200FF1D028460BF03EF9022C50
S31508002E0000D0F8BD002130460BF015F9F9E700BFF0
S31508002E100040005010B50C46034650B1094A1278D6
S31508002E2012B1094A934208D921460220FFF7ACFF9E
S31508002E3010BDFFF767FB0346F0E721460120FFF7C1
S31508002E40A3FFF5E75C290020005A620238B52F4B2C
S31508002E504FF000425A6603F50B235C6C04F001043C
S31508002E604AF6CD321A64E8B9294B5B6B13F00103B5
S31508002E70FAD1274A556815F0010539D002F50052EE
S31508002E80012151601A462249096B11F0010F04D13C
S31508002E9020498A4201D80132F5E71E498A422FD8CD
S31508002EA01D4625E000231A4A126B12F0080F04D0BB
S31508002EB0184A934201D80133F5E7164A934221D8B6
S31508002EC0134B03F500522021916203F5805301222A
S31508002ED05A60002300E001330D4A926A12F0200F6F
S31508002EE002D10C4A9342F6D90A4A93420CD80025D5
S31508002EF014B1074B084A1A640BF0CCF8284638BDBB
S31508002F000725F5E70725F3E70725F1E700900050C1
S31508002F10004009503F420F003254FFFF10B51A4BCC
S31508002F204FF000425A6603F50B235C6C04F001046B
S31508002F304AF6CD321A6443785B0043F00103134A1C
S31508002F40D363134B5B6B13F00B0FFAD1104A53681C
S31508002F5023F4F873817843EA01135360C1784379FF
S31508002F6043EA012393600179837943EA01231361D4
S31508002F700078FFF76BFF14B1054B064A1A640BF08D
S31508002F8089F8012010BD00BF009000500040005095
S31508002F90004009503254FFFF10B50F2800D90F2002
S31508002FA0124B5C6E03F580534FF000425A6603F5E8
S31508002FB00B235A6C02F001024AF6CD3119640C4B08
S31508002FC05B6B13F0800FFAD109490B6A23F00F03E4
S31508002FD003430B620AB1074A0A64002C03DB064B5B
S31508002FE04FF000425A660BF055F810BD00800050AD
S31508002FF0004009503254FFFF00A00050064B4FF422
S3150800300080329A6603F51C3341F67132DA6303F5AA
S3150800301000530122DA60704700900050074B41F6D2
S315080030207132DA6303F500520121D1600022DA63B6
S31508003030A3F518334FF480329A66704700000350A0
S31508003040074B4FF480325A6603F5E6239B69C3F3B0
S315080030508512827003F03F0242701B0B03707047A3
S3150800306000900050034B9B680A3303F01F030120AE
S31508003070984070470080E00F074B9B6813F0020FDB
S31508003080FAD1054B5B6813F0020FF5D1024BDB69E9
S31508003090002BF1D1704700BF00800A50064B5B68D1
S315080030A013F0010F03D0044BDB69002BF6D1024B5A
S315080030B002221A61704700BF00800A5008B5FFF760
S315080030C0DBFF034B03F5805101224A601A6108BDF4
S315080030D000800A5008B5054B5B68012B00D008BD77
S315080030E0FFF7DCFF024B01225A60F8E700800A501E
S315080030F000A00A5010B50446FFF7BEFF084B5B68F0
S31508003100012B05D0237843B10122054BDA6010BDA7
S31508003110FFF7E0FFFFF7B0FFF4E70022F5E700BF8F
S3150800312000800A50D8B90B78D3B101234A6812B186
S31508003130127843EAC2034A78A2B1022213438A6884
S3150800314012B1127843EA82138A786AB104221343C9
S31508003150CA6812B1127843EA4223044A9364704754
S315080031600023E3E70022E9E70022F0E700800A509F
S3150800317008B9014B5964704700900A5008B9014BC9
S315080031805964704700A00A5008B9014B1964704782
S3150800319000A00A5010B9024B186C704700207047FF
S315080031A000800A5048B911B1012903D07047044B71
S315080031B0D86C7047024B186D70470020704700BFE7
S315080031C000800A5040B911B1012903D07047034B5A
S315080031D0DA647047014B1A65704700BF00800A50D1
S315080031E070B501F0A7FD0446012808D80025154B3F
S315080031F01B7853B10026012C1DD8304670BD01F04E
S31508003200D5FD051EF3DA0126F7E70F480AF083FF16
S3150800321006460028EFD10D480AF094FF0646002816
S31508003220E9D10B4B302283F8412302229A60054BE1
S3150800323001221A70DFE7284601F0DCFD0028DCDAF7
S315080032400126DAE704600020C4290020602900204E
S3150800325000E100E008B504480AF08DFF18B9034BF1
S315080032604FF480629A6608BDC42900200090005079
S3150800327008B5044B4FF480629A6603480AF08FFF3C
S3150800328008BD00BF00A00050C429002008B54FF0B3
S3150800329098435B6C13F4801F11D14FF098435B6C15
S315080032A013F4801FF9D04FF098435B6D03F4702335
S315080032B0054A1360054B0222C3F8882108BD044855
S315080032C00AF07FFFE9E700BF1C10002000E100E0DC
S315080032D060290020002835D010B50446FFF7BAFF4C
S315080032E000B110BD20460AF0F4FE94F8203093B9D8
S315080032F04FF098435B6C13F4801FF9D04FF0984356
S315080033005C6D04F47024FFF7B3FF002CE9D0204667
S315080033100AF07EFFE5E74FF09844A36D43F00203F9
S31508003320A3654FF0FF3108480AF05EFFA36D23F04E
S315080033300203A3650028D4D1044B1C684FF4A022CD
S315080033401A60E0E721207047602900201C10002041
S315080033502DE9F04385B00023039300285FD00D467E
S31508003360144607460AB100295BD004F0030634F078
S31508003370030804D12EBB304605B0BDE8F0834FF0F4
S31508003380E0633B6000237B60BB60FB610095012323
S31508003390019348F000530293694638460AF085FEC1
S315080033A0414638460AF08BFE3846FFF793FF8146BA
S315080033B00028DFD042460021284610F0B5FF4E46C9
S315080033C0D9E74FF0E0633B6000237B60BB60FB619D
S315080033D003AB009301230193134B029369463846C6
S315080033E00AF063FE042138460AF069FE3846FFF7FC
S315080033F071FF074608B903460DE022460021284614
S3150800340010F092FF3E46B6E7D900039ACA4003EB8E
S3150800341008016A540133B342F6D33E46ABE7212688
S31508003420A9E72126A7E700BF040000202DE9F041FF
S315080034308AB00C4617460178022934D0032938D0B9
S31508003440012901D021202BE000F10C064FF01408C9
S315080034501B4A226000226260A260E2619D01294641
S3150800346020460AF02CFE07970122089245F00055DF
S3150800347009950496059248F0005306930196029220
S31508003480039304A920460AF006FE07A920460AF077
S3150800349002FE01A920460AF008FE2046FFF71AFF99
S315080034A00AB0BDE8F08100F10C064FF02008054A85
S315080034B0CFE700F10C064FF02008034AC9E700BF22
S315080034C0000201030003010300040103A9B170B45B
S315080034D00446A0B10026466086600A4D0FCDE0601E
S315080034E021616261A3610FCDE06121626262A3621C
S315080034F002232370304670BC704721207047212074
S31508003500F9E700BF98590108A9B170B40446A0B1FB
S315080035100026466086600A4D0FCDE0602161626133
S31508003520A3610FCDE06121626262A3620323237067
S31508003530304670BC7047212070472120F9E700BF4C
S31508003540BC590108002873D02DE9F04F8BB00C4602
S3150800355016460146002C6DD0002A6DD00078022848
S3150800356015D003281ED0012803D021200BB0BDE8B2
S31508003570F08F01F10C0901F1040801F12C054FF057
S31508003580140A2F4A57469F4217D92120EEE701F120
S315080035900C0901F1040801F12C054FF0200A294A0B
S315080035A01C27F0E701F10C0901F1040801F12C05CB
S315080035B04FF0200A244A5746E5E70123012B32D962
S315080035C0D8F8003003F03F0B226000236360A36045
S315080035D0E361594620460AF072FDD8F800102046E5
S315080035E00AF06DFDCDF81C90012208924AF00053AE
S315080035F00993049505924BF000530693019602929F
S3150800360047F00057039707A920460AF044FD04A986
S3150800361020460AF040FD01A920460AF046FD20464C
S31508003620FFF758FEA2E758F8231039B90133C5E762
S3150800363021207047212099E7212097E70F2095E759
S315080036400002030300030303000403032DE9F0410A
S3150800365086B00C9C002840D090461E460746002C93
S315080036603DD04AB1022931D0032933D0012907D0E8
S31508003670212006B0BDE8F081002BF3D02120F8E721
S315080036801425194A0D9B9D422BD83A6000237B606E
S31508003690BB60FB61314638460AF011FDCDF80C8057
S315080036A00122049246F0005605960094019245F0D0
S315080036B00055029503A938460AF0EDFC69463846D6
S315080036C00AF0F3FC3846FFF705FED2E71C254FF053
S315080036D00322D7E72025054AD4E72120C9E7212078
S315080036E0C7E72120C5E700BF000200030004000366
S315080036F02DE9F04192B0002800F09A800C46154654
S315080037001E468046002900F09580002A00F0948025
S31508003710002B00F0938000231A46294620460AF01B
S31508003720ADFE074618B1384612B0BDE8F0810FA9BC
S3150800373028460AF038FE07460028F4D12268424B8C
S315080037409A426FD073690F9AB3EB420F78D33368F6
S31508003750002B77D14FF06063C8F800300023C8F813
S315080037600430C8F80830C8F81C3010A920460AF0FA
S31508003770E5FE07460028D6D1109921F4F06110918C
S3150800378040460AF09CFC11A930460AF0D7FE0746C7
S315080037900028C8D1119940460AF091FC06A920468E
S315080037A00AF096FF07460028BDD106A940460AF04A
S315080037B072FC03A920460AF098FF07460028B2D1F2
S315080037C003A940460AF067FCF36853B109A93046D5
S315080037D00AF07EFF07460028A5D109A940460AF047
S315080037E05AFC0CA928460AF080FF074600289AD1F9
S315080037F00CA940460AF04FFC694630460AF075FFA8
S31508003800074600288FD1694640460AF04EFC3C46DA
S31508003810022C88D84046FFF75DFD0746012882D16D
S315080038200134F5E772690F9B9A4290D221277AE70D
S31508003830212778E7212776E7212774E7212772E7EA
S31508003840212770E721276EE7200000B0F0B58DB07C
S3150800385000286FD00C461546074600296CD0002A6A
S315080038606CD001231A46294620460AF007FE06466A
S3150800387050B9A36813F4C04F62D0AB6803F4C043D1
S31508003880B3F5005F03D0212630460DB0F0BD2F4BAF
S315080038903B6000237B60BB60FB6101A920460AF000
S315080038A04DFE06460028EFD1019938460AF007FC76
S315080038B009A920460AF00CFF06460028E4D109A902
S315080038C038460AF0E8FB06A920460AF00EFF064627
S315080038D00028D9D106A938460AF0DDFBEB688BBB70
S315080038E0AB6803F4C043B3F5005F01D02126CBE7EC
S315080038F005A928460AF081FD06460028C4D16A694A
S31508003900059B9A4220D32A6902920122039243F028
S315080039100053049302A938460AF0C7FB344600E070
S315080039200134022CB0D83846FFF7D4FC06460128E5
S31508003930F6D0A9E72126A7E72126A5E72126A3E7AA
S315080039402126A1E721269FE71D269DE70000010203
S31508003950002877D0F0B591B00C460546002973D0FB
S315080039601699002972D01899002971D0216801F09A
S315080039707041B1F1404F0AD05BB9022A17D0032A29
S3150800398017D0012A01D021200FE0324B03E0324B39
S3150800399001E04FF0C0632B6000236B60AB60EB6106
S315080039A0694620460AF0CAFD28B111B0F0BD2B4B76
S315080039B0F1E72B4BEFE7009928460AF080FB1799A9
S315080039C028460AF07CFB0DA920460AF081FE00284D
S315080039D0EBD10DA928460AF05EFB0AA920460AF093
S315080039E084FE0028E1D10AA928460AF054FB169B52
S315080039F0079301270897179B43F00056099607A9CE
S31508003A0028460AF048FB169B0493059706962368F2
S31508003A1003F07043B3F1404F0FD0189B0193012375
S31508003A200293199B43F00053039301A928460AF011
S31508003A303CFB2846FFF74EFCB7E704A928460AF0E0
S31508003A402AFBEAE7212070472120AEE72120ACE7D0
S31508003A502120AAE70002000600000206000300066D
S31508003A6000040006002879D030B58FB00C4605460C
S31508003A70002975D01299002974D01499002973D099
S31508003A80A16811F4005F71D0216801F07041B1F1AD
S31508003A90404F0AD05BB9022A16D0032A16D0012A4B
S31508003AA001D021200EE0324B02E0324B00E0324BCF
S31508003AB02B6000236B60AB60EB6101A920460AF01E
S31508003AC03DFD28B10FB030BD2C4BF1E72C4BEFE78D
S31508003AD0019928460AF0F3FA139928460AF0EFFAEC
S31508003AE00BA920460AF0F4FD0028EBD10BA92846BD
S31508003AF00AF0D1FA08A920460AF0F7FD0028E1D114
S31508003B0008A928460AF0C7FA129B059301220692CD
S31508003B10139B43F000530793149B02930392159B40
S31508003B2043F000530493236803F07043B3F1404F06
S31508003B300BD005A928460AF0AEFA02A928460AF0CB
S31508003B40AAFA2846FFF7C6FBBCE702A928460AF0E8
S31508003B50A2FA05A928460AF09EFAF2E7212070473C
S31508003B602120AFE72120ADE72120ABE72120A9E7F7
S31508003B700002010600000306000001060003010614
S31508003B800004010610F1860F14D00EDC10F1930F15
S31508003B9013D010F1870F05D10B4B994207D06FF060
S31508003BA06D0070474FF0FF30704748B970476FF0A7
S31508003BB0730070476FF0710070476FF06F007047C1
S31508003BC04FF0FF30704700BF0900000201290ADCE8
S31508003BD008B531B1054900F0A5FD0549FFF7D2FF43
S31508003BE008BD0349F7E76FF0730070470800000245
S31508003BF00900000208B50BF0F3FB0249FFF7C2FF04
S31508003C0008BD00BF0900000200B583B00023019378
S31508003C1001AB20220BF006FC0249FFF7B3FF03B005
S31508003C205DF804FB0900000210B5FFF7D9FA0D4B41
S31508003C300D4A0E490E4805F0DDF80E4B1B7803B108
S31508003C4010BD0AF005FE04460A4B1B7833B90A4B29
S31508003C501B680A489847074B01221A7020460AF043
S31508003C6001FEEDE7CBE70008F3E700081FE80008C8
S31508003C702DE80008056000204C1000200858002098
S31508003C80A0F50320A0F580704FEA501C054951F8AD
S31508003C902C3000F01F0001228240134341F82C30DB
S31508003CA0704700BF282A0020A0F50320A0F58070E1
S31508003CB04FEA501C054951F82C3000F01F0001222C
S31508003CC08240534041F82C30704700BF282A002014
S31508003CD070B592B04022002102A810F025FB144BC3
S31508003CE00CE0144A13E012AB03EB840353F8400CC0
S31508003CF0FFF7C6FF0134AC42F5D333460E4A93426A
S31508003D0010D803F110060B4A9642EAD83246013A11
S31508003D100092102202A90948006811F014F9054614
S31508003D200024E8E7064B01221A7012B070BD00BFE6
S31508003D300031080081310800803108005410002045
S31508003D40066000202DE9F04188B006460C461D465F
S31508003D5017460AB1002313600DB100232B60102308
S31508003D6000930023224631462448006807F002FFE4
S31508003D70804600283ED12268214B9A4217D00FB1BF
S31508003D8010233B6022681F4B9A4231D1002F31D055
S31508003D90002D2FD02B4602AA31461848006807F096
S31508003DA03DFF18BB2B683A689B1A2B6022E000235C
S31508003DB0029303930493059306930793182200929C
S31508003DC002AA31460D48006807F0D4FE804688B935
S31508003DD0069B6360DDE90423C4E90223094B2360DB
S31508003DE00FB118233B60DFF82080CBE7804601E05F
S31508003DF0DFF81880404608B0BDE8F081541000206E
S31508003E00D175E105105D175EFEDF00F0FFDF00F0FB
S31508003E10F0B585B072B906460F46314B1B7B002BB1
S31508003E205AD02F4B1A685B688B4208BF824216D05D
S31508003E3000251EE00023802B0FD803F5032404F584
S31508003E4080745A09274951F8222003F01F01CA40F5
S31508003E5012F0010F3DD00133EDE7234C39E0204B3A
S31508003E609C6836E0029A039BBB4208BFB2422AD03E
S31508003E700135802D32D805F5032404F580746B09C5
S31508003E80184A52F8233005F01F02D34013F0010FE9
S31508003E90EED000231A4669462046FFF753FF00284E
S31508003EA0E0D0124A9042DDD0114A904202D0123236
S31508003EB09042DDD121460F4B186807F0F3FE002823
S31508003EC0D6D0094C05E0064B01221A739C601E6089
S31508003ED05F60204605B0F0BD0025CAE7024CF8E74A
S31508003EE0801B0020282A002082310800FEDF00F00F
S31508003EF0FFDF00F05410002038B505460C4605F0E3
S31508003F00C5FB58B9064B1B782BB10022284621461B
S31508003F10FFF77EFF38BDFFF7DBFEF6E70148F9E756
S31508003F20066000208231080010B50C4B1B7823B1BF
S31508003F300B4B1B680B48984710BD0AF0A0FC0446BB
S31508003F40064B1B7833B9084B1B6806489847034B42
S31508003F5001221A7020460AF09CFCE9E70760002057
S31508003F60441000203C2A00204C10002008B5044BC1
S31508003F701B781BB1034B1B680348984708BD00BF55
S31508003F8007600020401000203C2A00202DE9F84F49
S31508003F909A46DDF828B040F26C739A4274D8804687
S31508003FA00F46144612B1BAF1000F70D0BBF1010FDB
S31508003FB070D8FFF7B9FF40463946FFF79DFF05461B
S31508003FC004F11009494601200BF005FB06460028B6
S31508003FD057D04A46002110F0A7F9304B9D4214D914
S31508003FE0012200200021FFF713FF05462B4B9842BC
S31508003FF033D8C6F80880F76003F1BC4303F572238B
S3150800400003F68F33336000270DE000231A46314646
S315080040102846FFF797FE10B1214A90422BD17368C4
S31508004020012B2BD00027C6F804B0CCB94B46324634
S3150800403029461C48006807F005FDC0B16FF09107D6
S315080040404A460021304610F06FF930460BF0D3FA95
S31508004050FFF78CFF3846BDE8F88F6FF08D07E2E76B
S315080040602246514606F1100010F093F9DEE728467D
S31508004070FFF706FEE4E76FF09107E1E76FF08407C4
S31508004080DEE76FF08C07E3E76FF09107E2E76FF082
S315080040908607DFE76FF08507DCE700BF8131080098
S315080040A0FEDF00F0541000202DE9F04288B00646E5
S315080040B00C4617460E9D99466BB10F9B002B62D096
S315080040C0002D63D0B5F1005F63D3C9F1005303F542
S315080040D000339D4260D80023049305930693079303
S315080040E003930293FFF720FF30462146FFF704FFAC
S315080040F004462B4B984207D96FF08B04FFF736FF1F
S31508004100204608B0BDE8F08203AB02AA04A9FFF76F
S3150800411019FE244B984228D010B1013B984227D16A
S31508004120039BB9F1000F06D0BB4206D81BBB27B1CB
S315080041306FF08604E2E7BB4220D3DB1B4B4510D267
S315080041400F9A13600F9B1B680093029B3B442A46F9
S3150800415021461548006807F00DFD90B16FF09104EF
S31508004160CCE70F9BC3F80090ECE76FF08B04C5E72C
S315080041706FF09104C2E76FF08604BFE76FF086041C
S31508004180BCE70024BAE76FF08604B9E76FF0860447
S31508004190B6E76FF08604B3E76FF08604B0E700BFB2
S315080041A081310800FFDF00F05410002070B586B09A
S315080041B0002A31D005460C4616460023029303937F
S315080041C00493059301930093FFF7AEFE2846214614
S315080041D0FFF792FE124B984206D96FF08B04FFF751
S315080041E0C5FE204606B070BD01AB6A4602A9FFF7B8
S315080041F0A9FD0C4B984209D010B1013B984208D151
S31508004200039B7360019B33600024E8E76FF08B041F
S31508004210E5E76FF09104E2E76FF08604E1E700BF97
S3150800422081310800FFDF00F070B586B006460D46FE
S315080042300023029303930493059301930093FFF7D6
S3150800424073FE30462946FFF757FE1F4B98422CD877
S31508004250044601AB6A4602A9FFF774FD1B4B984258
S3150800426026D010B1013B984225D1039B012B25D0BE
S315080042702146174B186807F015FD10BB154B1B7B1D
S3150800428033B1144B1A685B68AB4208BFB24208D018
S315080042902046FFF709FD0024FFF768FE204606B012
S315080042A070BD0C4B00221A73F2E76FF08B04F3E72C
S315080042B06FF08B04F0E76FF09104EDE76FF084047C
S315080042C0EAE76FF09104E7E781310800FFDF00F0C5
S315080042D054100020801B0020002800F0BC802DE927
S315080042E0F043B3B00D4614461E46002900F0B680CA
S315080042F0002A00F0B680002E00F0B680028802F48C
S315080043004F41B1F5824F40F0B280D1B2122940F048
S31508004310B18022F0FF02B2F5E24F0BD0B2F5824F20
S3150800432040F0AE802B78042B1BD06FF0860033B09C
S31508004330BDE8F0834388336063B9E30033603368CC
S31508004340B3F5807F40F0998022464F4928460AF007
S31508004350DCFAECE70733B4EBD30FF0D06FF0860046
S31508004360E5E72422002119A80FF0DEFF19A809F0B5
S315080043708DFF002866D1002722973C22394623A8BC
S315080043800FF0D2FF01238DF888304FF020084246FF
S31508004390394601A80FF0C8FF01350595013C06947A
S315080043A04246394609A80FF0BFFF22AD0D954FF0DA
S315080043B04009CDF838904246394611A80FF0B4FFA7
S315080043C01595CDF85890E40064083460B4F5C07FBC
S315080043D03BD024D8E02C02D0B4F5807F1CD12B4BDF
S315080043E001930993039B43F4005303930B9B43F4F4
S315080043F080430B9333680733DB085B00129311ABDA
S3150800440001AA09A919A8FFF773F933680733DB0866
S315080044105A008BB122AB0CE06FF0860087E7B4F543
S31508004420047F15D16FF0850081E7002203F8012B80
S315080044300A46511E002AF8D100283FF478AF6FF0DB
S31508004440860074E76FF0920071E76FF085006EE7FB
S315080044506FF086006BE76FF0860070476FF0860096
S3150800446065E76FF0860062E76FF086005FE76FF03A
S3150800447085005CE76FF0850059E76FF0850056E721
S315080044806FF0960053E700BFE0590108200000804E
S315080044902DE9F0410C46154643880733072B02D908
S315080044A0DA088A4268D10688D0F80C8047683F0A3D
S315080044B02022002128460FF037FF002F5FD1002C5D
S315080044C060D041F201039E422BD0B6F5885F28D012
S315080044D0B6F5905F25D0B6F5105F26D006F44F43A3
S315080044E0B3F5824F51D1F3B2122B51D1202C52D1B0
S315080044F02D4B2B6026F0FF06B6F5E24F29D0B6F510
S31508004500824F4BD14FF40053AB6008F4864218F43F
S31508004510705322D04ABBAB6843F48063AB6000207B
S3150800452001E06C600020BDE8F081182C0BD0202C2F
S315080045300CD0102C02D06FF08600F4E710232B6005
S315080045406C600020EFE718232B60F9E720232B6027
S31508004550F6E74FF48043AB60D7E72AB1AB6823F49C
S315080045608063AB600020DEE703B1D2B9AB6823F401
S315080045708063AB600020D6E76FF08600D3E76FF064
S315080045808B00D0E76FF08600CDE76FF08500CAE7AD
S315080045906FF08500C7E76FF08500C4E76FF0860007
S315080045A0C1E76FF08500BEE720000080038803F4AA
S315080045B04F42B2F5824F12D0002321F0FF01154A6F
S315080045C0914217D002F58052914216D0A2F5885230
S315080045D0914215D0122B04D06FF085007047DBB2DC
S315080045E0EBE74388B3F5807F0DD1B1F1062F0DD1E6
S315080045F0002070476FF0860070476FF0860070479E
S315080046006FF0860070476FF0850070476FF0850081
S31508004610704700BF0003000620F0FF03164A9342C6
S3150800462016D002F58052934212D0A2F588529342D0
S315080046300ED020F4FF7222F00102B2F1062F07D045
S315080046400E498B4204D00E4B9A4201D00020704787
S3150800465010F0FF0009D040F000700A4B984206D0CF
S315080046600133984205D10320704700207047022085
S3150800467070470020704700BF0003000600090006C7
S3150800468000040006080000022DE9F0438DB0174625
S315080046901C46149E159D884659B17CB1002D39D00B
S315080046A01F4B98420FD00133984224D06FF08500F3
S315080046B01EE0002AF1D06FF0860019E0002EEDD03A
S315080046C06FF0860014E01C232B604FF002092B685C
S315080046D0B34215D803A809F0D9FDF0B9019600949C
S315080046E03B464246494603A8FEF7B0FF68B9002094
S315080046F00DB0BDE8F08320232B604FF00309E6E7F1
S3150800470000232B606FF08900F2E700232B606FF01F
S315080047109200EDE76FF08600EAE76FF09200E7E7B0
S315080047200800000218B330B58BB00D4604466C225B
S31508004730002104300FF0F8FD104B9D4205D00133DF
S315080047409D420CD06FF0850007E02046022300F852
S31508004750043B01A9FEF7BAFE60B90BB030BD20468E
S31508004760032300F8043B01A9FEF7CEFEF4E76FF039
S31508004770860070476FF09200EFE700BF080000025E
S3150800478000B583B0094B93E803000090ADF8041018
S31508004790090C8DF806106846FEF7C0FB0C20FEF7DC
S315080047A0FBFB002003B05DF804FB00BF005A0108BC
S315080047B010B582B0074A536F43F0010353670024CC
S315080047C000948DF804406846FEF7D4FA204602B0F5
S315080047D010BD00BF004000506FF0040307E003F06F
S315080047E00F010A4A0A445021117601335BB24B2B5A
S315080047F009DC002BF3DB03F1604202F5614250212C
S3150800480082F80013F1E70020704700BFFCEC00E0D7
S3150800481030B583B009F02DFC0E4B1D780E4B1C6885
S3150800482009F02BFC0AF0FFFE08B1FF2D03D154B1A5
S31508004830204603B030BD01AA064B1978002009F0BE
S31508004840B2F9019CF3E709F014FC044B1C6809F063
S3150800485014FCEDE7D0100020A02A0020A42A00208E
S3150800486010B5044609F005FC024B1C6009F005FC6E
S31508004870002010BDA42A002010B582B0012400949F
S3150800488000231A461946184604F06CFE00940023C5
S315080048901A461946184604F09FFE0348FFF7E0FF3C
S315080048A0002002B010BD00BF241000204161114B4A
S315080048B01B68CBB110B4002403E0891A41611C4679
S315080048C09B6823B15A698A42F7D9002AF5D044B1C0
S315080048D0A060836013B15A69521A5A615DF8044B95
S315080048E07047044A1060F4E7024B1860002383609F
S315080048F0704700BFB02A00200E4B1B68002201E05B
S315080049001A469B680BB18342FAD183420ED14AB14B
S315080049108368936083685BB15A6941690A445A613E
S31508004920002070478268034B1A60F3E7022070473D
S3150800493000207047B02A00200A4B1B6800220A494B
S315080049400A7005E0084B01221A70704759690A4433
S31508004950012A06D8D98811F0020FF3D19B68002BDB
S31508004960F4D17047B02A00200960002008B500F08D
S3150800497055F90B4B1B680B4A1268821A03E0521A48
S31508004980002159619B683BB132B159699142F6D30E
S31508004990891A59610022F5E7024B186008BD00BF65
S315080049A0B02A0020AC2A002010B50B4B1B685B69A7
S315080049B05BB10A4A14681C4402200AF0C9FD204665
S315080049C000F03AF9FFF7B8FF10BD02200AF0C0FD63
S315080049D0022000F087F9F5E7B02A0020AC2A00206B
S315080049E010B509F04DFB0446144B1B78DBB9144A85
S315080049F01360144A1360144A138000F0D3F8012098
S31508004A000AF0A6FD0AF0D2FD0246104B186078B1EE
S31508004A1000230F4840F2E73104F09CFE0D4B186066
S31508004A20064B01221A70204609F030FB002010BD03
S31508004A30204609F02BFB2320F9E700BF0A60002077
S31508004A40B02A0020AC2A002000600020B42A0020EA
S31508004A5018FCFFFFA82A00202DE9F843044610F0A9
S31508004A60010F04D114F0020F10D1BDE8F8834A4AA9
S31508004A7013889BB201339BB21380FFF777FF474B2E
S31508004A801B68002BEED0FFF78FFFEBE709F0F8FA6B
S31508004A900546FFF76BFF00273E4643E09B683BB1A0
S31508004AA05A692AB921791A799142F7D91C46F5E744
S31508004AB0284609F0EBFA2569002D3AD10025A846C3
S31508004AC02F46002D47D0236903B3FDB9B8EB070776
S31508004AD0A38B6BB1E28B13449BB2E383B3F57A7F66
S31508004AE006D3A3F57A73E383013FA369013BA36168
S31508004AF009F0C6FA054639462046FFF7D7FEA369E8
S31508004B0022691344A361284609F0C0FAE7880136EA
S31508004B10E36813B121682046984709F0B1FA0546BB
S31508004B20FFF724FF1D4B1C68FCB16369EBB92346EC
S31508004B30B5E7A84600F072F8A369C71AF917BD4287
S31508004B404FF000028A4104DA22691344A361012561
S31508004B50B7E70025B5E709F093FA81462046FFF73F
S31508004B60CBFE484609F092FAADE70D4B00221A70C3
S31508004B70012E06D05CB1FFF717FF284609F086FA22
S31508004B8073E717F0020FF5D001221A70F2E7022038
S31508004B9000F08CF8F1E700BF00600020B02A002082
S31508004BA00860002010B586B000248DF81440012155
S31508004BB08DF804108DF805408DF80640029403948C
S31508004BC004943E20FEF706F805A8FEF793FA8DF83A
S31508004BD0044001A92046FEF7A5FA0F212046FEF754
S31508004BE0CDFA0F212046FEF7CFFAFEF767FA094BF2
S31508004BF05B6813F0010F03D0064BDB69002BF6D177
S31508004C00044B00229A61044B0822C3F888219A6053
S31508004C1006B010BD00800A5000E100E0054B5B6855
S31508004C2013F0010F03D0034BDB69002BF6D1014BC0
S31508004C309869704700800A50F8B5044609F019FAD1
S31508004C400646FFF7EBFF05460AF07CFC0746002000
S31508004C50FEF7A0FA10F0020F04D17B1B032B01D834
S31508004C60BD420FD1631B022B00D8EC1CB4F1FF3FE9
S31508004C702CBF2246621E00210846FEF7A3FA022030
S31508004C800AF066FC304609F0F8F9064B1B783BB18A
S31508004C90054A936C43F001039364024B00221A7091
S31508004CA0F8BD00BFD110002000800A5008B510F0EA
S31508004CB0010F11D1002110F0020F09D041F00201B5
S31508004CC0064B01221A70064A936C23F0010393647B
S31508004CD00020FEF753FA08BD0121ECE7D1100020A9
S31508004CE000800A5010F0020F02D0024B02221A640A
S31508004CF0704700BF00900A50EFF305837BB9EFF3C6
S31508004D00108313B9EFF311831BB1094B1B68022BF0
S31508004D1008D0074B186840B901221A6070476FF02F
S31508004D20050070476FF0050070474FF0FF30704779
S31508004D307830002008B500F0B3FF40B103460228DA
S31508004D4006D0044B1B68012B02D0002300E0032386
S31508004D50184608BD78300020EFF30583C3B9EFF392
S31508004D60108313B9EFF311831BB10E4B1B68022B8B
S31508004D7011D00C4B1B68012B10D110B500240A4B1F
S31508004D80DC77084B02221A6000F032FD204610BD7F
S31508004D906FF0050070476FF0050070474FF0FF3061
S31508004DA0704700BF7830002000ED00E008B5EFF34B
S31508004DB0058393B9EFF3108313B9EFF311831BB18E
S31508004DC00B4B1B68022B0BD000F06AFF58B1022868
S31508004DD00BD100F049FD002009E06FF0050006E060
S31508004DE06FF0050003E0012001E04FF0FF3008BD39
S31508004DF07830002010B5EFF3058313BB0446EFF3B4
S31508004E00108313B9EFF311831BB1144B1B68022BE4
S31508004E101AD000F045FF08B1022818D1012C06D097
S31508004E20C4B900F0B1FD012804D1204610BD00F038
S31508004E301BFDFAE700F034FF0228F6D04FF0FF34E6
S31508004E40F3E76FF00504F0E76FF00504EDE74FF0C0
S31508004E50FF34EAE74FF0FF34E7E700BF7830002079
S31508004E6070B5EFF30583002B46D10446EFF31082A5
S31508004E7012B9EFF311821AB1244A1268022A3ED0F7
S31508004E8004B1636813F0010600D0012613F0080F79
S31508004E9037D144B3A16811B1E3684F2B18D891B143
S31508004EA04FF0FF337BBB16B304200AF002FE05461B
S31508004EB01DB304B124682146284600F069FBE6B113
S31508004EC045F0010519E0E3687BB14FF0FF33E9E7E8
S31508004ED026B104200AF0F8FD0546E9E701200AF0A4
S31508004EE0F3FD0546E4E70023DCE70023DAE70120C3
S31508004EF00AF0DFFD0546DBE70025284670BD0025DC
S31508004F00FBE70025F9E70025F7E700BF7830002022
S31508004F10EFF305822ABB10B503460C4620F00100C4
S31508004F2003F00101EFF3108212B9EFF311821AB1FF
S31508004F30154A1268022A17D0012B18D941B1214601
S31508004F400AF061FF012815D0B4B16FF0010012E034
S31508004F5021460AF0C3FE012811D094B16FF0010072
S31508004F6009E06FF0050070476FF0050003E06FF089
S31508004F70030000E0002010BD6FF00200FBE70020F0
S31508004F80F9E76FF00200F6E778300020EFF30582C4
S31508004F900ABB08B5034620F0010003F00101EFF350
S31508004FA0108212B9EFF311821AB1124A1268022A54
S31508004FB014D0012B15D929B10AF095FD012813D172
S31508004FC0002008BD00231A4619460AF0ECFC012801
S31508004FD00DD10020F5E76FF0050070476FF005006A
S31508004FE0EFE76FF00300ECE76FF00200E9E76FF018
S31508004FF00200E6E778300020EFF30583B3B910B571
S3150800500020F00104EFF3108313B9EFF311831BB1FA
S315080050100B4B1B68022B0CD001280DD9204600F03B
S31508005020CBFA20460AF03FFF002010BD6FF00500BE
S3150800503070476FF00500F8E76FF00300F5E700BF6B
S315080050407830002070B582B0EFF30583002B52D17B
S315080050500E461546EFF3108313B9EFF311831BB110
S315080050602B4B1B68022B4AD000284AD0B0424AD3A1
S315080050704DB1AC6814B1EB684F2B14D8002C44D151
S31508005080EB680BB138E0002301280ED06BBB314624
S315080050900AF080FC04467CB305B12D6829462046F3
S315080050A000F076FA28E00123EEE7ABB903220021E7
S315080050B001200AF047FC0446F4B1002EEBD0002389
S315080050C01A46194620460AF06EFC0128E3D0204607
S315080050D00AF0E9FE00240FE0AB68032200920022E2
S315080050E011460AF01CFC0446E6E7AA6831460AF0AF
S315080050F043FC0446CFE70024204602B070BD0024D6
S31508005100FAE70024F8E70024F6E70024F4E700BFEE
S315080051107830002070B310B582B00C468446EFF3A1
S3150800512005839BB9EFF3108313B9EFF311831BB112
S31508005130174B1B68022B09D0214660460AF0CEFDA4
S31508005140012820D00CB36FF0010011E0ACB90021A2
S31508005150019101AA60460AF06CFE012810D1019857
S3150800516030B14FF0E0234FF08052C3F8042D0020F1
S3150800517002B010BD6FF0030070476FF00300F7E749
S315080051806FF00200F4E70020F2E76FF00200EFE7A5
S315080051907830002070B300B583B08446EFF30583FA
S315080051A0ABB9EFF3108313B9EFF311831BB1164BA9
S315080051B01B68022B0BD000231A46194660460AF0D4
S315080051C0F2FB01281CD1002003B05DF804FB002384
S315080051D0019301A960460AF0D8FC01280DD101986F
S315080051E00028F1D04FF0E0234FF08052C3F8042D89
S315080051F00020E9E76FF0030070476FF00200E3E76D
S315080052006FF00200E0E700BF78300020034B036030
S31508005210034B0B60A0231360704700BF18300020B3
S31508005220982D0020034B0360034B0B60A0231360EB
S31508005230704700BF382D0020B82A002000B583B07B
S3150800524000230193044B1B680AF06EFA019B002B9E
S31508005250FCD003B05DF804FB301000204FF0E022CC
S31508005260002313619361054B1B680549A1FB0313D2
S315080052709B09013B53610723136170470C100020FB
S31508005280D34D621008B50AF04FFA044A1368013381
S315080052901360BFF34F8FBFF36F8F08BD3010002028
S315080052A008B5064B1A681A68013A1A601B6803B1F2
S315080052B008BD00200AF043FAFAE700BF30100020C4
S315080052C010B44FF0807440F8044C40F8082C1F4A7C
S315080052D040F80C2C4FF0123240F8102C4FF00332E5
S315080052E040F8142C4FF0023240F8182C4FF00132D7
S315080052F040F81C2C40F8203C4FF0113340F8243C71
S315080053004FF0103340F8283C4FF0093340F82C3C56
S315080053104FF0083340F8303C4FF0073340F8343C40
S315080053204FF0063340F8383C4FF0053340F83C3C24
S315080053304FF0043340F8403C6FF0020340F8443C19
S3150800534040F8481C48385DF8044B70473D52000841
S3150800535010B54FF0E023D3F8202D42F47F02C3F8AE
S31508005360202DD3F8202D42F07F42C3F8202DFFF7D9
S3150800537075FF0024044B1C60FAF71AFF00F080FB47
S31508005380FFF75CFF204610BD30100020124A12F0CD
S31508005390070F1ED0D11D21F00701C1F50053134494
S315080053A00A460E480260002141601344083B23F078
S315080053B007030B48036059601960991A5160136016
S315080053C0084B1960084B1960084B4FF000421A60E9
S315080053D070474FF40053E4E79C30002094300020D7
S315080053E090300020883000208C3000207C3000204F
S315080053F0164B1A461B688342FBD3516802EB010C15
S31508005400844509D0416800EB010C634509D0036067
S31508005410904219D0106070474068014451601046A8
S31508005420F0E710B40A4C2468A3420BD05B68194411
S31508005430416013681B680360904200D010605DF8F5
S31508005440044B70470460F7E7704700BF94300020AC
S315080054509030002038B5044600F006FA304B1B6839
S31508005460DBB1304B1B681C424AD1631E13F10A0F8D
S315080054704BD804F1080214F0070F05D022F00703F1
S315080054800833934243D91A46002A42D0264B1B6852
S31508005490934240D325490C6804E0FFF777FFE0E71D
S315080054A021461C466368934202D22368002BF7D133
S315080054B01B4B1B68A34230D00D68083523680B6068
S315080054C063689B1A102B15D8626817490B689B1AD4
S315080054D00B60174909688B4201D215490B60114BBD
S315080054E01B681343636000232360124A1368013361
S315080054F0136006E0A01843606260FFF779FFE3E7F0
