S01C00006275696C642F64656275672F67656E657261746F722E7333379C
S31508000000001000209D02000865790008657900083F
S31508000010657900086579000865790008657900083A
S31508000020657900086579000865790008657900082A
S31508000030657900086579000865790008657900081A
S31508000040657900086579000865790008657900080A
S3150800005065790008657900086579000865790008FA
S3150800006065790008657900086579000865790008EA
S3150800007065790008657900086579000865790008DA
S3150800008065790008657900086579000865790008CA
S3150800009065790008657900086579000865790008BA
S315080000A065790008657900086579000865790008AA
S315080000B0657900086579000865790008657900089A
S315080000C0657900086579000865790008657900088A
S315080000D0657900086579000865790008657900087A
S315080000E0657900086579000865790008657900086A
S315080000F0657900086579000865790008657900085A
S315080001006579000865790008657900086579000849
S315080001106579000865790008657900086579000839
S315080001206579000865790008657900086579000829
S315080001306579000865790008657900086579000819
S315080001406579000865790008657900086579000809
S3150800015065790008657900086579000865790008F9
S3150800016065790008657900086579000865790008E9
S315080001700348044B834202D0034B03B11847704728
S31508000180A8240020A824002000000000064B0749E8
S31508000190C91A891048BF0131491003D0044B0BB165
S315080001A001481847704700BFA8240020A82400204B
S315080001B00000000010B5064C237843B9FFF7D8FFB6
S315080001C0044B13B10448AFF300800123237010BD1C
S315080001D0702E002000000000D4E6000808B5054B84
S315080001E01BB105490548AFF30080BDE80840FFF795
S315080001F0CDBF00BF00000000F8240020D4E60008A8
S31508000200A3F5803A704700BF174B002B08BF134B66
S315080002109D46FFF7F5FF00218B460F461348144A03
S31508000220121A0CF093FD0E4B002B00D098470D4B7D
S31508000230002B00D098470020002104000D000D482F
S31508000240002802D00C48AFF3008005F02FFD2000EF
S3150800025029000CF0C2FC05F01DFC00BF00000800D8
S31508000260000000000000000000100020A824002064
S315080002707456002000000000000000000346054AEE
S315080002800549106803448B428CBF4FF0FF3013605A
S31508000290704700BF041000200000022008B500F0D7
S315080002A02DF8124B12498B4212D30020114B1249DA
S315080002B08B4218D3FFF7A8FF186850F822405868F1
S315080002C040F82240013298688242F5D30C33EAE7B7
S315080002D00022F8E71C6844F8220001325C68A24252
S315080002E0F8D30833E4E70022F8E700BFDCE60008A5
S315080002F0E8E60008E8E60008E8E600084FF480416A
S315080003004FF0FF30114B124A10B59A60D3F8882087
S3150800031042F47002C3F888200E4A91660E4901F528
S31508000320005210660D4850660220C3F8D000BFF38D
S315080003304F8FBFF36F8F01244FF440330848C0F83E
S315080003408041D36004600B6110BD00BF00ED00E082
S31508000350000000080090005000800044F7FF3700B6
S3150800036000E100E070B59400224605460E460DF001
S31508000370B3FA431C0AD058B92246314628460CF02F
S31508000380BBFC0028034808BF002070BD0248FCE7F4
S315080003900248FAE710E000F021E000F024E000F05F
S315080003A010B504460DF094FA431C10D088B900F035
S315080003B05BF8234620F003002044984201D1002030
S315080003C010BD53F8042B0132F7D00348F8E7034869
S315080003D0F6E70348F4E700BF0EE000F021E000F07E
S315080003E024E000F008B507F0EFFA014B186008BDE5
S315080003F0C0250020014B186807F0EABAC02500207E
S315080004004FF48032054B9A6641F6713203F51C3378
S31508000410DA63012203F50053DA6070470090005052
S3150800042041F671320121064BDA6303F50052D160B9
S315080004300022DA634FF48032A3F518339A667047C0
S31508000440000003504FF48032064B5A6603F5E62344
S315080004509B69C3F38512827003F03F021B0B42703F
S3150800046003707047009000500120034B9B680A33C5
S3150800047003F01F03984070470080E00F08B5B0B13D
S315080004804FF480620B4B9A6607F0C2FA4FF0984316
S315080004905A6CD202FCD54FF48062586D064B10F4A4
S315080004A070209A6604D0BDE8084007F0D0BA21202B
S315080004B008BD00BF0090005000A000502DE9FF477E
S315080004C04FF000080E4617460446CDF8008000286F
S315080004D059D022B90025284604B0BDE8F08700297E
S315080004E051D032F0030902F0030A1FD04FF0E0633F
S315080004F0C0E9003801230191C0F808800293C0F8CA
S315080005001C8049F0005301A9039307F06EFA494687
S31508000510204607F074FA2046FFF7B0FF054628B1D3
S315080005204A46414630460CF011FCD4E7BAF1000FB2
S31508000530D0D04FF000084FF0E063C4E9003801233B
S31508000540CDF804D00293114B204601A9C4F80880BF
S31508000550C4F81C80039307F048FA0421204607F0E4
S315080005604EFA2046FFF78AFF054608B13A46D8E70D
S31508000570009A4E44EB00013522FA03F3AA4506F821
S31508000580013BF7D1A6E72125A5E700BF0400002017
S315080005902DE9F041904602780C46022A8AB032D0FC
S315080005A0032A35D0012A38D114271D4A00F10C0533
S315080005B0226000229E01C4E90122E26131462046FA
S315080005C007F01DFA0123204647F0005704A946F014
S315080005D00056CDF804800293039604950593069772
S315080005E007950893099707F0F6F9204601A907F039
S315080005F0F2F9204607A907F0F8F92046FFF73EFF6B
S315080006000AB0BDE8F0812027064A00F10C05CFE7BD
S315080006102027054A00F10C05CAE72120F0E700BFAC
S3150800062000020103000301030004010310B591B1A0
S3150800063088B10023C0E90133084B00F10C0203F12D
S31508000640200153F8044B8B4242F8044BF9D102239C
S315080006500370002010BD2120FCE700BF01D9000867
S3150800066010B591B188B10023C0E90133084B00F1F8
S315080006700C0203F1200153F8044B8B4242F8044B59
S31508000680F9D103230370002010BD2120FCE700BF29
S3150800069022D900082DE9F04F0D46914604468BB045
S315080006A000285ED000295CD0002A5AD00278022A97
S315080006B00CD0032A4DD0012A53D114262B4900F118
S315080006C00C0B00F104082C34374607E020261C27BB
S315080006D0274900F10C0B00F104082C349F4240D83E
S315080006E0D8F80420002A3ED1D8F80030284603F06E
S315080006F03F0AC5E90012AA60EA61514607F07FF988
S315080007002846D8F8001007F07AF901224AF0005373
S31508000710284601A946F0005647F00057CDF804B020
S3150800072002920396049405920693CDF81C900892BB
S31508000730099707F050F9284604A907F04CF9284606
S3150800074007A907F052F92846FFF798FE0BB0BDE84F
S31508000750F08F2026074900F10C0B00F104082C3411
S31508000760B2E72120F2E70F20F0E700BF00020303FB
S3150800077000030303000403032DE9F04387B00D4685
S3150800078091461E460446DDF83880002836D0B8F172
S31508000790000F33D002B98BBB6B1EDBB2022B2DD8F0
S315080007A0174AD75C0F9B9F4228D80023280200F1DE
S315080007B0407000F580703146C4E901332060E3617A
S315080007C0204607F01CF901236946204646F00056E4
S315080007D047F00057CDF8009001930296CDF80C80AB
S315080007E00493059707F0F7F8204603A907F0FDF8E4
S315080007F02046FFF743FE07B0BDE8F0832120FAE75D
S3150800080043D90008F0B50F4616461D46044693B070
S3150800081010B9212013B0F0BD0029FAD0002AF8D06B
S31508000820002BF6D0002331461A46384607F0F5F96C
S315080008300028EFD1304602A907F09CF90028E9D133
S3150800084038683449029A88426B695ED19342E0D38C
S315080008502B68002BDDD14FF060623846C4E90023CF
S31508000860A360E36101A907F033FA0028D2D1019900
S31508000870204621F4F061019107F0C1F8694628463F
S3150800088007F026FA0028C5D12046009907F0B7F8E0
S31508000890384609A907F0CAFA0028BBD1204609A993
S315080008A007F099F838460CA907F0CBFA0028B1D119
S315080008B020460CA907F08FF8EB684BB1284606A925
S315080008C007F0B4FA0028A5D1204606A907F083F850
S315080008D0304603A907F0B5FA00289BD1204603A99C
S315080008E007F079F828460FA907F0ABFA002891D146
S315080008F020460FA907F079F803252046FFF7BEFD25
S31508000900012887D1013DF8D184E7B3EB420F9FD286
S315080009107FE700BF200000B070B50E4615460446B6
S315080009208AB000285CD000295AD0002A58D0012362
S3150800093029461A46304607F070F900284ED1B368A2
S3150800094013F4C04F4CD0AB6803F4C043B3F5005F53
S3150800095046D1254BA060C4E90030E06107A93046BE
S3150800096007F0B6F9002839D12046079907F047F865
S31508000970012302934FF00053204601A9039307F081
S315080009802AF8304604A907F05CFA38BB204604A9C1
S3150800099007F021F8EB681BBBAB6803F4C043B3F55B
S315080009A0005F1DD16946284607F007F9B0B9009BD4
S315080009B06A699A4216D32A6943F0005307920122BC
S315080009C0204607A908920325099307F00EF8204642
S315080009D0FFF754FD012801D1013DF8D10AB070BDD9
S315080009E02120FBE71D20F9E7000001022DE9F0436D
S315080009F091B00D46DDE918760446DDF868800028D2
S31508000A006DD000296BD0002F69D0B8F1000F66D0E1
S31508000A10096801F07041B1F1404F5BD0002B5BD102
S31508000A20531E022B5BD8120202F1C06202F58072D5
S31508000A3000232846C4E901332260E3610DA907F0C3
S31508000A4047F9002843D120460D9906F0D8FF3146CC
S31508000A50204606F0D4FF284601A907F0E7F9002842
S31508000A6035D1204601A906F0B6FF284604A907F0A5
S31508000A70E8F960BB4FF00109204604A906F0ABFF70
S31508000A8046F00056204607A90797CDF82090099604
S31508000A9006F0A1FF2B680A9703F07043B3F1404FA5
S31508000AA0CDF82C900C9603D120460AA906F093FFA0
S31508000AB00123CDF834800E931B9B204643F0005348
S31508000AC00DA90F9306F091FF2046FFF7D7FC11B04A
S31508000AD0BDE8F083034AABE74FF0C062A8E72120E0
S31508000AE0F5E700BF000002062DE9F0418CB00D467F
S31508000AF0DDE912860446149F002867D0002965D0D0
S31508000B00B8F1000F62D0002F60D0896889045DD5DE
S31508000B10296801F07041B1F1404F4DD0002B4DD1FD
S31508000B20531E022B52D82A4B03EB022200232846D7
S31508000B30C4E901332260E36109A907F0C9F800286E
S31508000B4037D12046099906F05AFF3146204606F065
S31508000B5056FF6946284607F069F950BB694620469C
S31508000B6006F039FF284603A907F06BF908BB2046AB
S31508000B7003A906F030FF012346F00056CDF8188089
S31508000B800793089609970A93159B43F000530B930E
S31508000B902B6803F07043B3F1404F11D109A92046E1
S31508000BA006F019FF06A9204606F015FF2046FFF7AE
S31508000BB065FC0CB0BDE8F081064AB7E7064AB5E71A
S31508000BC006A9204606F007FF09A9ECE72120F0E769
S31508000BD000010106000003060000010608B5064AE2
S31508000BE0064B00290CBF1146194600F019FCBDE852
S31508000BF0084007F079B900BF0900000208000002A2
S31508000C00012300F01F02A0F506200949A0F550604F
S31508000C104009934051F820201A4341F820200549FD
S31508000C2051F8202022EA030241F82020704700BF2D
S31508000C30D8250020C42500200121A0F506230E4A48
S31508000C40A3F550635B0900F01F00814052F82300AA
S31508000C50014342F823100949D1E900300344886862
S31508000C600344C868096903445B1802BFC2E9003334
S31508000C70C2E9023313617047C4250020D825002035
S31508000C802DE9F04FA9B003921E4604460822339F69
S31508000C90CDE90401414021FA02F34B40980702F1DD
S31508000CA0080218BF9B00202A1C44F4D18123B4FBF8
S31508000CB0F3F303EBC313E41A734B04F506241B780A
S31508000CC004F55064002B3ED104F018FD054620B10A
S31508000CD06FF0910029B0BDE8F08F0146402208A8C0
S31508000CE00CF034F84022294618A80CF02FF8DFF843
S31508000CF0B481DFF8B491C3460BF10F0ACDF800A012
S31508000D005B461022D9F8000008A90CF044FC002321
S31508000D10024608F1100808AD9A4244D1CDF800A061
S31508000D205B461022D9F8000018A90CF03DFC4FF0DC
S31508000D30000A834618ADD3453FD1544B9845DAD1BE
S31508000D400122514B1A704FF081080025DFF85CB17B
S31508000D50A4F50623A3F550635B095BF8232004F08A
S31508000D601F01CA40D2073BD4494A52F82330CB4028
S31508000D70DB0729D5002D08BF25468123A4F50724BE
S31508000D80A4F2FF44B4FBF3F303EBC313E41A04F52C
S31508000D900624B8F1010804F55064D9D1039BABB118
S31508000DA0A5B12C4618E055F8040BCDE90623FFF744
S31508000DB027FF079B069A0133AEE755F8040BFFF7A2
S31508000DC03BFF0AF1010AB6E7039B13B96FF08B00E4
S31508000DD080E7002D18BF2C46349B00201C6079E75D
S31508000DE0329B13B10023329A13600FB100233B6084
S31508000DF04FF0100ADFF8B090CDF800A00023324675
S31508000E002146D9F8000006F085FB60BB32993268A6
S31508000E10204BC9B99A4206D02146D9F8000006F0F7
S31508000E2013FC0028D2D1D6E90223DDE90410834257
S31508000E3008BF8A42A1D1039B002BCDD07368012B32
S31508000E40CAD16FF0840045E732999A42C1F800A0EA
S31508000E50E2D1002FE7D03B462146D9F8000018AA70
S31508000E6006F0ACFB48B10C4B9842D5D00B4B9842D8
S31508000E70D2D00B4B9842D6D02AE7329A3B681268F2
S31508000E809B1A3B60CFE700BF712E00200071080057
S31508000E90C4250020105D175EFFDF00F011E000F0AA
S31508000EA0FEDF00F0006D080040190020D82500205C
S31508000EB02DE9F04F87B08246894698461646DDF8F2
S31508000EC040B02AB1002B4FD040F26C739A424ED8EC
S31508000ED0BBF1010F4ED8002406F110073946012050
S31508000EE0059407F038FD0546002846D021463A46BF
S31508000EF00BF02CFF05ABCDE9014300942B460122EC
S31508000F0050464946FFF7BCFE044680B110F18C0FE7
S31508000F1008BF6FF08D043A46002128460BF016FFED
S31508000F20284607F028FD204607B0BDE8F08F144B89
S31508000F30C5E902A92B60C5F804B02EB13246414670
S31508000F4005F110000BF00CFF059E0E483B462A469D
S31508000F503146006806F046FA18B93046FFF750FEE3
S31508000F60D9E76FF09104D6E76FF08604DBE76FF0F8
S31508000F709104D8E76FF08504D5E76FF08C04D2E7C3
S31508000F80105D175E401900202DE9F0438DB08146AB
S31508000F90DDE914780E4615461C469BB1B8F1000FDC
S31508000FA005D16FF0860630460DB0BDE8F083002FF8
S31508000FB0F7D0B7F1005FF4D3C3F1005303F500335C
S31508000FC09F42EED81022002108A80BF0BFFE00228F
S31508000FD007AB029305AB019306AB3146009348462F
S31508000FE008ABCDE90522FFF74BFE06460028DAD105
S31508000FF0059BA4B1AB4215D853EA0504D1D1069B8B
S315080010000B48C8F8004000943A46079900682B44F4
S3150800101006F080FA002818BF6FF09106C3E7AB42C6
S31508001020EDD2BEE75B1B9C4228BF1C46E7E700BF24
S315080010304019002030B58DB00C4605461022002117
S3150800104008A80BF083FE002207AB029305AB0193B9
S3150800105006AB21460093284608ABCDE90522FFF7E3
S315080010600FFE0446D8B9099B012B1BD0079D104BD0
S315080010702946186806F0E8FAB8B90122A5F5062344
S315080010800C49A3F550635B0905F01F00824051F82F
S3150800109023004240284641F82320FFF7CDFD20468D
S315080010A00DB030BD6FF08404F9E76FF09104F6E7F0
S315080010B040190020D8250020F8B5134642880C466A
S315080010C00732072A4FEAD20101D0A1424DD146681C
S315080010D00588C7682022184600210BF037FE360A15
S315080010E00346002E44D1002C3FD041F2010295421E
S315080010F005D0B5F5885F02D0B5F5905F02D15C6082
S31508001100002011E0B5F5105F07D1182C03D0202C6C
S3150800111001D0102C29D11C60F1E705F44F42B2F535
S31508001120824F02D06FF08500F8BDEAB2122AF9D1D3
S31508001130202CF7D1104A25F0FF05B5F5E24F0260DD
S315080011400CD0B5F5824F10D14FF4005217F4705FEA
S3150800115009D017F4864F04D09A60E3E74FF480422B
S31508001160F4E742F480629A60CAE76FF08600DBE72C
S315080011706FF08B00D8E700BF200000802DE9F04F04
S3150800118099460388164603F44F42B1B0B2F5824F2A
S315080011900F46DDF8F08002D06FF0850002E021B935
S315080011A06FF0860031B0BDE8F08F002EF8D0B8F1A8
S315080011B0000FF5D0DAB2122AEED123F0FF03B3F509
S315080011C0E24F34D14388C8F800305BBBF300C8F857
S315080011D00030B3F5807FDFD1002318464F49BC198C
S315080011E0314411F8015D14F8012D1043521B0CBF50
S315080011F04FF0FF350025A74203EA050343EA020339
S31508001200EFD10028CCD0002BCADA3A9B9E4200F2D6
S3150800121081803246394648460BF0A2FD3B9B0020AA
S315080012201E60BFE7DA1DB6EBD20FD2D0B8E7B3F52A
S31508001230824F6CD10B78042BB2D12022002168464C
S315080012400BF084FD684606F030FC824600285BD128
S3150800125001463C22209021A80BF078FD202201238C
S315080012604FF0400B51460DEB0200741E8DF880308E
S315080012700BF06CFD7B1C202251460D9410A8E4004F
S315080012800C9320AD0BF062FD64082022514618A885
S315080012901495CDF854B00BF059FDB4F5C07FCDE9DF
S315080012A01C5BC8F800403FF477AF28D8E02C03D081
S315080012B0B4F5807F7FF474AF194B07340893109305
S315080012C04FF400530A934FF48043E408129308AA94
S315080012D018AB6846640010A91994FFF793FAD8F872
S315080012E000300733DB085A0033B10021531E013B97
S315080012F0297005F10105FAD2002886D050E7B4F521
S31508001300047F3FF449AF4BE76FF092004AE76FF06E
S31508001310960047E76FF0890044E700BF46D9000802
S3150800132020000080134A20F4FF7323F00103934240
S315080013300ED0114B20F0FF029A4209D00F4920F433
S315080013407F7323F003038B4202D00D4B9A420DD1D3
S3150800135010F0FF000DD00B4B40F00070984207D0FC
S31508001360013398420CBF03200020704700207047C5
S31508001370022070470002000600130006000400065B
S3150800138000090006080000022DE9F0478AB0174652
S31508001390DDE9129498460E4609B9002A3BD1B8F100
S315080013A0000F0CD1B9F1000F35D1A4B31B4B9842ED
S315080013B012D0013398420FD06FF0850010E054B375
S315080013C0164B98420FD001339842F5D120234FF09F
S315080013D0030A994523600AD200236FF08900236027
S315080013E00AB0BDE8F0871C234FF0020AF1E702A80D
S315080013F006F05BFB054610B16FF09200F0E73B463E
S3150800140032465146CDE9008902A8FFF7B5F900280A
S31508001410E6D02560F0E76FF08600E1E708000002F5
S3150800142030B50D46044689B000B3031D6C22002171
S3150800143018460BF08BFC0F4A954206D001329542AE
S315080014400ED06FF0850009B030BD022269462270C1
S31508001450FFF7ECF8002814BF6FF092000020F2E7BF
S31508001460032269462270FFF7FBF8F3E76FF0860060
S31508001470E9E700BF0800000210B5044606F0A4FA22
S31508001480024B1C6006F0A4FA002010BDEC250020D3
S3150800149010B506F099FA034B1C6806F099FA20462F
S315080014A010BD00BFEC25002013B5002301241A4601
S315080014B019461846009403F04DFC002300941A467A
S315080014C01946184603F076FC0248FFF7D5FF0020B8
S315080014D002B010BD0C10002070B586B0CDE90432FC
S315080014E005460E461046002110221C460BF02EFC1F
S315080014F004AB0393064BFF22029300233146CDE942
S3150800150000332846E3B207F029FB06B070BD00BFDA
S315080015109189000870B50C460646114620461A46BB
S3150800152008F0D9FA054698B9736E33B921462046AC
S31508001530321DBDE8704008F00DBD2368002B09DB9D
S31508001540204607F05DFFB36DB0EB430F09D9184D80
S31508001550284670BD0146204608F0CDF80028EFD091
S31508001560F5E72046736E984705460028F0D10436FD
S315080015702368002B04DA0021204608F0BCF868B975
S315080015803146204608F076F80028E1DB3246214647
S31508001590204608F01DF90028F2D006E0324621461A
S315080015A0204608F084F90028E2D00546D0E700BFB7
S315080015B080B0FFFFF0B514461F46054687B003A85E
S315080015C00E4607F046FE2346022100972A1D03A869
S315080015D008F06FFD044648BB06F118021146284676
S315080015E003ABFFF797FF044600BB06F10C073A4624
S315080015F03946284603ABFFF78DFF0446B0B903AB5F
S315080016001A4619462846FFF785FF044670B932463A
S315080016103146284603ABFFF77DFF044630B93A4604
S315080016203946284603ABFFF775FF044603A807F0BB
S3150800163016FE034814F10E0F18BF204607B0F0BD7A
S3150800164000B3FFFF0246044803780BB918467047F3
S315080016509342FCD00C30F7E770D900082DE9F14F1A
S315080016609A461B6A04460E4691460A9D1BB972485D
S3150800167001B0BDE8F08F02F118070021384608F0DE
S315080016803AF830B95146304601B0BDE8F04F09F096
S3150800169056BA0AF118080021404608F02CF808B98D
S315080016A04946F0E70121404608F025F80028DED132
S315080016B03B463A4629462046FFF72CFF0028D7D155
S315080016C005F10C083B462A4641462046FFF722FF0D
S315080016D00028CDD153462A4629462046FFF71AFF49
S315080016E00028C5D14246414620460AF10C03FFF7B9
S315080016F011FF0028BCD14B462A462946204609F048
S3150800170011F80028B4D109F10C0B5B464246414654
S31508001710204609F007F80028AAD10021284607F034
S31508001720EAFF014690B9404607F0E5FF40B92B4667
S315080017304A463146204601B0BDE8F04F09F06EB87A
S31508001740304601B0BDE8F04F09F012BA2B463A46CA
S31508001750204606F11801FFF7DDFE002888D105F1BD
S3150800176018072B462A4639462046FFF7D3FE002897
S315080017707FF47EAF05F1240A2B463A4651462046A9
S31508001780FFF7C8FE00287FF473AF4B463A46394642
S315080017902046FFF7BFFE00287FF46AAF3946284681
S315080017A007F0B1FD00287FF463AF2946204609F00B
S315080017B026F800287FF45CAF434642463146204669
S315080017C0FFF7A8FE00287FF453AF2B463246314672
S315080017D0204608F0A7FF00287FF44AAF5346324652
S315080017E03146204608F09EFF00287FF441AF334675
S315080017F03A463946204608F095FF00287FF438AF68
S3150800180043463A4639462046FFF784FE00287FF4C9
S315080018102FAF5B46524651462046FFF77BFE00280F
S315080018207FF426AF53463A46204606F10C0101B02E
S31508001830BDE8F04F08F076BF80B0FFFF2DE9F0470E
S315080018408246DDE9084904301F460E46904607F0F1
S31508001850F5FD0546504609F0E7F80128824602D00C
S315080018601F48BDE8F087002106F1180007F043FF7E
S3150800187040B9B9F1000F01D11A48F2E72070C7F84C
S3150800188000A0EEE7B8F1000F17D16B0001334B4506
S315080018903B60F1D8214604232A46304601F8013B2D
S315080018A007F0F3FD0028DCD12A46691C214406F11D
S315080018B00C00BDE8F04707F0E8BDB8F1010FCFD13D
S315080018C06B1C4B453B60D7D8002106F10C0007F08E
S315080018D06AFD2146023001F8010B2A463046E8E740
S315080018E080B1FFFF00B1FFFF2DE9F04180460C46AD
S315080018F016461F4613B91A48BDE8F081043007F0AA
S315080019009DFD0546404609F08FF80128804625D1F9
S31508001910337833B9012FEED12046BDE8F04109F0FE
S3150800192027B9042B1AD16B000133BB42E3D12A46EF
S315080019302046711C07F088FD0028DDD1691C2A465F
S31508001940314404F10C0007F07FFD0028D4D141464C
S3150800195004F11800BDE8F04107F009BD0148CBE7DE
S3150800196080B0FFFF80B1FFFF2DE9F0410E46054626
S31508001970012186B006F1180007F0BDFE044650B9ED
S31508001980284609F051F8012879D12146304607F052
S31508001990B2FE002801DA3B4C6DE006F10C08214640
S315080019A0404607F0A8FE0028F5DB2F1D39463046CD
S315080019B007F060FE0028EEDA3946404607F05AFE80
S315080019C00028E8DA684607F044FC03A807F041FC5B
S315080019D04346424669462846FFF79CFD04460028CA
S315080019E043D133463246284603A9FFF793FD0446FA
S315080019F000283AD1AB6973BB03A90322084607F04E
S31508001A009BFF044688BB039B002B04DA002103A82E
S31508001A1007F071FEC8B903AA334611462846FFF7F0
S31508001A2079FD044608BB03AA1146284605F11C039E
S31508001A3008F068FE0446C0B9684603A907F01AFE0E
S31508001A40104B041E18BF1C460FE003A93A46084669
S31508001A5007F02DFFD5E703AA1146284605F110031E
S31508001A6008F050FE04460028D5D0684607F0F7FB74
S31508001A7003A807F0F4FB204606B0BDE8F081024C47
S31508001A80F9E700BF80B3FFFF80B0FFFF38B5054612
S31508001A9008F0CAFF01280C4601460DD1204607F07A
S31508001AA02AFE002806DB204605F14C0107F0E2FD78
S31508001AB0002803DB024838BD0248FCE70020FAE7A5
S31508001AC080B3FFFF80B0FFFF2DE9F04FBBB0029156
S31508001AD01146064692469946FFF7D8FF044600285F
S31508001AE040F09D8149463046FFF73EFF04460028F0
S31508001AF040F09581304608F097FF012840F09A811A
S31508001B00F36D2421013302204FEA530806F023FF20
S31508001B100546002800F08C8105F1240708F08DFFA2
S31508001B20384608F08AFF0DF1640B0BEB04000C3401
S31508001B3007F08FFB302CF8D14946284608F0FFFFFE
S31508001B400446A0BB8146C8451ED13946304608F032
S31508001B505DFD044658BB3B462A4639463046CDF815
S31508001B6000B0FFF77BFD044608BB3946304608F04F
S31508001B704DFD0446D8B905F1180007F070FB05F1CC
S31508001B803C0007F06CFB12E0B9FBF8F3012202FAFD
S31508001B9003F1242208FB1393C9B202FB0152FBB1DD
S31508001BA01146304619AB08F039FE044630B34FF0FB
S31508001BB000090BEB090009F10C0907F050FBB9F114
S31508001BC0300FF6D1ECB1736F9D422CD0284608F041
S31508001BD071FF384608F06EFF284606F0CCFE22E074
S31508001BE0490801EBC101104605EB8101039208F093
S31508001BF0A6FF039A04460028D2D0D8E709F10109BE
S31508001C00A1E704A807F025FB06F14C0B0DA807F081
S31508001C1020FB2146584607F0C6FB012811D0736FF2
S31508001C209D4204D1844C029808F044FFF7E0284608
S31508001C3008F040FF384608F03DFF284606F09BFEB0
S31508001C40F0E72146504607F0AEFB5146814604A808
S31508001C5007F059FB044630B10DA807F000FB04A8AD
S31508001C6007F0FDFAAFE7524659460DA807F041FEC0
S31508001C7004460028F0D1B9FA89F94FEA59194A46B3
S31508001C800DA904A808F02DFC04460028E4D1014655
S31508001C9008F1010219A80DF1640B0BF057F8A246DA
S31508001CA05B46D04503935CD0514604A807F07BFBFE
S31508001CB0039B08EB0A011C780AF1010A044304A8ED
S31508001CC007F071FBE4B2039B44EA400403F8014BB6
S31508001CD0E7E79BF801009BF8003080EA020C6FEA00
S31508001CE00C0101F0010113FB01F3104003EA0C0299
S31508001CF083EA0C030BF8013F1BF8013C024343EA55
S31508001D00C1130BF8013C0134A245E2D20DA807F035
S31508001D10A6FA04A807F0A3FA04A808F08EFE002481
S31508001D200DAB18190C3407F094FA302CF8D10AF1D7
S31508001D30E8036B442A46304613F8843C029908F0B7
S31508001D401DFD044600282FD1449B002B6BD0DDE9EE
S31508001D50442330460299FFF72DFC002863D0044639
S31508001D6022E000220124CFE7029A43461146304674
S31508001D700AF1FF3A08F052FD0028F0D12A4630460B
S31508001D801BF80A3004A908F0F9FC0028E7D1029AE2
S31508001D9030461146CDF8008004ABFFF75FFC0028FB
S31508001DA0DDD1BAF1000FDFD104A808F0D9FC4FF055
S31508001DB000080DAB03EB080008F10C0807F04FFA12
S31508001DC0B8F1300FF5D1002C7FF4FDAE4A46304607
S31508001DD0029908F05FFC044600287FF4F4AE449BA1
S31508001DE04BB1DDE9442330460299FFF7E3FB04468D
S31508001DF000287FF4E8AE3046029908F007FC736FB6
S31508001E0004469D4208D0284608F054FE384608F095
S31508001E1051FE284606F0AFFD002C7FF404AF20469D
S31508001E203BB0BDE8F08F0DF134080DF1640BB8E74F
S31508001E30024CF8E6004CF2E780B0FFFF80B2FFFFE5
S31508001E4030B4DDE9024524B1CDE9024530BCFFF7DF
S31508001E503BBE014830BC704780B0FFFF73B50546EE
S31508001E601E4608F0E1FD01280C4601460ED1134630
S31508001E702046009605F14C0208F01BF9044B10F1B8
S31508001E800E0F18BF0346184602B070BD014BFAE79D
S31508001E9000B3FFFF80B0FFFF2DE9F0410D46014674
S31508001EA028461746984600F08DF80446B0B92846E5
S31508001EB008F0BAFD012805F17C0612D142463946DA
S31508001EC0304607F0C1FA044628B931462846FFF7D6
S31508001ED0DDFD044610B1304607F0C1F92046BDE8DD
S31508001EE0F081014CF7E700BF80B1FFFF10B504464B
S31508001EF008F09AFD012805D104F17C00BDE81040E0
S31508001F0007F0C3BA004810BD80B1FFFF2DE9F047BE
S31508001F109A46037805460C461646AAB023B9284CB5
S31508001F2020462AB0BDE8F0870A789A42F7D101F12F
S31508001F3088094946883007F09DFB0028EFD104F14F
S31508001F409408414605F1940007F094FB0028E6D171
S31508001F5004F1A007394605F1A00007F08BFB00281D
S31508001F60DDD102A808F069FD0BA808F074FD21462A
S31508001F700BA808F0FAFD04F1280304F17C02CDE968
S31508001F80006A02A90BA808F010FE044680B9494663
S31508001F9002A807F06FFB50B9414605A807F06AFB8F
S31508001FA028B9394608A807F065FB044600B1044C71
S31508001FB002A808F0D5FB0BA808F080FDB0E700BF23
S31508001FC080B0FFFF38B504460D4608F077FD204679
S31508001FD008F041FD032D257027D101250823154A50
S31508001FE0C4E90153E260144AC4E90753C4E9135328
S31508001FF0C4E90A536262A363104A114B6265C4E9D5
S315080020000F35104A104BC4E90C25A3646564201DDE
S3150800201007F0F6F9A06504F14C0007F0F1F9C4E9F8
S3150800202017050020C4E91D0038BD002307482370A2
S31508002030FAE700BF08DA0008E8D9000888D90008D6
S31508002040A8D90008C8D900081810002080B1FFFFD9
S31508002050032804D00428034818BF00207047024804
S31508002060704700BF28DA000830DA000838B5054698
S31508002070084C206810B90446204638BD6B6862686B
S315080020809A4204D1A9680AF037FE0028F4D014341D
S31508002090EFE700BF60E1000870B50E46054610B1CF
S315080020A0094C206810B96FF02D0070BD6B68626826
S315080020B09A4203D1A9680AF01FFE08B11434F0E762
S315080020C023693360F1E700BF9CE1000870B5094C4D
S315080020D0256815B96FF02D0009E0667C864207D1A0
S315080020E0267C8E4204D10020156062681A6070BD95
S315080020F01434EDE760E1000870B50E46054610B1E8
S31508002100094C206810B96FF02D0070BD6B686268C5
S315080021109A4203D1A9680AF0EFFD08B11434F0E732
S31508002120237C3370F1E700BF10E1000830B5084B97
S315080021301C6814B96FF02D0006E01D7C854204D199
S3150800214000205B680C60136030BD1433F0E700BFF5
S3150800215010E1000870B50E46054610B1094C206816
S3150800216010B96FF02D0070BD6B6862689A4203D192
S31508002170A9680AF0C1FD08B11434F0E7237C33706E
S31508002180F1E700BFE8E0000830B5084B1C6814B951
S315080021906FF02D0006E01D7C854204D100205B68A7
S315080021A00C60136030BD1433F0E700BFE8E00008A8
S315080021B02DE9F04F0F460021054687B008460093E3
S315080021C090469B46134605AA109E06F077FF2846BA
S315080021D00AF0D3FD044638460AF0CFFD05994B1C94
S315080021E003EB911323441844119B984207D96FF0C7
S315080021F02908129B1860404607B0BDE8F08F39B130
S31508002200012006F0A8FB044618B9DFF8A080F2E71B
S315080022100C46434620460599CDF800B005AA06F0B7
S315080022204DFF804618B1204606F0A5FBE3E7284691
S315080022300AF0A3FD2946024630460AF091FD2846D3
S315080022400AF09BFDA1464FF00A0A3518DDF814B0CE
S31508002250BBF1000F18D138460AF08FFD3946024601
S3150800226028460AF07DFD38460AF087FD02462B18F7
S31508002270581C129B05F802B0821B1A60119B59461E
S315080022809A1A0AF063FDCEE75A46402A28BF40222A
S315080022904946284603920AF063FD039AABEB02000F
S315080022A015440590914405F801ABCFE780EEFFFF92
S315080022B00238C0B202289ABF024B53F82000002009
S315080022C0704700BF28E2000870B505460E4641B1C2
S315080022D0046834B94B6A9847686020B120462E6076
S315080022E070BD0248FCE70248FAE700BF80C1FFFF5D
S315080022F080C0FFFFF0B505468BB00E4624220021AC
S3150800230001A80AF023FD1DB9144C20460BB0F0BDF8
S315080023102B68002BF8D1304601A909F0CEF80446FF
S315080023200028F1D1BDF8047001A809F0D3FA27F006
S31508002330FF03B3F5E24F0BD047F201039F4209D1E1
S31508002340074F7B6A9847686030B12F600660DCE704
S31508002350044FF6E7044CD8E7044CD6E780C1FFFFE4
S3150800236054E2000884E2000880C6FFFF80C0FFFF31
S315080023702DE9F14F1646DDE90A78DDE90C9A02687F
S3150800238004460D46DDF838B01AB9114801B0BDE863
S31508002390F08F3BB90846FFF75BFE0028F5D008F03A
S315080023A049FC03462268D2F814E0BEF1000F0CD0AF
S315080023B032462946F446CDE90DABCDE90B890A9795
S315080023C0606801B0BDE8F04F60470248DEE700BF2D
S315080023D080C1FFFF00C1FFFF02230B70024B88304C
S315080023E04B608860704700BF34E2000810F1850F23
S315080023F013DA10F1990F25DB9930132822D8DFE874
S3150800240000F01C1C1E212121191C1921212115212E
S31508002410210A172413110E487047003818BF0120E7
S31508002420404270470B4870470B4870470B48704747
S315080024300B4870476FF06F0070470A4870476FF097
S315080024406D0070474FF0FF3070470748704700BF70
S3150800245080C7FFFF80C6FFFF80C5FFFF80C0FFFF64
S3150800246080C1FFFF00C2FFFF00C3FFFF00F1950315
S31508002470102B12D8DFE803F00F0D111111111111ED
S315080024801111110B11130911090006487047064866
S3150800249070470648704706487047FFF7A7BF0548C4
S315080024A0704700BF80B0FFFF00B1FFFF00B3FFFF1A
S315080024B000B2FFFF80B1FFFF2DE9F04FB7B00C4621
S315080024C0DDE9408A05920646242200210DA81F460A
S315080024D0DDF808910AF03AFC0023032C07930ED086
S315080024E0042C474C18BF1C46307809A908F0F2FBA3
S315080024F0054630B9434E304637B0BDE8F08F424CFA
S31508002500F2E7424B7D2216A90BA8CDE90B3600F05F
S315080025103BFB0028EED016ABC0F17D0018440890AE
S3150800252030230AAA0DF1D50108A806F093FA064643
S3150800253038B116A87D2100F0DDFB079808F0A9FF41
S31508002540D9E702230AAA0DF1D50108A806F082FAEE
S3150800255006460028EDD1089B0A9A0DF1D5011344C9
S3150800256008930AAA042308A806F074FA064600285F
S31508002570DFD1149A45F4E241DDF828B089B21ABBD6
S31508002580ADF834104FF48051E4B20DA808F098FB6A
S3150800259044F006245A46089907AB119409F025F821
S315080025A0C0B1FFF723FF7D21044616A800F0A2FB61
S315080025B0079808F06EFF064604BB00289BD037B084
S315080025C0BDE8F04FFFF712BF034602460DA809F013
S315080025D08DF9D7E73B462146CDE901A9059A079823
S315080025E0CDF8008009F086F810B1FFF73FFFDAE76B
S315080025F052464946404608F036FCD4E726467AE76E
S315080026000900000280C1FFFF0800000214E3000869
S315080026102DE9F04F82464FF00009B9B0534F00211B
S31508002620DDE9425403920BA8242214AE98460AF018
S315080026308DFB0FCF0FC60FCF0FC697E80F0086E8A2
S315080026400F009AF8000007A9CDF8149008F042FB8D
S31508002650DAF85CB0074620B9454C204639B0BDE8E3
S31508002660F08F14AACDE9092A20AE0DF1DE020692F2
S31508002670314609AA06A800F087F9B0F1000AEBDD91
S31508002680129B47F4824189B21BBBADF82C104FF060
S3150800269006294FF400510BA808F012FBCAF15E0197
S315080026A0524605AB3144CDF83C9008F09EFFB0B1D8
S315080026B0FFF79CFE0546059808F0EBFE0446002D3C
S315080026C052D1002CC9D0204639B0BDE8F04FFFF7EB
S315080026D08DBE4B464A460BA809F008F9D7E70BF119
S315080026E0070B4FEADB0BBBF12F0F4FEA4B0A37D824
S315080026F0069525443023294608AA06A806F0AAF90D
S31508002700044618B1059808F0C4FEA6E75B463246AB
S31508002710294606A808F0DCFB04460028F2D15B46E9
S315080027202946F21806A808F0D3FB04460028E9D182
S3150800273043464946CDE9006A039A059808F0E9FF39
S3150800274010B1FFF793FEB5E7DDE905039D4203D116
S3150800275008F09FFE0446B4E708F09BFE054C7CE7AC
S31508002760059808F096FE77E72C4676E714E3000806
S3150800277080C1FFFF00C7FFFF2DE9F04F04468FB069
S315080027808A46DDE918790021154605A824221E4641
S31508002790DDF868800AF0DAFA206805A908F08DFEE7
S315080027A020B10FB0BDE8F04FFFF720BEBDF814B05A
S315080027B005A82BF0FF0B09F08DF8BBF5E24F22D1E7
S315080027C0BAF1030F15D0BAF1040F104918BF00214A
S315080027D0CDE90198C9B2009733462A46206841F0E8
S315080027E0062108F087FF30B10FB0BDE8F04FFFF7BC
S315080027F03DBE0749ECE74A464146384608F033FBF2
S315080028000FB0BDE8F08F0348FAE700BF09000002E1
S315080028100800000280C6FFFF036813B5062B0C46A6
S3150800282002D00A4802B010BD0DF10701FFF792FC6D
S3150800283048B923789DF807100BB18B42F1D1204691
S31508002840FFF7C0FBEEE70248ECE700BF00C3FFFF57
S3150800285000C6FFFF30B51546002285B0C3E9002241
S315080028609A6001AA1C4606F0D5F918B1A0F56A5077
S3150800287005B030BD294601A8FFF73EFC60B92B78A4
S31508002880012BF5D12368052B00D03BB96268044BB0
S31508002890002A18BF1846EBE70248E9E70048E7E7C9
S315080028A080C5FFFF80C3FFFF00232DE9F04387B0F3
S315080028B016468DF8073002AA3023054606F0CAF8F0
S315080028C028B1A0F57454204607B0BDE8F083029BF2
S315080028D02F6828461F44394603AB0DF10702FFF758
S315080028E0B9FF04460028EED13946284602AA06F062
S315080028F07DF910B1A0F56C54E5E72B68029A1344EC
S315080029009F4238D19DF80700FFF7D2FC0146A0B3D5
S315080029103046FFF7D9FC04460028D4D19DF8073085
S31508002920023B012B25D896E8030008F05CFB01461C
S3150800293003A8FFF771FF044670B996E8030008F08C
S3150800294052FB2A6800F188094946BB1A8046FEF7F9
S31508002950CBFF044620B12F60304608F082F9B2E773
S3150800296049464046FFF700F82F6004460028AAD0DB
S31508002970F2E7034CF0E7034CA5E7014CA3E700BFD9
S3150800298080C3FFFF9AC4FFFFF0B5002785B006464F
S3150800299010460C461546019708F08DF9022817D1FE
S315080029A095E8030002AB83E80300184608F083F9AC
S315080029B0023802288CBF3A46039A2146304608F068
S315080029C021FB00280EDB019B03440193019809E0D3
S315080029D0284608F070F9072816D132686868A242B6
S315080029E002D20A4805B0F0BD2146006801AB121BA9
S315080029F008F0BCFD0028F4D13068019A2146801AF7
S31508002A0030600AF089F9E1E70148EBE780C1FFFF8A
S31508002A1080C6FFFF2DE9F04F82460E468FB02AB9D1
S31508002A206FF06B0420460FB0BDE8F08F0A4402929F
S31508002A30024602A8FFF7A8FF041EF3DB029B9A1BB7
S31508002A40002AEDDD00275A1E651C029231462A46E9
S31508002A5003F8017C02A806F045F9B0F10009C0F2B6
S31508002A6086800322314602A806F0B0F9B0F10008C4
S31508002A707FDB504608F01FF90228834638D19AE8CA
S31508002A80030005AB83E80300184608F014F902387A
S31508002A90022872D8069B31461A7802A808F0D5FA99
S31508002AA0041EBFDB2746584603AA04A9FFF73EFBC8
S31508002AB004460028B6D1DDE903323146009702A85C
S31508002AC006F010FA041EADDB4D44454425442A465B
S31508002AD0314602A806F006F9041EA3DB3022314669
S31508002AE002A806F073F9002845DB2544441999E73E
S31508002AF00728D8D13946242205A80AF027F9DAF892
S31508002B00043005A9186808F0D8FC58BBBDF814406D
S31508002B1005A8BDF8167008F0DDFE24F0FF03B3F52E
S31508002B20E24F15D1E4B2122C1FD1B7F5807F1CD124
S31508002B300823134A31460DEB03000492039306F06B
S31508002B40B6F9041EFFF66EAF27464FF0020BAAE74A
S31508002B5044F2010324F440549C4206D14FF0010B81
S31508002B600027A0E76FF06F045CE7064C5AE74C466F
S31508002B7058E7444656E7044654E73B78FFDE00BF6D
S31508002B80DADA000880C6FFFF2DE9F04F05460C4645
S31508002B908FB02AB96FF06B0738460FB0BDE8F08FD3
S31508002BA00A44059208F087F8022840F0958095E8CF
S31508002BB0030006AE86E80300304608F07CF80238C3
S31508002BC002288CBF4FF0000BDDF81CB021465A4690
S31508002BD005A808F017FA071EDEDB059A111B00295F
S31508002BE0D8DD511E059100217D1C02F8011C05A89F
S31508002BF02A46214606F076F8071ECDDB0322214633
S31508002C0005A806F0E3F8002870DB3D4443191A4688
S31508002C10214605A8029306F065F8B0F1000A5DDBC7
S31508002C20A122214605A806F0D1F8B0F1000957DB24
S31508002C3021469BF8002005A808F007FA071EABDB1B
S31508002C403A46214605A8019706F04CF8B0F1000867
S31508002C5048DBA022214605A806F0B8F8031E039310
S31508002C6042DBDBF8585031460735ED082A46584608
S31508002C70FFF73CF9074630B92B463246214605A8E8
S31508002C8006F0A1F907462946304600F033F8002F2A
S31508002C9082DB0122214605A806F072F9002825DB09
S31508002CA0029D019B55444D441D44039B45441D44C8
S31508002CB03D4405442A46214605A806F013F8071E92
S31508002CC0FFF66AAF3022214605A806F07FF80028ED
S31508002CD00CDB3D4447195FE7054F5DE757465BE761
S31508002CE04F4659E7474657E7039F55E7074653E7D1
S31508002CF080C6FFFF0A4619B1024B00211B68184718
S31508002D00704700BF1C1000200E4B0340B3F1607FD4
S31508002D1006D1B1F5885F14BF6FF0860000207047B2
S31508002D20B3F1707F0BD101F4E043B3F5005F06D130
S31508002D3011F4E06F0CBF6FF08600002070476FF04B
S31508002D40860070470000C07F8A42F8B506460C46E2
S31508002D5000F0DB806F4922F4FF7323F001038B42F6
S31508002D600ED06D4B22F0FF01994209D06B4822F430
S31508002D707F7323F00303834202D0694B994228D11B
S31508002D80684B24F0FF0199420FD114F0FF000BD0D5
S31508002D90654B40F00070984240F0B98082EA040022
S31508002DA0FF288CBF00200120F8BD5B4B9942ECD070
S31508002DB0A3F588539942E8D024F4FF7323F001035E
S31508002DC0B3F1062FE1D056488142DED053498B42F3
S31508002DD0DBD004F0FE43B3F1A06F14D102F0FE433A
S31508002DE0B3F1A06F40F0938082EA040333F47E13B4
S31508002DF040F08D8014F40040D6D0C4F30540C2F3E9
S31508002E0005429042CDE7B3F1407F6AD102F0FE4316
S31508002E10B3F1407F7BD182EA040535F47E1576D17D
S31508002E2031462046FFF770FF002870D13F4B12F459
S31508002E307C1703EA02031BD0B3F1607FC2F3054790
S31508002E403FD13B49D3B243F000738B423DD003F1E7
S31508002E507E43043B0F2B01D83649CD5C14F47C1F06
S31508002E60C4F3054333D1BD4214BF002001209BE7BC
S31508002E70B3F1607F0DD12E49D3B243F000738B4274
S31508002E801DD003F17E43043B0F2BDAD82A49CF5CC9
S31508002E90D7E7B3F1707FE1D106F4E043B3F5005FFD
S31508002EA003D10127C6F302239F4006F4E043B3F596
S31508002EB0005FD3D10125C6F302218D40CEE7102746
S31508002EC0BFE7B3F1707FC9D1EFE71025C6E712F463
S31508002ED07C1F01D1AB4218D022047FF565AFBB42F7
S31508002EE05FE7B3F1106F12D124F01F6020F4702051
S31508002EF068B902F0FE43B3F1106F7FF455AF0F487F
S31508002F00104040F01060A042AEE701204CE70020D8
S31508002F104AE700BF00020006001300060004000688
S31508002F200009000600030006FF0000020000C07F3B
S31508002F300300000244E3000844E300080000FFF62B
S31508002F4021F4FF7210B521F0FF031A4C22F001029A
S31508002F50F8B121F4BF6020F00700A04212D016484D
S31508002F6083420FD0A0F5206083420BD0134B9A42C0
S31508002F7008D003F58063994208BF002018BF6FF098
S31508002F80860005E0C9B2002914BF00206FF086004C
S31508002F9010BDA242FCD0084A9342F9D021F47F71B1
S31508002FA021F00301A2F570629142F1D002F5A06208
S31508002FB09342E3E700020006001300060004000639
S31508002FC02DE9F8431746002288461C4600F0B6FC51
S31508002FD0054688BBD8F80060B6F8009009F4E043C7
S31508002FE0B3F5804FF36808BF27F0010737EA0303F4
S31508002FF01AD10CB3254B24F0FF029A421FD114F0C4
S31508003000FF0304D0224A43F00073934232D022468B
S3150800301048463169FFF798FE074668B9224648468A
S315080030207169FFF791FE70BB6FF084050023304687
S31508003030C8F8003008F083FF2846BDE8F883154B2A
S315080030409A42DCD0A3F588539A42D8D024F4FF7369
S3150800305023F00103B3F1062FD1D00F498A42CED00F
S315080030600E4A9342CBD004F0FE43B3F1407F04D11D
S315080030702304CCD56FF08605D8E7B3F1A06FF7D057
S31508003080034B9C42C2E73D46D6E700BF0003000655
S31508003090FF000002001300060009000600040006EF
S315080030A0434213F07F0207D0402AC2F1000040F0E5
S315080030B0E5806FF09300704710F56E5F00F052815F
S315080030C000F3F58010F5884F00F0108100F3948026
S315080030D010F5A44F00F040815BDC10F5C44F00F0FA
S315080030E0388148DC10F5C74F00F0968070DB10F584
S315080030F0C64F00F03A8110F5C54F69D16FF08600CA
S31508003100704700F11403142B62D801A252F823F079
S31508003110FD300008D13100086B330008D1310008B2
S315080031205F3300086B330008FD300008FD300008E7
S31508003130FD300008D1310008FD300008D131000803
S31508003140ED320008D1310008FD300008D131000801
S31508003150FD300008D131000859330008D131000884
S31508003160D53100087230062832D8DFE800F00F3172
S315080031705F315531BF0010F5C34F00F0F08027DBF3
S3150800318010F5C24FBAD010F5C14F21D16FF08500A6
S31508003190704710F59B4F00F0E2801CDC10F59E4F3F
S315080031A000F0A4800DDC10F5A34F00F0D8800FDBEB
S315080031B010F5A14FEAD010F59F4F9FD010F5A24FFA
S315080031C09BE710F59D4FE1D010F59C4F00F0CD80A0
S315080031D06FF08300704710F5984F00F0C68006DC44
S315080031E010F59A4F3FF465AF10F5994F85E710F53E
S315080031F0894F3FF45EAFEBE710F5824F00F0A980E8
S3150800320017DC10F5854F07D009DC10F5874F00F05D
S31508003210AC8010F5864FDBD16FF09600704710F53D
S31508003220844F3FF46BAF10F5834FD1D16FF0920006
S31508003230704710F5765F3FF461AF14DC10F5785FE0
S3150800324000F08A80C4DC10F57E5F00F0888002DC1E
S3150800325010F5814F51E720F0800010F57C5F08BF1C
S315080032606FF0860071E010F5705F7BD0B0DC10F56A
S31508003270745F3FF443AF10F5725F86E75B061FD5B0
S3150800328010F16B0F35DA10F1720FBFF66BAF10F550
S31508003290645F6AD026DC10F5685F3FF477AF1EDC02
S315080032A010F56C5F3FF42AAF10F56A5F6DE710F111
S315080032B0400F3FF4FEAE10F13F0FE1DB002887DC3C
S315080032C010F1140FBFF61DAF10F13B0F2FDA10F1F6
S315080032D03E0FCCBF6FF093006FF08300704710F578
S315080032E0665F52E710F5625F7FF472AF6FF0890090
S315080032F0704710F1540F3BD010F1530F14DA6A30AF
S3150800330014283FF665AF012340F254528340134216
S315080033107FF4F4AE142828D013F0010F14BF6FF011
S315080033208C006FF08300704710F1510F97E7323029
S315080033301C283FF64DAF01230F4A834013427FF402
S3150800334025AF1C2808BF6FF0890018BF6FF08300EF
S3150800335070476FF0950070476FF0910070476FF0F7
S315080033608C0070476FF0840070476FF094007047C8
S315080033706FF08800704700BF015005002DE9F04145
S3150800338017461C461F4A23F4FF7323F00103934292
S3150800339005460E4690B00ED01B4B24F0FF029A420B
S315080033A009D01A4924F47F7323F003038B4202D011
S315080033B0174B9A4222D1DDE9161207AB0193202357
S315080033C014F0FF000DF1200818BF40F000700093BC
S315080033D0434608F01FFC70B91A9B3A460493199B9A
S315080033E031460393189B28460293079BCDE9008331
S315080033F0234608F0F2FA10B0BDE8F0816FF08500B8
S31508003400F9E700BF000200060013000600040006E4
S31508003410000900062DE9F04117461C461E4A23F40A
S31508003420FF7323F00103934205460E468EB00ED075
S315080034301A4B24F0FF029A4209D0194924F47F73E3
S3150800344023F003038B4202D0164B9A4220D1DDE9C2
S31508003450141205AB0193202314F0FF000DF1180890
S3150800346018BF40F000700093434608F0D3FB60B9DC
S31508003470179B3A460393169B31460293059B2846AB
S31508003480CDE90083234608F0D6FA0EB0BDE8F081F0
S315080034906FF08500F9E700BF00020006001300067A
S315080034A0000400060009000647F2010102888A4264
S315080034B010D1104923F4FF7222F001028A4215D076
S315080034C00D4A23F0FF03934214BF6FF086006FF096
S315080034D08500704702F44F42B2F5824F06D123F4B5
S315080034E0FF7323F00103B3F1062FEDE76FF08500B4
S315080034F0704700BF000200060013000644F20101EF
S31508003500028822F44050884210D1104923F4FF72F1
S3150800351022F001028A4215D00D4A23F0FF03934296
S3150800352014BF6FF086006FF08500704702F44F42B3
S31508003530B2F5824F06D123F4FF7323F00103B3F1EA
S31508003540062FEDE76FF08500704700BF0002000602
S315080035500013000637B50C4D0C462B78DB070FD544
S3150800356000230A460193014601AB281D04F01DFD00
S3150800357020B9019BA34218BF6FF0930003B030BD7A
S315080035806FF08800FAE700BFF025002008B500F0C4
S315080035907FF9084B0C211A78064812F0060F1CBF53
S315080035A00022C3E90122FFF7A5FBBDE8084008F0A1
S315080035B0BFB900BFF025002038B50E4D2B7813F0A3
S315080035C0010211D1C5E90122022262F342032B70DE
S315080035D000F052F9044650B908F0A8F9044630B983
S315080035E02B7843F001032B700024204638BDFFF7E3
S315080035F0CDFFFAE7F02500202DE9F74300F4E04077
S31508003600B0F5804F0D4616461F46DDF828802CD1AA
S3150800361001F18809484607F0BFFA88B943460022EF
S3150800362049462846CDE90067FEF708F9FFF738FD51
S31508003630044678B33A460021304609F087FB10E085
S3150800364000230193164B4946009305F17C0205F1C8
S315080036502803284607F0A9FAFFF722FD04460028A2
S31508003660DCD0204603B0BDE8F083CB6D0733B7EB5B
S31508003670D30F4FEAD3020FD331462846FEF736FC5E
S31508003680FFF70EFD04460028D4D1EB6D0733DB089F
S31508003690C8F800300024E4E76FF08904E1E700BFCA
S315080036A02DB700082DE9F041044600881F4600F4AE
S315080036B04F43B3F5824F18BF0020ACB08846154675
S315080036C061880022C0B207F0F5FD0646FDF7BAFF8D
S315080036D0246A34BB2EB320B301A807F0DDF92346CC
S315080036E03046114A01A907F091FA044650B101A8DB
S315080036F007F015FA2046FFF7D3FC044620462CB0FF
S31508003700BDE8F0812A46414601A8FEF7EFFBFFF720
S31508003710C7FC044601A807F002FA002CEED13D606A
S31508003720ECE76FF08504E9E72DB70008F8B50768F8
S3150800373006460C464FBB164B99420CD001339942AC
S3150800374019D001F0FE44B4F1007F14BF6FF0860073
S315080037506FF08500F8BD051D284604F0E1FB012140
S315080037602846FDF73BFA054658B934602846BDE8B1
S31508003770F840FFF795BC051D284604F0D1FB3946ED
S31508003780EEE7304608F037FBF0E76FF08800E1E730
S31508003790080000022DE9F04105781E461D4B45F04C
S315080037A000759D4207468846144605D1326062BBBD
S315080037B06FF08900BDE8F08105F17E45043D0F2DC7
S315080037C017D9326082B900253B6803F17E43083B6E
S315080037D0012B1CD84146381D04F0ADFBFFF760FCF1
S315080037E00028E7D13560E5E72121404609F0AEFA21
S315080037F0E9E7094B32605D5D22B122462121404648
S3150800380009F0A4FAAC42DFD2D2E71025F5E76FF04B
S315080038108800CFE70300000254E3000800F10042E5
S315080038200532042A38B504460D4609D82C21114B11
S3150800383001FB02339A68824215D06FF08B0038BDBF
S31508003840012108F02EFB88B10A4800220346816848
S31508003850A14205D00132052A00F12C00F7D1ECE788
S315080038602C2101FB023300202B60E8E76FF087006C
S31508003870E5E700BFFC250020044A002092F8DC306A
S3150800388043F0010382F8DC30704700BFFC250020B6
S3150800389070B50B4C002526460421204608F012FB7D
S315080038A00135204607F0AFFD052D04F12C04F3D1B0
S315080038B096F8DC306FF3000386F8DC3070BD00BF85
S315080038C0FC250020F8B51B4C064694F8DC300F465C
S315080038D0DB0729D500252346294693F820001A46F2
S315080038E0B8B125B91A7912B1022808BF1D460131A7
S315080038F0052903F12C03F0D115B96FF08C0015E0FA
S315080039000421284608F0DEFA68B9284607F07BFD48
S315080039102A460020084B141BA4105C4304F10044FB
S31508003920053C34603A60F8BD6FF0880000233B60C0
S315080039303360F8E7FC250020A38B2EBA2DE9FF415A
S3150800394000230B60394B804693F8DC300D46DC07C4
S31508003950164668D5FFF762FF0446A0B92EB928684F
S3150800396004B0BDE8F04108F0D7BA012E04D000240F
S31508003970204604B0BDE8F0810521286804B0BDE8FA
S31508003980F04108F09FBA10F18C0FF1D1294601A831
S31508003990FFF798FF04460028EAD101232F68CDE9EE
S315080039A00200C7F8088038467B6003AA02A908F017
S315080039B0AEFB044688B1DDE9020108F09EFB2D68DE
S315080039C00421284608F07EFA284607F01CFD14F163
S315080039D08C0F08BF6FF08704CAE7DDE90212384684
S315080039E007F0AAFC0446DDE9020108F086FB002C74
S315080039F0E5D10221384608F065FA04460028DED1EA
S31508003A002868C368D90444BF43F48063C360C368A5
S31508003A109A0444BF43F40063C360002EA0D0012E6D
S31508003A20A5D10521AAE76FF08804A1E7FC250020A7
S31508003A3030B4224D2C681C606C685C6000241C72D3
S31508003A405C729C72DC725468250A1C735D73250CC3
S31508003A50240E9D73DC7314881C74240A5C745488C1
S31508003A609C74240ADC74D468250A1C755D75250CBB
S31508003A70240E9D75DC751469250A1C765D76250C61
S31508003A80240E9D76DC765269140A1A775C77140C34
S31508003A90120EDA770A0A83F821200A0C83F8222004
S31508003AA00A0E9C7783F8201083F8232030BC0A4638
S31508003AB0014603F1240009F053B900BF64E3000886
S31508003AC02DE9F843232904460F4691469846089E51
S31508003AD004D86FF098052846BDE8F88308221949E6
S31508003AE009F00AF905460028F3D1A368002BF0D19E
S31508003AF0216A243FB942C8F80010EAD8B1F5005F38
S31508003B00E7D271B9C9F80000E3687360238A338085
S31508003B10638A73806369F360A3693361E3697361D8
S31508003B20D9E7012004F017FFC9F8000030B1D8F82A
S31508003B30002004F1240109F013F9E5E76FF08C057C
S31508003B40C9E700BF64E30008002370B50A261360BE
S31508003B5003681C78303C092C0DD814685D1C744326
S31508003B60146005601B780139A3F130032344136000
S31508003B70EED1084670BD0148FCE700BF00DCFFFF38
S31508003B8038B503681546CA1A002A044616DD1A7897
S31508003B9002F07F02022A13D15A1C02602A461B78B9
S31508003BA042F8043B04F00EFF10B1A0F50A5038BDE8
S31508003BB023686A68AB6013442360F8E70148F6E7B0
S31508003BC00148F4E720DDFFFF1EDDFFFF2DE9F7437F
S31508003BD004460F469146DFF8FC8031236A4639468B
S31508003BE0204604F037FF20B1A0F50E5003B0BDE81B
S31508003BF0F0834D462668009B1E44302331462046F6
S31508003C0001AA04F027FF88B1A0F50E500028EDD1CF
S31508003C102368B34248D001202021287704F09BFE70
S31508003C20A86108B92748E1E70546E6E7019A236847
S31508003C30002A03EB020901DC2348D7E72A461B784A
S31508003C40494642F8043B2046062304F003FF0028B1
S31508003C50DAD121686868A9600B18A9EB0302002A63
S31508003C602360E9DD0A5C1E2A05D01C2A1AD828FA20
S31508003C7002F2D20716D5013323600B5C05F1100258
S31508003C8049462046EB6004F09DFE0028BCD1236817
S31508003C902A696B6113449945236001D1A861B7E786
S31508003CA00A48A3E70A48A1E7BE4208D02021012016
S31508003CB004F051FE8146A86100288ED1B2E70020A3
S31508003CC094E700BF80D7FFFF20DCFFFF1ADCFFFF69
S31508003CD01EDCFFFF081058100368F7B51446CA1A09
S31508003CE0002A054640F3A0801A78172A0ED0182A0B
S31508003CF040F09C800427013328462B6001AA04F073
S31508003D0061FE28B1A0F5105003B0F0BD0227F2E716
S31508003D10019E07F108039E427ED32246394628466D
S31508003D20FFF712FF0028EFD1022F08D12368312BA5
S31508003D30DCBF64332360236803F26C7323600221BB
S31508003D402846221DFFF700FF0028DDD1022128465C
S31508003D5004F10802FFF7F8FE0028D5D1022128460B
S31508003D6004F10C02FFF7F0FE0028CDD10221284607
S31508003D7004F11002FFF7E8FE0028C5D1F61BA6F1EC
S31508003D800803012B48D90221284604F11402FFF73B
S31508003D90DBFE0028B8D10B2EA6F10A033AD12B6810
S31508003DA01A785A2A38D101332B6042F20F722368E7
S31508003DB0934231D8E268172A2ED822693B2A2BD893
S31508003DC062693B2A28D861680C2925D8012241F264
S31508003DD0AA558A402A4221D112F4256F20D10229F8
S31508003DE01AD19A0705D1642193FBF1F201FB12322D
S31508003DF0C2B94FF4C87293FBF2F102FB1133002BE0
S31508003E0014BF1C231D23A268002A05DD9A427FF7EA
S31508003E107BAF01E0002BC8D0054875E71F23F2E702
S31508003E201E23F0E71D23EEE702486DE702486BE71D
S31508003E3000DCFFFFA0DBFFFF9EDBFFFF73B5154627
S31508003E40026804468B1A002B10DD167801AA04F0C6
S31508003E50CDFE18B1A0F5125002B070BD2368019AC4
S31508003E60AB6013442E606A602360F5E70048F3E709
S31508003E7020DBFFFF10B50C4611461A46029B1B684D
S31508003E807BB906F0DAFE10B1A0F5185010BD23680C
S31508003E90052B00D03BB96268044B002A18BF1846A8
S31508003EA0F4E70348F2E70148F0E700BF00DDFFFF4B
S31508003EB000D8FFFF73B543F0A00614463346043214
S31508003EC0054604F0C7FD18B1A0F5145002B070BD40
S31508003ED029682660A160646830230C442146284678
S31508003EE001AA04F0B7FD0028EED1019A2B68134405
S31508003EF0024A9C4218BF1046E8E700BF9ADAFFFF5D
S31508003F002DE9F04F8146C3B008460E4608F035FF46
S31508003F10002706EB000802AD484604F0D5FE3446F5
S31508003F200122BB46AA46444501D9002009E0237868
S31508003F30E2B13D2B4ED12A4FA51B386820B9A0F512
S31508003F40045043B0BDE8F08F7B689D4204D12A46F1
S31508003F50314608F0BFFE08B11037EEE75546D7F8E8
S31508003F6008B0661C44451CD023460BE05C2B16D1D2
S31508003F70444516D0631C984501D11A48E1E7627892
S31508003F802C2AFAD15A1C964207D01A7805F8012B22
S31508003F90A5EB0A02B2F5807FEFD000221BE02C2B9E
S31508003FA0E0D1584608F0E9FEA5EB0A03024600935D
S31508003FB059465346484605F021F870B1FB68C36078
S31508003FC0234601344345264602D05A78202AF7D09C
S31508003FD0012200E023465C1CA5E70348B1E700BFC1
S31508003FE084E3000880DCFFFF80D7FFFF70B5036815
S31508003FF0064603F0DF03802B0C468CB003D0822BD9
S315080040006FD03F4834E08568436802951D442946C9
S31508004010062301AA02A804F01DFDB8B1A0F51450A4
S3150800402030BB28222046002108F090FE043403AA5B
S315080040300BAD134603CBAB42206061601A4604F110
S315080040400804F6D118682060002011E0DDE9012691
S31508004050082AD6D131462B4808F04EFE0028D0D182
S315080040600836B54206D803A82421FEF743FE26489B
S315080040700CB070BDA023294601AA02A8029604F036
S31508004080E9FC0028CAD13023294601AA02A804F06F
S31508004090E1FC0028C2D10623294601AA02A804F099
S315080040A0D9FC0028BAD10623019A0693029B0792E7
S315080040B0089313449D42D6D90293042329460DEB4F
S315080040C0030202A804F0C6FC0028A7D10423019A1B
S315080040D00993029B0A920B9313449D420293A0D024
S315080040E0C1E70D1D24220021284608F02FFE0223D1
S315080040F02360336863607368A360B368E360A3E70B
S3150800410080DFFFFF54E500089ADAFFFF2DE9F04F3C
S31508004110A7B00C4617461E460390002800F0EF830A
S31508004120002900F0EC8305464FF00009EB69A3B1BE
S31508004130D5F850314BB94FF4AA71012004F00BFCA5
S31508004140C5F8500120B9AA4C63E0A9461D46EDE71B
S3150800415008F04EF9A946D5F850510023CDE9103399
S31508004160CDE91233CDE91433CDE9163318934DB999
S31508004170B9F1000F01D0C9F850519E4C284604F0F9
S31508004180FAFB46E0302309AAE1190AA8CDE9097421
S3150800419004F060FC68B1284608F02FF9964CB9F18E
S315080041A0000F02D00023C9F85031039BAB42E5D17A
S315080041B02FE0DDE9093202EB030BABEB0401A96042
S315080041C05EB3012004F0C7FB0A90E860002800F0FF
S315080041D094832146AA6808F0C3FD0123AA682B60C8
S315080041E0099B0A99D31A0B440A9301EB020B0A9B03
S315080041F05946AB6109AA30230AA804F02BFC0446E9
S3150800420070B12846A4F5065408F0F7F8002CC6D174
S315080042100024204627B0BDE8F08FEC602E60E6E764
S31508004220DDE909371F44AB693946FB1A6B611CAADD
S31508004230A0230AA804F00EFC08B310F1620F1AD1E5
S31508004240EC61394605F120020AA8FFF799FC0446F5
S3150800425030BB05F12C063246394610AB0AA807F0E2
S31508004260ABFF0446E0B9EB69022B1DD9284608F0D6
S31508004270C4F8624C93E7A0F506548CB9E1E70A9EA8
S315080042801C9B05F11C021E4431460AA804F042FC98
S3150800429010B1A0F50854F0E70A9B9E42D1D0584CBD
S315080042A0284608F0AAF87AE70133EB6105F5A67304
S315080042B00093304605F2491305F5A47210A9FFF7D5
S315080042C0D9FD04460028EBD10A9B39462B6409AA76
S315080042D030230AA804F0BEFB0446002891D1DDE984
S315080042E0093105F1500219440AA8FFF76FFC044684
S315080042F00028D5D12A6C0A9B39469B1AEB631CAA5F
S3150800430030230AA804F0A6FB002855D0B0F51054AF
S31508004310C6D10A9B3946EB6409AA30230AA804F0D9
S3150800432099FB044600287FF46CAFDDE9093143B1F7
S3150800433005F1700219440AA8FFF748FC044600284C
S31508004340AED10A9AEB6CC5F8C820D31A3946AB64C5
S3150800435005F1CC020AA8FEF7A7FA044600289FD161
S315080043600A9BD5F8C8209A1AC5F8C420EA69023A01
S31508004370012A04D89F4247D10A9B9F4263D1EB6921
S315080043800A9A032B40F08C80974200F081823946C6
S3150800439005F1EC020AA8FFF78DFD044600287FF414
S315080043A07FAFD5E93C32D318049302900A9B049A4E
S315080043B09A4263D874D089E10A9E1C9B05F1900243
S315080043C01E4431460AA8FFF787FC044600287FF4F6
S315080043D067AF314605F1A8020AA8FFF77DFC044637
S315080043E000287FF45DAF0A9B9E4292D0054C57E7A2
S315080043F080D7FFFF00D8FFFF80DEFFFF80DAFFFFD0
S315080044009ADDFFFF9ADBFFFF1B783946C5F8D430E3
S3150800441005F1D802A1230AA804F01CFB58B110F133
S31508004420620F03D0B0F506547FF43AAFEB69023B4E
S31508004430012BA1D9A3E70A9BD5F8D820C5F8DC300B
S3150800444013440A93F2E71B783946C5F8E03005F1BC
S31508004450E402A2230AA804F0FDFA38B110F1620FAB
S315080044608DD0B0F506547FF41BAF88E70A9BD5F8C4
S31508004470E420C5F8E83013440A9380E7029B0499C0
S31508004480CDE91933CDE90C331B930BAA30230AA8BF
S3150800449004F0E0FA68B1A0F51454002C7FF400AFDC
S315080044A00A9B9F4200F0F481284607F0A6FF9F4C1E
S315080044B075E6DDE90A2302EB0308414606231AAA34
S315080044C00AA804F0C7FA0028E5D106231A9A199310
S315080044D00A9B41461B930AA813440CAA0A9304F0A4
S315080044E001FB10B110F1620FD5D1042341460BAA86
S315080044F00AA804F0AFFA0028CDD10A9B0B9E0593B3
S315080045001E44B04540F0E2800DA919A8FDF7C4FD88
S31508004510C8B1309A0C9B7AB1DDE930400A9A29462F
S315080045200092019619AAA047044618B10C9B002BC5
S315080045307FF4B6AE0A9639E7CDF82880002B3FF40B
S3150800454035AF7B4CACE6D5F818110D9B11EA030282
S3150800455040F0D7811943B3F5807FC5F8181125D0E7
S315080045600BDC082B00F00781202B00F09780042B2A
S3150800457060D00C9B002BDDD020E1B3F5006F7DD019
S31508004580B3F5803FF5D11C928DF874201E924146F2
S315080045901CAA0AA804F0C2FA002855D11C9B012BB4
S315080045A07AD11E9B1B7885F83831FFE6C5E9472284
S315080045B0302341461CAA0AA804F04CFA28B1A0F5F3
S315080045C01454002C3FF4F2AE6AE60A9B9E423FF46E
S315080045D0EDAE05F58E78424631460AA804F082FA11
S315080045E078B110F1620FEAD1424631460AA804F0C2
S315080045F091FA0028E3D1D5F81C3113B10123C5F887
S315080046001C310A9B9E423FF4D1AE314605F59072A5
S315080046100AA804F07FFA0028D1D10A9B9E4255D1F8
S315080046206FF00042D5F82031934235D00133C5F8F2
S315080046302031BBE61C928DF874201E9241461CAAB6
S315080046400AA804F06BFA20B1B0F514543FF4AEAEE4
S3150800465026E61C9800B300231E9CC5F82431E15CAD
S31508004660DA009140D5F8242101330A439842C5F867
S3150800467024213FF49BAE042BF1D197E6062341464D
S3150800468005F594720AA8FCF727FF0028DCD1D5F8AF
S315080046903031002B7FF48AAE264C01E630234146A2
S315080046A00EAA0AA804F0D6F9002888D10A9B0E9A01
S315080046B013449E420AD105F1F80A0A9CA64207D875
S315080046C04FF00003CAF80C303FF470AE1A4CE7E519
S315080046D0282200211CA808F039FB14F8018B314662
S315080046E00FAA0AA80A9404F06DF900287FF467AFA8
S315080046F008F0C003802B7FF424AF50461CA9FFF7AF
S3150800470075FC0446D0B110F5025F17D0D5F80461E0
S3150800471016B9C5F80461C3E530461021F768FEF7F7
S31508004720E9FA304604F027F93E46F1E71ADEFFFFBC
S315080047309EDAFFFF9CDAFFFF9ADAFFFFDAF8083005
S3150800474073B1DAF80C30002B40F0DB801021012021
S3150800475004F001F9CAF80C00002800F0D48082465B
S315080047600A9B0F9ACAF808301344CAF80080CAF898
S3150800477004200A93A1E7302331461CAA0AA804F0AC
S3150800478069F90446E0B1A0F51454002C3FF40EAEC6
S3150800479014F5025F7FF484AD309A0C9B5AB1DDE9BB
S315080047A03040059A29460092019619AAA047002882
S315080047B03FF4FCAD0C9B002B3FF4F8AD534C6FE572
S315080047C01C9A0A9B1344984580D1002A3FF47EAF71
S315080047D005F584780A9B9E4205D84FF00003C8F871
S315080047E00C30D2D072E7302331461CAA0AA804F04E
S315080047F031F910B1A0F51454C7E70A9A1C9B0AA808
S3150800480002EB030A514606231CAA04F023F90028E2
S31508004810F0D11C9A0A9B042A069337D119463C48BC
S31508004820079208F069FA394B079A002818BF1C4600
S31508004830D8F8083073B1D8F80C300792002B60D13D
S315080048401021012004F087F8C8F80C0000285AD077
S315080048508046079A0623C8F80030069BC8E9012354
S315080048600A9B1C9A13449A450A930BD9302351463E
S315080048701CAA0AA804F0EEF80028BBD10A9B1C9AC9
S3150800488013440A930A9B9A45A4D01FE71F4CCFE707
S31508004890594613AB16AA0AA807F08EFC0446002848
S315080048A07FF4FEAC2A6B179B9A4212D11899686B53
S315080048B008F022FA68B9109A139B9A4209D1119AFC
S315080048C0149B9A4205D14AB11599129808F014FA20
S315080048D020B1284607F091FD0E4C60E4594605F5CF
S315080048E09E720AA8FFF7AAFA044600287FF4D8ACF5
S315080048F00A9B9B453FF48CACD6E5074C4FE4074C26
S3150800490087E4074CCCE4074CCAE400BF80DFFFFF0E
S3150800491062E5000880D9FFFF80D7FFFF00D8FFFFB8
S3150800492000DBFFFF96DAFFFF2DE9F04F0746A1B03F
S315080049300D4601204FF400711446099304F00BF854
S315080049408046002800F0228100230B933B7A032B34
S3150800495000F00781042B8E4B18BF002308932946C5
S315080049602B19FA680CA807930C9307F0D7FC041EBA
S31508004970C0F2F08000F0F780224629460CA804F021
S31508004980B1F9A146041EC0F2E580302229460DEB96
S31508004990020004F01BFA061EC0F2EF80A1444E4442
S315080049A0324629460CA804F09DF9041EC0F2D280AE
S315080049B0312229460CA804F009FAB0F10009C0F220
S315080049C0D88009232946734A0CA804F070FA0028EF
S315080049D0C0F2D18026444E4400EB06094A462946D1
S315080049E00CA804F07FF9041EC0F2B48030222946D0
S315080049F00DEB020004F0EAF9061EC0F2BE80A144DF
S31508004A004E44324629460CA804F06CF9B0F1000A67
S31508004A10C0F2AD80A02229460CA804F0D7F9B0F15F
S31508004A200009C0F2A6800C9A29463868521BFDF781
S31508004A30F1FF041EC0F28E800C9B29461B1B7A6868
S31508004A400CA80C9307F0BFFBA346041EC0F2828095
S31508004A50002229460CA804F093FA0028C0F28B809D
S31508004A6056444E445E44264400EB06094A46294607
S31508004A700CA804F037F9041E6CDB302229460DEB2E
S31508004A80020004F0A3F9061E77DB0FAB019340235F
S31508004A90A1444E44009332466B440C99089806F09C
S31508004AA016FE034600286AD12A9A0492099A0392A6
S31508004AB00EAA02924FF40072CDE9008210AA397A42
S31508004AC0386806F0E6F80446002843D1012138681C
S31508004AD006F0D6F8002848D10421386806F0D0F840
S31508004AE000284FD00420397A0BAB0AAAFDF7EEFA54
S31508004AF0044678BB32460C99284608F00DF9079B00
S31508004B00A9190D930E9B0DA8CDE90083DDE90A23AB
S31508004B1007F0BFFB041E1DDB0D983246801B294695
S31508004B2026440D9008F0F8F8324629460DA804F0F8
S31508004B30D9F8041E0EDB302229460DA804F046F9E2
S31508004B40071E21DB0D9A00212846521B08F0FEF8A5
S31508004B5034443C44404603F00EFF204621B0BDE8ED
S31508004B60F08F0D4BFAE626464BE70120BBE7544685
S31508004B70F0E74C46EEE70446ECE73446EAE76FF022
S31508004B806F04E7E7054CE5E73C46E3E7044CE4E752
S31508004B900900000267E500080800000200DDFFFFC3
S31508004BA080D7FFFF70B5002686B005960A9E0C468C
S31508004BB000961546FFF7B8FE00280ADB2A1A05AB49
S31508004BC0CDE9015304490346009404482244FDF7FD
S31508004BD0EFFA06B070BD00BF71E5000894E500085D
S31508004BE008B5124BA8220021184608F0AFF8032290
S31508004BF00346026142610E480E4A98614FF480618D
S31508004C00DA61002219629A625A62DA6218660A48FA
S31508004C105866996609491A67DA665A6711F8010DDE
S31508004C2098540132102AF9D108BD00BF002400208B
S31508004C30B9E5000800200020001C0020D2E5000885
S31508004C402DE9F84FDFF87C80824698F800308946CF
S31508004C5016460BB9FFF7C4FF182707FB0A873D6FEF
S31508004C60D7F86CB05D452BD9BC6E796E641BB4421F
S31508004C7028BF344648462944224608F071F8BB6ED8
S31508004C802544AB4208BF0025A144361BABEB050BF8
S31508004C905E4528BF5E4656B1182303FB0A83596E44
S31508004CA032462944484608F05BF83444354424B172
S31508004CB0182303FB0A88C8F870502046BDE8F88F09
S31508004CC00024E3E700240020F8B5182700FB077541
S31508004CD0124B0E461D4407FB0033DB6A1446012BB4
S31508004CE00AD0022B14D023B9284607F016FC8442B2
S31508004CF008D900242046F8BD284607F00EFC844251
S31508004D0028BF044622463146284607F00FFCF1E73D
S31508004D102846BDE8F84007F024BC00BF0024002060
S31508004D20F8B50B4B04461B780D4616460BB9FFF72C
S31508004D3057FFEFF311874FF0200181F311883246B0
S31508004D4029462046FFF7C0FF87F31188F8BD00BF44
S31508004D50002400202DE9F041154C1E46237805460F
S31508004D60884617460BB9FFF73BFF022D1DD8EFF310
S31508004D70118C4FF0200181F3118865B1182005FBCD
S31508004D80000344F80380E2180023576000FB05423D
S31508004D90166293625362182303FB0544069BE3627B
S31508004DA08CF311880020BDE8F0814FF0FF30FAE758
S31508004DB0002400202DE9F843144E1F463378054693
S31508004DC0894690460BB9FFF70BFF022D1BD8EFF368
S31508004DD011824FF0200181F3118855B11824002360
S31508004DE004FB0564C4F86090C4F86480A76623676A
S31508004DF0E366182303FB0566089B736782F311882D
S31508004E000020BDE8F8834FF0FF30FAE700240020C1
S31508004E100138C0B203289ABF024B53F82000024853
S31508004E20704700BFD4E50008381900207FB506464C
S31508004E30FFF7EEFF036805469B689847044620B9C6
S31508004E402B682846DB68984704460E4B4FF40062E9
S31508004E5000930D4B3146019300236846CDE90223A2
S31508004E6007F089FD2146684607F022FE24B92B681B
S31508004E70694628461B6998470399019800F054FC2F
S31508004E8004B070BDECE50008722E00201FB50C4B6F
S31508004E904FF4006200930B4B0C4601930023014626
S31508004EA06846CDE9022307F066FD2146684607F005
S31508004EB0FFFD0399019800F037FC04B010BD00BF50
S31508004EC0ECE50008722E0020002310B5114C86B0C0
S31508004ED04FF40061204601AA8DF80330019300F0D3
S31508004EE02BFC88B9019B7BB10B4ACDE904300DF147
S31508004EF0030102A8CDE9022407F057FD01469DF8F3
S31508004F00030019B1FFF7C2FF06B010BD02A9FFF7EB
S31508004F108DFFF9E7722E0020ECE5000810B50E4C5F
S31508004F200E4922460E4807F08CFE22460D490E48C9
S31508004F3007F087FE22460D490D4807F082FE2246F5
S31508004F400C490D4807F07DFE2246BDE810400B4986
S31508004F500B4807F076BE00BF00100020D3C5000836
S31508004F6038190020D5C500082C190020D7C5000817
S31508004F7098140020D9C5000880100020DBC5000859
S31508004F802010002008B5D0E901301844034BA0F5DD
S31508004F900050186007F02BFE002008BDDC26002014
S31508004FA010B50C46054B2046196807F055FD2046F6
S31508004FB0BDE810404FF4005107F04EBDDC26002036
S31508004FC070B5002605460C46ADF5027D31464FF410
S31508004FD0FE7203A8029607F0B9FE2046291D01961F
S31508004FE007F06DFD002840F0EB806968894800F0FD
S31508004FF079FA002840F0E4804FF40072204601ABAD
S3150800500002A907F0A3FD002840F0DA80019A002AD9
S3150800501040F0CF80204605F1080107F050FD002832
S3150800502040F0CE80A9687C4800F05CFA002840F081
S31508005030C7804FF40072204601AB02A907F086FD2F
S31508005040002840F0BD80019A002A40F0BC804FF449
S315080050500072204601AB02A907F078FD002840F04F
S31508005060AF80019A002A40F0B6804FF400722046BD
S3150800507001AB02A907F06AFD002840F0A180019A59
S31508005080002A40F0B0804FF40072204601AB02A916
S3150800509007F05CFD002840F09380019A002A40F052
S315080050A0AA804FF40072204601AB02A907F04EFD14
S315080050B0002840F08580019B1BB90222ADF8083014
S315080050C00192019A554802A900F026FA002877D1DC
S315080050D04FF40072204601AB02A907F037FD0028FD
S315080050E06ED1019B1BB901228DF808300192019AF5
S315080050F04B4802A900F010FA002861D14FF400725B
S31508005100204601AB02A907F021FD002858D1019AD3
S31508005110002A78D11022204605F12C0305F11C013E
S3150800512007F014FD00284BD1204605F1140107F0BD
S31508005130C6FC002844D1204605F1180107F0BFFC3B
S3150800514000283DD1204605F10C0107F069FC00282E
S3150800515036D14FF40072204601AB02A907F0F6FCDF
S3150800516070BB019A2F4802A900F0D6F940BB4FF44C
S315080051700072204601AB02A907F0E8FC00BB019AC1
S31508005180294802A900F0C8F9D0B94FF400722046A0
S3150800519001AB02A907F0DAFC90B9019A234802A9E3
S315080051A000F0BAF960B9204605F1100107F087FC4E
S315080051B006E01F4802A900F0AFF900283FF42AAF1D
S315080051C00DF5027D70BD1B4802A900F0A5F900285F
S315080051D03FF43DAFF4E7184802A900F09DF900280E
S315080051E03FF443AFECE7154802A900F095F900280B
S315080051F03FF449AFE4E7124802A900F08DF9002808
S315080052003FF44FAFDCE70F4802A900F085F9002804
S3150800521080D0D5E70C7208000B72080008730800E6
S315080052200F7208000A72080008720800097208005E
S315080052300D7208000E72080010720800117208003C
S3150800524012720800047208002DE9F8430C461E463F
S31508005250099FDFF8649008990546904609EB030014
S315080052603A4607F07DFD2046314600F03BF90446F4
S31508005270D0B93946404600F035F90446A0B92B7B2B
S3150800528073B1DFF838800B48D8F8001000F02AF917
S3150800529068B94FF400524946D8F8000007F0B2FC46
S315080052A0C5F81064C5F814742046BDE8F8830446AA
S315080052B0FAE700BF2273080072360020DC260020B9
S315080052C0002370B50C4615468CB0039303AB06460F
S315080052D0009329462023204604AA07F024FB68B930
S315080052E0039A074804A900F017F938B90346CDE927
S315080052F000453046034A0449FFF7A6FF0CB070BDC7
S3150800530000720800247308002373080007B54FF4D9
S315080053100073CDE90012034A0349FFF795FF03B06E
S315080053205DF804FB267308002573080007B54FF4DB
S315080053308063CDE90012034A0349FFF785FF03B0EE
S315080053405DF804FB287308002773080030B5136856
S315080053500D4614468BB013B100200BB030BD019337
S315080053602022084801AB02A900F068F80028F4D109
S3150800537023462A46019902A800F0E8F90028EBD04E
S31508005380EBE700BF0072080030B5C36A044685B073
S31508005390ABB900F13005294600F15002FFF7D6FFF8
S315080053A0002843D110232946E36204F1400204F1A0
S315080053B01C0351F8040B914243F8040BF9D1E26A35
S315080053C01B4804F11C0100F0A7F878BBA38993B920
S315080053D0204604F1500204F13001FFF7B7FF28BB5D
S315080053E0236D234493F82E2093F82F3043EA0223A3
S315080053F0C3F30B03A381A1890E4800F059F8A8B995
S31508005400236920460393A38904F154010293A369EF
S31508005410019363690093D4E9012307F008FA0B2284
S31508005420054805B0BDE8304000F076B805B030BD97
S315080054301F72080007720800057208002DE9F74375
S315080054401E4600233360A0F50723A3F50073B3F5C2
S31508005450806F05460F4690461CD2DFF850900146ED
S315080054606A46D9F8000001AB02F0A8F8044668B904
S31508005470019B93B157B1434512D83A462946D9F804
S31508005480000001F0F9FF70B9019B3360204603B0B4
S31508005490BDE8F0834FF0FF34F8E76FF00104F5E755
S315080054A06FF00204F2E70446F0E700BF4019002057
S315080054B007B5A0F50723A3F50073B3F5806FADF81C
S315080054C006100AD201460648022300680DF10602B4
S315080054D001F088FF03B05DF804FB4FF0FF30F9E7F1
S315080054E04019002007B5A0F50723A3F50073B3F507
S315080054F0806F01910AD20423014606480DEB030288
