S01C00006275696C642F64656275672F67656E657261746F722E7333379C
S21400000000100020D90200000991000009910000AC
S2140000100991000009910000099100000991000073
S2140000200991000009910000099100000991000063
S2140000300991000009910000099100000991000053
S2140000400991000009910000099100000991000043
S2140000500991000009910000099100000991000033
S2140000600991000009910000099100000991000023
S2140000700991000009910000099100000991000013
S2140000800991000009910000099100000991000003
S21400009009910000099100000991000009910000F3
S2140000A009910000099100000991000009910000E3
S2140000B009910000099100000991000009910000D3
S2140000C009910000099100000991000009910000C3
S2140000D009910000099100000991000009910000B3
S2140000E009910000099100000991000009910000A3
S2140000F00991000009910000099100000991000093
S214000100099100000991000009910000000000001C
S21400011001F0FF01102A2BDB10F0070F08D010F8B3
S214000120013B013A8B422DD010F0070F42B3F6D1B7
S214000130F0B441EA012141EA014122F007047FF0D0
S21400014000070023F0E80256083C85EA010586EA27
S214000150010685FA47F5A3FA87F586FA47F6A5FA63
S21400016087F68EB9EED1F0BC01F0FF0102F007026F
S21400017032B110F8013B013A83EA010313B1F8D11A
S2140001800020704701387047002D06BF35460338FB
S214000190073815F0010F07D1013015F4807F02BF34
S2140001A0013015F4C03F0130F0BC0138704700BF85
S2140001B00348044B834202D0034B03B118477047F1
S2140001C0D4190020D4190020000000000548064B72
S2140001D01B1AD90F01EBA301491002D0034B03B140
S2140001E018477047D4190020D419002000000000DA
S2140001F010B5064C237843B9FFF7DAFF044B13B16A
S2140002000448AFF300800123237010BD5A2E00204F
S21400021000000000E8EE000008B5054B1BB10549DC
S2140002200548AFF30080BDE80840FFF7CFBF00BF2A
S2140002300000000008250020E8EE0000A3F5803A44
S214000240704700BF174B002B08BF134B9D46FFF7A8
S214000250F5FF00218B460F461348144A121A0DF07C
S21400026064F90E4B002B00D098470D4B002B00D0A6
S21400027098470020002104000D000D48002802D0F9
S2140002800C48AFF3008007F0DFF8200029000DF0DF
S214000290ADF806F0D5FF00BF000008000000000023
S2140002A00000000000100020D4190020603E00204E
S2140002B00000000000000000054A064903461068DA
S2140002C003448B4294BF13604FF0FF30704700BF6B
S2140002D0041000200000042008B500F083F8124B3C
S2140002E012498B4212D3124B124900208B4218D36C
S2140002F0FFF7A8FF186850F82240586840F82240D8
S214000300013298688242F5D30C33EAE70022F8E718
S2140003101C6844F8220001325C68A242F8D3083315
S214000320E4E70022F8E700BFF0EE0000FCEE000075
S214000330FCEE0000FCEE00000048704700F04902AA
S214000340104AD2F8943003F00703023B032B13D86D
S214000350DFE803F00C14020E0B4B1B68D2F800010A
S214000360C0F304200130B3FBF0F07047074BF4E70E
S214000370074B1B685B08F1E7054BEEE74FF40043BD
S214000380ECE700BF00400E401010002014100020C4
S2140003900810002008B5FFF7D3FF054BD3F8083147
S2140003A0C3F308230133B0FBF3F0024B186008BD1B
S2140003B000400E400C100020014B1868704700BF2C
S2140003C014100020054B1860054BD3F8943003F04A
S2140003D00703022B01D1FFF7DDBF70471410002082
S2140003E000400E40044B054A9A60D3F8882042F439
S2140003F07002C3F88820704700ED00E0000000009F
S214000400014B1868704700BF10100020024B196897
S214000410024B186808F0E0BA1810002038100020C8
S21400042070B59400224605460E4608F0EBFE431CC7
S2140004300AD058B92246314628460DF04CF8002816
S214000440034808BF002070BD0248FCE70248FAE7F0
S21400045010E000F021E000F024E000F013B50446C0
S21400046001A801F06BF89DF80630238040F20113D6
S2140004706380074BD3F8E4301B0E0A33012203F0E7
S2140004801F0302FA03F30020636002B010BD00BF32
S2140004900081E00F10B5044601F002F8431C17D0A7
S2140004A0C0B90D4BD3F8E420120E0A3202F01F0238
S2140004B00123934023F0030320462344984201D1AE
S2140004C0002010BD50F8042B0132F7D00348F8E79F
S2140004D00348F6E70348F4E70081E00F0EE000F07B
S2140004E021E000F024E000F008B508F039FE014BEA
S2140004F0186008BD102C0020014B186808F034BEA8
S214000500102C00200C4B984205D90C4B984210D862
S2140005100122012301E00022134609490B64094920
S214000520D1F8003123F0807343EA0263C1F800314A
S21400053070470222EDE700BF0048E8010090D003B4
S2140005400000C84300400E400F4B5B680F4B30B5B1
S21400055000221C46C9B21D798D4202D11D68854213
S2140005600DD20132052A03F10803F4D10321064A0D
S214000570536823F0407343EA0163536030BD04EBD5
S214000580C2046179F3E700BF00000E40B8E0000047
S21400059070B5084C41F67136256C2664FFF7CCFE24
S2140005A00021FFF7D1FFADB2B5421CBF0023236484
S2140005B070BD00BF00000E40044BDB6B5B0604D42E
S2140005C0034AD2F8C830002BFBD1704700300E40EB
S2140005D00000C64308B5FFF7EFFF024B5868C0F3AC
S2140005E0014008BD00300E40044BD3F84421D2072A
S2140005F003D4D3F840211042FBD1704700400E4090
S21400060070B5064C41F67136256C2664FFF79CFFE4
S214000610ADB2B5421CBF0023236470BD00000E407F
S21400062038B5C0F30323013B092B11D8DFE803F0EC
S214000630052710102B221D101511154DC0F304347C
S21400064005F1424505F5801504EBC5008000016004
S21400065038BD104DC0F30434F2E70F4DC0F3043438
S2140006604FF48030FFF7C0FFEAE7C0F304340B4DC9
S2140006701020F7E7C0F30434094D0120F2E7094DD6
S214000680C0F30434DCE7084DC0F30434D8E700BFF9
S21400069000400E4050410E40F0400E40E8400E40F4
S2140006A0E0400E40C0400E40B0400E40C0F3031382
S2140006B0013B092B2AD8DFE803F0050B0F1929297F
S2140006C01F23374B274BD3F80001C0F30420704795
S2140006D0244BD3F81401F8E7224BD3F80031C3F3C8
S2140006E00063013301209840013870471D4BD3F852
S2140006F00C01C0F3082070471A4BD3F80801F8E73E
S214000700194B984204D0194B984207D000207047E6
S214000710144BD3F8203103F00F03E3E7114BD3F863
S2140007202031C3F30113DDE7114B98420CD003F5DB
S214000730B01303F580539842E8D10A4BD3F828311A
S214000740C3F301230433CDE7064BD3F82831E8E79B
S214000750084B9842DAD1034BD3F8300100F003007F
S214000760704700BF00400E408006160080162E0020
S21400077090171A00A009140000F00F00013807288F
S21400078050D8DFE800F00415244F34384F402B4B88
S214000790D3F8943003F00703023B052B06D8DFE8B6
S2140007A003F049243F0305430B207047052070479C
S2140007B0224BD3F8800000F0070002283DD0042822
S2140007C036D0012808BF032018BF012070471B4BF6
S2140007D0D3F8843003F00703013B032B03D8DFE88C
S2140007E003F0041F25270120704703207047134B92
S2140007F0D3F88800DFE7114B1B6F13F0010F0CBF17
S2140008000720092070470D4BD3F85C3103F0300306
S214000810202B0FD0302B0FD0102B08BF0720D3E78C
S21400082002207047002070470C2070470620704753
S2140008300A207047042070470820704700400E408A
S21400084008B50146FFF798FF1A4B994211D01A4B8C
S214000850994212D0194B994204D1194BD3F8800013
S21400086000F007000138032821D8DFE800F00A0E60
S2140008701612134BD3F88400F2E7114BD3F8880016
S214000880EEE7BDE8084008F040BCBDE80840FFF7CA
S214000890B7BDBDE8084008F03BBCFFF751FD084B6C
S2140008A0D3F80031C3F300630133D84008BD0020FD
S2140008B0FCE700BF030020000500240002001E0025
S2140008C000400E4000F47813B3F5B01F10B5044690
S2140008D074D025D8B3F5402F5ED010D8B3F5802F4E
S2140008E049D005D83BB1B3F5003F4FD0002010BD2E
S2140008F0B3F5202FFAD1BDE81040FFF721BDB3F5C0
S214000900801F00F08480B3F5A01F4DD0B3F5602F94
S214000910ECD14A48FFF730FF072878D00928E9E7E6
S214000920B3F5381F53D013D8B3F5001F58D00AD8E4
S214000930B3F5D01F56D0B3F5F01FD7D14048BDE869
S2140009401040FFF77DBFB3F5101FCFD13D48F6E747
S214000950B3F5481F4DD0B3F5781F65D0B3F5401FEB
S214000960C4D13948FFF76CFF384BD3F82831C3F3AE
S2140009700123043320E0FFF7E3FC344BD3F80C31BB
S214000980C3F308230133B0FBF3F0B0E7FFF7D8FC5E
S2140009902E4BD3F80831F3E7FFF7D2FC2B4BD3F8F6
S2140009A01431C3F30423EDE72648FFF749FF274B2E
S2140009B0D3F8303103F00303D84098E72048FFF718
S2140009C03FFF224BD3F8203103F00F03F4E71C4817
S2140009D0FFF736FF1D4BD3F82031C3F30113EBE7C7
S2140009E01948ACE71848FFF72BFF184BD3F8283107
S2140009F0F3E71748FFF7C0FE072808D0082809D0F5
S214000A0004287FF473AFBDE81040FFF7D5BC114B48
S214000A1018686CE7FFF794FC0C4BD3F80031C3F36F
S214000A20042303FB000062E7FFF78AFC014620462A
S214000A3008F091FBB1FBF0F059E700BF06000E008E
S214000A4002001E00050024000300200000400E40A7
S214000A50B80032003C100020014B1880704700BFE1
S214000A60C4190020013810B5032812D8DFE800F0BA
S214000A70022E1220214AC1F30801D2F86838002B52
S214000A80FBD11F4A136A23F4FF7323F001030B43C1
S214000A90136210BD194A01F07F01D2F86038002BAE
S214000AA0FBD1174A136923F07F030B431361F0E76A
S214000AB0124A01F07F01D2F86438002BFBD1104AAD
S214000AC0936923F07F030B439361E2E70C4AD2F865
S214000AD09030536A23F0300343F010035362146BD4
S214000AE0084BC1F3C31003300F2803EA040328BFE2
S214000AF00F200B4343EA00731363CAE70020C84382
S214000B0000400E4000F8FF0F104A536A13F0300FF3
S214000B1018D0202913D0302914D000290C4B08BF38
S214000B204FF44003D2F8901033EA0101FAD15B0289
S214000B3046BFD2F8A000C0F38020012070474FF4D3
S214000B400003EFE74FF44003ECE700BF00400E4021
S214000B50FF33E10702280AD129B1064B4FF4806023
S214000B60C3F8A800596612B10220FFF7CDBF0120D6
S214000B70704700BF00400E400428F8B548D8304BF8
S214000B8013F800C02F4B1D5C2F4B33F810702F4B03
S214000B9033F810402E4B002940D0022839D15C6A29
S214000BA014F0300F35D12B4CE46B5C6AE40705D5A6
S214000BB05E6A26F0300646F010065E62264C244B2F
S214000BC025441F66AD002B68002BFCD002B364449E
S214000BD0A4002368002BFCD0022819D1C1B11C4DFB
S214000BE0696A11F0010116D001222021FFF7B2FF39
S214000BF0D5F89C60012200210220FFF7BDFFC6F356
S214000C000A010220FFF72EFF2F662368002BFCD078
S214000C10F8BD0021D2E7FFF777FFE9E701211C6660
S214000C20A940D3F890000842FBD1002AF0D0012357
S214000C30074903FA0CF3D1F890201A42FBD1E7E7F4
S214000C40B3E00000AEE00000A4E000009AE0000080
S214000C5000400E4000300E408004F21038B5FFF71A
S214000C60ABFB0021044600F035F91248FFF74AFCBA
S214000C70012211460220FFF77FFFFFF789FC0CB127
S214000C80FFF79AFC0C4B02225A67FFF759FBFFF757
S214000C9039FCFFF77FFB0546FFF79CFC014628461C
S214000CA0FFF7AEFC2CB920460121BDE8384000F025
S214000CB011B938BD0148E80100400E4010B50446A1
S214000CC01120FFF759FD002101220220FFF754FFF3
S214000CD0184A217C536A23F00103022908BF43F017
S214000CE001035362144B2178C3F8A014637AA188D9
S214000CF043EAC123D362136BA07A217A03F07F63A1
S214000D000343E08843EAC02343EAC11303310F29B3
S214000D1028BF0F2143EA01731363A37B617B1B018A
S214000D2043EA0133E17B0B43217B43EA01435363F0
S214000D3010BD00BF00400E400000C84338B50E4D41
S214000D400E4C01461120FFF717FDAA6B4B78144096
S214000D500A78144344EAC3248B7844EA0364CB78C5
S214000D6044EA0324AB6BA34205D0002101220846C7
S214000D70FFF702FFAC6338BD00400E4080E4FFF88A
S214000D80034BD86B80F04000C0F38010704700BF64
S214000D9000300E4042EA0322B2F5007F10B5194C2F
S214000DA029D00AD8B2F5807F22D040F201139A42A9
S214000DB015D062B9D4F81C320BE0B2F5407F1DD0D6
S214000DC040F201339A4210D0D4F8283201E0D4F829
S214000DD02432C3F30722DBB203600A6010BDD4F8E6
S214000DE024321A0EC3F30743F6E7D4F82832F8E79E
S214000DF0D4F81C32F5E7D4F82032EAE7D4F82032EB
S214000E00EFE700BF0081E00F08B5FFF7B9FF20B19C
S214000E10024AD2F8C830002BFBD108BD0000C643FA
S214000E200E4A0379916921F03F010B43017843EAAA
S214000E308103417843EA4103817843EAC103C178DC
S214000E40012908BF43F0010393611368417923F435
S214000E50403343EA01431360704700BF00300E4042
S214000E602DE9F04104460D46FFF78AFF60B3DFF830
S214000E706080FFF7C9FFD8F80430C3F301439C42F3
S214000E8022D0124BD3F80031FFF75AFA022C07464D
S214000E904FF0100609D12146FFF7B2FBC8F81060E4
S214000EA095B1BDE8F041FFF7AFBFC4F102039E4025
S214000EB0C8F810600DB1FFF7A7FF2CB921463846D9
S214000EC0BDE8F041FFF79CBBBDE8F08100400E4056
S214000ED000300E4038B505460C46FFF751FFB8B156
S214000EE045B90C4BD3F80051FFF72AFAC5F3042591
S214000EF005FB0005084B1B7821463BB1074B9D427E
S214000F0004D80220BDE83840FFF7AABF0020F9E762
S214000F1038BD00BF00400E405B2E0020002D310182
S214000F20234B4AF6E85210B5596B5A639A6FD207AC
S214000F30FCD41B6C13F0030306D01E4A012498420F
S214000F40C2F8B44A1AD110BDA0B1431E012B17D85F
S214000F50174A4FF40023D362936FDB07FCD4136C5D
S214000F6023F0030343F001031364114A536A1C037E
S214000F70FCD505E00F4BC3F8B40AE4E7032BE4D036
S214000F800B4B9A6FD207FCD41A6C22F00302024372
S214000F901A649A6F12F00102FBD10038054C18BF94
S214000FA001200129C4F8B40A08BF5A63CBE700BF82
S214000FB000300E400000C6432DE9F04F00238BB0F2
S214000FC0CDE90433CDE90633CDE90833A0F5E16376
S214000FD0B3F5966F05460191934603D900200BB0F2
S214000FE0BDE8F08F624BDFF88C81D3F81842B0F57D
S214000FF0E16F15BF4FEA146AC4F3072AC4F3074427
S214001000E4B20694CDF824A0D8F84C60C6F3017676
S2140010108CBF01220022334607A904A815BF4FF44F
S214001020E1674FF496674FF496694FF4167903928A
S214001030FFF7B0FED8F8EC30039AC3F3012308A9F3
S21400104005A80293FFF7A6FEA5EB070CAAEB040281
S2140010500CFB02F2B2FBF9F214445445079F0498C5
S214001060089A0599BAD8A2EB010E0CFB0EFEBEFB41
S214001070F9FE11EB0E012CBF4FF0010E4FF0000EE3
S2140010808A42ABD3BEF1000FA8D13A1A0CFB02F28B
S214001090B2FBF9F280182CBF0122002287429DD3B2
S2140010A0002A9BD1029BBBF1000F0FD0D8F85C2022
S2140010B0B5F5E16722F4FE4218BF012722F00202CE
S2140010C042EA470242EA0422C8F85C20019A0AB9BA
S2140010D0012084E7264A022ED2F830223ED0032E84
S2140010E03FD0012E14BFD2B2C2F30722120312F46D
S2140010F0702F7FF473AF1F4EF46E24F470442243B7
S214001100F2661B4A022BD2F830222CD0032B2DD0AD
S214001110012B14BFD2B2C2F30722120312F4702FAF
S2140011207FF45CAF134CD4F8EC3023F470431343D5
S214001130C4F8EC30636E884238BF084623F4FF7369
S214001140E72823F0010328BFE720B5F5E16F18BFB5
S21400115043F0010343EA40036366B9E7C2F307427C
S214001160C4E7120EC2E7C2F30742D6E7120ED4E770
S2140011700081E00F00300E402F4B1A6FD96C11F033
S214001180010F02F0060242D0002A40D013284FD9A1
S214001190143813288CBF102308232749013BCA6C38
S2140011A0180322F47F4240EA03231343CB64234B05
S2140011B0CA6C1B88C2F303222833013202EB82007A
S2140011C003EB5303B3FBF0F3C86C013B072B28BFBC
S2140011D0072320F0EE6040EA036343F48013CB64F9
S2140011E0174BB3F90030002B10DB2833500800EB08
S2140011F0420203EB5303B3FBF2F30A6D072B28BF3F
S214001200072322F0700242EA03130B657047D96C7D
S21400121001F00101114304D1092809D90A38092827
S214001220B8E7DB6C13F00103B7D01AB92728B1E78B
S2140012300423B2E70023B0E700300E40582E00200B
S214001240542E0020064A074BD3F88039136F23F03C
S214001250070303431367044B1888FFF78DBF00BFCF
S21400126000300E400000C643562E0020394B0222A6
S2140012702DE9F0419A639B6B03F00F0393420446FB
S21400128003D000252846BDE8F081C288B0F8088063
S2140012908588B0F90C6047784A2A4ED9B2F5FA7FAD
S2140012A04DD340F6C3139A428CBF4FF040524FF0D6
S2140012B000522849CB6C23F0405323F00103002E44
S2140012C0A8BF43F001031343CB64D1F8EC3043F4DA
S2140012D04073C1F8EC30204B1D80CB6E43F080731A
S2140012E0CB661E4BD3F8800900B10420FFF7AAFF97
S2140012F01B4BA3F800801B4B28461E80FFF73CFFC5
S214001300A37BFBB1012B21D0012260881146FFF799
S21400131053FE05460028B4D00E4AD36B43F48063D0
S214001320D3633846FFF7FCFDA37AA3F120025342AD
S21400133053410A4AC2F89437A4E70022B9E74FF0AF
S2140013408052B6E7034B084A9A65DDE7014B074A29
S214001350FAE700BF00300E40562E00200000C643BD
S214001360582E0020542E002077402057372110B7E3
S214001370054B5A685B68054B41F671321A649A68E9
S21400138022F001029A60704700300E4000000E40C6
S214001390034B9A6822F001029A6000221A64704792
S2140013A000000E40094A0A4BD969C90705D512B98B
S2140013B06FF002007047013AF6E7002AF8D00122E3
S2140013C01861DA60D86940F380007047809698000C
S2140013D000000E4070B509B9002070BD0E4A00230B
S2140013E0082550F8234094610C4CD5600133D6692B
S2140013F0F60705D514B96FF00200EEE7013CF6E7F4
S214001400002CF8D0D469A40702D49942E9D1E3E7C6
S2140014106FF00100E1E700BF00000E4080969800E4
S2140014202DE9F8431C4B0D4641F671311E6C1964CC
S2140014301A49804648684968996841F00101B6B281
S214001440996097084FF00009B94501D3002005E0E0
S21400145008EB89042046FFF7A5FF48B10E4B9A68B3
S21400146022F001029A600EB100221A64BDE8F883E9
S214001470C4F30A01C1F500618908A7EB0903994284
S21400148028BF19462846FFF7A5FF0028E6D189445D
S21400149005EB8105D8E700BF00000E4000300E4087
S2140014A0234B41F671311A6C10B5196421494C680A
S2140014B04968996841F00101996001211861D96075
S2140014C0D9694C0792B209D5996821F00101996053
S2140014D00AB100221A644FF0FF3010BD0221D96015
S2140014E01549D869C00700D569B9D86910F0020057
S2140014F00BD0996821F0010199600AB100221A64A4
S2140015006FF00100E9E70139EBE741B9986820F090
S2140015100100986002B119646FF00200DDE7996877
S21400152021F0010199600AB90020D6E71864FBE7AC
S21400153000000E4000300E40809698000D4AD2F80B
S214001540E430D2F8E0109B0003F03C03C1F38111B5
S2140015500B438370D2F8E03003F03F034370D2F8B9
S214001560E830D2F8EC2003F0F003C2F30312134382
S2140015700370704700FF0FE000230C4A0360032946
S21400158010B50263044643630ED1052107F024FE1E
S214001590636823F4407343F400736360636823F462
S2140015A0406343F40063636010BD00BF200010007A
S2140015B02DE9F04F1E460446894692461F460FCE3A
S2140015C08BB001AD0FC596E80F0085E80F0000252B
S2140015D0099507F0C5FD5146064604F5827007F0EA
S2140015E0DAFD494604F5847007F0D5FD394604F562
S2140015F0867007F0D0FD304607F0B6FD5F4E604BB4
S214001600DFF8BC91DFF8BCA12365DFF8BCB107F0BA
S214001610A7FDC4F850B0D4F8148007F0A5FD18F064
S214001620807F19D0574B236507F09AFDC4F850B059
S214001630656907F099FDEB0140F1888007F090FDA1
S2140016401499054604F5887007F0ADFD284607F0A6
S2140016508BFD0BB0BDE8F08F18F4807F1CD14A4B91
S2140016602365013D9023A360636913F4807F474B95
S21400167023650ED007F074FD3946834604F5807066
S21400168007F089FD584607F06FFD414B2365414B37
S21400169063658823A360B8E7002D13DA3E4BC4F8D1
S2140016A050A0636507F05CFD01A9834604F58070D1
S2140016B007F079FD63695846C3F30343099307F0BF
S2140016C053FD6D42354B23656369DFF800C113F4A3
S2140016D0407F4FF08803A3604FF0010162692665E2
S2140016E061656369C4F850C00ABF01204FF0FF303F
S2140016F005F1FF358842C3F30723C2F300220BD15E
S21400170032B1D90704D5264B2365264B6365A9E776
S214001710254B2365254BF9E79AB9DA0711D5244BF3
S2140017202365244B6365A16501A904F5807007F065
S21400173032FD099B03F00F03C4F848318323A360EE
S21400174090E71D4BC4F850906365EDE707F008FD81
S21400175004F5807639460546304607F01CFD2846D7
S21400176007F002FD154B236507F0FAFC14990446B2
S214001770304607F018FD204669E700BFC93E81984D
S2140017803084880198390100C93E8101D23E820129
S214001790C024D0340982010099830100D9080100D1
S2140017A0C8340981E20C8201C80881E20C8201007B
S2140017B083D9341181E21482E2148201E010010020
S2140017C083D9108190A2848835393801DB3E010028
S2140017D02DE9F04F89B081460D461646002120229D
S2140017E068461F460BF0A1FE4FF00A0A99F8003033
S2140017F0022B40D0032B07D0012B44D06FF0710B87
S214001800584609B0BDE8F08F202269463846B047F2
S2140018108346BBF1000FF3D100F0BCFA99F8001034
S2140018200446FFF7A9FE07F09BFC6946804604F5D0
S214001830827007F0B0FC404607F096FC374B2365F5
S214001840204607F0E1FC07F08BFC04F58078834621
S2140018506946404607F0A7FC584607F085FC009B03
S214001860012B18D8204600F09FFABAF1010ABDD124
S214001870DFF8BCB0C4E71C2269463846B0470023F0
S21400188083460793C5E7182269463846B0470023C3
S21400189083460693F5E707F063FC05F10C0706465A
S2140018A0294604F5847007F0B3FC05F1180939469B
S2140018B004F5867007F0ACFC494604F5887007F01E
S2140018C0A7FC304607F050FC154B2365204607F072
S2140018D09BFC4946404607F0D0FC8346C8B9114BEE
S2140018E02365114B6365204607F08EFC294640466B
S2140018F007F0C3FC834660B90C4B23654FF48E7328
S2140019006365204607F080FC3946404607F0B5FC84
S2140019108346204600F048FA72E700BF30C80C0144
S21400192081E11C018CE11C81D11C0100E11C81D9E4
S21400193000B3FFFF2DE9F843064610460F469046D3
S2140019401D4609F02DFE28B129463846BDE8F84365
S21400195009F0F9BD2B6A002B40F0AD8000F01AFAB2
S21400196031780446FFF708FE07F0FAFB04F58076A8
S21400197008F118018146304607F04AFC484607F051
S214001980F3FB574B236540F281136365204607F04F
S2140019903BFC07F0E5FB29468146304607F038FC5D
S2140019A0484607F0E1FB4F4B23650123204663655D
S2140019B007F02AFC4C4B236507F026FC07F0D0FB0B
S2140019C005F10C018146304607F022FC484607F038
S2140019D0CBFB464B2365204607F016FC07F0C0FB02
S2140019E008F10C094946054604F5827007F010FC1C
S2140019F0284607F0B9FB3E4B2365204607F004FC5B
S214001A0007F0AEFB41460546304607F001FC284687
S214001A1007F0AAFB374B2365374B6365204607F074
S214001A20F3FB07F11801304607F027FC05460028AF
S214001A303BD1324B2365204607F0E6FB304B23654F
S214001A4007F0E2FB2F4B236507F0DEFB2E4B2365EA
S214001A504FF48A73636507F0D7FB2C4B236507F0BA
S214001A60D3FB3946304607F008FC0546E8B9284B54
S214001A702365284B6365204607F0C6FB07F070FB1E
S214001A8049460546304607F0C3FB284607F06CFB80
S214001A90214B2365214B6365204607F0B5FB07F114
S214001AA00C01304607F0E9FB0546204600F07CF9BD
S214001AB02846BDE8F883284609F072FD08B141467D
S214001AC043E72B6A002B3FF449AF012105F11800CC
S214001AD008F053FC00283FF441AF114DE8E700BF83
S214001AE08184E11C83D91C83E11C810182D11C0105
S214001AF0C81482019983D91481E11C018CE11C0170
S214001B00811C8401D91C830191D11CE0D8141401D6
S214001B1081CB1481D11C820181E11C84E214010076
S214001B2080B0FFFF2DE9F04788B0904605460F4687
S214001B3000F030F92978DFF854910446FFF71CFDD1
S214001B4007F00EFB04F5807608F1180105463046CE
S214001B5007F05EFB284607F007FB40F28313C4F845
S214001B6050902046636507F04FFB07F0F9FA08F13E
S214001B700C010546304607F04BFB284607F0F4FA02
S214001B804FF0010A354B23652046C4F854A007F0F1
S214001B903BFB07F11801304607F06FFB05460028AF
S214001BA054D12F4B23654FF486736365204607F0A8
S214001BB02BFB07F0D5FA4146054604F5887007F07A
S214001BC027FB6946304607F0EEFA284607F0CCFABF
S214001BD0244B2365244B6365244BA365204607F0FE
S214001BE013FB234B2365234B636507F00DFB224B4A
S214001BF02365224B6365C4F858A007F005FB3946F9
S214001C00304607F03AFB054600BB1D4B23651D4BCF
S214001C106365204607F0F8FA07F0A2FA694605461B
S214001C20304607F0B8FA284607F09EFA164BC4F876
S214001C30509063654FF48A73A365204607F0E4FA74
S214001C4007F10C01304607F018FB0546204600F069
S214001C50ABF8284608B0BDE8F08700BF821CC00C71
S214001C6091D11CC0C00C81E11C82DC0C8114840163
S214001C70E11C81C80C0C8101D20C848BD91CE014A9
S214001C8084E21482D11C8301C00C82D38182D11CD1
S214001C902DE9F047A2B00E46054600F07BF815F891
S214001CA0041B044606F11807FFF766FC1C220021F9
S214001CB003A80BF03AFC4FF0010839460AA80DF1CC
S214001CC06809CDF8088007F025FB294612A807F01A
S214001CD021FB12AB0AAA02A9CDF800902046FFF716
S214001CE067FC07F03DFA4946054604F5867904F593
S214001CF0827007F050FA06F10C0A3146484607F0A3
S214001D0087FA514604F5887007F082FA284607F0ED
S214001D102BFA134B2365204607F076FA114B236502
S214001D2007F072FA104B236507F06EFA0F4B236527
S214001D3007F06AFA514604F5807007F09EFA58B923
S214001D403146484607F099FA30B9204600F02CF89C
S214001D504146384608F04CF922B0BDE8F08700BF8F
S214001D608AD11C0181D91C0183D11C0181E11C018F
S214001D7008B5064A064B00290CBF1146194600F066
S214001D8021FBBDE8084007F0EBBA00BF09000002DF
S214001D9008000002024B03480122C3F800267047E1
S214001DA00010C84300000F40094B98420ED003F5C0
S214001DB08063984209D10122064B03EBC2035A689E
S214001DC0054B13449B0000221A6070470022F3E77D
S214001DD000000F40E0E000008005F210A0F50320B0
S214001DE0A0F580704109054A00F01F0001238340DA
S214001DF052F82100034342F821307047142C00208B
S214001E002DE9F047804688B00F461E4615460AB1B3
S214001E10002313600EB100233360DFF8B4904FF058
S214001E20100ACDF800A0D9F8000000233A46414633
S214001E3006F040FF0446F8B93B68214A93422ED18B
S214001E404FF0180A0146524602A80BF06EFBCDF87A
S214001E5000A02346D9F8000002AA414606F02AFF51
S214001E60044648B9069B7B60DDE90423C7E90223E4
S214001E70144B3B6025B9144C204608B0BDE8F087EB
S214001E80114CC5F800A0002EF6D0D9F80000334655
S214001E9002AA414606F062FF60B10446ECE7094A32
S214001EA01DB99342E8D0094CE6E79342C5F800A076
S214001EB0E9D0F8E733682A689B1A3360DCE700BF8E
S214001EC0D175E105105D175EFEDF00F0FFDF00F064
S214001ED0381000202DE9F04F93B007468846FEF7ED
S214001EE095FA0446002847D1374E3378F3B90146B1
S214001EF0402202A80BF019FB344D354A35482B46D4
S214001F001035954294BF009500920068102202A9F1
S214001F100BF01EFF0DF1080B82464FF00009CA4574
S214001F2012D12D4B9D42E8D1012333702B4E337BCB
S214001F308BB1D6E90023984508BF97420BD1B56808
S214001F40284613B0BDE8F08F5BF8040BFFF746FF9A
S214001F5009F10109E3E7DFF89090DFF890A0DFF8D9
S214001F6090B0630904F01F0259F82330D340DB0712
S214001F7004D40134812CF4D1194DE1E704F503258E
S214001F8005F5807500231A4602A92846FFF738FF94
S214001F9008B150450BD1DDE90423984508BF9742A8
S214001FA0E7D10123C6E900783373B560C8E70D4B67
S214001FB0984201D05845DCD1064B2946186806F0F1
S214001FC013FF0028D5D0D7E75C2E0020003108008C
S214001FD0813108003810002090310800F8240020D5
S214001FE082310800FFDF00F0142C0020FEDF00F036
S214001FF011E000F02DE9F84F994640F26C739A42D2
S214002000DDF828A083460E4617466DD812B1B9F102
S214002010000F6CD0BAF1010F6CD831465846FFF766
S21400202059FF07F1100805464146012007F0D4FA8B
S2140020300446002861D0424600210BF076FA304B69
S2140020409D4234D92F480368D90713D42E4D2F4B01
S2140020502360C4E902B6002614E05A0903F01F0103
S21400206050F82220CA40D20705D405F5032505F20C
S2140020700115ECE700231D460133812BEDD1244DDD
S2140020806FF08D06C4F804A02FB13A46494604F115
S21400209010000BF054FA1F484346006822462946B3
S2140020A006F070FD68B92846FFF798FE0BE000239F
S2140020B01A4621462846FFF7A3FE78B1164B9842EB
S2140020C00CD06FF091064246002120460BF02DFA08
S2140020D0204607F091FA3046BDE8F88F6368012B7A
S2140020E0B9D16FF08406EEE76FF09106F3E76FF074
S2140020F08606F0E76FF08506EDE76FF08C06EAE7F8
S21400210081310800142C002000310800105D175E95
S2140021108231080038100020FEDF00F02DE9F04183
S21400212088B0DDE90E7815461C4693B1B8F1000F6D
S21400213004D16FF0860008B0BDE8F081002FF8D01B
S214002140B7F1005FF5D3C3F1005303F580239F4238
S214002150EFD8FFF7BFFE1E4B9842064602D96FF037
S2140021608B00E8E7102200210DEB02000BF0DDF9F2
S2140021700023CDE9023303AA02AB04A93046FFF7D9
S2140021803FFE144B9842EAD028B1013B984202D059
S2140021906FF09100CFE7029B94B1AB4213D853EA9D
S2140021A00504C6D1039B0C48C8F80040009400689C
S2140021B02B443A46314606F07DFD0028BBD0E7E7C3
S2140021C0AB42EFD2B5E75B1B9C4228BF1C46E9E753
S2140021D081310800FFDF00F03810002030B51446CB
S2140021E087B022B3FFF776FE144B9842054603D914
S2140021F06FF08B0007B030BD1022002102A80BF054
S21400220094F90023CDE9003301AA6B4602A92846BB
S214002210FFF7F6FD0A4B9842EAD010B1013B984210
S21400222008D1039B6360009B23600020E2E76FF009
S2140022308600DFE76FF09100DCE700BF8131080021
S214002240FFDF00F070B586B006460D46FFF742FE8B
S214002250234B9842044603D96FF08B0006B070BD3E
S2140022601022002102A80BF060F90023CDE900330C
S21400227001AA6B4602A92046FFF7C2FD194B9842F9
S214002280EAD028B1013B984202D06FF09100E5E712
S214002290039B012B21D0144B2146186806F0A4FDA1
S2140022A00028F2D1114B1A7B32B1D3E90012AA42B0
S2140022B008BFB14208BF1873A4F50324A4F58074C0
S2140022C061090B4A04F01F0452F821000123A340C1
S2140022D0434042F821300020C0E76FF08400BDE79D
S2140022E081310800FFDF00F038100020F8240020BD
S2140022F0142C00202DE9F04788B00746884615467E
S2140023001E46FFF747FD044607F17E4008380128C1
S21400231050D80423236000236360E364626822F4D9
S214002320406262606A46236391466363A8F10403D1
S21400233008F11C0853F8041F09BA434542F8041B69
S214002340F8D106F00DFF4946074604F5827006F000
S21400235022FF384606F008FF184B2365109BDFF86F
S214002360609005EB831704F5D27A06F0F9FE29464D
S2140023708046504606F01FFF4035404606F0F4FE05
S214002380BD42C4F85090F0D106F0EAFE314605464C
S21400239004F5807006F007FF284606F0E5FE2046A6
S2140023A0FFF702FD331F1C3653F8042F12BAB34250
S2140023B01A60F9D108B0BDE8F08700BF888AC80166
S2140023C0070D810138B50D46044630B36C22002156
S2140023D00BF0ABF8124B9D4205D001339D4210D056
S2140023E06FF0850038BD0F4B04F10C0203F120019D
S2140023F053F8040B42F8040B8B42F9D125600020F9
S214002400F0E7094B04F10C0203F1200153F8040B2A
S21400241042F8040B8B42F9D1F0E76FF08600E1E753
S21400242008000002F0E0000011E100002DE9F34191
S2140024300E461F46054600285FD083B9002A5CD1A9
S2140024402B68324A93425ED0013293420CBF6FF043
S21400245089046FF08804204602B0BDE8F0810029A8
S214002460ECD0036829498B4244D001318B4247D1D6
S2140024704FF02008904546D86A68D3008DF807309C
S21400248053098DF80630530B8DF80530530D8DF833
S2140024900430AB68D90001EB52718DF8031002F0DE
S2140024A03F025909372A8DF802104FEA53318DF84A
S2140024B001104FEA535316498DF8003094BFC2F10D
S2140024C03802C2F17802284606F07EFF044600284D
S2140024D0C1D108226946284606F076FF0446002841
S2140024E0B9D1C7F80080424605F10C0130460BF022
S2140024F026F8B0E74FF01C08BCE76FF08604AAE7A2
S2140025006FF08804A7E76FF08904A4E708000002CC
S21400251032E100002DE9F0419CB0DDE92278164654
S2140025201C460D4601B90AB91CB92FB16FF08600DA
S2140025301DE0B8F1000FF8D0014601A8FFF742FFF2
S214002540A8B9019B0F4A934214D00132934213D18B
S2140025502023BB4213D83246294601A806F034FF92
S21400256028B943463A46214601A8FFF75FFF1CB04C
S214002570BDE8F0811C23ECE76FF08800F7E76FF00A
S2140025808900F4E70800000270B5114C114E0A25C8
S214002590236843F4807223F48073226030462360FD
S2140025A0FEF790F90023800A62680AB983420AD1CE
S2140025B0636853B9013DEBD1236823F00103236020
S2140025C06FF0920070BD0133EEE70020FAE700BF1F
S2140025D000D00140700002002DE9F04F85B0634D39
S2140025E00092634AD2F8C03043F40033C2F8C030D9
S2140025F02B68DC0781468A4616D500245B4D4E467E
S214002600D04627464FF00A0BB8F1000F2BD144B145
S21400261014F1940F05D04246002148460AF085FF83
S2140026200027009B1F601AE040F271632B60FFF7E3
S214002630ABFF044698B96B68032BFCD9D5F800317C
S2140026402B61D5F800316B61D5F80031AB61D5F858
S2140026500031EB61FFF798FF04460028CDD02046F6
S21400266005B0BDE8F08F6C68A40005D02B6B13F4A2
S2140026705C7F12D1002437E03E48FEF723F9C00AFB
S214002680844205D16B68002BF0D16FF09304C8E745
S2140026906B68002BF6D10134F2E7D80514D523F485
S2140026A080732B636B6853B9BBF10107EDD04E46C0
S2140026B0D0466FF093040022BB461746A4E7D5F831
S2140026C000310393039BEDE70193FFF75DFF04469C
S2140026D020B9019B13F41C7FCCD0E5E710F1930FD3
S2140026E099D010F1940FDFD06B686A689B00434561
S2140026F028BF4346B107324634D123F003013144A4
S214002700914212D103F0030149B11848D0F80001F4
S214002710114402F8010B8A424FEA1020F9D1FA1848
S2140027201E44A8EB03085F46C6E7D5F8000142F84A
S214002730040BE5E7DCF8001102F8041C4FEA112E42
S21400274002F803EC4FEA114E090E02F802EC02F80A
S214002750011C0438032802F10402EBD823F003021C
S2140027603244CFE7DFF804C01846F3E700D0014054
S21400277000400E40700002007FB5094B6A4603F128
S2140027801006154618685968144603C40833B34241
S2140027902246F7D12846FEF769FD002004B070BD3A
S2140027A072E1000070B5174B86B001AA03F110065F
S2140027B0154618685968144603C40833B3422246BF
S2140027C0F7D11B882380104BD3F8B420120313D5FF
S2140027D0A3F500434FF6FF721B88934208BF4FF4E1
S2140027E08D730A48ADF80A30FDF7ECFD2846FEF773
S2140027F065FA002006B070BDD3F8B830C3F30803FE
S214002800EFE700BF82E100000081E00F00F0490220
S21400281007B5084B18680190202301A88DF80430EE
S214002820FEF78CFA6420FEF717F9002003B05DF877
S21400283004FB00BF94E1000010B50C480C4C6FF090
S2140028400403A02113F0800F03F1010207D12344F3
S214002850332A83F800131346F4D1002010BD03F08A
S2140028600F03043B034419761346EBE700ED00E044
S21400287000E100E010B5044606F072FC024B1C6056
S21400288006F072FC002010BD282C002010B506F0C3
S21400289067FC034B1C6806F067FC204610BD00BFB3
S2140028A0282C002013B5002301241A46194600944C
S2140028B0184603F00BFE00231A46194618460094E5
S2140028C003F034FE0248FFF7D5FF002002B010BD2B
S2140028D04410002070B586B0CDE9043205460E4699
S2140028E01046002110221C460AF01FFE04AB03937C
S2140028F0064B02930023CDE90033FF22E3B23146B4
S214002900284606F06CFF06B070BD00BF13960000A8
S2140029102DE9F0479AB0054611A898460C4692460F
S214002920DDE9226908F08DFD05A807F0D3FA08A8AE
S21400293007F0D0FA0BA807F0CDFA0EA807F0CAFAEF
S2140029406B6D002B00F084800121304607F015FDEA
S214002950002813DB05F14C073946304607F0CCFC5F
S21400296000280BDA0121484607F007FD002805DBA2
S2140029703946484607F0C0FC002813DB354C11A842
S21400298008F09CFD05A807F0ABFA08A807F0A8FA1F
S2140029900BA807F0A5FA0EA807F0A2FA20461AB070
S2140029A0BDE8F0872246534605A9284608F04FFCA6
S2140029B004460028E3D13A46494608A808F02BFA10
S2140029C004460028DBD108AA05A90BA807F0C5FE17
S2140029D004460028D3D10BA93A46084608F0FDF86D
S2140029E004460028CBD108AA31460EA807F0B5FE4B
S2140029F004460028C3D10DF138093A4649464846F0
S214002A0008F0EBF804460028B9D1CDE90180CDF8EE
S214002A10009005F128030BAA11A9284600F08AFCAD
S214002A2004460028ABD111A808F0BAFD0028A5D1AD
S214002A3011A93A46084608F0D0F8044600289ED168
S214002A40314611A807F058FC0446002897D095E7B1
S214002A50014CA3E700B2FFFF80B0FFFF2DE9F04F67
S214002A609846436D99B005460F461446002B00F075
S214002A70B5800121404607F080FC002804DA58495A
S214002A80084619B0BDE8F08F05F14C0631464046C1
S214002A9007F032FC0028F2DA0FA808F0D2FC06A8ED
S214002AA007F018FA09A807F015FA0CA807F012FAAA
S214002AB04FF00C0905F1280BB9F1010900F08C80E4
S214002AC04FF00C0ABAF1010A00F0868006A9DDE98B
S214002AD02423284600F09CFC014600286DD1279B45
S214002AE00193269B029000930FA95B4606AA2846F0
S214002AF000F080FC014600285FD10FA93246384618
S214002B0008F06BF80146002857D1384607F035FC28
S214002B100028D7D009A9DDE92223284608F097FB2C
S214002B200146002849D10CA9DDE92623284600F0F5
S214002B306FFC0146002840D139464246204607F041
S214002B400CFE0146002838D109A90846224607F09F
S214002B50F0FC014688BB09A908460CAA07F0FDFD53
S214002B60014650BB06A908460CAA07F0F6FD01462A
S214002B7018BB06A90846324608F02FF80146E0B909
S214002B8006A93246204608F046F90146A8B921466D
S214002B9009AA204607F0E1FD014670B921463246F3
S214002BA0204608F01AF8014638B90590204607F086
S214002BB0E4FB059900283FF47FAF0FA8059108F0C5
S214002BC07DFC06A807F08CF909A807F089F90CA87F
S214002BD007F086F9059953E70249EEE702494FE701
S214002BE080B3FFFF00B3FFFF80B0FFFF70B50C4659
S214002BF00646114620461A4607F0AFFD054698B928
S214002C00736E33B9321D21462046BDE8704007F08A
S214002C10E4BF2368002B09DB204607F032FAB36DC9
S214002C20B0EB430F09D9184D284670BD0146204623
S214002C3007F0A3FB0028EFD0F5E7736E2046984711
S214002C4005460028F0D104362368002B04DA00215C
S214002C50204607F092FB68B93146204607F04CFB49
S214002C600028E1DB32462146204607F0F3FB002829
S214002C70F2D006E032462146204607F05AFC0028ED
S214002C80E2D00546D0E700BF80B0FFFF38B50D465E
S214002C900446002105F1180007F06FFB50B12046EE
S214002CA006F056FB28B129462046BDE83840FEF718
S214002CB0EFBF014838BD00BF80B1FFFF02460448A1
S214002CC003780BB9184670479342FCD00C30F7E7F0
S214002CD0A4E100002DE9F047824604301F46DDE9F6
S214002CE008490E46904607F0EBF90546504608F0B0
S214002CF09FFB0128824602D01F48BDE8F0870021CE
S214002D0006F1180007F039FB40B9B9F1000F01D100
S214002D101A48F2E72070C7F800A0EEE7B8F1000FF7
S214002D2017D16B0001334B453B60F1D82146042395
S214002D3001F8013B2A46304607F0E9F90028DCD1C5
S214002D40691C2A46214406F10C00BDE8F04707F04E
S214002D50DEB9B8F1010FCFD16B1C4B453B60D7D81D
S214002D60002106F10C0007F05FF92146023001F859
S214002D70010B2A463046E8E780B1FFFF00B1FFFFAF
S214002D802DE9F04180460C4616461F4613B91A48F0
S214002D90BDE8F081043007F093F90546404608F098
S214002DA047FB0128804625D1337833B9012FEED171
S214002DB02046BDE8F04108F0DFBB042B1AD16B00BB
S214002DC00133BB42E3D12A46711C204607F07EF948
S214002DD00028DDD1691C2A46314404F10C0007F0B6
S214002DE075F90028D4D1414604F11800BDE8F04139
S214002DF007F0FEB80148CBE780B0FFFF80B1FFFFC9
S214002E002DE9F0410E4686B00546012106F1180070
S214002E1007F0B3FA044650B9284608F009FB012823
S214002E2079D12146304607F0A8FA002801DA3B4C53
S214002E306DE006F10C082146404607F09EFA002891
S214002E40F5DB2F1D3946304607F056FA0028EEDA35
S214002E503946404607F050FA0028E8DA684607F098
S214002E6039F803A807F036F843464246694628462E
S214002E70FFF7BCFE0446002843D13346324603A97A
S214002E802846FFF7B3FE044600283AD1AB6973BB69
S214002E9003A90322084607F091FB044688BB039B60
S214002EA0002B04DA002103A807F067FAC8B903AAC2
S214002EB0334611462846FFF799FE044608BB03AA88
S214002EC005F11C031146284608F047FA0446C0B927
S214002ED003A9684607F010FA104B041E18BF1C46DC
S214002EE00FE003A93A46084607F023FBD5E703AAF6
S214002EF005F110031146284608F02FFA044600286C
S214002F00D5D0684606F0ECFF03A806F0E9FF204699
S214002F1006B0BDE8F081024CF9E700BF80B3FFFFC2
S214002F2080B0FFFF38B5054608F082FA01280C4647
S214002F3001460DD1204607F020FA002806DB05F1F1
S214002F404C01204607F0D8F9002803DB024838BDBC
S214002F500248FCE70020FAE780B3FFFF80B0FFFFDF
S214002F602DE9F04FBBB0054601919246994606F012
S214002F70EFF90290A0B1284606F0EFF9044658B9DA
S214002F8051462846FFF7CEFF044628B9494628464C
S214002F90FFF736FF044698B1284606F0E0F980E1D0
S214002FA051462846FFF7BEFF0446002840F07981C8
S214002FB049462846FFF724FF0446002840F0718162
S214002FC0284608F035FA012840F0AC81EB6D242144
S214002FD0013302204FEA530806F0FEFA06460028A0
S214002FE000F09E8106F1240708F02BFA384608F018
S214002FF028FA002419AB18190C3406F06BFF302C95
S214003000F8D14946304608F09EFA0446002840D1DA
S2140030108346D84520D139462846FFF737FE044672
S214003020B8BB284606F094F930B33B4632463946DC
S2140030302846FEF77FFC044658BB39462846FFF76D
S21400304025FE044628BB06F1180006F049FF06F1E7
S2140030503C0006F045FF1CE00123BBFBF8F203FA38
S21400306002F1C9B2242308FB12B203FB01692AB19C
S214003070284606F06DF948BBAB4C0AE0490801EB60
S214003080C10106EB8101484608F05DFA04460028B7
S214003090EED04FF0000919AB03EB090009F10C095B
S2140030A006F01EFFB9F1300FF5D1D4B16B6F9E421A
S2140030B008D0304608F002FA384608F0FFF93046E5
S2140030C006F09AFA019808F0F9F9E6E04A46494609
S2140030D02846FEF727FD04460028DAD10BF1010B3F
S2140030E097E704A806F0F6FE05F14C0B0DA806F0CF
S2140030F0F1FE2146584606F097FF012840F0D8809A
S2140031002146504606F090FF5146814604A806F038
S2140031103BFF044630B10DA806F0E2FE04A806F018
S214003120DFFEC3E7524659460DA807F024FA0446C8
S2140031300028F0D1B9FA89F94FEA59194A460DA97B
S21400314004A808F011F804460028E4D1014608F166
S214003150010219A80DF1640B0AF0E7F9A2465B46D6
S214003160D045039300F0A180514604A806F05CFF0A
S214003170039B1C7808EB0A01044304A806F054FFDE
S214003180E4B2039B44EA400403F8014B0AF1010A47
S214003190E6E79BF801009BF8003080EA020C6FEA35
S2140031A00C0101F0010113FB01F3104003EA0C02CD
S2140031B083EA0C030BF8013F1BF8013C43EAC113FA
S2140031C002430BF8013C0134A245E2D20DA806F0FA
S2140031D087FE04A806F084FE04A808F032F900244E
S2140031E00DAB18190C3406F075FE302CF8D10AF128
S2140031F0E8036B44019913F8843C3246284608F0ED
S214003200D6F8044648B9449B002B00F08480284634
S21400321006F09EF800284DD1434C04A808F0B9F8F3
S2140032204FF000080DAB03EB080008F10C0806F0A1
S21400323057FEB8F1300FF5D1002C7FF437AF019967
S2140032404A46284608F064F8044600287FF42EAF65
S214003250449B73B1284606F07BF800285ED0DDE973
S214003260442301992846FEF7B3FA044600287FF463
S2140032701DAF01992846FFF709FD6B6F9E42044675
S21400328008D0304608F01AF9384608F017F93046E4
S21400329006F0B2F9002C7FF415AF029B002B7FF4EA
S2140032A07BAE20463BB0BDE8F08F002201248BE7C2
S2140032B01E4CFBE6DDE9442301992846FEF788FA12
S2140032C048B30446A9E728460AF1FF3A06F040F854
S2140032D00028A1D0019A28461146FEF723FC0028B4
S2140032E0EFD118F80A30324604A9284608F05FF8ED
S2140032F00028E6D1284606F02BF800288CD0019A44
S21400330004AB11462846FEF715FB0028D9D1BAF1C2
S214003310000FD8D181E70DF16408F8E7024CC5E646
S214003320034CCFE6014CB8E780B1FFFF80B0FFFF4B
S21400333080B2FFFF2DE9F04196B00546984608F0AA
S21400334077F801280F46164650D101A808F079F8FC
S21400335000240AAB18190C3406F0BCFD302CF8D14A
S2140033604346324601A9284608F023F904460028B9
S2140033703AD1DDE91C233946284608F01AF90446F6
S21400338090BB284605F0E4FF0646B8B9284605F087
S214003390DFFFD0B9164C00270AABD8190C3706F059
S2140033A09FFD302FF8D116B1284605F0D8FF01A8AA
S2140033B007F0EFFF204616B0BDE8F081284605F07E
S2140033C0CCFF04460028E1D0E5E73B4601AA394693
S2140033D02846FEF7AFFA04460028DCD139462846D0
S2140033E0FFF754FC0446D6E70026D4E7004CE1E796
S2140033F080B1FFFF30B4DDE9024524B1CDE90245D6
S21400340030BCFFF7ADBD014830BC704780B0FFFF51
S21400341073B505461E4608F00BF801280C46014613
S2140034200ED11346009605F14C02204607F084FCA8
S214003430044B10F10E0F18BF0346184602B070BDBD
S214003440014BFAE700B3FFFF80B0FFFF2DE9F04124
S2140034500D46014628461746984600F08DF8044665
S214003460B0B9284607F0E4FF012805F17C0612D122
S21400347042463946304606F029FE044628B931460B
S2140034802846FFF74FFD044610B1304606F028FDEB
S2140034902046BDE8F081014CF7E700BF80B1FFFF92
S2140034A010B5044607F0C4FF012805D104F17C00DE
S2140034B0BDE8104006F02BBE004810BD80B1FFFFEF
S2140034C02DE9F0479A460378AAB005460C461646FC
S2140034D023B9284C20462AB0BDE8F0870A789A42DD
S2140034E0F7D101F188094946883006F005FF002823
S2140034F0EFD104F19408414605F1940006F0FCFE75
S2140035000028E6D104F1A007394605F1A00006F030
S214003510F3FE0028DDD102A807F093FF0BA807F002
S2140035209EFF21460BA808F024F804F1280304F1B6
S2140035307C02CDE9006A02A90BA808F089F80446C7
S21400354080B9494602A806F0D7FE50B9414605A8FC
S21400355006F0D2FE28B9394608A806F0CDFE044685
S21400356000B1044C02A807F014FF0BA807F0AAFF4E
S214003570B0E700BF80B0FFFF38B504460D4607F041
S214003580A1FF204607F06BFF032D257027D1164AB2
S214003590E26001250823154A6262C4E90153C4E9C2
S2140035A00753C4E91353C4E90A53114AA363114BE2
S2140035B06265114A6564C4E90F35104BA364C4E91B
S2140035C00C25201D06F05DFDA06504F14C0006F0FC
S2140035D058FDC4E917050020C4E91D0038BD0023C6
S2140035E007482370FAE700BF3CE200001CE2000038
S2140035F0BCE10000DCE10000FCE10000501000200F
S21400360080B1FFFF032804D00428034818BF002019
S21400361070470248704700BF5CE2000064E20000AA
S21400362038B5094C0546206810B90446204638BD12
S2140036306B6862689A4204D1A96809F04CFF0028BA
S214003640F4D01434EFE700BF94E9000070B50E46DE
S214003650054610B1094C206810B96FF02D0070BDFA
S2140036606B6862689A4203D1A96809F034FF08B112
S2140036701434F0E723693360F1E700BFD0E90000B7
S21400368070B5094C256815B96FF02D0009E0667C09
S214003690864207D1267C8E4204D1156062681A6085
S2140036A0002070BD1434EDE794E9000070B50E46B6
S2140036B0054610B1094C206810B96FF02D0070BD9A
S2140036C06B6862689A4203D1A96809F004FF08B1E2
S2140036D01434F0E7237C3370F1E700BF44E90000C0
S2140036E030B5084B1C6814B96FF02D0006E01D7C41
S2140036F0854204D15B680C600020136030BD143333
S214003700F0E700BF44E9000070B50E46054610B16C
S214003710094C206810B96FF02D0070BD6B686268A8
S2140037209A4203D1A96809F0D6FE08B11434F0E72E
S214003730237C3370F1E700BF1CE9000030B5084B6E
S2140037401C6814B96FF02D0006E01D7C854204D17C
S2140037505B680C600020136030BD1433F0E700BFD8
S2140037601CE900002DE9F04F87B00F460021054602
S2140037700093084690469B46134605AA109E06F000
S214003780DEFA284609F0E9FE0446384609F0E5FE6A
S21400379005994B1C03EB911323441844119B984244
S2140037A007D9129B6FF029081860404607B0BDE89D
S2140037B0F08F39B1012005F00FFF044618B9DFF885
S2140037C0A080F2E70C4643460599CDF800B005AA5E
S2140037D0204606F0B4FA804618B1204605F00CFFE5
S2140037E0E3E7284609F0B9FE29460246304609F0C6
S2140037F0A6FE284609F0B1FEA14635184FF00A0A83
S214003800DDF814B0BBF1000F18D1384609F0A5FE5C
S21400381039460246284609F092FE384609F09DFED3
S21400382002462B18581C129B05F802B0821B1A6021
S214003830119B59469A1A09F078FECEE75A46402A56
S21400384028BF402249462846039209F078FE039A8C
S2140038501544ABEB020005F801AB05909144CFE7A9
S21400386080EEFFFF0238C0B202289ABF024B53F820
S21400387020000020704700BF5CEA000070B50546D7
S2140038800E4641B1046834B94B6A9847686020B167
S2140038902E60204670BD0248FCE70248FAE700BFEB
S2140038A080C1FFFF80C0FFFFF0B58BB005460E4617
S2140038B02422002101A809F038FE1DB9144C204628
S2140038C00BB0F0BD2B68002BF8D101A9304608F0EC
S2140038D01EFB04460028F1D1BDF8047001A808F0CC
S2140038E027FD27F0FF03B3F5E24F0BD047F20103A5
S2140038F09F4209D1074F7B6A9847686030B12F60B6
S2140039000660DCE7044FF6E7044CD8E7044CD6E73D
S21400391080C1FFFF88EA0000B8EA000080C6FFFF0B
S21400392080C0FFFF2DE9F14F16460268DDF838B07B
S214003930DDE90A78DDE90C9A04460D461AB9114805
S21400394001B0BDE8F08F3BB90846FFF75BFE0028E4
S214003950F5D007F0C2FE03462268D2F814E0BEF1A6
S214003960000F0CD0CDE90DABCDE90B890A97606846
S21400397032462946F44601B0BDE8F04F604702489B
S214003980DEE700BF80C1FFFF00C1FFFF02230B7010
S2140039908830024B4B608860704700BF68EA0000C2
S2140039A010F1850F13DA10F1990F25DB99301328E3
S2140039B022D8DFE800F01C1C1E212121191C192129
S2140039C021211521210A172413110E4870470038AB
S2140039D018BF0120404270470B4870470B4870479D
S2140039E00B4870470B4870476FF06F0070470A48E7
S2140039F070476FF06D0070474FF0FF307047074814
S214003A00704700BF80C7FFFF80C6FFFF80C5FFFF6F
S214003A1080C0FFFF80C1FFFF00C2FFFF00C3FFFFA3
S214003A2000F19503102B12D8DFE803F00F0D1111EB
S214003A30111111111111110B11130911090006486A
S214003A407047064870470648704706487047FFF7B5
S214003A50A7BF0548704700BF80B0FFFF00B1FFFF5B
S214003A6000B3FFFF00B2FFFF80B1FFFF2DE9F04F6C
S214003A70B7B00C4605920646242200210DA81F4624
S214003A80DDE9408ADDF8089109F04FFD0023032C9C
S214003A9007930ED0042C474C18BF1C46307809A953
S214003AA007F06BFE054630B9434E304637B0BDE8EA
S214003AB0F08F424CF2E7424B7D2216A90BA8CDE9C7
S214003AC00B3600F03BFB0028EED016ABC0F17D00B5
S214003AD01844089030230AAA0DF1D50108A805F06D
S214003AE0FAFD064638B116A87D2100F0DDFB0798E2
S214003AF008F0E8F9D9E702230AAA0DF1D50108A8CB
S214003B0005F0E9FD06460028EDD1089B0A9A134405
S214003B1008930AAA04230DF1D50108A805F0DBFDD9
S214003B2006460028DFD1149ADDF828B045F4E241B5
S214003B3089B21ABBADF834104FF48051E4B20DA828
S214003B4007F011FE44F006240899119407AB5A4674
S214003B5008F075FAC0B1FFF723FF7D21044616A8CA
S214003B6000F0A2FB079808F0ADF9064604BB002853
S214003B709BD037B0BDE8F04FFFF712BF03460246B2
S214003B800DA808F0E1FBD7E7CDE901A9059A07984B
S214003B90CDF800803B46214608F0D8FA10B1FFF772
S214003BA03FFFDAE752464946404607F0AFFED4E705
S214003BB026467AE70900000280C1FFFF08000002DF
S214003BC048EB00002DE9F04FB9B0554F03928246FE
S214003BD0242200210BA89846DDE9425409F0A5FCF2
S214003BE00FCF14AE0FC60FCF0FC697E80F004FF0DB
S214003BF0000986E80F009AF80000CDF8149007A98F
S214003C0007F0BBFDDAF85CB0074620B9454C204605
S214003C1039B0BDE8F08F14AACDE9092A20AE0DF11F
S214003C20DE020692314609AA06A800F087F9B0F12E
S214003C30000AEBDD129B47F4824189B21BBBADF84C
S214003C402C104FF400510BA807F08DFDCAF15E0151
S214003C504FF0062905AB52463144CDF83C9008F0AB
S214003C60EEF9B0B1FFF79CFE0546059808F02AF974
S214003C700446002D52D1002CC9D0204639B0BDE8EC
S214003C80F04FFFF78DBE4B464A460BA808F05CFB8C
S214003C90D7E70BF1070B4FEADB0BBBF12F0F4FEA11
S214003CA04B0A37D806952544302308AA294606A885
S214003CB005F011FD044618B1059808F003F9A6E7CB
S214003CC05B463246294606A807F055FE04460028FD
S214003CD0F2D15B46F218294606A807F04CFE0446C9
S214003CE00028E9D1CDE9006A039A0598434649467B
S214003CF008F03BFA10B1FFF793FEB5E7DDE90503E0
S214003D009D4203D108F0DEF80446B4E708F0DAF87E
S214003D10054C7CE7059808F0D5F877E72C4676E75B
S214003D2048EB000080C1FFFF00C7FFFF2DE9F04F02
S214003D3004468FB08A4615460021242205A8DDE9F0
S214003D401879DDF868801E4609F0EFFB206805A9A3
S214003D5008F0DDF820B10FB0BDE8F04FFFF720BE49
S214003D60BDF814B005A82BF0FF0B08F0E1FABBF580
S214003D70E24F22D1BAF1030F15D0BAF1040F104961
S214003D8018BF0021CDE90198C9B2009720683346D4
S214003D902A4641F0062108F0D9F930B10FB0BDE847
S214003DA0F04FFFF73DBE0749ECE74A464146384626
S214003DB007F0ACFD0FB0BDE8F08F0348FAE700BF90
S214003DC0090000020800000280C6FFFF0368062BF9
S214003DD013B50C4602D00A4802B010BD0DF107011B
S214003DE0FFF792FC48B923789DF807100BB18B4279
S214003DF0F1D12046FFF7C0FBEEE70248ECE700BF34
S214003E0000C3FFFF00C6FFFF30B5154685B0002291
S214003E10C3E900229A6001AA1C4605F03CFD18B1D1
S214003E20A0F56A5005B030BD294601A8FFF73EFC54
S214003E3060B92B78012BF5D12368052B00D03BB950
S214003E406268044B002A18BF1846EBE70248E9E709
S214003E500048E7E780C5FFFF80C3FFFF2DE9F0437A
S214003E6087B0002316468DF8073002AA3023054691
S214003E7005F031FC28B1A0F57454204607B0BDE823
S214003E80F083029B2F681F440DF1070203AB3946EF
S214003E902846FFF7B9FF04460028EED102AA3946A5
S214003EA0284605F0E4FC10B1A0F56C54E5E72B6855
S214003EB0029A13449F4238D19DF80700FFF7D2FCC0
S214003EC00146A0B33046FFF7D9FC04460028D4D1FB
S214003ED09DF80730023B012B25D896E8030007F033
S214003EE0D5FD014603A8FFF771FF044670B996E8B2
S214003EF0030007F0CBFD2A6800F18809BB1A494683
S214003F008046FEF73DFF044620B12F60304607F09E
S214003F10FBFBB2E749464046FEF772FF2F600446B9
S214003F200028AAD0F2E7034CF0E7034CA5E7014CC3
S214003F30A3E700BF80C3FFFF9AC4FFFFF0B585B0BC
S214003F400646002710460C461546019707F006FC65
S214003F50022817D195E8030002AB83E80300184651
S214003F6007F0FCFB0238022894BF039A3A46214623
S214003F70304607F09AFD00280EDB019B03440193B0
S214003F80019809E0284607F0E9FB072816D13268B1
S214003F906868A24202D20A4805B0F0BD006801ABCC
S214003FA0121B214608F00CF80028F4D13068019A5C
S214003FB0801A3060214609F09EFAE1E70148EBE7F7
S214003FC080C1FFFF80C6FFFF2DE9F04F82468FB00D
S214003FD00E462AB96FF06B0420460FB0BDE8F08F8E
S214003FE00A440292024602A8FFF7A8FF041EF3DB6B
S214003FF0029B9A1B002AEDDD5A1E0027651C0292C2
S214004000314603F8017C2A4602A805F0ACFCB0F164
S2140040100009C0F286800322314602A805F017FD8B
S214004020B0F100087FDB504607F098FB0228834675
S21400403038D19AE8030005AB83E80300184607F07A
S2140040408DFB0238022872D8069B31461A7802A8E1
S21400405007F04EFD041EBFDB274603AA04A95846F8
S214004060FFF73EFB04460028B6D1DDE90332009791
S214004070314602A805F077FD041EADDB4D444544ED
S21400408025442A46314602A805F06DFC041EA3DB33
S2140040903022314602A805F0DAFC002845DB25442C
S2140040A0441999E70728D8D13946242205A809F0EB
S2140040B03CFADAF8043005A9186807F028FF58BB60
S2140040C0BDF81440BDF8167005A808F031F924F0C4
S2140040D0FF03B3F5E24F15D1E4B2122C1FD1B7F5AA
S2140040E0807F1CD10823134A049231460DEB03004F
S2140040F0039305F01DFD041EFFF66EAF27464FF036
S214004100020BAAE724F4405444F201039C4206D171
S2140041104FF0010B0027A0E76FF06F045CE7064C3A
S2140041205AE74C4658E7444656E7044654E73B7879
S214004130FFDE00BF0EE3000080C6FFFF2DE9F04F54
S21400414005468FB00C462AB96FF06B0738460FB09D
S214004150BDE8F08F0A44059207F000FB022840F005
S214004160958095E8030006AE86E80300304607F023
S214004170F5FA0238022894BFDDF81CB04FF0000BA9
S2140041805A46214605A807F090FC071EDEDB059A76
S214004190111B0029D8DD511E05917D1C002102F857
S2140041A0011C05A82A46214605F0DDFB071ECDDBCF
S2140041B00322214605A805F04AFC002870DB3D4492
S2140041C043191A46214605A8029305F0CCFBB0F128
S2140041D0000A5DDBA122214605A805F038FCB0F1F7
S2140041E0000957DB9BF80020214605A807F080FC55
S2140041F0071EABDB3A46214605A8019705F0B3FB40
S214004200B0F1000848DBA022214605A805F01FFCF7
S214004210031E039342DBDBF858500735ED082A46A9
S21400422031465846FFF73CF9074630B92B4632462A
S214004230214605A805F008FD07462946304600F049
S21400424033F8002F82DB0122214605A805F0D9FCB1
S214004250002825DB029D019B55444D441D44039BCD
S21400426045441D443D4405442A46214605A805F01C
S2140042707AFB071EFFF66AAF3022214605A805F036
S214004280E6FB00280CDB3D4447195FE7054F5DE77A
S21400429057465BE74F4659E7474657E7039F55E7BC
S2140042A0074653E780C6FFFF0A4619B1024B0021B6
S2140042B01B681847704700BF541000200E4B034081
S2140042C0B3F1607F06D1B1F5885F14BF6FF086004A
S2140042D000207047B3F1707F0BD101F4E043B3F5D3
S2140042E0005F06D111F4E06F0CBF6FF0860000206F
S2140042F070476FF0860070470000C07F8A42F8B5AE
S21400430006460C4600F0DB806F4922F4FF7323F06C
S21400431001038B420ED06D4B22F0FF01994209D06B
S2140043206B4822F47F7323F00303834202D0694B69
S214004330994228D1684B24F0FF0199420FD114F01E
S214004340FF000BD0654B40F00070984240F0B980FB
S21400435082EA0400FF288CBF00200120F8BD5B4BDA
S2140043609942ECD0A3F588539942E8D024F4FF7321
S21400437023F00103B3F1062FE1D056488142DED088
S21400438053498B42DBD004F0FE43B3F1A06F14D147
S21400439002F0FE43B3F1A06F40F0938082EA04037C
S2140043A033F47E1340F08D8014F40040D6D0C4F36E
S2140043B00540C2F305429042CDE7B3F1407F6AD193
S2140043C002F0FE43B3F1407F7BD182EA040535F468
S2140043D07E1576D131462046FFF770FF002870D153
S2140043E03F4B12F47C1703EA02031BD0B3F1607F45
S2140043F0C2F305473FD13B49D3B243F000738B422B
S2140044003DD003F17E43043B0F2B01D83649CD5CEB
S21400441014F47C1FC4F3054333D1BD4214BF0020FF
S21400442001209BE7B3F1607F0DD12E49D3B243F054
S21400443000738B421DD003F17E43043B0F2BDAD86A
S2140044402A49CF5CD7E7B3F1707FE1D106F4E043A9
S214004450B3F5005F03D1C6F3022301279F4006F49D
S214004460E043B3F5005FD3D1C6F3022101258D40AA
S214004470CEE71027BFE7B3F1707FC9D1EFE710256D
S214004480C6E712F47C1F01D1AB4218D022047FF598
S21400449065AFBB425FE7B3F1106F12D124F01F6027
S2140044A020F4702068B902F0FE43B3F1106F7FF479
S2140044B055AF0F48104040F01060A042AEE7012014
S2140044C04CE700204AE700BF000200060013000683
S2140044D0000400060009000600030006FF000002B4
S2140044E00000C07F0300000278EB000078EB0000BD
S2140044F00000FFF621F4FF7210B521F0FF031A4CFE
S21400450022F00102F8B121F4BF6020F00700A042BB
S21400451012D0164883420FD0A0F5206083420BD0FD
S214004520134B9A4208D003F58063994208BF0020D7
S21400453018BF6FF0860005E0C9B2002914BF00203E
S2140045406FF0860010BDA242FCD0084A9342F9D014
S21400455021F47F7121F00301A2F570629142F1D03F
S21400456002F5A0629342E3E700020006001300068D
S214004570000400062DE9F843884617461C4600F05E
S214004580C3FD054688BBD8F80060B6F8009009F46D
S214004590E043B3F5804FF36808BF27F0010737EA1A
S2140045A003031AD10CB3254B24F0FF029A421FD105
S2140045B014F0FF0304D0224A43F00073934232D033
S2140045C0316922464846FFF799FE074668B9716981
S2140045D022464846FFF792FE70BB6FF08405002324
S2140045E0C8F80030304608F0E1F82846BDE8F88301
S2140045F0144B9A42DCD0A3F588539A42D8D024F4C0
S214004600FF7323F00103B3F1062FD1D00E498A427F
S214004610CED00E4A9342CBD004F0FE43B3F1407F97
S21400462004D12304CCD56FF08605D8E7B3F1A06F8C
S214004630F7D0034B9C42C2E73D46D6E70003000690
S214004640FF00000200130006000900060004000632
S214004650434213F07F0207D0402AC2F1000040F028
S214004660E5806FF09300704710F56E5F00F05281A2
S21400467000F3F58010F5884F00F0108100F3948069
S21400468010F5A44F00F040815BDC10F5C44F00F03D
S214004690388148DC10F5C74F00F0968070DB10F5C7
S2140046A0C64F00F03A8110F5C54F69D16FF086000D
S2140046B0704700F11403142B62D801A252F823F0BD
S2140046C0AD460000814700001B49000081470000FE
S2140046D00F4900001B490000AD460000AD46000033
S2140046E0AD46000081470000AD460000814700004F
S2140046F09D48000081470000AD460000814700004D
S214004700AD460000814700000949000081470000CF
S214004710854700007230062832D8DFE800F00F31F7
S2140047205F315531BF0010F5C34F00F0F08027DB36
S21400473010F5C24FBAD010F5C14F21D16FF08500E9
S214004740704710F59B4F00F0E2801CDC10F59E4F82
S21400475000F0A4800DDC10F5A34F00F0D8800FDB2E
S21400476010F5A14FEAD010F59F4F9FD010F5A24F3D
S2140047709BE710F59D4FE1D010F59C4F00F0CD80E3
S2140047806FF08300704710F5984F00F0C68006DC87
S21400479010F59A4F3FF465AF10F5994F85E710F581
S2140047A0894F3FF45EAFEBE710F5824F00F0A9802B
S2140047B017DC10F5854F07D009DC10F5874F00F0A1
S2140047C0AC8010F5864FDBD16FF09600704710F581
S2140047D0844F3FF46BAF10F5834FD1D16FF092004A
S2140047E0704710F5765F3FF461AF14DC10F5785F24
S2140047F000F08A80C4DC10F57E5F00F0888002DC62
S21400480010F5814F51E720F0800010F57C5F08BF5F
S2140048106FF0860071E010F5705F7BD0B0DC10F5AD
S214004820745F3FF443AF10F5725F86E75B061FD5F3
S21400483010F16B0F35DA10F1720FBFF66BAF10F593
S214004840645F6AD026DC10F5685F3FF477AF1EDC45
S21400485010F56C5F3FF42AAF10F56A5F6DE710F154
S214004860400F3FF4FEAE10F13F0FE1DB002887DC7F
S21400487010F1140FBFF61DAF10F13B0F2FDA10F139
S2140048803E0FCCBF6FF093006FF08300704710F5BB
S214004890665F52E710F5625F7FF472AF6FF08900D3
S2140048A0704710F1540F3BD010F1530F14DA6A30F2
S2140048B014283FF665AF0123834040F2545213425A
S2140048C07FF4F4AE142828D013F0010F14BF6FF055
S2140048D08C006FF08300704710F1510F97E732306D
S2140048E01C283FF64DAF104A0123834013427FF445
S2140048F025AF1C2808BF6FF0890018BF6FF0830033
S21400490070476FF0950070476FF0910070476FF03A
S2140049108C0070476FF0840070476FF0940070470B
S2140049206FF08800704700BF015005002DE9F04188
S21400493017461C461F4A23F4FF7323F001039342D5
S21400494090B005460E460ED01B4B24F0FF029A424E
S21400495009D01A4924F47F7323F003038B4202D054
S214004960174B9A4223D107AB14F0FF000DF1200835
S21400497001934FF0200318BF40F000700093DDE96C
S2140049801612434607F0B9FD70B91A9B0493199B9B
S2140049900393189B0293079B3A46CDE90083314662
S2140049A02346284607F0F7FC10B0BDE8F0816FF00C
S2140049B08500F9E700020006001300060004000662
S2140049C0000900062DE9F04117461C461E4A23F44E
S2140049D0FF7323F0010393428EB005460E460ED0B9
S2140049E01A4B24F0FF029A4209D0194924F47F7327
S2140049F023F003038B4202D0164B9A4221D105AB1B
S214004A0014F0FF000DF1180801934FF0200318BFB3
S214004A1040F000700093DDE91412434607F06DFD88
S214004A2060B9179B0393169B0293059B3A46CDE904
S214004A30008331462346284607F0C3FC0EB0BDE887
S214004A40F0816FF08500F9E700020006001300060B
S214004A5000040006000900062DE9F0430588DDF88D
S214004A602C8047F201094D45DDE90767DDE909CEEF
S214004A7012D123F4FF7423F0FF02154B24F0010437
S214004A809C421ED003F588539A4214BF6FF08600EE
S214004A906FF08500BDE8F08305F44F45B5F5824F0D
S214004AA00FD123F4FF7424F00104B4F1062F0BD1C8
S214004AB0CDE90AE8CDE9087C0796BDE8F04300F0AA
S214004AC033B96FF08500E5E76FF08600E2E700BFD8
S214004AD0000200062DE9F043058844F2010825F49B
S214004AE04059C145DDE90767DDE909CE12D123F457
S214004AF0FF7423F0FF02144B24F001049C421DD0E7
S214004B0003F588539A4214BF6FF086006FF0850055
S214004B10BDE8F08305F44F45B5F5824F0ED123F47A
S214004B20FF7424F00104B4F1062F0AD1CDE909CEB2
S214004B30CDE90767BDE8F04300F06CB96FF085007B
S214004B40E6E76FF08600E3E70002000637B50C4D97
S214004B502B78DB070C460FD5002301930A4601ABE2
S214004B600146281D04F0BBFC20B9019BA34218BFD8
S214004B706FF0930003B030BD6FF08800FAE700BF17
S214004B802C2C002008B500F067FA094B08481A7864
S214004B9012F0060F18BF00224FF00C0118BFC3E931
S214004BA00122FFF781FBBDE8084007F0EFBB00BF1E
S214004BB02C2C002038B50E4D2B7813F0010211D1A5
S214004BC0C5E90122022262F342032B7000F038FA94
S214004BD0044650B907F0D8FB044630B92B7843F0AA
S214004BE001032B700024204638BDFFF7CBFFFAE701
S214004BF02C2C00202DE9F74300F4E040B0F5804F60
S214004C00DDF828800D4616461F462CD101F188098E
S214004C10484606F0C5FC88B9434600224946CDE919
S214004C2000672846FEF756F8FFF712FD044678B3ED
S214004C303A460021304608F078FC10E00023019345
S214004C40164B009305F17C0205F1280349462846D9
S214004C5006F0FEFCFFF7FCFC04460028DCD02046ED
S214004C6003B0BDE8F083CB6D0733B7EBD30F4FEA45
S214004C70D3020FD331462846FEF712FCFFF7E8FCB6
S214004C8004460028D4D1EB6D0733DB08C8F80030A3
S214004C900024E4E76FF08904E1E700BF85C1000067
S214004CA02DE9F041044600881F4600F44F43B3F553
S214004CB0824F18BF0020ACB0884615466188002297
S214004CC0C0B207F045F80646FDF7F8FF246A34BB85
S214004CD02EB320B301A806F0E3FB2346114A01A930
S214004CE0304606F0E6FC044650B101A806F01BFC70
S214004CF02046FFF7ADFC044620462CB0BDE8F08108
S214004D002A46414601A8FEF7CBFBFFF7A1FC044666
S214004D1001A806F008FC002CEED13D60ECE76FF031
S214004D208504E9E785C100002DE9F0418CB01C46FA
S214004D300023059305AB009313460A464188008876
S214004D40149F07F0F7FBF8B9059E06A8B56D05F0A9
S214004D50C1F809A805F0BEF80735159BED08B3EBBA
S214004D60450F4FEA450812D206A805F0B9F809A87B
S214004D7005F0B6F8244C304606F0D5FB304604F075
S214004D803BFC2046FFF764FC0CB0BDE8F08114F451
S214004D90807407D006A805F0A3F809A805F0A0F8C7
S214004DA01A4CE8E71A4B0293139B0193129B039449
S214004DB0009309AA06F17C0306A9304606F074FAA9
S214004DC0044630B106A805F08BF809A805F088F867
S214004DD0D1E72A46394606A805F099F90446002880
S214004DE0F0D12A46791909A805F091F9044606A8D3
S214004DF005F076F809A805F073F8002CBBD1169BD1
S214004E00C3F80080B7E700BF00B1FFFF80B1FFFF27
S214004E1085C100002DE9F0438BB0134600220392B3
S214004E2003AA00920A4641880088DDF8508007F001
S214004E3081FB00283DD1039DAA6D04AF073238469A
S214004E4007AE4FEAD20905F045F8304605F042F8BD
S214004E50159BB3EB490F3ED14A464146384605F00E
S214004E6035F90446B0B94A4608EB0901304605F064
S214004E702DF9044670B905F18808404606F090FB07
S214004E80D0B9CDE90076DDE912124346284606F091
S214004E901BFA0446384605F023F8304605F020F89D
S214004EA0284606F040FB284604F0A6FB2046FFF7FF
S214004EB0CFFB0BB0BDE8F083084B0194009305F1DF
S214004EC07C0205F128034146284606F0C1FB04464D
S214004ED00028D6D0DEE7024CDCE700BF85C1000024
S214004EE000B2FFFFF8B5076806460C464FBB164BE8
S214004EF099420CD00133994219D001F0FE44B4F126
S214004F00007F14BF6FF086006FF08500F8BD051DAA
S214004F10284604F041FA01212846FCF729FF0546F9
S214004F2058B934602846BDE8F840FFF791BB051D28
S214004F30284604F031FA3946EEE7304607F0CFFB54
S214004F40F0E76FF08800E1E7080000022DE9F04185
S214004F5005781E461D4B45F000759D42074688465F
S214004F60144605D1326062BB6FF08900BDE8F0815F
S214004F7005F17E45043D0F2D17D9326082B9002514
S214004F803B6803F17E43083B012B1CD84146381D85
S214004F9004F00DFAFFF75CFB0028E7D13560E5E783
S214004FA02121404608F0C1FAE9E7094B32605D5D11
S214004FB022B122462121404608F0B7FAAC42DFD2A1
S214004FC0D2E71025F5E76FF08800CFE70300000270
S214004FD088EB000000F100420532042A38B504468A
S214004FE00D4609D8154B282101FB02339A688242E8
S214004FF015D06FF08B0038BD012107F0C6FBB0B1AD
S2140050000E48002203468168A14205D00132052AD7
S21400501000F12800F7D1ECE7282101FB0233DA691A
S214005020511C07D00132DA6100202B60E3E76FF0F5
S2140050308700E0E76FF09600DDE700BF382C002021
S214005040044A92F8C83043F0010382F8C8300020C2
S214005050704700BF382C0020F8B5094C05252646B9
S2140050600127E761204606F01CFF013D04F12804F5
S214005070F7D196F8C83065F3000386F8C830F8BD57
S214005080382C0020F8B51E4C94F8C8300646D807D1
S2140050900F462BD500252346294618881A46A8B160
S2140050A02DB91A791AB1DA69002A08BF1D460131EE
S2140050B0052903F12803F0D115B96FF08C0017E02D
S2140050C00123EB61284606F0ECFE2A46D369591CFC
S2140050D012D00133D361141B0A4BE4105C4304F175
S2140050E00044053C346000203A60F8BD6FF088004C
S2140050F000233B603360F8E76FF09600F8E700BFE8
S214005100382C0020CDCCCCCC0023F0B50B60264B41
S21400511093F8C830DC0785B007460D4641D5FFF743
S21400512059FF10F18C0F04461ED1294601A8FFF73F
S214005130A9FF0446C0B92E680123CDE90200B76076
S214005140736003AA02A9304607F0FCFB044670B160
S214005150DDE9020107F0ECFB286806F0A2FE14F178
S2140051608C0F08BF6FF08704204605B0F0BDDDE960
S2140051700212304606F02EFE0446DDE9020107F074
S214005180D7FB002CE8D12B68DA68D00444BF42F481
S2140051908062DA60DA689104E6D542F40062DA608A
S2140051A0E2E76FF08804DFE7382C002030B4224DA9
S2140051B02C681C606C685C6000241C725C729C72BC
S2140051C0DC7254681C73250A5D73250C240E9D73CF
S2140051D0DC7314881C74240A5C7454889C74240A37
S2140051E0DC74D4681C75250A5D75250C240E9D7527
S2140051F0DC7514691C76250A5D76250C240E9D76D2
S214005200DC7652691A77140A5C77140C120EDA7779
S2140052100A0A83F821200A0C83F822200A0E9C77BB
S21400522083F8201083F8232030BC0A46014603F199
S214005230240008F084B900BF98EB00002DE9F8437D
S2140052402329089E04460F469146984604D86FF0D8
S21400525098052846BDE8F8831949082208F03BF966
S21400526005460028F3D1A368002BF0D1216AC8F8C0
S2140052700010243FB942EAD8B1F5005FE7D271B911
S214005280C9F80000E3687360238A3380638A7380FA
S2140052906369F360A3693361E3697361D9E7012049
S2140052A004F09AF9C9F8000030B1D8F8002004F1EB
S2140052B0240108F044F9E5E76FF08C05C9E700BF64
S2140052C098EB0000002370B513600A2603681C786C
S2140052D0303C092C0CD814685D1C744314600560BF
S2140052E01B78303B234401391360EFD1084670BD6C
S2140052F00048FCE700DCFFFF38B503681546CA1A0D
S214005300002A044616DD1A7802F07F02022A13D11C
S2140053105A1C02602A461B7842F8043B04F093F9B4
S21400532010B1A0F50A5038BD23686A68AB60134414
S2140053302360F8E70148F6E70148F4E720DDFFFFC1
S2140053401EDDFFFF2DE9F743DFF8008104460F4618
S214005350914631236A463946204604F0BCF920B10E
S214005360A0F50E5003B0BDE8F0832668009B4D46BE
S2140053701E44302301AA3146204604F0ACF988B119
S214005380A0F50E500028EDD12368B34248D0012086
S2140053902877202104F020F9A86108B92748E1E71A
S2140053A00546E6E7019A2368002A03EB020901DCBA
S2140053B02348D7E72A461B7842F8043B494606238B
S2140053C0204604F088F90028DAD121686868A960C8
S2140053D00B18A9EB0302002A2360E9DD0A5C1E2AEB
S2140053E005D01C2A1AD828FA02F2D20716D501339D
S2140053F023600B5CEB6005F110024946204604F082
S21400540022F90028BCD123682A696B6113449945A8
S214005410236001D1A861B7E70A48A3E70A48A1E7D5
S214005420BE4208D02021012004F0D6F88146A861AB
S21400543000288ED1B2E7002094E700BF80D7FFFF98
S21400544020DCFFFF1ADCFFFF1EDCFFFF08105810F1
S2140054500368F7B51446CA1A002A054640F3A0802A
S2140054601A78172A0ED0182A40F09C800427013399
S2140054702B6001AA284604F0E6F828B1A0F51050E3
S21400548003B0F0BD0227F2E7019E07F108039E4233
S2140054907ED3224639462846FFF714FF0028EFD170
S2140054A0022F08D12368312BDCBF643323602368C6
S2140054B003F26C732360221D02212846FFF702FFC9
S2140054C00028DDD104F1080202212846FFF7FAFE83
S2140054D00028D5D104F10C0202212846FFF7F2FE7F
S2140054E00028CDD104F1100202212846FFF7EAFE7B
S2140054F00028C5D1F61BA6F10803012B48D904F1F4
S214005500140202212846FFF7DDFE0028B8D10B2E34
S214005510A6F10A033AD12B681A785A2A38D10133F1
S2140055202B60236842F20F72934231D8E268172A42
S2140055302ED822693B2A2BD862693B2A28D8616874
S2140055400C2925D801228A4041F2AA552A4221D1A7
S21400555012F4256F20D102291AD19A0705D16421A9
S21400556093FBF1F201FB1232C2B94FF4C87293FBFF
S214005570F2F102FB1133002B14BF1C231D23A2687B
S214005580002A05DD9A427FF77BAF01E0002BC8D0EA
S214005590054875E71F23F2E71E23F0E71D23EEE715
S2140055A002486DE702486BE700DCFFFFA0DBFFFF69
S2140055B09EDBFFFF73B5154602688B1A002B044668
S2140055C010DD167801AA04F052F918B1A0F51250B1
S2140055D002B070BD2368019AAB6013442E606A6007
S2140055E02360F5E70048F3E720DBFFFF10B50C4625
S2140055F011461A46029B1B687BB906F071F810B17B
S214005600A0F5185010BD2368052B00D03BB9626882
S214005610044B002A18BF1846F4E70348F2E701488F
S214005620F0E700BF00DDFFFF00D8FFFF73B543F0D3
S214005630A006144633460432054604F04CF818B16A
S214005640A0F5145002B070BD2968A1602660646899
S2140056500C44302301AA2146284604F03CF80028D2
S214005660EED1019A2B681344024A9C4218BF10469A
S214005670E8E700BF9ADAFFFF2DE9F04F8146C3B096
S21400568008460E4607F069FF02AD06EB0008002745
S214005690484604F05AF934460122BB46AA46444519
S2140056A001D9002009E02378E2B13D2B4FD12A4FE3
S2140056B0A51B386820B9A0F5045043B0BDE8F08FAC
S2140056C07B689D4204D12A46314607F0F2FE08B1B7
S2140056D01037EEE7D7F808B0661C554644451CD090
S2140056E023460BE05C2B16D1444516D0631C984528
S2140056F001D11A48E1E762782C2AFAD15A1C964260
S21400570007D01A7805F8012BA5EB0A02B2F5807FC0
S214005710EFD000221CE02C2BE0D1584607F01DFFEE
S214005720A5EB0A030246009359465346484604F042
S214005730A6FA78B1FB68C3602346434504F101042A
S214005740264602D05A78202AF6D0012200E02346C8
S2140057505C1CA4E70248B0E7B8EB000080DCFFFF63
S21400576080D7FFFF70B5036803F0DF03802B8CB093
S21400577006460C4603D0822B6FD03F4834E085683F
S214005780436802951D4401AA0623294602A803F091
S214005790A2FFB8B1A0F5145030BB28222046002145
S2140057A007F0C3FE043403AA0BAD134603CBAB428B
S2140057B0206061601A4604F10804F6D1186820607B
S2140057C0002011E0DDE90126082AD6D12B48314613
S2140057D007F081FE0028D0D10836B54206D803A8C7
S2140057E02421FEF761FD26480CB070BDA02301AA57
S2140057F0294602A8029603F06EFF0028CAD130237D
S21400580001AA294602A803F066FF0028C2D1062393
S21400581001AA294602A803F05EFF0028BAD1062393
S214005820019A0693029B089313449D420792D6D989
S214005830029304230DEB0302294602A803F04BFF54
S2140058400028A7D10423019A0993029B0B931344C3
S2140058509D420A920293A0D0C1E70D1D242200218A
S214005860284607F062FE022323603368636073688D
S214005870A360B368E360A3E780DFFFFF88ED000066
S2140058809ADAFFFF2DE9F04FA7B00C4617461E46E2
S2140058900390002800F0EF83002900F0EC83054613
S2140058A04FF00009EB69A3B1D5F850314BB94FF46E
S2140058B0AA71012003F090FEC5F8500120B9AA4C49
